{
  "transactions": [
    {
      "hash": "0x278a535b99f865aeb27676311725a1ce78e4fa0cff1493fe71240d0b91a881d6",
      "transactionType": "CALL",
      "contractName": null,
      "contractAddress": "0xd0dcc724070d7f72e8f7f2e0e4cde5a5a3006adb",
      "function": "devMint(address,address,uint256)",
      "arguments": [
        "0xE355d5D8aa52EF0FbbD037C4a3C5E6Fd659cf46B",
        "0x4339f7635aDDAe492247cD8d24576D79B26C1575",
        "5555555555555555555555"
      ],
      "transaction": {
        "from": "0xe355d5d8aa52ef0fbbd037c4a3c5e6fd659cf46b",
        "to": "0xd0dcc724070d7f72e8f7f2e0e4cde5a5a3006adb",
        "gas": "0xcbca",
        "value": "0x0",
        "input": "0x40ddd06e000000000000000000000000e355d5d8aa52ef0fbbd037c4a3c5e6fd659cf46b0000000000000000000000004339f7635addae492247cd8d24576d79b26c157500000000000000000000000000000000000000000000012d2ad2372ed4ce38e3",
        "nonce": "0x69d",
        "chainId": "0x66eee"
      },
      "additionalContracts": [],
      "isFixedGasLimit": false
    },
    {
      "hash": "0x7937abfa5c5fdf51d27508e904b99a42fc3378965946d4469efbe7d6bd013927",
      "transactionType": "CALL",
      "contractName": null,
      "contractAddress": "0x4339f7635addae492247cd8d24576d79b26c1575",
      "function": "approve(address,uint256)",
      "arguments": [
        "0xE080d1B17A67F96F865143269Dc991cDDB01D996",
        "5555555555555555555555"
      ],
      "transaction": {
        "from": "0xe355d5d8aa52ef0fbbd037c4a3c5e6fd659cf46b",
        "to": "0x4339f7635addae492247cd8d24576d79b26c1575",
        "gas": "0xeb8f",
        "value": "0x0",
        "input": "0x095ea7b3000000000000000000000000e080d1b17a67f96f865143269dc991cddb01d99600000000000000000000000000000000000000000000012d2ad2372ed4ce38e3",
        "nonce": "0x69e",
        "chainId": "0x66eee"
      },
      "additionalContracts": [],
      "isFixedGasLimit": false
    },
    {
      "hash": "0xaed300d049c0e4dea565b833ffd980ed88c2bb373d6db8dbf1984c4abbb2983f",
      "transactionType": "CALL",
      "contractName": null,
      "contractAddress": "0xe080d1b17a67f96f865143269dc991cddb01d996",
      "function": "provideLiquidity(address,address,uint256)",
      "arguments": [
        "0xE355d5D8aa52EF0FbbD037C4a3C5E6Fd659cf46B",
        "0x90B86eAD2C95f1BC37c191CC7f1e67Eb63A25A34",
        "5555555555555555555555"
      ],
      "transaction": {
        "from": "0xe355d5d8aa52ef0fbbd037c4a3c5e6fd659cf46b",
        "to": "0xe080d1b17a67f96f865143269dc991cddb01d996",
        "gas": "0x8e4f7",
        "value": "0x0",
        "input": "0x9e8b6b7f000000000000000000000000e355d5d8aa52ef0fbbd037c4a3c5e6fd659cf46b00000000000000000000000090b86ead2c95f1bc37c191cc7f1e67eb63a25a3400000000000000000000000000000000000000000000012d2ad2372ed4ce38e3",
        "nonce": "0x69f",
        "chainId": "0x66eee"
      },
      "additionalContracts": [],
      "isFixedGasLimit": false
    },
    {
      "hash": "0x7ebec07600ee2eef7e6b1a34a179f3d1b322a132c53de106fb490f77e4a1157e",
      "transactionType": "CALL",
      "contractName": null,
      "contractAddress": "0xd0dcc724070d7f72e8f7f2e0e4cde5a5a3006adb",
      "function": "devMint(address,address,uint256)",
      "arguments": [
        "0xE355d5D8aa52EF0FbbD037C4a3C5E6Fd659cf46B",
        "0x4339f7635aDDAe492247cD8d24576D79B26C1575",
        "5555555555555555555555"
      ],
      "transaction": {
        "from": "0xe355d5d8aa52ef0fbbd037c4a3c5e6fd659cf46b",
        "to": "0xd0dcc724070d7f72e8f7f2e0e4cde5a5a3006adb",
        "gas": "0xcbca",
        "value": "0x0",
        "input": "0x40ddd06e000000000000000000000000e355d5d8aa52ef0fbbd037c4a3c5e6fd659cf46b0000000000000000000000004339f7635addae492247cd8d24576d79b26c157500000000000000000000000000000000000000000000012d2ad2372ed4ce38e3",
        "nonce": "0x6a0",
        "chainId": "0x66eee"
      },
      "additionalContracts": [],
      "isFixedGasLimit": false
    },
    {
      "hash": "0x05dbfc2f19ed4906d133db999dde39431da1fe7d81d01eef6003e9e80a6644f5",
      "transactionType": "CALL",
      "contractName": null,
      "contractAddress": "0x4339f7635addae492247cd8d24576d79b26c1575",
      "function": "approve(address,uint256)",
      "arguments": [
        "0xE080d1B17A67F96F865143269Dc991cDDB01D996",
        "5555555555555555555555"
      ],
      "transaction": {
        "from": "0xe355d5d8aa52ef0fbbd037c4a3c5e6fd659cf46b",
        "to": "0x4339f7635addae492247cd8d24576d79b26c1575",
        "gas": "0xeb8f",
        "value": "0x0",
        "input": "0x095ea7b3000000000000000000000000e080d1b17a67f96f865143269dc991cddb01d99600000000000000000000000000000000000000000000012d2ad2372ed4ce38e3",
        "nonce": "0x6a1",
        "chainId": "0x66eee"
      },
      "additionalContracts": [],
      "isFixedGasLimit": false
    },
    {
      "hash": "0x43cc09fd092aac34c458fe97d11467d755dae0f72802bfd6d9ead13330fed225",
      "transactionType": "CALL",
      "contractName": null,
      "contractAddress": "0xe080d1b17a67f96f865143269dc991cddb01d996",
      "function": "provideLiquidity(address,address,uint256)",
      "arguments": [
        "0xE355d5D8aa52EF0FbbD037C4a3C5E6Fd659cf46B",
        "0xe7E731da17D5635D663f63B65b200d4FCed39FAa",
        "5555555555555555555555"
      ],
      "transaction": {
        "from": "0xe355d5d8aa52ef0fbbd037c4a3c5e6fd659cf46b",
        "to": "0xe080d1b17a67f96f865143269dc991cddb01d996",
        "gas": "0x8e4f7",
        "value": "0x0",
        "input": "0x9e8b6b7f000000000000000000000000e355d5d8aa52ef0fbbd037c4a3c5e6fd659cf46b000000000000000000000000e7e731da17d5635d663f63b65b200d4fced39faa00000000000000000000000000000000000000000000012d2ad2372ed4ce38e3",
        "nonce": "0x6a2",
        "chainId": "0x66eee"
      },
      "additionalContracts": [],
      "isFixedGasLimit": false
    },
    {
      "hash": "0x9aa5de05fbaec081691b7d289f9d3ecaf6d049b7929230968dba030c9b589057",
      "transactionType": "CALL",
      "contractName": null,
      "contractAddress": "0xd0dcc724070d7f72e8f7f2e0e4cde5a5a3006adb",
      "function": "devMint(address,address,uint256)",
      "arguments": [
        "0xE355d5D8aa52EF0FbbD037C4a3C5E6Fd659cf46B",
        "0xa8CDA4b40d57cc66825B58510D81735dB120a6af",
        "5555555555555555555555"
      ],
      "transaction": {
        "from": "0xe355d5d8aa52ef0fbbd037c4a3c5e6fd659cf46b",
        "to": "0xd0dcc724070d7f72e8f7f2e0e4cde5a5a3006adb",
        "gas": "0xcbca",
        "value": "0x0",
        "input": "0x40ddd06e000000000000000000000000e355d5d8aa52ef0fbbd037c4a3c5e6fd659cf46b000000000000000000000000a8cda4b40d57cc66825b58510d81735db120a6af00000000000000000000000000000000000000000000012d2ad2372ed4ce38e3",
        "nonce": "0x6a3",
        "chainId": "0x66eee"
      },
      "additionalContracts": [],
      "isFixedGasLimit": false
    },
    {
      "hash": "0x68b2b6d80fb20143bd4fc877b77f4ca329c1ce4cd8751c1ce7f22dcdb2d67e00",
      "transactionType": "CALL",
      "contractName": null,
      "contractAddress": "0xa8cda4b40d57cc66825b58510d81735db120a6af",
      "function": "approve(address,uint256)",
      "arguments": [
        "0xE080d1B17A67F96F865143269Dc991cDDB01D996",
        "5555555555555555555555"
      ],
      "transaction": {
        "from": "0xe355d5d8aa52ef0fbbd037c4a3c5e6fd659cf46b",
        "to": "0xa8cda4b40d57cc66825b58510d81735db120a6af",
        "gas": "0xeb8f",
        "value": "0x0",
        "input": "0x095ea7b3000000000000000000000000e080d1b17a67f96f865143269dc991cddb01d99600000000000000000000000000000000000000000000012d2ad2372ed4ce38e3",
        "nonce": "0x6a4",
        "chainId": "0x66eee"
      },
      "additionalContracts": [],
      "isFixedGasLimit": false
    },
    {
      "hash": "0x48166b322da8204df3bde4d66993e0df090dc7efcba554575fa1d0a618617350",
      "transactionType": "CALL",
      "contractName": null,
      "contractAddress": "0xe080d1b17a67f96f865143269dc991cddb01d996",
      "function": "provideLiquidity(address,address,uint256)",
      "arguments": [
        "0xE355d5D8aa52EF0FbbD037C4a3C5E6Fd659cf46B",
        "0x09DD5F4F3C67b4936D66F869Cc0306d866D8DB46",
        "5555555555555555555555"
      ],
      "transaction": {
        "from": "0xe355d5d8aa52ef0fbbd037c4a3c5e6fd659cf46b",
        "to": "0xe080d1b17a67f96f865143269dc991cddb01d996",
        "gas": "0x8e4f7",
        "value": "0x0",
        "input": "0x9e8b6b7f000000000000000000000000e355d5d8aa52ef0fbbd037c4a3c5e6fd659cf46b00000000000000000000000009dd5f4f3c67b4936d66f869cc0306d866d8db4600000000000000000000000000000000000000000000012d2ad2372ed4ce38e3",
        "nonce": "0x6a5",
        "chainId": "0x66eee"
      },
      "additionalContracts": [],
      "isFixedGasLimit": false
    },
    {
      "hash": "0x05c016727a3b7cff6b7fc9fbef26845ddcd5524bbb6920bfe673d2cbfe667801",
      "transactionType": "CALL",
      "contractName": null,
      "contractAddress": "0xd0dcc724070d7f72e8f7f2e0e4cde5a5a3006adb",
      "function": "devMint(address,address,uint256)",
      "arguments": [
        "0xE355d5D8aa52EF0FbbD037C4a3C5E6Fd659cf46B",
        "0xa8CDA4b40d57cc66825B58510D81735dB120a6af",
        "5555555555555555555555"
      ],
      "transaction": {
        "from": "0xe355d5d8aa52ef0fbbd037c4a3c5e6fd659cf46b",
        "to": "0xd0dcc724070d7f72e8f7f2e0e4cde5a5a3006adb",
        "gas": "0xcbca",
        "value": "0x0",
        "input": "0x40ddd06e000000000000000000000000e355d5d8aa52ef0fbbd037c4a3c5e6fd659cf46b000000000000000000000000a8cda4b40d57cc66825b58510d81735db120a6af00000000000000000000000000000000000000000000012d2ad2372ed4ce38e3",
        "nonce": "0x6a6",
        "chainId": "0x66eee"
      },
      "additionalContracts": [],
      "isFixedGasLimit": false
    },
    {
      "hash": "0xe87f34af63a75e43194a9ebb3f7a99903d502e03d04b01c328c236b652f86a76",
      "transactionType": "CALL",
      "contractName": null,
      "contractAddress": "0xa8cda4b40d57cc66825b58510d81735db120a6af",
      "function": "approve(address,uint256)",
      "arguments": [
        "0xE080d1B17A67F96F865143269Dc991cDDB01D996",
        "5555555555555555555555"
      ],
      "transaction": {
        "from": "0xe355d5d8aa52ef0fbbd037c4a3c5e6fd659cf46b",
        "to": "0xa8cda4b40d57cc66825b58510d81735db120a6af",
        "gas": "0xeb8f",
        "value": "0x0",
        "input": "0x095ea7b3000000000000000000000000e080d1b17a67f96f865143269dc991cddb01d99600000000000000000000000000000000000000000000012d2ad2372ed4ce38e3",
        "nonce": "0x6a7",
        "chainId": "0x66eee"
      },
      "additionalContracts": [],
      "isFixedGasLimit": false
    },
    {
      "hash": "0x8965922efccc466fa1c2f55200461522b07abdebad16a6d66c8d4b413eb260d7",
      "transactionType": "CALL",
      "contractName": null,
      "contractAddress": "0xe080d1b17a67f96f865143269dc991cddb01d996",
      "function": "provideLiquidity(address,address,uint256)",
      "arguments": [
        "0xE355d5D8aa52EF0FbbD037C4a3C5E6Fd659cf46B",
        "0xB15D4e2e774DeaD70ceC268dbB6E836250a19acf",
        "5555555555555555555555"
      ],
      "transaction": {
        "from": "0xe355d5d8aa52ef0fbbd037c4a3c5e6fd659cf46b",
        "to": "0xe080d1b17a67f96f865143269dc991cddb01d996",
        "gas": "0x8e4f7",
        "value": "0x0",
        "input": "0x9e8b6b7f000000000000000000000000e355d5d8aa52ef0fbbd037c4a3c5e6fd659cf46b000000000000000000000000b15d4e2e774dead70cec268dbb6e836250a19acf00000000000000000000000000000000000000000000012d2ad2372ed4ce38e3",
        "nonce": "0x6a8",
        "chainId": "0x66eee"
      },
      "additionalContracts": [],
      "isFixedGasLimit": false
    },
    {
      "hash": "0xa2a2ef0264d75f512bd14a41ec15923bee5ad926050e3c88153e1aae45b532fd",
      "transactionType": "CALL",
      "contractName": null,
      "contractAddress": "0xd0dcc724070d7f72e8f7f2e0e4cde5a5a3006adb",
      "function": "devMint(address,address,uint256)",
      "arguments": [
        "0xE355d5D8aa52EF0FbbD037C4a3C5E6Fd659cf46B",
        "0x2129475b1b253A6D2cCFe3Fda6b06319C6794982",
        "20000000000000"
      ],
      "transaction": {
        "from": "0xe355d5d8aa52ef0fbbd037c4a3c5e6fd659cf46b",
        "to": "0xd0dcc724070d7f72e8f7f2e0e4cde5a5a3006adb",
        "gas": "0xcb7b",
        "value": "0x0",
        "input": "0x40ddd06e000000000000000000000000e355d5d8aa52ef0fbbd037c4a3c5e6fd659cf46b0000000000000000000000002129475b1b253a6d2ccfe3fda6b06319c6794982000000000000000000000000000000000000000000000000000012309ce54000",
        "nonce": "0x6a9",
        "chainId": "0x66eee"
      },
      "additionalContracts": [],
      "isFixedGasLimit": false
    },
    {
      "hash": "0x63ee8ff1ede8e517fd3e49314484124ad1bafae53e5c1c91bdede2786abf20cd",
      "transactionType": "CALL",
      "contractName": null,
      "contractAddress": "0x2129475b1b253a6d2ccfe3fda6b06319c6794982",
      "function": "approve(address,uint256)",
      "arguments": [
        "0xE080d1B17A67F96F865143269Dc991cDDB01D996",
        "20000000000000"
      ],
      "transaction": {
        "from": "0xe355d5d8aa52ef0fbbd037c4a3c5e6fd659cf46b",
        "to": "0x2129475b1b253a6d2ccfe3fda6b06319c6794982",
        "gas": "0xeb41",
        "value": "0x0",
        "input": "0x095ea7b3000000000000000000000000e080d1b17a67f96f865143269dc991cddb01d996000000000000000000000000000000000000000000000000000012309ce54000",
        "nonce": "0x6aa",
        "chainId": "0x66eee"
      },
      "additionalContracts": [],
      "isFixedGasLimit": false
    },
    {
      "hash": "0x4f04d224026a9c2aa695e61a36ca28d7aa032bd1f04728fb0c137face88ac828",
      "transactionType": "CALL",
      "contractName": null,
      "contractAddress": "0xe080d1b17a67f96f865143269dc991cddb01d996",
      "function": "provideLiquidity(address,address,uint256)",
      "arguments": [
        "0xE355d5D8aa52EF0FbbD037C4a3C5E6Fd659cf46B",
        "0x007938e8b17c37C4B250510ab9f97e90ae978A9C",
        "20000000000000"
      ],
      "transaction": {
        "from": "0xe355d5d8aa52ef0fbbd037c4a3c5e6fd659cf46b",
        "to": "0xe080d1b17a67f96f865143269dc991cddb01d996",
        "gas": "0x96a93",
        "value": "0x0",
        "input": "0x9e8b6b7f000000000000000000000000e355d5d8aa52ef0fbbd037c4a3c5e6fd659cf46b000000000000000000000000007938e8b17c37c4b250510ab9f97e90ae978a9c000000000000000000000000000000000000000000000000000012309ce54000",
        "nonce": "0x6ab",
        "chainId": "0x66eee"
      },
      "additionalContracts": [],
      "isFixedGasLimit": false
    },
    {
      "hash": "0xe04448873f1bf2157a9181418c2fa634d63780b5822960083472bf058c3de2b9",
      "transactionType": "CALL",
      "contractName": null,
      "contractAddress": "0xd0dcc724070d7f72e8f7f2e0e4cde5a5a3006adb",
      "function": "devMint(address,address,uint256)",
      "arguments": [
        "0xE355d5D8aa52EF0FbbD037C4a3C5E6Fd659cf46B",
        "0x2129475b1b253A6D2cCFe3Fda6b06319C6794982",
        "20000000000000"
      ],
      "transaction": {
        "from": "0xe355d5d8aa52ef0fbbd037c4a3c5e6fd659cf46b",
        "to": "0xd0dcc724070d7f72e8f7f2e0e4cde5a5a3006adb",
        "gas": "0xcb7b",
        "value": "0x0",
        "input": "0x40ddd06e000000000000000000000000e355d5d8aa52ef0fbbd037c4a3c5e6fd659cf46b0000000000000000000000002129475b1b253a6d2ccfe3fda6b06319c6794982000000000000000000000000000000000000000000000000000012309ce54000",
        "nonce": "0x6ac",
        "chainId": "0x66eee"
      },
      "additionalContracts": [],
      "isFixedGasLimit": false
    },
    {
      "hash": "0x2e43ffaf12f805a7a5a496eb1f898d6cec42a557901fb698f8a51772aecc99d8",
      "transactionType": "CALL",
      "contractName": null,
      "contractAddress": "0x2129475b1b253a6d2ccfe3fda6b06319c6794982",
      "function": "approve(address,uint256)",
      "arguments": [
        "0xE080d1B17A67F96F865143269Dc991cDDB01D996",
        "20000000000000"
      ],
      "transaction": {
        "from": "0xe355d5d8aa52ef0fbbd037c4a3c5e6fd659cf46b",
        "to": "0x2129475b1b253a6d2ccfe3fda6b06319c6794982",
        "gas": "0xeb41",
        "value": "0x0",
        "input": "0x095ea7b3000000000000000000000000e080d1b17a67f96f865143269dc991cddb01d996000000000000000000000000000000000000000000000000000012309ce54000",
        "nonce": "0x6ad",
        "chainId": "0x66eee"
      },
      "additionalContracts": [],
      "isFixedGasLimit": false
    },
    {
      "hash": "0xa067c7f60d41d302f148f16b8297510fff1bef8db24e90565d4a2d2ed2f2d53e",
      "transactionType": "CALL",
      "contractName": null,
      "contractAddress": "0xe080d1b17a67f96f865143269dc991cddb01d996",
      "function": "provideLiquidity(address,address,uint256)",
      "arguments": [
        "0xE355d5D8aa52EF0FbbD037C4a3C5E6Fd659cf46B",
        "0xaeDac43bF468583AD93F04BB0AeF0428BB2FC1C5",
        "20000000000000"
      ],
      "transaction": {
        "from": "0xe355d5d8aa52ef0fbbd037c4a3c5e6fd659cf46b",
        "to": "0xe080d1b17a67f96f865143269dc991cddb01d996",
        "gas": "0x8e4b4",
        "value": "0x0",
        "input": "0x9e8b6b7f000000000000000000000000e355d5d8aa52ef0fbbd037c4a3c5e6fd659cf46b000000000000000000000000aedac43bf468583ad93f04bb0aef0428bb2fc1c5000000000000000000000000000000000000000000000000000012309ce54000",
        "nonce": "0x6ae",
        "chainId": "0x66eee"
      },
      "additionalContracts": [],
      "isFixedGasLimit": false
    }
  ],
  "receipts": [
    {
      "status": "0x1",
      "cumulativeGasUsed": "0xfe38f",
      "logs": [
        {
          "address": "0x4339f7635addae492247cd8d24576d79b26c1575",
          "topics": [
            "0xddf252ad1be2c89b69c2b068fc378daa952ba7f163c4a11628f55a4df523b3ef",
            "0x0000000000000000000000000000000000000000000000000000000000000000",
            "0x000000000000000000000000e355d5d8aa52ef0fbbd037c4a3c5e6fd659cf46b"
          ],
          "data": "0x00000000000000000000000000000000000000000000012d2ad2372ed4ce38e3",
          "blockHash": "0x3c2f430dc734bed16b885dbff5cc7ef11ad8346e78dc59489271112765aca857",
          "blockNumber": "0x654b09a",
          "transactionHash": "0x278a535b99f865aeb27676311725a1ce78e4fa0cff1493fe71240d0b91a881d6",
          "transactionIndex": "0x2",
          "logIndex": "0x2a",
          "removed": false
        }
      ],
      "logsBloom": "0x00000000000000000000000000000000000000000000000000000000000000000000000000000000000000000000000000000800000000000000000000000000000000000000000000000008000000000000000000000000000000000000000000000000024000000000000000000800000000000000000000000010000000000000000000000000000000000000000200000000000000000000000000000000000000000000000000000000000000000080000000000000000000000000000000000002000000000000000000000000000000000000000000000000000020000000000000000020000000000000000000000000000000000000000000004000",
      "type": "0x2",
      "transactionHash": "0x278a535b99f865aeb27676311725a1ce78e4fa0cff1493fe71240d0b91a881d6",
      "transactionIndex": "0x2",
      "blockHash": "0x3c2f430dc734bed16b885dbff5cc7ef11ad8346e78dc59489271112765aca857",
      "blockNumber": "0x654b09a",
      "gasUsed": "0x9b51",
      "effectiveGasPrice": "0x5f5e100",
      "from": "0xe355d5d8aa52ef0fbbd037c4a3c5e6fd659cf46b",
      "to": "0xd0dcc724070d7f72e8f7f2e0e4cde5a5a3006adb",
      "contractAddress": null,
      "gasUsedForL1": "0x0",
      "l1BlockNumber": "0x6edaa7"
    },
    {
      "status": "0x1",
      "cumulativeGasUsed": "0x6326b",
      "logs": [
        {
          "address": "0x4339f7635addae492247cd8d24576d79b26c1575",
          "topics": [
            "0x8c5be1e5ebec7d5bd14f71427d1e84f3dd0314c0f7b2291e5b200ac8c7c3b925",
            "0x000000000000000000000000e355d5d8aa52ef0fbbd037c4a3c5e6fd659cf46b",
            "0x000000000000000000000000e080d1b17a67f96f865143269dc991cddb01d996"
          ],
          "data": "0x00000000000000000000000000000000000000000000012d2ad2372ed4ce38e3",
          "blockHash": "0x8769c67e0c22284be1465ec201b6a022dc058966d1d4f493ed6fdf7573516b03",
          "blockNumber": "0x654b0a0",
          "transactionHash": "0x7937abfa5c5fdf51d27508e904b99a42fc3378965946d4469efbe7d6bd013927",
          "transactionIndex": "0x3",
          "logIndex": "0x2",
          "removed": false
        }
      ],
      "logsBloom": "0x00000000000000000000000000000002000000000000000000000000000000000000000000000000000000000000000000000800000000000000000000200000000000000000000000000000000000000000000000000000000000000000000000000000004000000000000000000000000000000000000000000000000000000000000000000000000000000000000200000000000000000000000000000000020000000000000000000000000000000080000000000000000000000000000000000000000000000000000000010000000000000000000000000000000000000010000000000020000000000000000000000000000000000000010000004000",
      "type": "0x2",
      "transactionHash": "0x7937abfa5c5fdf51d27508e904b99a42fc3378965946d4469efbe7d6bd013927",
      "transactionIndex": "0x3",
      "blockHash": "0x8769c67e0c22284be1465ec201b6a022dc058966d1d4f493ed6fdf7573516b03",
      "blockNumber": "0x654b0a0",
      "gasUsed": "0xb3b5",
      "effectiveGasPrice": "0x5f5e100",
      "from": "0xe355d5d8aa52ef0fbbd037c4a3c5e6fd659cf46b",
      "to": "0x4339f7635addae492247cd8d24576d79b26c1575",
      "contractAddress": null,
      "gasUsedForL1": "0x0",
      "l1BlockNumber": "0x6edaa7"
    },
    {
      "status": "0x1",
      "cumulativeGasUsed": "0x6707c",
      "logs": [
        {
          "address": "0x4339f7635addae492247cd8d24576d79b26c1575",
          "topics": [
            "0xddf252ad1be2c89b69c2b068fc378daa952ba7f163c4a11628f55a4df523b3ef",
            "0x000000000000000000000000e355d5d8aa52ef0fbbd037c4a3c5e6fd659cf46b",
            "0x000000000000000000000000e080d1b17a67f96f865143269dc991cddb01d996"
          ],
          "data": "0x00000000000000000000000000000000000000000000012d2ad2372ed4ce38e3",
          "blockHash": "0x732b8e8405615d34b771e42ae36e0495a4170125e967a3b16cf2ec63d333ec64",
          "blockNumber": "0x654b0a4",
          "transactionHash": "0xaed300d049c0e4dea565b833ffd980ed88c2bb373d6db8dbf1984c4abbb2983f",
          "transactionIndex": "0x1",
          "logIndex": "0x0",
          "removed": false
        },
        {
          "address": "0x4339f7635addae492247cd8d24576d79b26c1575",
          "topics": [
            "0x8c5be1e5ebec7d5bd14f71427d1e84f3dd0314c0f7b2291e5b200ac8c7c3b925",
            "0x000000000000000000000000e080d1b17a67f96f865143269dc991cddb01d996",
            "0x00000000000000000000000090b86ead2c95f1bc37c191cc7f1e67eb63a25a34"
          ],
          "data": "0x00000000000000000000000000000000000000000000012d2ad2372ed4ce38e3",
          "blockHash": "0x732b8e8405615d34b771e42ae36e0495a4170125e967a3b16cf2ec63d333ec64",
          "blockNumber": "0x654b0a4",
          "transactionHash": "0xaed300d049c0e4dea565b833ffd980ed88c2bb373d6db8dbf1984c4abbb2983f",
          "transactionIndex": "0x1",
          "logIndex": "0x1",
          "removed": false
        },
        {
          "address": "0x4339f7635addae492247cd8d24576d79b26c1575",
          "topics": [
            "0xddf252ad1be2c89b69c2b068fc378daa952ba7f163c4a11628f55a4df523b3ef",
            "0x000000000000000000000000e080d1b17a67f96f865143269dc991cddb01d996",
            "0x00000000000000000000000090b86ead2c95f1bc37c191cc7f1e67eb63a25a34"
          ],
          "data": "0x00000000000000000000000000000000000000000000012d2ad2372ed4ce38e3",
          "blockHash": "0x732b8e8405615d34b771e42ae36e0495a4170125e967a3b16cf2ec63d333ec64",
          "blockNumber": "0x654b0a4",
          "transactionHash": "0xaed300d049c0e4dea565b833ffd980ed88c2bb373d6db8dbf1984c4abbb2983f",
          "transactionIndex": "0x1",
          "logIndex": "0x2",
          "removed": false
        },
        {
          "address": "0xc7a253c6511f6c0156be9d981f6eb409aed32fbc",
          "topics": [
            "0xddf252ad1be2c89b69c2b068fc378daa952ba7f163c4a11628f55a4df523b3ef",
            "0x0000000000000000000000000000000000000000000000000000000000000000",
            "0x00000000000000000000000090b86ead2c95f1bc37c191cc7f1e67eb63a25a34"
          ],
          "data": "0x0000000000000000000000000000000000000000000000f3f20b8dfa69cfffff",
          "blockHash": "0x732b8e8405615d34b771e42ae36e0495a4170125e967a3b16cf2ec63d333ec64",
          "blockNumber": "0x654b0a4",
          "transactionHash": "0xaed300d049c0e4dea565b833ffd980ed88c2bb373d6db8dbf1984c4abbb2983f",
          "transactionIndex": "0x1",
          "logIndex": "0x3",
          "removed": false
        },
        {
          "address": "0x707b8455280014bc583c79429a188457c3c08046",
          "topics": [
            "0xddf252ad1be2c89b69c2b068fc378daa952ba7f163c4a11628f55a4df523b3ef",
            "0x0000000000000000000000000000000000000000000000000000000000000000",
            "0x00000000000000000000000090b86ead2c95f1bc37c191cc7f1e67eb63a25a34"
          ],
          "data": "0x00000000000000000000000000000000000000000000012d2ad2372ed4ce38e3",
          "blockHash": "0x732b8e8405615d34b771e42ae36e0495a4170125e967a3b16cf2ec63d333ec64",
          "blockNumber": "0x654b0a4",
          "transactionHash": "0xaed300d049c0e4dea565b833ffd980ed88c2bb373d6db8dbf1984c4abbb2983f",
          "transactionIndex": "0x1",
          "logIndex": "0x4",
          "removed": false
        },
        {
          "address": "0x9fa6c4c24f80d0f8241e1aa6397d890d40e7b9d8",
          "topics": [
            "0xddf252ad1be2c89b69c2b068fc378daa952ba7f163c4a11628f55a4df523b3ef",
            "0x0000000000000000000000000000000000000000000000000000000000000000",
            "0x00000000000000000000000090b86ead2c95f1bc37c191cc7f1e67eb63a25a34"
          ],
          "data": "0x0000000000000000000000000000000000000000000000f3f20b8dfa69cfffff",
          "blockHash": "0x732b8e8405615d34b771e42ae36e0495a4170125e967a3b16cf2ec63d333ec64",
          "blockNumber": "0x654b0a4",
          "transactionHash": "0xaed300d049c0e4dea565b833ffd980ed88c2bb373d6db8dbf1984c4abbb2983f",
          "transactionIndex": "0x1",
          "logIndex": "0x5",
          "removed": false
        },
        {
          "address": "0xa5b8f7035c5fa2f196aea7ce3616ed08834eaee0",
          "topics": [
            "0xddf252ad1be2c89b69c2b068fc378daa952ba7f163c4a11628f55a4df523b3ef",
            "0x0000000000000000000000000000000000000000000000000000000000000000",
            "0x00000000000000000000000090b86ead2c95f1bc37c191cc7f1e67eb63a25a34"
          ],
          "data": "0x00000000000000000000000000000000000000000000012d2ad2372ed4ce38e3",
          "blockHash": "0x732b8e8405615d34b771e42ae36e0495a4170125e967a3b16cf2ec63d333ec64",
          "blockNumber": "0x654b0a4",
          "transactionHash": "0xaed300d049c0e4dea565b833ffd980ed88c2bb373d6db8dbf1984c4abbb2983f",
          "transactionIndex": "0x1",
          "logIndex": "0x6",
          "removed": false
        },
        {
          "address": "0x9fa6c4c24f80d0f8241e1aa6397d890d40e7b9d8",
          "topics": [
            "0xddf252ad1be2c89b69c2b068fc378daa952ba7f163c4a11628f55a4df523b3ef",
            "0x00000000000000000000000090b86ead2c95f1bc37c191cc7f1e67eb63a25a34",
            "0x000000000000000000000000e080d1b17a67f96f865143269dc991cddb01d996"
          ],
          "data": "0x0000000000000000000000000000000000000000000000f3f20b8dfa69cfffff",
          "blockHash": "0x732b8e8405615d34b771e42ae36e0495a4170125e967a3b16cf2ec63d333ec64",
          "blockNumber": "0x654b0a4",
          "transactionHash": "0xaed300d049c0e4dea565b833ffd980ed88c2bb373d6db8dbf1984c4abbb2983f",
          "transactionIndex": "0x1",
          "logIndex": "0x7",
          "removed": false
        },
        {
          "address": "0xa5b8f7035c5fa2f196aea7ce3616ed08834eaee0",
          "topics": [
            "0xddf252ad1be2c89b69c2b068fc378daa952ba7f163c4a11628f55a4df523b3ef",
            "0x00000000000000000000000090b86ead2c95f1bc37c191cc7f1e67eb63a25a34",
            "0x000000000000000000000000e080d1b17a67f96f865143269dc991cddb01d996"
          ],
          "data": "0x00000000000000000000000000000000000000000000012d2ad2372ed4ce38e3",
          "blockHash": "0x732b8e8405615d34b771e42ae36e0495a4170125e967a3b16cf2ec63d333ec64",
          "blockNumber": "0x654b0a4",
          "transactionHash": "0xaed300d049c0e4dea565b833ffd980ed88c2bb373d6db8dbf1984c4abbb2983f",
          "transactionIndex": "0x1",
          "logIndex": "0x8",
          "removed": false
        },
        {
          "address": "0x90b86ead2c95f1bc37c191cc7f1e67eb63a25a34",
          "topics": [
            "0x41555d2844a59a3443e16b174167939c93659db407acb706642bfd24c7425e60",
            "0x000000000000000000000000e080d1b17a67f96f865143269dc991cddb01d996"
          ],
          "data": "0x00000000000000000000000000000000000000000000012d2ad2372ed4ce38e30000000000000000000000000000000000000000000000f3f20b8dfa69cfffff00000000000000000000000000000000000000000000012d2ad2372ed4ce38e30000000000000000000000000000000000000000000000f3f20b8dfa69cfffff00000000000000000000000000000000000000000000012d2ad2372ed4ce38e3",
          "blockHash": "0x732b8e8405615d34b771e42ae36e0495a4170125e967a3b16cf2ec63d333ec64",
          "blockNumber": "0x654b0a4",
          "transactionHash": "0xaed300d049c0e4dea565b833ffd980ed88c2bb373d6db8dbf1984c4abbb2983f",
          "transactionIndex": "0x1",
          "logIndex": "0x9",
          "removed": false
        },
        {
          "address": "0x9fa6c4c24f80d0f8241e1aa6397d890d40e7b9d8",
          "topics": [
            "0xddf252ad1be2c89b69c2b068fc378daa952ba7f163c4a11628f55a4df523b3ef",
            "0x000000000000000000000000e080d1b17a67f96f865143269dc991cddb01d996",
            "0x000000000000000000000000e355d5d8aa52ef0fbbd037c4a3c5e6fd659cf46b"
          ],
          "data": "0x0000000000000000000000000000000000000000000000f3f20b8dfa69cfffff",
          "blockHash": "0x732b8e8405615d34b771e42ae36e0495a4170125e967a3b16cf2ec63d333ec64",
          "blockNumber": "0x654b0a4",
          "transactionHash": "0xaed300d049c0e4dea565b833ffd980ed88c2bb373d6db8dbf1984c4abbb2983f",
          "transactionIndex": "0x1",
          "logIndex": "0xa",
          "removed": false
        },
        {
          "address": "0xa5b8f7035c5fa2f196aea7ce3616ed08834eaee0",
          "topics": [
            "0xddf252ad1be2c89b69c2b068fc378daa952ba7f163c4a11628f55a4df523b3ef",
            "0x000000000000000000000000e080d1b17a67f96f865143269dc991cddb01d996",
            "0x000000000000000000000000e355d5d8aa52ef0fbbd037c4a3c5e6fd659cf46b"
          ],
          "data": "0x00000000000000000000000000000000000000000000012d2ad2372ed4ce38e3",
          "blockHash": "0x732b8e8405615d34b771e42ae36e0495a4170125e967a3b16cf2ec63d333ec64",
          "blockNumber": "0x654b0a4",
          "transactionHash": "0xaed300d049c0e4dea565b833ffd980ed88c2bb373d6db8dbf1984c4abbb2983f",
          "transactionIndex": "0x1",
          "logIndex": "0xb",
          "removed": false
        },
        {
          "address": "0xe080d1b17a67f96f865143269dc991cddb01d996",
          "topics": [
            "0x2c44d8394ff4c00656fbe852f8825ff1983b71f9b99207b795a8f3342e8d6ea4",
            "0x00000000000000000000000090b86ead2c95f1bc37c191cc7f1e67eb63a25a34",
            "0x0000000000000000000000004339f7635addae492247cd8d24576d79b26c1575"
          ],
          "data": "0x000000000000000000000000e355d5d8aa52ef0fbbd037c4a3c5e6fd659cf46b000000000000000000000000e355d5d8aa52ef0fbbd037c4a3c5e6fd659cf46b00000000000000000000000000000000000000000000012d2ad2372ed4ce38e30000000000000000000000000000000000000000000000f3f20b8dfa69cfffff00000000000000000000000000000000000000000000012d2ad2372ed4ce38e3",
          "blockHash": "0x732b8e8405615d34b771e42ae36e0495a4170125e967a3b16cf2ec63d333ec64",
          "blockNumber": "0x654b0a4",
          "transactionHash": "0xaed300d049c0e4dea565b833ffd980ed88c2bb373d6db8dbf1984c4abbb2983f",
          "transactionIndex": "0x1",
          "logIndex": "0xc",
          "removed": false
        }
      ],
      "logsBloom": "0x00040000000000000000000000040002000000000000240000020000000020000000002000000000000000000000000800000801000000000000000000200400000000000000000000100008000000000008000040000000000000000000000000000000024000000000000000000800000000800000000000000010000000000000410000000000000000000000000200004000000000000000000000000001020010000000000000000000000020000080080000000000000000000000000000000022000800000020000000010200000000000000000000000000000020000010000000006020000000000000800000000000000000000000050000004000",
      "type": "0x2",
      "transactionHash": "0xaed300d049c0e4dea565b833ffd980ed88c2bb373d6db8dbf1984c4abbb2983f",
      "transactionIndex": "0x1",
      "blockHash": "0x732b8e8405615d34b771e42ae36e0495a4170125e967a3b16cf2ec63d333ec64",
      "blockNumber": "0x654b0a4",
      "gasUsed": "0x6707c",
      "effectiveGasPrice": "0x5f5e100",
      "from": "0xe355d5d8aa52ef0fbbd037c4a3c5e6fd659cf46b",
      "to": "0xe080d1b17a67f96f865143269dc991cddb01d996",
      "contractAddress": null,
      "gasUsedForL1": "0x0",
      "l1BlockNumber": "0x6edaa7"
    },
    {
      "status": "0x1",
      "cumulativeGasUsed": "0x1bfb0",
      "logs": [
        {
          "address": "0x4339f7635addae492247cd8d24576d79b26c1575",
          "topics": [
            "0xddf252ad1be2c89b69c2b068fc378daa952ba7f163c4a11628f55a4df523b3ef",
            "0x0000000000000000000000000000000000000000000000000000000000000000",
            "0x000000000000000000000000e355d5d8aa52ef0fbbd037c4a3c5e6fd659cf46b"
          ],
          "data": "0x00000000000000000000000000000000000000000000012d2ad2372ed4ce38e3",
          "blockHash": "0xa0e70710f894b3e6772082059619150bbbeaadd32455e87762455488f43ab6b5",
          "blockNumber": "0x654b0aa",
          "transactionHash": "0x7ebec07600ee2eef7e6b1a34a179f3d1b322a132c53de106fb490f77e4a1157e",
          "transactionIndex": "0x2",
          "logIndex": "0x3",
          "removed": false
        }
      ],
      "logsBloom": "0x00000000000000000000000000000000000000000000000000000000000000000000000000000000000000000000000000000800000000000000000000000000000000000000000000000008000000000000000000000000000000000000000000000000024000000000000000000800000000000000000000000010000000000000000000000000000000000000000200000000000000000000000000000000000000000000000000000000000000000080000000000000000000000000000000000002000000000000000000000000000000000000000000000000000020000000000000000020000000000000000000000000000000000000000000004000",
      "type": "0x2",
      "transactionHash": "0x7ebec07600ee2eef7e6b1a34a179f3d1b322a132c53de106fb490f77e4a1157e",
      "transactionIndex": "0x2",
      "blockHash": "0xa0e70710f894b3e6772082059619150bbbeaadd32455e87762455488f43ab6b5",
      "blockNumber": "0x654b0aa",
      "gasUsed": "0x9b51",
      "effectiveGasPrice": "0x5f5e100",
      "from": "0xe355d5d8aa52ef0fbbd037c4a3c5e6fd659cf46b",
      "to": "0xd0dcc724070d7f72e8f7f2e0e4cde5a5a3006adb",
      "contractAddress": null,
      "gasUsedForL1": "0x0",
      "l1BlockNumber": "0x6edaa8"
    },
    {
      "status": "0x1",
      "cumulativeGasUsed": "0xb3b5",
      "logs": [
        {
          "address": "0x4339f7635addae492247cd8d24576d79b26c1575",
          "topics": [
            "0x8c5be1e5ebec7d5bd14f71427d1e84f3dd0314c0f7b2291e5b200ac8c7c3b925",
            "0x000000000000000000000000e355d5d8aa52ef0fbbd037c4a3c5e6fd659cf46b",
            "0x000000000000000000000000e080d1b17a67f96f865143269dc991cddb01d996"
          ],
          "data": "0x00000000000000000000000000000000000000000000012d2ad2372ed4ce38e3",
          "blockHash": "0x077875656493b778d35490b7944b91e43fb8e79af2265b4ee0dc089ec3f65658",
          "blockNumber": "0x654b0b0",
          "transactionHash": "0x05dbfc2f19ed4906d133db999dde39431da1fe7d81d01eef6003e9e80a6644f5",
          "transactionIndex": "0x1",
          "logIndex": "0x0",
          "removed": false
        }
      ],
      "logsBloom": "0x00000000000000000000000000000002000000000000000000000000000000000000000000000000000000000000000000000800000000000000000000200000000000000000000000000000000000000000000000000000000000000000000000000000004000000000000000000000000000000000000000000000000000000000000000000000000000000000000200000000000000000000000000000000020000000000000000000000000000000080000000000000000000000000000000000000000000000000000000010000000000000000000000000000000000000010000000000020000000000000000000000000000000000000010000004000",
      "type": "0x2",
      "transactionHash": "0x05dbfc2f19ed4906d133db999dde39431da1fe7d81d01eef6003e9e80a6644f5",
      "transactionIndex": "0x1",
      "blockHash": "0x077875656493b778d35490b7944b91e43fb8e79af2265b4ee0dc089ec3f65658",
      "blockNumber": "0x654b0b0",
      "gasUsed": "0xb3b5",
      "effectiveGasPrice": "0x5f5e100",
      "from": "0xe355d5d8aa52ef0fbbd037c4a3c5e6fd659cf46b",
      "to": "0x4339f7635addae492247cd8d24576d79b26c1575",
      "contractAddress": null,
      "gasUsedForL1": "0x0",
      "l1BlockNumber": "0x6edaa8"
    },
    {
      "status": "0x1",
      "cumulativeGasUsed": "0x6707c",
      "logs": [
        {
          "address": "0x4339f7635addae492247cd8d24576d79b26c1575",
          "topics": [
            "0xddf252ad1be2c89b69c2b068fc378daa952ba7f163c4a11628f55a4df523b3ef",
            "0x000000000000000000000000e355d5d8aa52ef0fbbd037c4a3c5e6fd659cf46b",
            "0x000000000000000000000000e080d1b17a67f96f865143269dc991cddb01d996"
          ],
          "data": "0x00000000000000000000000000000000000000000000012d2ad2372ed4ce38e3",
          "blockHash": "0x5ca74c44a4bd5cca9861232eb3b509fd4fd05f66bb431d45eaf69ad46b7664b9",
          "blockNumber": "0x654b0b5",
          "transactionHash": "0x43cc09fd092aac34c458fe97d11467d755dae0f72802bfd6d9ead13330fed225",
          "transactionIndex": "0x1",
          "logIndex": "0x0",
          "removed": false
        },
        {
          "address": "0x4339f7635addae492247cd8d24576d79b26c1575",
          "topics": [
            "0x8c5be1e5ebec7d5bd14f71427d1e84f3dd0314c0f7b2291e5b200ac8c7c3b925",
            "0x000000000000000000000000e080d1b17a67f96f865143269dc991cddb01d996",
            "0x000000000000000000000000e7e731da17d5635d663f63b65b200d4fced39faa"
          ],
          "data": "0x00000000000000000000000000000000000000000000012d2ad2372ed4ce38e3",
          "blockHash": "0x5ca74c44a4bd5cca9861232eb3b509fd4fd05f66bb431d45eaf69ad46b7664b9",
          "blockNumber": "0x654b0b5",
          "transactionHash": "0x43cc09fd092aac34c458fe97d11467d755dae0f72802bfd6d9ead13330fed225",
          "transactionIndex": "0x1",
          "logIndex": "0x1",
          "removed": false
        },
        {
          "address": "0x4339f7635addae492247cd8d24576d79b26c1575",
          "topics": [
            "0xddf252ad1be2c89b69c2b068fc378daa952ba7f163c4a11628f55a4df523b3ef",
            "0x000000000000000000000000e080d1b17a67f96f865143269dc991cddb01d996",
            "0x000000000000000000000000e7e731da17d5635d663f63b65b200d4fced39faa"
          ],
          "data": "0x00000000000000000000000000000000000000000000012d2ad2372ed4ce38e3",
          "blockHash": "0x5ca74c44a4bd5cca9861232eb3b509fd4fd05f66bb431d45eaf69ad46b7664b9",
          "blockNumber": "0x654b0b5",
          "transactionHash": "0x43cc09fd092aac34c458fe97d11467d755dae0f72802bfd6d9ead13330fed225",
          "transactionIndex": "0x1",
          "logIndex": "0x2",
          "removed": false
        },
        {
          "address": "0x9f17ece1958f6c2a62f41dcc91c95586da733b54",
          "topics": [
            "0xddf252ad1be2c89b69c2b068fc378daa952ba7f163c4a11628f55a4df523b3ef",
            "0x0000000000000000000000000000000000000000000000000000000000000000",
            "0x000000000000000000000000e7e731da17d5635d663f63b65b200d4fced39faa"
          ],
          "data": "0x0000000000000000000000000000000000000000000000f3f20b8dfa69cfffff",
          "blockHash": "0x5ca74c44a4bd5cca9861232eb3b509fd4fd05f66bb431d45eaf69ad46b7664b9",
          "blockNumber": "0x654b0b5",
          "transactionHash": "0x43cc09fd092aac34c458fe97d11467d755dae0f72802bfd6d9ead13330fed225",
          "transactionIndex": "0x1",
          "logIndex": "0x3",
          "removed": false
        },
        {
          "address": "0x181910a6c6c61fda440aef87d4943c7a29d03477",
          "topics": [
            "0xddf252ad1be2c89b69c2b068fc378daa952ba7f163c4a11628f55a4df523b3ef",
            "0x0000000000000000000000000000000000000000000000000000000000000000",
            "0x000000000000000000000000e7e731da17d5635d663f63b65b200d4fced39faa"
          ],
          "data": "0x00000000000000000000000000000000000000000000012d2ad2372ed4ce38e3",
          "blockHash": "0x5ca74c44a4bd5cca9861232eb3b509fd4fd05f66bb431d45eaf69ad46b7664b9",
          "blockNumber": "0x654b0b5",
          "transactionHash": "0x43cc09fd092aac34c458fe97d11467d755dae0f72802bfd6d9ead13330fed225",
          "transactionIndex": "0x1",
          "logIndex": "0x4",
          "removed": false
        },
        {
          "address": "0x480cd7605cd25853039ecd6e0be3a1174e7bb463",
          "topics": [
            "0xddf252ad1be2c89b69c2b068fc378daa952ba7f163c4a11628f55a4df523b3ef",
            "0x0000000000000000000000000000000000000000000000000000000000000000",
            "0x000000000000000000000000e7e731da17d5635d663f63b65b200d4fced39faa"
          ],
          "data": "0x0000000000000000000000000000000000000000000000f3f20b8dfa69cfffff",
          "blockHash": "0x5ca74c44a4bd5cca9861232eb3b509fd4fd05f66bb431d45eaf69ad46b7664b9",
          "blockNumber": "0x654b0b5",
          "transactionHash": "0x43cc09fd092aac34c458fe97d11467d755dae0f72802bfd6d9ead13330fed225",
          "transactionIndex": "0x1",
          "logIndex": "0x5",
          "removed": false
        },
        {
          "address": "0x73728802bf4965406c89372b59977b5ad6a2d43e",
          "topics": [
            "0xddf252ad1be2c89b69c2b068fc378daa952ba7f163c4a11628f55a4df523b3ef",
            "0x0000000000000000000000000000000000000000000000000000000000000000",
            "0x000000000000000000000000e7e731da17d5635d663f63b65b200d4fced39faa"
          ],
          "data": "0x00000000000000000000000000000000000000000000012d2ad2372ed4ce38e3",
          "blockHash": "0x5ca74c44a4bd5cca9861232eb3b509fd4fd05f66bb431d45eaf69ad46b7664b9",
          "blockNumber": "0x654b0b5",
          "transactionHash": "0x43cc09fd092aac34c458fe97d11467d755dae0f72802bfd6d9ead13330fed225",
          "transactionIndex": "0x1",
          "logIndex": "0x6",
          "removed": false
        },
        {
          "address": "0x480cd7605cd25853039ecd6e0be3a1174e7bb463",
          "topics": [
            "0xddf252ad1be2c89b69c2b068fc378daa952ba7f163c4a11628f55a4df523b3ef",
            "0x000000000000000000000000e7e731da17d5635d663f63b65b200d4fced39faa",
            "0x000000000000000000000000e080d1b17a67f96f865143269dc991cddb01d996"
          ],
          "data": "0x0000000000000000000000000000000000000000000000f3f20b8dfa69cfffff",
          "blockHash": "0x5ca74c44a4bd5cca9861232eb3b509fd4fd05f66bb431d45eaf69ad46b7664b9",
          "blockNumber": "0x654b0b5",
          "transactionHash": "0x43cc09fd092aac34c458fe97d11467d755dae0f72802bfd6d9ead13330fed225",
          "transactionIndex": "0x1",
          "logIndex": "0x7",
          "removed": false
        },
        {
          "address": "0x73728802bf4965406c89372b59977b5ad6a2d43e",
          "topics": [
            "0xddf252ad1be2c89b69c2b068fc378daa952ba7f163c4a11628f55a4df523b3ef",
            "0x000000000000000000000000e7e731da17d5635d663f63b65b200d4fced39faa",
            "0x000000000000000000000000e080d1b17a67f96f865143269dc991cddb01d996"
          ],
          "data": "0x00000000000000000000000000000000000000000000012d2ad2372ed4ce38e3",
          "blockHash": "0x5ca74c44a4bd5cca9861232eb3b509fd4fd05f66bb431d45eaf69ad46b7664b9",
          "blockNumber": "0x654b0b5",
          "transactionHash": "0x43cc09fd092aac34c458fe97d11467d755dae0f72802bfd6d9ead13330fed225",
          "transactionIndex": "0x1",
          "logIndex": "0x8",
          "removed": false
        },
        {
          "address": "0xe7e731da17d5635d663f63b65b200d4fced39faa",
          "topics": [
            "0x41555d2844a59a3443e16b174167939c93659db407acb706642bfd24c7425e60",
            "0x000000000000000000000000e080d1b17a67f96f865143269dc991cddb01d996"
          ],
          "data": "0x00000000000000000000000000000000000000000000012d2ad2372ed4ce38e30000000000000000000000000000000000000000000000f3f20b8dfa69cfffff00000000000000000000000000000000000000000000012d2ad2372ed4ce38e30000000000000000000000000000000000000000000000f3f20b8dfa69cfffff00000000000000000000000000000000000000000000012d2ad2372ed4ce38e3",
          "blockHash": "0x5ca74c44a4bd5cca9861232eb3b509fd4fd05f66bb431d45eaf69ad46b7664b9",
          "blockNumber": "0x654b0b5",
          "transactionHash": "0x43cc09fd092aac34c458fe97d11467d755dae0f72802bfd6d9ead13330fed225",
          "transactionIndex": "0x1",
          "logIndex": "0x9",
          "removed": false
        },
        {
          "address": "0x480cd7605cd25853039ecd6e0be3a1174e7bb463",
          "topics": [
            "0xddf252ad1be2c89b69c2b068fc378daa952ba7f163c4a11628f55a4df523b3ef",
            "0x000000000000000000000000e080d1b17a67f96f865143269dc991cddb01d996",
            "0x000000000000000000000000e355d5d8aa52ef0fbbd037c4a3c5e6fd659cf46b"
          ],
          "data": "0x0000000000000000000000000000000000000000000000f3f20b8dfa69cfffff",
          "blockHash": "0x5ca74c44a4bd5cca9861232eb3b509fd4fd05f66bb431d45eaf69ad46b7664b9",
          "blockNumber": "0x654b0b5",
          "transactionHash": "0x43cc09fd092aac34c458fe97d11467d755dae0f72802bfd6d9ead13330fed225",
          "transactionIndex": "0x1",
          "logIndex": "0xa",
          "removed": false
        },
        {
          "address": "0x73728802bf4965406c89372b59977b5ad6a2d43e",
          "topics": [
            "0xddf252ad1be2c89b69c2b068fc378daa952ba7f163c4a11628f55a4df523b3ef",
            "0x000000000000000000000000e080d1b17a67f96f865143269dc991cddb01d996",
            "0x000000000000000000000000e355d5d8aa52ef0fbbd037c4a3c5e6fd659cf46b"
          ],
          "data": "0x00000000000000000000000000000000000000000000012d2ad2372ed4ce38e3",
          "blockHash": "0x5ca74c44a4bd5cca9861232eb3b509fd4fd05f66bb431d45eaf69ad46b7664b9",
          "blockNumber": "0x654b0b5",
          "transactionHash": "0x43cc09fd092aac34c458fe97d11467d755dae0f72802bfd6d9ead13330fed225",
          "transactionIndex": "0x1",
          "logIndex": "0xb",
          "removed": false
        },
        {
          "address": "0xe080d1b17a67f96f865143269dc991cddb01d996",
          "topics": [
            "0x2c44d8394ff4c00656fbe852f8825ff1983b71f9b99207b795a8f3342e8d6ea4",
            "0x000000000000000000000000e7e731da17d5635d663f63b65b200d4fced39faa",
            "0x0000000000000000000000004339f7635addae492247cd8d24576d79b26c1575"
          ],
          "data": "0x000000000000000000000000e355d5d8aa52ef0fbbd037c4a3c5e6fd659cf46b000000000000000000000000e355d5d8aa52ef0fbbd037c4a3c5e6fd659cf46b00000000000000000000000000000000000000000000012d2ad2372ed4ce38e30000000000000000000000000000000000000000000000f3f20b8dfa69cfffff00000000000000000000000000000000000000000000012d2ad2372ed4ce38e3",
          "blockHash": "0x5ca74c44a4bd5cca9861232eb3b509fd4fd05f66bb431d45eaf69ad46b7664b9",
          "blockNumber": "0x654b0b5",
          "transactionHash": "0x43cc09fd092aac34c458fe97d11467d755dae0f72802bfd6d9ead13330fed225",
          "transactionIndex": "0x1",
          "logIndex": "0xc",
          "removed": false
        }
      ],
      "logsBloom": "0x0004000000000000000000400000000200000080000020000000000000000000000100000000000000000000000000080000080100000000200000000020000000000000000000000000000800000000000800004000000000000000000000000004000002400000000000002000090000000080080000000000001000000000000000000000010000000000000020020000000000000000000000000000000002000010a000000000000000010020000080080000000000000000000000000010000012002400000000000000010000000000000000000000000000000020000010000000004020000000000000800000000000000000000000010000004000",
      "type": "0x2",
      "transactionHash": "0x43cc09fd092aac34c458fe97d11467d755dae0f72802bfd6d9ead13330fed225",
      "transactionIndex": "0x1",
      "blockHash": "0x5ca74c44a4bd5cca9861232eb3b509fd4fd05f66bb431d45eaf69ad46b7664b9",
      "blockNumber": "0x654b0b5",
      "gasUsed": "0x6707c",
      "effectiveGasPrice": "0x5f5e100",
      "from": "0xe355d5d8aa52ef0fbbd037c4a3c5e6fd659cf46b",
      "to": "0xe080d1b17a67f96f865143269dc991cddb01d996",
      "contractAddress": null,
      "gasUsedForL1": "0x0",
      "l1BlockNumber": "0x6edaa8"
    },
    {
      "status": "0x1",
      "cumulativeGasUsed": "0x2d980",
      "logs": [
        {
          "address": "0xa8cda4b40d57cc66825b58510d81735db120a6af",
          "topics": [
            "0xddf252ad1be2c89b69c2b068fc378daa952ba7f163c4a11628f55a4df523b3ef",
            "0x0000000000000000000000000000000000000000000000000000000000000000",
            "0x000000000000000000000000e355d5d8aa52ef0fbbd037c4a3c5e6fd659cf46b"
          ],
          "data": "0x00000000000000000000000000000000000000000000012d2ad2372ed4ce38e3",
          "blockHash": "0x1a12ecb4af32ad89aa9022c3d622c0842d2407a28ce511ffe6270846f6997e66",
          "blockNumber": "0x654b0bb",
          "transactionHash": "0x9aa5de05fbaec081691b7d289f9d3ecaf6d049b7929230968dba030c9b589057",
          "transactionIndex": "0x2",
          "logIndex": "0x1",
          "removed": false
        }
      ],
      "logsBloom": "0x000000000000000000000000000000000000000000000000000000000000000000000000000000000000000000000000000000000000000000000000000000000000000000000000000000080000000000000000000000000000000000000000000000000a0000000000000000000800000000000000000000000010000000000000000000800000000000000000000200000000000000000000000800000000000000000000000000000000000000000000000000000000000000000000000000000002000000000000000000000000000000000000000000000000000020000000000000000020000000000000000000000000000000000000000000004000",
      "type": "0x2",
      "transactionHash": "0x9aa5de05fbaec081691b7d289f9d3ecaf6d049b7929230968dba030c9b589057",
      "transactionIndex": "0x2",
      "blockHash": "0x1a12ecb4af32ad89aa9022c3d622c0842d2407a28ce511ffe6270846f6997e66",
      "blockNumber": "0x654b0bb",
      "gasUsed": "0x9b51",
      "effectiveGasPrice": "0x5f5e100",
      "from": "0xe355d5d8aa52ef0fbbd037c4a3c5e6fd659cf46b",
      "to": "0xd0dcc724070d7f72e8f7f2e0e4cde5a5a3006adb",
      "contractAddress": null,
      "gasUsedForL1": "0x0",
      "l1BlockNumber": "0x6edaa8"
    },
    {
      "status": "0x1",
      "cumulativeGasUsed": "0xb3b5",
      "logs": [
        {
          "address": "0xa8cda4b40d57cc66825b58510d81735db120a6af",
          "topics": [
            "0x8c5be1e5ebec7d5bd14f71427d1e84f3dd0314c0f7b2291e5b200ac8c7c3b925",
            "0x000000000000000000000000e355d5d8aa52ef0fbbd037c4a3c5e6fd659cf46b",
            "0x000000000000000000000000e080d1b17a67f96f865143269dc991cddb01d996"
          ],
          "data": "0x00000000000000000000000000000000000000000000012d2ad2372ed4ce38e3",
          "blockHash": "0x59262d5f8c0ea6d7980a6c5fe68b1a00982ac6d0f5c4be79928b055c0a1deb0a",
          "blockNumber": "0x654b0c0",
          "transactionHash": "0x68b2b6d80fb20143bd4fc877b77f4ca329c1ce4cd8751c1ce7f22dcdb2d67e00",
          "transactionIndex": "0x1",
          "logIndex": "0x0",
          "removed": false
        }
      ],
      "logsBloom": "0x00000000000000000000000000000002000000000000000000000000000000000000000000000000000000000000000000000000000000000000000000200000000000000000000000000000000000000000000000000000000000000000000000000000080000000000000000000000000000000000000000000000000000000000000000800000000000000000000200000000000000000000000800000000020000000000000000000000000000000000000000000000000000000000000000000000000000000000000000010000000000000000000000000000000000000010000000000020000000000000000000000000000000000000010000004000",
      "type": "0x2",
      "transactionHash": "0x68b2b6d80fb20143bd4fc877b77f4ca329c1ce4cd8751c1ce7f22dcdb2d67e00",
      "transactionIndex": "0x1",
      "blockHash": "0x59262d5f8c0ea6d7980a6c5fe68b1a00982ac6d0f5c4be79928b055c0a1deb0a",
      "blockNumber": "0x654b0c0",
      "gasUsed": "0xb3b5",
      "effectiveGasPrice": "0x5f5e100",
      "from": "0xe355d5d8aa52ef0fbbd037c4a3c5e6fd659cf46b",
      "to": "0xa8cda4b40d57cc66825b58510d81735db120a6af",
      "contractAddress": null,
      "gasUsedForL1": "0x0",
      "l1BlockNumber": "0x6edaa8"
    },
    {
      "status": "0x1",
      "cumulativeGasUsed": "0xc32b5",
      "logs": [
        {
          "address": "0xa8cda4b40d57cc66825b58510d81735db120a6af",
          "topics": [
            "0xddf252ad1be2c89b69c2b068fc378daa952ba7f163c4a11628f55a4df523b3ef",
            "0x000000000000000000000000e355d5d8aa52ef0fbbd037c4a3c5e6fd659cf46b",
            "0x000000000000000000000000e080d1b17a67f96f865143269dc991cddb01d996"
          ],
          "data": "0x00000000000000000000000000000000000000000000012d2ad2372ed4ce38e3",
          "blockHash": "0x95835e6520ca3c4b23a8b7f19935927787b497d399606a9962a44b3ed8075cc3",
          "blockNumber": "0x654b0c5",
          "transactionHash": "0x48166b322da8204df3bde4d66993e0df090dc7efcba554575fa1d0a618617350",
          "transactionIndex": "0x4",
          "logIndex": "0x7",
          "removed": false
        },
        {
          "address": "0xa8cda4b40d57cc66825b58510d81735db120a6af",
          "topics": [
            "0x8c5be1e5ebec7d5bd14f71427d1e84f3dd0314c0f7b2291e5b200ac8c7c3b925",
            "0x000000000000000000000000e080d1b17a67f96f865143269dc991cddb01d996",
            "0x00000000000000000000000009dd5f4f3c67b4936d66f869cc0306d866d8db46"
          ],
          "data": "0x00000000000000000000000000000000000000000000012d2ad2372ed4ce38e3",
          "blockHash": "0x95835e6520ca3c4b23a8b7f19935927787b497d399606a9962a44b3ed8075cc3",
          "blockNumber": "0x654b0c5",
          "transactionHash": "0x48166b322da8204df3bde4d66993e0df090dc7efcba554575fa1d0a618617350",
          "transactionIndex": "0x4",
          "logIndex": "0x8",
          "removed": false
        },
        {
          "address": "0xa8cda4b40d57cc66825b58510d81735db120a6af",
          "topics": [
            "0xddf252ad1be2c89b69c2b068fc378daa952ba7f163c4a11628f55a4df523b3ef",
            "0x000000000000000000000000e080d1b17a67f96f865143269dc991cddb01d996",
            "0x00000000000000000000000009dd5f4f3c67b4936d66f869cc0306d866d8db46"
          ],
          "data": "0x00000000000000000000000000000000000000000000012d2ad2372ed4ce38e3",
          "blockHash": "0x95835e6520ca3c4b23a8b7f19935927787b497d399606a9962a44b3ed8075cc3",
          "blockNumber": "0x654b0c5",
          "transactionHash": "0x48166b322da8204df3bde4d66993e0df090dc7efcba554575fa1d0a618617350",
          "transactionIndex": "0x4",
          "logIndex": "0x9",
          "removed": false
        },
        {
          "address": "0x8089a14b4d7de5dad200d504d22c2894564d009b",
          "topics": [
            "0xddf252ad1be2c89b69c2b068fc378daa952ba7f163c4a11628f55a4df523b3ef",
            "0x0000000000000000000000000000000000000000000000000000000000000000",
            "0x00000000000000000000000009dd5f4f3c67b4936d66f869cc0306d866d8db46"
          ],
          "data": "0x0000000000000000000000000000000000000000000001120fed604be57e38e3",
          "blockHash": "0x95835e6520ca3c4b23a8b7f19935927787b497d399606a9962a44b3ed8075cc3",
          "blockNumber": "0x654b0c5",
          "transactionHash": "0x48166b322da8204df3bde4d66993e0df090dc7efcba554575fa1d0a618617350",
          "transactionIndex": "0x4",
          "logIndex": "0xa",
          "removed": false
        },
        {
          "address": "0xae37d078112b267944bcbaae8c17c6214b49a05a",
          "topics": [
            "0xddf252ad1be2c89b69c2b068fc378daa952ba7f163c4a11628f55a4df523b3ef",
            "0x0000000000000000000000000000000000000000000000000000000000000000",
            "0x00000000000000000000000009dd5f4f3c67b4936d66f869cc0306d866d8db46"
          ],
          "data": "0x00000000000000000000000000000000000000000000012d2ad2372ed4ce38e3",
          "blockHash": "0x95835e6520ca3c4b23a8b7f19935927787b497d399606a9962a44b3ed8075cc3",
          "blockNumber": "0x654b0c5",
          "transactionHash": "0x48166b322da8204df3bde4d66993e0df090dc7efcba554575fa1d0a618617350",
          "transactionIndex": "0x4",
          "logIndex": "0xb",
          "removed": false
        },
        {
          "address": "0xb53e3b54d6ad58b92e9b2370df9d416266e53817",
          "topics": [
            "0xddf252ad1be2c89b69c2b068fc378daa952ba7f163c4a11628f55a4df523b3ef",
            "0x0000000000000000000000000000000000000000000000000000000000000000",
            "0x00000000000000000000000009dd5f4f3c67b4936d66f869cc0306d866d8db46"
          ],
          "data": "0x0000000000000000000000000000000000000000000001120fed604be57e38e3",
          "blockHash": "0x95835e6520ca3c4b23a8b7f19935927787b497d399606a9962a44b3ed8075cc3",
          "blockNumber": "0x654b0c5",
          "transactionHash": "0x48166b322da8204df3bde4d66993e0df090dc7efcba554575fa1d0a618617350",
          "transactionIndex": "0x4",
          "logIndex": "0xc",
          "removed": false
        },
        {
          "address": "0x12f85676dd6d1cdc1fff57e4dc00381cdec2e4b1",
          "topics": [
            "0xddf252ad1be2c89b69c2b068fc378daa952ba7f163c4a11628f55a4df523b3ef",
            "0x0000000000000000000000000000000000000000000000000000000000000000",
            "0x00000000000000000000000009dd5f4f3c67b4936d66f869cc0306d866d8db46"
          ],
          "data": "0x00000000000000000000000000000000000000000000012d2ad2372ed4ce38e3",
          "blockHash": "0x95835e6520ca3c4b23a8b7f19935927787b497d399606a9962a44b3ed8075cc3",
          "blockNumber": "0x654b0c5",
          "transactionHash": "0x48166b322da8204df3bde4d66993e0df090dc7efcba554575fa1d0a618617350",
          "transactionIndex": "0x4",
          "logIndex": "0xd",
          "removed": false
        },
        {
          "address": "0xb53e3b54d6ad58b92e9b2370df9d416266e53817",
          "topics": [
            "0xddf252ad1be2c89b69c2b068fc378daa952ba7f163c4a11628f55a4df523b3ef",
            "0x00000000000000000000000009dd5f4f3c67b4936d66f869cc0306d866d8db46",
            "0x000000000000000000000000e080d1b17a67f96f865143269dc991cddb01d996"
          ],
          "data": "0x0000000000000000000000000000000000000000000001120fed604be57e38e3",
          "blockHash": "0x95835e6520ca3c4b23a8b7f19935927787b497d399606a9962a44b3ed8075cc3",
          "blockNumber": "0x654b0c5",
          "transactionHash": "0x48166b322da8204df3bde4d66993e0df090dc7efcba554575fa1d0a618617350",
          "transactionIndex": "0x4",
          "logIndex": "0xe",
          "removed": false
        },
        {
          "address": "0x12f85676dd6d1cdc1fff57e4dc00381cdec2e4b1",
          "topics": [
            "0xddf252ad1be2c89b69c2b068fc378daa952ba7f163c4a11628f55a4df523b3ef",
            "0x00000000000000000000000009dd5f4f3c67b4936d66f869cc0306d866d8db46",
            "0x000000000000000000000000e080d1b17a67f96f865143269dc991cddb01d996"
          ],
          "data": "0x00000000000000000000000000000000000000000000012d2ad2372ed4ce38e3",
          "blockHash": "0x95835e6520ca3c4b23a8b7f19935927787b497d399606a9962a44b3ed8075cc3",
          "blockNumber": "0x654b0c5",
          "transactionHash": "0x48166b322da8204df3bde4d66993e0df090dc7efcba554575fa1d0a618617350",
          "transactionIndex": "0x4",
          "logIndex": "0xf",
          "removed": false
        },
        {
          "address": "0x09dd5f4f3c67b4936d66f869cc0306d866d8db46",
          "topics": [
            "0x41555d2844a59a3443e16b174167939c93659db407acb706642bfd24c7425e60",
            "0x000000000000000000000000e080d1b17a67f96f865143269dc991cddb01d996"
          ],
          "data": "0x00000000000000000000000000000000000000000000012d2ad2372ed4ce38e30000000000000000000000000000000000000000000001120fed604be57e38e300000000000000000000000000000000000000000000012d2ad2372ed4ce38e30000000000000000000000000000000000000000000001120fed604be57e38e300000000000000000000000000000000000000000000012d2ad2372ed4ce38e3",
          "blockHash": "0x95835e6520ca3c4b23a8b7f19935927787b497d399606a9962a44b3ed8075cc3",
          "blockNumber": "0x654b0c5",
          "transactionHash": "0x48166b322da8204df3bde4d66993e0df090dc7efcba554575fa1d0a618617350",
          "transactionIndex": "0x4",
          "logIndex": "0x10",
          "removed": false
        },
        {
          "address": "0xb53e3b54d6ad58b92e9b2370df9d416266e53817",
          "topics": [
            "0xddf252ad1be2c89b69c2b068fc378daa952ba7f163c4a11628f55a4df523b3ef",
            "0x000000000000000000000000e080d1b17a67f96f865143269dc991cddb01d996",
            "0x000000000000000000000000e355d5d8aa52ef0fbbd037c4a3c5e6fd659cf46b"
          ],
          "data": "0x0000000000000000000000000000000000000000000001120fed604be57e38e3",
          "blockHash": "0x95835e6520ca3c4b23a8b7f19935927787b497d399606a9962a44b3ed8075cc3",
          "blockNumber": "0x654b0c5",
          "transactionHash": "0x48166b322da8204df3bde4d66993e0df090dc7efcba554575fa1d0a618617350",
          "transactionIndex": "0x4",
          "logIndex": "0x11",
          "removed": false
        },
        {
          "address": "0x12f85676dd6d1cdc1fff57e4dc00381cdec2e4b1",
          "topics": [
            "0xddf252ad1be2c89b69c2b068fc378daa952ba7f163c4a11628f55a4df523b3ef",
            "0x000000000000000000000000e080d1b17a67f96f865143269dc991cddb01d996",
            "0x000000000000000000000000e355d5d8aa52ef0fbbd037c4a3c5e6fd659cf46b"
          ],
          "data": "0x00000000000000000000000000000000000000000000012d2ad2372ed4ce38e3",
          "blockHash": "0x95835e6520ca3c4b23a8b7f19935927787b497d399606a9962a44b3ed8075cc3",
          "blockNumber": "0x654b0c5",
          "transactionHash": "0x48166b322da8204df3bde4d66993e0df090dc7efcba554575fa1d0a618617350",
          "transactionIndex": "0x4",
          "logIndex": "0x12",
          "removed": false
        },
        {
          "address": "0xe080d1b17a67f96f865143269dc991cddb01d996",
          "topics": [
            "0x2c44d8394ff4c00656fbe852f8825ff1983b71f9b99207b795a8f3342e8d6ea4",
            "0x00000000000000000000000009dd5f4f3c67b4936d66f869cc0306d866d8db46",
            "0x000000000000000000000000a8cda4b40d57cc66825b58510d81735db120a6af"
          ],
          "data": "0x000000000000000000000000e355d5d8aa52ef0fbbd037c4a3c5e6fd659cf46b000000000000000000000000e355d5d8aa52ef0fbbd037c4a3c5e6fd659cf46b00000000000000000000000000000000000000000000012d2ad2372ed4ce38e30000000000000000000000000000000000000000000001120fed604be57e38e300000000000000000000000000000000000000000000012d2ad2372ed4ce38e3",
          "blockHash": "0x95835e6520ca3c4b23a8b7f19935927787b497d399606a9962a44b3ed8075cc3",
          "blockNumber": "0x654b0c5",
          "transactionHash": "0x48166b322da8204df3bde4d66993e0df090dc7efcba554575fa1d0a618617350",
          "transactionIndex": "0x4",
          "logIndex": "0x13",
          "removed": false
        }
      ],
      "logsBloom": "0x000000000000000000000001000000020000080000012000000000000000600000000000000000000000000000000028000000010000000000000000002000000000000010880000040000080000000000080000400000000000000000000000000000000a0000000000000000000800000000000000000000800010000000000000000000800000000000000000000200000000000100000000020800000000020000000000102000000000000020000000080000000400000000000000000000000002000400000000000000010000000000000000000000000000000020000010800010804020000000000000800000000000000000000000010000004000",
      "type": "0x2",
      "transactionHash": "0x48166b322da8204df3bde4d66993e0df090dc7efcba554575fa1d0a618617350",
      "transactionIndex": "0x4",
      "blockHash": "0x95835e6520ca3c4b23a8b7f19935927787b497d399606a9962a44b3ed8075cc3",
      "blockNumber": "0x654b0c5",
      "gasUsed": "0x6707c",
      "effectiveGasPrice": "0x5f5e100",
      "from": "0xe355d5d8aa52ef0fbbd037c4a3c5e6fd659cf46b",
      "to": "0xe080d1b17a67f96f865143269dc991cddb01d996",
      "contractAddress": null,
      "gasUsedForL1": "0x0",
      "l1BlockNumber": "0x6edaa8"
    },
    {
      "status": "0x1",
      "cumulativeGasUsed": "0x1fca7",
      "logs": [
        {
          "address": "0xa8cda4b40d57cc66825b58510d81735db120a6af",
          "topics": [
            "0xddf252ad1be2c89b69c2b068fc378daa952ba7f163c4a11628f55a4df523b3ef",
            "0x0000000000000000000000000000000000000000000000000000000000000000",
            "0x000000000000000000000000e355d5d8aa52ef0fbbd037c4a3c5e6fd659cf46b"
          ],
          "data": "0x00000000000000000000000000000000000000000000012d2ad2372ed4ce38e3",
          "blockHash": "0x74a0773393c80a1b26f673d16cce0747075025b47c31ae77331c79afb2c3246c",
          "blockNumber": "0x654b0cb",
          "transactionHash": "0x05c016727a3b7cff6b7fc9fbef26845ddcd5524bbb6920bfe673d2cbfe667801",
          "transactionIndex": "0x2",
          "logIndex": "0x2",
          "removed": false
        }
      ],
      "logsBloom": "0x000000000000000000000000000000000000000000000000000000000000000000000000000000000000000000000000000000000000000000000000000000000000000000000000000000080000000000000000000000000000000000000000000000000a0000000000000000000800000000000000000000000010000000000000000000800000000000000000000200000000000000000000000800000000000000000000000000000000000000000000000000000000000000000000000000000002000000000000000000000000000000000000000000000000000020000000000000000020000000000000000000000000000000000000000000004000",
      "type": "0x2",
      "transactionHash": "0x05c016727a3b7cff6b7fc9fbef26845ddcd5524bbb6920bfe673d2cbfe667801",
      "transactionIndex": "0x2",
      "blockHash": "0x74a0773393c80a1b26f673d16cce0747075025b47c31ae77331c79afb2c3246c",
      "blockNumber": "0x654b0cb",
      "gasUsed": "0x9b51",
      "effectiveGasPrice": "0x5f5e100",
      "from": "0xe355d5d8aa52ef0fbbd037c4a3c5e6fd659cf46b",
      "to": "0xd0dcc724070d7f72e8f7f2e0e4cde5a5a3006adb",
      "contractAddress": null,
      "gasUsedForL1": "0x0",
      "l1BlockNumber": "0x6edaa8"
    },
    {
      "status": "0x1",
      "cumulativeGasUsed": "0xb3b5",
      "logs": [
        {
          "address": "0xa8cda4b40d57cc66825b58510d81735db120a6af",
          "topics": [
            "0x8c5be1e5ebec7d5bd14f71427d1e84f3dd0314c0f7b2291e5b200ac8c7c3b925",
            "0x000000000000000000000000e355d5d8aa52ef0fbbd037c4a3c5e6fd659cf46b",
            "0x000000000000000000000000e080d1b17a67f96f865143269dc991cddb01d996"
          ],
          "data": "0x00000000000000000000000000000000000000000000012d2ad2372ed4ce38e3",
          "blockHash": "0x4c9920b3374fefe3f36319a5ce7f839119f231fee9973fc17e4bd21d053ac148",
          "blockNumber": "0x654b0cf",
          "transactionHash": "0xe87f34af63a75e43194a9ebb3f7a99903d502e03d04b01c328c236b652f86a76",
          "transactionIndex": "0x1",
          "logIndex": "0x0",
          "removed": false
        }
      ],
      "logsBloom": "0x00000000000000000000000000000002000000000000000000000000000000000000000000000000000000000000000000000000000000000000000000200000000000000000000000000000000000000000000000000000000000000000000000000000080000000000000000000000000000000000000000000000000000000000000000800000000000000000000200000000000000000000000800000000020000000000000000000000000000000000000000000000000000000000000000000000000000000000000000010000000000000000000000000000000000000010000000000020000000000000000000000000000000000000010000004000",
      "type": "0x2",
      "transactionHash": "0xe87f34af63a75e43194a9ebb3f7a99903d502e03d04b01c328c236b652f86a76",
      "transactionIndex": "0x1",
      "blockHash": "0x4c9920b3374fefe3f36319a5ce7f839119f231fee9973fc17e4bd21d053ac148",
      "blockNumber": "0x654b0cf",
      "gasUsed": "0xb3b5",
      "effectiveGasPrice": "0x5f5e100",
      "from": "0xe355d5d8aa52ef0fbbd037c4a3c5e6fd659cf46b",
      "to": "0xa8cda4b40d57cc66825b58510d81735db120a6af",
      "contractAddress": null,
      "gasUsedForL1": "0x0",
      "l1BlockNumber": "0x6edaa8"
    },
    {
      "status": "0x1",
      "cumulativeGasUsed": "0x6707c",
      "logs": [
        {
          "address": "0xa8cda4b40d57cc66825b58510d81735db120a6af",
          "topics": [
            "0xddf252ad1be2c89b69c2b068fc378daa952ba7f163c4a11628f55a4df523b3ef",
            "0x000000000000000000000000e355d5d8aa52ef0fbbd037c4a3c5e6fd659cf46b",
            "0x000000000000000000000000e080d1b17a67f96f865143269dc991cddb01d996"
          ],
          "data": "0x00000000000000000000000000000000000000000000012d2ad2372ed4ce38e3",
          "blockHash": "0xc95c1ad35ed3dc54f20d8093cd3f2705403bfb1a01f5fa80c031dbbee88da69f",
          "blockNumber": "0x654b0d6",
          "transactionHash": "0x8965922efccc466fa1c2f55200461522b07abdebad16a6d66c8d4b413eb260d7",
          "transactionIndex": "0x1",
          "logIndex": "0x0",
          "removed": false
        },
        {
          "address": "0xa8cda4b40d57cc66825b58510d81735db120a6af",
          "topics": [
            "0x8c5be1e5ebec7d5bd14f71427d1e84f3dd0314c0f7b2291e5b200ac8c7c3b925",
            "0x000000000000000000000000e080d1b17a67f96f865143269dc991cddb01d996",
            "0x000000000000000000000000b15d4e2e774dead70cec268dbb6e836250a19acf"
          ],
          "data": "0x00000000000000000000000000000000000000000000012d2ad2372ed4ce38e3",
          "blockHash": "0xc95c1ad35ed3dc54f20d8093cd3f2705403bfb1a01f5fa80c031dbbee88da69f",
          "blockNumber": "0x654b0d6",
          "transactionHash": "0x8965922efccc466fa1c2f55200461522b07abdebad16a6d66c8d4b413eb260d7",
          "transactionIndex": "0x1",
          "logIndex": "0x1",
          "removed": false
        },
        {
          "address": "0xa8cda4b40d57cc66825b58510d81735db120a6af",
          "topics": [
            "0xddf252ad1be2c89b69c2b068fc378daa952ba7f163c4a11628f55a4df523b3ef",
            "0x000000000000000000000000e080d1b17a67f96f865143269dc991cddb01d996",
            "0x000000000000000000000000b15d4e2e774dead70cec268dbb6e836250a19acf"
          ],
          "data": "0x00000000000000000000000000000000000000000000012d2ad2372ed4ce38e3",
          "blockHash": "0xc95c1ad35ed3dc54f20d8093cd3f2705403bfb1a01f5fa80c031dbbee88da69f",
          "blockNumber": "0x654b0d6",
          "transactionHash": "0x8965922efccc466fa1c2f55200461522b07abdebad16a6d66c8d4b413eb260d7",
          "transactionIndex": "0x1",
          "logIndex": "0x2",
          "removed": false
        },
        {
          "address": "0x16b2027060c4a30122de3d399b89c3482db3cab1",
          "topics": [
            "0xddf252ad1be2c89b69c2b068fc378daa952ba7f163c4a11628f55a4df523b3ef",
            "0x0000000000000000000000000000000000000000000000000000000000000000",
            "0x000000000000000000000000b15d4e2e774dead70cec268dbb6e836250a19acf"
          ],
          "data": "0x0000000000000000000000000000000000000000000001120fed604be57e38e3",
          "blockHash": "0xc95c1ad35ed3dc54f20d8093cd3f2705403bfb1a01f5fa80c031dbbee88da69f",
          "blockNumber": "0x654b0d6",
          "transactionHash": "0x8965922efccc466fa1c2f55200461522b07abdebad16a6d66c8d4b413eb260d7",
          "transactionIndex": "0x1",
          "logIndex": "0x3",
          "removed": false
        },
        {
          "address": "0xfb4e566bd34a239eb7b408af907627899720c5bd",
          "topics": [
            "0xddf252ad1be2c89b69c2b068fc378daa952ba7f163c4a11628f55a4df523b3ef",
            "0x0000000000000000000000000000000000000000000000000000000000000000",
            "0x000000000000000000000000b15d4e2e774dead70cec268dbb6e836250a19acf"
          ],
          "data": "0x00000000000000000000000000000000000000000000012d2ad2372ed4ce38e3",
          "blockHash": "0xc95c1ad35ed3dc54f20d8093cd3f2705403bfb1a01f5fa80c031dbbee88da69f",
          "blockNumber": "0x654b0d6",
          "transactionHash": "0x8965922efccc466fa1c2f55200461522b07abdebad16a6d66c8d4b413eb260d7",
          "transactionIndex": "0x1",
          "logIndex": "0x4",
          "removed": false
        },
        {
          "address": "0x7673e7639386bd1d3bee5e1850921a00e9833d4e",
          "topics": [
            "0xddf252ad1be2c89b69c2b068fc378daa952ba7f163c4a11628f55a4df523b3ef",
            "0x0000000000000000000000000000000000000000000000000000000000000000",
            "0x000000000000000000000000b15d4e2e774dead70cec268dbb6e836250a19acf"
          ],
          "data": "0x0000000000000000000000000000000000000000000001120fed604be57e38e3",
          "blockHash": "0xc95c1ad35ed3dc54f20d8093cd3f2705403bfb1a01f5fa80c031dbbee88da69f",
          "blockNumber": "0x654b0d6",
          "transactionHash": "0x8965922efccc466fa1c2f55200461522b07abdebad16a6d66c8d4b413eb260d7",
          "transactionIndex": "0x1",
          "logIndex": "0x5",
          "removed": false
        },
        {
          "address": "0x6ee8e4834a7c850056ae8186b15eb2b6ab0dbc98",
          "topics": [
            "0xddf252ad1be2c89b69c2b068fc378daa952ba7f163c4a11628f55a4df523b3ef",
            "0x0000000000000000000000000000000000000000000000000000000000000000",
            "0x000000000000000000000000b15d4e2e774dead70cec268dbb6e836250a19acf"
          ],
          "data": "0x00000000000000000000000000000000000000000000012d2ad2372ed4ce38e3",
          "blockHash": "0xc95c1ad35ed3dc54f20d8093cd3f2705403bfb1a01f5fa80c031dbbee88da69f",
          "blockNumber": "0x654b0d6",
          "transactionHash": "0x8965922efccc466fa1c2f55200461522b07abdebad16a6d66c8d4b413eb260d7",
          "transactionIndex": "0x1",
          "logIndex": "0x6",
          "removed": false
        },
        {
          "address": "0x7673e7639386bd1d3bee5e1850921a00e9833d4e",
          "topics": [
            "0xddf252ad1be2c89b69c2b068fc378daa952ba7f163c4a11628f55a4df523b3ef",
            "0x000000000000000000000000b15d4e2e774dead70cec268dbb6e836250a19acf",
            "0x000000000000000000000000e080d1b17a67f96f865143269dc991cddb01d996"
          ],
          "data": "0x0000000000000000000000000000000000000000000001120fed604be57e38e3",
          "blockHash": "0xc95c1ad35ed3dc54f20d8093cd3f2705403bfb1a01f5fa80c031dbbee88da69f",
          "blockNumber": "0x654b0d6",
          "transactionHash": "0x8965922efccc466fa1c2f55200461522b07abdebad16a6d66c8d4b413eb260d7",
          "transactionIndex": "0x1",
          "logIndex": "0x7",
          "removed": false
        },
        {
          "address": "0x6ee8e4834a7c850056ae8186b15eb2b6ab0dbc98",
          "topics": [
            "0xddf252ad1be2c89b69c2b068fc378daa952ba7f163c4a11628f55a4df523b3ef",
            "0x000000000000000000000000b15d4e2e774dead70cec268dbb6e836250a19acf",
            "0x000000000000000000000000e080d1b17a67f96f865143269dc991cddb01d996"
          ],
          "data": "0x00000000000000000000000000000000000000000000012d2ad2372ed4ce38e3",
          "blockHash": "0xc95c1ad35ed3dc54f20d8093cd3f2705403bfb1a01f5fa80c031dbbee88da69f",
          "blockNumber": "0x654b0d6",
          "transactionHash": "0x8965922efccc466fa1c2f55200461522b07abdebad16a6d66c8d4b413eb260d7",
          "transactionIndex": "0x1",
          "logIndex": "0x8",
          "removed": false
        },
        {
          "address": "0xb15d4e2e774dead70cec268dbb6e836250a19acf",
          "topics": [
            "0x41555d2844a59a3443e16b174167939c93659db407acb706642bfd24c7425e60",
            "0x000000000000000000000000e080d1b17a67f96f865143269dc991cddb01d996"
          ],
          "data": "0x00000000000000000000000000000000000000000000012d2ad2372ed4ce38e30000000000000000000000000000000000000000000001120fed604be57e38e300000000000000000000000000000000000000000000012d2ad2372ed4ce38e30000000000000000000000000000000000000000000001120fed604be57e38e300000000000000000000000000000000000000000000012d2ad2372ed4ce38e3",
          "blockHash": "0xc95c1ad35ed3dc54f20d8093cd3f2705403bfb1a01f5fa80c031dbbee88da69f",
          "blockNumber": "0x654b0d6",
          "transactionHash": "0x8965922efccc466fa1c2f55200461522b07abdebad16a6d66c8d4b413eb260d7",
          "transactionIndex": "0x1",
          "logIndex": "0x9",
          "removed": false
        },
        {
          "address": "0x7673e7639386bd1d3bee5e1850921a00e9833d4e",
          "topics": [
            "0xddf252ad1be2c89b69c2b068fc378daa952ba7f163c4a11628f55a4df523b3ef",
            "0x000000000000000000000000e080d1b17a67f96f865143269dc991cddb01d996",
            "0x000000000000000000000000e355d5d8aa52ef0fbbd037c4a3c5e6fd659cf46b"
          ],
          "data": "0x0000000000000000000000000000000000000000000001120fed604be57e38e3",
          "blockHash": "0xc95c1ad35ed3dc54f20d8093cd3f2705403bfb1a01f5fa80c031dbbee88da69f",
          "blockNumber": "0x654b0d6",
          "transactionHash": "0x8965922efccc466fa1c2f55200461522b07abdebad16a6d66c8d4b413eb260d7",
          "transactionIndex": "0x1",
          "logIndex": "0xa",
          "removed": false
        },
        {
          "address": "0x6ee8e4834a7c850056ae8186b15eb2b6ab0dbc98",
          "topics": [
            "0xddf252ad1be2c89b69c2b068fc378daa952ba7f163c4a11628f55a4df523b3ef",
            "0x000000000000000000000000e080d1b17a67f96f865143269dc991cddb01d996",
            "0x000000000000000000000000e355d5d8aa52ef0fbbd037c4a3c5e6fd659cf46b"
          ],
          "data": "0x00000000000000000000000000000000000000000000012d2ad2372ed4ce38e3",
          "blockHash": "0xc95c1ad35ed3dc54f20d8093cd3f2705403bfb1a01f5fa80c031dbbee88da69f",
          "blockNumber": "0x654b0d6",
          "transactionHash": "0x8965922efccc466fa1c2f55200461522b07abdebad16a6d66c8d4b413eb260d7",
          "transactionIndex": "0x1",
          "logIndex": "0xb",
          "removed": false
        },
        {
          "address": "0xe080d1b17a67f96f865143269dc991cddb01d996",
          "topics": [
            "0x2c44d8394ff4c00656fbe852f8825ff1983b71f9b99207b795a8f3342e8d6ea4",
            "0x000000000000000000000000b15d4e2e774dead70cec268dbb6e836250a19acf",
            "0x000000000000000000000000a8cda4b40d57cc66825b58510d81735db120a6af"
          ],
          "data": "0x000000000000000000000000e355d5d8aa52ef0fbbd037c4a3c5e6fd659cf46b000000000000000000000000e355d5d8aa52ef0fbbd037c4a3c5e6fd659cf46b00000000000000000000000000000000000000000000012d2ad2372ed4ce38e30000000000000000000000000000000000000000000001120fed604be57e38e300000000000000000000000000000000000000000000012d2ad2372ed4ce38e3",
          "blockHash": "0xc95c1ad35ed3dc54f20d8093cd3f2705403bfb1a01f5fa80c031dbbee88da69f",
          "blockNumber": "0x654b0d6",
          "transactionHash": "0x8965922efccc466fa1c2f55200461522b07abdebad16a6d66c8d4b413eb260d7",
          "transactionIndex": "0x1",
          "logIndex": "0xc",
          "removed": false
        }
      ],
      "logsBloom": "0x000000000000000000000000010100020000010000012000000000000000200000000000000000000000000000000008000000010000000000000000002020000000040008010000000000080000000000080000400000000000000002000000000000000a0000000000001000000800000000400000000000000010000000040000000000800000080000000002000200000000000000000000000800000020020000000000100000000000000020000000080000001000000000000000000000000002000000000000000000010000000400000000000000000000000020000010000000004020000000000000800000000000000000000400810000004000",
      "type": "0x2",
      "transactionHash": "0x8965922efccc466fa1c2f55200461522b07abdebad16a6d66c8d4b413eb260d7",
      "transactionIndex": "0x1",
      "blockHash": "0xc95c1ad35ed3dc54f20d8093cd3f2705403bfb1a01f5fa80c031dbbee88da69f",
      "blockNumber": "0x654b0d6",
      "gasUsed": "0x6707c",
      "effectiveGasPrice": "0x5f5e100",
      "from": "0xe355d5d8aa52ef0fbbd037c4a3c5e6fd659cf46b",
      "to": "0xe080d1b17a67f96f865143269dc991cddb01d996",
      "contractAddress": null,
      "gasUsedForL1": "0x0",
      "l1BlockNumber": "0x6edaa8"
    },
    {
      "status": "0x1",
      "cumulativeGasUsed": "0x9b15",
      "logs": [
        {
          "address": "0x2129475b1b253a6d2ccfe3fda6b06319c6794982",
          "topics": [
            "0xddf252ad1be2c89b69c2b068fc378daa952ba7f163c4a11628f55a4df523b3ef",
            "0x0000000000000000000000000000000000000000000000000000000000000000",
            "0x000000000000000000000000e355d5d8aa52ef0fbbd037c4a3c5e6fd659cf46b"
          ],
          "data": "0x000000000000000000000000000000000000000000000000000012309ce54000",
          "blockHash": "0x54750ca7f3d563d4aef985ef46d0e31a096e4e848c6cb7854cf830d43f6131ce",
          "blockNumber": "0x654b0db",
          "transactionHash": "0xa2a2ef0264d75f512bd14a41ec15923bee5ad926050e3c88153e1aae45b532fd",
          "transactionIndex": "0x1",
          "logIndex": "0x0",
          "removed": false
        }
      ],
      "logsBloom": "0x00000000000000000000000000000000000000000000000000000000000000000000000000000000000000000000000000000000000000000000000000000000000000000000000000000008000000000000000000000000000000000020000000000000020000000000000000000800000000000000000000000010000000000000000000000000000000000000000200000000000000000000000000000000000000000000000000000000000000000000000000000000000000000000000000000002000000000000000000000000000000010000000000000000000020000000000000000028000000000000000000000000000000000000000000004000",
      "type": "0x2",
      "transactionHash": "0xa2a2ef0264d75f512bd14a41ec15923bee5ad926050e3c88153e1aae45b532fd",
      "transactionIndex": "0x1",
      "blockHash": "0x54750ca7f3d563d4aef985ef46d0e31a096e4e848c6cb7854cf830d43f6131ce",
      "blockNumber": "0x654b0db",
      "gasUsed": "0x9b15",
      "effectiveGasPrice": "0x5f5e100",
      "from": "0xe355d5d8aa52ef0fbbd037c4a3c5e6fd659cf46b",
      "to": "0xd0dcc724070d7f72e8f7f2e0e4cde5a5a3006adb",
      "contractAddress": null,
      "gasUsedForL1": "0x0",
      "l1BlockNumber": "0x6edaa8"
    },
    {
      "status": "0x1",
      "cumulativeGasUsed": "0x51fd3",
      "logs": [
        {
          "address": "0x2129475b1b253a6d2ccfe3fda6b06319c6794982",
          "topics": [
            "0x8c5be1e5ebec7d5bd14f71427d1e84f3dd0314c0f7b2291e5b200ac8c7c3b925",
            "0x000000000000000000000000e355d5d8aa52ef0fbbd037c4a3c5e6fd659cf46b",
            "0x000000000000000000000000e080d1b17a67f96f865143269dc991cddb01d996"
          ],
          "data": "0x000000000000000000000000000000000000000000000000000012309ce54000",
          "blockHash": "0x9d8901d853ca67c65a9828516cb2d877d0989d1b0be736acc9934b0a5199d0c3",
          "blockNumber": "0x654b0e0",
          "transactionHash": "0x63ee8ff1ede8e517fd3e49314484124ad1bafae53e5c1c91bdede2786abf20cd",
          "transactionIndex": "0x4",
          "logIndex": "0x7",
          "removed": false
        }
      ],
      "logsBloom": "0x00000000000000000000000000000002000000000000000000000000000000000000000000000000000000000000000000000000000000000000000000200000000000000000000000000000000000000000000000000000000000000020000000000000000000000000000000000000000000000000000000000000000000000000000000000000000000000000000200000000000000000000000000000000020000000000000000000000000000000000000000000000000000000000000000000000000000000000000000010000000000010000000000000000000000000010000000000028000000000000000000000000000000000000010000004000",
      "type": "0x2",
      "transactionHash": "0x63ee8ff1ede8e517fd3e49314484124ad1bafae53e5c1c91bdede2786abf20cd",
      "transactionIndex": "0x4",
      "blockHash": "0x9d8901d853ca67c65a9828516cb2d877d0989d1b0be736acc9934b0a5199d0c3",
      "blockNumber": "0x654b0e0",
      "gasUsed": "0xb379",
      "effectiveGasPrice": "0x5f5e100",
      "from": "0xe355d5d8aa52ef0fbbd037c4a3c5e6fd659cf46b",
      "to": "0x2129475b1b253a6d2ccfe3fda6b06319c6794982",
      "contractAddress": null,
      "gasUsedForL1": "0x0",
      "l1BlockNumber": "0x6edaa8"
    },
    {
      "status": "0x1",
      "cumulativeGasUsed": "0x67042",
      "logs": [
        {
          "address": "0x2129475b1b253a6d2ccfe3fda6b06319c6794982",
          "topics": [
            "0xddf252ad1be2c89b69c2b068fc378daa952ba7f163c4a11628f55a4df523b3ef",
            "0x000000000000000000000000e355d5d8aa52ef0fbbd037c4a3c5e6fd659cf46b",
            "0x000000000000000000000000e080d1b17a67f96f865143269dc991cddb01d996"
          ],
          "data": "0x000000000000000000000000000000000000000000000000000012309ce54000",
          "blockHash": "0xff8d8e665c9f405f83da5e7ee9d5aa7a6eba1e03b43ed126ebeacfe3bdfc4ef7",
          "blockNumber": "0x654b0e6",
          "transactionHash": "0x4f04d224026a9c2aa695e61a36ca28d7aa032bd1f04728fb0c137face88ac828",
          "transactionIndex": "0x1",
          "logIndex": "0x0",
          "removed": false
        },
        {
          "address": "0x2129475b1b253a6d2ccfe3fda6b06319c6794982",
          "topics": [
            "0x8c5be1e5ebec7d5bd14f71427d1e84f3dd0314c0f7b2291e5b200ac8c7c3b925",
            "0x000000000000000000000000e080d1b17a67f96f865143269dc991cddb01d996",
            "0x000000000000000000000000007938e8b17c37c4b250510ab9f97e90ae978a9c"
          ],
          "data": "0x000000000000000000000000000000000000000000000000000012309ce54000",
          "blockHash": "0xff8d8e665c9f405f83da5e7ee9d5aa7a6eba1e03b43ed126ebeacfe3bdfc4ef7",
          "blockNumber": "0x654b0e6",
          "transactionHash": "0x4f04d224026a9c2aa695e61a36ca28d7aa032bd1f04728fb0c137face88ac828",
          "transactionIndex": "0x1",
          "logIndex": "0x1",
          "removed": false
        },
        {
          "address": "0x2129475b1b253a6d2ccfe3fda6b06319c6794982",
          "topics": [
            "0xddf252ad1be2c89b69c2b068fc378daa952ba7f163c4a11628f55a4df523b3ef",
            "0x000000000000000000000000e080d1b17a67f96f865143269dc991cddb01d996",
            "0x000000000000000000000000007938e8b17c37c4b250510ab9f97e90ae978a9c"
          ],
          "data": "0x000000000000000000000000000000000000000000000000000012309ce54000",
          "blockHash": "0xff8d8e665c9f405f83da5e7ee9d5aa7a6eba1e03b43ed126ebeacfe3bdfc4ef7",
          "blockNumber": "0x654b0e6",
          "transactionHash": "0x4f04d224026a9c2aa695e61a36ca28d7aa032bd1f04728fb0c137face88ac828",
          "transactionIndex": "0x1",
          "logIndex": "0x2",
          "removed": false
        },
        {
          "address": "0x5c5a96846ade7401c0045e62015d068d291cd203",
          "topics": [
            "0xddf252ad1be2c89b69c2b068fc378daa952ba7f163c4a11628f55a4df523b3ef",
            "0x0000000000000000000000000000000000000000000000000000000000000000",
            "0x000000000000000000000000007938e8b17c37c4b250510ab9f97e90ae978a9c"
          ],
          "data": "0x00000000000000000000000000000000000000000000000000000ebbdb3ed000",
          "blockHash": "0xff8d8e665c9f405f83da5e7ee9d5aa7a6eba1e03b43ed126ebeacfe3bdfc4ef7",
          "blockNumber": "0x654b0e6",
          "transactionHash": "0x4f04d224026a9c2aa695e61a36ca28d7aa032bd1f04728fb0c137face88ac828",
          "transactionIndex": "0x1",
          "logIndex": "0x3",
          "removed": false
        },
        {
          "address": "0xb920190389d2ca47fb9dea832bfcb2dc70be9b6d",
          "topics": [
            "0xddf252ad1be2c89b69c2b068fc378daa952ba7f163c4a11628f55a4df523b3ef",
            "0x0000000000000000000000000000000000000000000000000000000000000000",
            "0x000000000000000000000000007938e8b17c37c4b250510ab9f97e90ae978a9c"
          ],
          "data": "0x000000000000000000000000000000000000000000000000000012309ce54000",
          "blockHash": "0xff8d8e665c9f405f83da5e7ee9d5aa7a6eba1e03b43ed126ebeacfe3bdfc4ef7",
          "blockNumber": "0x654b0e6",
          "transactionHash": "0x4f04d224026a9c2aa695e61a36ca28d7aa032bd1f04728fb0c137face88ac828",
          "transactionIndex": "0x1",
          "logIndex": "0x4",
          "removed": false
        },
        {
          "address": "0x4654cb7bb6b11d7577ecf5bb4958eca59d3333c1",
          "topics": [
            "0xddf252ad1be2c89b69c2b068fc378daa952ba7f163c4a11628f55a4df523b3ef",
            "0x0000000000000000000000000000000000000000000000000000000000000000",
            "0x000000000000000000000000007938e8b17c37c4b250510ab9f97e90ae978a9c"
          ],
          "data": "0x00000000000000000000000000000000000000000000000000000ebbdb3ed000",
          "blockHash": "0xff8d8e665c9f405f83da5e7ee9d5aa7a6eba1e03b43ed126ebeacfe3bdfc4ef7",
          "blockNumber": "0x654b0e6",
          "transactionHash": "0x4f04d224026a9c2aa695e61a36ca28d7aa032bd1f04728fb0c137face88ac828",
          "transactionIndex": "0x1",
          "logIndex": "0x5",
          "removed": false
        },
        {
          "address": "0xb2409d468cbe8f1d0b603d8e5271f44c922ac5c4",
          "topics": [
            "0xddf252ad1be2c89b69c2b068fc378daa952ba7f163c4a11628f55a4df523b3ef",
            "0x0000000000000000000000000000000000000000000000000000000000000000",
            "0x000000000000000000000000007938e8b17c37c4b250510ab9f97e90ae978a9c"
          ],
          "data": "0x000000000000000000000000000000000000000000000000000012309ce54000",
          "blockHash": "0xff8d8e665c9f405f83da5e7ee9d5aa7a6eba1e03b43ed126ebeacfe3bdfc4ef7",
          "blockNumber": "0x654b0e6",
          "transactionHash": "0x4f04d224026a9c2aa695e61a36ca28d7aa032bd1f04728fb0c137face88ac828",
          "transactionIndex": "0x1",
          "logIndex": "0x6",
          "removed": false
        },
        {
          "address": "0x4654cb7bb6b11d7577ecf5bb4958eca59d3333c1",
          "topics": [
            "0xddf252ad1be2c89b69c2b068fc378daa952ba7f163c4a11628f55a4df523b3ef",
            "0x000000000000000000000000007938e8b17c37c4b250510ab9f97e90ae978a9c",
            "0x000000000000000000000000e080d1b17a67f96f865143269dc991cddb01d996"
          ],
          "data": "0x00000000000000000000000000000000000000000000000000000ebbdb3ed000",
          "blockHash": "0xff8d8e665c9f405f83da5e7ee9d5aa7a6eba1e03b43ed126ebeacfe3bdfc4ef7",
          "blockNumber": "0x654b0e6",
          "transactionHash": "0x4f04d224026a9c2aa695e61a36ca28d7aa032bd1f04728fb0c137face88ac828",
          "transactionIndex": "0x1",
          "logIndex": "0x7",
          "removed": false
        },
        {
          "address": "0xb2409d468cbe8f1d0b603d8e5271f44c922ac5c4",
          "topics": [
            "0xddf252ad1be2c89b69c2b068fc378daa952ba7f163c4a11628f55a4df523b3ef",
            "0x000000000000000000000000007938e8b17c37c4b250510ab9f97e90ae978a9c",
            "0x000000000000000000000000e080d1b17a67f96f865143269dc991cddb01d996"
          ],
          "data": "0x000000000000000000000000000000000000000000000000000012309ce54000",
          "blockHash": "0xff8d8e665c9f405f83da5e7ee9d5aa7a6eba1e03b43ed126ebeacfe3bdfc4ef7",
          "blockNumber": "0x654b0e6",
          "transactionHash": "0x4f04d224026a9c2aa695e61a36ca28d7aa032bd1f04728fb0c137face88ac828",
          "transactionIndex": "0x1",
          "logIndex": "0x8",
          "removed": false
        },
        {
          "address": "0x007938e8b17c37c4b250510ab9f97e90ae978a9c",
          "topics": [
            "0x41555d2844a59a3443e16b174167939c93659db407acb706642bfd24c7425e60",
            "0x000000000000000000000000e080d1b17a67f96f865143269dc991cddb01d996"
          ],
          "data": "0x000000000000000000000000000000000000000000000000000012309ce5400000000000000000000000000000000000000000000000000000000ebbdb3ed000000000000000000000000000000000000000000000000000000012309ce5400000000000000000000000000000000000000000000000000000000ebbdb3ed000000000000000000000000000000000000000000000000000000012309ce54000",
          "blockHash": "0xff8d8e665c9f405f83da5e7ee9d5aa7a6eba1e03b43ed126ebeacfe3bdfc4ef7",
          "blockNumber": "0x654b0e6",
          "transactionHash": "0x4f04d224026a9c2aa695e61a36ca28d7aa032bd1f04728fb0c137face88ac828",
          "transactionIndex": "0x1",
          "logIndex": "0x9",
          "removed": false
        },
        {
          "address": "0x4654cb7bb6b11d7577ecf5bb4958eca59d3333c1",
          "topics": [
            "0xddf252ad1be2c89b69c2b068fc378daa952ba7f163c4a11628f55a4df523b3ef",
            "0x000000000000000000000000e080d1b17a67f96f865143269dc991cddb01d996",
            "0x000000000000000000000000e355d5d8aa52ef0fbbd037c4a3c5e6fd659cf46b"
          ],
          "data": "0x00000000000000000000000000000000000000000000000000000ebbdb3ed000",
          "blockHash": "0xff8d8e665c9f405f83da5e7ee9d5aa7a6eba1e03b43ed126ebeacfe3bdfc4ef7",
          "blockNumber": "0x654b0e6",
          "transactionHash": "0x4f04d224026a9c2aa695e61a36ca28d7aa032bd1f04728fb0c137face88ac828",
          "transactionIndex": "0x1",
          "logIndex": "0xa",
          "removed": false
        },
        {
          "address": "0xb2409d468cbe8f1d0b603d8e5271f44c922ac5c4",
          "topics": [
            "0xddf252ad1be2c89b69c2b068fc378daa952ba7f163c4a11628f55a4df523b3ef",
            "0x000000000000000000000000e080d1b17a67f96f865143269dc991cddb01d996",
            "0x000000000000000000000000e355d5d8aa52ef0fbbd037c4a3c5e6fd659cf46b"
          ],
          "data": "0x000000000000000000000000000000000000000000000000000012309ce54000",
          "blockHash": "0xff8d8e665c9f405f83da5e7ee9d5aa7a6eba1e03b43ed126ebeacfe3bdfc4ef7",
          "blockNumber": "0x654b0e6",
          "transactionHash": "0x4f04d224026a9c2aa695e61a36ca28d7aa032bd1f04728fb0c137face88ac828",
          "transactionIndex": "0x1",
          "logIndex": "0xb",
          "removed": false
        },
        {
          "address": "0xe080d1b17a67f96f865143269dc991cddb01d996",
          "topics": [
            "0x2c44d8394ff4c00656fbe852f8825ff1983b71f9b99207b795a8f3342e8d6ea4",
            "0x000000000000000000000000007938e8b17c37c4b250510ab9f97e90ae978a9c",
            "0x0000000000000000000000002129475b1b253a6d2ccfe3fda6b06319c6794982"
          ],
          "data": "0x000000000000000000000000e355d5d8aa52ef0fbbd037c4a3c5e6fd659cf46b000000000000000000000000e355d5d8aa52ef0fbbd037c4a3c5e6fd659cf46b000000000000000000000000000000000000000000000000000012309ce5400000000000000000000000000000000000000000000000000000000ebbdb3ed000000000000000000000000000000000000000000000000000000012309ce54000",
          "blockHash": "0xff8d8e665c9f405f83da5e7ee9d5aa7a6eba1e03b43ed126ebeacfe3bdfc4ef7",
          "blockNumber": "0x654b0e6",
          "transactionHash": "0x4f04d224026a9c2aa695e61a36ca28d7aa032bd1f04728fb0c137face88ac828",
          "transactionIndex": "0x1",
          "logIndex": "0xc",
          "removed": false
        }
      ],
      "logsBloom": "0x00000000000002000000000002000002000000000040200000000000000000000000000000000000000000000000000900000001000001000000000000200000000001000000000080000008000000000008000048000000000000000020000000000000220000002000000000000800000000000000200000000010000000000000000000000040000000000000000200020000000000000020000000000000020000000200000000000000000020000000080000000000000000000000000000000002004000000000100000014000000000010000080000000000000020000010000000004028200000000000800000000000000000008000010000004000",
      "type": "0x2",
      "transactionHash": "0x4f04d224026a9c2aa695e61a36ca28d7aa032bd1f04728fb0c137face88ac828",
      "transactionIndex": "0x1",
      "blockHash": "0xff8d8e665c9f405f83da5e7ee9d5aa7a6eba1e03b43ed126ebeacfe3bdfc4ef7",
      "blockNumber": "0x654b0e6",
      "gasUsed": "0x67042",
      "effectiveGasPrice": "0x5f5e100",
      "from": "0xe355d5d8aa52ef0fbbd037c4a3c5e6fd659cf46b",
      "to": "0xe080d1b17a67f96f865143269dc991cddb01d996",
      "contractAddress": null,
      "gasUsedForL1": "0x0",
      "l1BlockNumber": "0x6edaa9"
    },
    {
      "status": "0x1",
      "cumulativeGasUsed": "0x9b15",
      "logs": [
        {
          "address": "0x2129475b1b253a6d2ccfe3fda6b06319c6794982",
          "topics": [
            "0xddf252ad1be2c89b69c2b068fc378daa952ba7f163c4a11628f55a4df523b3ef",
            "0x0000000000000000000000000000000000000000000000000000000000000000",
            "0x000000000000000000000000e355d5d8aa52ef0fbbd037c4a3c5e6fd659cf46b"
          ],
          "data": "0x000000000000000000000000000000000000000000000000000012309ce54000",
          "blockHash": "0xd6bf2a8d6c6f600b5c59367d04dd8df87ce82ff33b3907fa91b8d3e3073943d3",
          "blockNumber": "0x654b0ea",
          "transactionHash": "0xe04448873f1bf2157a9181418c2fa634d63780b5822960083472bf058c3de2b9",
          "transactionIndex": "0x1",
          "logIndex": "0x0",
          "removed": false
        }
      ],
      "logsBloom": "0x00000000000000000000000000000000000000000000000000000000000000000000000000000000000000000000000000000000000000000000000000000000000000000000000000000008000000000000000000000000000000000020000000000000020000000000000000000800000000000000000000000010000000000000000000000000000000000000000200000000000000000000000000000000000000000000000000000000000000000000000000000000000000000000000000000002000000000000000000000000000000010000000000000000000020000000000000000028000000000000000000000000000000000000000000004000",
      "type": "0x2",
      "transactionHash": "0xe04448873f1bf2157a9181418c2fa634d63780b5822960083472bf058c3de2b9",
      "transactionIndex": "0x1",
      "blockHash": "0xd6bf2a8d6c6f600b5c59367d04dd8df87ce82ff33b3907fa91b8d3e3073943d3",
      "blockNumber": "0x654b0ea",
      "gasUsed": "0x9b15",
      "effectiveGasPrice": "0x5f5e100",
      "from": "0xe355d5d8aa52ef0fbbd037c4a3c5e6fd659cf46b",
      "to": "0xd0dcc724070d7f72e8f7f2e0e4cde5a5a3006adb",
      "contractAddress": null,
      "gasUsedForL1": "0x0",
      "l1BlockNumber": "0x6edaa9"
    },
    {
      "status": "0x1",
      "cumulativeGasUsed": "0x31a73",
      "logs": [
        {
          "address": "0x2129475b1b253a6d2ccfe3fda6b06319c6794982",
          "topics": [
            "0x8c5be1e5ebec7d5bd14f71427d1e84f3dd0314c0f7b2291e5b200ac8c7c3b925",
            "0x000000000000000000000000e355d5d8aa52ef0fbbd037c4a3c5e6fd659cf46b",
            "0x000000000000000000000000e080d1b17a67f96f865143269dc991cddb01d996"
          ],
          "data": "0x000000000000000000000000000000000000000000000000000012309ce54000",
          "blockHash": "0x9cd8dbbc037684050bb5dda8a39bfa41f32c50f75ab6696b27505ea542470800",
          "blockNumber": "0x654b0ef",
          "transactionHash": "0x2e43ffaf12f805a7a5a496eb1f898d6cec42a557901fb698f8a51772aecc99d8",
          "transactionIndex": "0x2",
          "logIndex": "0x5",
          "removed": false
        }
      ],
      "logsBloom": "0x00000000000000000000000000000002000000000000000000000000000000000000000000000000000000000000000000000000000000000000000000200000000000000000000000000000000000000000000000000000000000000020000000000000000000000000000000000000000000000000000000000000000000000000000000000000000000000000000200000000000000000000000000000000020000000000000000000000000000000000000000000000000000000000000000000000000000000000000000010000000000010000000000000000000000000010000000000028000000000000000000000000000000000000010000004000",
      "type": "0x2",
      "transactionHash": "0x2e43ffaf12f805a7a5a496eb1f898d6cec42a557901fb698f8a51772aecc99d8",
      "transactionIndex": "0x2",
      "blockHash": "0x9cd8dbbc037684050bb5dda8a39bfa41f32c50f75ab6696b27505ea542470800",
      "blockNumber": "0x654b0ef",
      "gasUsed": "0xb379",
      "effectiveGasPrice": "0x5f5e100",
      "from": "0xe355d5d8aa52ef0fbbd037c4a3c5e6fd659cf46b",
      "to": "0x2129475b1b253a6d2ccfe3fda6b06319c6794982",
      "contractAddress": null,
      "gasUsedForL1": "0x0",
      "l1BlockNumber": "0x6edaa9"
    },
    {
      "status": "0x1",
      "cumulativeGasUsed": "0x7431c",
      "logs": [
        {
          "address": "0x2129475b1b253a6d2ccfe3fda6b06319c6794982",
          "topics": [
            "0xddf252ad1be2c89b69c2b068fc378daa952ba7f163c4a11628f55a4df523b3ef",
            "0x000000000000000000000000e355d5d8aa52ef0fbbd037c4a3c5e6fd659cf46b",
            "0x000000000000000000000000e080d1b17a67f96f865143269dc991cddb01d996"
          ],
          "data": "0x000000000000000000000000000000000000000000000000000012309ce54000",
          "blockHash": "0x42a0301da7225f6bd7d5a96ac9adfe059c62ce73940e788b1fcab339eb758e0a",
          "blockNumber": "0x654b0f5",
          "transactionHash": "0xa067c7f60d41d302f148f16b8297510fff1bef8db24e90565d4a2d2ed2f2d53e",
          "transactionIndex": "0x2",
          "logIndex": "0x1",
          "removed": false
        },
        {
          "address": "0x2129475b1b253a6d2ccfe3fda6b06319c6794982",
          "topics": [
            "0x8c5be1e5ebec7d5bd14f71427d1e84f3dd0314c0f7b2291e5b200ac8c7c3b925",
            "0x000000000000000000000000e080d1b17a67f96f865143269dc991cddb01d996",
            "0x000000000000000000000000aedac43bf468583ad93f04bb0aef0428bb2fc1c5"
          ],
          "data": "0x000000000000000000000000000000000000000000000000000012309ce54000",
          "blockHash": "0x42a0301da7225f6bd7d5a96ac9adfe059c62ce73940e788b1fcab339eb758e0a",
          "blockNumber": "0x654b0f5",
          "transactionHash": "0xa067c7f60d41d302f148f16b8297510fff1bef8db24e90565d4a2d2ed2f2d53e",
          "transactionIndex": "0x2",
          "logIndex": "0x2",
          "removed": false
        },
        {
          "address": "0x2129475b1b253a6d2ccfe3fda6b06319c6794982",
          "topics": [
            "0xddf252ad1be2c89b69c2b068fc378daa952ba7f163c4a11628f55a4df523b3ef",
            "0x000000000000000000000000e080d1b17a67f96f865143269dc991cddb01d996",
            "0x000000000000000000000000aedac43bf468583ad93f04bb0aef0428bb2fc1c5"
          ],
          "data": "0x000000000000000000000000000000000000000000000000000012309ce54000",
          "blockHash": "0x42a0301da7225f6bd7d5a96ac9adfe059c62ce73940e788b1fcab339eb758e0a",
          "blockNumber": "0x654b0f5",
          "transactionHash": "0xa067c7f60d41d302f148f16b8297510fff1bef8db24e90565d4a2d2ed2f2d53e",
          "transactionIndex": "0x2",
          "logIndex": "0x3",
          "removed": false
        },
        {
          "address": "0x59c35bfc933bbe290f56207b0a24b988232414bb",
          "topics": [
            "0xddf252ad1be2c89b69c2b068fc378daa952ba7f163c4a11628f55a4df523b3ef",
            "0x0000000000000000000000000000000000000000000000000000000000000000",
            "0x000000000000000000000000aedac43bf468583ad93f04bb0aef0428bb2fc1c5"
          ],
          "data": "0x00000000000000000000000000000000000000000000000000000ebbdb3ed000",
          "blockHash": "0x42a0301da7225f6bd7d5a96ac9adfe059c62ce73940e788b1fcab339eb758e0a",
          "blockNumber": "0x654b0f5",
          "transactionHash": "0xa067c7f60d41d302f148f16b8297510fff1bef8db24e90565d4a2d2ed2f2d53e",
          "transactionIndex": "0x2",
          "logIndex": "0x4",
          "removed": false
        },
        {
          "address": "0x4332055e6753b19f4d58abf2bf984f73730cca52",
          "topics": [
            "0xddf252ad1be2c89b69c2b068fc378daa952ba7f163c4a11628f55a4df523b3ef",
            "0x0000000000000000000000000000000000000000000000000000000000000000",
            "0x000000000000000000000000aedac43bf468583ad93f04bb0aef0428bb2fc1c5"
          ],
          "data": "0x000000000000000000000000000000000000000000000000000012309ce54000",
          "blockHash": "0x42a0301da7225f6bd7d5a96ac9adfe059c62ce73940e788b1fcab339eb758e0a",
          "blockNumber": "0x654b0f5",
          "transactionHash": "0xa067c7f60d41d302f148f16b8297510fff1bef8db24e90565d4a2d2ed2f2d53e",
          "transactionIndex": "0x2",
          "logIndex": "0x5",
          "removed": false
        },
        {
          "address": "0x7c3da9528c295f381af0a3fc7fee8c22281ab8e8",
          "topics": [
            "0xddf252ad1be2c89b69c2b068fc378daa952ba7f163c4a11628f55a4df523b3ef",
            "0x0000000000000000000000000000000000000000000000000000000000000000",
            "0x000000000000000000000000aedac43bf468583ad93f04bb0aef0428bb2fc1c5"
          ],
          "data": "0x00000000000000000000000000000000000000000000000000000ebbdb3ed000",
          "blockHash": "0x42a0301da7225f6bd7d5a96ac9adfe059c62ce73940e788b1fcab339eb758e0a",
          "blockNumber": "0x654b0f5",
          "transactionHash": "0xa067c7f60d41d302f148f16b8297510fff1bef8db24e90565d4a2d2ed2f2d53e",
          "transactionIndex": "0x2",
          "logIndex": "0x6",
          "removed": false
        },
        {
          "address": "0x3e8c19079f4e21bebf76b2426d44f1c7dded273a",
          "topics": [
            "0xddf252ad1be2c89b69c2b068fc378daa952ba7f163c4a11628f55a4df523b3ef",
            "0x0000000000000000000000000000000000000000000000000000000000000000",
            "0x000000000000000000000000aedac43bf468583ad93f04bb0aef0428bb2fc1c5"
          ],
          "data": "0x000000000000000000000000000000000000000000000000000012309ce54000",
          "blockHash": "0x42a0301da7225f6bd7d5a96ac9adfe059c62ce73940e788b1fcab339eb758e0a",
          "blockNumber": "0x654b0f5",
          "transactionHash": "0xa067c7f60d41d302f148f16b8297510fff1bef8db24e90565d4a2d2ed2f2d53e",
          "transactionIndex": "0x2",
          "logIndex": "0x7",
          "removed": false
        },
        {
          "address": "0x7c3da9528c295f381af0a3fc7fee8c22281ab8e8",
          "topics": [
            "0xddf252ad1be2c89b69c2b068fc378daa952ba7f163c4a11628f55a4df523b3ef",
            "0x000000000000000000000000aedac43bf468583ad93f04bb0aef0428bb2fc1c5",
            "0x000000000000000000000000e080d1b17a67f96f865143269dc991cddb01d996"
          ],
          "data": "0x00000000000000000000000000000000000000000000000000000ebbdb3ed000",
          "blockHash": "0x42a0301da7225f6bd7d5a96ac9adfe059c62ce73940e788b1fcab339eb758e0a",
          "blockNumber": "0x654b0f5",
          "transactionHash": "0xa067c7f60d41d302f148f16b8297510fff1bef8db24e90565d4a2d2ed2f2d53e",
          "transactionIndex": "0x2",
          "logIndex": "0x8",
          "removed": false
        },
        {
          "address": "0x3e8c19079f4e21bebf76b2426d44f1c7dded273a",
          "topics": [
            "0xddf252ad1be2c89b69c2b068fc378daa952ba7f163c4a11628f55a4df523b3ef",
            "0x000000000000000000000000aedac43bf468583ad93f04bb0aef0428bb2fc1c5",
            "0x000000000000000000000000e080d1b17a67f96f865143269dc991cddb01d996"
          ],
          "data": "0x000000000000000000000000000000000000000000000000000012309ce54000",
          "blockHash": "0x42a0301da7225f6bd7d5a96ac9adfe059c62ce73940e788b1fcab339eb758e0a",
          "blockNumber": "0x654b0f5",
          "transactionHash": "0xa067c7f60d41d302f148f16b8297510fff1bef8db24e90565d4a2d2ed2f2d53e",
          "transactionIndex": "0x2",
          "logIndex": "0x9",
          "removed": false
        },
        {
          "address": "0xaedac43bf468583ad93f04bb0aef0428bb2fc1c5",
          "topics": [
            "0x41555d2844a59a3443e16b174167939c93659db407acb706642bfd24c7425e60",
            "0x000000000000000000000000e080d1b17a67f96f865143269dc991cddb01d996"
          ],
          "data": "0x000000000000000000000000000000000000000000000000000012309ce5400000000000000000000000000000000000000000000000000000000ebbdb3ed000000000000000000000000000000000000000000000000000000012309ce5400000000000000000000000000000000000000000000000000000000ebbdb3ed000000000000000000000000000000000000000000000000000000012309ce54000",
          "blockHash": "0x42a0301da7225f6bd7d5a96ac9adfe059c62ce73940e788b1fcab339eb758e0a",
          "blockNumber": "0x654b0f5",
          "transactionHash": "0xa067c7f60d41d302f148f16b8297510fff1bef8db24e90565d4a2d2ed2f2d53e",
          "transactionIndex": "0x2",
          "logIndex": "0xa",
          "removed": false
        },
        {
          "address": "0x7c3da9528c295f381af0a3fc7fee8c22281ab8e8",
          "topics": [
            "0xddf252ad1be2c89b69c2b068fc378daa952ba7f163c4a11628f55a4df523b3ef",
            "0x000000000000000000000000e080d1b17a67f96f865143269dc991cddb01d996",
            "0x000000000000000000000000e355d5d8aa52ef0fbbd037c4a3c5e6fd659cf46b"
          ],
          "data": "0x00000000000000000000000000000000000000000000000000000ebbdb3ed000",
          "blockHash": "0x42a0301da7225f6bd7d5a96ac9adfe059c62ce73940e788b1fcab339eb758e0a",
          "blockNumber": "0x654b0f5",
          "transactionHash": "0xa067c7f60d41d302f148f16b8297510fff1bef8db24e90565d4a2d2ed2f2d53e",
          "transactionIndex": "0x2",
          "logIndex": "0xb",
          "removed": false
        },
        {
          "address": "0x3e8c19079f4e21bebf76b2426d44f1c7dded273a",
          "topics": [
            "0xddf252ad1be2c89b69c2b068fc378daa952ba7f163c4a11628f55a4df523b3ef",
            "0x000000000000000000000000e080d1b17a67f96f865143269dc991cddb01d996",
            "0x000000000000000000000000e355d5d8aa52ef0fbbd037c4a3c5e6fd659cf46b"
          ],
          "data": "0x000000000000000000000000000000000000000000000000000012309ce54000",
          "blockHash": "0x42a0301da7225f6bd7d5a96ac9adfe059c62ce73940e788b1fcab339eb758e0a",
          "blockNumber": "0x654b0f5",
          "transactionHash": "0xa067c7f60d41d302f148f16b8297510fff1bef8db24e90565d4a2d2ed2f2d53e",
          "transactionIndex": "0x2",
          "logIndex": "0xc",
          "removed": false
        },
        {
          "address": "0xe080d1b17a67f96f865143269dc991cddb01d996",
          "topics": [
            "0x2c44d8394ff4c00656fbe852f8825ff1983b71f9b99207b795a8f3342e8d6ea4",
            "0x000000000000000000000000aedac43bf468583ad93f04bb0aef0428bb2fc1c5",
            "0x0000000000000000000000002129475b1b253a6d2ccfe3fda6b06319c6794982"
          ],
          "data": "0x000000000000000000000000e355d5d8aa52ef0fbbd037c4a3c5e6fd659cf46b000000000000000000000000e355d5d8aa52ef0fbbd037c4a3c5e6fd659cf46b000000000000000000000000000000000000000000000000000012309ce5400000000000000000000000000000000000000000000000000000000ebbdb3ed000000000000000000000000000000000000000000000000000000012309ce54000",
          "blockHash": "0x42a0301da7225f6bd7d5a96ac9adfe059c62ce73940e788b1fcab339eb758e0a",
          "blockNumber": "0x654b0f5",
          "transactionHash": "0xa067c7f60d41d302f148f16b8297510fff1bef8db24e90565d4a2d2ed2f2d53e",
          "transactionIndex": "0x2",
          "logIndex": "0xd",
          "removed": false
        }
      ],
      "logsBloom": "0x0000000000000100000000400000004200000000000020000080000000000000000000000000000010000000000000080000000100000100000000000020000000000000010000008000000800000000000a0000c0008000000000000020000000020000220000000000000000000800000000000000000000080010020000000000000000000000000000000000000200000000000000000000000000000000020000000000000000000000000020000000080002000000000000000000000000000002000000000000000000010000000000010000000000400000000020000010000080004028000000000000800000000000000000000001010008004200",
      "type": "0x2",
      "transactionHash": "0xa067c7f60d41d302f148f16b8297510fff1bef8db24e90565d4a2d2ed2f2d53e",
      "transactionIndex": "0x2",
      "blockHash": "0x42a0301da7225f6bd7d5a96ac9adfe059c62ce73940e788b1fcab339eb758e0a",
      "blockNumber": "0x654b0f5",
      "gasUsed": "0x6704c",
      "effectiveGasPrice": "0x5f5e100",
      "from": "0xe355d5d8aa52ef0fbbd037c4a3c5e6fd659cf46b",
      "to": "0xe080d1b17a67f96f865143269dc991cddb01d996",
      "contractAddress": null,
      "gasUsedForL1": "0x0",
      "l1BlockNumber": "0x6edaa9"
    }
  ],
  "libraries": [],
  "pending": [],
  "returns": {},
  "timestamp": 1734020814,
  "chain": 421614,
  "commit": "8170179"
}