{
  "transactions": [
    {
      "hash": "0x276b7e9b87434d09bf479f5a914009aca0172f2767472e40f3c2bc8ed3c8a644",
      "transactionType": "CALL",
      "contractName": null,
      "contractAddress": "0x645ef85b26a8ee16d4858725045900acab7de005",
      "function": "createOrder(address,uint256,address,((uint256,uint256,uint256)[],(uint256,uint256,uint256)[]))",
      "arguments": [
        "0xE355d5D8aa52EF0FbbD037C4a3C5E6Fd659cf46B",
        "200000000000",
        "0x0000000000000000000000000000000000000000",
        "([(0, 461683991532123062272, 33973665961), (9000000000, 425141100695200464896, 32237899859), (21000000000, 1072059478286836826112, 63540304430)], [(0, 330638754635872993280, 29116862443), (8000000000, 361237873939795017728, 30796362980), (20000000000, 826934466947518169088, 56854893632)])"
      ],
      "transaction": {
        "from": "0xe355d5d8aa52ef0fbbd037c4a3c5e6fd659cf46b",
        "to": "0x645ef85b26a8ee16d4858725045900acab7de005",
        "gas": "0x1076b6",
        "value": "0x0",
        "input": "0x31f750ac000000000000000000000000e355d5d8aa52ef0fbbd037c4a3c5e6fd659cf46b0000000000000000000000000000000000000000000000000000002e90edd000000000000000000000000000000000000000000000000000000000000000000000000000000000000000000000000000000000000000000000000000000000800000000000000000000000000000000000000000000000000000000000000040000000000000000000000000000000000000000000000000000000000000018000000000000000000000000000000000000000000000000000000000000000030000000000000000000000000000000000000000000000000000000000000000000000000000000000000000000000000000000000000019072708311ca6000000000000000000000000000000000000000000000000000000000007e8fd00a90000000000000000000000000000000000000000000000000000000218711a000000000000000000000000000000000000000000000000170c049a9694000000000000000000000000000000000000000000000000000000000000078187505300000000000000000000000000000000000000000000000000000004e3b2920000000000000000000000000000000000000000000000003a1dd05f7cc18200000000000000000000000000000000000000000000000000000000000ecb4c1a2e00000000000000000000000000000000000000000000000000000000000000030000000000000000000000000000000000000000000000000000000000000000000000000000000000000000000000000000000000000011ec88d38ac8c0000000000000000000000000000000000000000000000000000000000006c7800feb00000000000000000000000000000000000000000000000000000001dcd65000000000000000000000000000000000000000000000000013952ebc6d8ed20000000000000000000000000000000000000000000000000000000000072b9b34e400000000000000000000000000000000000000000000000000000004a817c80000000000000000000000000000000000000000000000002cd4056466f5d200000000000000000000000000000000000000000000000000000000000d3cd0d440",
        "nonce": "0x290",
        "chainId": "0x4268"
      },
      "additionalContracts": [
        {
          "transactionType": "CREATE",
          "address": "0xb17f9b1dfe6264645e09ce6090aabeda77e14830",
          "initCode": "0x3d602d80600a3d3981f3363d3d373d3d3d363d73453c095d8813578aedff7adc32dad8cac56930045af43d82803e903d91602b57fd5bf3"
        }
      ],
      "isFixedGasLimit": false
    }
  ],
  "receipts": [
    {
      "status": "0x1",
      "cumulativeGasUsed": "0x1c52b58",
      "logs": [
        {
          "address": "0xb17f9b1dfe6264645e09ce6090aabeda77e14830",
          "topics": [
            "0x8be0079c531659141344cd1fd0a4f28419497f9722a3daafe3b4186f6b6457e0",
            "0x0000000000000000000000000000000000000000000000000000000000000000",
            "0x000000000000000000000000e355d5d8aa52ef0fbbd037c4a3c5e6fd659cf46b"
          ],
          "data": "0x",
          "blockHash": "0x6debd8d67df5d0de8bfa50800a2b86f233cfc6ad9901273da5930efa8f3c0234",
          "blockNumber": "0x30f997",
          "blockTimestamp": "0x67936ae8",
          "transactionHash": "0x276b7e9b87434d09bf479f5a914009aca0172f2767472e40f3c2bc8ed3c8a644",
          "transactionIndex": "0x33",
          "logIndex": "0x145",
          "removed": false
        },
        {
          "address": "0xb17f9b1dfe6264645e09ce6090aabeda77e14830",
          "topics": [
            "0xe64b95f50ea8acc0f656cc87627f4d1c9a411cb8d20895e3b3d9e5c39aa7f4d8",
            "0x000000000000000000000000645ef85b26a8ee16d4858725045900acab7de005",
            "0x000000000000000000000000e355d5d8aa52ef0fbbd037c4a3c5e6fd659cf46b"
          ],
          "data": "0x0000000000000000000000000000000000000000000000000000002e90edd000000000000000000000000000000000000000000000000000000000000000000000000000000000000000000000000000000000000000000000000000000000600000000000000000000000000000000000000000000000000000000000000040000000000000000000000000000000000000000000000000000000000000018000000000000000000000000000000000000000000000000000000000000000030000000000000000000000000000000000000000000000000000000000000000000000000000000000000000000000000000000000000019072708311ca6000000000000000000000000000000000000000000000000000000000007e8fd00a90000000000000000000000000000000000000000000000000000000218711a000000000000000000000000000000000000000000000000170c049a9694000000000000000000000000000000000000000000000000000000000000078187505300000000000000000000000000000000000000000000000000000004e3b2920000000000000000000000000000000000000000000000003a1dd05f7cc18200000000000000000000000000000000000000000000000000000000000ecb4c1a2e00000000000000000000000000000000000000000000000000000000000000030000000000000000000000000000000000000000000000000000000000000000000000000000000000000000000000000000000000000011ec88d38ac8c0000000000000000000000000000000000000000000000000000000000006c7800feb00000000000000000000000000000000000000000000000000000001dcd65000000000000000000000000000000000000000000000000013952ebc6d8ed20000000000000000000000000000000000000000000000000000000000072b9b34e400000000000000000000000000000000000000000000000000000004a817c80000000000000000000000000000000000000000000000002cd4056466f5d200000000000000000000000000000000000000000000000000000000000d3cd0d440",
          "blockHash": "0x6debd8d67df5d0de8bfa50800a2b86f233cfc6ad9901273da5930efa8f3c0234",
          "blockNumber": "0x30f997",
          "blockTimestamp": "0x67936ae8",
          "transactionHash": "0x276b7e9b87434d09bf479f5a914009aca0172f2767472e40f3c2bc8ed3c8a644",
          "transactionIndex": "0x33",
          "logIndex": "0x146",
          "removed": false
        },
        {
          "address": "0xb17f9b1dfe6264645e09ce6090aabeda77e14830",
          "topics": [
            "0xc7f505b2f371ae2175ee4913f4499e1f2633a7b5936321eed1cdaeb6115181d2"
          ],
          "data": "0x0000000000000000000000000000000000000000000000000000000000000001",
          "blockHash": "0x6debd8d67df5d0de8bfa50800a2b86f233cfc6ad9901273da5930efa8f3c0234",
          "blockNumber": "0x30f997",
          "blockTimestamp": "0x67936ae8",
          "transactionHash": "0x276b7e9b87434d09bf479f5a914009aca0172f2767472e40f3c2bc8ed3c8a644",
          "transactionIndex": "0x33",
          "logIndex": "0x147",
          "removed": false
        },
        {
          "address": "0x645ef85b26a8ee16d4858725045900acab7de005",
          "topics": [
            "0xd736aee681a6a9c77bb981212f26edcfdfc58eddbb8a6db63b9863ae286f9906",
            "0x000000000000000000000000e355d5d8aa52ef0fbbd037c4a3c5e6fd659cf46b",
            "0x000000000000000000000000b17f9b1dfe6264645e09ce6090aabeda77e14830"
          ],
          "data": "0x",
          "blockHash": "0x6debd8d67df5d0de8bfa50800a2b86f233cfc6ad9901273da5930efa8f3c0234",
          "blockNumber": "0x30f997",
          "blockTimestamp": "0x67936ae8",
          "transactionHash": "0x276b7e9b87434d09bf479f5a914009aca0172f2767472e40f3c2bc8ed3c8a644",
          "transactionIndex": "0x33",
          "logIndex": "0x148",
          "removed": false
        }
      ],
      "logsBloom": "0x00000000001000000000000000000000040000000000000000801000000000000000000000008000200000000000000002000000000020000000000002000000000000000000000000000000000000000001000000000000000000000000000000000000020000000000000000000800000000000000080000000000000000400000000000000000000800000000000200000000000081000000000000000000000000000000000000000000000000000000000000000000000000000000010000000000404004000000000000000000000000000004000000000000000020048000000000000020000000000100000000000000000040000000000000004000",
      "type": "0x2",
      "transactionHash": "0x276b7e9b87434d09bf479f5a914009aca0172f2767472e40f3c2bc8ed3c8a644",
      "transactionIndex": "0x33",
      "blockHash": "0x6debd8d67df5d0de8bfa50800a2b86f233cfc6ad9901273da5930efa8f3c0234",
      "blockNumber": "0x30f997",
      "gasUsed": "0xbeb60",
      "effectiveGasPrice": "0xf426a",
      "from": "0xe355d5d8aa52ef0fbbd037c4a3c5e6fd659cf46b",
      "to": "0x645ef85b26a8ee16d4858725045900acab7de005",
      "contractAddress": null
    }
  ],
  "libraries": [],
  "pending": [],
  "returns": {},
  "timestamp": 1737714414,
  "chain": 17000,
  "commit": "4509766"
}