{
  "transactions": [
    {
      "hash": "0xfce2b33c79f316cbc1b899f35af949a8ffc6792beea8989c15f3b3c5e88300eb",
      "transactionType": "CALL",
      "contractName": null,
      "contractAddress": "0xd0586b5a5f97347c769983c404348346fe26f38e",
      "function": "createOrder(address,uint256,address,((uint256,uint256,int256)[],(uint256,uint256,int256)[]))",
      "arguments": [
        "0xE355d5D8aa52EF0FbbD037C4a3C5E6Fd659cf46B",
        "200000000000",
        "0x0000000000000000000000000000000000000000",
        "([(0, 461683991532123062272, 33973665961), (9000000000, 425141100695200464896, 32237899859), (21000000000, 1072059478286836826112, 63540304430)], [(0, 330638754635872993280, 29116862443), (8000000000, 361237873939795017728, 30796362980), (20000000000, 826934466947518169088, 56854893632)])"
      ],
      "transaction": {
        "from": "0xe355d5d8aa52ef0fbbd037c4a3c5e6fd659cf46b",
        "to": "0xd0586b5a5f97347c769983c404348346fe26f38e",
        "gas": "0x106ded",
        "value": "0x0",
        "input": "0x887bb989000000000000000000000000e355d5d8aa52ef0fbbd037c4a3c5e6fd659cf46b0000000000000000000000000000000000000000000000000000002e90edd000000000000000000000000000000000000000000000000000000000000000000000000000000000000000000000000000000000000000000000000000000000800000000000000000000000000000000000000000000000000000000000000040000000000000000000000000000000000000000000000000000000000000018000000000000000000000000000000000000000000000000000000000000000030000000000000000000000000000000000000000000000000000000000000000000000000000000000000000000000000000000000000019072708311ca6000000000000000000000000000000000000000000000000000000000007e8fd00a90000000000000000000000000000000000000000000000000000000218711a000000000000000000000000000000000000000000000000170c049a9694000000000000000000000000000000000000000000000000000000000000078187505300000000000000000000000000000000000000000000000000000004e3b2920000000000000000000000000000000000000000000000003a1dd05f7cc18200000000000000000000000000000000000000000000000000000000000ecb4c1a2e00000000000000000000000000000000000000000000000000000000000000030000000000000000000000000000000000000000000000000000000000000000000000000000000000000000000000000000000000000011ec88d38ac8c0000000000000000000000000000000000000000000000000000000000006c7800feb00000000000000000000000000000000000000000000000000000001dcd65000000000000000000000000000000000000000000000000013952ebc6d8ed20000000000000000000000000000000000000000000000000000000000072b9b34e400000000000000000000000000000000000000000000000000000004a817c80000000000000000000000000000000000000000000000002cd4056466f5d200000000000000000000000000000000000000000000000000000000000d3cd0d440",
        "nonce": "0x580",
        "chainId": "0x4268"
      },
      "additionalContracts": [
        {
          "transactionType": "CREATE",
          "address": "0x550a95c76a929635e7836cbef401c378485f4422",
          "initCode": "0x3d602d80600a3d3981f3363d3d373d3d3d363d7364027e2576a49b1dbfae9c4eb6744b2f463a5f425af43d82803e903d91602b57fd5bf3"
        }
      ],
      "isFixedGasLimit": false
    }
  ],
  "receipts": [
    {
      "status": "0x1",
      "cumulativeGasUsed": "0x1ecbaac",
      "logs": [
        {
          "address": "0x550a95c76a929635e7836cbef401c378485f4422",
          "topics": [
            "0x8be0079c531659141344cd1fd0a4f28419497f9722a3daafe3b4186f6b6457e0",
            "0x0000000000000000000000000000000000000000000000000000000000000000",
            "0x000000000000000000000000e355d5d8aa52ef0fbbd037c4a3c5e6fd659cf46b"
          ],
          "data": "0x",
          "blockHash": "0xe7ec28574ac2fae712f2cae949ba54dda3019893deffdd25b37fa727822224a7",
          "blockNumber": "0x3306d0",
          "blockTimestamp": "0x67addde8",
          "transactionHash": "0xfce2b33c79f316cbc1b899f35af949a8ffc6792beea8989c15f3b3c5e88300eb",
          "transactionIndex": "0x17",
          "logIndex": "0xff",
          "removed": false
        },
        {
          "address": "0x550a95c76a929635e7836cbef401c378485f4422",
          "topics": [
            "0x5b98838f82c5c1c4450b26a178139efd0d7de9255ccf83ba4d2ccec8023ead80",
            "0x000000000000000000000000d0586b5a5f97347c769983c404348346fe26f38e",
            "0x000000000000000000000000e355d5d8aa52ef0fbbd037c4a3c5e6fd659cf46b"
          ],
          "data": "0x0000000000000000000000000000000000000000000000000000002e90edd000000000000000000000000000000000000000000000000000000000000000000000000000000000000000000000000000000000000000000000000000000000600000000000000000000000000000000000000000000000000000000000000040000000000000000000000000000000000000000000000000000000000000018000000000000000000000000000000000000000000000000000000000000000030000000000000000000000000000000000000000000000000000000000000000000000000000000000000000000000000000000000000019072708311ca6000000000000000000000000000000000000000000000000000000000007e8fd00a90000000000000000000000000000000000000000000000000000000218711a000000000000000000000000000000000000000000000000170c049a9694000000000000000000000000000000000000000000000000000000000000078187505300000000000000000000000000000000000000000000000000000004e3b2920000000000000000000000000000000000000000000000003a1dd05f7cc18200000000000000000000000000000000000000000000000000000000000ecb4c1a2e00000000000000000000000000000000000000000000000000000000000000030000000000000000000000000000000000000000000000000000000000000000000000000000000000000000000000000000000000000011ec88d38ac8c0000000000000000000000000000000000000000000000000000000000006c7800feb00000000000000000000000000000000000000000000000000000001dcd65000000000000000000000000000000000000000000000000013952ebc6d8ed20000000000000000000000000000000000000000000000000000000000072b9b34e400000000000000000000000000000000000000000000000000000004a817c80000000000000000000000000000000000000000000000002cd4056466f5d200000000000000000000000000000000000000000000000000000000000d3cd0d440",
          "blockHash": "0xe7ec28574ac2fae712f2cae949ba54dda3019893deffdd25b37fa727822224a7",
          "blockNumber": "0x3306d0",
          "blockTimestamp": "0x67addde8",
          "transactionHash": "0xfce2b33c79f316cbc1b899f35af949a8ffc6792beea8989c15f3b3c5e88300eb",
          "transactionIndex": "0x17",
          "logIndex": "0x100",
          "removed": false
        },
        {
          "address": "0x550a95c76a929635e7836cbef401c378485f4422",
          "topics": [
            "0xc7f505b2f371ae2175ee4913f4499e1f2633a7b5936321eed1cdaeb6115181d2"
          ],
          "data": "0x0000000000000000000000000000000000000000000000000000000000000001",
          "blockHash": "0xe7ec28574ac2fae712f2cae949ba54dda3019893deffdd25b37fa727822224a7",
          "blockNumber": "0x3306d0",
          "blockTimestamp": "0x67addde8",
          "transactionHash": "0xfce2b33c79f316cbc1b899f35af949a8ffc6792beea8989c15f3b3c5e88300eb",
          "transactionIndex": "0x17",
          "logIndex": "0x101",
          "removed": false
        },
        {
          "address": "0xd0586b5a5f97347c769983c404348346fe26f38e",
          "topics": [
            "0xd736aee681a6a9c77bb981212f26edcfdfc58eddbb8a6db63b9863ae286f9906",
            "0x000000000000000000000000e355d5d8aa52ef0fbbd037c4a3c5e6fd659cf46b",
            "0x000000000000000000000000550a95c76a929635e7836cbef401c378485f4422"
          ],
          "data": "0x",
          "blockHash": "0xe7ec28574ac2fae712f2cae949ba54dda3019893deffdd25b37fa727822224a7",
          "blockNumber": "0x3306d0",
          "blockTimestamp": "0x67addde8",
          "transactionHash": "0xfce2b33c79f316cbc1b899f35af949a8ffc6792beea8989c15f3b3c5e88300eb",
          "transactionIndex": "0x17",
          "logIndex": "0x102",
          "removed": false
        }
      ],
      "logsBloom": "0x00000000000000000000000000000000000000000800000000800000000000000000000800000000000000002000000000000000000020000000002002000000000000000000000000000000000000000101000000000000000000000000000000000000020000000000000000000800000000000000000000000000000000400000004000000000000800000000000200840000000080000000000000000000000000000010000000000000000000000004000010000200000000400000000000000000000004000000000000000000000000000004000000000000000020000000000000000020080000001000000000000000000000000000000000004000",
      "type": "0x2",
      "transactionHash": "0xfce2b33c79f316cbc1b899f35af949a8ffc6792beea8989c15f3b3c5e88300eb",
      "transactionIndex": "0x17",
      "blockHash": "0xe7ec28574ac2fae712f2cae949ba54dda3019893deffdd25b37fa727822224a7",
      "blockNumber": "0x3306d0",
      "gasUsed": "0xbe504",
      "effectiveGasPrice": "0xf424f",
      "from": "0xe355d5d8aa52ef0fbbd037c4a3c5e6fd659cf46b",
      "to": "0xd0586b5a5f97347c769983c404348346fe26f38e",
      "contractAddress": null
    }
  ],
  "libraries": [],
  "pending": [],
  "returns": {},
  "timestamp": 1739447788,
  "chain": 17000,
  "commit": "ffaadb8"
}