{
  "transactions": [
    {
      "hash": "0xaa456d99f9e5a3d185d6228eb6d4d7c3393d72a38397d27c251e22c57f39f282",
      "transactionType": "CALL",
      "contractName": null,
      "contractAddress": "0x0d5168ae17e62b42ed85dd8cc35da7913ec41dd6",
      "function": "createOrder(address,uint256,address,((uint256,uint256,uint256)[],(uint256,uint256,uint256)[]))",
      "arguments": [
        "0xE355d5D8aa52EF0FbbD037C4a3C5E6Fd659cf46B",
        "200000000000",
        "0x0000000000000000000000000000000000000000",
        "([(0, 461683991532123062272, 33973665961), (9000000000, 425141100695200464896, 32237900077), (21000000000, 1072059478286836826112, 63540305112)], [(0, 330638754635872993280, 29116862443), (8000000000, 361237873939795017728, 30796363335), (20000000000, 826934466947518169088, 56854894208)])"
      ],
      "transaction": {
        "from": "0xe355d5d8aa52ef0fbbd037c4a3c5e6fd659cf46b",
        "to": "0x0d5168ae17e62b42ed85dd8cc35da7913ec41dd6",
        "gas": "0x1037fa",
        "value": "0x0",
        "input": "0x31f750ac000000000000000000000000e355d5d8aa52ef0fbbd037c4a3c5e6fd659cf46b0000000000000000000000000000000000000000000000000000002e90edd000000000000000000000000000000000000000000000000000000000000000000000000000000000000000000000000000000000000000000000000000000000800000000000000000000000000000000000000000000000000000000000000040000000000000000000000000000000000000000000000000000000000000018000000000000000000000000000000000000000000000000000000000000000030000000000000000000000000000000000000000000000000000000000000000000000000000000000000000000000000000000000000019072708311ca6000000000000000000000000000000000000000000000000000000000007e8fd00a90000000000000000000000000000000000000000000000000000000218711a000000000000000000000000000000000000000000000000170c049a9694000000000000000000000000000000000000000000000000000000000000078187512d00000000000000000000000000000000000000000000000000000004e3b2920000000000000000000000000000000000000000000000003a1dd05f7cc18200000000000000000000000000000000000000000000000000000000000ecb4c1cd800000000000000000000000000000000000000000000000000000000000000030000000000000000000000000000000000000000000000000000000000000000000000000000000000000000000000000000000000000011ec88d38ac8c0000000000000000000000000000000000000000000000000000000000006c7800feb00000000000000000000000000000000000000000000000000000001dcd65000000000000000000000000000000000000000000000000013952ebc6d8ed20000000000000000000000000000000000000000000000000000000000072b9b364700000000000000000000000000000000000000000000000000000004a817c80000000000000000000000000000000000000000000000002cd4056466f5d200000000000000000000000000000000000000000000000000000000000d3cd0d680",
        "nonce": "0x279",
        "chainId": "0x4268"
      },
      "additionalContracts": [
        {
          "transactionType": "CREATE",
          "address": "0x20fc1552744d7726827d69248c6cb9733a70fa1c",
          "initCode": "0x3d602d80600a3d3981f3363d3d373d3d3d363d73efb52d4e9252a2a3469ed09b5527dfb74375c11a5af43d82803e903d91602b57fd5bf3"
        }
      ],
      "isFixedGasLimit": false
    }
  ],
  "receipts": [
    {
      "status": "0x1",
      "cumulativeGasUsed": "0x3beaeb",
      "logs": [
        {
          "address": "0x20fc1552744d7726827d69248c6cb9733a70fa1c",
          "topics": [
            "0x8be0079c531659141344cd1fd0a4f28419497f9722a3daafe3b4186f6b6457e0",
            "0x0000000000000000000000000000000000000000000000000000000000000000",
            "0x000000000000000000000000e355d5d8aa52ef0fbbd037c4a3c5e6fd659cf46b"
          ],
          "data": "0x",
          "blockHash": "0x2519bb3535030789fc2013d31979f05156f2e4f2138108ca0468745d6498b522",
          "blockNumber": "0x30b1ce",
          "blockTimestamp": "0x678fc2dc",
          "transactionHash": "0xaa456d99f9e5a3d185d6228eb6d4d7c3393d72a38397d27c251e22c57f39f282",
          "transactionIndex": "0x15",
          "logIndex": "0x2f",
          "removed": false
        },
        {
          "address": "0x20fc1552744d7726827d69248c6cb9733a70fa1c",
          "topics": [
            "0xe64b95f50ea8acc0f656cc87627f4d1c9a411cb8d20895e3b3d9e5c39aa7f4d8",
            "0x0000000000000000000000000d5168ae17e62b42ed85dd8cc35da7913ec41dd6",
            "0x000000000000000000000000e355d5d8aa52ef0fbbd037c4a3c5e6fd659cf46b"
          ],
          "data": "0x0000000000000000000000000000000000000000000000000000002e90edd000000000000000000000000000000000000000000000000000000000000000000000000000000000000000000000000000000000000000000000000000000000600000000000000000000000000000000000000000000000000000000000000040000000000000000000000000000000000000000000000000000000000000018000000000000000000000000000000000000000000000000000000000000000030000000000000000000000000000000000000000000000000000000000000000000000000000000000000000000000000000000000000019072708311ca6000000000000000000000000000000000000000000000000000000000007e8fd00a90000000000000000000000000000000000000000000000000000000218711a000000000000000000000000000000000000000000000000170c049a9694000000000000000000000000000000000000000000000000000000000000078187512d00000000000000000000000000000000000000000000000000000004e3b2920000000000000000000000000000000000000000000000003a1dd05f7cc18200000000000000000000000000000000000000000000000000000000000ecb4c1cd800000000000000000000000000000000000000000000000000000000000000030000000000000000000000000000000000000000000000000000000000000000000000000000000000000000000000000000000000000011ec88d38ac8c0000000000000000000000000000000000000000000000000000000000006c7800feb00000000000000000000000000000000000000000000000000000001dcd65000000000000000000000000000000000000000000000000013952ebc6d8ed20000000000000000000000000000000000000000000000000000000000072b9b364700000000000000000000000000000000000000000000000000000004a817c80000000000000000000000000000000000000000000000002cd4056466f5d200000000000000000000000000000000000000000000000000000000000d3cd0d680",
          "blockHash": "0x2519bb3535030789fc2013d31979f05156f2e4f2138108ca0468745d6498b522",
          "blockNumber": "0x30b1ce",
          "blockTimestamp": "0x678fc2dc",
          "transactionHash": "0xaa456d99f9e5a3d185d6228eb6d4d7c3393d72a38397d27c251e22c57f39f282",
          "transactionIndex": "0x15",
          "logIndex": "0x30",
          "removed": false
        },
        {
          "address": "0x20fc1552744d7726827d69248c6cb9733a70fa1c",
          "topics": [
            "0xc7f505b2f371ae2175ee4913f4499e1f2633a7b5936321eed1cdaeb6115181d2"
          ],
          "data": "0x0000000000000000000000000000000000000000000000000000000000000001",
          "blockHash": "0x2519bb3535030789fc2013d31979f05156f2e4f2138108ca0468745d6498b522",
          "blockNumber": "0x30b1ce",
          "blockTimestamp": "0x678fc2dc",
          "transactionHash": "0xaa456d99f9e5a3d185d6228eb6d4d7c3393d72a38397d27c251e22c57f39f282",
          "transactionIndex": "0x15",
          "logIndex": "0x31",
          "removed": false
        },
        {
          "address": "0x0d5168ae17e62b42ed85dd8cc35da7913ec41dd6",
          "topics": [
            "0xd736aee681a6a9c77bb981212f26edcfdfc58eddbb8a6db63b9863ae286f9906",
            "0x000000000000000000000000e355d5d8aa52ef0fbbd037c4a3c5e6fd659cf46b",
            "0x00000000000000000000000020fc1552744d7726827d69248c6cb9733a70fa1c"
          ],
          "data": "0x",
          "blockHash": "0x2519bb3535030789fc2013d31979f05156f2e4f2138108ca0468745d6498b522",
          "blockNumber": "0x30b1ce",
          "blockTimestamp": "0x678fc2dc",
          "transactionHash": "0xaa456d99f9e5a3d185d6228eb6d4d7c3393d72a38397d27c251e22c57f39f282",
          "transactionIndex": "0x15",
          "logIndex": "0x32",
          "removed": false
        }
      ],
      "logsBloom": "0x00000000000000000000000000000000000000000000000000800000000000000000000000048000000000000000020000000000020020000000000002000000000000020000000000000800000000000001000000000000000000000100000000000000020000000000000000000800000000000000000000000000000000400000000000020000000800000000000200000000000080000000000000000000000000000000000000000000000000000000000000000000000000000000000000000000100084000000000000000000000000000004000004000000000020008000020000000020000080000100000000000000000000000000000000004000",
      "type": "0x2",
      "transactionHash": "0xaa456d99f9e5a3d185d6228eb6d4d7c3393d72a38397d27c251e22c57f39f282",
      "transactionIndex": "0x15",
      "blockHash": "0x2519bb3535030789fc2013d31979f05156f2e4f2138108ca0468745d6498b522",
      "blockNumber": "0x30b1ce",
      "gasUsed": "0xbbdf5",
      "effectiveGasPrice": "0x10db71",
      "from": "0xe355d5d8aa52ef0fbbd037c4a3c5e6fd659cf46b",
      "to": "0x0d5168ae17e62b42ed85dd8cc35da7913ec41dd6",
      "contractAddress": null
    }
  ],
  "libraries": [],
  "pending": [],
  "returns": {},
  "timestamp": 1737474783,
  "chain": 17000,
  "commit": "0b13d63"
}