{
  "transactions": [
    {
      "hash": "0x9b5a709d81d3747d3b9beb8098b5acee361cfed23ee9137a6752ca5d37a1adf8",
      "transactionType": "CALL",
      "contractName": null,
      "contractAddress": "0x753adc51cb6c70156a9e775ac56b40523920b532",
      "function": null,
      "arguments": null,
      "transaction": {
        "from": "0xe355d5d8aa52ef0fbbd037c4a3c5e6fd659cf46b",
        "to": "0x753adc51cb6c70156a9e775ac56b40523920b532",
        "gas": "0x714d",
        "value": "0x16345785d8a0000",
        "input": "0x",
        "nonce": "0x2e3",
        "chainId": "0x4268"
      },
      "additionalContracts": [],
      "isFixedGasLimit": false
    },
    {
      "hash": "0xae2209e047c1b45767db845ba92ec81e8b280605d44606ecea74f3a99bee238f",
      "transactionType": "CALL",
      "contractName": null,
      "contractAddress": "0x5ada709210846da33e3866490eafb90b7ea96f7f",
      "function": "devMint(address,address,uint256)",
      "arguments": [
        "0xE355d5D8aa52EF0FbbD037C4a3C5E6Fd659cf46B",
        "0x9445Ba66bBDd3Cdd48f9077536a05292f2C6D253",
        "100000000000"
      ],
      "transaction": {
        "from": "0xe355d5d8aa52ef0fbbd037c4a3c5e6fd659cf46b",
        "to": "0x5ada709210846da33e3866490eafb90b7ea96f7f",
        "gas": "0xe2ed",
        "value": "0x0",
        "input": "0x40ddd06e000000000000000000000000e355d5d8aa52ef0fbbd037c4a3c5e6fd659cf46b0000000000000000000000009445ba66bbdd3cdd48f9077536a05292f2c6d253000000000000000000000000000000000000000000000000000000174876e800",
        "nonce": "0x2e4",
        "chainId": "0x4268"
      },
      "additionalContracts": [],
      "isFixedGasLimit": false
    },
    {
      "hash": "0x339092341f3ed4d796d67b88c5b707a6fffdc4122ee80edbaa390bb5c9144f0d",
      "transactionType": "CALL",
      "contractName": null,
      "contractAddress": "0x9445ba66bbdd3cdd48f9077536a05292f2c6d253",
      "function": "approve(address,uint256)",
      "arguments": [
        "0x645ef85B26A8eE16D4858725045900ACAb7DE005",
        "100000000000"
      ],
      "transaction": {
        "from": "0xe355d5d8aa52ef0fbbd037c4a3c5e6fd659cf46b",
        "to": "0x9445ba66bbdd3cdd48f9077536a05292f2c6d253",
        "gas": "0x10657",
        "value": "0x0",
        "input": "0x095ea7b3000000000000000000000000645ef85b26a8ee16d4858725045900acab7de005000000000000000000000000000000000000000000000000000000174876e800",
        "nonce": "0x2e5",
        "chainId": "0x4268"
      },
      "additionalContracts": [],
      "isFixedGasLimit": false
    },
    {
      "hash": "0xd65f6a58a3ce0fd8be97f61ad197bad3b3fe73127acbc047a0696b3790496ce6",
      "transactionType": "CALL",
      "contractName": null,
      "contractAddress": "0x645ef85b26a8ee16d4858725045900acab7de005",
      "function": "mint(address,uint256)",
      "arguments": [
        "0x031FEcF98032Ab1B2601B32cD9487B1AaBAE573C",
        "100000000000"
      ],
      "transaction": {
        "from": "0xe355d5d8aa52ef0fbbd037c4a3c5e6fd659cf46b",
        "to": "0x645ef85b26a8ee16d4858725045900acab7de005",
        "gas": "0x1edeb",
        "value": "0x0",
        "input": "0x40c10f19000000000000000000000000031fecf98032ab1b2601b32cd9487b1aabae573c000000000000000000000000000000000000000000000000000000174876e800",
        "nonce": "0x2e6",
        "chainId": "0x4268"
      },
      "additionalContracts": [],
      "isFixedGasLimit": false
    },
    {
      "hash": "0x0f30d7e29a6027242a97adf1454ec7dd3e88376be84e46773d2c8b9b723ed156",
      "transactionType": "CALL",
      "contractName": null,
      "contractAddress": "0x5ada709210846da33e3866490eafb90b7ea96f7f",
      "function": "devMint(address,address,uint256)",
      "arguments": [
        "0x753aDC51cB6C70156a9e775Ac56B40523920B532",
        "0x9445Ba66bBDd3Cdd48f9077536a05292f2C6D253",
        "21504000000"
      ],
      "transaction": {
        "from": "0xe355d5d8aa52ef0fbbd037c4a3c5e6fd659cf46b",
        "to": "0x5ada709210846da33e3866490eafb90b7ea96f7f",
        "gas": "0xd640",
        "value": "0x0",
        "input": "0x40ddd06e000000000000000000000000753adc51cb6c70156a9e775ac56b40523920b5320000000000000000000000009445ba66bbdd3cdd48f9077536a05292f2c6d2530000000000000000000000000000000000000000000000000000000501bd0000",
        "nonce": "0x2e7",
        "chainId": "0x4268"
      },
      "additionalContracts": [],
      "isFixedGasLimit": false
    },
    {
      "hash": "0xfa2ff5f4a94a70d948ea81be9fb4ca417470d5d50788f5c9fab6048c2742bf90",
      "transactionType": "CALL",
      "contractName": null,
      "contractAddress": "0x5ada709210846da33e3866490eafb90b7ea96f7f",
      "function": "devMint(address,address,uint256)",
      "arguments": [
        "0x753aDC51cB6C70156a9e775Ac56B40523920B532",
        "0x74E0709B2007bD0bEDE3E1c227088239a4dF51f9",
        "12100000000000000000000"
      ],
      "transaction": {
        "from": "0xe355d5d8aa52ef0fbbd037c4a3c5e6fd659cf46b",
        "to": "0x5ada709210846da33e3866490eafb90b7ea96f7f",
        "gas": "0xe333",
        "value": "0x0",
        "input": "0x40ddd06e000000000000000000000000753adc51cb6c70156a9e775ac56b40523920b53200000000000000000000000074e0709b2007bd0bede3e1c227088239a4df51f900000000000000000000000000000000000000000000028ff13b8373d2900000",
        "nonce": "0x2e8",
        "chainId": "0x4268"
      },
      "additionalContracts": [],
      "isFixedGasLimit": false
    },
    {
      "hash": "0x2950e34523bfcd77f657c1b06e54f4c90eeabb5278257e0585a11fba6cbf7612",
      "transactionType": "CALL",
      "contractName": null,
      "contractAddress": "0x9445ba66bbdd3cdd48f9077536a05292f2c6d253",
      "function": "approve(address,uint256)",
      "arguments": [
        "0x031FEcF98032Ab1B2601B32cD9487B1AaBAE573C",
        "1000000000"
      ],
      "transaction": {
        "from": "0x753adc51cb6c70156a9e775ac56b40523920b532",
        "to": "0x9445ba66bbdd3cdd48f9077536a05292f2c6d253",
        "gas": "0x10657",
        "value": "0x0",
        "input": "0x095ea7b3000000000000000000000000031fecf98032ab1b2601b32cd9487b1aabae573c000000000000000000000000000000000000000000000000000000003b9aca00",
        "nonce": "0x0",
        "chainId": "0x4268"
      },
      "additionalContracts": [],
      "isFixedGasLimit": false
    },
    {
      "hash": "0x49d5d07fe1ed4ffd9ae2f550e344b536c7ffa77b6b8c162107e1f7f0680f4503",
      "transactionType": "CALL",
      "contractName": null,
      "contractAddress": "0x031fecf98032ab1b2601b32cd9487b1aabae573c",
      "function": "swapExactTokenToToken(address,address,address,uint128,uint128)",
      "arguments": [
        "0x9445Ba66bBDd3Cdd48f9077536a05292f2C6D253",
        "0xaAf7c47b8f06d2532EecA6Cb4D89bf1487808D33",
        "0x753aDC51cB6C70156a9e775Ac56B40523920B532",
        "1000000000",
        "0"
      ],
      "transaction": {
        "from": "0x753adc51cb6c70156a9e775ac56b40523920b532",
        "to": "0x031fecf98032ab1b2601b32cd9487b1aabae573c",
        "gas": "0x52397",
        "value": "0x0",
        "input": "0x5d26439a0000000000000000000000009445ba66bbdd3cdd48f9077536a05292f2c6d253000000000000000000000000aaf7c47b8f06d2532eeca6cb4d89bf1487808d33000000000000000000000000753adc51cb6c70156a9e775ac56b40523920b532000000000000000000000000000000000000000000000000000000003b9aca000000000000000000000000000000000000000000000000000000000000000000",
        "nonce": "0x1",
        "chainId": "0x4268"
      },
      "additionalContracts": [],
      "isFixedGasLimit": false
    },
    {
      "hash": "0x4ab9e8c062e5b359f3e9a85776f6e14425d435757cc7b4ada6ae85253db0c17f",
      "transactionType": "CALL",
      "contractName": null,
      "contractAddress": "0x74e0709b2007bd0bede3e1c227088239a4df51f9",
      "function": "approve(address,uint256)",
      "arguments": [
        "0x959D4521BD48B6487D415Aad576Af2222ADB1a92",
        "12000000000000000000000"
      ],
      "transaction": {
        "from": "0x753adc51cb6c70156a9e775ac56b40523920b532",
        "to": "0x74e0709b2007bd0bede3e1c227088239a4df51f9",
        "gas": "0xf816",
        "value": "0x0",
        "input": "0x095ea7b3000000000000000000000000959d4521bd48b6487d415aad576af2222adb1a9200000000000000000000000000000000000000000000028a857425466f800000",
        "nonce": "0x2",
        "chainId": "0x4268"
      },
      "additionalContracts": [],
      "isFixedGasLimit": false
    },
    {
      "hash": "0x4806a936894cd552de68f98f38a8790555d826f46f34f1a46971874c26fcbf54",
      "transactionType": "CALL",
      "contractName": null,
      "contractAddress": "0x959d4521bd48b6487d415aad576af2222adb1a92",
      "function": "borrowTokenFromCollateral(address,address,uint256,address[],uint128[],uint128)",
      "arguments": [
        "0x753aDC51cB6C70156a9e775Ac56B40523920B532",
        "0x645ef85B26A8eE16D4858725045900ACAb7DE005",
        "12000000000000000000000",
        "[0x031FEcF98032Ab1B2601B32cD9487B1AaBAE573C]",
        "[8000000000]",
        "8500000000"
      ],
      "transaction": {
        "from": "0x753adc51cb6c70156a9e775ac56b40523920b532",
        "to": "0x959d4521bd48b6487d415aad576af2222adb1a92",
        "gas": "0xdde96",
        "value": "0x0",
        "input": "0xc82e738b000000000000000000000000753adc51cb6c70156a9e775ac56b40523920b532000000000000000000000000645ef85b26a8ee16d4858725045900acab7de00500000000000000000000000000000000000000000000028a857425466f80000000000000000000000000000000000000000000000000000000000000000000c0000000000000000000000000000000000000000000000000000000000000010000000000000000000000000000000000000000000000000000000001faa3b5000000000000000000000000000000000000000000000000000000000000000001000000000000000000000000031fecf98032ab1b2601b32cd9487b1aabae573c000000000000000000000000000000000000000000000000000000000000000100000000000000000000000000000000000000000000000000000001dcd65000",
        "nonce": "0x3",
        "chainId": "0x4268"
      },
      "additionalContracts": [],
      "isFixedGasLimit": false
    },
    {
      "hash": "0x26e482fdb4c80aade058b67d4cf002c778de19c5cfbf21d7db2aea622ac0a50e",
      "transactionType": "CALL",
      "contractName": null,
      "contractAddress": "0x74e0709b2007bd0bede3e1c227088239a4df51f9",
      "function": "approve(address,uint256)",
      "arguments": [
        "0xa05Ed08316B03e73B8007ddFaE841aB29F10B3c1",
        "100000000000000000000"
      ],
      "transaction": {
        "from": "0x753adc51cb6c70156a9e775ac56b40523920b532",
        "to": "0x74e0709b2007bd0bede3e1c227088239a4df51f9",
        "gas": "0xf7f5",
        "value": "0x0",
        "input": "0x095ea7b3000000000000000000000000a05ed08316b03e73b8007ddfae841ab29f10b3c10000000000000000000000000000000000000000000000056bc75e2d63100000",
        "nonce": "0x4",
        "chainId": "0x4268"
      },
      "additionalContracts": [],
      "isFixedGasLimit": false
    },
    {
      "hash": "0xbd2a976314b7c9c4cd4fdf1ba019ecc5968614332412bdb7db6113945d7c4a03",
      "transactionType": "CALL",
      "contractName": null,
      "contractAddress": "0xa05ed08316b03e73b8007ddfae841ab29f10b3c1",
      "function": "addCollateral(uint256,bytes)",
      "arguments": [
        "39",
        "0x0000000000000000000000000000000000000000000000056bc75e2d63100000"
      ],
      "transaction": {
        "from": "0x753adc51cb6c70156a9e775ac56b40523920b532",
        "to": "0xa05ed08316b03e73b8007ddfae841ab29f10b3c1",
        "gas": "0x1518b",
        "value": "0x0",
        "input": "0xfe8fd7d90000000000000000000000000000000000000000000000000000000000000027000000000000000000000000000000000000000000000000000000000000004000000000000000000000000000000000000000000000000000000000000000200000000000000000000000000000000000000000000000056bc75e2d63100000",
        "nonce": "0x5",
        "chainId": "0x4268"
      },
      "additionalContracts": [],
      "isFixedGasLimit": false
    },
    {
      "hash": "0x403b8b6ce186dd5f965fe27ec32c30617203369057387fd39d063a1f8b686db6",
      "transactionType": "CALL",
      "contractName": null,
      "contractAddress": "0xa05ed08316b03e73b8007ddfae841ab29f10b3c1",
      "function": "removeCollateral(uint256,bytes)",
      "arguments": [
        "39",
        "0x000000000000000000000000000000000000000000000002b5e3af16b1880000"
      ],
      "transaction": {
        "from": "0x753adc51cb6c70156a9e775ac56b40523920b532",
        "to": "0xa05ed08316b03e73b8007ddfae841ab29f10b3c1",
        "gas": "0x2cda5",
        "value": "0x0",
        "input": "0x77efba60000000000000000000000000000000000000000000000000000000000000002700000000000000000000000000000000000000000000000000000000000000400000000000000000000000000000000000000000000000000000000000000020000000000000000000000000000000000000000000000002b5e3af16b1880000",
        "nonce": "0x6",
        "chainId": "0x4268"
      },
      "additionalContracts": [],
      "isFixedGasLimit": false
    },
    {
      "hash": "0x1186112c3f06536cd4e5213c5e21d683d21d7f70a157ae5a69189d736587c7b3",
      "transactionType": "CALL",
      "contractName": null,
      "contractAddress": "0x9445ba66bbdd3cdd48f9077536a05292f2c6d253",
      "function": "approve(address,uint256)",
      "arguments": [
        "0xa05Ed08316B03e73B8007ddFaE841aB29F10B3c1",
        "500000000"
      ],
      "transaction": {
        "from": "0x753adc51cb6c70156a9e775ac56b40523920b532",
        "to": "0x9445ba66bbdd3cdd48f9077536a05292f2c6d253",
        "gas": "0xf7b3",
        "value": "0x0",
        "input": "0x095ea7b3000000000000000000000000a05ed08316b03e73b8007ddfae841ab29f10b3c1000000000000000000000000000000000000000000000000000000001dcd6500",
        "nonce": "0x7",
        "chainId": "0x4268"
      },
      "additionalContracts": [],
      "isFixedGasLimit": false
    },
    {
      "hash": "0x6583ea3ee777c502d1d4a23795a6b0d28fc0cb5538271f15e9fea47cf8e18a30",
      "transactionType": "CALL",
      "contractName": null,
      "contractAddress": "0xa05ed08316b03e73b8007ddfae841ab29f10b3c1",
      "function": "repay(uint256,uint128,bool)",
      "arguments": [
        "39",
        "500000000",
        "true"
      ],
      "transaction": {
        "from": "0x753adc51cb6c70156a9e775ac56b40523920b532",
        "to": "0xa05ed08316b03e73b8007ddfae841ab29f10b3c1",
        "gas": "0x18b9d",
        "value": "0x0",
        "input": "0xdf2cbf3e0000000000000000000000000000000000000000000000000000000000000027000000000000000000000000000000000000000000000000000000001dcd65000000000000000000000000000000000000000000000000000000000000000001",
        "nonce": "0x8",
        "chainId": "0x4268"
      },
      "additionalContracts": [],
      "isFixedGasLimit": false
    },
    {
      "hash": "0xd925854fc9e6b86865406a2711b3df7d4866ba82921e64465aa927a979708dcf",
      "transactionType": "CALL",
      "contractName": null,
      "contractAddress": "0xa05ed08316b03e73b8007ddfae841ab29f10b3c1",
      "function": "transferFrom(address,address,uint256)",
      "arguments": [
        "0x753aDC51cB6C70156a9e775Ac56B40523920B532",
        "0x2a7880cDdC306Bd3ad45DC0158bd70dEcfC746dC",
        "39"
      ],
      "transaction": {
        "from": "0x753adc51cb6c70156a9e775ac56b40523920b532",
        "to": "0xa05ed08316b03e73b8007ddfae841ab29f10b3c1",
        "gas": "0x1c204",
        "value": "0x0",
        "input": "0x23b872dd000000000000000000000000753adc51cb6c70156a9e775ac56b40523920b5320000000000000000000000002a7880cddc306bd3ad45dc0158bd70decfc746dc0000000000000000000000000000000000000000000000000000000000000027",
        "nonce": "0x9",
        "chainId": "0x4268"
      },
      "additionalContracts": [],
      "isFixedGasLimit": false
    },
    {
      "hash": "0x57c372860eb311efb014b41ea86b45232f17fe8d06df3d9359870b9ed64c87de",
      "transactionType": "CALL",
      "contractName": null,
      "contractAddress": "0x9445ba66bbdd3cdd48f9077536a05292f2c6d253",
      "function": "approve(address,uint256)",
      "arguments": [
        "0x959D4521BD48B6487D415Aad576Af2222ADB1a92",
        "20004000000"
      ],
      "transaction": {
        "from": "0x753adc51cb6c70156a9e775ac56b40523920b532",
        "to": "0x9445ba66bbdd3cdd48f9077536a05292f2c6d253",
        "gas": "0xf7d3",
        "value": "0x0",
        "input": "0x095ea7b3000000000000000000000000959d4521bd48b6487d415aad576af2222adb1a9200000000000000000000000000000000000000000000000000000004a854d100",
        "nonce": "0xa",
        "chainId": "0x4268"
      },
      "additionalContracts": [],
      "isFixedGasLimit": false
    },
    {
      "hash": "0xe9ec46538526755910e5fc0909f4bd1b6c517b0eec5e05ab46bfeab86b1aec07",
      "transactionType": "CALL",
      "contractName": null,
      "contractAddress": "0x959d4521bd48b6487d415aad576af2222adb1a92",
      "function": "leverageFromToken(address,address,address[],uint128[],uint128,uint128,uint128,(address,address,address,bytes)[])",
      "arguments": [
        "0x753aDC51cB6C70156a9e775Ac56B40523920B532",
        "0x645ef85B26A8eE16D4858725045900ACAb7DE005",
        "[0x031FEcF98032Ab1B2601B32cD9487B1AaBAE573C]",
        "[4000000]",
        "0",
        "20000000000",
        "80000000",
        "[(0xC16905D5b6E34DA4f76BD896f8e1cc6E4650960C, 0x9445Ba66bBDd3Cdd48f9077536a05292f2C6D253, 0x74E0709B2007bD0bEDE3E1c227088239a4dF51f9, 0x00000000000000000000000094121cbfb4abe0155b6bfa5669d120594bacf95300000000000000000000000099c8da9808b7909dede2c3ec835151afb74195ff)]"
      ],
      "transaction": {
        "from": "0x753adc51cb6c70156a9e775ac56b40523920b532",
        "to": "0x959d4521bd48b6487d415aad576af2222adb1a92",
        "gas": "0xe256a",
        "value": "0x0",
        "input": "0xa515648f000000000000000000000000753adc51cb6c70156a9e775ac56b40523920b532000000000000000000000000645ef85b26a8ee16d4858725045900acab7de00500000000000000000000000000000000000000000000000000000000000001000000000000000000000000000000000000000000000000000000000000000140000000000000000000000000000000000000000000000000000000000000000000000000000000000000000000000000000000000000000000000004a817c8000000000000000000000000000000000000000000000000000000000004c4b40000000000000000000000000000000000000000000000000000000000000001800000000000000000000000000000000000000000000000000000000000000001000000000000000000000000031fecf98032ab1b2601b32cd9487b1aabae573c000000000000000000000000000000000000000000000000000000000000000100000000000000000000000000000000000000000000000000000000003d090000000000000000000000000000000000000000000000000000000000000000010000000000000000000000000000000000000000000000000000000000000020000000000000000000000000c16905d5b6e34da4f76bd896f8e1cc6e4650960c0000000000000000000000009445ba66bbdd3cdd48f9077536a05292f2c6d25300000000000000000000000074e0709b2007bd0bede3e1c227088239a4df51f90000000000000000000000000000000000000000000000000000000000000080000000000000000000000000000000000000000000000000000000000000004000000000000000000000000094121cbfb4abe0155b6bfa5669d120594bacf95300000000000000000000000099c8da9808b7909dede2c3ec835151afb74195ff",
        "nonce": "0xb",
        "chainId": "0x4268"
      },
      "additionalContracts": [],
      "isFixedGasLimit": false
    }
  ],
  "receipts": [
    {
      "status": "0x1",
      "cumulativeGasUsed": "0x69a29",
      "logs": [],
      "logsBloom": "0x00000000000000000000000000000000000000000000000000000000000000000000000000000000000000000000000000000000000000000000000000000000000000000000000000000000000000000000000000000000000000000000000000000000000000000000000000000000000000000000000000000000000000000000000000000000000000000000000000000000000000000000000000000000000000000000000000000000000000000000000000000000000000000000000000000000000000000000000000000000000000000000000000000000000000000000000000000000000000000000000000000000000000000000000000000000",
      "type": "0x2",
      "transactionHash": "0x9b5a709d81d3747d3b9beb8098b5acee361cfed23ee9137a6752ca5d37a1adf8",
      "transactionIndex": "0x6",
      "blockHash": "0x441ceac31095e73c7170f6f7e41c443593424055a3e02d076928cd0c14d157b4",
      "blockNumber": "0x32eaac",
      "gasUsed": "0x5208",
      "effectiveGasPrice": "0x1ef7fbb1",
      "from": "0xe355d5d8aa52ef0fbbd037c4a3c5e6fd659cf46b",
      "to": "0x753adc51cb6c70156a9e775ac56b40523920b532",
      "contractAddress": null
    },
    {
      "status": "0x1",
      "cumulativeGasUsed": "0x175524",
      "logs": [
        {
          "address": "0x9445ba66bbdd3cdd48f9077536a05292f2c6d253",
          "topics": [
            "0xddf252ad1be2c89b69c2b068fc378daa952ba7f163c4a11628f55a4df523b3ef",
            "0x0000000000000000000000000000000000000000000000000000000000000000",
            "0x000000000000000000000000e355d5d8aa52ef0fbbd037c4a3c5e6fd659cf46b"
          ],
          "data": "0x000000000000000000000000000000000000000000000000000000174876e800",
          "blockHash": "0x5f52680966f6181b35e83f60adce40388d49145c38623380080cdcf33d1012b9",
          "blockNumber": "0x32eaad",
          "blockTimestamp": "0x67ac70b4",
          "transactionHash": "0xae2209e047c1b45767db845ba92ec81e8b280605d44606ecea74f3a99bee238f",
          "transactionIndex": "0x9",
          "logIndex": "0x10",
          "removed": false
        }
      ],
      "logsBloom": "0x00000000000000000000000000000000000000000000000000000000000000000000000000000000000000000000000000000000000000000000000000000000000000000000000000000008000000000000000000000000000000000000000000000000020000000000000000000800000000000000000000000010000000000000000000000000000000000000000200000000000000000000000000000000000000000000000000000000000400000000000800000000000000000080000000000002000000000000000000000000000000000000000000000000000020000000000000000020000000000000000000000000000000000000000000004000",
      "type": "0x2",
      "transactionHash": "0xae2209e047c1b45767db845ba92ec81e8b280605d44606ecea74f3a99bee238f",
      "transactionIndex": "0x9",
      "blockHash": "0x5f52680966f6181b35e83f60adce40388d49145c38623380080cdcf33d1012b9",
      "blockNumber": "0x32eaad",
      "gasUsed": "0x9b2a",
      "effectiveGasPrice": "0x1ef7fbb1",
      "from": "0xe355d5d8aa52ef0fbbd037c4a3c5e6fd659cf46b",
      "to": "0x5ada709210846da33e3866490eafb90b7ea96f7f",
      "contractAddress": null
    },
    {
      "status": "0x1",
      "cumulativeGasUsed": "0xff983",
      "logs": [
        {
          "address": "0x9445ba66bbdd3cdd48f9077536a05292f2c6d253",
          "topics": [
            "0x8c5be1e5ebec7d5bd14f71427d1e84f3dd0314c0f7b2291e5b200ac8c7c3b925",
            "0x000000000000000000000000e355d5d8aa52ef0fbbd037c4a3c5e6fd659cf46b",
            "0x000000000000000000000000645ef85b26a8ee16d4858725045900acab7de005"
          ],
          "data": "0x000000000000000000000000000000000000000000000000000000174876e800",
          "blockHash": "0xf25bf01118e5411c480fbb7545e628459491f667a98c0a42720f35a8afad2e31",
          "blockNumber": "0x32eaae",
          "blockTimestamp": "0x67ac70c0",
          "transactionHash": "0x339092341f3ed4d796d67b88c5b707a6fffdc4122ee80edbaa390bb5c9144f0d",
          "transactionIndex": "0x4",
          "logIndex": "0xb",
          "removed": false
        }
      ],
      "logsBloom": "0x00000000000000000000000000000000000000000000000000000000000000000000000000000000000000000000000000000000000000000000000000200000000000000000000000000000000000000000000000000000000000000000000000000000000000000000000000000000000000000000080000000000000000000000000000000000000000000000000200000000000000000000000000000000020000000000000000000000000400000000000800000000000000000080000000000000004000000000000000000000000000000000000000000000000000000010000000000020000000000000000000000000000040000000000000004000",
      "type": "0x2",
      "transactionHash": "0x339092341f3ed4d796d67b88c5b707a6fffdc4122ee80edbaa390bb5c9144f0d",
      "transactionIndex": "0x4",
      "blockHash": "0xf25bf01118e5411c480fbb7545e628459491f667a98c0a42720f35a8afad2e31",
      "blockNumber": "0x32eaae",
      "gasUsed": "0xb361",
      "effectiveGasPrice": "0x1ef7fbb1",
      "from": "0xe355d5d8aa52ef0fbbd037c4a3c5e6fd659cf46b",
      "to": "0x9445ba66bbdd3cdd48f9077536a05292f2c6d253",
      "contractAddress": null
    },
    {
      "status": "0x1",
      "cumulativeGasUsed": "0x192459",
      "logs": [
        {
          "address": "0x9445ba66bbdd3cdd48f9077536a05292f2c6d253",
          "topics": [
            "0xddf252ad1be2c89b69c2b068fc378daa952ba7f163c4a11628f55a4df523b3ef",
            "0x000000000000000000000000e355d5d8aa52ef0fbbd037c4a3c5e6fd659cf46b",
            "0x000000000000000000000000645ef85b26a8ee16d4858725045900acab7de005"
          ],
          "data": "0x000000000000000000000000000000000000000000000000000000174876e800",
          "blockHash": "0x7d288ab385f4aac14d907d4d1dc723915d4380d10c575c1f127463d793f1f435",
          "blockNumber": "0x32eaaf",
          "blockTimestamp": "0x67ac70cc",
          "transactionHash": "0xd65f6a58a3ce0fd8be97f61ad197bad3b3fe73127acbc047a0696b3790496ce6",
          "transactionIndex": "0xa",
          "logIndex": "0x10",
          "removed": false
        },
        {
          "address": "0xaaf7c47b8f06d2532eeca6cb4d89bf1487808d33",
          "topics": [
            "0xddf252ad1be2c89b69c2b068fc378daa952ba7f163c4a11628f55a4df523b3ef",
            "0x0000000000000000000000000000000000000000000000000000000000000000",
            "0x000000000000000000000000031fecf98032ab1b2601b32cd9487b1aabae573c"
          ],
          "data": "0x000000000000000000000000000000000000000000000000000000174876e800",
          "blockHash": "0x7d288ab385f4aac14d907d4d1dc723915d4380d10c575c1f127463d793f1f435",
          "blockNumber": "0x32eaaf",
          "blockTimestamp": "0x67ac70cc",
          "transactionHash": "0xd65f6a58a3ce0fd8be97f61ad197bad3b3fe73127acbc047a0696b3790496ce6",
          "transactionIndex": "0xa",
          "logIndex": "0x11",
          "removed": false
        },
        {
          "address": "0x6c29de485455c46987c52abe867b6f276a1aae02",
          "topics": [
            "0xddf252ad1be2c89b69c2b068fc378daa952ba7f163c4a11628f55a4df523b3ef",
            "0x0000000000000000000000000000000000000000000000000000000000000000",
            "0x000000000000000000000000031fecf98032ab1b2601b32cd9487b1aabae573c"
          ],
          "data": "0x000000000000000000000000000000000000000000000000000000174876e800",
          "blockHash": "0x7d288ab385f4aac14d907d4d1dc723915d4380d10c575c1f127463d793f1f435",
          "blockNumber": "0x32eaaf",
          "blockTimestamp": "0x67ac70cc",
          "transactionHash": "0xd65f6a58a3ce0fd8be97f61ad197bad3b3fe73127acbc047a0696b3790496ce6",
          "transactionIndex": "0xa",
          "logIndex": "0x12",
          "removed": false
        },
        {
          "address": "0x645ef85b26a8ee16d4858725045900acab7de005",
          "topics": [
            "0xab8530f87dc9b59234c4623bf917212bb2536d647574c8e7e5da92c2ede0c9f8",
            "0x000000000000000000000000e355d5d8aa52ef0fbbd037c4a3c5e6fd659cf46b",
            "0x000000000000000000000000031fecf98032ab1b2601b32cd9487b1aabae573c"
          ],
          "data": "0x000000000000000000000000000000000000000000000000000000174876e800",
          "blockHash": "0x7d288ab385f4aac14d907d4d1dc723915d4380d10c575c1f127463d793f1f435",
          "blockNumber": "0x32eaaf",
          "blockTimestamp": "0x67ac70cc",
          "transactionHash": "0xd65f6a58a3ce0fd8be97f61ad197bad3b3fe73127acbc047a0696b3790496ce6",
          "transactionIndex": "0xa",
          "logIndex": "0x13",
          "removed": false
        }
      ],
      "logsBloom": "0x00000000001000000000000000000000040000080000000000000100000000000000000000000000200000000000000000000000080000000000000002000000000000000000000000000008000000000040000000000000000000000000000000020000020000000000080000000800000000000000080000000010000000000000000000002000000000000000000200000000000000000000000000000000000000000000000000000000000400000000000800008000000000000080000000000002004000000000000000000000000000000000000000000000100020000000000000000020000000000000000000000000000840000000000000006000",
      "type": "0x2",
      "transactionHash": "0xd65f6a58a3ce0fd8be97f61ad197bad3b3fe73127acbc047a0696b3790496ce6",
      "transactionIndex": "0xa",
      "blockHash": "0x7d288ab385f4aac14d907d4d1dc723915d4380d10c575c1f127463d793f1f435",
      "blockNumber": "0x32eaaf",
      "gasUsed": "0x16597",
      "effectiveGasPrice": "0x1ef7fbb1",
      "from": "0xe355d5d8aa52ef0fbbd037c4a3c5e6fd659cf46b",
      "to": "0x645ef85b26a8ee16d4858725045900acab7de005",
      "contractAddress": null
    },
    {
      "status": "0x1",
      "cumulativeGasUsed": "0x1a5936",
      "logs": [
        {
          "address": "0x9445ba66bbdd3cdd48f9077536a05292f2c6d253",
          "topics": [
            "0xddf252ad1be2c89b69c2b068fc378daa952ba7f163c4a11628f55a4df523b3ef",
            "0x0000000000000000000000000000000000000000000000000000000000000000",
            "0x000000000000000000000000753adc51cb6c70156a9e775ac56b40523920b532"
          ],
          "data": "0x0000000000000000000000000000000000000000000000000000000501bd0000",
          "blockHash": "0x82bf1e6a7a320473e41db56ff57ded0252c3752a2ce73b7d739a7a5c6bb7004f",
          "blockNumber": "0x32eab0",
          "blockTimestamp": "0x67ac70d8",
          "transactionHash": "0x0f30d7e29a6027242a97adf1454ec7dd3e88376be84e46773d2c8b9b723ed156",
          "transactionIndex": "0x8",
          "logIndex": "0x1a",
          "removed": false
        }
      ],
      "logsBloom": "0x00000000000000000000000000000000000000000000000000000000000000000000000000000000000000000000000000000000000000000000000000000000000000000000000000000008000000000000000000000000000000000000000000000000020000040000000000000800000000000000000000000010000000000000000000000000000000000000000000000000000000000000000000000008000000000000000000000000000400000000000800000000000000000080000000000002000000000000000000000000000000000000000000000000000020000000000000000000000000000080000000000000000000000000000000000000",
      "type": "0x2",
      "transactionHash": "0x0f30d7e29a6027242a97adf1454ec7dd3e88376be84e46773d2c8b9b723ed156",
      "transactionIndex": "0x8",
      "blockHash": "0x82bf1e6a7a320473e41db56ff57ded0252c3752a2ce73b7d739a7a5c6bb7004f",
      "blockNumber": "0x32eab0",
      "gasUsed": "0x9b1e",
      "effectiveGasPrice": "0x1ef7fbb1",
      "from": "0xe355d5d8aa52ef0fbbd037c4a3c5e6fd659cf46b",
      "to": "0x5ada709210846da33e3866490eafb90b7ea96f7f",
      "contractAddress": null
    },
    {
      "status": "0x1",
      "cumulativeGasUsed": "0x1b90aa",
      "logs": [
        {
          "address": "0x74e0709b2007bd0bede3e1c227088239a4df51f9",
          "topics": [
            "0xddf252ad1be2c89b69c2b068fc378daa952ba7f163c4a11628f55a4df523b3ef",
            "0x0000000000000000000000000000000000000000000000000000000000000000",
            "0x000000000000000000000000753adc51cb6c70156a9e775ac56b40523920b532"
          ],
          "data": "0x00000000000000000000000000000000000000000000028ff13b8373d2900000",
          "blockHash": "0x6587ff8878a2577c7361ec51a71ae9d605073150dff174ded21019872d9c58e4",
          "blockNumber": "0x32eab1",
          "blockTimestamp": "0x67ac70e4",
          "transactionHash": "0xfa2ff5f4a94a70d948ea81be9fb4ca417470d5d50788f5c9fab6048c2742bf90",
          "transactionIndex": "0xb",
          "logIndex": "0x1a",
          "removed": false
        }
      ],
      "logsBloom": "0x00000000000000000000000000000000000000000000000000000000000100000000000000000000000000000000000001000000000000000000000000000000000000000000000000000008000000000000000000000000000000000000000000000000020000040000000000000800000000000000000000000010000000000000000000000000000000000000000000000000000000000000000000000008010000000000000000000000000000000000000000000000000000000000000000000002000000000000000000000000000000000000000000000000000020000000000000000000000000000080000000000000000000000000000000000000",
      "type": "0x2",
      "transactionHash": "0xfa2ff5f4a94a70d948ea81be9fb4ca417470d5d50788f5c9fab6048c2742bf90",
      "transactionIndex": "0xb",
      "blockHash": "0x6587ff8878a2577c7361ec51a71ae9d605073150dff174ded21019872d9c58e4",
      "blockNumber": "0x32eab1",
      "gasUsed": "0x9b5a",
      "effectiveGasPrice": "0x1ef7fbb1",
      "from": "0xe355d5d8aa52ef0fbbd037c4a3c5e6fd659cf46b",
      "to": "0x5ada709210846da33e3866490eafb90b7ea96f7f",
      "contractAddress": null
    },
    {
      "status": "0x1",
      "cumulativeGasUsed": "0x27c82e",
      "logs": [
        {
          "address": "0x9445ba66bbdd3cdd48f9077536a05292f2c6d253",
          "topics": [
            "0x8c5be1e5ebec7d5bd14f71427d1e84f3dd0314c0f7b2291e5b200ac8c7c3b925",
            "0x000000000000000000000000753adc51cb6c70156a9e775ac56b40523920b532",
            "0x000000000000000000000000031fecf98032ab1b2601b32cd9487b1aabae573c"
          ],
          "data": "0x000000000000000000000000000000000000000000000000000000003b9aca00",
          "blockHash": "0x55ff72657498595b5a767ba1cd5eb0fb39abe811a5abad04eff0d04025376158",
          "blockNumber": "0x32eab2",
          "blockTimestamp": "0x67ac70fc",
          "transactionHash": "0x2950e34523bfcd77f657c1b06e54f4c90eeabb5278257e0585a11fba6cbf7612",
          "transactionIndex": "0xf",
          "logIndex": "0x28",
          "removed": false
        }
      ],
      "logsBloom": "0x00000000000000000000000000000000000000080000000000000000000000000000000000000000000000000000000000000000000000000000000002200000000000000000000000000000000000000000000000000000000000000000000000000000000000040000000000000000000000000000000000000000000000000000000000000000000000000000000000000000000000000000000000000008020000000000000000000000000400000000000800000000000000000080000000000000000000000000000000000000000000000000000000000000100000000010000000000000000000000080000000000000000000000000000000000000",
      "type": "0x2",
      "transactionHash": "0x2950e34523bfcd77f657c1b06e54f4c90eeabb5278257e0585a11fba6cbf7612",
      "transactionIndex": "0xf",
      "blockHash": "0x55ff72657498595b5a767ba1cd5eb0fb39abe811a5abad04eff0d04025376158",
      "blockNumber": "0x32eab2",
      "gasUsed": "0xb361",
      "effectiveGasPrice": "0x1ef7fbb1",
      "from": "0x753adc51cb6c70156a9e775ac56b40523920b532",
      "to": "0x9445ba66bbdd3cdd48f9077536a05292f2c6d253",
      "contractAddress": null
    },
    {
      "status": "0x1",
      "cumulativeGasUsed": "0x1fa2b5",
      "logs": [
        {
          "address": "0x9445ba66bbdd3cdd48f9077536a05292f2c6d253",
          "topics": [
            "0xddf252ad1be2c89b69c2b068fc378daa952ba7f163c4a11628f55a4df523b3ef",
            "0x000000000000000000000000753adc51cb6c70156a9e775ac56b40523920b532",
            "0x000000000000000000000000031fecf98032ab1b2601b32cd9487b1aabae573c"
          ],
          "data": "0x000000000000000000000000000000000000000000000000000000003b9aca00",
          "blockHash": "0xa6475c3f505b8876d013f66cfd49afa3ad527a70932a44bfdf130af153142513",
          "blockNumber": "0x32eab3",
          "blockTimestamp": "0x67ac7108",
          "transactionHash": "0x49d5d07fe1ed4ffd9ae2f550e344b536c7ffa77b6b8c162107e1f7f0680f4503",
          "transactionIndex": "0xc",
          "logIndex": "0x12",
          "removed": false
        },
        {
          "address": "0x9445ba66bbdd3cdd48f9077536a05292f2c6d253",
          "topics": [
            "0x8c5be1e5ebec7d5bd14f71427d1e84f3dd0314c0f7b2291e5b200ac8c7c3b925",
            "0x000000000000000000000000031fecf98032ab1b2601b32cd9487b1aabae573c",
            "0x000000000000000000000000645ef85b26a8ee16d4858725045900acab7de005"
          ],
          "data": "0x000000000000000000000000000000000000000000000000000000003b9aca00",
          "blockHash": "0xa6475c3f505b8876d013f66cfd49afa3ad527a70932a44bfdf130af153142513",
          "blockNumber": "0x32eab3",
          "blockTimestamp": "0x67ac7108",
          "transactionHash": "0x49d5d07fe1ed4ffd9ae2f550e344b536c7ffa77b6b8c162107e1f7f0680f4503",
          "transactionIndex": "0xc",
          "logIndex": "0x13",
          "removed": false
        },
        {
          "address": "0x9445ba66bbdd3cdd48f9077536a05292f2c6d253",
          "topics": [
            "0xddf252ad1be2c89b69c2b068fc378daa952ba7f163c4a11628f55a4df523b3ef",
            "0x000000000000000000000000031fecf98032ab1b2601b32cd9487b1aabae573c",
            "0x000000000000000000000000645ef85b26a8ee16d4858725045900acab7de005"
          ],
          "data": "0x000000000000000000000000000000000000000000000000000000003b9aca00",
          "blockHash": "0xa6475c3f505b8876d013f66cfd49afa3ad527a70932a44bfdf130af153142513",
          "blockNumber": "0x32eab3",
          "blockTimestamp": "0x67ac7108",
          "transactionHash": "0x49d5d07fe1ed4ffd9ae2f550e344b536c7ffa77b6b8c162107e1f7f0680f4503",
          "transactionIndex": "0xc",
          "logIndex": "0x14",
          "removed": false
        },
        {
          "address": "0xaaf7c47b8f06d2532eeca6cb4d89bf1487808d33",
          "topics": [
            "0xddf252ad1be2c89b69c2b068fc378daa952ba7f163c4a11628f55a4df523b3ef",
            "0x0000000000000000000000000000000000000000000000000000000000000000",
            "0x000000000000000000000000031fecf98032ab1b2601b32cd9487b1aabae573c"
          ],
          "data": "0x000000000000000000000000000000000000000000000000000000003b9aca00",
          "blockHash": "0xa6475c3f505b8876d013f66cfd49afa3ad527a70932a44bfdf130af153142513",
          "blockNumber": "0x32eab3",
          "blockTimestamp": "0x67ac7108",
          "transactionHash": "0x49d5d07fe1ed4ffd9ae2f550e344b536c7ffa77b6b8c162107e1f7f0680f4503",
          "transactionIndex": "0xc",
          "logIndex": "0x15",
          "removed": false
        },
        {
          "address": "0x6c29de485455c46987c52abe867b6f276a1aae02",
          "topics": [
            "0xddf252ad1be2c89b69c2b068fc378daa952ba7f163c4a11628f55a4df523b3ef",
            "0x0000000000000000000000000000000000000000000000000000000000000000",
            "0x000000000000000000000000031fecf98032ab1b2601b32cd9487b1aabae573c"
          ],
          "data": "0x000000000000000000000000000000000000000000000000000000003b9aca00",
          "blockHash": "0xa6475c3f505b8876d013f66cfd49afa3ad527a70932a44bfdf130af153142513",
          "blockNumber": "0x32eab3",
          "blockTimestamp": "0x67ac7108",
          "transactionHash": "0x49d5d07fe1ed4ffd9ae2f550e344b536c7ffa77b6b8c162107e1f7f0680f4503",
          "transactionIndex": "0xc",
          "logIndex": "0x16",
          "removed": false
        },
        {
          "address": "0x645ef85b26a8ee16d4858725045900acab7de005",
          "topics": [
            "0xab8530f87dc9b59234c4623bf917212bb2536d647574c8e7e5da92c2ede0c9f8",
            "0x000000000000000000000000031fecf98032ab1b2601b32cd9487b1aabae573c",
            "0x000000000000000000000000031fecf98032ab1b2601b32cd9487b1aabae573c"
          ],
          "data": "0x000000000000000000000000000000000000000000000000000000003b9aca00",
          "blockHash": "0xa6475c3f505b8876d013f66cfd49afa3ad527a70932a44bfdf130af153142513",
          "blockNumber": "0x32eab3",
          "blockTimestamp": "0x67ac7108",
          "transactionHash": "0x49d5d07fe1ed4ffd9ae2f550e344b536c7ffa77b6b8c162107e1f7f0680f4503",
          "transactionIndex": "0xc",
          "logIndex": "0x17",
          "removed": false
        },
        {
          "address": "0xaaf7c47b8f06d2532eeca6cb4d89bf1487808d33",
          "topics": [
            "0xddf252ad1be2c89b69c2b068fc378daa952ba7f163c4a11628f55a4df523b3ef",
            "0x000000000000000000000000031fecf98032ab1b2601b32cd9487b1aabae573c",
            "0x000000000000000000000000753adc51cb6c70156a9e775ac56b40523920b532"
          ],
          "data": "0x000000000000000000000000000000000000000000000000000000003ccb0035",
          "blockHash": "0xa6475c3f505b8876d013f66cfd49afa3ad527a70932a44bfdf130af153142513",
          "blockNumber": "0x32eab3",
          "blockTimestamp": "0x67ac7108",
          "transactionHash": "0x49d5d07fe1ed4ffd9ae2f550e344b536c7ffa77b6b8c162107e1f7f0680f4503",
          "transactionIndex": "0xc",
          "logIndex": "0x18",
          "removed": false
        },
        {
          "address": "0xaaf7c47b8f06d2532eeca6cb4d89bf1487808d33",
          "topics": [
            "0xddf252ad1be2c89b69c2b068fc378daa952ba7f163c4a11628f55a4df523b3ef",
            "0x000000000000000000000000031fecf98032ab1b2601b32cd9487b1aabae573c",
            "0x0000000000000000000000007ab945445958819a74b48e8bd5f9e39ed74bde9e"
          ],
          "data": "0x0000000000000000000000000000000000000000000000000000000000166a64",
          "blockHash": "0xa6475c3f505b8876d013f66cfd49afa3ad527a70932a44bfdf130af153142513",
          "blockNumber": "0x32eab3",
          "blockTimestamp": "0x67ac7108",
          "transactionHash": "0x49d5d07fe1ed4ffd9ae2f550e344b536c7ffa77b6b8c162107e1f7f0680f4503",
          "transactionIndex": "0xc",
          "logIndex": "0x19",
          "removed": false
        },
        {
          "address": "0x031fecf98032ab1b2601b32cd9487b1aabae573c",
          "topics": [
            "0xafc472950ba0847ac0541a7d71ad9977d695e4dba0cc223dba88d5fa8609732a",
            "0x0000000000000000000000009445ba66bbdd3cdd48f9077536a05292f2c6d253",
            "0x000000000000000000000000aaf7c47b8f06d2532eeca6cb4d89bf1487808d33"
          ],
          "data": "0x000000000000000000000000753adc51cb6c70156a9e775ac56b40523920b532000000000000000000000000753adc51cb6c70156a9e775ac56b40523920b532000000000000000000000000000000000000000000000000000000003b9aca00000000000000000000000000000000000000000000000000000000003ccb00350000000000000000000000000000000000000000000000000000000000166a64",
          "blockHash": "0xa6475c3f505b8876d013f66cfd49afa3ad527a70932a44bfdf130af153142513",
          "blockNumber": "0x32eab3",
          "blockTimestamp": "0x67ac7108",
          "transactionHash": "0x49d5d07fe1ed4ffd9ae2f550e344b536c7ffa77b6b8c162107e1f7f0680f4503",
          "transactionIndex": "0xc",
          "logIndex": "0x1a",
          "removed": false
        }
      ],
      "logsBloom": "0x02000000001000000000000000000000040004080000000000000100000000000000000000000000200008000000000000000000080020000000000002200000000000000000000040000008020000000040000000001000000000000000000000020000020000040000080000000800000000000000080000000010000000000000000000006040000000000000000000000000000000000000000000000008020000200000000000000000000461000000000800008000000000010080000000000002004000000000000000000000010000000000000000000000100020000010000000000000000000000080000000000000000840000000000000002000",
      "type": "0x2",
      "transactionHash": "0x49d5d07fe1ed4ffd9ae2f550e344b536c7ffa77b6b8c162107e1f7f0680f4503",
      "transactionIndex": "0xc",
      "blockHash": "0xa6475c3f505b8876d013f66cfd49afa3ad527a70932a44bfdf130af153142513",
      "blockNumber": "0x32eab3",
      "gasUsed": "0x3b877",
      "effectiveGasPrice": "0x1ef7fbb1",
      "from": "0x753adc51cb6c70156a9e775ac56b40523920b532",
      "to": "0x031fecf98032ab1b2601b32cd9487b1aabae573c",
      "contractAddress": null
    },
    {
      "status": "0x1",
      "cumulativeGasUsed": "0x27dadb",
      "logs": [
        {
          "address": "0x74e0709b2007bd0bede3e1c227088239a4df51f9",
          "topics": [
            "0x8c5be1e5ebec7d5bd14f71427d1e84f3dd0314c0f7b2291e5b200ac8c7c3b925",
            "0x000000000000000000000000753adc51cb6c70156a9e775ac56b40523920b532",
            "0x000000000000000000000000959d4521bd48b6487d415aad576af2222adb1a92"
          ],
          "data": "0x00000000000000000000000000000000000000000000028a857425466f800000",
          "blockHash": "0x21764d71a1d40bbbefb16e136f8911f25072615f538248891b88941f9f32b6c0",
          "blockNumber": "0x32eab4",
          "blockTimestamp": "0x67ac7114",
          "transactionHash": "0x4ab9e8c062e5b359f3e9a85776f6e14425d435757cc7b4ada6ae85253db0c17f",
          "transactionIndex": "0xd",
          "logIndex": "0x6",
          "removed": false
        }
      ],
      "logsBloom": "0x00000000000000000000000000000000000000000000000000000000000100000000000000000000000020000000000001000000000000000000000000200000000000000000000000000000000000000000000000000000000000000000000000100000000010040000000000000000000000000000000000000000000000000000000000000000000000000000000000000000000000000000000000000008030000000000000000000000000000000000000000000000000000000000000000000000000000000000000000000000000000000000000000000000000000000010000000000000000000000080000000000000000000000000000000000000",
      "type": "0x2",
      "transactionHash": "0x4ab9e8c062e5b359f3e9a85776f6e14425d435757cc7b4ada6ae85253db0c17f",
      "transactionIndex": "0xd",
      "blockHash": "0x21764d71a1d40bbbefb16e136f8911f25072615f538248891b88941f9f32b6c0",
      "blockNumber": "0x32eab4",
      "gasUsed": "0xb39d",
      "effectiveGasPrice": "0x1ef7fbb2",
      "from": "0x753adc51cb6c70156a9e775ac56b40523920b532",
      "to": "0x74e0709b2007bd0bede3e1c227088239a4df51f9",
      "contractAddress": null
    },
    {
      "status": "0x1",
      "cumulativeGasUsed": "0x15d03a",
      "logs": [
        {
          "address": "0x74e0709b2007bd0bede3e1c227088239a4df51f9",
          "topics": [
            "0xddf252ad1be2c89b69c2b068fc378daa952ba7f163c4a11628f55a4df523b3ef",
            "0x000000000000000000000000753adc51cb6c70156a9e775ac56b40523920b532",
            "0x000000000000000000000000959d4521bd48b6487d415aad576af2222adb1a92"
          ],
          "data": "0x00000000000000000000000000000000000000000000028a857425466f800000",
          "blockHash": "0x36ce57784da563905875d37f0f912f0d09f5b9849d06b350305e2441cc3ba324",
          "blockNumber": "0x32eab5",
          "blockTimestamp": "0x67ac7120",
          "transactionHash": "0x4806a936894cd552de68f98f38a8790555d826f46f34f1a46971874c26fcbf54",
          "transactionIndex": "0x8",
          "logIndex": "0x8",
          "removed": false
        },
        {
          "address": "0x74e0709b2007bd0bede3e1c227088239a4df51f9",
          "topics": [
            "0x8c5be1e5ebec7d5bd14f71427d1e84f3dd0314c0f7b2291e5b200ac8c7c3b925",
            "0x000000000000000000000000959d4521bd48b6487d415aad576af2222adb1a92",
            "0x000000000000000000000000a05ed08316b03e73b8007ddfae841ab29f10b3c1"
          ],
          "data": "0x00000000000000000000000000000000000000000000028a857425466f800000",
          "blockHash": "0x36ce57784da563905875d37f0f912f0d09f5b9849d06b350305e2441cc3ba324",
          "blockNumber": "0x32eab5",
          "blockTimestamp": "0x67ac7120",
          "transactionHash": "0x4806a936894cd552de68f98f38a8790555d826f46f34f1a46971874c26fcbf54",
          "transactionIndex": "0x8",
          "logIndex": "0x9",
          "removed": false
        },
        {
          "address": "0x74e0709b2007bd0bede3e1c227088239a4df51f9",
          "topics": [
            "0xddf252ad1be2c89b69c2b068fc378daa952ba7f163c4a11628f55a4df523b3ef",
            "0x000000000000000000000000959d4521bd48b6487d415aad576af2222adb1a92",
            "0x000000000000000000000000a05ed08316b03e73b8007ddfae841ab29f10b3c1"
          ],
          "data": "0x00000000000000000000000000000000000000000000028a857425466f800000",
          "blockHash": "0x36ce57784da563905875d37f0f912f0d09f5b9849d06b350305e2441cc3ba324",
          "blockNumber": "0x32eab5",
          "blockTimestamp": "0x67ac7120",
          "transactionHash": "0x4806a936894cd552de68f98f38a8790555d826f46f34f1a46971874c26fcbf54",
          "transactionIndex": "0x8",
          "logIndex": "0xa",
          "removed": false
        },
        {
          "address": "0xa05ed08316b03e73b8007ddfae841ab29f10b3c1",
          "topics": [
            "0xddf252ad1be2c89b69c2b068fc378daa952ba7f163c4a11628f55a4df523b3ef",
            "0x0000000000000000000000000000000000000000000000000000000000000000",
            "0x000000000000000000000000959d4521bd48b6487d415aad576af2222adb1a92",
            "0x0000000000000000000000000000000000000000000000000000000000000027"
          ],
          "data": "0x",
          "blockHash": "0x36ce57784da563905875d37f0f912f0d09f5b9849d06b350305e2441cc3ba324",
          "blockNumber": "0x32eab5",
          "blockTimestamp": "0x67ac7120",
          "transactionHash": "0x4806a936894cd552de68f98f38a8790555d826f46f34f1a46971874c26fcbf54",
          "transactionIndex": "0x8",
          "logIndex": "0xb",
          "removed": false
        },
        {
          "address": "0xaaf7c47b8f06d2532eeca6cb4d89bf1487808d33",
          "topics": [
            "0xddf252ad1be2c89b69c2b068fc378daa952ba7f163c4a11628f55a4df523b3ef",
            "0x0000000000000000000000000000000000000000000000000000000000000000",
            "0x0000000000000000000000007ab945445958819a74b48e8bd5f9e39ed74bde9e"
          ],
          "data": "0x00000000000000000000000000000000000000000000000000000000001e88ae",
          "blockHash": "0x36ce57784da563905875d37f0f912f0d09f5b9849d06b350305e2441cc3ba324",
          "blockNumber": "0x32eab5",
          "blockTimestamp": "0x67ac7120",
          "transactionHash": "0x4806a936894cd552de68f98f38a8790555d826f46f34f1a46971874c26fcbf54",
          "transactionIndex": "0x8",
          "logIndex": "0xc",
          "removed": false
        },
        {
          "address": "0xaaf7c47b8f06d2532eeca6cb4d89bf1487808d33",
          "topics": [
            "0xddf252ad1be2c89b69c2b068fc378daa952ba7f163c4a11628f55a4df523b3ef",
            "0x0000000000000000000000000000000000000000000000000000000000000000",
            "0x000000000000000000000000959d4521bd48b6487d415aad576af2222adb1a92"
          ],
          "data": "0x00000000000000000000000000000000000000000000000000000001fa852c52",
          "blockHash": "0x36ce57784da563905875d37f0f912f0d09f5b9849d06b350305e2441cc3ba324",
          "blockNumber": "0x32eab5",
          "blockTimestamp": "0x67ac7120",
          "transactionHash": "0x4806a936894cd552de68f98f38a8790555d826f46f34f1a46971874c26fcbf54",
          "transactionIndex": "0x8",
          "logIndex": "0xd",
          "removed": false
        },
        {
          "address": "0x645ef85b26a8ee16d4858725045900acab7de005",
          "topics": [
            "0x4df3b19e819480e8ca2aff222a35ef1641eedcaf2f0fe5e7bfe9ca499548df80",
            "0x000000000000000000000000959d4521bd48b6487d415aad576af2222adb1a92",
            "0x000000000000000000000000959d4521bd48b6487d415aad576af2222adb1a92",
            "0x0000000000000000000000000000000000000000000000000000000000000027"
          ],
          "data": "0x00000000000000000000000000000000000000000000000000000001faa3b50000000000000000000000000000000000000000000000000000000001fa852c5200000000000000000000000000000000000000000000000000000000001e88ae0000000000000000000000000000000000000000000000000000000000000080000000000000000000000000000000000000000000000000000000000000002000000000000000000000000000000000000000000000028a857425466f800000",
          "blockHash": "0x36ce57784da563905875d37f0f912f0d09f5b9849d06b350305e2441cc3ba324",
          "blockNumber": "0x32eab5",
          "blockTimestamp": "0x67ac7120",
          "transactionHash": "0x4806a936894cd552de68f98f38a8790555d826f46f34f1a46971874c26fcbf54",
          "transactionIndex": "0x8",
          "logIndex": "0xe",
          "removed": false
        },
        {
          "address": "0xaaf7c47b8f06d2532eeca6cb4d89bf1487808d33",
          "topics": [
            "0x8c5be1e5ebec7d5bd14f71427d1e84f3dd0314c0f7b2291e5b200ac8c7c3b925",
            "0x000000000000000000000000959d4521bd48b6487d415aad576af2222adb1a92",
            "0x000000000000000000000000031fecf98032ab1b2601b32cd9487b1aabae573c"
          ],
          "data": "0x000000000000000000000000000000000000000000000000000000020372668f",
          "blockHash": "0x36ce57784da563905875d37f0f912f0d09f5b9849d06b350305e2441cc3ba324",
          "blockNumber": "0x32eab5",
          "blockTimestamp": "0x67ac7120",
          "transactionHash": "0x4806a936894cd552de68f98f38a8790555d826f46f34f1a46971874c26fcbf54",
          "transactionIndex": "0x8",
          "logIndex": "0xf",
          "removed": false
        },
        {
          "address": "0xaaf7c47b8f06d2532eeca6cb4d89bf1487808d33",
          "topics": [
            "0xddf252ad1be2c89b69c2b068fc378daa952ba7f163c4a11628f55a4df523b3ef",
            "0x000000000000000000000000959d4521bd48b6487d415aad576af2222adb1a92",
            "0x000000000000000000000000031fecf98032ab1b2601b32cd9487b1aabae573c"
          ],
          "data": "0x00000000000000000000000000000000000000000000000000000001f238fe6e",
          "blockHash": "0x36ce57784da563905875d37f0f912f0d09f5b9849d06b350305e2441cc3ba324",
          "blockNumber": "0x32eab5",
          "blockTimestamp": "0x67ac7120",
          "transactionHash": "0x4806a936894cd552de68f98f38a8790555d826f46f34f1a46971874c26fcbf54",
          "transactionIndex": "0x8",
          "logIndex": "0x10",
          "removed": false
        },
        {
          "address": "0xaaf7c47b8f06d2532eeca6cb4d89bf1487808d33",
          "topics": [
            "0x8c5be1e5ebec7d5bd14f71427d1e84f3dd0314c0f7b2291e5b200ac8c7c3b925",
            "0x000000000000000000000000031fecf98032ab1b2601b32cd9487b1aabae573c",
            "0x000000000000000000000000645ef85b26a8ee16d4858725045900acab7de005"
          ],
          "data": "0x00000000000000000000000000000000000000000000000000000001dcd65000",
          "blockHash": "0x36ce57784da563905875d37f0f912f0d09f5b9849d06b350305e2441cc3ba324",
          "blockNumber": "0x32eab5",
          "blockTimestamp": "0x67ac7120",
          "transactionHash": "0x4806a936894cd552de68f98f38a8790555d826f46f34f1a46971874c26fcbf54",
          "transactionIndex": "0x8",
          "logIndex": "0x11",
          "removed": false
        },
        {
          "address": "0x6c29de485455c46987c52abe867b6f276a1aae02",
          "topics": [
            "0x8c5be1e5ebec7d5bd14f71427d1e84f3dd0314c0f7b2291e5b200ac8c7c3b925",
            "0x000000000000000000000000031fecf98032ab1b2601b32cd9487b1aabae573c",
            "0x000000000000000000000000645ef85b26a8ee16d4858725045900acab7de005"
          ],
          "data": "0x00000000000000000000000000000000000000000000000000000001dcd65000",
          "blockHash": "0x36ce57784da563905875d37f0f912f0d09f5b9849d06b350305e2441cc3ba324",
          "blockNumber": "0x32eab5",
          "blockTimestamp": "0x67ac7120",
          "transactionHash": "0x4806a936894cd552de68f98f38a8790555d826f46f34f1a46971874c26fcbf54",
          "transactionIndex": "0x8",
          "logIndex": "0x12",
          "removed": false
        },
        {
          "address": "0xaaf7c47b8f06d2532eeca6cb4d89bf1487808d33",
          "topics": [
            "0xddf252ad1be2c89b69c2b068fc378daa952ba7f163c4a11628f55a4df523b3ef",
            "0x000000000000000000000000031fecf98032ab1b2601b32cd9487b1aabae573c",
            "0x000000000000000000000000645ef85b26a8ee16d4858725045900acab7de005"
          ],
          "data": "0x00000000000000000000000000000000000000000000000000000001dcd65000",
          "blockHash": "0x36ce57784da563905875d37f0f912f0d09f5b9849d06b350305e2441cc3ba324",
          "blockNumber": "0x32eab5",
          "blockTimestamp": "0x67ac7120",
          "transactionHash": "0x4806a936894cd552de68f98f38a8790555d826f46f34f1a46971874c26fcbf54",
          "transactionIndex": "0x8",
          "logIndex": "0x13",
          "removed": false
        },
        {
          "address": "0x6c29de485455c46987c52abe867b6f276a1aae02",
          "topics": [
            "0xddf252ad1be2c89b69c2b068fc378daa952ba7f163c4a11628f55a4df523b3ef",
            "0x000000000000000000000000031fecf98032ab1b2601b32cd9487b1aabae573c",
            "0x000000000000000000000000645ef85b26a8ee16d4858725045900acab7de005"
          ],
          "data": "0x00000000000000000000000000000000000000000000000000000001dcd65000",
          "blockHash": "0x36ce57784da563905875d37f0f912f0d09f5b9849d06b350305e2441cc3ba324",
          "blockNumber": "0x32eab5",
          "blockTimestamp": "0x67ac7120",
          "transactionHash": "0x4806a936894cd552de68f98f38a8790555d826f46f34f1a46971874c26fcbf54",
          "transactionIndex": "0x8",
          "logIndex": "0x14",
          "removed": false
        },
        {
          "address": "0xaaf7c47b8f06d2532eeca6cb4d89bf1487808d33",
          "topics": [
            "0xddf252ad1be2c89b69c2b068fc378daa952ba7f163c4a11628f55a4df523b3ef",
            "0x000000000000000000000000645ef85b26a8ee16d4858725045900acab7de005",
            "0x0000000000000000000000000000000000000000000000000000000000000000"
          ],
          "data": "0x00000000000000000000000000000000000000000000000000000001dcd65000",
          "blockHash": "0x36ce57784da563905875d37f0f912f0d09f5b9849d06b350305e2441cc3ba324",
          "blockNumber": "0x32eab5",
          "blockTimestamp": "0x67ac7120",
          "transactionHash": "0x4806a936894cd552de68f98f38a8790555d826f46f34f1a46971874c26fcbf54",
          "transactionIndex": "0x8",
          "logIndex": "0x15",
          "removed": false
        },
        {
          "address": "0x6c29de485455c46987c52abe867b6f276a1aae02",
          "topics": [
            "0xddf252ad1be2c89b69c2b068fc378daa952ba7f163c4a11628f55a4df523b3ef",
            "0x000000000000000000000000645ef85b26a8ee16d4858725045900acab7de005",
            "0x0000000000000000000000000000000000000000000000000000000000000000"
          ],
          "data": "0x00000000000000000000000000000000000000000000000000000001dcd65000",
          "blockHash": "0x36ce57784da563905875d37f0f912f0d09f5b9849d06b350305e2441cc3ba324",
          "blockNumber": "0x32eab5",
          "blockTimestamp": "0x67ac7120",
          "transactionHash": "0x4806a936894cd552de68f98f38a8790555d826f46f34f1a46971874c26fcbf54",
          "transactionIndex": "0x8",
          "logIndex": "0x16",
          "removed": false
        },
        {
          "address": "0x9445ba66bbdd3cdd48f9077536a05292f2c6d253",
          "topics": [
            "0xddf252ad1be2c89b69c2b068fc378daa952ba7f163c4a11628f55a4df523b3ef",
            "0x000000000000000000000000645ef85b26a8ee16d4858725045900acab7de005",
            "0x000000000000000000000000753adc51cb6c70156a9e775ac56b40523920b532"
          ],
          "data": "0x00000000000000000000000000000000000000000000000000000001dcd65000",
          "blockHash": "0x36ce57784da563905875d37f0f912f0d09f5b9849d06b350305e2441cc3ba324",
          "blockNumber": "0x32eab5",
          "blockTimestamp": "0x67ac7120",
          "transactionHash": "0x4806a936894cd552de68f98f38a8790555d826f46f34f1a46971874c26fcbf54",
          "transactionIndex": "0x8",
          "logIndex": "0x17",
          "removed": false
        },
        {
          "address": "0x645ef85b26a8ee16d4858725045900acab7de005",
          "topics": [
            "0xbac40739b0d4ca32fa2d82fc91630465ba3eddd1598da6fca393b26fb63b9453",
            "0x000000000000000000000000031fecf98032ab1b2601b32cd9487b1aabae573c",
            "0x000000000000000000000000753adc51cb6c70156a9e775ac56b40523920b532"
          ],
          "data": "0x00000000000000000000000000000000000000000000000000000001dcd65000",
          "blockHash": "0x36ce57784da563905875d37f0f912f0d09f5b9849d06b350305e2441cc3ba324",
          "blockNumber": "0x32eab5",
          "blockTimestamp": "0x67ac7120",
          "transactionHash": "0x4806a936894cd552de68f98f38a8790555d826f46f34f1a46971874c26fcbf54",
          "transactionIndex": "0x8",
          "logIndex": "0x18",
          "removed": false
        },
        {
          "address": "0xaaf7c47b8f06d2532eeca6cb4d89bf1487808d33",
          "topics": [
            "0xddf252ad1be2c89b69c2b068fc378daa952ba7f163c4a11628f55a4df523b3ef",
            "0x000000000000000000000000031fecf98032ab1b2601b32cd9487b1aabae573c",
            "0x0000000000000000000000007ab945445958819a74b48e8bd5f9e39ed74bde9e"
          ],
          "data": "0x0000000000000000000000000000000000000000000000000000000000882fa5",
          "blockHash": "0x36ce57784da563905875d37f0f912f0d09f5b9849d06b350305e2441cc3ba324",
          "blockNumber": "0x32eab5",
          "blockTimestamp": "0x67ac7120",
          "transactionHash": "0x4806a936894cd552de68f98f38a8790555d826f46f34f1a46971874c26fcbf54",
          "transactionIndex": "0x8",
          "logIndex": "0x19",
          "removed": false
        },
        {
          "address": "0x031fecf98032ab1b2601b32cd9487b1aabae573c",
          "topics": [
            "0x48054139172b057097b1c514c1e58472e50cc4e9f779f0447d95c62b30403df8",
            "0x000000000000000000000000aaf7c47b8f06d2532eeca6cb4d89bf1487808d33",
            "0x0000000000000000000000009445ba66bbdd3cdd48f9077536a05292f2c6d253"
          ],
          "data": "0x000000000000000000000000959d4521bd48b6487d415aad576af2222adb1a92000000000000000000000000753adc51cb6c70156a9e775ac56b40523920b53200000000000000000000000000000000000000000000000000000001dcd6500000000000000000000000000000000000000000000000000000000001f238fe6e0000000000000000000000000000000000000000000000000000000000882fa5",
          "blockHash": "0x36ce57784da563905875d37f0f912f0d09f5b9849d06b350305e2441cc3ba324",
          "blockNumber": "0x32eab5",
          "blockTimestamp": "0x67ac7120",
          "transactionHash": "0x4806a936894cd552de68f98f38a8790555d826f46f34f1a46971874c26fcbf54",
          "transactionIndex": "0x8",
          "logIndex": "0x1a",
          "removed": false
        },
        {
          "address": "0xaaf7c47b8f06d2532eeca6cb4d89bf1487808d33",
          "topics": [
            "0x8c5be1e5ebec7d5bd14f71427d1e84f3dd0314c0f7b2291e5b200ac8c7c3b925",
            "0x000000000000000000000000959d4521bd48b6487d415aad576af2222adb1a92",
            "0x000000000000000000000000a05ed08316b03e73b8007ddfae841ab29f10b3c1"
          ],
          "data": "0x00000000000000000000000000000000000000000000000000000000084c2de4",
          "blockHash": "0x36ce57784da563905875d37f0f912f0d09f5b9849d06b350305e2441cc3ba324",
          "blockNumber": "0x32eab5",
          "blockTimestamp": "0x67ac7120",
          "transactionHash": "0x4806a936894cd552de68f98f38a8790555d826f46f34f1a46971874c26fcbf54",
          "transactionIndex": "0x8",
          "logIndex": "0x1b",
          "removed": false
        },
        {
          "address": "0xaaf7c47b8f06d2532eeca6cb4d89bf1487808d33",
          "topics": [
            "0xddf252ad1be2c89b69c2b068fc378daa952ba7f163c4a11628f55a4df523b3ef",
            "0x000000000000000000000000959d4521bd48b6487d415aad576af2222adb1a92",
            "0x000000000000000000000000645ef85b26a8ee16d4858725045900acab7de005"
          ],
          "data": "0x00000000000000000000000000000000000000000000000000000000084c2de4",
          "blockHash": "0x36ce57784da563905875d37f0f912f0d09f5b9849d06b350305e2441cc3ba324",
          "blockNumber": "0x32eab5",
          "blockTimestamp": "0x67ac7120",
          "transactionHash": "0x4806a936894cd552de68f98f38a8790555d826f46f34f1a46971874c26fcbf54",
          "transactionIndex": "0x8",
          "logIndex": "0x1c",
          "removed": false
        },
        {
          "address": "0xa05ed08316b03e73b8007ddfae841ab29f10b3c1",
          "topics": [
            "0x1efbe429bb48635fd7ce810da2f114c950d5bbd6b891af243520cdb08ca9aa67",
            "0x0000000000000000000000000000000000000000000000000000000000000027"
          ],
          "data": "0x00000000000000000000000000000000000000000000000000000000084c2de40000000000000000000000000000000000000000000000000000000000000000",
          "blockHash": "0x36ce57784da563905875d37f0f912f0d09f5b9849d06b350305e2441cc3ba324",
          "blockNumber": "0x32eab5",
          "blockTimestamp": "0x67ac7120",
          "transactionHash": "0x4806a936894cd552de68f98f38a8790555d826f46f34f1a46971874c26fcbf54",
          "transactionIndex": "0x8",
          "logIndex": "0x1d",
          "removed": false
        },
        {
          "address": "0xa05ed08316b03e73b8007ddfae841ab29f10b3c1",
          "topics": [
            "0xddf252ad1be2c89b69c2b068fc378daa952ba7f163c4a11628f55a4df523b3ef",
            "0x000000000000000000000000959d4521bd48b6487d415aad576af2222adb1a92",
            "0x000000000000000000000000753adc51cb6c70156a9e775ac56b40523920b532",
            "0x0000000000000000000000000000000000000000000000000000000000000027"
          ],
          "data": "0x",
          "blockHash": "0x36ce57784da563905875d37f0f912f0d09f5b9849d06b350305e2441cc3ba324",
          "blockNumber": "0x32eab5",
          "blockTimestamp": "0x67ac7120",
          "transactionHash": "0x4806a936894cd552de68f98f38a8790555d826f46f34f1a46971874c26fcbf54",
          "transactionIndex": "0x8",
          "logIndex": "0x1e",
          "removed": false
        },
        {
          "address": "0x959d4521bd48b6487d415aad576af2222adb1a92",
          "topics": [
            "0xdc3efdf28701077a23ef0beb0f3260ca639658ce2676bbc9d83030fac6ce5612",
            "0x000000000000000000000000645ef85b26a8ee16d4858725045900acab7de005",
            "0x0000000000000000000000000000000000000000000000000000000000000027"
          ],
          "data": "0x000000000000000000000000753adc51cb6c70156a9e775ac56b40523920b532000000000000000000000000753adc51cb6c70156a9e775ac56b40523920b53200000000000000000000000000000000000000000000028a857425466f80000000000000000000000000000000000000000000000000000000000001f257871c00000000000000000000000000000000000000000000000000000001dcd65000",
          "blockHash": "0x36ce57784da563905875d37f0f912f0d09f5b9849d06b350305e2441cc3ba324",
          "blockNumber": "0x32eab5",
          "blockTimestamp": "0x67ac7120",
          "transactionHash": "0x4806a936894cd552de68f98f38a8790555d826f46f34f1a46971874c26fcbf54",
          "transactionIndex": "0x8",
          "logIndex": "0x1f",
          "removed": false
        }
      ],
      "logsBloom": "0x000000000010100000000000000001000400040800000000000800000001000000020000000000002000280000000000010000000800200000000000022000000000000000000200400000080200000000c0000000001000000000000820000000140000020010040000480000000802000000000000080800000010000000200000000000006040000000000000000000000000008000000420000000000008030000000000000000000000000461000000000800008000020000010080000000000002005000000010000000000000000000000000400800000010100020000010001000000000000000100080000008008000000040000000080000002000",
      "type": "0x2",
      "transactionHash": "0x4806a936894cd552de68f98f38a8790555d826f46f34f1a46971874c26fcbf54",
      "transactionIndex": "0x8",
      "blockHash": "0x36ce57784da563905875d37f0f912f0d09f5b9849d06b350305e2441cc3ba324",
      "blockNumber": "0x32eab5",
      "gasUsed": "0xa0a90",
      "effectiveGasPrice": "0x1ef7fbb3",
      "from": "0x753adc51cb6c70156a9e775ac56b40523920b532",
      "to": "0x959d4521bd48b6487d415aad576af2222adb1a92",
      "contractAddress": null
    },
    {
      "status": "0x1",
      "cumulativeGasUsed": "0x5bdbb5",
      "logs": [
        {
          "address": "0x74e0709b2007bd0bede3e1c227088239a4df51f9",
          "topics": [
            "0x8c5be1e5ebec7d5bd14f71427d1e84f3dd0314c0f7b2291e5b200ac8c7c3b925",
            "0x000000000000000000000000753adc51cb6c70156a9e775ac56b40523920b532",
            "0x000000000000000000000000a05ed08316b03e73b8007ddfae841ab29f10b3c1"
          ],
          "data": "0x0000000000000000000000000000000000000000000000056bc75e2d63100000",
          "blockHash": "0x43c4e85d850aabd4d06da8fafc7ce3d4312f06819c2711da4d16b2febcc55148",
          "blockNumber": "0x32eab6",
          "blockTimestamp": "0x67ac712c",
          "transactionHash": "0x26e482fdb4c80aade058b67d4cf002c778de19c5cfbf21d7db2aea622ac0a50e",
          "transactionIndex": "0xf",
          "logIndex": "0xf",
          "removed": false
        }
      ],
      "logsBloom": "0x00000000000000000000000000000000000000000000000000000000000100000000000000000000000000000000000001000000000000000000000000200000000000000000000000000000000000000000000000000000000000000000000000000000000000040000000000000000000000000000000000000000000000000000000000000000000000000000000000000000000000000000000000000008030000000000000000000000000000000000000000000000000000000000000000000000000000000010000000000000000000000000000800000000000000000010001000000000000000000080000000000000000000000000000000000000",
      "type": "0x2",
      "transactionHash": "0x26e482fdb4c80aade058b67d4cf002c778de19c5cfbf21d7db2aea622ac0a50e",
      "transactionIndex": "0xf",
      "blockHash": "0x43c4e85d850aabd4d06da8fafc7ce3d4312f06819c2711da4d16b2febcc55148",
      "blockNumber": "0x32eab6",
      "gasUsed": "0xb385",
      "effectiveGasPrice": "0x1ef7fbb2",
      "from": "0x753adc51cb6c70156a9e775ac56b40523920b532",
      "to": "0x74e0709b2007bd0bede3e1c227088239a4df51f9",
      "contractAddress": null
    },
    {
      "status": "0x1",
      "cumulativeGasUsed": "0x2f0a24",
      "logs": [
        {
          "address": "0x74e0709b2007bd0bede3e1c227088239a4df51f9",
          "topics": [
            "0xddf252ad1be2c89b69c2b068fc378daa952ba7f163c4a11628f55a4df523b3ef",
            "0x000000000000000000000000753adc51cb6c70156a9e775ac56b40523920b532",
            "0x000000000000000000000000a05ed08316b03e73b8007ddfae841ab29f10b3c1"
          ],
          "data": "0x0000000000000000000000000000000000000000000000056bc75e2d63100000",
          "blockHash": "0x82e7d74ae1482a2b2306b897ae478669210f2be9a56b96b306e0db28a3cffb17",
          "blockNumber": "0x32eab7",
          "blockTimestamp": "0x67ac7138",
          "transactionHash": "0xbd2a976314b7c9c4cd4fdf1ba019ecc5968614332412bdb7db6113945d7c4a03",
          "transactionIndex": "0x11",
          "logIndex": "0x2a",
          "removed": false
        },
        {
          "address": "0xa05ed08316b03e73b8007ddfae841ab29f10b3c1",
          "topics": [
            "0x7f37e862f2ec2cbe9b0823e61188ca52475f1f16f43051e4b812dbf3089f550f",
            "0x0000000000000000000000000000000000000000000000000000000000000027"
          ],
          "data": "0x0000000000000000000000000000000000000000000000000000000000000020000000000000000000000000000000000000000000000000000000000000002000000000000000000000000000000000000000000000028ff13b8373d2900000",
          "blockHash": "0x82e7d74ae1482a2b2306b897ae478669210f2be9a56b96b306e0db28a3cffb17",
          "blockNumber": "0x32eab7",
          "blockTimestamp": "0x67ac7138",
          "transactionHash": "0xbd2a976314b7c9c4cd4fdf1ba019ecc5968614332412bdb7db6113945d7c4a03",
          "transactionIndex": "0x11",
          "logIndex": "0x2b",
          "removed": false
        }
      ],
      "logsBloom": "0x0000000000000000000000000000000000000000000000000000000000010000000a000000000000000000000000000001000000000000000000000000000000000000000000000000000008000000000000000000000000000000000020000000000000000000040000000000000002000000000000000000000010000000000000000000000000000000000000000000000000000000000400000000000008010000000000000000000000000000000000000000000000000000000000000000000002000000000010000000000000000000000000000900000000004000000000001000000000000000100080000008000000000000000000000000000000",
      "type": "0x2",
      "transactionHash": "0xbd2a976314b7c9c4cd4fdf1ba019ecc5968614332412bdb7db6113945d7c4a03",
      "transactionIndex": "0x11",
      "blockHash": "0x82e7d74ae1482a2b2306b897ae478669210f2be9a56b96b306e0db28a3cffb17",
      "blockNumber": "0x32eab7",
      "gasUsed": "0xf460",
      "effectiveGasPrice": "0x1ef7fbb2",
      "from": "0x753adc51cb6c70156a9e775ac56b40523920b532",
      "to": "0xa05ed08316b03e73b8007ddfae841ab29f10b3c1",
      "contractAddress": null
    },
    {
      "status": "0x1",
      "cumulativeGasUsed": "0x130198",
      "logs": [
        {
          "address": "0x74e0709b2007bd0bede3e1c227088239a4df51f9",
          "topics": [
            "0xddf252ad1be2c89b69c2b068fc378daa952ba7f163c4a11628f55a4df523b3ef",
            "0x000000000000000000000000a05ed08316b03e73b8007ddfae841ab29f10b3c1",
            "0x000000000000000000000000753adc51cb6c70156a9e775ac56b40523920b532"
          ],
          "data": "0x000000000000000000000000000000000000000000000002b5e3af16b1880000",
          "blockHash": "0xed15cfa9ebc8d4468946d8887ec54924b3fca1627630a7dca38bc047db540a83",
          "blockNumber": "0x32eab8",
          "blockTimestamp": "0x67ac7144",
          "transactionHash": "0x403b8b6ce186dd5f965fe27ec32c30617203369057387fd39d063a1f8b686db6",
          "transactionIndex": "0x7",
          "logIndex": "0x9",
          "removed": false
        },
        {
          "address": "0xa05ed08316b03e73b8007ddfae841ab29f10b3c1",
          "topics": [
            "0x3e7ef85cf4525ca474d34f21240567dc9e13acae18755ad3a51851dfa7b83407",
            "0x0000000000000000000000000000000000000000000000000000000000000027"
          ],
          "data": "0x0000000000000000000000000000000000000000000000000000000000000020000000000000000000000000000000000000000000000000000000000000002000000000000000000000000000000000000000000000028d3b57d45d21080000",
          "blockHash": "0xed15cfa9ebc8d4468946d8887ec54924b3fca1627630a7dca38bc047db540a83",
          "blockNumber": "0x32eab8",
          "blockTimestamp": "0x67ac7144",
          "transactionHash": "0x403b8b6ce186dd5f965fe27ec32c30617203369057387fd39d063a1f8b686db6",
          "transactionIndex": "0x7",
          "logIndex": "0xa",
          "removed": false
        }
      ],
      "logsBloom": "0x00000000000000000000000020000000000000000000000000000000000100000002000000000000000000000000000001000000000000000000000000000000000000000000000000000008000000000000000000000000000000000020000000000000010000040000000000000002000000000000000000000010000000000000000000000000000000000000000000000000000000000400000000000008010000000000000000000000000000000000000000000000000000000000000000000002000000000010000000000000000000000000000800000000000000000000001000000000000000100080000008000000000000000000000000004000",
      "type": "0x2",
      "transactionHash": "0x403b8b6ce186dd5f965fe27ec32c30617203369057387fd39d063a1f8b686db6",
      "transactionIndex": "0x7",
      "blockHash": "0xed15cfa9ebc8d4468946d8887ec54924b3fca1627630a7dca38bc047db540a83",
      "blockNumber": "0x32eab8",
      "gasUsed": "0x1eab3",
      "effectiveGasPrice": "0x1ef7fbb2",
      "from": "0x753adc51cb6c70156a9e775ac56b40523920b532",
      "to": "0xa05ed08316b03e73b8007ddfae841ab29f10b3c1",
      "contractAddress": null
    },
    {
      "status": "0x1",
      "cumulativeGasUsed": "0x1f4e7d",
      "logs": [
        {
          "address": "0x9445ba66bbdd3cdd48f9077536a05292f2c6d253",
          "topics": [
            "0x8c5be1e5ebec7d5bd14f71427d1e84f3dd0314c0f7b2291e5b200ac8c7c3b925",
            "0x000000000000000000000000753adc51cb6c70156a9e775ac56b40523920b532",
            "0x000000000000000000000000a05ed08316b03e73b8007ddfae841ab29f10b3c1"
          ],
          "data": "0x000000000000000000000000000000000000000000000000000000001dcd6500",
          "blockHash": "0xc9c9092ea4db8ebb7f734849391851a27a6cb64283b4c8d9d5593cbb16ddcda2",
          "blockNumber": "0x32eab9",
          "blockTimestamp": "0x67ac7150",
          "transactionHash": "0x1186112c3f06536cd4e5213c5e21d683d21d7f70a157ae5a69189d736587c7b3",
          "transactionIndex": "0xa",
          "logIndex": "0x17",
          "removed": false
        }
      ],
      "logsBloom": "0x00000000000000000000000000000000000000000000000000000000000000000000000000000000000000000000000000000000000000000000000000200000000000000000000000000000000000000000000000000000000000000000000000000000000000040000000000000000000000000000000000000000000000000000000000000000000000000000000000000000000000000000000000000008020000000000000000000000000400000000000800000000000000000080000000000000000000000010000000000000000000000000000800000000000000000010001000000000000000000080000000000000000000000000000000000000",
      "type": "0x2",
      "transactionHash": "0x1186112c3f06536cd4e5213c5e21d683d21d7f70a157ae5a69189d736587c7b3",
      "transactionIndex": "0xa",
      "blockHash": "0xc9c9092ea4db8ebb7f734849391851a27a6cb64283b4c8d9d5593cbb16ddcda2",
      "blockNumber": "0x32eab9",
      "gasUsed": "0xb355",
      "effectiveGasPrice": "0x1ef7fbb2",
      "from": "0x753adc51cb6c70156a9e775ac56b40523920b532",
      "to": "0x9445ba66bbdd3cdd48f9077536a05292f2c6d253",
      "contractAddress": null
    },
    {
      "status": "0x1",
      "cumulativeGasUsed": "0x39db87",
      "logs": [
        {
          "address": "0x9445ba66bbdd3cdd48f9077536a05292f2c6d253",
          "topics": [
            "0xddf252ad1be2c89b69c2b068fc378daa952ba7f163c4a11628f55a4df523b3ef",
            "0x000000000000000000000000753adc51cb6c70156a9e775ac56b40523920b532",
            "0x000000000000000000000000645ef85b26a8ee16d4858725045900acab7de005"
          ],
          "data": "0x000000000000000000000000000000000000000000000000000000001dcd6500",
          "blockHash": "0x248d1430ed60091d96b06a5ee1b8a2e62359bee79c918e5c7eab35af835357f9",
          "blockNumber": "0x32eaba",
          "blockTimestamp": "0x67ac715c",
          "transactionHash": "0x6583ea3ee777c502d1d4a23795a6b0d28fc0cb5538271f15e9fea47cf8e18a30",
          "transactionIndex": "0x15",
          "logIndex": "0x19",
          "removed": false
        },
        {
          "address": "0xa05ed08316b03e73b8007ddfae841ab29f10b3c1",
          "topics": [
            "0x1efbe429bb48635fd7ce810da2f114c950d5bbd6b891af243520cdb08ca9aa67",
            "0x0000000000000000000000000000000000000000000000000000000000000027"
          ],
          "data": "0x000000000000000000000000000000000000000000000000000000001dcd65000000000000000000000000000000000000000000000000000000000000000001",
          "blockHash": "0x248d1430ed60091d96b06a5ee1b8a2e62359bee79c918e5c7eab35af835357f9",
          "blockNumber": "0x32eaba",
          "blockTimestamp": "0x67ac715c",
          "transactionHash": "0x6583ea3ee777c502d1d4a23795a6b0d28fc0cb5538271f15e9fea47cf8e18a30",
          "transactionIndex": "0x15",
          "logIndex": "0x1a",
          "removed": false
        }
      ],
      "logsBloom": "0x00000000000000000000000000000000000000000000000000000000000000000002000000000000000000000000000000000000000000000000000000000000000000000000000000000008000000000000000000000000000000000020000000000000000000040000000000000002000000000000080000000010000000000000000000000000000000000000000000000000008000000400000000000008000000000000000000000000000400000000000800000000000000000080000000000002004000000000000000000000000000000000400000000000000000000000000000000000000000100080000008008000000040000000000000000000",
      "type": "0x2",
      "transactionHash": "0x6583ea3ee777c502d1d4a23795a6b0d28fc0cb5538271f15e9fea47cf8e18a30",
      "transactionIndex": "0x15",
      "blockHash": "0x248d1430ed60091d96b06a5ee1b8a2e62359bee79c918e5c7eab35af835357f9",
      "blockNumber": "0x32eaba",
      "gasUsed": "0x10e82",
      "effectiveGasPrice": "0x1ef7fbb2",
      "from": "0x753adc51cb6c70156a9e775ac56b40523920b532",
      "to": "0xa05ed08316b03e73b8007ddfae841ab29f10b3c1",
      "contractAddress": null
    },
    {
      "status": "0x1",
      "cumulativeGasUsed": "0x4b5052",
      "logs": [
        {
          "address": "0xa05ed08316b03e73b8007ddfae841ab29f10b3c1",
          "topics": [
            "0xddf252ad1be2c89b69c2b068fc378daa952ba7f163c4a11628f55a4df523b3ef",
            "0x000000000000000000000000753adc51cb6c70156a9e775ac56b40523920b532",
            "0x0000000000000000000000002a7880cddc306bd3ad45dc0158bd70decfc746dc",
            "0x0000000000000000000000000000000000000000000000000000000000000027"
          ],
          "data": "0x",
          "blockHash": "0xa1e7eb5c4e8ce653c577bdf177e0c753c68ddf2cb4f9304a83e56b1f30eb36fd",
          "blockNumber": "0x32eabb",
          "blockTimestamp": "0x67ac7168",
          "transactionHash": "0xd925854fc9e6b86865406a2711b3df7d4866ba82921e64465aa927a979708dcf",
          "transactionIndex": "0xc",
          "logIndex": "0x2a",
          "removed": false
        }
      ],
      "logsBloom": "0x00000000000000000000000000000000000000000000000000000000000000000002000000000000000000000000000000000000000000000000000000004000000000000000000000000008000000000000000000000000000000000020000000000000000000040000000000000002000000000000000000000110000000000000000000000000000000000000800000000000000000000400000000000008000000000000000000000000000000000000000000000000000000000000000000000002000000000000000000000000000000000000000000000000000000000000000000000000000000100080000008000000000000000000000000000000",
      "type": "0x2",
      "transactionHash": "0xd925854fc9e6b86865406a2711b3df7d4866ba82921e64465aa927a979708dcf",
      "transactionIndex": "0xc",
      "blockHash": "0xa1e7eb5c4e8ce653c577bdf177e0c753c68ddf2cb4f9304a83e56b1f30eb36fd",
      "blockNumber": "0x32eabb",
      "gasUsed": "0x145cf",
      "effectiveGasPrice": "0x1ef7fbb2",
      "from": "0x753adc51cb6c70156a9e775ac56b40523920b532",
      "to": "0xa05ed08316b03e73b8007ddfae841ab29f10b3c1",
      "contractAddress": null
    },
    {
      "status": "0x1",
      "cumulativeGasUsed": "0x5e15ea",
      "logs": [
        {
          "address": "0x9445ba66bbdd3cdd48f9077536a05292f2c6d253",
          "topics": [
            "0x8c5be1e5ebec7d5bd14f71427d1e84f3dd0314c0f7b2291e5b200ac8c7c3b925",
            "0x000000000000000000000000753adc51cb6c70156a9e775ac56b40523920b532",
            "0x000000000000000000000000959d4521bd48b6487d415aad576af2222adb1a92"
          ],
          "data": "0x00000000000000000000000000000000000000000000000000000004a854d100",
          "blockHash": "0x46a86dbbc718653c75d02d3e4c6251908205e6af5bd5c9636904cb809b40b943",
          "blockNumber": "0x32eabc",
          "blockTimestamp": "0x67ac7174",
          "transactionHash": "0x57c372860eb311efb014b41ea86b45232f17fe8d06df3d9359870b9ed64c87de",
          "transactionIndex": "0xb",
          "logIndex": "0x9",
          "removed": false
        }
      ],
      "logsBloom": "0x00000000000000000000000000000000000000000000000000000000000000000000000000000000000020000000000000000000000000000000000000200000000000000000000000000000000000000000000000000000000000000000000000100000000010040000000000000000000000000000000000000000000000000000000000000000000000000000000000000000000000000000000000000008020000000000000000000000000400000000000800000000000000000080000000000000000000000000000000000000000000000000000000000000000000000010000000000000000000000080000000000000000000000000000000000000",
      "type": "0x2",
      "transactionHash": "0x57c372860eb311efb014b41ea86b45232f17fe8d06df3d9359870b9ed64c87de",
      "transactionIndex": "0xb",
      "blockHash": "0x46a86dbbc718653c75d02d3e4c6251908205e6af5bd5c9636904cb809b40b943",
      "blockNumber": "0x32eabc",
      "gasUsed": "0xb36d",
      "effectiveGasPrice": "0x1ef7fbb2",
      "from": "0x753adc51cb6c70156a9e775ac56b40523920b532",
      "to": "0x9445ba66bbdd3cdd48f9077536a05292f2c6d253",
      "contractAddress": null
    },
    {
      "status": "0x1",
      "cumulativeGasUsed": "0x1fe6c9",
      "logs": [
        {
          "address": "0x9445ba66bbdd3cdd48f9077536a05292f2c6d253",
          "topics": [
            "0xddf252ad1be2c89b69c2b068fc378daa952ba7f163c4a11628f55a4df523b3ef",
            "0x000000000000000000000000753adc51cb6c70156a9e775ac56b40523920b532",
            "0x000000000000000000000000959d4521bd48b6487d415aad576af2222adb1a92"
          ],
          "data": "0x00000000000000000000000000000000000000000000000000000004a854d100",
          "blockHash": "0xf5811f91d71e2f472738be0d3b8915e9ebb4b0b57f4083ffe26bc0fee0f863a3",
          "blockNumber": "0x32eabd",
          "blockTimestamp": "0x67ac7180",
          "transactionHash": "0xe9ec46538526755910e5fc0909f4bd1b6c517b0eec5e05ab46bfeab86b1aec07",
          "transactionIndex": "0x9",
          "logIndex": "0xd",
          "removed": false
        },
        {
          "address": "0x9445ba66bbdd3cdd48f9077536a05292f2c6d253",
          "topics": [
            "0x8c5be1e5ebec7d5bd14f71427d1e84f3dd0314c0f7b2291e5b200ac8c7c3b925",
            "0x000000000000000000000000959d4521bd48b6487d415aad576af2222adb1a92",
            "0x000000000000000000000000031fecf98032ab1b2601b32cd9487b1aabae573c"
          ],
          "data": "0x00000000000000000000000000000000000000000000000000000000003d0900",
          "blockHash": "0xf5811f91d71e2f472738be0d3b8915e9ebb4b0b57f4083ffe26bc0fee0f863a3",
          "blockNumber": "0x32eabd",
          "blockTimestamp": "0x67ac7180",
          "transactionHash": "0xe9ec46538526755910e5fc0909f4bd1b6c517b0eec5e05ab46bfeab86b1aec07",
          "transactionIndex": "0x9",
          "logIndex": "0xe",
          "removed": false
        },
        {
          "address": "0x9445ba66bbdd3cdd48f9077536a05292f2c6d253",
          "topics": [
            "0xddf252ad1be2c89b69c2b068fc378daa952ba7f163c4a11628f55a4df523b3ef",
            "0x000000000000000000000000959d4521bd48b6487d415aad576af2222adb1a92",
            "0x000000000000000000000000031fecf98032ab1b2601b32cd9487b1aabae573c"
          ],
          "data": "0x00000000000000000000000000000000000000000000000000000000003d0900",
          "blockHash": "0xf5811f91d71e2f472738be0d3b8915e9ebb4b0b57f4083ffe26bc0fee0f863a3",
          "blockNumber": "0x32eabd",
          "blockTimestamp": "0x67ac7180",
          "transactionHash": "0xe9ec46538526755910e5fc0909f4bd1b6c517b0eec5e05ab46bfeab86b1aec07",
          "transactionIndex": "0x9",
          "logIndex": "0xf",
          "removed": false
        },
        {
          "address": "0x9445ba66bbdd3cdd48f9077536a05292f2c6d253",
          "topics": [
            "0x8c5be1e5ebec7d5bd14f71427d1e84f3dd0314c0f7b2291e5b200ac8c7c3b925",
            "0x000000000000000000000000031fecf98032ab1b2601b32cd9487b1aabae573c",
            "0x000000000000000000000000645ef85b26a8ee16d4858725045900acab7de005"
          ],
          "data": "0x00000000000000000000000000000000000000000000000000000000003d0900",
          "blockHash": "0xf5811f91d71e2f472738be0d3b8915e9ebb4b0b57f4083ffe26bc0fee0f863a3",
          "blockNumber": "0x32eabd",
          "blockTimestamp": "0x67ac7180",
          "transactionHash": "0xe9ec46538526755910e5fc0909f4bd1b6c517b0eec5e05ab46bfeab86b1aec07",
          "transactionIndex": "0x9",
          "logIndex": "0x10",
          "removed": false
        },
        {
          "address": "0x9445ba66bbdd3cdd48f9077536a05292f2c6d253",
          "topics": [
            "0xddf252ad1be2c89b69c2b068fc378daa952ba7f163c4a11628f55a4df523b3ef",
            "0x000000000000000000000000031fecf98032ab1b2601b32cd9487b1aabae573c",
            "0x000000000000000000000000645ef85b26a8ee16d4858725045900acab7de005"
          ],
          "data": "0x00000000000000000000000000000000000000000000000000000000003d0900",
          "blockHash": "0xf5811f91d71e2f472738be0d3b8915e9ebb4b0b57f4083ffe26bc0fee0f863a3",
          "blockNumber": "0x32eabd",
          "blockTimestamp": "0x67ac7180",
          "transactionHash": "0xe9ec46538526755910e5fc0909f4bd1b6c517b0eec5e05ab46bfeab86b1aec07",
          "transactionIndex": "0x9",
          "logIndex": "0x11",
          "removed": false
        },
        {
          "address": "0xaaf7c47b8f06d2532eeca6cb4d89bf1487808d33",
          "topics": [
            "0xddf252ad1be2c89b69c2b068fc378daa952ba7f163c4a11628f55a4df523b3ef",
            "0x0000000000000000000000000000000000000000000000000000000000000000",
            "0x000000000000000000000000031fecf98032ab1b2601b32cd9487b1aabae573c"
          ],
          "data": "0x00000000000000000000000000000000000000000000000000000000003d0900",
          "blockHash": "0xf5811f91d71e2f472738be0d3b8915e9ebb4b0b57f4083ffe26bc0fee0f863a3",
          "blockNumber": "0x32eabd",
          "blockTimestamp": "0x67ac7180",
          "transactionHash": "0xe9ec46538526755910e5fc0909f4bd1b6c517b0eec5e05ab46bfeab86b1aec07",
          "transactionIndex": "0x9",
          "logIndex": "0x12",
          "removed": false
        },
        {
          "address": "0x6c29de485455c46987c52abe867b6f276a1aae02",
          "topics": [
            "0xddf252ad1be2c89b69c2b068fc378daa952ba7f163c4a11628f55a4df523b3ef",
            "0x0000000000000000000000000000000000000000000000000000000000000000",
            "0x000000000000000000000000031fecf98032ab1b2601b32cd9487b1aabae573c"
          ],
          "data": "0x00000000000000000000000000000000000000000000000000000000003d0900",
          "blockHash": "0xf5811f91d71e2f472738be0d3b8915e9ebb4b0b57f4083ffe26bc0fee0f863a3",
          "blockNumber": "0x32eabd",
          "blockTimestamp": "0x67ac7180",
          "transactionHash": "0xe9ec46538526755910e5fc0909f4bd1b6c517b0eec5e05ab46bfeab86b1aec07",
          "transactionIndex": "0x9",
          "logIndex": "0x13",
          "removed": false
        },
        {
          "address": "0x645ef85b26a8ee16d4858725045900acab7de005",
          "topics": [
            "0xab8530f87dc9b59234c4623bf917212bb2536d647574c8e7e5da92c2ede0c9f8",
            "0x000000000000000000000000031fecf98032ab1b2601b32cd9487b1aabae573c",
            "0x000000000000000000000000031fecf98032ab1b2601b32cd9487b1aabae573c"
          ],
          "data": "0x00000000000000000000000000000000000000000000000000000000003d0900",
          "blockHash": "0xf5811f91d71e2f472738be0d3b8915e9ebb4b0b57f4083ffe26bc0fee0f863a3",
          "blockNumber": "0x32eabd",
          "blockTimestamp": "0x67ac7180",
          "transactionHash": "0xe9ec46538526755910e5fc0909f4bd1b6c517b0eec5e05ab46bfeab86b1aec07",
          "transactionIndex": "0x9",
          "logIndex": "0x14",
          "removed": false
        },
        {
          "address": "0x6c29de485455c46987c52abe867b6f276a1aae02",
          "topics": [
            "0xddf252ad1be2c89b69c2b068fc378daa952ba7f163c4a11628f55a4df523b3ef",
            "0x000000000000000000000000031fecf98032ab1b2601b32cd9487b1aabae573c",
            "0x000000000000000000000000959d4521bd48b6487d415aad576af2222adb1a92"
          ],
          "data": "0x00000000000000000000000000000000000000000000000000000000058b479b",
          "blockHash": "0xf5811f91d71e2f472738be0d3b8915e9ebb4b0b57f4083ffe26bc0fee0f863a3",
          "blockNumber": "0x32eabd",
          "blockTimestamp": "0x67ac7180",
          "transactionHash": "0xe9ec46538526755910e5fc0909f4bd1b6c517b0eec5e05ab46bfeab86b1aec07",
          "transactionIndex": "0x9",
          "logIndex": "0x15",
          "removed": false
        },
        {
          "address": "0xaaf7c47b8f06d2532eeca6cb4d89bf1487808d33",
          "topics": [
            "0xddf252ad1be2c89b69c2b068fc378daa952ba7f163c4a11628f55a4df523b3ef",
            "0x000000000000000000000000031fecf98032ab1b2601b32cd9487b1aabae573c",
            "0x0000000000000000000000007ab945445958819a74b48e8bd5f9e39ed74bde9e"
          ],
          "data": "0x00000000000000000000000000000000000000000000000000000000000184af",
          "blockHash": "0xf5811f91d71e2f472738be0d3b8915e9ebb4b0b57f4083ffe26bc0fee0f863a3",
          "blockNumber": "0x32eabd",
          "blockTimestamp": "0x67ac7180",
          "transactionHash": "0xe9ec46538526755910e5fc0909f4bd1b6c517b0eec5e05ab46bfeab86b1aec07",
          "transactionIndex": "0x9",
          "logIndex": "0x16",
          "removed": false
        },
        {
          "address": "0x031fecf98032ab1b2601b32cd9487b1aabae573c",
          "topics": [
            "0xafc472950ba0847ac0541a7d71ad9977d695e4dba0cc223dba88d5fa8609732a",
            "0x0000000000000000000000009445ba66bbdd3cdd48f9077536a05292f2c6d253",
            "0x0000000000000000000000006c29de485455c46987c52abe867b6f276a1aae02"
          ],
          "data": "0x000000000000000000000000959d4521bd48b6487d415aad576af2222adb1a92000000000000000000000000959d4521bd48b6487d415aad576af2222adb1a9200000000000000000000000000000000000000000000000000000000003d090000000000000000000000000000000000000000000000000000000000058b479b00000000000000000000000000000000000000000000000000000000000184af",
          "blockHash": "0xf5811f91d71e2f472738be0d3b8915e9ebb4b0b57f4083ffe26bc0fee0f863a3",
          "blockNumber": "0x32eabd",
          "blockTimestamp": "0x67ac7180",
          "transactionHash": "0xe9ec46538526755910e5fc0909f4bd1b6c517b0eec5e05ab46bfeab86b1aec07",
          "transactionIndex": "0x9",
          "logIndex": "0x17",
          "removed": false
        },
        {
          "address": "0x6c29de485455c46987c52abe867b6f276a1aae02",
          "topics": [
            "0x8c5be1e5ebec7d5bd14f71427d1e84f3dd0314c0f7b2291e5b200ac8c7c3b925",
            "0x000000000000000000000000959d4521bd48b6487d415aad576af2222adb1a92",
            "0x000000000000000000000000645ef85b26a8ee16d4858725045900acab7de005"
          ],
          "data": "0x00000000000000000000000000000000000000000000000000000000058b479b",
          "blockHash": "0xf5811f91d71e2f472738be0d3b8915e9ebb4b0b57f4083ffe26bc0fee0f863a3",
          "blockNumber": "0x32eabd",
          "blockTimestamp": "0x67ac7180",
          "transactionHash": "0xe9ec46538526755910e5fc0909f4bd1b6c517b0eec5e05ab46bfeab86b1aec07",
          "transactionIndex": "0x9",
          "logIndex": "0x18",
          "removed": false
        },
        {
          "address": "0x6c29de485455c46987c52abe867b6f276a1aae02",
          "topics": [
            "0xddf252ad1be2c89b69c2b068fc378daa952ba7f163c4a11628f55a4df523b3ef",
            "0x000000000000000000000000959d4521bd48b6487d415aad576af2222adb1a92",
            "0x000000000000000000000000645ef85b26a8ee16d4858725045900acab7de005"
          ],
          "data": "0x00000000000000000000000000000000000000000000000000000000058b479b",
          "blockHash": "0xf5811f91d71e2f472738be0d3b8915e9ebb4b0b57f4083ffe26bc0fee0f863a3",
          "blockNumber": "0x32eabd",
          "blockTimestamp": "0x67ac7180",
          "transactionHash": "0xe9ec46538526755910e5fc0909f4bd1b6c517b0eec5e05ab46bfeab86b1aec07",
          "transactionIndex": "0x9",
          "logIndex": "0x19",
          "removed": false
        },
        {
          "address": "0x9445ba66bbdd3cdd48f9077536a05292f2c6d253",
          "topics": [
            "0xddf252ad1be2c89b69c2b068fc378daa952ba7f163c4a11628f55a4df523b3ef",
            "0x000000000000000000000000645ef85b26a8ee16d4858725045900acab7de005",
            "0x000000000000000000000000959d4521bd48b6487d415aad576af2222adb1a92"
          ],
          "data": "0x00000000000000000000000000000000000000000000000000000000058b479b",
          "blockHash": "0xf5811f91d71e2f472738be0d3b8915e9ebb4b0b57f4083ffe26bc0fee0f863a3",
          "blockNumber": "0x32eabd",
          "blockTimestamp": "0x67ac7180",
          "transactionHash": "0xe9ec46538526755910e5fc0909f4bd1b6c517b0eec5e05ab46bfeab86b1aec07",
          "transactionIndex": "0x9",
          "logIndex": "0x1a",
          "removed": false
        },
        {
          "address": "0x9445ba66bbdd3cdd48f9077536a05292f2c6d253",
          "topics": [
            "0xddf252ad1be2c89b69c2b068fc378daa952ba7f163c4a11628f55a4df523b3ef",
            "0x000000000000000000000000959d4521bd48b6487d415aad576af2222adb1a92",
            "0x000000000000000000000000e355d5d8aa52ef0fbbd037c4a3c5e6fd659cf46b"
          ],
          "data": "0x00000000000000000000000000000000000000000000000000000004ada30f9b",
          "blockHash": "0xf5811f91d71e2f472738be0d3b8915e9ebb4b0b57f4083ffe26bc0fee0f863a3",
          "blockNumber": "0x32eabd",
          "blockTimestamp": "0x67ac7180",
          "transactionHash": "0xe9ec46538526755910e5fc0909f4bd1b6c517b0eec5e05ab46bfeab86b1aec07",
          "transactionIndex": "0x9",
          "logIndex": "0x1b",
          "removed": false
        },
        {
          "address": "0x74e0709b2007bd0bede3e1c227088239a4df51f9",
          "topics": [
            "0xddf252ad1be2c89b69c2b068fc378daa952ba7f163c4a11628f55a4df523b3ef",
            "0x0000000000000000000000000000000000000000000000000000000000000000",
            "0x000000000000000000000000959d4521bd48b6487d415aad576af2222adb1a92"
          ],
          "data": "0x00000000000000000000000000000000000000000000049ff61ccf11506387a6",
          "blockHash": "0xf5811f91d71e2f472738be0d3b8915e9ebb4b0b57f4083ffe26bc0fee0f863a3",
          "blockNumber": "0x32eabd",
          "blockTimestamp": "0x67ac7180",
          "transactionHash": "0xe9ec46538526755910e5fc0909f4bd1b6c517b0eec5e05ab46bfeab86b1aec07",
          "transactionIndex": "0x9",
          "logIndex": "0x1c",
          "removed": false
        },
        {
          "address": "0x74e0709b2007bd0bede3e1c227088239a4df51f9",
          "topics": [
            "0x8c5be1e5ebec7d5bd14f71427d1e84f3dd0314c0f7b2291e5b200ac8c7c3b925",
            "0x000000000000000000000000959d4521bd48b6487d415aad576af2222adb1a92",
            "0x000000000000000000000000a05ed08316b03e73b8007ddfae841ab29f10b3c1"
          ],
          "data": "0x00000000000000000000000000000000000000000000049ff61ccf11506387a6",
          "blockHash": "0xf5811f91d71e2f472738be0d3b8915e9ebb4b0b57f4083ffe26bc0fee0f863a3",
          "blockNumber": "0x32eabd",
          "blockTimestamp": "0x67ac7180",
          "transactionHash": "0xe9ec46538526755910e5fc0909f4bd1b6c517b0eec5e05ab46bfeab86b1aec07",
          "transactionIndex": "0x9",
          "logIndex": "0x1d",
          "removed": false
        },
        {
          "address": "0x74e0709b2007bd0bede3e1c227088239a4df51f9",
          "topics": [
            "0xddf252ad1be2c89b69c2b068fc378daa952ba7f163c4a11628f55a4df523b3ef",
            "0x000000000000000000000000959d4521bd48b6487d415aad576af2222adb1a92",
            "0x000000000000000000000000a05ed08316b03e73b8007ddfae841ab29f10b3c1"
          ],
          "data": "0x00000000000000000000000000000000000000000000049ff61ccf11506387a6",
          "blockHash": "0xf5811f91d71e2f472738be0d3b8915e9ebb4b0b57f4083ffe26bc0fee0f863a3",
          "blockNumber": "0x32eabd",
          "blockTimestamp": "0x67ac7180",
          "transactionHash": "0xe9ec46538526755910e5fc0909f4bd1b6c517b0eec5e05ab46bfeab86b1aec07",
          "transactionIndex": "0x9",
          "logIndex": "0x1e",
          "removed": false
        },
        {
          "address": "0xa05ed08316b03e73b8007ddfae841ab29f10b3c1",
          "topics": [
            "0xddf252ad1be2c89b69c2b068fc378daa952ba7f163c4a11628f55a4df523b3ef",
            "0x0000000000000000000000000000000000000000000000000000000000000000",
            "0x000000000000000000000000753adc51cb6c70156a9e775ac56b40523920b532",
            "0x0000000000000000000000000000000000000000000000000000000000000028"
          ],
          "data": "0x",
          "blockHash": "0xf5811f91d71e2f472738be0d3b8915e9ebb4b0b57f4083ffe26bc0fee0f863a3",
          "blockNumber": "0x32eabd",
          "blockTimestamp": "0x67ac7180",
          "transactionHash": "0xe9ec46538526755910e5fc0909f4bd1b6c517b0eec5e05ab46bfeab86b1aec07",
          "transactionIndex": "0x9",
          "logIndex": "0x1f",
          "removed": false
        },
        {
          "address": "0x6c29de485455c46987c52abe867b6f276a1aae02",
          "topics": [
            "0xddf252ad1be2c89b69c2b068fc378daa952ba7f163c4a11628f55a4df523b3ef",
            "0x000000000000000000000000645ef85b26a8ee16d4858725045900acab7de005",
            "0x0000000000000000000000000000000000000000000000000000000000000000"
          ],
          "data": "0x00000000000000000000000000000000000000000000000000000000058b479b",
          "blockHash": "0xf5811f91d71e2f472738be0d3b8915e9ebb4b0b57f4083ffe26bc0fee0f863a3",
          "blockNumber": "0x32eabd",
          "blockTimestamp": "0x67ac7180",
          "transactionHash": "0xe9ec46538526755910e5fc0909f4bd1b6c517b0eec5e05ab46bfeab86b1aec07",
          "transactionIndex": "0x9",
          "logIndex": "0x20",
          "removed": false
        },
        {
          "address": "0x645ef85b26a8ee16d4858725045900acab7de005",
          "topics": [
            "0x4251709b90c9773e824a607f0c0745f9e4cc7080748151668f30d708cd3a04e6",
            "0x000000000000000000000000959d4521bd48b6487d415aad576af2222adb1a92",
            "0x000000000000000000000000753adc51cb6c70156a9e775ac56b40523920b532",
            "0x0000000000000000000000000000000000000000000000000000000000000028"
          ],
          "data": "0x00000000000000000000000000000000000000000000000000000000058b479b0000000000000000000000000000000000000000000000000000000000000040000000000000000000000000000000000000000000000000000000000000002000000000000000000000000000000000000000000000049ff61ccf11506387a6",
          "blockHash": "0xf5811f91d71e2f472738be0d3b8915e9ebb4b0b57f4083ffe26bc0fee0f863a3",
          "blockNumber": "0x32eabd",
          "blockTimestamp": "0x67ac7180",
          "transactionHash": "0xe9ec46538526755910e5fc0909f4bd1b6c517b0eec5e05ab46bfeab86b1aec07",
          "transactionIndex": "0x9",
          "logIndex": "0x21",
          "removed": false
        },
        {
          "address": "0x959d4521bd48b6487d415aad576af2222adb1a92",
          "topics": [
            "0x6cc7689f3960393f975bc636577345ee34fd6fd0b516b15c923e7885e518b098",
            "0x000000000000000000000000645ef85b26a8ee16d4858725045900acab7de005",
            "0x0000000000000000000000000000000000000000000000000000000000000028"
          ],
          "data": "0x000000000000000000000000753adc51cb6c70156a9e775ac56b40523920b532000000000000000000000000753adc51cb6c70156a9e775ac56b40523920b53200000000000000000000000000000000000000000000000000000004a817c80000000000000000000000000000000000000000000000000000000000058b479b000000000000000000000000000000000000000000000000000000000007104400000000000000000000000000000000000000000000000000000000000000c0000000000000000000000000000000000000000000000000000000000000002000000000000000000000000000000000000000000000049ff61ccf11506387a6",
          "blockHash": "0xf5811f91d71e2f472738be0d3b8915e9ebb4b0b57f4083ffe26bc0fee0f863a3",
          "blockNumber": "0x32eabd",
          "blockTimestamp": "0x67ac7180",
          "transactionHash": "0xe9ec46538526755910e5fc0909f4bd1b6c517b0eec5e05ab46bfeab86b1aec07",
          "transactionIndex": "0x9",
          "logIndex": "0x22",
          "removed": false
        }
      ],
      "logsBloom": "0x02000000001000000000100000000000040004080000000000000100400100000008000000000000200028000000000001000000080000000000000002200000000000000000000040000008020000000040080000001000000001000820000000160040020010040000080000000802000000000000080000000010000000000000010000002040000000000000000200000000000000000400000000000008030000200100000000000000000421000000000800008000000000010080000000000002004000000010000000000000010020000000000800000018100020000010001000000020000000000080000000000000000840000000000000006000",
      "type": "0x2",
      "transactionHash": "0xe9ec46538526755910e5fc0909f4bd1b6c517b0eec5e05ab46bfeab86b1aec07",
      "transactionIndex": "0x9",
      "blockHash": "0xf5811f91d71e2f472738be0d3b8915e9ebb4b0b57f4083ffe26bc0fee0f863a3",
      "blockNumber": "0x32eabd",
      "gasUsed": "0xa3dd7",
      "effectiveGasPrice": "0x1ef7fbb2",
      "from": "0x753adc51cb6c70156a9e775ac56b40523920b532",
      "to": "0x959d4521bd48b6487d415aad576af2222adb1a92",
      "contractAddress": null
    }
  ],
  "libraries": [],
  "pending": [],
  "returns": {},
  "timestamp": 1739354499,
  "chain": 17000,
  "commit": "4520dd7"
}