{
  "transactions": [
    {
      "hash": "0x7dcaed9959fbc9289b52f4e56a417e82c13f0fa261fb26d5e874cdc934ba95bb",
      "transactionType": "CALL",
      "contractName": null,
      "contractAddress": "0x5ada709210846da33e3866490eafb90b7ea96f7f",
      "function": "devMint(address,address,uint256)",
      "arguments": [
        "0xE355d5D8aa52EF0FbbD037C4a3C5E6Fd659cf46B",
        "0x9445Ba66bBDd3Cdd48f9077536a05292f2C6D253",
        "100000000000"
      ],
      "transaction": {
        "from": "0xe355d5d8aa52ef0fbbd037c4a3c5e6fd659cf46b",
        "to": "0x5ada709210846da33e3866490eafb90b7ea96f7f",
        "gas": "0xe2ed",
        "value": "0x0",
        "input": "0x40ddd06e000000000000000000000000e355d5d8aa52ef0fbbd037c4a3c5e6fd659cf46b0000000000000000000000009445ba66bbdd3cdd48f9077536a05292f2c6d253000000000000000000000000000000000000000000000000000000174876e800",
        "nonce": "0x2de",
        "chainId": "0x4268"
      },
      "additionalContracts": [],
      "isFixedGasLimit": false
    },
    {
      "hash": "0x125269a8146d7346f33a255a727d59e78f6fe0b594d9465d226932d7e1af665d",
      "transactionType": "CALL",
      "contractName": null,
      "contractAddress": "0x9445ba66bbdd3cdd48f9077536a05292f2c6d253",
      "function": "approve(address,uint256)",
      "arguments": [
        "0x645ef85B26A8eE16D4858725045900ACAb7DE005",
        "100000000000"
      ],
      "transaction": {
        "from": "0xe355d5d8aa52ef0fbbd037c4a3c5e6fd659cf46b",
        "to": "0x9445ba66bbdd3cdd48f9077536a05292f2c6d253",
        "gas": "0x10657",
        "value": "0x0",
        "input": "0x095ea7b3000000000000000000000000645ef85b26a8ee16d4858725045900acab7de005000000000000000000000000000000000000000000000000000000174876e800",
        "nonce": "0x2df",
        "chainId": "0x4268"
      },
      "additionalContracts": [],
      "isFixedGasLimit": false
    },
    {
      "hash": "0x60130331c028646dfe7afc1dd89cd109e94e99aeba1dc606312b9fbb89f64d53",
      "transactionType": "CALL",
      "contractName": null,
      "contractAddress": "0x645ef85b26a8ee16d4858725045900acab7de005",
      "function": "mint(address,uint256)",
      "arguments": [
        "0x031FEcF98032Ab1B2601B32cD9487B1AaBAE573C",
        "100000000000"
      ],
      "transaction": {
        "from": "0xe355d5d8aa52ef0fbbd037c4a3c5e6fd659cf46b",
        "to": "0x645ef85b26a8ee16d4858725045900acab7de005",
        "gas": "0x1edeb",
        "value": "0x0",
        "input": "0x40c10f19000000000000000000000000031fecf98032ab1b2601b32cd9487b1aabae573c000000000000000000000000000000000000000000000000000000174876e800",
        "nonce": "0x2e0",
        "chainId": "0x4268"
      },
      "additionalContracts": [],
      "isFixedGasLimit": false
    },
    {
      "hash": "0x4e038eeb3c9f8d64fd0accd5c2832219874877e46a3882f0e25c7f7939b7e5b1",
      "transactionType": "CALL",
      "contractName": null,
      "contractAddress": "0x5ada709210846da33e3866490eafb90b7ea96f7f",
      "function": "devMint(address,address,uint256)",
      "arguments": [
        "0x753aDC51cB6C70156a9e775Ac56B40523920B532",
        "0x9445Ba66bBDd3Cdd48f9077536a05292f2C6D253",
        "21504000000"
      ],
      "transaction": {
        "from": "0xe355d5d8aa52ef0fbbd037c4a3c5e6fd659cf46b",
        "to": "0x5ada709210846da33e3866490eafb90b7ea96f7f",
        "gas": "0x1448c",
        "value": "0x0",
        "input": "0x40ddd06e000000000000000000000000753adc51cb6c70156a9e775ac56b40523920b5320000000000000000000000009445ba66bbdd3cdd48f9077536a05292f2c6d2530000000000000000000000000000000000000000000000000000000501bd0000",
        "nonce": "0x2e1",
        "chainId": "0x4268"
      },
      "additionalContracts": [],
      "isFixedGasLimit": false
    },
    {
      "hash": "0xae1fd10e8ad9f524dc838617d7b9830bdd35f9390555982b372a5a7148f32532",
      "transactionType": "CALL",
      "contractName": null,
      "contractAddress": "0x5ada709210846da33e3866490eafb90b7ea96f7f",
      "function": "devMint(address,address,uint256)",
      "arguments": [
        "0x753aDC51cB6C70156a9e775Ac56B40523920B532",
        "0x74E0709B2007bD0bEDE3E1c227088239a4dF51f9",
        "12100000000000000000000"
      ],
      "transaction": {
        "from": "0xe355d5d8aa52ef0fbbd037c4a3c5e6fd659cf46b",
        "to": "0x5ada709210846da33e3866490eafb90b7ea96f7f",
        "gas": "0x132d7",
        "value": "0x0",
        "input": "0x40ddd06e000000000000000000000000753adc51cb6c70156a9e775ac56b40523920b53200000000000000000000000074e0709b2007bd0bede3e1c227088239a4df51f900000000000000000000000000000000000000000000028ff13b8373d2900000",
        "nonce": "0x2e2",
        "chainId": "0x4268"
      },
      "additionalContracts": [],
      "isFixedGasLimit": false
    },
    {
      "hash": null,
      "transactionType": "CALL",
      "contractName": null,
      "contractAddress": "0x9445ba66bbdd3cdd48f9077536a05292f2c6d253",
      "function": "approve(address,uint256)",
      "arguments": [
        "0x031FEcF98032Ab1B2601B32cD9487B1AaBAE573C",
        "1000000000"
      ],
      "transaction": {
        "from": "0x753adc51cb6c70156a9e775ac56b40523920b532",
        "to": "0x9445ba66bbdd3cdd48f9077536a05292f2c6d253",
        "gas": "0x10657",
        "value": "0x0",
        "input": "0x095ea7b3000000000000000000000000031fecf98032ab1b2601b32cd9487b1aabae573c000000000000000000000000000000000000000000000000000000003b9aca00",
        "nonce": "0x0",
        "chainId": "0x4268"
      },
      "additionalContracts": [],
      "isFixedGasLimit": false
    },
    {
      "hash": null,
      "transactionType": "CALL",
      "contractName": null,
      "contractAddress": "0x031fecf98032ab1b2601b32cd9487b1aabae573c",
      "function": "swapExactTokenToToken(address,address,address,uint128,uint128)",
      "arguments": [
        "0x9445Ba66bBDd3Cdd48f9077536a05292f2C6D253",
        "0xaAf7c47b8f06d2532EecA6Cb4D89bf1487808D33",
        "0x753aDC51cB6C70156a9e775Ac56B40523920B532",
        "1000000000",
        "0"
      ],
      "transaction": {
        "from": "0x753adc51cb6c70156a9e775ac56b40523920b532",
        "to": "0x031fecf98032ab1b2601b32cd9487b1aabae573c",
        "gas": "0x52397",
        "value": "0x0",
        "input": "0x5d26439a0000000000000000000000009445ba66bbdd3cdd48f9077536a05292f2c6d253000000000000000000000000aaf7c47b8f06d2532eeca6cb4d89bf1487808d33000000000000000000000000753adc51cb6c70156a9e775ac56b40523920b532000000000000000000000000000000000000000000000000000000003b9aca000000000000000000000000000000000000000000000000000000000000000000",
        "nonce": "0x1",
        "chainId": "0x4268"
      },
      "additionalContracts": [],
      "isFixedGasLimit": false
    },
    {
      "hash": null,
      "transactionType": "CALL",
      "contractName": null,
      "contractAddress": "0x74e0709b2007bd0bede3e1c227088239a4df51f9",
      "function": "approve(address,uint256)",
      "arguments": [
        "0x959D4521BD48B6487D415Aad576Af2222ADB1a92",
        "12000000000000000000000"
      ],
      "transaction": {
        "from": "0x753adc51cb6c70156a9e775ac56b40523920b532",
        "to": "0x74e0709b2007bd0bede3e1c227088239a4df51f9",
        "gas": "0xf816",
        "value": "0x0",
        "input": "0x095ea7b3000000000000000000000000959d4521bd48b6487d415aad576af2222adb1a9200000000000000000000000000000000000000000000028a857425466f800000",
        "nonce": "0x2",
        "chainId": "0x4268"
      },
      "additionalContracts": [],
      "isFixedGasLimit": false
    },
    {
      "hash": null,
      "transactionType": "CALL",
      "contractName": null,
      "contractAddress": "0x959d4521bd48b6487d415aad576af2222adb1a92",
      "function": "borrowTokenFromCollateral(address,address,uint256,address[],uint128[],uint128)",
      "arguments": [
        "0x753aDC51cB6C70156a9e775Ac56B40523920B532",
        "0x645ef85B26A8eE16D4858725045900ACAb7DE005",
        "12000000000000000000000",
        "[0x031FEcF98032Ab1B2601B32cD9487B1AaBAE573C]",
        "[8000000000]",
        "8500000000"
      ],
      "transaction": {
        "from": "0x753adc51cb6c70156a9e775ac56b40523920b532",
        "to": "0x959d4521bd48b6487d415aad576af2222adb1a92",
        "gas": "0xdde96",
        "value": "0x0",
        "input": "0xc82e738b000000000000000000000000753adc51cb6c70156a9e775ac56b40523920b532000000000000000000000000645ef85b26a8ee16d4858725045900acab7de00500000000000000000000000000000000000000000000028a857425466f80000000000000000000000000000000000000000000000000000000000000000000c0000000000000000000000000000000000000000000000000000000000000010000000000000000000000000000000000000000000000000000000001faa3b5000000000000000000000000000000000000000000000000000000000000000001000000000000000000000000031fecf98032ab1b2601b32cd9487b1aabae573c000000000000000000000000000000000000000000000000000000000000000100000000000000000000000000000000000000000000000000000001dcd65000",
        "nonce": "0x3",
        "chainId": "0x4268"
      },
      "additionalContracts": [],
      "isFixedGasLimit": false
    },
    {
      "hash": null,
      "transactionType": "CALL",
      "contractName": null,
      "contractAddress": "0x74e0709b2007bd0bede3e1c227088239a4df51f9",
      "function": "approve(address,uint256)",
      "arguments": [
        "0xa05Ed08316B03e73B8007ddFaE841aB29F10B3c1",
        "100000000000000000000"
      ],
      "transaction": {
        "from": "0x753adc51cb6c70156a9e775ac56b40523920b532",
        "to": "0x74e0709b2007bd0bede3e1c227088239a4df51f9",
        "gas": "0xf7f5",
        "value": "0x0",
        "input": "0x095ea7b3000000000000000000000000a05ed08316b03e73b8007ddfae841ab29f10b3c10000000000000000000000000000000000000000000000056bc75e2d63100000",
        "nonce": "0x4",
        "chainId": "0x4268"
      },
      "additionalContracts": [],
      "isFixedGasLimit": false
    },
    {
      "hash": null,
      "transactionType": "CALL",
      "contractName": null,
      "contractAddress": "0xa05ed08316b03e73b8007ddfae841ab29f10b3c1",
      "function": "addCollateral(uint256,bytes)",
      "arguments": [
        "39",
        "0x0000000000000000000000000000000000000000000000056bc75e2d63100000"
      ],
      "transaction": {
        "from": "0x753adc51cb6c70156a9e775ac56b40523920b532",
        "to": "0xa05ed08316b03e73b8007ddfae841ab29f10b3c1",
        "gas": "0x137a5",
        "value": "0x0",
        "input": "0xfe8fd7d90000000000000000000000000000000000000000000000000000000000000027000000000000000000000000000000000000000000000000000000000000004000000000000000000000000000000000000000000000000000000000000000200000000000000000000000000000000000000000000000056bc75e2d63100000",
        "nonce": "0x5",
        "chainId": "0x4268"
      },
      "additionalContracts": [],
      "isFixedGasLimit": false
    },
    {
      "hash": null,
      "transactionType": "CALL",
      "contractName": null,
      "contractAddress": "0xa05ed08316b03e73b8007ddfae841ab29f10b3c1",
      "function": "removeCollateral(uint256,bytes)",
      "arguments": [
        "39",
        "0x000000000000000000000000000000000000000000000002b5e3af16b1880000"
      ],
      "transaction": {
        "from": "0x753adc51cb6c70156a9e775ac56b40523920b532",
        "to": "0xa05ed08316b03e73b8007ddfae841ab29f10b3c1",
        "gas": "0x30209",
        "value": "0x0",
        "input": "0x77efba60000000000000000000000000000000000000000000000000000000000000002700000000000000000000000000000000000000000000000000000000000000400000000000000000000000000000000000000000000000000000000000000020000000000000000000000000000000000000000000000002b5e3af16b1880000",
        "nonce": "0x6",
        "chainId": "0x4268"
      },
      "additionalContracts": [],
      "isFixedGasLimit": false
    },
    {
      "hash": null,
      "transactionType": "CALL",
      "contractName": null,
      "contractAddress": "0x9445ba66bbdd3cdd48f9077536a05292f2c6d253",
      "function": "approve(address,uint256)",
      "arguments": [
        "0xa05Ed08316B03e73B8007ddFaE841aB29F10B3c1",
        "500000000"
      ],
      "transaction": {
        "from": "0x753adc51cb6c70156a9e775ac56b40523920b532",
        "to": "0x9445ba66bbdd3cdd48f9077536a05292f2c6d253",
        "gas": "0xf7b3",
        "value": "0x0",
        "input": "0x095ea7b3000000000000000000000000a05ed08316b03e73b8007ddfae841ab29f10b3c1000000000000000000000000000000000000000000000000000000001dcd6500",
        "nonce": "0x7",
        "chainId": "0x4268"
      },
      "additionalContracts": [],
      "isFixedGasLimit": false
    },
    {
      "hash": null,
      "transactionType": "CALL",
      "contractName": null,
      "contractAddress": "0xa05ed08316b03e73b8007ddfae841ab29f10b3c1",
      "function": "repay(uint256,uint128,bool)",
      "arguments": [
        "39",
        "500000000",
        "true"
      ],
      "transaction": {
        "from": "0x753adc51cb6c70156a9e775ac56b40523920b532",
        "to": "0xa05ed08316b03e73b8007ddfae841ab29f10b3c1",
        "gas": "0x18b9d",
        "value": "0x0",
        "input": "0xdf2cbf3e0000000000000000000000000000000000000000000000000000000000000027000000000000000000000000000000000000000000000000000000001dcd65000000000000000000000000000000000000000000000000000000000000000001",
        "nonce": "0x8",
        "chainId": "0x4268"
      },
      "additionalContracts": [],
      "isFixedGasLimit": false
    },
    {
      "hash": null,
      "transactionType": "CALL",
      "contractName": null,
      "contractAddress": "0xa05ed08316b03e73b8007ddfae841ab29f10b3c1",
      "function": "transferFrom(address,address,uint256)",
      "arguments": [
        "0x753aDC51cB6C70156a9e775Ac56B40523920B532",
        "0x3b32df7d203dF298CF08403f88aB9C5e9362E0b5",
        "39"
      ],
      "transaction": {
        "from": "0x753adc51cb6c70156a9e775ac56b40523920b532",
        "to": "0xa05ed08316b03e73b8007ddfae841ab29f10b3c1",
        "gas": "0x1c204",
        "value": "0x0",
        "input": "0x23b872dd000000000000000000000000753adc51cb6c70156a9e775ac56b40523920b5320000000000000000000000003b32df7d203df298cf08403f88ab9c5e9362e0b50000000000000000000000000000000000000000000000000000000000000027",
        "nonce": "0x9",
        "chainId": "0x4268"
      },
      "additionalContracts": [],
      "isFixedGasLimit": false
    },
    {
      "hash": null,
      "transactionType": "CALL",
      "contractName": null,
      "contractAddress": "0x9445ba66bbdd3cdd48f9077536a05292f2c6d253",
      "function": "approve(address,uint256)",
      "arguments": [
        "0x959D4521BD48B6487D415Aad576Af2222ADB1a92",
        "20004000000"
      ],
      "transaction": {
        "from": "0x753adc51cb6c70156a9e775ac56b40523920b532",
        "to": "0x9445ba66bbdd3cdd48f9077536a05292f2c6d253",
        "gas": "0xf7d3",
        "value": "0x0",
        "input": "0x095ea7b3000000000000000000000000959d4521bd48b6487d415aad576af2222adb1a9200000000000000000000000000000000000000000000000000000004a854d100",
        "nonce": "0xa",
        "chainId": "0x4268"
      },
      "additionalContracts": [],
      "isFixedGasLimit": false
    },
    {
      "hash": null,
      "transactionType": "CALL",
      "contractName": null,
      "contractAddress": "0x959d4521bd48b6487d415aad576af2222adb1a92",
      "function": "leverageFromToken(address,address,address[],uint128[],uint128,uint128,uint128,(address,address,address,bytes)[])",
      "arguments": [
        "0x753aDC51cB6C70156a9e775Ac56B40523920B532",
        "0x645ef85B26A8eE16D4858725045900ACAb7DE005",
        "[0x031FEcF98032Ab1B2601B32cD9487B1AaBAE573C]",
        "[4000000]",
        "0",
        "20000000000",
        "80000000",
        "[(0xC16905D5b6E34DA4f76BD896f8e1cc6E4650960C, 0x9445Ba66bBDd3Cdd48f9077536a05292f2C6D253, 0x74E0709B2007bD0bEDE3E1c227088239a4dF51f9, 0x00000000000000000000000094121cbfb4abe0155b6bfa5669d120594bacf95300000000000000000000000099c8da9808b7909dede2c3ec835151afb74195ff)]"
      ],
      "transaction": {
        "from": "0x753adc51cb6c70156a9e775ac56b40523920b532",
        "to": "0x959d4521bd48b6487d415aad576af2222adb1a92",
        "gas": "0xe256a",
        "value": "0x0",
        "input": "0xa515648f000000000000000000000000753adc51cb6c70156a9e775ac56b40523920b532000000000000000000000000645ef85b26a8ee16d4858725045900acab7de00500000000000000000000000000000000000000000000000000000000000001000000000000000000000000000000000000000000000000000000000000000140000000000000000000000000000000000000000000000000000000000000000000000000000000000000000000000000000000000000000000000004a817c8000000000000000000000000000000000000000000000000000000000004c4b40000000000000000000000000000000000000000000000000000000000000001800000000000000000000000000000000000000000000000000000000000000001000000000000000000000000031fecf98032ab1b2601b32cd9487b1aabae573c000000000000000000000000000000000000000000000000000000000000000100000000000000000000000000000000000000000000000000000000003d090000000000000000000000000000000000000000000000000000000000000000010000000000000000000000000000000000000000000000000000000000000020000000000000000000000000c16905d5b6e34da4f76bd896f8e1cc6e4650960c0000000000000000000000009445ba66bbdd3cdd48f9077536a05292f2c6d25300000000000000000000000074e0709b2007bd0bede3e1c227088239a4df51f90000000000000000000000000000000000000000000000000000000000000080000000000000000000000000000000000000000000000000000000000000004000000000000000000000000094121cbfb4abe0155b6bfa5669d120594bacf95300000000000000000000000099c8da9808b7909dede2c3ec835151afb74195ff",
        "nonce": "0xb",
        "chainId": "0x4268"
      },
      "additionalContracts": [],
      "isFixedGasLimit": false
    }
  ],
  "receipts": [
    {
      "status": "0x1",
      "cumulativeGasUsed": "0x1c6e1c",
      "logs": [
        {
          "address": "0x9445ba66bbdd3cdd48f9077536a05292f2c6d253",
          "topics": [
            "0xddf252ad1be2c89b69c2b068fc378daa952ba7f163c4a11628f55a4df523b3ef",
            "0x0000000000000000000000000000000000000000000000000000000000000000",
            "0x000000000000000000000000e355d5d8aa52ef0fbbd037c4a3c5e6fd659cf46b"
          ],
          "data": "0x000000000000000000000000000000000000000000000000000000174876e800",
          "blockHash": "0xefb08daafa2aaeeeeee7548bd7d863312834230bedf6eb9458c1a2c922b4be2f",
          "blockNumber": "0x32ea49",
          "blockTimestamp": "0x67ac6bc8",
          "transactionHash": "0x7dcaed9959fbc9289b52f4e56a417e82c13f0fa261fb26d5e874cdc934ba95bb",
          "transactionIndex": "0x10",
          "logIndex": "0x11",
          "removed": false
        }
      ],
      "logsBloom": "0x00000000000000000000000000000000000000000000000000000000000000000000000000000000000000000000000000000000000000000000000000000000000000000000000000000008000000000000000000000000000000000000000000000000020000000000000000000800000000000000000000000010000000000000000000000000000000000000000200000000000000000000000000000000000000000000000000000000000400000000000800000000000000000080000000000002000000000000000000000000000000000000000000000000000020000000000000000020000000000000000000000000000000000000000000004000",
      "type": "0x2",
      "transactionHash": "0x7dcaed9959fbc9289b52f4e56a417e82c13f0fa261fb26d5e874cdc934ba95bb",
      "transactionIndex": "0x10",
      "blockHash": "0xefb08daafa2aaeeeeee7548bd7d863312834230bedf6eb9458c1a2c922b4be2f",
      "blockNumber": "0x32ea49",
      "gasUsed": "0x9b2a",
      "effectiveGasPrice": "0x1ef7fbb2",
      "from": "0xe355d5d8aa52ef0fbbd037c4a3c5e6fd659cf46b",
      "to": "0x5ada709210846da33e3866490eafb90b7ea96f7f",
      "contractAddress": null
    },
    {
      "status": "0x1",
      "cumulativeGasUsed": "0x154e78",
      "logs": [
        {
          "address": "0x9445ba66bbdd3cdd48f9077536a05292f2c6d253",
          "topics": [
            "0x8c5be1e5ebec7d5bd14f71427d1e84f3dd0314c0f7b2291e5b200ac8c7c3b925",
            "0x000000000000000000000000e355d5d8aa52ef0fbbd037c4a3c5e6fd659cf46b",
            "0x000000000000000000000000645ef85b26a8ee16d4858725045900acab7de005"
          ],
          "data": "0x000000000000000000000000000000000000000000000000000000174876e800",
          "blockHash": "0xa0db309f86d17995ceab149f0a826c35db2b684a66eb0330306a7fdfa18fb733",
          "blockNumber": "0x32ea4a",
          "blockTimestamp": "0x67ac6bd4",
          "transactionHash": "0x125269a8146d7346f33a255a727d59e78f6fe0b594d9465d226932d7e1af665d",
          "transactionIndex": "0x9",
          "logIndex": "0x12",
          "removed": false
        }
      ],
      "logsBloom": "0x00000000000000000000000000000000000000000000000000000000000000000000000000000000000000000000000000000000000000000000000000200000000000000000000000000000000000000000000000000000000000000000000000000000000000000000000000000000000000000000080000000000000000000000000000000000000000000000000200000000000000000000000000000000020000000000000000000000000400000000000800000000000000000080000000000000004000000000000000000000000000000000000000000000000000000010000000000020000000000000000000000000000040000000000000004000",
      "type": "0x2",
      "transactionHash": "0x125269a8146d7346f33a255a727d59e78f6fe0b594d9465d226932d7e1af665d",
      "transactionIndex": "0x9",
      "blockHash": "0xa0db309f86d17995ceab149f0a826c35db2b684a66eb0330306a7fdfa18fb733",
      "blockNumber": "0x32ea4a",
      "gasUsed": "0xb361",
      "effectiveGasPrice": "0x1ef7fbb2",
      "from": "0xe355d5d8aa52ef0fbbd037c4a3c5e6fd659cf46b",
      "to": "0x9445ba66bbdd3cdd48f9077536a05292f2c6d253",
      "contractAddress": null
    },
    {
      "status": "0x1",
      "cumulativeGasUsed": "0x52d7d5",
      "logs": [
        {
          "address": "0x9445ba66bbdd3cdd48f9077536a05292f2c6d253",
          "topics": [
            "0xddf252ad1be2c89b69c2b068fc378daa952ba7f163c4a11628f55a4df523b3ef",
            "0x000000000000000000000000e355d5d8aa52ef0fbbd037c4a3c5e6fd659cf46b",
            "0x000000000000000000000000645ef85b26a8ee16d4858725045900acab7de005"
          ],
          "data": "0x000000000000000000000000000000000000000000000000000000174876e800",
          "blockHash": "0xde2235e130801fbd4d08708f475406069746e828ae1d4cfa869f6909d924cd01",
          "blockNumber": "0x32ea4b",
          "blockTimestamp": "0x67ac6bec",
          "transactionHash": "0x60130331c028646dfe7afc1dd89cd109e94e99aeba1dc606312b9fbb89f64d53",
          "transactionIndex": "0x1b",
          "logIndex": "0x27",
          "removed": false
        },
        {
          "address": "0xaaf7c47b8f06d2532eeca6cb4d89bf1487808d33",
          "topics": [
            "0xddf252ad1be2c89b69c2b068fc378daa952ba7f163c4a11628f55a4df523b3ef",
            "0x0000000000000000000000000000000000000000000000000000000000000000",
            "0x000000000000000000000000031fecf98032ab1b2601b32cd9487b1aabae573c"
          ],
          "data": "0x000000000000000000000000000000000000000000000000000000174876e800",
          "blockHash": "0xde2235e130801fbd4d08708f475406069746e828ae1d4cfa869f6909d924cd01",
          "blockNumber": "0x32ea4b",
          "blockTimestamp": "0x67ac6bec",
          "transactionHash": "0x60130331c028646dfe7afc1dd89cd109e94e99aeba1dc606312b9fbb89f64d53",
          "transactionIndex": "0x1b",
          "logIndex": "0x28",
          "removed": false
        },
        {
          "address": "0x6c29de485455c46987c52abe867b6f276a1aae02",
          "topics": [
            "0xddf252ad1be2c89b69c2b068fc378daa952ba7f163c4a11628f55a4df523b3ef",
            "0x0000000000000000000000000000000000000000000000000000000000000000",
            "0x000000000000000000000000031fecf98032ab1b2601b32cd9487b1aabae573c"
          ],
          "data": "0x000000000000000000000000000000000000000000000000000000174876e800",
          "blockHash": "0xde2235e130801fbd4d08708f475406069746e828ae1d4cfa869f6909d924cd01",
          "blockNumber": "0x32ea4b",
          "blockTimestamp": "0x67ac6bec",
          "transactionHash": "0x60130331c028646dfe7afc1dd89cd109e94e99aeba1dc606312b9fbb89f64d53",
          "transactionIndex": "0x1b",
          "logIndex": "0x29",
          "removed": false
        },
        {
          "address": "0x645ef85b26a8ee16d4858725045900acab7de005",
          "topics": [
            "0xab8530f87dc9b59234c4623bf917212bb2536d647574c8e7e5da92c2ede0c9f8",
            "0x000000000000000000000000e355d5d8aa52ef0fbbd037c4a3c5e6fd659cf46b",
            "0x000000000000000000000000031fecf98032ab1b2601b32cd9487b1aabae573c"
          ],
          "data": "0x000000000000000000000000000000000000000000000000000000174876e800",
          "blockHash": "0xde2235e130801fbd4d08708f475406069746e828ae1d4cfa869f6909d924cd01",
          "blockNumber": "0x32ea4b",
          "blockTimestamp": "0x67ac6bec",
          "transactionHash": "0x60130331c028646dfe7afc1dd89cd109e94e99aeba1dc606312b9fbb89f64d53",
          "transactionIndex": "0x1b",
          "logIndex": "0x2a",
          "removed": false
        }
      ],
      "logsBloom": "0x00000000001000000000000000000000040000080000000000000100000000000000000000000000200000000000000000000000080000000000000002000000000000000000000000000008000000000040000000000000000000000000000000020000020000000000080000000800000000000000080000000010000000000000000000002000000000000000000200000000000000000000000000000000000000000000000000000000000400000000000800008000000000000080000000000002004000000000000000000000000000000000000000000000100020000000000000000020000000000000000000000000000840000000000000006000",
      "type": "0x2",
      "transactionHash": "0x60130331c028646dfe7afc1dd89cd109e94e99aeba1dc606312b9fbb89f64d53",
      "transactionIndex": "0x1b",
      "blockHash": "0xde2235e130801fbd4d08708f475406069746e828ae1d4cfa869f6909d924cd01",
      "blockNumber": "0x32ea4b",
      "gasUsed": "0x16597",
      "effectiveGasPrice": "0x1ef7fbb2",
      "from": "0xe355d5d8aa52ef0fbbd037c4a3c5e6fd659cf46b",
      "to": "0x645ef85b26a8ee16d4858725045900acab7de005",
      "contractAddress": null
    },
    {
      "status": "0x1",
      "cumulativeGasUsed": "0x7d3a6c",
      "logs": [
        {
          "address": "0x9445ba66bbdd3cdd48f9077536a05292f2c6d253",
          "topics": [
            "0xddf252ad1be2c89b69c2b068fc378daa952ba7f163c4a11628f55a4df523b3ef",
            "0x0000000000000000000000000000000000000000000000000000000000000000",
            "0x000000000000000000000000753adc51cb6c70156a9e775ac56b40523920b532"
          ],
          "data": "0x0000000000000000000000000000000000000000000000000000000501bd0000",
          "blockHash": "0x984e78afeaf88d331c44038aaecf6f18529c18c12912c4826b70f0e111e89ac0",
          "blockNumber": "0x32ea4d",
          "blockTimestamp": "0x67ac6c04",
          "transactionHash": "0x4e038eeb3c9f8d64fd0accd5c2832219874877e46a3882f0e25c7f7939b7e5b1",
          "transactionIndex": "0x15",
          "logIndex": "0x1d",
          "removed": false
        }
      ],
      "logsBloom": "0x00000000000000000000000000000000000000000000000000000000000000000000000000000000000000000000000000000000000000000000000000000000000000000000000000000008000000000000000000000000000000000000000000000000020000040000000000000800000000000000000000000010000000000000000000000000000000000000000000000000000000000000000000000008000000000000000000000000000400000000000800000000000000000080000000000002000000000000000000000000000000000000000000000000000020000000000000000000000000000080000000000000000000000000000000000000",
      "type": "0x2",
      "transactionHash": "0x4e038eeb3c9f8d64fd0accd5c2832219874877e46a3882f0e25c7f7939b7e5b1",
      "transactionIndex": "0x15",
      "blockHash": "0x984e78afeaf88d331c44038aaecf6f18529c18c12912c4826b70f0e111e89ac0",
      "blockNumber": "0x32ea4d",
      "gasUsed": "0xddea",
      "effectiveGasPrice": "0x1ef7fbb2",
      "from": "0xe355d5d8aa52ef0fbbd037c4a3c5e6fd659cf46b",
      "to": "0x5ada709210846da33e3866490eafb90b7ea96f7f",
      "contractAddress": null
    },
    {
      "status": "0x1",
      "cumulativeGasUsed": "0x63b95f",
      "logs": [
        {
          "address": "0x74e0709b2007bd0bede3e1c227088239a4df51f9",
          "topics": [
            "0xddf252ad1be2c89b69c2b068fc378daa952ba7f163c4a11628f55a4df523b3ef",
            "0x0000000000000000000000000000000000000000000000000000000000000000",
            "0x000000000000000000000000753adc51cb6c70156a9e775ac56b40523920b532"
          ],
          "data": "0x00000000000000000000000000000000000000000000028ff13b8373d2900000",
          "blockHash": "0x564e293aa751bbd1974311051c4690e2eecd675f641a300d16c2583377ad8f51",
          "blockNumber": "0x32ea4e",
          "blockTimestamp": "0x67ac6c10",
          "transactionHash": "0xae1fd10e8ad9f524dc838617d7b9830bdd35f9390555982b372a5a7148f32532",
          "transactionIndex": "0x10",
          "logIndex": "0x13",
          "removed": false
        }
      ],
      "logsBloom": "0x00000000000000000000000000000000000000000000000000000000000100000000000000000000000000000000000001000000000000000000000000000000000000000000000000000008000000000000000000000000000000000000000000000000020000040000000000000800000000000000000000000010000000000000000000000000000000000000000000000000000000000000000000000008010000000000000000000000000000000000000000000000000000000000000000000002000000000000000000000000000000000000000000000000000020000000000000000000000000000080000000000000000000000000000000000000",
      "type": "0x2",
      "transactionHash": "0xae1fd10e8ad9f524dc838617d7b9830bdd35f9390555982b372a5a7148f32532",
      "transactionIndex": "0x10",
      "blockHash": "0x564e293aa751bbd1974311051c4690e2eecd675f641a300d16c2583377ad8f51",
      "blockNumber": "0x32ea4e",
      "gasUsed": "0xde26",
      "effectiveGasPrice": "0x1ef7fbb2",
      "from": "0xe355d5d8aa52ef0fbbd037c4a3c5e6fd659cf46b",
      "to": "0x5ada709210846da33e3866490eafb90b7ea96f7f",
      "contractAddress": null
    }
  ],
  "libraries": [],
  "pending": [],
  "returns": {},
  "timestamp": 1739353107,
  "chain": 17000,
  "commit": "4520dd7"
}