{
  "transactions": [
    {
      "hash": "0xc4105d310352d952e056f764ddf88d04c4e577628eeee2a56cc3fccb0fbd40f2",
      "transactionType": "CALL",
      "contractName": null,
      "contractAddress": "0x44c794bb56e79b679511031a8a875b18c6b8be98",
      "function": null,
      "arguments": null,
      "transaction": {
        "from": "0xe355d5d8aa52ef0fbbd037c4a3c5e6fd659cf46b",
        "to": "0x44c794bb56e79b679511031a8a875b18c6b8be98",
        "gas": "0x714d",
        "value": "0x16345785d8a0000",
        "input": "0x",
        "nonce": "0x2e9",
        "chainId": "0x4268"
      },
      "additionalContracts": [],
      "isFixedGasLimit": false
    },
    {
      "hash": "0x280aa652c9d51b397066d221c76a194b569d99f58dcd079580db74885512051b",
      "transactionType": "CALL",
      "contractName": null,
      "contractAddress": "0x5ada709210846da33e3866490eafb90b7ea96f7f",
      "function": "devMint(address,address,uint256)",
      "arguments": [
        "0xE355d5D8aa52EF0FbbD037C4a3C5E6Fd659cf46B",
        "0x9445Ba66bBDd3Cdd48f9077536a05292f2C6D253",
        "100000000000"
      ],
      "transaction": {
        "from": "0xe355d5d8aa52ef0fbbd037c4a3c5e6fd659cf46b",
        "to": "0x5ada709210846da33e3866490eafb90b7ea96f7f",
        "gas": "0xe2ed",
        "value": "0x0",
        "input": "0x40ddd06e000000000000000000000000e355d5d8aa52ef0fbbd037c4a3c5e6fd659cf46b0000000000000000000000009445ba66bbdd3cdd48f9077536a05292f2c6d253000000000000000000000000000000000000000000000000000000174876e800",
        "nonce": "0x2ea",
        "chainId": "0x4268"
      },
      "additionalContracts": [],
      "isFixedGasLimit": false
    },
    {
      "hash": "0x0502ddbca70bb9c328fd5d166268d345bcd615fb7e439b64db8790e46342fd3a",
      "transactionType": "CALL",
      "contractName": null,
      "contractAddress": "0x9445ba66bbdd3cdd48f9077536a05292f2c6d253",
      "function": "approve(address,uint256)",
      "arguments": [
        "0x645ef85B26A8eE16D4858725045900ACAb7DE005",
        "100000000000"
      ],
      "transaction": {
        "from": "0xe355d5d8aa52ef0fbbd037c4a3c5e6fd659cf46b",
        "to": "0x9445ba66bbdd3cdd48f9077536a05292f2c6d253",
        "gas": "0x10657",
        "value": "0x0",
        "input": "0x095ea7b3000000000000000000000000645ef85b26a8ee16d4858725045900acab7de005000000000000000000000000000000000000000000000000000000174876e800",
        "nonce": "0x2eb",
        "chainId": "0x4268"
      },
      "additionalContracts": [],
      "isFixedGasLimit": false
    },
    {
      "hash": "0x99d118f3f9b2466129c2b8712d18d96e7ea2d4cf548021aff6b396a8ade8c9bb",
      "transactionType": "CALL",
      "contractName": null,
      "contractAddress": "0x645ef85b26a8ee16d4858725045900acab7de005",
      "function": "mint(address,uint256)",
      "arguments": [
        "0x031FEcF98032Ab1B2601B32cD9487B1AaBAE573C",
        "100000000000"
      ],
      "transaction": {
        "from": "0xe355d5d8aa52ef0fbbd037c4a3c5e6fd659cf46b",
        "to": "0x645ef85b26a8ee16d4858725045900acab7de005",
        "gas": "0x1edeb",
        "value": "0x0",
        "input": "0x40c10f19000000000000000000000000031fecf98032ab1b2601b32cd9487b1aabae573c000000000000000000000000000000000000000000000000000000174876e800",
        "nonce": "0x2ec",
        "chainId": "0x4268"
      },
      "additionalContracts": [],
      "isFixedGasLimit": false
    },
    {
      "hash": "0x89f77e6118c2a849b4d2fcae5b64fe9033260cb9e132e41f47a1d0d9b7fa849a",
      "transactionType": "CALL",
      "contractName": null,
      "contractAddress": "0x5ada709210846da33e3866490eafb90b7ea96f7f",
      "function": "devMint(address,address,uint256)",
      "arguments": [
        "0x44C794bb56e79b679511031A8A875b18c6B8BE98",
        "0x9445Ba66bBDd3Cdd48f9077536a05292f2C6D253",
        "21504000000"
      ],
      "transaction": {
        "from": "0xe355d5d8aa52ef0fbbd037c4a3c5e6fd659cf46b",
        "to": "0x5ada709210846da33e3866490eafb90b7ea96f7f",
        "gas": "0x1448c",
        "value": "0x0",
        "input": "0x40ddd06e00000000000000000000000044c794bb56e79b679511031a8a875b18c6b8be980000000000000000000000009445ba66bbdd3cdd48f9077536a05292f2c6d2530000000000000000000000000000000000000000000000000000000501bd0000",
        "nonce": "0x2ed",
        "chainId": "0x4268"
      },
      "additionalContracts": [],
      "isFixedGasLimit": false
    },
    {
      "hash": "0xd067426461f7ba01af758dd3d80948fe668fc0b4d25e34e94d95ec784116909c",
      "transactionType": "CALL",
      "contractName": null,
      "contractAddress": "0x5ada709210846da33e3866490eafb90b7ea96f7f",
      "function": "devMint(address,address,uint256)",
      "arguments": [
        "0x44C794bb56e79b679511031A8A875b18c6B8BE98",
        "0x74E0709B2007bD0bEDE3E1c227088239a4dF51f9",
        "12100000000000000000000"
      ],
      "transaction": {
        "from": "0xe355d5d8aa52ef0fbbd037c4a3c5e6fd659cf46b",
        "to": "0x5ada709210846da33e3866490eafb90b7ea96f7f",
        "gas": "0x132d7",
        "value": "0x0",
        "input": "0x40ddd06e00000000000000000000000044c794bb56e79b679511031a8a875b18c6b8be9800000000000000000000000074e0709b2007bd0bede3e1c227088239a4df51f900000000000000000000000000000000000000000000028ff13b8373d2900000",
        "nonce": "0x2ee",
        "chainId": "0x4268"
      },
      "additionalContracts": [],
      "isFixedGasLimit": false
    },
    {
      "hash": "0x5337fdcd9b414ce4c1c9a58adfb5f90c02d5032498a3da736622d8dab4c866b8",
      "transactionType": "CALL",
      "contractName": null,
      "contractAddress": "0x9445ba66bbdd3cdd48f9077536a05292f2c6d253",
      "function": "approve(address,uint256)",
      "arguments": [
        "0x031FEcF98032Ab1B2601B32cD9487B1AaBAE573C",
        "1000000000"
      ],
      "transaction": {
        "from": "0x44c794bb56e79b679511031a8a875b18c6b8be98",
        "to": "0x9445ba66bbdd3cdd48f9077536a05292f2c6d253",
        "gas": "0x10657",
        "value": "0x0",
        "input": "0x095ea7b3000000000000000000000000031fecf98032ab1b2601b32cd9487b1aabae573c000000000000000000000000000000000000000000000000000000003b9aca00",
        "nonce": "0x0",
        "chainId": "0x4268"
      },
      "additionalContracts": [],
      "isFixedGasLimit": false
    },
    {
      "hash": "0xf4ab53ee19591fb36e3c2c447641e008054c9c66d6b336f2ea95fe7fd44f7672",
      "transactionType": "CALL",
      "contractName": null,
      "contractAddress": "0x031fecf98032ab1b2601b32cd9487b1aabae573c",
      "function": "swapExactTokenToToken(address,address,address,uint128,uint128)",
      "arguments": [
        "0x9445Ba66bBDd3Cdd48f9077536a05292f2C6D253",
        "0xaAf7c47b8f06d2532EecA6Cb4D89bf1487808D33",
        "0x44C794bb56e79b679511031A8A875b18c6B8BE98",
        "1000000000",
        "0"
      ],
      "transaction": {
        "from": "0x44c794bb56e79b679511031a8a875b18c6b8be98",
        "to": "0x031fecf98032ab1b2601b32cd9487b1aabae573c",
        "gas": "0x56ff1",
        "value": "0x0",
        "input": "0x5d26439a0000000000000000000000009445ba66bbdd3cdd48f9077536a05292f2c6d253000000000000000000000000aaf7c47b8f06d2532eeca6cb4d89bf1487808d3300000000000000000000000044c794bb56e79b679511031a8a875b18c6b8be98000000000000000000000000000000000000000000000000000000003b9aca000000000000000000000000000000000000000000000000000000000000000000",
        "nonce": "0x1",
        "chainId": "0x4268"
      },
      "additionalContracts": [],
      "isFixedGasLimit": false
    },
    {
      "hash": "0x508267aeeb1b6cd310bcfd4aeae6d7879ba2eedecccef574f714fd0641ee9b4e",
      "transactionType": "CALL",
      "contractName": null,
      "contractAddress": "0x74e0709b2007bd0bede3e1c227088239a4df51f9",
      "function": "approve(address,uint256)",
      "arguments": [
        "0x959D4521BD48B6487D415Aad576Af2222ADB1a92",
        "12000000000000000000000"
      ],
      "transaction": {
        "from": "0x44c794bb56e79b679511031a8a875b18c6b8be98",
        "to": "0x74e0709b2007bd0bede3e1c227088239a4df51f9",
        "gas": "0xf816",
        "value": "0x0",
        "input": "0x095ea7b3000000000000000000000000959d4521bd48b6487d415aad576af2222adb1a9200000000000000000000000000000000000000000000028a857425466f800000",
        "nonce": "0x2",
        "chainId": "0x4268"
      },
      "additionalContracts": [],
      "isFixedGasLimit": false
    },
    {
      "hash": "0x343efbc573597a8bdd51686d88ef321b5fffd6434a1572ff9cd408b59407eb20",
      "transactionType": "CALL",
      "contractName": null,
      "contractAddress": "0x959d4521bd48b6487d415aad576af2222adb1a92",
      "function": "borrowTokenFromCollateral(address,address,uint256,address[],uint128[],uint128)",
      "arguments": [
        "0x44C794bb56e79b679511031A8A875b18c6B8BE98",
        "0x645ef85B26A8eE16D4858725045900ACAb7DE005",
        "12000000000000000000000",
        "[0x031FEcF98032Ab1B2601B32cD9487B1AaBAE573C]",
        "[8000000000]",
        "8500000000"
      ],
      "transaction": {
        "from": "0x44c794bb56e79b679511031a8a875b18c6b8be98",
        "to": "0x959d4521bd48b6487d415aad576af2222adb1a92",
        "gas": "0xdde96",
        "value": "0x0",
        "input": "0xc82e738b00000000000000000000000044c794bb56e79b679511031a8a875b18c6b8be98000000000000000000000000645ef85b26a8ee16d4858725045900acab7de00500000000000000000000000000000000000000000000028a857425466f80000000000000000000000000000000000000000000000000000000000000000000c0000000000000000000000000000000000000000000000000000000000000010000000000000000000000000000000000000000000000000000000001faa3b5000000000000000000000000000000000000000000000000000000000000000001000000000000000000000000031fecf98032ab1b2601b32cd9487b1aabae573c000000000000000000000000000000000000000000000000000000000000000100000000000000000000000000000000000000000000000000000001dcd65000",
        "nonce": "0x3",
        "chainId": "0x4268"
      },
      "additionalContracts": [],
      "isFixedGasLimit": false
    },
    {
      "hash": "0x43384b98f67e4dcd580b6aae6e52d7c439f4a807b5c53f32f94ff2fb599e59a6",
      "transactionType": "CALL",
      "contractName": null,
      "contractAddress": "0x74e0709b2007bd0bede3e1c227088239a4df51f9",
      "function": "approve(address,uint256)",
      "arguments": [
        "0xa05Ed08316B03e73B8007ddFaE841aB29F10B3c1",
        "100000000000000000000"
      ],
      "transaction": {
        "from": "0x44c794bb56e79b679511031a8a875b18c6b8be98",
        "to": "0x74e0709b2007bd0bede3e1c227088239a4df51f9",
        "gas": "0xf7f5",
        "value": "0x0",
        "input": "0x095ea7b3000000000000000000000000a05ed08316b03e73b8007ddfae841ab29f10b3c10000000000000000000000000000000000000000000000056bc75e2d63100000",
        "nonce": "0x4",
        "chainId": "0x4268"
      },
      "additionalContracts": [],
      "isFixedGasLimit": false
    },
    {
      "hash": "0xd724de8ba36efeb7ff64ab6b9cdf17cc0285707e627bf2abbaab98e3d82f8c5e",
      "transactionType": "CALL",
      "contractName": null,
      "contractAddress": "0xa05ed08316b03e73b8007ddfae841ab29f10b3c1",
      "function": "addCollateral(uint256,bytes)",
      "arguments": [
        "41",
        "0x0000000000000000000000000000000000000000000000056bc75e2d63100000"
      ],
      "transaction": {
        "from": "0x44c794bb56e79b679511031a8a875b18c6b8be98",
        "to": "0xa05ed08316b03e73b8007ddfae841ab29f10b3c1",
        "gas": "0x137a5",
        "value": "0x0",
        "input": "0xfe8fd7d90000000000000000000000000000000000000000000000000000000000000029000000000000000000000000000000000000000000000000000000000000004000000000000000000000000000000000000000000000000000000000000000200000000000000000000000000000000000000000000000056bc75e2d63100000",
        "nonce": "0x5",
        "chainId": "0x4268"
      },
      "additionalContracts": [],
      "isFixedGasLimit": false
    },
    {
      "hash": "0x4704cff5a64c8fb0814865d68e9c07a6be7dce87d54377a8e5828ecaefdd7b0c",
      "transactionType": "CALL",
      "contractName": null,
      "contractAddress": "0xa05ed08316b03e73b8007ddfae841ab29f10b3c1",
      "function": "removeCollateral(uint256,bytes)",
      "arguments": [
        "41",
        "0x000000000000000000000000000000000000000000000002b5e3af16b1880000"
      ],
      "transaction": {
        "from": "0x44c794bb56e79b679511031a8a875b18c6b8be98",
        "to": "0xa05ed08316b03e73b8007ddfae841ab29f10b3c1",
        "gas": "0x30209",
        "value": "0x0",
        "input": "0x77efba60000000000000000000000000000000000000000000000000000000000000002900000000000000000000000000000000000000000000000000000000000000400000000000000000000000000000000000000000000000000000000000000020000000000000000000000000000000000000000000000002b5e3af16b1880000",
        "nonce": "0x6",
        "chainId": "0x4268"
      },
      "additionalContracts": [],
      "isFixedGasLimit": false
    },
    {
      "hash": "0x952bc81881b9973b150c8a2b8a9b97e307d1e752b88723f9c5f539fb427318d0",
      "transactionType": "CALL",
      "contractName": null,
      "contractAddress": "0x9445ba66bbdd3cdd48f9077536a05292f2c6d253",
      "function": "approve(address,uint256)",
      "arguments": [
        "0xa05Ed08316B03e73B8007ddFaE841aB29F10B3c1",
        "500000000"
      ],
      "transaction": {
        "from": "0x44c794bb56e79b679511031a8a875b18c6b8be98",
        "to": "0x9445ba66bbdd3cdd48f9077536a05292f2c6d253",
        "gas": "0xf7b3",
        "value": "0x0",
        "input": "0x095ea7b3000000000000000000000000a05ed08316b03e73b8007ddfae841ab29f10b3c1000000000000000000000000000000000000000000000000000000001dcd6500",
        "nonce": "0x7",
        "chainId": "0x4268"
      },
      "additionalContracts": [],
      "isFixedGasLimit": false
    },
    {
      "hash": "0xe2f8349eeb84c59f44d0b72ce909af334e6d0e0047e185527925b4b0d003c587",
      "transactionType": "CALL",
      "contractName": null,
      "contractAddress": "0xa05ed08316b03e73b8007ddfae841ab29f10b3c1",
      "function": "repay(uint256,uint128,bool)",
      "arguments": [
        "41",
        "500000000",
        "true"
      ],
      "transaction": {
        "from": "0x44c794bb56e79b679511031a8a875b18c6b8be98",
        "to": "0xa05ed08316b03e73b8007ddfae841ab29f10b3c1",
        "gas": "0x18b9d",
        "value": "0x0",
        "input": "0xdf2cbf3e0000000000000000000000000000000000000000000000000000000000000029000000000000000000000000000000000000000000000000000000001dcd65000000000000000000000000000000000000000000000000000000000000000001",
        "nonce": "0x8",
        "chainId": "0x4268"
      },
      "additionalContracts": [],
      "isFixedGasLimit": false
    },
    {
      "hash": "0x815d8d650c9f1b0e81cf22315d9580096b8c6f7b85e769afd5965576de56d2c5",
      "transactionType": "CALL",
      "contractName": null,
      "contractAddress": "0xa05ed08316b03e73b8007ddfae841ab29f10b3c1",
      "function": "transferFrom(address,address,uint256)",
      "arguments": [
        "0x44C794bb56e79b679511031A8A875b18c6B8BE98",
        "0xb4DEf9226E986a811afC5e61441f7De2e0da048d",
        "41"
      ],
      "transaction": {
        "from": "0x44c794bb56e79b679511031a8a875b18c6b8be98",
        "to": "0xa05ed08316b03e73b8007ddfae841ab29f10b3c1",
        "gas": "0x1c204",
        "value": "0x0",
        "input": "0x23b872dd00000000000000000000000044c794bb56e79b679511031a8a875b18c6b8be98000000000000000000000000b4def9226e986a811afc5e61441f7de2e0da048d0000000000000000000000000000000000000000000000000000000000000029",
        "nonce": "0x9",
        "chainId": "0x4268"
      },
      "additionalContracts": [],
      "isFixedGasLimit": false
    },
    {
      "hash": "0xd94d83ae2f80b32b67b68cd7ce74a0e17b3e81cf17aef27a9433e138bb80d27e",
      "transactionType": "CALL",
      "contractName": null,
      "contractAddress": "0x9445ba66bbdd3cdd48f9077536a05292f2c6d253",
      "function": "approve(address,uint256)",
      "arguments": [
        "0x959D4521BD48B6487D415Aad576Af2222ADB1a92",
        "20004000000"
      ],
      "transaction": {
        "from": "0x44c794bb56e79b679511031a8a875b18c6b8be98",
        "to": "0x9445ba66bbdd3cdd48f9077536a05292f2c6d253",
        "gas": "0xf7d3",
        "value": "0x0",
        "input": "0x095ea7b3000000000000000000000000959d4521bd48b6487d415aad576af2222adb1a9200000000000000000000000000000000000000000000000000000004a854d100",
        "nonce": "0xa",
        "chainId": "0x4268"
      },
      "additionalContracts": [],
      "isFixedGasLimit": false
    },
    {
      "hash": "0x1a03509f2d50c49f802c1385e97c7964f6bdde56aae45b76b50cc88e2a280215",
      "transactionType": "CALL",
      "contractName": null,
      "contractAddress": "0x959d4521bd48b6487d415aad576af2222adb1a92",
      "function": "leverageFromToken(address,address,address[],uint128[],uint128,uint128,uint128,(address,address,address,bytes)[])",
      "arguments": [
        "0x44C794bb56e79b679511031A8A875b18c6B8BE98",
        "0x645ef85B26A8eE16D4858725045900ACAb7DE005",
        "[0x031FEcF98032Ab1B2601B32cD9487B1AaBAE573C]",
        "[4000000]",
        "0",
        "20000000000",
        "80000000",
        "[(0xC16905D5b6E34DA4f76BD896f8e1cc6E4650960C, 0x9445Ba66bBDd3Cdd48f9077536a05292f2C6D253, 0x74E0709B2007bD0bEDE3E1c227088239a4dF51f9, 0x00000000000000000000000094121cbfb4abe0155b6bfa5669d120594bacf95300000000000000000000000099c8da9808b7909dede2c3ec835151afb74195ff)]"
      ],
      "transaction": {
        "from": "0x44c794bb56e79b679511031a8a875b18c6b8be98",
        "to": "0x959d4521bd48b6487d415aad576af2222adb1a92",
        "gas": "0xe256a",
        "value": "0x0",
        "input": "0xa515648f00000000000000000000000044c794bb56e79b679511031a8a875b18c6b8be98000000000000000000000000645ef85b26a8ee16d4858725045900acab7de00500000000000000000000000000000000000000000000000000000000000001000000000000000000000000000000000000000000000000000000000000000140000000000000000000000000000000000000000000000000000000000000000000000000000000000000000000000000000000000000000000000004a817c8000000000000000000000000000000000000000000000000000000000004c4b40000000000000000000000000000000000000000000000000000000000000001800000000000000000000000000000000000000000000000000000000000000001000000000000000000000000031fecf98032ab1b2601b32cd9487b1aabae573c000000000000000000000000000000000000000000000000000000000000000100000000000000000000000000000000000000000000000000000000003d090000000000000000000000000000000000000000000000000000000000000000010000000000000000000000000000000000000000000000000000000000000020000000000000000000000000c16905d5b6e34da4f76bd896f8e1cc6e4650960c0000000000000000000000009445ba66bbdd3cdd48f9077536a05292f2c6d25300000000000000000000000074e0709b2007bd0bede3e1c227088239a4df51f90000000000000000000000000000000000000000000000000000000000000080000000000000000000000000000000000000000000000000000000000000004000000000000000000000000094121cbfb4abe0155b6bfa5669d120594bacf95300000000000000000000000099c8da9808b7909dede2c3ec835151afb74195ff",
        "nonce": "0xb",
        "chainId": "0x4268"
      },
      "additionalContracts": [],
      "isFixedGasLimit": false
    }
  ],
  "receipts": [
    {
      "status": "0x1",
      "cumulativeGasUsed": "0x6aaa4e",
      "logs": [],
      "logsBloom": "0x00000000000000000000000000000000000000000000000000000000000000000000000000000000000000000000000000000000000000000000000000000000000000000000000000000000000000000000000000000000000000000000000000000000000000000000000000000000000000000000000000000000000000000000000000000000000000000000000000000000000000000000000000000000000000000000000000000000000000000000000000000000000000000000000000000000000000000000000000000000000000000000000000000000000000000000000000000000000000000000000000000000000000000000000000000000",
      "type": "0x2",
      "transactionHash": "0xc4105d310352d952e056f764ddf88d04c4e577628eeee2a56cc3fccb0fbd40f2",
      "transactionIndex": "0x10",
      "blockHash": "0x45a3d6fa679caeb5a9c030f6782d8c488eb3124024fefcba6c5355c09a2914b6",
      "blockNumber": "0x32ead5",
      "gasUsed": "0x5208",
      "effectiveGasPrice": "0x2210c810",
      "from": "0xe355d5d8aa52ef0fbbd037c4a3c5e6fd659cf46b",
      "to": "0x44c794bb56e79b679511031a8a875b18c6b8be98",
      "contractAddress": null
    },
    {
      "status": "0x1",
      "cumulativeGasUsed": "0x42405a",
      "logs": [
        {
          "address": "0x9445ba66bbdd3cdd48f9077536a05292f2c6d253",
          "topics": [
            "0xddf252ad1be2c89b69c2b068fc378daa952ba7f163c4a11628f55a4df523b3ef",
            "0x0000000000000000000000000000000000000000000000000000000000000000",
            "0x000000000000000000000000e355d5d8aa52ef0fbbd037c4a3c5e6fd659cf46b"
          ],
          "data": "0x000000000000000000000000000000000000000000000000000000174876e800",
          "blockHash": "0x8fed0f20a52412e4eccfc83537a7c6f3b3f3e4048c6902af15f4aa0dadc7c9b2",
          "blockNumber": "0x32ead6",
          "blockTimestamp": "0x67ac72ac",
          "transactionHash": "0x280aa652c9d51b397066d221c76a194b569d99f58dcd079580db74885512051b",
          "transactionIndex": "0xd",
          "logIndex": "0x25",
          "removed": false
        }
      ],
      "logsBloom": "0x00000000000000000000000000000000000000000000000000000000000000000000000000000000000000000000000000000000000000000000000000000000000000000000000000000008000000000000000000000000000000000000000000000000020000000000000000000800000000000000000000000010000000000000000000000000000000000000000200000000000000000000000000000000000000000000000000000000000400000000000800000000000000000080000000000002000000000000000000000000000000000000000000000000000020000000000000000020000000000000000000000000000000000000000000004000",
      "type": "0x2",
      "transactionHash": "0x280aa652c9d51b397066d221c76a194b569d99f58dcd079580db74885512051b",
      "transactionIndex": "0xd",
      "blockHash": "0x8fed0f20a52412e4eccfc83537a7c6f3b3f3e4048c6902af15f4aa0dadc7c9b2",
      "blockNumber": "0x32ead6",
      "gasUsed": "0x9b2a",
      "effectiveGasPrice": "0x2210c810",
      "from": "0xe355d5d8aa52ef0fbbd037c4a3c5e6fd659cf46b",
      "to": "0x5ada709210846da33e3866490eafb90b7ea96f7f",
      "contractAddress": null
    },
    {
      "status": "0x1",
      "cumulativeGasUsed": "0x12192b",
      "logs": [
        {
          "address": "0x9445ba66bbdd3cdd48f9077536a05292f2c6d253",
          "topics": [
            "0x8c5be1e5ebec7d5bd14f71427d1e84f3dd0314c0f7b2291e5b200ac8c7c3b925",
            "0x000000000000000000000000e355d5d8aa52ef0fbbd037c4a3c5e6fd659cf46b",
            "0x000000000000000000000000645ef85b26a8ee16d4858725045900acab7de005"
          ],
          "data": "0x000000000000000000000000000000000000000000000000000000174876e800",
          "blockHash": "0x228438d65d21b7f7654528384110b715111aeb2438525d81d31a666ba7423d04",
          "blockNumber": "0x32ead7",
          "blockTimestamp": "0x67ac72b8",
          "transactionHash": "0x0502ddbca70bb9c328fd5d166268d345bcd615fb7e439b64db8790e46342fd3a",
          "transactionIndex": "0xc",
          "logIndex": "0x8",
          "removed": false
        }
      ],
      "logsBloom": "0x00000000000000000000000000000000000000000000000000000000000000000000000000000000000000000000000000000000000000000000000000200000000000000000000000000000000000000000000000000000000000000000000000000000000000000000000000000000000000000000080000000000000000000000000000000000000000000000000200000000000000000000000000000000020000000000000000000000000400000000000800000000000000000080000000000000004000000000000000000000000000000000000000000000000000000010000000000020000000000000000000000000000040000000000000004000",
      "type": "0x2",
      "transactionHash": "0x0502ddbca70bb9c328fd5d166268d345bcd615fb7e439b64db8790e46342fd3a",
      "transactionIndex": "0xc",
      "blockHash": "0x228438d65d21b7f7654528384110b715111aeb2438525d81d31a666ba7423d04",
      "blockNumber": "0x32ead7",
      "gasUsed": "0xb361",
      "effectiveGasPrice": "0x2210c810",
      "from": "0xe355d5d8aa52ef0fbbd037c4a3c5e6fd659cf46b",
      "to": "0x9445ba66bbdd3cdd48f9077536a05292f2c6d253",
      "contractAddress": null
    },
    {
      "status": "0x1",
      "cumulativeGasUsed": "0x31e037",
      "logs": [
        {
          "address": "0x9445ba66bbdd3cdd48f9077536a05292f2c6d253",
          "topics": [
            "0xddf252ad1be2c89b69c2b068fc378daa952ba7f163c4a11628f55a4df523b3ef",
            "0x000000000000000000000000e355d5d8aa52ef0fbbd037c4a3c5e6fd659cf46b",
            "0x000000000000000000000000645ef85b26a8ee16d4858725045900acab7de005"
          ],
          "data": "0x000000000000000000000000000000000000000000000000000000174876e800",
          "blockHash": "0xce4e4d3325eaaac89aa917b4d0dd7f428829b7d2400d354144fb0376cb880862",
          "blockNumber": "0x32ead8",
          "blockTimestamp": "0x67ac72c4",
          "transactionHash": "0x99d118f3f9b2466129c2b8712d18d96e7ea2d4cf548021aff6b396a8ade8c9bb",
          "transactionIndex": "0xb",
          "logIndex": "0x3b",
          "removed": false
        },
        {
          "address": "0xaaf7c47b8f06d2532eeca6cb4d89bf1487808d33",
          "topics": [
            "0xddf252ad1be2c89b69c2b068fc378daa952ba7f163c4a11628f55a4df523b3ef",
            "0x0000000000000000000000000000000000000000000000000000000000000000",
            "0x000000000000000000000000031fecf98032ab1b2601b32cd9487b1aabae573c"
          ],
          "data": "0x000000000000000000000000000000000000000000000000000000174876e800",
          "blockHash": "0xce4e4d3325eaaac89aa917b4d0dd7f428829b7d2400d354144fb0376cb880862",
          "blockNumber": "0x32ead8",
          "blockTimestamp": "0x67ac72c4",
          "transactionHash": "0x99d118f3f9b2466129c2b8712d18d96e7ea2d4cf548021aff6b396a8ade8c9bb",
          "transactionIndex": "0xb",
          "logIndex": "0x3c",
          "removed": false
        },
        {
          "address": "0x6c29de485455c46987c52abe867b6f276a1aae02",
          "topics": [
            "0xddf252ad1be2c89b69c2b068fc378daa952ba7f163c4a11628f55a4df523b3ef",
            "0x0000000000000000000000000000000000000000000000000000000000000000",
            "0x000000000000000000000000031fecf98032ab1b2601b32cd9487b1aabae573c"
          ],
          "data": "0x000000000000000000000000000000000000000000000000000000174876e800",
          "blockHash": "0xce4e4d3325eaaac89aa917b4d0dd7f428829b7d2400d354144fb0376cb880862",
          "blockNumber": "0x32ead8",
          "blockTimestamp": "0x67ac72c4",
          "transactionHash": "0x99d118f3f9b2466129c2b8712d18d96e7ea2d4cf548021aff6b396a8ade8c9bb",
          "transactionIndex": "0xb",
          "logIndex": "0x3d",
          "removed": false
        },
        {
          "address": "0x645ef85b26a8ee16d4858725045900acab7de005",
          "topics": [
            "0xab8530f87dc9b59234c4623bf917212bb2536d647574c8e7e5da92c2ede0c9f8",
            "0x000000000000000000000000e355d5d8aa52ef0fbbd037c4a3c5e6fd659cf46b",
            "0x000000000000000000000000031fecf98032ab1b2601b32cd9487b1aabae573c"
          ],
          "data": "0x000000000000000000000000000000000000000000000000000000174876e800",
          "blockHash": "0xce4e4d3325eaaac89aa917b4d0dd7f428829b7d2400d354144fb0376cb880862",
          "blockNumber": "0x32ead8",
          "blockTimestamp": "0x67ac72c4",
          "transactionHash": "0x99d118f3f9b2466129c2b8712d18d96e7ea2d4cf548021aff6b396a8ade8c9bb",
          "transactionIndex": "0xb",
          "logIndex": "0x3e",
          "removed": false
        }
      ],
      "logsBloom": "0x00000000001000000000000000000000040000080000000000000100000000000000000000000000200000000000000000000000080000000000000002000000000000000000000000000008000000000040000000000000000000000000000000020000020000000000080000000800000000000000080000000010000000000000000000002000000000000000000200000000000000000000000000000000000000000000000000000000000400000000000800008000000000000080000000000002004000000000000000000000000000000000000000000000100020000000000000000020000000000000000000000000000840000000000000006000",
      "type": "0x2",
      "transactionHash": "0x99d118f3f9b2466129c2b8712d18d96e7ea2d4cf548021aff6b396a8ade8c9bb",
      "transactionIndex": "0xb",
      "blockHash": "0xce4e4d3325eaaac89aa917b4d0dd7f428829b7d2400d354144fb0376cb880862",
      "blockNumber": "0x32ead8",
      "gasUsed": "0x16597",
      "effectiveGasPrice": "0x2210c810",
      "from": "0xe355d5d8aa52ef0fbbd037c4a3c5e6fd659cf46b",
      "to": "0x645ef85b26a8ee16d4858725045900acab7de005",
      "contractAddress": null
    },
    {
      "status": "0x1",
      "cumulativeGasUsed": "0x624cb3",
      "logs": [
        {
          "address": "0x9445ba66bbdd3cdd48f9077536a05292f2c6d253",
          "topics": [
            "0xddf252ad1be2c89b69c2b068fc378daa952ba7f163c4a11628f55a4df523b3ef",
            "0x0000000000000000000000000000000000000000000000000000000000000000",
            "0x00000000000000000000000044c794bb56e79b679511031a8a875b18c6b8be98"
          ],
          "data": "0x0000000000000000000000000000000000000000000000000000000501bd0000",
          "blockHash": "0x10b5d134f6906002e9530c5a3ead91b65d4e2b119b47fd9be2338c8767802677",
          "blockNumber": "0x32ead9",
          "blockTimestamp": "0x67ac72dc",
          "transactionHash": "0x89f77e6118c2a849b4d2fcae5b64fe9033260cb9e132e41f47a1d0d9b7fa849a",
          "transactionIndex": "0x22",
          "logIndex": "0xb",
          "removed": false
        }
      ],
      "logsBloom": "0x00000000000000000000000000000000000000000000000000000000000000000000000000000000000000000000000000000000000000000000000000000000000000000000000000000008000000000000000000000000000000000000000000000000020000000000000000000800000000000000000000000010000000000000000000000000000000000000000000000000000000000080000000000000000000000000000000000000000400000000000800000000000000000080000000200002000000000000000000000000000000000000000000000000000020000000000000000000000000000000000000000000000000000040000000000000",
      "type": "0x2",
      "transactionHash": "0x89f77e6118c2a849b4d2fcae5b64fe9033260cb9e132e41f47a1d0d9b7fa849a",
      "transactionIndex": "0x22",
      "blockHash": "0x10b5d134f6906002e9530c5a3ead91b65d4e2b119b47fd9be2338c8767802677",
      "blockNumber": "0x32ead9",
      "gasUsed": "0xddea",
      "effectiveGasPrice": "0x2210c810",
      "from": "0xe355d5d8aa52ef0fbbd037c4a3c5e6fd659cf46b",
      "to": "0x5ada709210846da33e3866490eafb90b7ea96f7f",
      "contractAddress": null
    },
    {
      "status": "0x1",
      "cumulativeGasUsed": "0x223969",
      "logs": [
        {
          "address": "0x74e0709b2007bd0bede3e1c227088239a4df51f9",
          "topics": [
            "0xddf252ad1be2c89b69c2b068fc378daa952ba7f163c4a11628f55a4df523b3ef",
            "0x0000000000000000000000000000000000000000000000000000000000000000",
            "0x00000000000000000000000044c794bb56e79b679511031a8a875b18c6b8be98"
          ],
          "data": "0x00000000000000000000000000000000000000000000028ff13b8373d2900000",
          "blockHash": "0x64b49be05f2fed43a85a6069e8f292f47f0e75785858c3ccd8ebced9280a3a45",
          "blockNumber": "0x32eada",
          "blockTimestamp": "0x67ac72e8",
          "transactionHash": "0xd067426461f7ba01af758dd3d80948fe668fc0b4d25e34e94d95ec784116909c",
          "transactionIndex": "0x18",
          "logIndex": "0x25",
          "removed": false
        }
      ],
      "logsBloom": "0x00000000000000000000000000000000000000000000000000000000000100000000000000000000000000000000000001000000000000000000000000000000000000000000000000000008000000000000000000000000000000000000000000000000020000000000000000000800000000000000000000000010000000000000000000000000000000000000000000000000000000000080000000000000010000000000000000000000000000000000000000000000000000000000000000200002000000000000000000000000000000000000000000000000000020000000000000000000000000000000000000000000000000000040000000000000",
      "type": "0x2",
      "transactionHash": "0xd067426461f7ba01af758dd3d80948fe668fc0b4d25e34e94d95ec784116909c",
      "transactionIndex": "0x18",
      "blockHash": "0x64b49be05f2fed43a85a6069e8f292f47f0e75785858c3ccd8ebced9280a3a45",
      "blockNumber": "0x32eada",
      "gasUsed": "0xde26",
      "effectiveGasPrice": "0x2210c810",
      "from": "0xe355d5d8aa52ef0fbbd037c4a3c5e6fd659cf46b",
      "to": "0x5ada709210846da33e3866490eafb90b7ea96f7f",
      "contractAddress": null
    },
    {
      "status": "0x1",
      "cumulativeGasUsed": "0x263072",
      "logs": [
        {
          "address": "0x9445ba66bbdd3cdd48f9077536a05292f2c6d253",
          "topics": [
            "0x8c5be1e5ebec7d5bd14f71427d1e84f3dd0314c0f7b2291e5b200ac8c7c3b925",
            "0x00000000000000000000000044c794bb56e79b679511031a8a875b18c6b8be98",
            "0x000000000000000000000000031fecf98032ab1b2601b32cd9487b1aabae573c"
          ],
          "data": "0x000000000000000000000000000000000000000000000000000000003b9aca00",
          "blockHash": "0x986dde3d510dc7a737f34700d74137f63fbb6a634c19f26b79bcaee2082be56c",
          "blockNumber": "0x32eadb",
          "blockTimestamp": "0x67ac72f4",
          "transactionHash": "0x5337fdcd9b414ce4c1c9a58adfb5f90c02d5032498a3da736622d8dab4c866b8",
          "transactionIndex": "0x22",
          "logIndex": "0x30",
          "removed": false
        }
      ],
      "logsBloom": "0x00000000000000000000000000000000000000080000000000000000000000000000000000000000000000000000000000000000000000000000000002200000000000000000000000000000000000000000000000000000000000000000000000000000000000000000000000000000000000000000000000000000000000000000000000000000000000000000000000000000000000000080000000000000020000000000000000000000000400000000000800000000000000000080000000200000000000000000000000000000000000000000000000000000100000000010000000000000000000000000000000000000000000000040000000000000",
      "type": "0x2",
      "transactionHash": "0x5337fdcd9b414ce4c1c9a58adfb5f90c02d5032498a3da736622d8dab4c866b8",
      "transactionIndex": "0x22",
      "blockHash": "0x986dde3d510dc7a737f34700d74137f63fbb6a634c19f26b79bcaee2082be56c",
      "blockNumber": "0x32eadb",
      "gasUsed": "0xb361",
      "effectiveGasPrice": "0x2210c810",
      "from": "0x44c794bb56e79b679511031a8a875b18c6b8be98",
      "to": "0x9445ba66bbdd3cdd48f9077536a05292f2c6d253",
      "contractAddress": null
    },
    {
      "status": "0x1",
      "cumulativeGasUsed": "0x18a12b",
      "logs": [
        {
          "address": "0x9445ba66bbdd3cdd48f9077536a05292f2c6d253",
          "topics": [
            "0xddf252ad1be2c89b69c2b068fc378daa952ba7f163c4a11628f55a4df523b3ef",
            "0x00000000000000000000000044c794bb56e79b679511031a8a875b18c6b8be98",
            "0x000000000000000000000000031fecf98032ab1b2601b32cd9487b1aabae573c"
          ],
          "data": "0x000000000000000000000000000000000000000000000000000000003b9aca00",
          "blockHash": "0x0149539fdd2e05b9c21067cbc63bad048f9008f0ce36978966376cf619008076",
          "blockNumber": "0x32eadc",
          "blockTimestamp": "0x67ac7300",
          "transactionHash": "0xf4ab53ee19591fb36e3c2c447641e008054c9c66d6b336f2ea95fe7fd44f7672",
          "transactionIndex": "0x8",
          "logIndex": "0xe",
          "removed": false
        },
        {
          "address": "0x9445ba66bbdd3cdd48f9077536a05292f2c6d253",
          "topics": [
            "0x8c5be1e5ebec7d5bd14f71427d1e84f3dd0314c0f7b2291e5b200ac8c7c3b925",
            "0x000000000000000000000000031fecf98032ab1b2601b32cd9487b1aabae573c",
            "0x000000000000000000000000645ef85b26a8ee16d4858725045900acab7de005"
          ],
          "data": "0x000000000000000000000000000000000000000000000000000000003b9aca00",
          "blockHash": "0x0149539fdd2e05b9c21067cbc63bad048f9008f0ce36978966376cf619008076",
          "blockNumber": "0x32eadc",
          "blockTimestamp": "0x67ac7300",
          "transactionHash": "0xf4ab53ee19591fb36e3c2c447641e008054c9c66d6b336f2ea95fe7fd44f7672",
          "transactionIndex": "0x8",
          "logIndex": "0xf",
          "removed": false
        },
        {
          "address": "0x9445ba66bbdd3cdd48f9077536a05292f2c6d253",
          "topics": [
            "0xddf252ad1be2c89b69c2b068fc378daa952ba7f163c4a11628f55a4df523b3ef",
            "0x000000000000000000000000031fecf98032ab1b2601b32cd9487b1aabae573c",
            "0x000000000000000000000000645ef85b26a8ee16d4858725045900acab7de005"
          ],
          "data": "0x000000000000000000000000000000000000000000000000000000003b9aca00",
          "blockHash": "0x0149539fdd2e05b9c21067cbc63bad048f9008f0ce36978966376cf619008076",
          "blockNumber": "0x32eadc",
          "blockTimestamp": "0x67ac7300",
          "transactionHash": "0xf4ab53ee19591fb36e3c2c447641e008054c9c66d6b336f2ea95fe7fd44f7672",
          "transactionIndex": "0x8",
          "logIndex": "0x10",
          "removed": false
        },
        {
          "address": "0xaaf7c47b8f06d2532eeca6cb4d89bf1487808d33",
          "topics": [
            "0xddf252ad1be2c89b69c2b068fc378daa952ba7f163c4a11628f55a4df523b3ef",
            "0x0000000000000000000000000000000000000000000000000000000000000000",
            "0x000000000000000000000000031fecf98032ab1b2601b32cd9487b1aabae573c"
          ],
          "data": "0x000000000000000000000000000000000000000000000000000000003b9aca00",
          "blockHash": "0x0149539fdd2e05b9c21067cbc63bad048f9008f0ce36978966376cf619008076",
          "blockNumber": "0x32eadc",
          "blockTimestamp": "0x67ac7300",
          "transactionHash": "0xf4ab53ee19591fb36e3c2c447641e008054c9c66d6b336f2ea95fe7fd44f7672",
          "transactionIndex": "0x8",
          "logIndex": "0x11",
          "removed": false
        },
        {
          "address": "0x6c29de485455c46987c52abe867b6f276a1aae02",
          "topics": [
            "0xddf252ad1be2c89b69c2b068fc378daa952ba7f163c4a11628f55a4df523b3ef",
            "0x0000000000000000000000000000000000000000000000000000000000000000",
            "0x000000000000000000000000031fecf98032ab1b2601b32cd9487b1aabae573c"
          ],
          "data": "0x000000000000000000000000000000000000000000000000000000003b9aca00",
          "blockHash": "0x0149539fdd2e05b9c21067cbc63bad048f9008f0ce36978966376cf619008076",
          "blockNumber": "0x32eadc",
          "blockTimestamp": "0x67ac7300",
          "transactionHash": "0xf4ab53ee19591fb36e3c2c447641e008054c9c66d6b336f2ea95fe7fd44f7672",
          "transactionIndex": "0x8",
          "logIndex": "0x12",
          "removed": false
        },
        {
          "address": "0x645ef85b26a8ee16d4858725045900acab7de005",
          "topics": [
            "0xab8530f87dc9b59234c4623bf917212bb2536d647574c8e7e5da92c2ede0c9f8",
            "0x000000000000000000000000031fecf98032ab1b2601b32cd9487b1aabae573c",
            "0x000000000000000000000000031fecf98032ab1b2601b32cd9487b1aabae573c"
          ],
          "data": "0x000000000000000000000000000000000000000000000000000000003b9aca00",
          "blockHash": "0x0149539fdd2e05b9c21067cbc63bad048f9008f0ce36978966376cf619008076",
          "blockNumber": "0x32eadc",
          "blockTimestamp": "0x67ac7300",
          "transactionHash": "0xf4ab53ee19591fb36e3c2c447641e008054c9c66d6b336f2ea95fe7fd44f7672",
          "transactionIndex": "0x8",
          "logIndex": "0x13",
          "removed": false
        },
        {
          "address": "0xaaf7c47b8f06d2532eeca6cb4d89bf1487808d33",
          "topics": [
            "0xddf252ad1be2c89b69c2b068fc378daa952ba7f163c4a11628f55a4df523b3ef",
            "0x000000000000000000000000031fecf98032ab1b2601b32cd9487b1aabae573c",
            "0x00000000000000000000000044c794bb56e79b679511031a8a875b18c6b8be98"
          ],
          "data": "0x000000000000000000000000000000000000000000000000000000003cc2a40d",
          "blockHash": "0x0149539fdd2e05b9c21067cbc63bad048f9008f0ce36978966376cf619008076",
          "blockNumber": "0x32eadc",
          "blockTimestamp": "0x67ac7300",
          "transactionHash": "0xf4ab53ee19591fb36e3c2c447641e008054c9c66d6b336f2ea95fe7fd44f7672",
          "transactionIndex": "0x8",
          "logIndex": "0x14",
          "removed": false
        },
        {
          "address": "0xaaf7c47b8f06d2532eeca6cb4d89bf1487808d33",
          "topics": [
            "0xddf252ad1be2c89b69c2b068fc378daa952ba7f163c4a11628f55a4df523b3ef",
            "0x000000000000000000000000031fecf98032ab1b2601b32cd9487b1aabae573c",
            "0x0000000000000000000000007ab945445958819a74b48e8bd5f9e39ed74bde9e"
          ],
          "data": "0x000000000000000000000000000000000000000000000000000000000015ccb2",
          "blockHash": "0x0149539fdd2e05b9c21067cbc63bad048f9008f0ce36978966376cf619008076",
          "blockNumber": "0x32eadc",
          "blockTimestamp": "0x67ac7300",
          "transactionHash": "0xf4ab53ee19591fb36e3c2c447641e008054c9c66d6b336f2ea95fe7fd44f7672",
          "transactionIndex": "0x8",
          "logIndex": "0x15",
          "removed": false
        },
        {
          "address": "0x031fecf98032ab1b2601b32cd9487b1aabae573c",
          "topics": [
            "0xafc472950ba0847ac0541a7d71ad9977d695e4dba0cc223dba88d5fa8609732a",
            "0x0000000000000000000000009445ba66bbdd3cdd48f9077536a05292f2c6d253",
            "0x000000000000000000000000aaf7c47b8f06d2532eeca6cb4d89bf1487808d33"
          ],
          "data": "0x00000000000000000000000044c794bb56e79b679511031a8a875b18c6b8be9800000000000000000000000044c794bb56e79b679511031a8a875b18c6b8be98000000000000000000000000000000000000000000000000000000003b9aca00000000000000000000000000000000000000000000000000000000003cc2a40d000000000000000000000000000000000000000000000000000000000015ccb2",
          "blockHash": "0x0149539fdd2e05b9c21067cbc63bad048f9008f0ce36978966376cf619008076",
          "blockNumber": "0x32eadc",
          "blockTimestamp": "0x67ac7300",
          "transactionHash": "0xf4ab53ee19591fb36e3c2c447641e008054c9c66d6b336f2ea95fe7fd44f7672",
          "transactionIndex": "0x8",
          "logIndex": "0x16",
          "removed": false
        }
      ],
      "logsBloom": "0x02000000001000000000000000000000040004080000000000000100000000000000000000000000200008000000000000000000080020000000000002200000000000000000000040000008020000000040000000001000000000000000000000020000020000000000080000000800000000000000080000000010000000000000000000006040000000000000000000000000000000000080000000000000020000200000000000000000000461000000000800008000000000010080000000200002004000000000000000000000010000000000000000000000100020000010000000000000000000000000000000000000000840000040000000002000",
      "type": "0x2",
      "transactionHash": "0xf4ab53ee19591fb36e3c2c447641e008054c9c66d6b336f2ea95fe7fd44f7672",
      "transactionIndex": "0x8",
      "blockHash": "0x0149539fdd2e05b9c21067cbc63bad048f9008f0ce36978966376cf619008076",
      "blockNumber": "0x32eadc",
      "gasUsed": "0x3b7c2",
      "effectiveGasPrice": "0x2210c810",
      "from": "0x44c794bb56e79b679511031a8a875b18c6b8be98",
      "to": "0x031fecf98032ab1b2601b32cd9487b1aabae573c",
      "contractAddress": null
    },
    {
      "status": "0x1",
      "cumulativeGasUsed": "0x1f4181",
      "logs": [
        {
          "address": "0x74e0709b2007bd0bede3e1c227088239a4df51f9",
          "topics": [
            "0x8c5be1e5ebec7d5bd14f71427d1e84f3dd0314c0f7b2291e5b200ac8c7c3b925",
            "0x00000000000000000000000044c794bb56e79b679511031a8a875b18c6b8be98",
            "0x000000000000000000000000959d4521bd48b6487d415aad576af2222adb1a92"
          ],
          "data": "0x00000000000000000000000000000000000000000000028a857425466f800000",
          "blockHash": "0x3030b3f793109b45d2f19c39cfebe04f02ed487f1951ad6aaacd73c87fd4cbb5",
          "blockNumber": "0x32eadd",
          "blockTimestamp": "0x67ac7318",
          "transactionHash": "0x508267aeeb1b6cd310bcfd4aeae6d7879ba2eedecccef574f714fd0641ee9b4e",
          "transactionIndex": "0x18",
          "logIndex": "0x25",
          "removed": false
        }
      ],
      "logsBloom": "0x00000000000000000000000000000000000000000000000000000000000100000000000000000000000020000000000001000000000000000000000000200000000000000000000000000000000000000000000000000000000000000000000000100000000010000000000000000000000000000000000000000000000000000000000000000000000000000000000000000000000000000080000000000000030000000000000000000000000000000000000000000000000000000000000000200000000000000000000000000000000000000000000000000000000000000010000000000000000000000000000000000000000000000040000000000000",
      "type": "0x2",
      "transactionHash": "0x508267aeeb1b6cd310bcfd4aeae6d7879ba2eedecccef574f714fd0641ee9b4e",
      "transactionIndex": "0x18",
      "blockHash": "0x3030b3f793109b45d2f19c39cfebe04f02ed487f1951ad6aaacd73c87fd4cbb5",
      "blockNumber": "0x32eadd",
      "gasUsed": "0xb39d",
      "effectiveGasPrice": "0x2210c810",
      "from": "0x44c794bb56e79b679511031a8a875b18c6b8be98",
      "to": "0x74e0709b2007bd0bede3e1c227088239a4df51f9",
      "contractAddress": null
    },
    {
      "status": "0x1",
      "cumulativeGasUsed": "0x259b6e",
      "logs": [
        {
          "address": "0x74e0709b2007bd0bede3e1c227088239a4df51f9",
          "topics": [
            "0xddf252ad1be2c89b69c2b068fc378daa952ba7f163c4a11628f55a4df523b3ef",
            "0x00000000000000000000000044c794bb56e79b679511031a8a875b18c6b8be98",
            "0x000000000000000000000000959d4521bd48b6487d415aad576af2222adb1a92"
          ],
          "data": "0x00000000000000000000000000000000000000000000028a857425466f800000",
          "blockHash": "0x5d9a097117616e574d20777b5000fcbaefe8ee5c1042584670e3036d98fdbe00",
          "blockNumber": "0x32eade",
          "blockTimestamp": "0x67ac7324",
          "transactionHash": "0x343efbc573597a8bdd51686d88ef321b5fffd6434a1572ff9cd408b59407eb20",
          "transactionIndex": "0x2e",
          "logIndex": "0xc",
          "removed": false
        },
        {
          "address": "0x74e0709b2007bd0bede3e1c227088239a4df51f9",
          "topics": [
            "0x8c5be1e5ebec7d5bd14f71427d1e84f3dd0314c0f7b2291e5b200ac8c7c3b925",
            "0x000000000000000000000000959d4521bd48b6487d415aad576af2222adb1a92",
            "0x000000000000000000000000a05ed08316b03e73b8007ddfae841ab29f10b3c1"
          ],
          "data": "0x00000000000000000000000000000000000000000000028a857425466f800000",
          "blockHash": "0x5d9a097117616e574d20777b5000fcbaefe8ee5c1042584670e3036d98fdbe00",
          "blockNumber": "0x32eade",
          "blockTimestamp": "0x67ac7324",
          "transactionHash": "0x343efbc573597a8bdd51686d88ef321b5fffd6434a1572ff9cd408b59407eb20",
          "transactionIndex": "0x2e",
          "logIndex": "0xd",
          "removed": false
        },
        {
          "address": "0x74e0709b2007bd0bede3e1c227088239a4df51f9",
          "topics": [
            "0xddf252ad1be2c89b69c2b068fc378daa952ba7f163c4a11628f55a4df523b3ef",
            "0x000000000000000000000000959d4521bd48b6487d415aad576af2222adb1a92",
            "0x000000000000000000000000a05ed08316b03e73b8007ddfae841ab29f10b3c1"
          ],
          "data": "0x00000000000000000000000000000000000000000000028a857425466f800000",
          "blockHash": "0x5d9a097117616e574d20777b5000fcbaefe8ee5c1042584670e3036d98fdbe00",
          "blockNumber": "0x32eade",
          "blockTimestamp": "0x67ac7324",
          "transactionHash": "0x343efbc573597a8bdd51686d88ef321b5fffd6434a1572ff9cd408b59407eb20",
          "transactionIndex": "0x2e",
          "logIndex": "0xe",
          "removed": false
        },
        {
          "address": "0xa05ed08316b03e73b8007ddfae841ab29f10b3c1",
          "topics": [
            "0xddf252ad1be2c89b69c2b068fc378daa952ba7f163c4a11628f55a4df523b3ef",
            "0x0000000000000000000000000000000000000000000000000000000000000000",
            "0x000000000000000000000000959d4521bd48b6487d415aad576af2222adb1a92",
            "0x0000000000000000000000000000000000000000000000000000000000000029"
          ],
          "data": "0x",
          "blockHash": "0x5d9a097117616e574d20777b5000fcbaefe8ee5c1042584670e3036d98fdbe00",
          "blockNumber": "0x32eade",
          "blockTimestamp": "0x67ac7324",
          "transactionHash": "0x343efbc573597a8bdd51686d88ef321b5fffd6434a1572ff9cd408b59407eb20",
          "transactionIndex": "0x2e",
          "logIndex": "0xf",
          "removed": false
        },
        {
          "address": "0xaaf7c47b8f06d2532eeca6cb4d89bf1487808d33",
          "topics": [
            "0xddf252ad1be2c89b69c2b068fc378daa952ba7f163c4a11628f55a4df523b3ef",
            "0x0000000000000000000000000000000000000000000000000000000000000000",
            "0x0000000000000000000000007ab945445958819a74b48e8bd5f9e39ed74bde9e"
          ],
          "data": "0x00000000000000000000000000000000000000000000000000000000001e88ae",
          "blockHash": "0x5d9a097117616e574d20777b5000fcbaefe8ee5c1042584670e3036d98fdbe00",
          "blockNumber": "0x32eade",
          "blockTimestamp": "0x67ac7324",
          "transactionHash": "0x343efbc573597a8bdd51686d88ef321b5fffd6434a1572ff9cd408b59407eb20",
          "transactionIndex": "0x2e",
          "logIndex": "0x10",
          "removed": false
        },
        {
          "address": "0xaaf7c47b8f06d2532eeca6cb4d89bf1487808d33",
          "topics": [
            "0xddf252ad1be2c89b69c2b068fc378daa952ba7f163c4a11628f55a4df523b3ef",
            "0x0000000000000000000000000000000000000000000000000000000000000000",
            "0x000000000000000000000000959d4521bd48b6487d415aad576af2222adb1a92"
          ],
          "data": "0x00000000000000000000000000000000000000000000000000000001fa852c52",
          "blockHash": "0x5d9a097117616e574d20777b5000fcbaefe8ee5c1042584670e3036d98fdbe00",
          "blockNumber": "0x32eade",
          "blockTimestamp": "0x67ac7324",
          "transactionHash": "0x343efbc573597a8bdd51686d88ef321b5fffd6434a1572ff9cd408b59407eb20",
          "transactionIndex": "0x2e",
          "logIndex": "0x11",
          "removed": false
        },
        {
          "address": "0x645ef85b26a8ee16d4858725045900acab7de005",
          "topics": [
            "0x4df3b19e819480e8ca2aff222a35ef1641eedcaf2f0fe5e7bfe9ca499548df80",
            "0x000000000000000000000000959d4521bd48b6487d415aad576af2222adb1a92",
            "0x000000000000000000000000959d4521bd48b6487d415aad576af2222adb1a92",
            "0x0000000000000000000000000000000000000000000000000000000000000029"
          ],
          "data": "0x00000000000000000000000000000000000000000000000000000001faa3b50000000000000000000000000000000000000000000000000000000001fa852c5200000000000000000000000000000000000000000000000000000000001e88ae0000000000000000000000000000000000000000000000000000000000000080000000000000000000000000000000000000000000000000000000000000002000000000000000000000000000000000000000000000028a857425466f800000",
          "blockHash": "0x5d9a097117616e574d20777b5000fcbaefe8ee5c1042584670e3036d98fdbe00",
          "blockNumber": "0x32eade",
          "blockTimestamp": "0x67ac7324",
          "transactionHash": "0x343efbc573597a8bdd51686d88ef321b5fffd6434a1572ff9cd408b59407eb20",
          "transactionIndex": "0x2e",
          "logIndex": "0x12",
          "removed": false
        },
        {
          "address": "0xaaf7c47b8f06d2532eeca6cb4d89bf1487808d33",
          "topics": [
            "0x8c5be1e5ebec7d5bd14f71427d1e84f3dd0314c0f7b2291e5b200ac8c7c3b925",
            "0x000000000000000000000000959d4521bd48b6487d415aad576af2222adb1a92",
            "0x000000000000000000000000031fecf98032ab1b2601b32cd9487b1aabae573c"
          ],
          "data": "0x000000000000000000000000000000000000000000000000000000020bbe9473",
          "blockHash": "0x5d9a097117616e574d20777b5000fcbaefe8ee5c1042584670e3036d98fdbe00",
          "blockNumber": "0x32eade",
          "blockTimestamp": "0x67ac7324",
          "transactionHash": "0x343efbc573597a8bdd51686d88ef321b5fffd6434a1572ff9cd408b59407eb20",
          "transactionIndex": "0x2e",
          "logIndex": "0x13",
          "removed": false
        },
        {
          "address": "0xaaf7c47b8f06d2532eeca6cb4d89bf1487808d33",
          "topics": [
            "0xddf252ad1be2c89b69c2b068fc378daa952ba7f163c4a11628f55a4df523b3ef",
            "0x000000000000000000000000959d4521bd48b6487d415aad576af2222adb1a92",
            "0x000000000000000000000000031fecf98032ab1b2601b32cd9487b1aabae573c"
          ],
          "data": "0x00000000000000000000000000000000000000000000000000000001f14a068b",
          "blockHash": "0x5d9a097117616e574d20777b5000fcbaefe8ee5c1042584670e3036d98fdbe00",
          "blockNumber": "0x32eade",
          "blockTimestamp": "0x67ac7324",
          "transactionHash": "0x343efbc573597a8bdd51686d88ef321b5fffd6434a1572ff9cd408b59407eb20",
          "transactionIndex": "0x2e",
          "logIndex": "0x14",
          "removed": false
        },
        {
          "address": "0xaaf7c47b8f06d2532eeca6cb4d89bf1487808d33",
          "topics": [
            "0x8c5be1e5ebec7d5bd14f71427d1e84f3dd0314c0f7b2291e5b200ac8c7c3b925",
            "0x000000000000000000000000031fecf98032ab1b2601b32cd9487b1aabae573c",
            "0x000000000000000000000000645ef85b26a8ee16d4858725045900acab7de005"
          ],
          "data": "0x00000000000000000000000000000000000000000000000000000001dcd65000",
          "blockHash": "0x5d9a097117616e574d20777b5000fcbaefe8ee5c1042584670e3036d98fdbe00",
          "blockNumber": "0x32eade",
          "blockTimestamp": "0x67ac7324",
          "transactionHash": "0x343efbc573597a8bdd51686d88ef321b5fffd6434a1572ff9cd408b59407eb20",
          "transactionIndex": "0x2e",
          "logIndex": "0x15",
          "removed": false
        },
        {
          "address": "0x6c29de485455c46987c52abe867b6f276a1aae02",
          "topics": [
            "0x8c5be1e5ebec7d5bd14f71427d1e84f3dd0314c0f7b2291e5b200ac8c7c3b925",
            "0x000000000000000000000000031fecf98032ab1b2601b32cd9487b1aabae573c",
            "0x000000000000000000000000645ef85b26a8ee16d4858725045900acab7de005"
          ],
          "data": "0x00000000000000000000000000000000000000000000000000000001dcd65000",
          "blockHash": "0x5d9a097117616e574d20777b5000fcbaefe8ee5c1042584670e3036d98fdbe00",
          "blockNumber": "0x32eade",
          "blockTimestamp": "0x67ac7324",
          "transactionHash": "0x343efbc573597a8bdd51686d88ef321b5fffd6434a1572ff9cd408b59407eb20",
          "transactionIndex": "0x2e",
          "logIndex": "0x16",
          "removed": false
        },
        {
          "address": "0xaaf7c47b8f06d2532eeca6cb4d89bf1487808d33",
          "topics": [
            "0xddf252ad1be2c89b69c2b068fc378daa952ba7f163c4a11628f55a4df523b3ef",
            "0x000000000000000000000000031fecf98032ab1b2601b32cd9487b1aabae573c",
            "0x000000000000000000000000645ef85b26a8ee16d4858725045900acab7de005"
          ],
          "data": "0x00000000000000000000000000000000000000000000000000000001dcd65000",
          "blockHash": "0x5d9a097117616e574d20777b5000fcbaefe8ee5c1042584670e3036d98fdbe00",
          "blockNumber": "0x32eade",
          "blockTimestamp": "0x67ac7324",
          "transactionHash": "0x343efbc573597a8bdd51686d88ef321b5fffd6434a1572ff9cd408b59407eb20",
          "transactionIndex": "0x2e",
          "logIndex": "0x17",
          "removed": false
        },
        {
          "address": "0x6c29de485455c46987c52abe867b6f276a1aae02",
          "topics": [
            "0xddf252ad1be2c89b69c2b068fc378daa952ba7f163c4a11628f55a4df523b3ef",
            "0x000000000000000000000000031fecf98032ab1b2601b32cd9487b1aabae573c",
            "0x000000000000000000000000645ef85b26a8ee16d4858725045900acab7de005"
          ],
          "data": "0x00000000000000000000000000000000000000000000000000000001dcd65000",
          "blockHash": "0x5d9a097117616e574d20777b5000fcbaefe8ee5c1042584670e3036d98fdbe00",
          "blockNumber": "0x32eade",
          "blockTimestamp": "0x67ac7324",
          "transactionHash": "0x343efbc573597a8bdd51686d88ef321b5fffd6434a1572ff9cd408b59407eb20",
          "transactionIndex": "0x2e",
          "logIndex": "0x18",
          "removed": false
        },
        {
          "address": "0xaaf7c47b8f06d2532eeca6cb4d89bf1487808d33",
          "topics": [
            "0xddf252ad1be2c89b69c2b068fc378daa952ba7f163c4a11628f55a4df523b3ef",
            "0x000000000000000000000000645ef85b26a8ee16d4858725045900acab7de005",
            "0x0000000000000000000000000000000000000000000000000000000000000000"
          ],
          "data": "0x00000000000000000000000000000000000000000000000000000001dcd65000",
          "blockHash": "0x5d9a097117616e574d20777b5000fcbaefe8ee5c1042584670e3036d98fdbe00",
          "blockNumber": "0x32eade",
          "blockTimestamp": "0x67ac7324",
          "transactionHash": "0x343efbc573597a8bdd51686d88ef321b5fffd6434a1572ff9cd408b59407eb20",
          "transactionIndex": "0x2e",
          "logIndex": "0x19",
          "removed": false
        },
        {
          "address": "0x6c29de485455c46987c52abe867b6f276a1aae02",
          "topics": [
            "0xddf252ad1be2c89b69c2b068fc378daa952ba7f163c4a11628f55a4df523b3ef",
            "0x000000000000000000000000645ef85b26a8ee16d4858725045900acab7de005",
            "0x0000000000000000000000000000000000000000000000000000000000000000"
          ],
          "data": "0x00000000000000000000000000000000000000000000000000000001dcd65000",
          "blockHash": "0x5d9a097117616e574d20777b5000fcbaefe8ee5c1042584670e3036d98fdbe00",
          "blockNumber": "0x32eade",
          "blockTimestamp": "0x67ac7324",
          "transactionHash": "0x343efbc573597a8bdd51686d88ef321b5fffd6434a1572ff9cd408b59407eb20",
          "transactionIndex": "0x2e",
          "logIndex": "0x1a",
          "removed": false
        },
        {
          "address": "0x9445ba66bbdd3cdd48f9077536a05292f2c6d253",
          "topics": [
            "0xddf252ad1be2c89b69c2b068fc378daa952ba7f163c4a11628f55a4df523b3ef",
            "0x000000000000000000000000645ef85b26a8ee16d4858725045900acab7de005",
            "0x00000000000000000000000044c794bb56e79b679511031a8a875b18c6b8be98"
          ],
          "data": "0x00000000000000000000000000000000000000000000000000000001dcd65000",
          "blockHash": "0x5d9a097117616e574d20777b5000fcbaefe8ee5c1042584670e3036d98fdbe00",
          "blockNumber": "0x32eade",
          "blockTimestamp": "0x67ac7324",
          "transactionHash": "0x343efbc573597a8bdd51686d88ef321b5fffd6434a1572ff9cd408b59407eb20",
          "transactionIndex": "0x2e",
          "logIndex": "0x1b",
          "removed": false
        },
        {
          "address": "0x645ef85b26a8ee16d4858725045900acab7de005",
          "topics": [
            "0xbac40739b0d4ca32fa2d82fc91630465ba3eddd1598da6fca393b26fb63b9453",
            "0x000000000000000000000000031fecf98032ab1b2601b32cd9487b1aabae573c",
            "0x00000000000000000000000044c794bb56e79b679511031a8a875b18c6b8be98"
          ],
          "data": "0x00000000000000000000000000000000000000000000000000000001dcd65000",
          "blockHash": "0x5d9a097117616e574d20777b5000fcbaefe8ee5c1042584670e3036d98fdbe00",
          "blockNumber": "0x32eade",
          "blockTimestamp": "0x67ac7324",
          "transactionHash": "0x343efbc573597a8bdd51686d88ef321b5fffd6434a1572ff9cd408b59407eb20",
          "transactionIndex": "0x2e",
          "logIndex": "0x1c",
          "removed": false
        },
        {
          "address": "0xaaf7c47b8f06d2532eeca6cb4d89bf1487808d33",
          "topics": [
            "0xddf252ad1be2c89b69c2b068fc378daa952ba7f163c4a11628f55a4df523b3ef",
            "0x000000000000000000000000031fecf98032ab1b2601b32cd9487b1aabae573c",
            "0x0000000000000000000000007ab945445958819a74b48e8bd5f9e39ed74bde9e"
          ],
          "data": "0x0000000000000000000000000000000000000000000000000000000000823ddb",
          "blockHash": "0x5d9a097117616e574d20777b5000fcbaefe8ee5c1042584670e3036d98fdbe00",
          "blockNumber": "0x32eade",
          "blockTimestamp": "0x67ac7324",
          "transactionHash": "0x343efbc573597a8bdd51686d88ef321b5fffd6434a1572ff9cd408b59407eb20",
          "transactionIndex": "0x2e",
          "logIndex": "0x1d",
          "removed": false
        },
        {
          "address": "0x031fecf98032ab1b2601b32cd9487b1aabae573c",
          "topics": [
            "0x48054139172b057097b1c514c1e58472e50cc4e9f779f0447d95c62b30403df8",
            "0x000000000000000000000000aaf7c47b8f06d2532eeca6cb4d89bf1487808d33",
            "0x0000000000000000000000009445ba66bbdd3cdd48f9077536a05292f2c6d253"
          ],
          "data": "0x000000000000000000000000959d4521bd48b6487d415aad576af2222adb1a9200000000000000000000000044c794bb56e79b679511031a8a875b18c6b8be9800000000000000000000000000000000000000000000000000000001dcd6500000000000000000000000000000000000000000000000000000000001f14a068b0000000000000000000000000000000000000000000000000000000000823ddb",
          "blockHash": "0x5d9a097117616e574d20777b5000fcbaefe8ee5c1042584670e3036d98fdbe00",
          "blockNumber": "0x32eade",
          "blockTimestamp": "0x67ac7324",
          "transactionHash": "0x343efbc573597a8bdd51686d88ef321b5fffd6434a1572ff9cd408b59407eb20",
          "transactionIndex": "0x2e",
          "logIndex": "0x1e",
          "removed": false
        },
        {
          "address": "0xaaf7c47b8f06d2532eeca6cb4d89bf1487808d33",
          "topics": [
            "0x8c5be1e5ebec7d5bd14f71427d1e84f3dd0314c0f7b2291e5b200ac8c7c3b925",
            "0x000000000000000000000000959d4521bd48b6487d415aad576af2222adb1a92",
            "0x000000000000000000000000a05ed08316b03e73b8007ddfae841ab29f10b3c1"
          ],
          "data": "0x00000000000000000000000000000000000000000000000000000000093b25c7",
          "blockHash": "0x5d9a097117616e574d20777b5000fcbaefe8ee5c1042584670e3036d98fdbe00",
          "blockNumber": "0x32eade",
          "blockTimestamp": "0x67ac7324",
          "transactionHash": "0x343efbc573597a8bdd51686d88ef321b5fffd6434a1572ff9cd408b59407eb20",
          "transactionIndex": "0x2e",
          "logIndex": "0x1f",
          "removed": false
        },
        {
          "address": "0xaaf7c47b8f06d2532eeca6cb4d89bf1487808d33",
          "topics": [
            "0xddf252ad1be2c89b69c2b068fc378daa952ba7f163c4a11628f55a4df523b3ef",
            "0x000000000000000000000000959d4521bd48b6487d415aad576af2222adb1a92",
            "0x000000000000000000000000645ef85b26a8ee16d4858725045900acab7de005"
          ],
          "data": "0x00000000000000000000000000000000000000000000000000000000093b25c7",
          "blockHash": "0x5d9a097117616e574d20777b5000fcbaefe8ee5c1042584670e3036d98fdbe00",
          "blockNumber": "0x32eade",
          "blockTimestamp": "0x67ac7324",
          "transactionHash": "0x343efbc573597a8bdd51686d88ef321b5fffd6434a1572ff9cd408b59407eb20",
          "transactionIndex": "0x2e",
          "logIndex": "0x20",
          "removed": false
        },
        {
          "address": "0xa05ed08316b03e73b8007ddfae841ab29f10b3c1",
          "topics": [
            "0x1efbe429bb48635fd7ce810da2f114c950d5bbd6b891af243520cdb08ca9aa67",
            "0x0000000000000000000000000000000000000000000000000000000000000029"
          ],
          "data": "0x00000000000000000000000000000000000000000000000000000000093b25c70000000000000000000000000000000000000000000000000000000000000000",
          "blockHash": "0x5d9a097117616e574d20777b5000fcbaefe8ee5c1042584670e3036d98fdbe00",
          "blockNumber": "0x32eade",
          "blockTimestamp": "0x67ac7324",
          "transactionHash": "0x343efbc573597a8bdd51686d88ef321b5fffd6434a1572ff9cd408b59407eb20",
          "transactionIndex": "0x2e",
          "logIndex": "0x21",
          "removed": false
        },
        {
          "address": "0xa05ed08316b03e73b8007ddfae841ab29f10b3c1",
          "topics": [
            "0xddf252ad1be2c89b69c2b068fc378daa952ba7f163c4a11628f55a4df523b3ef",
            "0x000000000000000000000000959d4521bd48b6487d415aad576af2222adb1a92",
            "0x00000000000000000000000044c794bb56e79b679511031a8a875b18c6b8be98",
            "0x0000000000000000000000000000000000000000000000000000000000000029"
          ],
          "data": "0x",
          "blockHash": "0x5d9a097117616e574d20777b5000fcbaefe8ee5c1042584670e3036d98fdbe00",
          "blockNumber": "0x32eade",
          "blockTimestamp": "0x67ac7324",
          "transactionHash": "0x343efbc573597a8bdd51686d88ef321b5fffd6434a1572ff9cd408b59407eb20",
          "transactionIndex": "0x2e",
          "logIndex": "0x22",
          "removed": false
        },
        {
          "address": "0x959d4521bd48b6487d415aad576af2222adb1a92",
          "topics": [
            "0xdc3efdf28701077a23ef0beb0f3260ca639658ce2676bbc9d83030fac6ce5612",
            "0x000000000000000000000000645ef85b26a8ee16d4858725045900acab7de005",
            "0x0000000000000000000000000000000000000000000000000000000000000029"
          ],
          "data": "0x00000000000000000000000044c794bb56e79b679511031a8a875b18c6b8be9800000000000000000000000044c794bb56e79b679511031a8a875b18c6b8be9800000000000000000000000000000000000000000000028a857425466f80000000000000000000000000000000000000000000000000000000000001f1688f3900000000000000000000000000000000000000000000000000000001dcd65000",
          "blockHash": "0x5d9a097117616e574d20777b5000fcbaefe8ee5c1042584670e3036d98fdbe00",
          "blockNumber": "0x32eade",
          "blockTimestamp": "0x67ac7324",
          "transactionHash": "0x343efbc573597a8bdd51686d88ef321b5fffd6434a1572ff9cd408b59407eb20",
          "transactionIndex": "0x2e",
          "logIndex": "0x23",
          "removed": false
        }
      ],
      "logsBloom": "0x000000000010100000000000000081000400040800000000000800000001000000000000000000002000280000000000010000000800200000000000022000000000000000000200400000080200000000c00000000010000000000008200000001400000200500000004800000008020000000000000808000000100000002000000000000060400000000000000000100000000080000004a0000000000000030000000000000000000000000461000000000800008000020000010080000000200002005000000010000000000000000000000000400800000010100020000010001000000000000000000000000000008000000040000040080000002000",
      "type": "0x2",
      "transactionHash": "0x343efbc573597a8bdd51686d88ef321b5fffd6434a1572ff9cd408b59407eb20",
      "transactionIndex": "0x2e",
      "blockHash": "0x5d9a097117616e574d20777b5000fcbaefe8ee5c1042584670e3036d98fdbe00",
      "blockNumber": "0x32eade",
      "gasUsed": "0xa0a90",
      "effectiveGasPrice": "0x2210c810",
      "from": "0x44c794bb56e79b679511031a8a875b18c6b8be98",
      "to": "0x959d4521bd48b6487d415aad576af2222adb1a92",
      "contractAddress": null
    },
    {
      "status": "0x1",
      "cumulativeGasUsed": "0xf4f0f",
      "logs": [
        {
          "address": "0x74e0709b2007bd0bede3e1c227088239a4df51f9",
          "topics": [
            "0x8c5be1e5ebec7d5bd14f71427d1e84f3dd0314c0f7b2291e5b200ac8c7c3b925",
            "0x00000000000000000000000044c794bb56e79b679511031a8a875b18c6b8be98",
            "0x000000000000000000000000a05ed08316b03e73b8007ddfae841ab29f10b3c1"
          ],
          "data": "0x0000000000000000000000000000000000000000000000056bc75e2d63100000",
          "blockHash": "0x5df28e97b6b87d897190e60461b1d552f5eb6572872aed3e46ac375b5818a9d6",
          "blockNumber": "0x32eadf",
          "blockTimestamp": "0x67ac7330",
          "transactionHash": "0x43384b98f67e4dcd580b6aae6e52d7c439f4a807b5c53f32f94ff2fb599e59a6",
          "transactionIndex": "0x5",
          "logIndex": "0x17",
          "removed": false
        }
      ],
      "logsBloom": "0x00000000000000000000000000000000000000000000000000000000000100000000000000000000000000000000000001000000000000000000000000200000000000000000000000000000000000000000000000000000000000000000000000000000000000000000000000000000000000000000000000000000000000000000000000000000000000000000000000000000000000000080000000000000030000000000000000000000000000000000000000000000000000000000000000200000000000000010000000000000000000000000000800000000000000000010001000000000000000000000000000000000000000000040000000000000",
      "type": "0x2",
      "transactionHash": "0x43384b98f67e4dcd580b6aae6e52d7c439f4a807b5c53f32f94ff2fb599e59a6",
      "transactionIndex": "0x5",
      "blockHash": "0x5df28e97b6b87d897190e60461b1d552f5eb6572872aed3e46ac375b5818a9d6",
      "blockNumber": "0x32eadf",
      "gasUsed": "0xb385",
      "effectiveGasPrice": "0x2210c810",
      "from": "0x44c794bb56e79b679511031a8a875b18c6b8be98",
      "to": "0x74e0709b2007bd0bede3e1c227088239a4df51f9",
      "contractAddress": null
    },
    {
      "status": "0x1",
      "cumulativeGasUsed": "0x2bcb55",
      "logs": [
        {
          "address": "0x74e0709b2007bd0bede3e1c227088239a4df51f9",
          "topics": [
            "0xddf252ad1be2c89b69c2b068fc378daa952ba7f163c4a11628f55a4df523b3ef",
            "0x00000000000000000000000044c794bb56e79b679511031a8a875b18c6b8be98",
            "0x000000000000000000000000a05ed08316b03e73b8007ddfae841ab29f10b3c1"
          ],
          "data": "0x0000000000000000000000000000000000000000000000056bc75e2d63100000",
          "blockHash": "0x753dc44cb199b6eaaedb647cc9cfd53cf826eab37b69e2d23b2a822b02b6d072",
          "blockNumber": "0x32eae0",
          "blockTimestamp": "0x67ac7348",
          "transactionHash": "0xd724de8ba36efeb7ff64ab6b9cdf17cc0285707e627bf2abbaab98e3d82f8c5e",
          "transactionIndex": "0x2f",
          "logIndex": "0x27",
          "removed": false
        },
        {
          "address": "0xa05ed08316b03e73b8007ddfae841ab29f10b3c1",
          "topics": [
            "0x7f37e862f2ec2cbe9b0823e61188ca52475f1f16f43051e4b812dbf3089f550f",
            "0x0000000000000000000000000000000000000000000000000000000000000029"
          ],
          "data": "0x0000000000000000000000000000000000000000000000000000000000000020000000000000000000000000000000000000000000000000000000000000002000000000000000000000000000000000000000000000028ff13b8373d2900000",
          "blockHash": "0x753dc44cb199b6eaaedb647cc9cfd53cf826eab37b69e2d23b2a822b02b6d072",
          "blockNumber": "0x32eae0",
          "blockTimestamp": "0x67ac7348",
          "transactionHash": "0xd724de8ba36efeb7ff64ab6b9cdf17cc0285707e627bf2abbaab98e3d82f8c5e",
          "transactionIndex": "0x2f",
          "logIndex": "0x28",
          "removed": false
        }
      ],
      "logsBloom": "0x00000000000000000000000000008000000000000000000000000000000100000008000000000000000000000000000001000000000000000000000000000000000000000000000000000008000000000000000000000000000000000020000000000000000040000000000000000002000000000000000000000010000000000000000000000000000000000000000010000000000000000480000000000000010000000000000000000000000000000000000000000000000000000000000000200002000000000010000000000000000000000000000900000000004000000000001000000000000000000000000000000000000000000040000000000000",
      "type": "0x2",
      "transactionHash": "0xd724de8ba36efeb7ff64ab6b9cdf17cc0285707e627bf2abbaab98e3d82f8c5e",
      "transactionIndex": "0x2f",
      "blockHash": "0x753dc44cb199b6eaaedb647cc9cfd53cf826eab37b69e2d23b2a822b02b6d072",
      "blockNumber": "0x32eae0",
      "gasUsed": "0xe1a0",
      "effectiveGasPrice": "0x2210c810",
      "from": "0x44c794bb56e79b679511031a8a875b18c6b8be98",
      "to": "0xa05ed08316b03e73b8007ddfae841ab29f10b3c1",
      "contractAddress": null
    },
    {
      "status": "0x1",
      "cumulativeGasUsed": "0x2b9fe7",
      "logs": [
        {
          "address": "0x74e0709b2007bd0bede3e1c227088239a4df51f9",
          "topics": [
            "0xddf252ad1be2c89b69c2b068fc378daa952ba7f163c4a11628f55a4df523b3ef",
            "0x000000000000000000000000a05ed08316b03e73b8007ddfae841ab29f10b3c1",
            "0x00000000000000000000000044c794bb56e79b679511031a8a875b18c6b8be98"
          ],
          "data": "0x000000000000000000000000000000000000000000000002b5e3af16b1880000",
          "blockHash": "0x61e2c12e43974c282931f5e777c9928271b18f48bec9f7b60f4ada9a7f1150d5",
          "blockNumber": "0x32eae2",
          "blockTimestamp": "0x67ac7360",
          "transactionHash": "0x4704cff5a64c8fb0814865d68e9c07a6be7dce87d54377a8e5828ecaefdd7b0c",
          "transactionIndex": "0x16",
          "logIndex": "0x32",
          "removed": false
        },
        {
          "address": "0xa05ed08316b03e73b8007ddfae841ab29f10b3c1",
          "topics": [
            "0x3e7ef85cf4525ca474d34f21240567dc9e13acae18755ad3a51851dfa7b83407",
            "0x0000000000000000000000000000000000000000000000000000000000000029"
          ],
          "data": "0x0000000000000000000000000000000000000000000000000000000000000020000000000000000000000000000000000000000000000000000000000000002000000000000000000000000000000000000000000000028d3b57d45d21080000",
          "blockHash": "0x61e2c12e43974c282931f5e777c9928271b18f48bec9f7b60f4ada9a7f1150d5",
          "blockNumber": "0x32eae2",
          "blockTimestamp": "0x67ac7360",
          "transactionHash": "0x4704cff5a64c8fb0814865d68e9c07a6be7dce87d54377a8e5828ecaefdd7b0c",
          "transactionIndex": "0x16",
          "logIndex": "0x33",
          "removed": false
        }
      ],
      "logsBloom": "0x00000000000000000000000020008000000000000000000000000000000100000000000000000000000000000000000001000000000000000000000000000000000000000000000000000008000000000000000000000000000000000020000000000000010040000000000000000002000000000000000000000010000000000000000000000000000000000000000010000000000000000480000000000000010000000000000000000000000000000000000000000000000000000000000000200002000000000010000000000000000000000000000800000000000000000000001000000000000000000000000000000000000000000040000000004000",
      "type": "0x2",
      "transactionHash": "0x4704cff5a64c8fb0814865d68e9c07a6be7dce87d54377a8e5828ecaefdd7b0c",
      "transactionIndex": "0x16",
      "blockHash": "0x61e2c12e43974c282931f5e777c9928271b18f48bec9f7b60f4ada9a7f1150d5",
      "blockNumber": "0x32eae2",
      "gasUsed": "0x22d7f",
      "effectiveGasPrice": "0x2210c810",
      "from": "0x44c794bb56e79b679511031a8a875b18c6b8be98",
      "to": "0xa05ed08316b03e73b8007ddfae841ab29f10b3c1",
      "contractAddress": null
    },
    {
      "status": "0x1",
      "cumulativeGasUsed": "0x357c7",
      "logs": [
        {
          "address": "0x9445ba66bbdd3cdd48f9077536a05292f2c6d253",
          "topics": [
            "0x8c5be1e5ebec7d5bd14f71427d1e84f3dd0314c0f7b2291e5b200ac8c7c3b925",
            "0x00000000000000000000000044c794bb56e79b679511031a8a875b18c6b8be98",
            "0x000000000000000000000000a05ed08316b03e73b8007ddfae841ab29f10b3c1"
          ],
          "data": "0x000000000000000000000000000000000000000000000000000000001dcd6500",
          "blockHash": "0x8bd1d0799b8ebf4575fd3c5661527a6ac393ca50bb37ce58b8e4be596ec3e793",
          "blockNumber": "0x32eae3",
          "blockTimestamp": "0x67ac736c",
          "transactionHash": "0x952bc81881b9973b150c8a2b8a9b97e307d1e752b88723f9c5f539fb427318d0",
          "transactionIndex": "0x3",
          "logIndex": "0x4",
          "removed": false
        }
      ],
      "logsBloom": "0x00000000000000000000000000000000000000000000000000000000000000000000000000000000000000000000000000000000000000000000000000200000000000000000000000000000000000000000000000000000000000000000000000000000000000000000000000000000000000000000000000000000000000000000000000000000000000000000000000000000000000000080000000000000020000000000000000000000000400000000000800000000000000000080000000200000000000000010000000000000000000000000000800000000000000000010001000000000000000000000000000000000000000000040000000000000",
      "type": "0x2",
      "transactionHash": "0x952bc81881b9973b150c8a2b8a9b97e307d1e752b88723f9c5f539fb427318d0",
      "transactionIndex": "0x3",
      "blockHash": "0x8bd1d0799b8ebf4575fd3c5661527a6ac393ca50bb37ce58b8e4be596ec3e793",
      "blockNumber": "0x32eae3",
      "gasUsed": "0xb355",
      "effectiveGasPrice": "0x2210c810",
      "from": "0x44c794bb56e79b679511031a8a875b18c6b8be98",
      "to": "0x9445ba66bbdd3cdd48f9077536a05292f2c6d253",
      "contractAddress": null
    },
    {
      "status": "0x1",
      "cumulativeGasUsed": "0x239ae9",
      "logs": [
        {
          "address": "0x9445ba66bbdd3cdd48f9077536a05292f2c6d253",
          "topics": [
            "0xddf252ad1be2c89b69c2b068fc378daa952ba7f163c4a11628f55a4df523b3ef",
            "0x00000000000000000000000044c794bb56e79b679511031a8a875b18c6b8be98",
            "0x000000000000000000000000645ef85b26a8ee16d4858725045900acab7de005"
          ],
          "data": "0x000000000000000000000000000000000000000000000000000000001dcd6500",
          "blockHash": "0x5c9d3b56e1a2a1e17c558a829a7bc3149209fc79e9aafa5c2adbc4cbdd81d38a",
          "blockNumber": "0x32eae5",
          "blockTimestamp": "0x67ac7384",
          "transactionHash": "0xe2f8349eeb84c59f44d0b72ce909af334e6d0e0047e185527925b4b0d003c587",
          "transactionIndex": "0xd",
          "logIndex": "0x28",
          "removed": false
        },
        {
          "address": "0xa05ed08316b03e73b8007ddfae841ab29f10b3c1",
          "topics": [
            "0x1efbe429bb48635fd7ce810da2f114c950d5bbd6b891af243520cdb08ca9aa67",
            "0x0000000000000000000000000000000000000000000000000000000000000029"
          ],
          "data": "0x000000000000000000000000000000000000000000000000000000001dcd65000000000000000000000000000000000000000000000000000000000000000001",
          "blockHash": "0x5c9d3b56e1a2a1e17c558a829a7bc3149209fc79e9aafa5c2adbc4cbdd81d38a",
          "blockNumber": "0x32eae5",
          "blockTimestamp": "0x67ac7384",
          "transactionHash": "0xe2f8349eeb84c59f44d0b72ce909af334e6d0e0047e185527925b4b0d003c587",
          "transactionIndex": "0xd",
          "logIndex": "0x29",
          "removed": false
        }
      ],
      "logsBloom": "0x00000000000000000000000000008000000000000000000000000000000000000000000000000000000000000000000000000000000000000000000000000000000000000000000000000008000000000000000000000000000000000020000000000000000040000000000000000002000000000000080000000010000000000000000000000000000000000000000010000000008000000480000000000000000000000000000000000000000400000000000800000000000000000080000000200002004000000000000000000000000000000000400000000000000000000000000000000000000000000000000000008000000040000040000000000000",
      "type": "0x2",
      "transactionHash": "0xe2f8349eeb84c59f44d0b72ce909af334e6d0e0047e185527925b4b0d003c587",
      "transactionIndex": "0xd",
      "blockHash": "0x5c9d3b56e1a2a1e17c558a829a7bc3149209fc79e9aafa5c2adbc4cbdd81d38a",
      "blockNumber": "0x32eae5",
      "gasUsed": "0x10e82",
      "effectiveGasPrice": "0x2210c810",
      "from": "0x44c794bb56e79b679511031a8a875b18c6b8be98",
      "to": "0xa05ed08316b03e73b8007ddfae841ab29f10b3c1",
      "contractAddress": null
    },
    {
      "status": "0x1",
      "cumulativeGasUsed": "0x28a80a",
      "logs": [
        {
          "address": "0xa05ed08316b03e73b8007ddfae841ab29f10b3c1",
          "topics": [
            "0xddf252ad1be2c89b69c2b068fc378daa952ba7f163c4a11628f55a4df523b3ef",
            "0x00000000000000000000000044c794bb56e79b679511031a8a875b18c6b8be98",
            "0x000000000000000000000000b4def9226e986a811afc5e61441f7de2e0da048d",
            "0x0000000000000000000000000000000000000000000000000000000000000029"
          ],
          "data": "0x",
          "blockHash": "0x1c2279dba7fb0cc6adee5a7569133dd27768b381f262816804e8f49a89cf8346",
          "blockNumber": "0x32eae7",
          "blockTimestamp": "0x67ac739c",
          "transactionHash": "0x815d8d650c9f1b0e81cf22315d9580096b8c6f7b85e769afd5965576de56d2c5",
          "transactionIndex": "0xb",
          "logIndex": "0x1b",
          "removed": false
        }
      ],
      "logsBloom": "0x00000000000000000000000000008000000000000000000000000000000000000000000000000000000000000000000000000000000000000000000000000010000000000000000000000008000000000000000000000000000000000020000000000000000040000000000000000002000000000000000000000010000000800000000000000000000000000000000010000000000000000480000000000000000000000000000000000000000000000000000000000000000000000000000000200002000000000000000000000000000000000000002000000000000000000000000000000000000000000000000000000000000000000040000000000000",
      "type": "0x2",
      "transactionHash": "0x815d8d650c9f1b0e81cf22315d9580096b8c6f7b85e769afd5965576de56d2c5",
      "transactionIndex": "0xb",
      "blockHash": "0x1c2279dba7fb0cc6adee5a7569133dd27768b381f262816804e8f49a89cf8346",
      "blockNumber": "0x32eae7",
      "gasUsed": "0x145cf",
      "effectiveGasPrice": "0x2210c810",
      "from": "0x44c794bb56e79b679511031a8a875b18c6b8be98",
      "to": "0xa05ed08316b03e73b8007ddfae841ab29f10b3c1",
      "contractAddress": null
    },
    {
      "status": "0x1",
      "cumulativeGasUsed": "0xde68d",
      "logs": [
        {
          "address": "0x9445ba66bbdd3cdd48f9077536a05292f2c6d253",
          "topics": [
            "0x8c5be1e5ebec7d5bd14f71427d1e84f3dd0314c0f7b2291e5b200ac8c7c3b925",
            "0x00000000000000000000000044c794bb56e79b679511031a8a875b18c6b8be98",
            "0x000000000000000000000000959d4521bd48b6487d415aad576af2222adb1a92"
          ],
          "data": "0x00000000000000000000000000000000000000000000000000000004a854d100",
          "blockHash": "0x04d3e3973d90c107b702b6e159dc9a295251cfd327d4119852dfd9f08e0a8797",
          "blockNumber": "0x32eae8",
          "blockTimestamp": "0x67ac73a8",
          "transactionHash": "0xd94d83ae2f80b32b67b68cd7ce74a0e17b3e81cf17aef27a9433e138bb80d27e",
          "transactionIndex": "0x4",
          "logIndex": "0x1c",
          "removed": false
        }
      ],
      "logsBloom": "0x00000000000000000000000000000000000000000000000000000000000000000000000000000000000020000000000000000000000000000000000000200000000000000000000000000000000000000000000000000000000000000000000000100000000010000000000000000000000000000000000000000000000000000000000000000000000000000000000000000000000000000080000000000000020000000000000000000000000400000000000800000000000000000080000000200000000000000000000000000000000000000000000000000000000000000010000000000000000000000000000000000000000000000040000000000000",
      "type": "0x2",
      "transactionHash": "0xd94d83ae2f80b32b67b68cd7ce74a0e17b3e81cf17aef27a9433e138bb80d27e",
      "transactionIndex": "0x4",
      "blockHash": "0x04d3e3973d90c107b702b6e159dc9a295251cfd327d4119852dfd9f08e0a8797",
      "blockNumber": "0x32eae8",
      "gasUsed": "0xb36d",
      "effectiveGasPrice": "0x2210c810",
      "from": "0x44c794bb56e79b679511031a8a875b18c6b8be98",
      "to": "0x9445ba66bbdd3cdd48f9077536a05292f2c6d253",
      "contractAddress": null
    },
    {
      "status": "0x1",
      "cumulativeGasUsed": "0x1957d6",
      "logs": [
        {
          "address": "0x9445ba66bbdd3cdd48f9077536a05292f2c6d253",
          "topics": [
            "0xddf252ad1be2c89b69c2b068fc378daa952ba7f163c4a11628f55a4df523b3ef",
            "0x00000000000000000000000044c794bb56e79b679511031a8a875b18c6b8be98",
            "0x000000000000000000000000959d4521bd48b6487d415aad576af2222adb1a92"
          ],
          "data": "0x00000000000000000000000000000000000000000000000000000004a854d100",
          "blockHash": "0xce32825ffb2a96566a10718761df505df3626e9cb5c9415c22acb682e0a47b96",
          "blockNumber": "0x32eae9",
          "blockTimestamp": "0x67ac73b4",
          "transactionHash": "0x1a03509f2d50c49f802c1385e97c7964f6bdde56aae45b76b50cc88e2a280215",
          "transactionIndex": "0x8",
          "logIndex": "0xa",
          "removed": false
        },
        {
          "address": "0x9445ba66bbdd3cdd48f9077536a05292f2c6d253",
          "topics": [
            "0x8c5be1e5ebec7d5bd14f71427d1e84f3dd0314c0f7b2291e5b200ac8c7c3b925",
            "0x000000000000000000000000959d4521bd48b6487d415aad576af2222adb1a92",
            "0x000000000000000000000000031fecf98032ab1b2601b32cd9487b1aabae573c"
          ],
          "data": "0x00000000000000000000000000000000000000000000000000000000003d0900",
          "blockHash": "0xce32825ffb2a96566a10718761df505df3626e9cb5c9415c22acb682e0a47b96",
          "blockNumber": "0x32eae9",
          "blockTimestamp": "0x67ac73b4",
          "transactionHash": "0x1a03509f2d50c49f802c1385e97c7964f6bdde56aae45b76b50cc88e2a280215",
          "transactionIndex": "0x8",
          "logIndex": "0xb",
          "removed": false
        },
        {
          "address": "0x9445ba66bbdd3cdd48f9077536a05292f2c6d253",
          "topics": [
            "0xddf252ad1be2c89b69c2b068fc378daa952ba7f163c4a11628f55a4df523b3ef",
            "0x000000000000000000000000959d4521bd48b6487d415aad576af2222adb1a92",
            "0x000000000000000000000000031fecf98032ab1b2601b32cd9487b1aabae573c"
          ],
          "data": "0x00000000000000000000000000000000000000000000000000000000003d0900",
          "blockHash": "0xce32825ffb2a96566a10718761df505df3626e9cb5c9415c22acb682e0a47b96",
          "blockNumber": "0x32eae9",
          "blockTimestamp": "0x67ac73b4",
          "transactionHash": "0x1a03509f2d50c49f802c1385e97c7964f6bdde56aae45b76b50cc88e2a280215",
          "transactionIndex": "0x8",
          "logIndex": "0xc",
          "removed": false
        },
        {
          "address": "0x9445ba66bbdd3cdd48f9077536a05292f2c6d253",
          "topics": [
            "0x8c5be1e5ebec7d5bd14f71427d1e84f3dd0314c0f7b2291e5b200ac8c7c3b925",
            "0x000000000000000000000000031fecf98032ab1b2601b32cd9487b1aabae573c",
            "0x000000000000000000000000645ef85b26a8ee16d4858725045900acab7de005"
          ],
          "data": "0x00000000000000000000000000000000000000000000000000000000003d0900",
          "blockHash": "0xce32825ffb2a96566a10718761df505df3626e9cb5c9415c22acb682e0a47b96",
          "blockNumber": "0x32eae9",
          "blockTimestamp": "0x67ac73b4",
          "transactionHash": "0x1a03509f2d50c49f802c1385e97c7964f6bdde56aae45b76b50cc88e2a280215",
          "transactionIndex": "0x8",
          "logIndex": "0xd",
          "removed": false
        },
        {
          "address": "0x9445ba66bbdd3cdd48f9077536a05292f2c6d253",
          "topics": [
            "0xddf252ad1be2c89b69c2b068fc378daa952ba7f163c4a11628f55a4df523b3ef",
            "0x000000000000000000000000031fecf98032ab1b2601b32cd9487b1aabae573c",
            "0x000000000000000000000000645ef85b26a8ee16d4858725045900acab7de005"
          ],
          "data": "0x00000000000000000000000000000000000000000000000000000000003d0900",
          "blockHash": "0xce32825ffb2a96566a10718761df505df3626e9cb5c9415c22acb682e0a47b96",
          "blockNumber": "0x32eae9",
          "blockTimestamp": "0x67ac73b4",
          "transactionHash": "0x1a03509f2d50c49f802c1385e97c7964f6bdde56aae45b76b50cc88e2a280215",
          "transactionIndex": "0x8",
          "logIndex": "0xe",
          "removed": false
        },
        {
          "address": "0xaaf7c47b8f06d2532eeca6cb4d89bf1487808d33",
          "topics": [
            "0xddf252ad1be2c89b69c2b068fc378daa952ba7f163c4a11628f55a4df523b3ef",
            "0x0000000000000000000000000000000000000000000000000000000000000000",
            "0x000000000000000000000000031fecf98032ab1b2601b32cd9487b1aabae573c"
          ],
          "data": "0x00000000000000000000000000000000000000000000000000000000003d0900",
          "blockHash": "0xce32825ffb2a96566a10718761df505df3626e9cb5c9415c22acb682e0a47b96",
          "blockNumber": "0x32eae9",
          "blockTimestamp": "0x67ac73b4",
          "transactionHash": "0x1a03509f2d50c49f802c1385e97c7964f6bdde56aae45b76b50cc88e2a280215",
          "transactionIndex": "0x8",
          "logIndex": "0xf",
          "removed": false
        },
        {
          "address": "0x6c29de485455c46987c52abe867b6f276a1aae02",
          "topics": [
            "0xddf252ad1be2c89b69c2b068fc378daa952ba7f163c4a11628f55a4df523b3ef",
            "0x0000000000000000000000000000000000000000000000000000000000000000",
            "0x000000000000000000000000031fecf98032ab1b2601b32cd9487b1aabae573c"
          ],
          "data": "0x00000000000000000000000000000000000000000000000000000000003d0900",
          "blockHash": "0xce32825ffb2a96566a10718761df505df3626e9cb5c9415c22acb682e0a47b96",
          "blockNumber": "0x32eae9",
          "blockTimestamp": "0x67ac73b4",
          "transactionHash": "0x1a03509f2d50c49f802c1385e97c7964f6bdde56aae45b76b50cc88e2a280215",
          "transactionIndex": "0x8",
          "logIndex": "0x10",
          "removed": false
        },
        {
          "address": "0x645ef85b26a8ee16d4858725045900acab7de005",
          "topics": [
            "0xab8530f87dc9b59234c4623bf917212bb2536d647574c8e7e5da92c2ede0c9f8",
            "0x000000000000000000000000031fecf98032ab1b2601b32cd9487b1aabae573c",
            "0x000000000000000000000000031fecf98032ab1b2601b32cd9487b1aabae573c"
          ],
          "data": "0x00000000000000000000000000000000000000000000000000000000003d0900",
          "blockHash": "0xce32825ffb2a96566a10718761df505df3626e9cb5c9415c22acb682e0a47b96",
          "blockNumber": "0x32eae9",
          "blockTimestamp": "0x67ac73b4",
          "transactionHash": "0x1a03509f2d50c49f802c1385e97c7964f6bdde56aae45b76b50cc88e2a280215",
          "transactionIndex": "0x8",
          "logIndex": "0x11",
          "removed": false
        },
        {
          "address": "0x6c29de485455c46987c52abe867b6f276a1aae02",
          "topics": [
            "0xddf252ad1be2c89b69c2b068fc378daa952ba7f163c4a11628f55a4df523b3ef",
            "0x000000000000000000000000031fecf98032ab1b2601b32cd9487b1aabae573c",
            "0x000000000000000000000000959d4521bd48b6487d415aad576af2222adb1a92"
          ],
          "data": "0x0000000000000000000000000000000000000000000000000000000005c95541",
          "blockHash": "0xce32825ffb2a96566a10718761df505df3626e9cb5c9415c22acb682e0a47b96",
          "blockNumber": "0x32eae9",
          "blockTimestamp": "0x67ac73b4",
          "transactionHash": "0x1a03509f2d50c49f802c1385e97c7964f6bdde56aae45b76b50cc88e2a280215",
          "transactionIndex": "0x8",
          "logIndex": "0x12",
          "removed": false
        },
        {
          "address": "0xaaf7c47b8f06d2532eeca6cb4d89bf1487808d33",
          "topics": [
            "0xddf252ad1be2c89b69c2b068fc378daa952ba7f163c4a11628f55a4df523b3ef",
            "0x000000000000000000000000031fecf98032ab1b2601b32cd9487b1aabae573c",
            "0x0000000000000000000000007ab945445958819a74b48e8bd5f9e39ed74bde9e"
          ],
          "data": "0x00000000000000000000000000000000000000000000000000000000000184af",
          "blockHash": "0xce32825ffb2a96566a10718761df505df3626e9cb5c9415c22acb682e0a47b96",
          "blockNumber": "0x32eae9",
          "blockTimestamp": "0x67ac73b4",
          "transactionHash": "0x1a03509f2d50c49f802c1385e97c7964f6bdde56aae45b76b50cc88e2a280215",
          "transactionIndex": "0x8",
          "logIndex": "0x13",
          "removed": false
        },
        {
          "address": "0x031fecf98032ab1b2601b32cd9487b1aabae573c",
          "topics": [
            "0xafc472950ba0847ac0541a7d71ad9977d695e4dba0cc223dba88d5fa8609732a",
            "0x0000000000000000000000009445ba66bbdd3cdd48f9077536a05292f2c6d253",
            "0x0000000000000000000000006c29de485455c46987c52abe867b6f276a1aae02"
          ],
          "data": "0x000000000000000000000000959d4521bd48b6487d415aad576af2222adb1a92000000000000000000000000959d4521bd48b6487d415aad576af2222adb1a9200000000000000000000000000000000000000000000000000000000003d09000000000000000000000000000000000000000000000000000000000005c9554100000000000000000000000000000000000000000000000000000000000184af",
          "blockHash": "0xce32825ffb2a96566a10718761df505df3626e9cb5c9415c22acb682e0a47b96",
          "blockNumber": "0x32eae9",
          "blockTimestamp": "0x67ac73b4",
          "transactionHash": "0x1a03509f2d50c49f802c1385e97c7964f6bdde56aae45b76b50cc88e2a280215",
          "transactionIndex": "0x8",
          "logIndex": "0x14",
          "removed": false
        },
        {
          "address": "0x6c29de485455c46987c52abe867b6f276a1aae02",
          "topics": [
            "0x8c5be1e5ebec7d5bd14f71427d1e84f3dd0314c0f7b2291e5b200ac8c7c3b925",
            "0x000000000000000000000000959d4521bd48b6487d415aad576af2222adb1a92",
            "0x000000000000000000000000645ef85b26a8ee16d4858725045900acab7de005"
          ],
          "data": "0x0000000000000000000000000000000000000000000000000000000005c95541",
          "blockHash": "0xce32825ffb2a96566a10718761df505df3626e9cb5c9415c22acb682e0a47b96",
          "blockNumber": "0x32eae9",
          "blockTimestamp": "0x67ac73b4",
          "transactionHash": "0x1a03509f2d50c49f802c1385e97c7964f6bdde56aae45b76b50cc88e2a280215",
          "transactionIndex": "0x8",
          "logIndex": "0x15",
          "removed": false
        },
        {
          "address": "0x6c29de485455c46987c52abe867b6f276a1aae02",
          "topics": [
            "0xddf252ad1be2c89b69c2b068fc378daa952ba7f163c4a11628f55a4df523b3ef",
            "0x000000000000000000000000959d4521bd48b6487d415aad576af2222adb1a92",
            "0x000000000000000000000000645ef85b26a8ee16d4858725045900acab7de005"
          ],
          "data": "0x0000000000000000000000000000000000000000000000000000000005c95541",
          "blockHash": "0xce32825ffb2a96566a10718761df505df3626e9cb5c9415c22acb682e0a47b96",
          "blockNumber": "0x32eae9",
          "blockTimestamp": "0x67ac73b4",
          "transactionHash": "0x1a03509f2d50c49f802c1385e97c7964f6bdde56aae45b76b50cc88e2a280215",
          "transactionIndex": "0x8",
          "logIndex": "0x16",
          "removed": false
        },
        {
          "address": "0x9445ba66bbdd3cdd48f9077536a05292f2c6d253",
          "topics": [
            "0xddf252ad1be2c89b69c2b068fc378daa952ba7f163c4a11628f55a4df523b3ef",
            "0x000000000000000000000000645ef85b26a8ee16d4858725045900acab7de005",
            "0x000000000000000000000000959d4521bd48b6487d415aad576af2222adb1a92"
          ],
          "data": "0x0000000000000000000000000000000000000000000000000000000005c95541",
          "blockHash": "0xce32825ffb2a96566a10718761df505df3626e9cb5c9415c22acb682e0a47b96",
          "blockNumber": "0x32eae9",
          "blockTimestamp": "0x67ac73b4",
          "transactionHash": "0x1a03509f2d50c49f802c1385e97c7964f6bdde56aae45b76b50cc88e2a280215",
          "transactionIndex": "0x8",
          "logIndex": "0x17",
          "removed": false
        },
        {
          "address": "0x9445ba66bbdd3cdd48f9077536a05292f2c6d253",
          "topics": [
            "0xddf252ad1be2c89b69c2b068fc378daa952ba7f163c4a11628f55a4df523b3ef",
            "0x000000000000000000000000959d4521bd48b6487d415aad576af2222adb1a92",
            "0x000000000000000000000000e355d5d8aa52ef0fbbd037c4a3c5e6fd659cf46b"
          ],
          "data": "0x00000000000000000000000000000000000000000000000000000004ade11d41",
          "blockHash": "0xce32825ffb2a96566a10718761df505df3626e9cb5c9415c22acb682e0a47b96",
          "blockNumber": "0x32eae9",
          "blockTimestamp": "0x67ac73b4",
          "transactionHash": "0x1a03509f2d50c49f802c1385e97c7964f6bdde56aae45b76b50cc88e2a280215",
          "transactionIndex": "0x8",
          "logIndex": "0x18",
          "removed": false
        },
        {
          "address": "0x74e0709b2007bd0bede3e1c227088239a4df51f9",
          "topics": [
            "0xddf252ad1be2c89b69c2b068fc378daa952ba7f163c4a11628f55a4df523b3ef",
            "0x0000000000000000000000000000000000000000000000000000000000000000",
            "0x000000000000000000000000959d4521bd48b6487d415aad576af2222adb1a92"
          ],
          "data": "0x0000000000000000000000000000000000000000000004a033750fed4bea8bd3",
          "blockHash": "0xce32825ffb2a96566a10718761df505df3626e9cb5c9415c22acb682e0a47b96",
          "blockNumber": "0x32eae9",
          "blockTimestamp": "0x67ac73b4",
          "transactionHash": "0x1a03509f2d50c49f802c1385e97c7964f6bdde56aae45b76b50cc88e2a280215",
          "transactionIndex": "0x8",
          "logIndex": "0x19",
          "removed": false
        },
        {
          "address": "0x74e0709b2007bd0bede3e1c227088239a4df51f9",
          "topics": [
            "0x8c5be1e5ebec7d5bd14f71427d1e84f3dd0314c0f7b2291e5b200ac8c7c3b925",
            "0x000000000000000000000000959d4521bd48b6487d415aad576af2222adb1a92",
            "0x000000000000000000000000a05ed08316b03e73b8007ddfae841ab29f10b3c1"
          ],
          "data": "0x0000000000000000000000000000000000000000000004a033750fed4bea8bd3",
          "blockHash": "0xce32825ffb2a96566a10718761df505df3626e9cb5c9415c22acb682e0a47b96",
          "blockNumber": "0x32eae9",
          "blockTimestamp": "0x67ac73b4",
          "transactionHash": "0x1a03509f2d50c49f802c1385e97c7964f6bdde56aae45b76b50cc88e2a280215",
          "transactionIndex": "0x8",
          "logIndex": "0x1a",
          "removed": false
        },
        {
          "address": "0x74e0709b2007bd0bede3e1c227088239a4df51f9",
          "topics": [
            "0xddf252ad1be2c89b69c2b068fc378daa952ba7f163c4a11628f55a4df523b3ef",
            "0x000000000000000000000000959d4521bd48b6487d415aad576af2222adb1a92",
            "0x000000000000000000000000a05ed08316b03e73b8007ddfae841ab29f10b3c1"
          ],
          "data": "0x0000000000000000000000000000000000000000000004a033750fed4bea8bd3",
          "blockHash": "0xce32825ffb2a96566a10718761df505df3626e9cb5c9415c22acb682e0a47b96",
          "blockNumber": "0x32eae9",
          "blockTimestamp": "0x67ac73b4",
          "transactionHash": "0x1a03509f2d50c49f802c1385e97c7964f6bdde56aae45b76b50cc88e2a280215",
          "transactionIndex": "0x8",
          "logIndex": "0x1b",
          "removed": false
        },
        {
          "address": "0xa05ed08316b03e73b8007ddfae841ab29f10b3c1",
          "topics": [
            "0xddf252ad1be2c89b69c2b068fc378daa952ba7f163c4a11628f55a4df523b3ef",
            "0x0000000000000000000000000000000000000000000000000000000000000000",
            "0x00000000000000000000000044c794bb56e79b679511031a8a875b18c6b8be98",
            "0x000000000000000000000000000000000000000000000000000000000000002a"
          ],
          "data": "0x",
          "blockHash": "0xce32825ffb2a96566a10718761df505df3626e9cb5c9415c22acb682e0a47b96",
          "blockNumber": "0x32eae9",
          "blockTimestamp": "0x67ac73b4",
          "transactionHash": "0x1a03509f2d50c49f802c1385e97c7964f6bdde56aae45b76b50cc88e2a280215",
          "transactionIndex": "0x8",
          "logIndex": "0x1c",
          "removed": false
        },
        {
          "address": "0x6c29de485455c46987c52abe867b6f276a1aae02",
          "topics": [
            "0xddf252ad1be2c89b69c2b068fc378daa952ba7f163c4a11628f55a4df523b3ef",
            "0x000000000000000000000000645ef85b26a8ee16d4858725045900acab7de005",
            "0x0000000000000000000000000000000000000000000000000000000000000000"
          ],
          "data": "0x0000000000000000000000000000000000000000000000000000000005c95541",
          "blockHash": "0xce32825ffb2a96566a10718761df505df3626e9cb5c9415c22acb682e0a47b96",
          "blockNumber": "0x32eae9",
          "blockTimestamp": "0x67ac73b4",
          "transactionHash": "0x1a03509f2d50c49f802c1385e97c7964f6bdde56aae45b76b50cc88e2a280215",
          "transactionIndex": "0x8",
          "logIndex": "0x1d",
          "removed": false
        },
        {
          "address": "0x645ef85b26a8ee16d4858725045900acab7de005",
          "topics": [
            "0x4251709b90c9773e824a607f0c0745f9e4cc7080748151668f30d708cd3a04e6",
            "0x000000000000000000000000959d4521bd48b6487d415aad576af2222adb1a92",
            "0x00000000000000000000000044c794bb56e79b679511031a8a875b18c6b8be98",
            "0x000000000000000000000000000000000000000000000000000000000000002a"
          ],
          "data": "0x0000000000000000000000000000000000000000000000000000000005c95541000000000000000000000000000000000000000000000000000000000000004000000000000000000000000000000000000000000000000000000000000000200000000000000000000000000000000000000000000004a033750fed4bea8bd3",
          "blockHash": "0xce32825ffb2a96566a10718761df505df3626e9cb5c9415c22acb682e0a47b96",
          "blockNumber": "0x32eae9",
          "blockTimestamp": "0x67ac73b4",
          "transactionHash": "0x1a03509f2d50c49f802c1385e97c7964f6bdde56aae45b76b50cc88e2a280215",
          "transactionIndex": "0x8",
          "logIndex": "0x1e",
          "removed": false
        },
        {
          "address": "0x959d4521bd48b6487d415aad576af2222adb1a92",
          "topics": [
            "0x6cc7689f3960393f975bc636577345ee34fd6fd0b516b15c923e7885e518b098",
            "0x000000000000000000000000645ef85b26a8ee16d4858725045900acab7de005",
            "0x000000000000000000000000000000000000000000000000000000000000002a"
          ],
          "data": "0x00000000000000000000000044c794bb56e79b679511031a8a875b18c6b8be9800000000000000000000000044c794bb56e79b679511031a8a875b18c6b8be9800000000000000000000000000000000000000000000000000000004a817c8000000000000000000000000000000000000000000000000000000000005c955410000000000000000000000000000000000000000000000000000000000075ef200000000000000000000000000000000000000000000000000000000000000c000000000000000000000000000000000000000000000000000000000000000200000000000000000000000000000000000000000000004a033750fed4bea8bd3",
          "blockHash": "0xce32825ffb2a96566a10718761df505df3626e9cb5c9415c22acb682e0a47b96",
          "blockNumber": "0x32eae9",
          "blockTimestamp": "0x67ac73b4",
          "transactionHash": "0x1a03509f2d50c49f802c1385e97c7964f6bdde56aae45b76b50cc88e2a280215",
          "transactionIndex": "0x8",
          "logIndex": "0x1f",
          "removed": false
        }
      ],
      "logsBloom": "0x02000000001000000000100000000000040004080000000000000100400100000008000000004000200028000000000001000000080000000000000002200000000000000000000040000008020000000040080000001000000001000820000000160040020010000000080000000802000000000000080000000010000000000000010000002040000000000000000200000000000000000480000000000000030000200000000000000000000421000000000800008000000000010080000000200002004000000010000000000000010000000000000800000010100020100010001000000020000000000020000000000000000840000040000000006000",
      "type": "0x2",
      "transactionHash": "0x1a03509f2d50c49f802c1385e97c7964f6bdde56aae45b76b50cc88e2a280215",
      "transactionIndex": "0x8",
      "blockHash": "0xce32825ffb2a96566a10718761df505df3626e9cb5c9415c22acb682e0a47b96",
      "blockNumber": "0x32eae9",
      "gasUsed": "0xa3dd7",
      "effectiveGasPrice": "0x2210c810",
      "from": "0x44c794bb56e79b679511031a8a875b18c6b8be98",
      "to": "0x959d4521bd48b6487d415aad576af2222adb1a92",
      "contractAddress": null
    }
  ],
  "libraries": [],
  "pending": [],
  "returns": {},
  "timestamp": 1739355063,
  "chain": 17000,
  "commit": "4520dd7"
}