{
  "transactions": [
    {
      "hash": "0xbf4c63ca64625fab96a4b8c6da787d31f2bfafdf8b793335eeb55ccda20023d1",
      "transactionType": "CALL",
      "contractName": null,
      "contractAddress": "0xb927b74d5d9c3985d4dcdd62cbffec66cf527faa",
      "function": "devMint(address,address,uint256)",
      "arguments": [
        "0xE355d5D8aa52EF0FbbD037C4a3C5E6Fd659cf46B",
        "0x8f6136B147b49bd6075E5Ae60C8c946269FA79e3",
        "100000000000"
      ],
      "transaction": {
        "from": "0xe355d5d8aa52ef0fbbd037c4a3c5e6fd659cf46b",
        "to": "0xb927b74d5d9c3985d4dcdd62cbffec66cf527faa",
        "gas": "0x1a64e",
        "value": "0x0",
        "input": "0x40ddd06e000000000000000000000000e355d5d8aa52ef0fbbd037c4a3c5e6fd659cf46b0000000000000000000000008f6136b147b49bd6075e5ae60c8c946269fa79e3000000000000000000000000000000000000000000000000000000174876e800",
        "nonce": "0x581",
        "chainId": "0x4268"
      },
      "additionalContracts": [],
      "isFixedGasLimit": false
    },
    {
      "hash": "0xeda91e3209bacffab10cec3300ce8a57ecb9724f4d6c9bfbfa506c52505b23f2",
      "transactionType": "CALL",
      "contractName": null,
      "contractAddress": "0x8f6136b147b49bd6075e5ae60c8c946269fa79e3",
      "function": "approve(address,uint256)",
      "arguments": [
        "0xD0586B5a5F97347C769983C404348346FE26f38e",
        "100000000000"
      ],
      "transaction": {
        "from": "0xe355d5d8aa52ef0fbbd037c4a3c5e6fd659cf46b",
        "to": "0x8f6136b147b49bd6075e5ae60c8c946269fa79e3",
        "gas": "0xf7d3",
        "value": "0x0",
        "input": "0x095ea7b3000000000000000000000000d0586b5a5f97347c769983c404348346fe26f38e000000000000000000000000000000000000000000000000000000174876e800",
        "nonce": "0x582",
        "chainId": "0x4268"
      },
      "additionalContracts": [],
      "isFixedGasLimit": false
    },
    {
      "hash": "0xe38c57de587193123b1a18ce73f387d437a1bc69c1a0a4be22e336c5554702a0",
      "transactionType": "CALL",
      "contractName": null,
      "contractAddress": "0xd0586b5a5f97347c769983c404348346fe26f38e",
      "function": "mint(address,uint256)",
      "arguments": [
        "0x550a95c76A929635E7836cBef401C378485f4422",
        "100000000000"
      ],
      "transaction": {
        "from": "0xe355d5d8aa52ef0fbbd037c4a3c5e6fd659cf46b",
        "to": "0xd0586b5a5f97347c769983c404348346fe26f38e",
        "gas": "0x3a146",
        "value": "0x0",
        "input": "0x40c10f19000000000000000000000000550a95c76a929635e7836cbef401c378485f4422000000000000000000000000000000000000000000000000000000174876e800",
        "nonce": "0x583",
        "chainId": "0x4268"
      },
      "additionalContracts": [],
      "isFixedGasLimit": false
    },
    {
      "hash": "0x97f7b488bd6e06b81354b67bbb12ea843748bd92919b281b2b259affb30d7ff1",
      "transactionType": "CALL",
      "contractName": null,
      "contractAddress": "0xb927b74d5d9c3985d4dcdd62cbffec66cf527faa",
      "function": "devMint(address,address,uint256)",
      "arguments": [
        "0xE355d5D8aa52EF0FbbD037C4a3C5E6Fd659cf46B",
        "0x8f6136B147b49bd6075E5Ae60C8c946269FA79e3",
        "21504000000"
      ],
      "transaction": {
        "from": "0xe355d5d8aa52ef0fbbd037c4a3c5e6fd659cf46b",
        "to": "0xb927b74d5d9c3985d4dcdd62cbffec66cf527faa",
        "gas": "0x1448c",
        "value": "0x0",
        "input": "0x40ddd06e000000000000000000000000e355d5d8aa52ef0fbbd037c4a3c5e6fd659cf46b0000000000000000000000008f6136b147b49bd6075e5ae60c8c946269fa79e30000000000000000000000000000000000000000000000000000000501bd0000",
        "nonce": "0x584",
        "chainId": "0x4268"
      },
      "additionalContracts": [],
      "isFixedGasLimit": false
    },
    {
      "hash": "0x99a3bf27b9077380b8a925f157fa017a73c8df98c05cf51218c5bd4845be1d0f",
      "transactionType": "CALL",
      "contractName": null,
      "contractAddress": "0xb927b74d5d9c3985d4dcdd62cbffec66cf527faa",
      "function": "devMint(address,address,uint256)",
      "arguments": [
        "0xE355d5D8aa52EF0FbbD037C4a3C5E6Fd659cf46B",
        "0x8A42D2B0e5fDFed3994D9661728d025d21aD682D",
        "12100000000000000000000"
      ],
      "transaction": {
        "from": "0xe355d5d8aa52ef0fbbd037c4a3c5e6fd659cf46b",
        "to": "0xb927b74d5d9c3985d4dcdd62cbffec66cf527faa",
        "gas": "0x1a694",
        "value": "0x0",
        "input": "0x40ddd06e000000000000000000000000e355d5d8aa52ef0fbbd037c4a3c5e6fd659cf46b0000000000000000000000008a42d2b0e5fdfed3994d9661728d025d21ad682d00000000000000000000000000000000000000000000028ff13b8373d2900000",
        "nonce": "0x585",
        "chainId": "0x4268"
      },
      "additionalContracts": [],
      "isFixedGasLimit": false
    },
    {
      "hash": "0x1036e41b3c4d94136323d6d5d2fa77ab5d94b7bde8e6f7710a68f15781b76957",
      "transactionType": "CALL",
      "contractName": null,
      "contractAddress": "0x8f6136b147b49bd6075e5ae60c8c946269fa79e3",
      "function": "approve(address,uint256)",
      "arguments": [
        "0x550a95c76A929635E7836cBef401C378485f4422",
        "1000000000"
      ],
      "transaction": {
        "from": "0xe355d5d8aa52ef0fbbd037c4a3c5e6fd659cf46b",
        "to": "0x8f6136b147b49bd6075e5ae60c8c946269fa79e3",
        "gas": "0x10657",
        "value": "0x0",
        "input": "0x095ea7b3000000000000000000000000550a95c76a929635e7836cbef401c378485f4422000000000000000000000000000000000000000000000000000000003b9aca00",
        "nonce": "0x586",
        "chainId": "0x4268"
      },
      "additionalContracts": [],
      "isFixedGasLimit": false
    },
    {
      "hash": "0xacf6a728c8aecf6abd58d843d902c3e60c5cc6d5df4e45f286033659b709ff5a",
      "transactionType": "CALL",
      "contractName": null,
      "contractAddress": "0x550a95c76a929635e7836cbef401c378485f4422",
      "function": "swapExactTokenToToken(address,address,address,uint128,uint128)",
      "arguments": [
        "0x8f6136B147b49bd6075E5Ae60C8c946269FA79e3",
        "0x05b4d76A2D2810746983C111DbA6daA65983191c",
        "0xE355d5D8aa52EF0FbbD037C4a3C5E6Fd659cf46B",
        "1000000000",
        "0"
      ],
      "transaction": {
        "from": "0xe355d5d8aa52ef0fbbd037c4a3c5e6fd659cf46b",
        "to": "0x550a95c76a929635e7836cbef401c378485f4422",
        "gas": "0x53649",
        "value": "0x0",
        "input": "0x5d26439a0000000000000000000000008f6136b147b49bd6075e5ae60c8c946269fa79e300000000000000000000000005b4d76a2d2810746983c111dba6daa65983191c000000000000000000000000e355d5d8aa52ef0fbbd037c4a3c5e6fd659cf46b000000000000000000000000000000000000000000000000000000003b9aca000000000000000000000000000000000000000000000000000000000000000000",
        "nonce": "0x587",
        "chainId": "0x4268"
      },
      "additionalContracts": [],
      "isFixedGasLimit": false
    },
    {
      "hash": "0x278091a57307f8e4da22129e2c8ee8456f342478556c89ad1700738595497a04",
      "transactionType": "CALL",
      "contractName": null,
      "contractAddress": "0x8a42d2b0e5fdfed3994d9661728d025d21ad682d",
      "function": "approve(address,uint256)",
      "arguments": [
        "0xbFccC3c7F739d4aE7CCf680b3fafcFB5Bdc4f842",
        "12000000000000000000000"
      ],
      "transaction": {
        "from": "0xe355d5d8aa52ef0fbbd037c4a3c5e6fd659cf46b",
        "to": "0x8a42d2b0e5fdfed3994d9661728d025d21ad682d",
        "gas": "0xf816",
        "value": "0x0",
        "input": "0x095ea7b3000000000000000000000000bfccc3c7f739d4ae7ccf680b3fafcfb5bdc4f84200000000000000000000000000000000000000000000028a857425466f800000",
        "nonce": "0x588",
        "chainId": "0x4268"
      },
      "additionalContracts": [],
      "isFixedGasLimit": false
    },
    {
      "hash": "0xf74f01fe9d0ab2b80680f1363abe91b5d86f8556ae2a4dc889ad58537559d870",
      "transactionType": "CALL",
      "contractName": null,
      "contractAddress": "0xbfccc3c7f739d4ae7ccf680b3fafcfb5bdc4f842",
      "function": "borrowTokenFromCollateral(address,address,uint256,address[],uint128[],uint128)",
      "arguments": [
        "0xE355d5D8aa52EF0FbbD037C4a3C5E6Fd659cf46B",
        "0xD0586B5a5F97347C769983C404348346FE26f38e",
        "12000000000000000000000",
        "[0x550a95c76A929635E7836cBef401C378485f4422]",
        "[8000000000]",
        "8500000000"
      ],
      "transaction": {
        "from": "0xe355d5d8aa52ef0fbbd037c4a3c5e6fd659cf46b",
        "to": "0xbfccc3c7f739d4ae7ccf680b3fafcfb5bdc4f842",
        "gas": "0xf471f",
        "value": "0x0",
        "input": "0xc82e738b000000000000000000000000e355d5d8aa52ef0fbbd037c4a3c5e6fd659cf46b000000000000000000000000d0586b5a5f97347c769983c404348346fe26f38e00000000000000000000000000000000000000000000028a857425466f80000000000000000000000000000000000000000000000000000000000000000000c0000000000000000000000000000000000000000000000000000000000000010000000000000000000000000000000000000000000000000000000001faa3b5000000000000000000000000000000000000000000000000000000000000000001000000000000000000000000550a95c76a929635e7836cbef401c378485f4422000000000000000000000000000000000000000000000000000000000000000100000000000000000000000000000000000000000000000000000001dcd65000",
        "nonce": "0x589",
        "chainId": "0x4268"
      },
      "additionalContracts": [],
      "isFixedGasLimit": false
    },
    {
      "hash": "0x2d798d825f20a171429212c41fa7c610db0baa98c2570a6251e4a166451e3744",
      "transactionType": "CALL",
      "contractName": null,
      "contractAddress": "0x8a42d2b0e5fdfed3994d9661728d025d21ad682d",
      "function": "approve(address,uint256)",
      "arguments": [
        "0x4a662249B6CF35A3aF633116131Ba2B5cc329687",
        "100000000000000000000"
      ],
      "transaction": {
        "from": "0xe355d5d8aa52ef0fbbd037c4a3c5e6fd659cf46b",
        "to": "0x8a42d2b0e5fdfed3994d9661728d025d21ad682d",
        "gas": "0x1069d",
        "value": "0x0",
        "input": "0x095ea7b30000000000000000000000004a662249b6cf35a3af633116131ba2b5cc3296870000000000000000000000000000000000000000000000056bc75e2d63100000",
        "nonce": "0x58a",
        "chainId": "0x4268"
      },
      "additionalContracts": [],
      "isFixedGasLimit": false
    },
    {
      "hash": "0x5f430749a29558a582636cc83b1ccb1dd5a3d4235fca69b21657bb6f16c2925e",
      "transactionType": "CALL",
      "contractName": null,
      "contractAddress": "0x4a662249b6cf35a3af633116131ba2b5cc329687",
      "function": "addCollateral(uint256,bytes)",
      "arguments": [
        "1",
        "0x0000000000000000000000000000000000000000000000056bc75e2d63100000"
      ],
      "transaction": {
        "from": "0xe355d5d8aa52ef0fbbd037c4a3c5e6fd659cf46b",
        "to": "0x4a662249b6cf35a3af633116131ba2b5cc329687",
        "gas": "0x137a5",
        "value": "0x0",
        "input": "0xfe8fd7d90000000000000000000000000000000000000000000000000000000000000001000000000000000000000000000000000000000000000000000000000000004000000000000000000000000000000000000000000000000000000000000000200000000000000000000000000000000000000000000000056bc75e2d63100000",
        "nonce": "0x58b",
        "chainId": "0x4268"
      },
      "additionalContracts": [],
      "isFixedGasLimit": false
    },
    {
      "hash": "0x085273bf3823306361de5b801c10be16ef51f928d4e44361a98b8c5956d57e78",
      "transactionType": "CALL",
      "contractName": null,
      "contractAddress": "0x4a662249b6cf35a3af633116131ba2b5cc329687",
      "function": "removeCollateral(uint256,bytes)",
      "arguments": [
        "1",
        "0x000000000000000000000000000000000000000000000002b5e3af16b1880000"
      ],
      "transaction": {
        "from": "0xe355d5d8aa52ef0fbbd037c4a3c5e6fd659cf46b",
        "to": "0x4a662249b6cf35a3af633116131ba2b5cc329687",
        "gas": "0x30209",
        "value": "0x0",
        "input": "0x77efba60000000000000000000000000000000000000000000000000000000000000000100000000000000000000000000000000000000000000000000000000000000400000000000000000000000000000000000000000000000000000000000000020000000000000000000000000000000000000000000000002b5e3af16b1880000",
        "nonce": "0x58c",
        "chainId": "0x4268"
      },
      "additionalContracts": [],
      "isFixedGasLimit": false
    },
    {
      "hash": "0x5570f9e74a885717d76fe43b91e3bd99a1a5cb306865d3877555f74a9d902efd",
      "transactionType": "CALL",
      "contractName": null,
      "contractAddress": "0x8f6136b147b49bd6075e5ae60c8c946269fa79e3",
      "function": "approve(address,uint256)",
      "arguments": [
        "0x4a662249B6CF35A3aF633116131Ba2B5cc329687",
        "500000000"
      ],
      "transaction": {
        "from": "0xe355d5d8aa52ef0fbbd037c4a3c5e6fd659cf46b",
        "to": "0x8f6136b147b49bd6075e5ae60c8c946269fa79e3",
        "gas": "0x10657",
        "value": "0x0",
        "input": "0x095ea7b30000000000000000000000004a662249b6cf35a3af633116131ba2b5cc329687000000000000000000000000000000000000000000000000000000001dcd6500",
        "nonce": "0x58d",
        "chainId": "0x4268"
      },
      "additionalContracts": [],
      "isFixedGasLimit": false
    },
    {
      "hash": "0xf49592c6a922f4d17bfa4b755b4710d4971a66b253a2f5df91200b71d57e2c3b",
      "transactionType": "CALL",
      "contractName": null,
      "contractAddress": "0x4a662249b6cf35a3af633116131ba2b5cc329687",
      "function": "repay(uint256,uint128,bool)",
      "arguments": [
        "1",
        "500000000",
        "true"
      ],
      "transaction": {
        "from": "0xe355d5d8aa52ef0fbbd037c4a3c5e6fd659cf46b",
        "to": "0x4a662249b6cf35a3af633116131ba2b5cc329687",
        "gas": "0x18b9d",
        "value": "0x0",
        "input": "0xdf2cbf3e0000000000000000000000000000000000000000000000000000000000000001000000000000000000000000000000000000000000000000000000001dcd65000000000000000000000000000000000000000000000000000000000000000001",
        "nonce": "0x58e",
        "chainId": "0x4268"
      },
      "additionalContracts": [],
      "isFixedGasLimit": false
    },
    {
      "hash": "0x4738e2842d791dc676b48560f1e50d2b841240d00ed16667cd85d94c2ee05fd7",
      "transactionType": "CALL",
      "contractName": null,
      "contractAddress": "0x4a662249b6cf35a3af633116131ba2b5cc329687",
      "function": "transferFrom(address,address,uint256)",
      "arguments": [
        "0xE355d5D8aa52EF0FbbD037C4a3C5E6Fd659cf46B",
        "0xe5162D862fee80815d055aC04A2191c317c4dEd4",
        "1"
      ],
      "transaction": {
        "from": "0xe355d5d8aa52ef0fbbd037c4a3c5e6fd659cf46b",
        "to": "0x4a662249b6cf35a3af633116131ba2b5cc329687",
        "gas": "0x1c204",
        "value": "0x0",
        "input": "0x23b872dd000000000000000000000000e355d5d8aa52ef0fbbd037c4a3c5e6fd659cf46b000000000000000000000000e5162d862fee80815d055ac04a2191c317c4ded40000000000000000000000000000000000000000000000000000000000000001",
        "nonce": "0x58f",
        "chainId": "0x4268"
      },
      "additionalContracts": [],
      "isFixedGasLimit": false
    },
    {
      "hash": "0x5bd7492f34bb946dcc3c558f693dfad1e21e1855f025679cd2e77b4395e76262",
      "transactionType": "CALL",
      "contractName": null,
      "contractAddress": "0x8f6136b147b49bd6075e5ae60c8c946269fa79e3",
      "function": "approve(address,uint256)",
      "arguments": [
        "0xbFccC3c7F739d4aE7CCf680b3fafcFB5Bdc4f842",
        "20004000000"
      ],
      "transaction": {
        "from": "0xe355d5d8aa52ef0fbbd037c4a3c5e6fd659cf46b",
        "to": "0x8f6136b147b49bd6075e5ae60c8c946269fa79e3",
        "gas": "0xf7d3",
        "value": "0x0",
        "input": "0x095ea7b3000000000000000000000000bfccc3c7f739d4ae7ccf680b3fafcfb5bdc4f84200000000000000000000000000000000000000000000000000000004a854d100",
        "nonce": "0x590",
        "chainId": "0x4268"
      },
      "additionalContracts": [],
      "isFixedGasLimit": false
    },
    {
      "hash": "0xffbb96dc0cd0319f7dd9ef216a5af8c1e643c32ed1474eecf15ffd176d8d6435",
      "transactionType": "CALL",
      "contractName": null,
      "contractAddress": "0xbfccc3c7f739d4ae7ccf680b3fafcfb5bdc4f842",
      "function": "leverageFromToken(address,address,address[],uint128[],uint128,uint128,uint128,(address,address,address,bytes)[])",
      "arguments": [
        "0xE355d5D8aa52EF0FbbD037C4a3C5E6Fd659cf46B",
        "0xD0586B5a5F97347C769983C404348346FE26f38e",
        "[0x550a95c76A929635E7836cBef401C378485f4422]",
        "[4000000]",
        "0",
        "20000000000",
        "80000000",
        "[(0xC622E39c594570c731baCcDc2b6cD062EF941b06, 0x8f6136B147b49bd6075E5Ae60C8c946269FA79e3, 0x8A42D2B0e5fDFed3994D9661728d025d21aD682D, 0x0000000000000000000000004dc6b9b9123883f563febea9f0f9636296585bf10000000000000000000000006cc491586e1bcd6de9e759af4da75a5aa73d47ec)]"
      ],
      "transaction": {
        "from": "0xe355d5d8aa52ef0fbbd037c4a3c5e6fd659cf46b",
        "to": "0xbfccc3c7f739d4ae7ccf680b3fafcfb5bdc4f842",
        "gas": "0xdd66c",
        "value": "0x0",
        "input": "0xa515648f000000000000000000000000e355d5d8aa52ef0fbbd037c4a3c5e6fd659cf46b000000000000000000000000d0586b5a5f97347c769983c404348346fe26f38e00000000000000000000000000000000000000000000000000000000000001000000000000000000000000000000000000000000000000000000000000000140000000000000000000000000000000000000000000000000000000000000000000000000000000000000000000000000000000000000000000000004a817c8000000000000000000000000000000000000000000000000000000000004c4b40000000000000000000000000000000000000000000000000000000000000001800000000000000000000000000000000000000000000000000000000000000001000000000000000000000000550a95c76a929635e7836cbef401c378485f4422000000000000000000000000000000000000000000000000000000000000000100000000000000000000000000000000000000000000000000000000003d090000000000000000000000000000000000000000000000000000000000000000010000000000000000000000000000000000000000000000000000000000000020000000000000000000000000c622e39c594570c731baccdc2b6cd062ef941b060000000000000000000000008f6136b147b49bd6075e5ae60c8c946269fa79e30000000000000000000000008a42d2b0e5fdfed3994d9661728d025d21ad682d000000000000000000000000000000000000000000000000000000000000008000000000000000000000000000000000000000000000000000000000000000400000000000000000000000004dc6b9b9123883f563febea9f0f9636296585bf10000000000000000000000006cc491586e1bcd6de9e759af4da75a5aa73d47ec",
        "nonce": "0x591",
        "chainId": "0x4268"
      },
      "additionalContracts": [],
      "isFixedGasLimit": false
    }
  ],
  "receipts": [
    {
      "status": "0x1",
      "cumulativeGasUsed": "0x1f9571",
      "logs": [
        {
          "address": "0x8f6136b147b49bd6075e5ae60c8c946269fa79e3",
          "topics": [
            "0xddf252ad1be2c89b69c2b068fc378daa952ba7f163c4a11628f55a4df523b3ef",
            "0x0000000000000000000000000000000000000000000000000000000000000000",
            "0x000000000000000000000000e355d5d8aa52ef0fbbd037c4a3c5e6fd659cf46b"
          ],
          "data": "0x000000000000000000000000000000000000000000000000000000174876e800",
          "blockHash": "0x4adf730b87cfa2a96b0d450f76e48c5df186e236c837dbd9b1d03f6f7767c13e",
          "blockNumber": "0x330852",
          "blockTimestamp": "0x67adf198",
          "transactionHash": "0xbf4c63ca64625fab96a4b8c6da787d31f2bfafdf8b793335eeb55ccda20023d1",
          "transactionIndex": "0x15",
          "logIndex": "0x19",
          "removed": false
        }
      ],
      "logsBloom": "0x40000000000000000000000000000000000000000000000000000000000000000000000000000000000000000000000000000000000000000000000000000000000000000000000000000008000000000000000000000000000000000000000000000000020000000000000000000800000000000000000000000010000000000000000000000000000000000000000200000002000000000000000000000000000000000000000000000000000000000000000000000000000000000000000000000002000000000000000000000000000000000000000010000000000020000000000000000020000000000000000000000000000000000000000000004000",
      "type": "0x2",
      "transactionHash": "0xbf4c63ca64625fab96a4b8c6da787d31f2bfafdf8b793335eeb55ccda20023d1",
      "transactionIndex": "0x15",
      "blockHash": "0x4adf730b87cfa2a96b0d450f76e48c5df186e236c837dbd9b1d03f6f7767c13e",
      "blockNumber": "0x330852",
      "gasUsed": "0x120c2",
      "effectiveGasPrice": "0xf4250",
      "from": "0xe355d5d8aa52ef0fbbd037c4a3c5e6fd659cf46b",
      "to": "0xb927b74d5d9c3985d4dcdd62cbffec66cf527faa",
      "contractAddress": null
    },
    {
      "status": "0x1",
      "cumulativeGasUsed": "0x2048de",
      "logs": [
        {
          "address": "0x8f6136b147b49bd6075e5ae60c8c946269fa79e3",
          "topics": [
            "0x8c5be1e5ebec7d5bd14f71427d1e84f3dd0314c0f7b2291e5b200ac8c7c3b925",
            "0x000000000000000000000000e355d5d8aa52ef0fbbd037c4a3c5e6fd659cf46b",
            "0x000000000000000000000000d0586b5a5f97347c769983c404348346fe26f38e"
          ],
          "data": "0x000000000000000000000000000000000000000000000000000000174876e800",
          "blockHash": "0x4adf730b87cfa2a96b0d450f76e48c5df186e236c837dbd9b1d03f6f7767c13e",
          "blockNumber": "0x330852",
          "blockTimestamp": "0x67adf198",
          "transactionHash": "0xeda91e3209bacffab10cec3300ce8a57ecb9724f4d6c9bfbfa506c52505b23f2",
          "transactionIndex": "0x16",
          "logIndex": "0x1a",
          "removed": false
        }
      ],
      "logsBloom": "0x40000000000000000000000000000000000000000000000000000000000000000000000800000000000000000000000000000000000000000000000000200000000000000000000000000000000000000000000000000000000000000000000000000000000000000000000000000000000000000000000000000000000000000000000000000000000000000000000200000002000000000000000000000000020000000000000000000000000000000000000000000200000000000000000000000000000000000000000000000000000000000000000010000000000000000010000000000020080000000000000000000000000000000000000000004000",
      "type": "0x2",
      "transactionHash": "0xeda91e3209bacffab10cec3300ce8a57ecb9724f4d6c9bfbfa506c52505b23f2",
      "transactionIndex": "0x16",
      "blockHash": "0x4adf730b87cfa2a96b0d450f76e48c5df186e236c837dbd9b1d03f6f7767c13e",
      "blockNumber": "0x330852",
      "gasUsed": "0xb36d",
      "effectiveGasPrice": "0xf4250",
      "from": "0xe355d5d8aa52ef0fbbd037c4a3c5e6fd659cf46b",
      "to": "0x8f6136b147b49bd6075e5ae60c8c946269fa79e3",
      "contractAddress": null
    },
    {
      "status": "0x1",
      "cumulativeGasUsed": "0x22e9a6",
      "logs": [
        {
          "address": "0x8f6136b147b49bd6075e5ae60c8c946269fa79e3",
          "topics": [
            "0xddf252ad1be2c89b69c2b068fc378daa952ba7f163c4a11628f55a4df523b3ef",
            "0x000000000000000000000000e355d5d8aa52ef0fbbd037c4a3c5e6fd659cf46b",
            "0x000000000000000000000000d0586b5a5f97347c769983c404348346fe26f38e"
          ],
          "data": "0x000000000000000000000000000000000000000000000000000000174876e800",
          "blockHash": "0x4adf730b87cfa2a96b0d450f76e48c5df186e236c837dbd9b1d03f6f7767c13e",
          "blockNumber": "0x330852",
          "blockTimestamp": "0x67adf198",
          "transactionHash": "0xe38c57de587193123b1a18ce73f387d437a1bc69c1a0a4be22e336c5554702a0",
          "transactionIndex": "0x17",
          "logIndex": "0x1b",
          "removed": false
        },
        {
          "address": "0x05b4d76a2d2810746983c111dba6daa65983191c",
          "topics": [
            "0xddf252ad1be2c89b69c2b068fc378daa952ba7f163c4a11628f55a4df523b3ef",
            "0x0000000000000000000000000000000000000000000000000000000000000000",
            "0x000000000000000000000000550a95c76a929635e7836cbef401c378485f4422"
          ],
          "data": "0x000000000000000000000000000000000000000000000000000000174876e800",
          "blockHash": "0x4adf730b87cfa2a96b0d450f76e48c5df186e236c837dbd9b1d03f6f7767c13e",
          "blockNumber": "0x330852",
          "blockTimestamp": "0x67adf198",
          "transactionHash": "0xe38c57de587193123b1a18ce73f387d437a1bc69c1a0a4be22e336c5554702a0",
          "transactionIndex": "0x17",
          "logIndex": "0x1c",
          "removed": false
        },
        {
          "address": "0xfa60176aa0161128cf3d145b05827ec250fce281",
          "topics": [
            "0xddf252ad1be2c89b69c2b068fc378daa952ba7f163c4a11628f55a4df523b3ef",
            "0x0000000000000000000000000000000000000000000000000000000000000000",
            "0x000000000000000000000000550a95c76a929635e7836cbef401c378485f4422"
          ],
          "data": "0x000000000000000000000000000000000000000000000000000000174876e800",
          "blockHash": "0x4adf730b87cfa2a96b0d450f76e48c5df186e236c837dbd9b1d03f6f7767c13e",
          "blockNumber": "0x330852",
          "blockTimestamp": "0x67adf198",
          "transactionHash": "0xe38c57de587193123b1a18ce73f387d437a1bc69c1a0a4be22e336c5554702a0",
          "transactionIndex": "0x17",
          "logIndex": "0x1d",
          "removed": false
        },
        {
          "address": "0xd0586b5a5f97347c769983c404348346fe26f38e",
          "topics": [
            "0xab8530f87dc9b59234c4623bf917212bb2536d647574c8e7e5da92c2ede0c9f8",
            "0x000000000000000000000000e355d5d8aa52ef0fbbd037c4a3c5e6fd659cf46b",
            "0x000000000000000000000000550a95c76a929635e7836cbef401c378485f4422"
          ],
          "data": "0x000000000000000000000000000000000000000000000000000000174876e800",
          "blockHash": "0x4adf730b87cfa2a96b0d450f76e48c5df186e236c837dbd9b1d03f6f7767c13e",
          "blockNumber": "0x330852",
          "blockTimestamp": "0x67adf198",
          "transactionHash": "0xe38c57de587193123b1a18ce73f387d437a1bc69c1a0a4be22e336c5554702a0",
          "transactionIndex": "0x17",
          "logIndex": "0x1e",
          "removed": false
        }
      ],
      "logsBloom": "0x40000000000000000000000000000000000000000000000000000100000000000000000800000000000000002000000000000000000000000000002000200000000000000000000000000008000000000000000000000000000000000000000000020000020000000000000000000800000000000000000000000010000000000000004000000000000000000000000200040002000000000000000000040000000000000000000000000000000000000000000028000200000000400000000000000002000000000000000000000000000000000000000010080000010020000000000000000020080000001000000000000000000800000000000000004000",
      "type": "0x2",
      "transactionHash": "0xe38c57de587193123b1a18ce73f387d437a1bc69c1a0a4be22e336c5554702a0",
      "transactionIndex": "0x17",
      "blockHash": "0x4adf730b87cfa2a96b0d450f76e48c5df186e236c837dbd9b1d03f6f7767c13e",
      "blockNumber": "0x330852",
      "gasUsed": "0x2a0c8",
      "effectiveGasPrice": "0xf4250",
      "from": "0xe355d5d8aa52ef0fbbd037c4a3c5e6fd659cf46b",
      "to": "0xd0586b5a5f97347c769983c404348346fe26f38e",
      "contractAddress": null
    },
    {
      "status": "0x1",
      "cumulativeGasUsed": "0x23c790",
      "logs": [
        {
          "address": "0x8f6136b147b49bd6075e5ae60c8c946269fa79e3",
          "topics": [
            "0xddf252ad1be2c89b69c2b068fc378daa952ba7f163c4a11628f55a4df523b3ef",
            "0x0000000000000000000000000000000000000000000000000000000000000000",
            "0x000000000000000000000000e355d5d8aa52ef0fbbd037c4a3c5e6fd659cf46b"
          ],
          "data": "0x0000000000000000000000000000000000000000000000000000000501bd0000",
          "blockHash": "0x4adf730b87cfa2a96b0d450f76e48c5df186e236c837dbd9b1d03f6f7767c13e",
          "blockNumber": "0x330852",
          "blockTimestamp": "0x67adf198",
          "transactionHash": "0x97f7b488bd6e06b81354b67bbb12ea843748bd92919b281b2b259affb30d7ff1",
          "transactionIndex": "0x18",
          "logIndex": "0x1f",
          "removed": false
        }
      ],
      "logsBloom": "0x40000000000000000000000000000000000000000000000000000000000000000000000000000000000000000000000000000000000000000000000000000000000000000000000000000008000000000000000000000000000000000000000000000000020000000000000000000800000000000000000000000010000000000000000000000000000000000000000200000002000000000000000000000000000000000000000000000000000000000000000000000000000000000000000000000002000000000000000000000000000000000000000010000000000020000000000000000020000000000000000000000000000000000000000000004000",
      "type": "0x2",
      "transactionHash": "0x97f7b488bd6e06b81354b67bbb12ea843748bd92919b281b2b259affb30d7ff1",
      "transactionIndex": "0x18",
      "blockHash": "0x4adf730b87cfa2a96b0d450f76e48c5df186e236c837dbd9b1d03f6f7767c13e",
      "blockNumber": "0x330852",
      "gasUsed": "0xddea",
      "effectiveGasPrice": "0xf4250",
      "from": "0xe355d5d8aa52ef0fbbd037c4a3c5e6fd659cf46b",
      "to": "0xb927b74d5d9c3985d4dcdd62cbffec66cf527faa",
      "contractAddress": null
    },
    {
      "status": "0x1",
      "cumulativeGasUsed": "0x24e882",
      "logs": [
        {
          "address": "0x8a42d2b0e5fdfed3994d9661728d025d21ad682d",
          "topics": [
            "0xddf252ad1be2c89b69c2b068fc378daa952ba7f163c4a11628f55a4df523b3ef",
            "0x0000000000000000000000000000000000000000000000000000000000000000",
            "0x000000000000000000000000e355d5d8aa52ef0fbbd037c4a3c5e6fd659cf46b"
          ],
          "data": "0x00000000000000000000000000000000000000000000028ff13b8373d2900000",
          "blockHash": "0x4adf730b87cfa2a96b0d450f76e48c5df186e236c837dbd9b1d03f6f7767c13e",
          "blockNumber": "0x330852",
          "blockTimestamp": "0x67adf198",
          "transactionHash": "0x99a3bf27b9077380b8a925f157fa017a73c8df98c05cf51218c5bd4845be1d0f",
          "transactionIndex": "0x19",
          "logIndex": "0x20",
          "removed": false
        }
      ],
      "logsBloom": "0x00000000000000000000000000000000000000000000000000000000002000000000000000000000000000000000000000000000000100000000000000000000000000000000000000000008000000000000400000000000000000000000000000000000020000000000000000000800000000000000000000000010000000000000000000000000000000000000000200000000000000000000000000000000000000000000000000000000000000000000000000000000000000000000000000000002000000000000000000000000000000000000000000000000000020000000000000000020000000000000000000000000000000000000000000004000",
      "type": "0x2",
      "transactionHash": "0x99a3bf27b9077380b8a925f157fa017a73c8df98c05cf51218c5bd4845be1d0f",
      "transactionIndex": "0x19",
      "blockHash": "0x4adf730b87cfa2a96b0d450f76e48c5df186e236c837dbd9b1d03f6f7767c13e",
      "blockNumber": "0x330852",
      "gasUsed": "0x120f2",
      "effectiveGasPrice": "0xf4250",
      "from": "0xe355d5d8aa52ef0fbbd037c4a3c5e6fd659cf46b",
      "to": "0xb927b74d5d9c3985d4dcdd62cbffec66cf527faa",
      "contractAddress": null
    },
    {
      "status": "0x1",
      "cumulativeGasUsed": "0x259be3",
      "logs": [
        {
          "address": "0x8f6136b147b49bd6075e5ae60c8c946269fa79e3",
          "topics": [
            "0x8c5be1e5ebec7d5bd14f71427d1e84f3dd0314c0f7b2291e5b200ac8c7c3b925",
            "0x000000000000000000000000e355d5d8aa52ef0fbbd037c4a3c5e6fd659cf46b",
            "0x000000000000000000000000550a95c76a929635e7836cbef401c378485f4422"
          ],
          "data": "0x000000000000000000000000000000000000000000000000000000003b9aca00",
          "blockHash": "0x4adf730b87cfa2a96b0d450f76e48c5df186e236c837dbd9b1d03f6f7767c13e",
          "blockNumber": "0x330852",
          "blockTimestamp": "0x67adf198",
          "transactionHash": "0x1036e41b3c4d94136323d6d5d2fa77ab5d94b7bde8e6f7710a68f15781b76957",
          "transactionIndex": "0x1a",
          "logIndex": "0x21",
          "removed": false
        }
      ],
      "logsBloom": "0x40000000000000000000000000000000000000000000000000000000000000000000000000000000000000002000000000000000000000000000000000200000000000000000000000000000000000000000000000000000000000000000000000000000000000000000000000000000000000000000000000000000000000000000000000000000000000000000000200000002000000000000000000000000020000000000000000000000000000000000000000000000000000400000000000000000000000000000000000000000000000000000000010000000000000000010000000000020000000001000000000000000000000000000000000004000",
      "type": "0x2",
      "transactionHash": "0x1036e41b3c4d94136323d6d5d2fa77ab5d94b7bde8e6f7710a68f15781b76957",
      "transactionIndex": "0x1a",
      "blockHash": "0x4adf730b87cfa2a96b0d450f76e48c5df186e236c837dbd9b1d03f6f7767c13e",
      "blockNumber": "0x330852",
      "gasUsed": "0xb361",
      "effectiveGasPrice": "0xf4250",
      "from": "0xe355d5d8aa52ef0fbbd037c4a3c5e6fd659cf46b",
      "to": "0x8f6136b147b49bd6075e5ae60c8c946269fa79e3",
      "contractAddress": null
    },
    {
      "status": "0x1",
      "cumulativeGasUsed": "0x2961e3",
      "logs": [
        {
          "address": "0x8f6136b147b49bd6075e5ae60c8c946269fa79e3",
          "topics": [
            "0xddf252ad1be2c89b69c2b068fc378daa952ba7f163c4a11628f55a4df523b3ef",
            "0x000000000000000000000000e355d5d8aa52ef0fbbd037c4a3c5e6fd659cf46b",
            "0x000000000000000000000000550a95c76a929635e7836cbef401c378485f4422"
          ],
          "data": "0x000000000000000000000000000000000000000000000000000000003b9aca00",
          "blockHash": "0x4adf730b87cfa2a96b0d450f76e48c5df186e236c837dbd9b1d03f6f7767c13e",
          "blockNumber": "0x330852",
          "blockTimestamp": "0x67adf198",
          "transactionHash": "0xacf6a728c8aecf6abd58d843d902c3e60c5cc6d5df4e45f286033659b709ff5a",
          "transactionIndex": "0x1b",
          "logIndex": "0x22",
          "removed": false
        },
        {
          "address": "0x8f6136b147b49bd6075e5ae60c8c946269fa79e3",
          "topics": [
            "0x8c5be1e5ebec7d5bd14f71427d1e84f3dd0314c0f7b2291e5b200ac8c7c3b925",
            "0x000000000000000000000000550a95c76a929635e7836cbef401c378485f4422",
            "0x000000000000000000000000d0586b5a5f97347c769983c404348346fe26f38e"
          ],
          "data": "0x000000000000000000000000000000000000000000000000000000003b9aca00",
          "blockHash": "0x4adf730b87cfa2a96b0d450f76e48c5df186e236c837dbd9b1d03f6f7767c13e",
          "blockNumber": "0x330852",
          "blockTimestamp": "0x67adf198",
          "transactionHash": "0xacf6a728c8aecf6abd58d843d902c3e60c5cc6d5df4e45f286033659b709ff5a",
          "transactionIndex": "0x1b",
          "logIndex": "0x23",
          "removed": false
        },
        {
          "address": "0x8f6136b147b49bd6075e5ae60c8c946269fa79e3",
          "topics": [
            "0xddf252ad1be2c89b69c2b068fc378daa952ba7f163c4a11628f55a4df523b3ef",
            "0x000000000000000000000000550a95c76a929635e7836cbef401c378485f4422",
            "0x000000000000000000000000d0586b5a5f97347c769983c404348346fe26f38e"
          ],
          "data": "0x000000000000000000000000000000000000000000000000000000003b9aca00",
          "blockHash": "0x4adf730b87cfa2a96b0d450f76e48c5df186e236c837dbd9b1d03f6f7767c13e",
          "blockNumber": "0x330852",
          "blockTimestamp": "0x67adf198",
          "transactionHash": "0xacf6a728c8aecf6abd58d843d902c3e60c5cc6d5df4e45f286033659b709ff5a",
          "transactionIndex": "0x1b",
          "logIndex": "0x24",
          "removed": false
        },
        {
          "address": "0x05b4d76a2d2810746983c111dba6daa65983191c",
          "topics": [
            "0xddf252ad1be2c89b69c2b068fc378daa952ba7f163c4a11628f55a4df523b3ef",
            "0x0000000000000000000000000000000000000000000000000000000000000000",
            "0x000000000000000000000000550a95c76a929635e7836cbef401c378485f4422"
          ],
          "data": "0x000000000000000000000000000000000000000000000000000000003b9aca00",
          "blockHash": "0x4adf730b87cfa2a96b0d450f76e48c5df186e236c837dbd9b1d03f6f7767c13e",
          "blockNumber": "0x330852",
          "blockTimestamp": "0x67adf198",
          "transactionHash": "0xacf6a728c8aecf6abd58d843d902c3e60c5cc6d5df4e45f286033659b709ff5a",
          "transactionIndex": "0x1b",
          "logIndex": "0x25",
          "removed": false
        },
        {
          "address": "0xfa60176aa0161128cf3d145b05827ec250fce281",
          "topics": [
            "0xddf252ad1be2c89b69c2b068fc378daa952ba7f163c4a11628f55a4df523b3ef",
            "0x0000000000000000000000000000000000000000000000000000000000000000",
            "0x000000000000000000000000550a95c76a929635e7836cbef401c378485f4422"
          ],
          "data": "0x000000000000000000000000000000000000000000000000000000003b9aca00",
          "blockHash": "0x4adf730b87cfa2a96b0d450f76e48c5df186e236c837dbd9b1d03f6f7767c13e",
          "blockNumber": "0x330852",
          "blockTimestamp": "0x67adf198",
          "transactionHash": "0xacf6a728c8aecf6abd58d843d902c3e60c5cc6d5df4e45f286033659b709ff5a",
          "transactionIndex": "0x1b",
          "logIndex": "0x26",
          "removed": false
        },
        {
          "address": "0xd0586b5a5f97347c769983c404348346fe26f38e",
          "topics": [
            "0xab8530f87dc9b59234c4623bf917212bb2536d647574c8e7e5da92c2ede0c9f8",
            "0x000000000000000000000000550a95c76a929635e7836cbef401c378485f4422",
            "0x000000000000000000000000550a95c76a929635e7836cbef401c378485f4422"
          ],
          "data": "0x000000000000000000000000000000000000000000000000000000003b9aca00",
          "blockHash": "0x4adf730b87cfa2a96b0d450f76e48c5df186e236c837dbd9b1d03f6f7767c13e",
          "blockNumber": "0x330852",
          "blockTimestamp": "0x67adf198",
          "transactionHash": "0xacf6a728c8aecf6abd58d843d902c3e60c5cc6d5df4e45f286033659b709ff5a",
          "transactionIndex": "0x1b",
          "logIndex": "0x27",
          "removed": false
        },
        {
          "address": "0x05b4d76a2d2810746983c111dba6daa65983191c",
          "topics": [
            "0xddf252ad1be2c89b69c2b068fc378daa952ba7f163c4a11628f55a4df523b3ef",
            "0x000000000000000000000000550a95c76a929635e7836cbef401c378485f4422",
            "0x000000000000000000000000e355d5d8aa52ef0fbbd037c4a3c5e6fd659cf46b"
          ],
          "data": "0x000000000000000000000000000000000000000000000000000000003bd3d2b8",
          "blockHash": "0x4adf730b87cfa2a96b0d450f76e48c5df186e236c837dbd9b1d03f6f7767c13e",
          "blockNumber": "0x330852",
          "blockTimestamp": "0x67adf198",
          "transactionHash": "0xacf6a728c8aecf6abd58d843d902c3e60c5cc6d5df4e45f286033659b709ff5a",
          "transactionIndex": "0x1b",
          "logIndex": "0x28",
          "removed": false
        },
        {
          "address": "0x05b4d76a2d2810746983c111dba6daa65983191c",
          "topics": [
            "0xddf252ad1be2c89b69c2b068fc378daa952ba7f163c4a11628f55a4df523b3ef",
            "0x000000000000000000000000550a95c76a929635e7836cbef401c378485f4422",
            "0x0000000000000000000000007ab945445958819a74b48e8bd5f9e39ed74bde9e"
          ],
          "data": "0x00000000000000000000000000000000000000000000000000000000000433d7",
          "blockHash": "0x4adf730b87cfa2a96b0d450f76e48c5df186e236c837dbd9b1d03f6f7767c13e",
          "blockNumber": "0x330852",
          "blockTimestamp": "0x67adf198",
          "transactionHash": "0xacf6a728c8aecf6abd58d843d902c3e60c5cc6d5df4e45f286033659b709ff5a",
          "transactionIndex": "0x1b",
          "logIndex": "0x29",
          "removed": false
        },
        {
          "address": "0x550a95c76a929635e7836cbef401c378485f4422",
          "topics": [
            "0xafc472950ba0847ac0541a7d71ad9977d695e4dba0cc223dba88d5fa8609732a",
            "0x0000000000000000000000008f6136b147b49bd6075e5ae60c8c946269fa79e3",
            "0x00000000000000000000000005b4d76a2d2810746983c111dba6daa65983191c"
          ],
          "data": "0x000000000000000000000000e355d5d8aa52ef0fbbd037c4a3c5e6fd659cf46b000000000000000000000000e355d5d8aa52ef0fbbd037c4a3c5e6fd659cf46b000000000000000000000000000000000000000000000000000000003b9aca00000000000000000000000000000000000000000000000000000000003bd3d2b800000000000000000000000000000000000000000000000000000000000433d7",
          "blockHash": "0x4adf730b87cfa2a96b0d450f76e48c5df186e236c837dbd9b1d03f6f7767c13e",
          "blockNumber": "0x330852",
          "blockTimestamp": "0x67adf198",
          "transactionHash": "0xacf6a728c8aecf6abd58d843d902c3e60c5cc6d5df4e45f286033659b709ff5a",
          "transactionIndex": "0x1b",
          "logIndex": "0x2a",
          "removed": false
        }
      ],
      "logsBloom": "0x42000000000000000000000000000000000000000000000000000100000000000000000800000000000008002000000000000000000000000000002000200000000000080000000040000008000000000000000000000000000000000000000000020000020000000000000008000800000000000000000000000010000000000000004000000000000020000000000200040002000000000000000000040000020000200010000000000000000010000004000038000200000000410000000000000002000000000000000000000000010000000000000010090000010020000010000000000020080000001000000000000000000800010000000000004000",
      "type": "0x2",
      "transactionHash": "0xacf6a728c8aecf6abd58d843d902c3e60c5cc6d5df4e45f286033659b709ff5a",
      "transactionIndex": "0x1b",
      "blockHash": "0x4adf730b87cfa2a96b0d450f76e48c5df186e236c837dbd9b1d03f6f7767c13e",
      "blockNumber": "0x330852",
      "gasUsed": "0x3c600",
      "effectiveGasPrice": "0xf4250",
      "from": "0xe355d5d8aa52ef0fbbd037c4a3c5e6fd659cf46b",
      "to": "0x550a95c76a929635e7836cbef401c378485f4422",
      "contractAddress": null
    },
    {
      "status": "0x1",
      "cumulativeGasUsed": "0x2a1580",
      "logs": [
        {
          "address": "0x8a42d2b0e5fdfed3994d9661728d025d21ad682d",
          "topics": [
            "0x8c5be1e5ebec7d5bd14f71427d1e84f3dd0314c0f7b2291e5b200ac8c7c3b925",
            "0x000000000000000000000000e355d5d8aa52ef0fbbd037c4a3c5e6fd659cf46b",
            "0x000000000000000000000000bfccc3c7f739d4ae7ccf680b3fafcfb5bdc4f842"
          ],
          "data": "0x00000000000000000000000000000000000000000000028a857425466f800000",
          "blockHash": "0x4adf730b87cfa2a96b0d450f76e48c5df186e236c837dbd9b1d03f6f7767c13e",
          "blockNumber": "0x330852",
          "blockTimestamp": "0x67adf198",
          "transactionHash": "0x278091a57307f8e4da22129e2c8ee8456f342478556c89ad1700738595497a04",
          "transactionIndex": "0x1c",
          "logIndex": "0x2b",
          "removed": false
        }
      ],
      "logsBloom": "0x00000000000000000000000000000000000000000000000000000000002000000000000000000000000000000000000000000000000100000000000000200000000000000000000000000000000000000000400000000000000000000000000000000000000000000000000000000000000000000000000000000000000000000000000004000000000000000000000200000000000000000000000002000000020000000000000000000000000000000000000000000000000000000000000000000000000000000000000000000000000000000000000000000000000000000010000000000020000000000000000000000002000000000000000000004000",
      "type": "0x2",
      "transactionHash": "0x278091a57307f8e4da22129e2c8ee8456f342478556c89ad1700738595497a04",
      "transactionIndex": "0x1c",
      "blockHash": "0x4adf730b87cfa2a96b0d450f76e48c5df186e236c837dbd9b1d03f6f7767c13e",
      "blockNumber": "0x330852",
      "gasUsed": "0xb39d",
      "effectiveGasPrice": "0xf4250",
      "from": "0xe355d5d8aa52ef0fbbd037c4a3c5e6fd659cf46b",
      "to": "0x8a42d2b0e5fdfed3994d9661728d025d21ad682d",
      "contractAddress": null
    },
    {
      "status": "0x1",
      "cumulativeGasUsed": "0x352515",
      "logs": [
        {
          "address": "0x8a42d2b0e5fdfed3994d9661728d025d21ad682d",
          "topics": [
            "0xddf252ad1be2c89b69c2b068fc378daa952ba7f163c4a11628f55a4df523b3ef",
            "0x000000000000000000000000e355d5d8aa52ef0fbbd037c4a3c5e6fd659cf46b",
            "0x000000000000000000000000bfccc3c7f739d4ae7ccf680b3fafcfb5bdc4f842"
          ],
          "data": "0x00000000000000000000000000000000000000000000028a857425466f800000",
          "blockHash": "0x4adf730b87cfa2a96b0d450f76e48c5df186e236c837dbd9b1d03f6f7767c13e",
          "blockNumber": "0x330852",
          "blockTimestamp": "0x67adf198",
          "transactionHash": "0xf74f01fe9d0ab2b80680f1363abe91b5d86f8556ae2a4dc889ad58537559d870",
          "transactionIndex": "0x1d",
          "logIndex": "0x2c",
          "removed": false
        },
        {
          "address": "0x8a42d2b0e5fdfed3994d9661728d025d21ad682d",
          "topics": [
            "0x8c5be1e5ebec7d5bd14f71427d1e84f3dd0314c0f7b2291e5b200ac8c7c3b925",
            "0x000000000000000000000000bfccc3c7f739d4ae7ccf680b3fafcfb5bdc4f842",
            "0x0000000000000000000000004a662249b6cf35a3af633116131ba2b5cc329687"
          ],
          "data": "0x00000000000000000000000000000000000000000000028a857425466f800000",
          "blockHash": "0x4adf730b87cfa2a96b0d450f76e48c5df186e236c837dbd9b1d03f6f7767c13e",
          "blockNumber": "0x330852",
          "blockTimestamp": "0x67adf198",
          "transactionHash": "0xf74f01fe9d0ab2b80680f1363abe91b5d86f8556ae2a4dc889ad58537559d870",
          "transactionIndex": "0x1d",
          "logIndex": "0x2d",
          "removed": false
        },
        {
          "address": "0x8a42d2b0e5fdfed3994d9661728d025d21ad682d",
          "topics": [
            "0xddf252ad1be2c89b69c2b068fc378daa952ba7f163c4a11628f55a4df523b3ef",
            "0x000000000000000000000000bfccc3c7f739d4ae7ccf680b3fafcfb5bdc4f842",
            "0x0000000000000000000000004a662249b6cf35a3af633116131ba2b5cc329687"
          ],
          "data": "0x00000000000000000000000000000000000000000000028a857425466f800000",
          "blockHash": "0x4adf730b87cfa2a96b0d450f76e48c5df186e236c837dbd9b1d03f6f7767c13e",
          "blockNumber": "0x330852",
          "blockTimestamp": "0x67adf198",
          "transactionHash": "0xf74f01fe9d0ab2b80680f1363abe91b5d86f8556ae2a4dc889ad58537559d870",
          "transactionIndex": "0x1d",
          "logIndex": "0x2e",
          "removed": false
        },
        {
          "address": "0x4a662249b6cf35a3af633116131ba2b5cc329687",
          "topics": [
            "0xddf252ad1be2c89b69c2b068fc378daa952ba7f163c4a11628f55a4df523b3ef",
            "0x0000000000000000000000000000000000000000000000000000000000000000",
            "0x000000000000000000000000bfccc3c7f739d4ae7ccf680b3fafcfb5bdc4f842",
            "0x0000000000000000000000000000000000000000000000000000000000000001"
          ],
          "data": "0x",
          "blockHash": "0x4adf730b87cfa2a96b0d450f76e48c5df186e236c837dbd9b1d03f6f7767c13e",
          "blockNumber": "0x330852",
          "blockTimestamp": "0x67adf198",
          "transactionHash": "0xf74f01fe9d0ab2b80680f1363abe91b5d86f8556ae2a4dc889ad58537559d870",
          "transactionIndex": "0x1d",
          "logIndex": "0x2f",
          "removed": false
        },
        {
          "address": "0x05b4d76a2d2810746983c111dba6daa65983191c",
          "topics": [
            "0xddf252ad1be2c89b69c2b068fc378daa952ba7f163c4a11628f55a4df523b3ef",
            "0x0000000000000000000000000000000000000000000000000000000000000000",
            "0x0000000000000000000000007ab945445958819a74b48e8bd5f9e39ed74bde9e"
          ],
          "data": "0x00000000000000000000000000000000000000000000000000000000001ddb07",
          "blockHash": "0x4adf730b87cfa2a96b0d450f76e48c5df186e236c837dbd9b1d03f6f7767c13e",
          "blockNumber": "0x330852",
          "blockTimestamp": "0x67adf198",
          "transactionHash": "0xf74f01fe9d0ab2b80680f1363abe91b5d86f8556ae2a4dc889ad58537559d870",
          "transactionIndex": "0x1d",
          "logIndex": "0x30",
          "removed": false
        },
        {
          "address": "0x05b4d76a2d2810746983c111dba6daa65983191c",
          "topics": [
            "0xddf252ad1be2c89b69c2b068fc378daa952ba7f163c4a11628f55a4df523b3ef",
            "0x0000000000000000000000000000000000000000000000000000000000000000",
            "0x000000000000000000000000bfccc3c7f739d4ae7ccf680b3fafcfb5bdc4f842"
          ],
          "data": "0x00000000000000000000000000000000000000000000000000000001fa85d9f9",
          "blockHash": "0x4adf730b87cfa2a96b0d450f76e48c5df186e236c837dbd9b1d03f6f7767c13e",
          "blockNumber": "0x330852",
          "blockTimestamp": "0x67adf198",
          "transactionHash": "0xf74f01fe9d0ab2b80680f1363abe91b5d86f8556ae2a4dc889ad58537559d870",
          "transactionIndex": "0x1d",
          "logIndex": "0x31",
          "removed": false
        },
        {
          "address": "0xd0586b5a5f97347c769983c404348346fe26f38e",
          "topics": [
            "0x4df3b19e819480e8ca2aff222a35ef1641eedcaf2f0fe5e7bfe9ca499548df80",
            "0x000000000000000000000000bfccc3c7f739d4ae7ccf680b3fafcfb5bdc4f842",
            "0x000000000000000000000000bfccc3c7f739d4ae7ccf680b3fafcfb5bdc4f842",
            "0x0000000000000000000000000000000000000000000000000000000000000001"
          ],
          "data": "0x00000000000000000000000000000000000000000000000000000001faa3b50000000000000000000000000000000000000000000000000000000001fa85d9f900000000000000000000000000000000000000000000000000000000001ddb070000000000000000000000000000000000000000000000000000000000000080000000000000000000000000000000000000000000000000000000000000002000000000000000000000000000000000000000000000028a857425466f800000",
          "blockHash": "0x4adf730b87cfa2a96b0d450f76e48c5df186e236c837dbd9b1d03f6f7767c13e",
          "blockNumber": "0x330852",
          "blockTimestamp": "0x67adf198",
          "transactionHash": "0xf74f01fe9d0ab2b80680f1363abe91b5d86f8556ae2a4dc889ad58537559d870",
          "transactionIndex": "0x1d",
          "logIndex": "0x32",
          "removed": false
        },
        {
          "address": "0x05b4d76a2d2810746983c111dba6daa65983191c",
          "topics": [
            "0x8c5be1e5ebec7d5bd14f71427d1e84f3dd0314c0f7b2291e5b200ac8c7c3b925",
            "0x000000000000000000000000bfccc3c7f739d4ae7ccf680b3fafcfb5bdc4f842",
            "0x000000000000000000000000550a95c76a929635e7836cbef401c378485f4422"
          ],
          "data": "0x00000000000000000000000000000000000000000000000000000001fa85d9f9",
          "blockHash": "0x4adf730b87cfa2a96b0d450f76e48c5df186e236c837dbd9b1d03f6f7767c13e",
          "blockNumber": "0x330852",
          "blockTimestamp": "0x67adf198",
          "transactionHash": "0xf74f01fe9d0ab2b80680f1363abe91b5d86f8556ae2a4dc889ad58537559d870",
          "transactionIndex": "0x1d",
          "logIndex": "0x33",
          "removed": false
        },
        {
          "address": "0x05b4d76a2d2810746983c111dba6daa65983191c",
          "topics": [
            "0xddf252ad1be2c89b69c2b068fc378daa952ba7f163c4a11628f55a4df523b3ef",
            "0x000000000000000000000000bfccc3c7f739d4ae7ccf680b3fafcfb5bdc4f842",
            "0x000000000000000000000000550a95c76a929635e7836cbef401c378485f4422"
          ],
          "data": "0x00000000000000000000000000000000000000000000000000000001df2fdcf0",
          "blockHash": "0x4adf730b87cfa2a96b0d450f76e48c5df186e236c837dbd9b1d03f6f7767c13e",
          "blockNumber": "0x330852",
          "blockTimestamp": "0x67adf198",
          "transactionHash": "0xf74f01fe9d0ab2b80680f1363abe91b5d86f8556ae2a4dc889ad58537559d870",
          "transactionIndex": "0x1d",
          "logIndex": "0x34",
          "removed": false
        },
        {
          "address": "0x05b4d76a2d2810746983c111dba6daa65983191c",
          "topics": [
            "0x8c5be1e5ebec7d5bd14f71427d1e84f3dd0314c0f7b2291e5b200ac8c7c3b925",
            "0x000000000000000000000000550a95c76a929635e7836cbef401c378485f4422",
            "0x000000000000000000000000d0586b5a5f97347c769983c404348346fe26f38e"
          ],
          "data": "0x00000000000000000000000000000000000000000000000000000001dcd65000",
          "blockHash": "0x4adf730b87cfa2a96b0d450f76e48c5df186e236c837dbd9b1d03f6f7767c13e",
          "blockNumber": "0x330852",
          "blockTimestamp": "0x67adf198",
          "transactionHash": "0xf74f01fe9d0ab2b80680f1363abe91b5d86f8556ae2a4dc889ad58537559d870",
          "transactionIndex": "0x1d",
          "logIndex": "0x35",
          "removed": false
        },
        {
          "address": "0xfa60176aa0161128cf3d145b05827ec250fce281",
          "topics": [
            "0x8c5be1e5ebec7d5bd14f71427d1e84f3dd0314c0f7b2291e5b200ac8c7c3b925",
            "0x000000000000000000000000550a95c76a929635e7836cbef401c378485f4422",
            "0x000000000000000000000000d0586b5a5f97347c769983c404348346fe26f38e"
          ],
          "data": "0x00000000000000000000000000000000000000000000000000000001dcd65000",
          "blockHash": "0x4adf730b87cfa2a96b0d450f76e48c5df186e236c837dbd9b1d03f6f7767c13e",
          "blockNumber": "0x330852",
          "blockTimestamp": "0x67adf198",
          "transactionHash": "0xf74f01fe9d0ab2b80680f1363abe91b5d86f8556ae2a4dc889ad58537559d870",
          "transactionIndex": "0x1d",
          "logIndex": "0x36",
          "removed": false
        },
        {
          "address": "0x05b4d76a2d2810746983c111dba6daa65983191c",
          "topics": [
            "0xddf252ad1be2c89b69c2b068fc378daa952ba7f163c4a11628f55a4df523b3ef",
            "0x000000000000000000000000550a95c76a929635e7836cbef401c378485f4422",
            "0x000000000000000000000000d0586b5a5f97347c769983c404348346fe26f38e"
          ],
          "data": "0x00000000000000000000000000000000000000000000000000000001dcd65000",
          "blockHash": "0x4adf730b87cfa2a96b0d450f76e48c5df186e236c837dbd9b1d03f6f7767c13e",
          "blockNumber": "0x330852",
          "blockTimestamp": "0x67adf198",
          "transactionHash": "0xf74f01fe9d0ab2b80680f1363abe91b5d86f8556ae2a4dc889ad58537559d870",
          "transactionIndex": "0x1d",
          "logIndex": "0x37",
          "removed": false
        },
        {
          "address": "0xfa60176aa0161128cf3d145b05827ec250fce281",
          "topics": [
            "0xddf252ad1be2c89b69c2b068fc378daa952ba7f163c4a11628f55a4df523b3ef",
            "0x000000000000000000000000550a95c76a929635e7836cbef401c378485f4422",
            "0x000000000000000000000000d0586b5a5f97347c769983c404348346fe26f38e"
          ],
          "data": "0x00000000000000000000000000000000000000000000000000000001dcd65000",
          "blockHash": "0x4adf730b87cfa2a96b0d450f76e48c5df186e236c837dbd9b1d03f6f7767c13e",
          "blockNumber": "0x330852",
          "blockTimestamp": "0x67adf198",
          "transactionHash": "0xf74f01fe9d0ab2b80680f1363abe91b5d86f8556ae2a4dc889ad58537559d870",
          "transactionIndex": "0x1d",
          "logIndex": "0x38",
          "removed": false
        },
        {
          "address": "0x05b4d76a2d2810746983c111dba6daa65983191c",
          "topics": [
            "0xddf252ad1be2c89b69c2b068fc378daa952ba7f163c4a11628f55a4df523b3ef",
            "0x000000000000000000000000d0586b5a5f97347c769983c404348346fe26f38e",
            "0x0000000000000000000000000000000000000000000000000000000000000000"
          ],
          "data": "0x00000000000000000000000000000000000000000000000000000001dcd65000",
          "blockHash": "0x4adf730b87cfa2a96b0d450f76e48c5df186e236c837dbd9b1d03f6f7767c13e",
          "blockNumber": "0x330852",
          "blockTimestamp": "0x67adf198",
          "transactionHash": "0xf74f01fe9d0ab2b80680f1363abe91b5d86f8556ae2a4dc889ad58537559d870",
          "transactionIndex": "0x1d",
          "logIndex": "0x39",
          "removed": false
        },
        {
          "address": "0xfa60176aa0161128cf3d145b05827ec250fce281",
          "topics": [
            "0xddf252ad1be2c89b69c2b068fc378daa952ba7f163c4a11628f55a4df523b3ef",
            "0x000000000000000000000000d0586b5a5f97347c769983c404348346fe26f38e",
            "0x0000000000000000000000000000000000000000000000000000000000000000"
          ],
          "data": "0x00000000000000000000000000000000000000000000000000000001dcd65000",
          "blockHash": "0x4adf730b87cfa2a96b0d450f76e48c5df186e236c837dbd9b1d03f6f7767c13e",
          "blockNumber": "0x330852",
          "blockTimestamp": "0x67adf198",
          "transactionHash": "0xf74f01fe9d0ab2b80680f1363abe91b5d86f8556ae2a4dc889ad58537559d870",
          "transactionIndex": "0x1d",
          "logIndex": "0x3a",
          "removed": false
        },
        {
          "address": "0x8f6136b147b49bd6075e5ae60c8c946269fa79e3",
          "topics": [
            "0xddf252ad1be2c89b69c2b068fc378daa952ba7f163c4a11628f55a4df523b3ef",
            "0x000000000000000000000000d0586b5a5f97347c769983c404348346fe26f38e",
            "0x000000000000000000000000e355d5d8aa52ef0fbbd037c4a3c5e6fd659cf46b"
          ],
          "data": "0x00000000000000000000000000000000000000000000000000000001dcd65000",
          "blockHash": "0x4adf730b87cfa2a96b0d450f76e48c5df186e236c837dbd9b1d03f6f7767c13e",
          "blockNumber": "0x330852",
          "blockTimestamp": "0x67adf198",
          "transactionHash": "0xf74f01fe9d0ab2b80680f1363abe91b5d86f8556ae2a4dc889ad58537559d870",
          "transactionIndex": "0x1d",
          "logIndex": "0x3b",
          "removed": false
        },
        {
          "address": "0xd0586b5a5f97347c769983c404348346fe26f38e",
          "topics": [
            "0xbac40739b0d4ca32fa2d82fc91630465ba3eddd1598da6fca393b26fb63b9453",
            "0x000000000000000000000000550a95c76a929635e7836cbef401c378485f4422",
            "0x000000000000000000000000e355d5d8aa52ef0fbbd037c4a3c5e6fd659cf46b"
          ],
          "data": "0x00000000000000000000000000000000000000000000000000000001dcd65000",
          "blockHash": "0x4adf730b87cfa2a96b0d450f76e48c5df186e236c837dbd9b1d03f6f7767c13e",
          "blockNumber": "0x330852",
          "blockTimestamp": "0x67adf198",
          "transactionHash": "0xf74f01fe9d0ab2b80680f1363abe91b5d86f8556ae2a4dc889ad58537559d870",
          "transactionIndex": "0x1d",
          "logIndex": "0x3c",
          "removed": false
        },
        {
          "address": "0x05b4d76a2d2810746983c111dba6daa65983191c",
          "topics": [
            "0xddf252ad1be2c89b69c2b068fc378daa952ba7f163c4a11628f55a4df523b3ef",
            "0x000000000000000000000000550a95c76a929635e7836cbef401c378485f4422",
            "0x0000000000000000000000007ab945445958819a74b48e8bd5f9e39ed74bde9e"
          ],
          "data": "0x00000000000000000000000000000000000000000000000000000000000ef6c6",
          "blockHash": "0x4adf730b87cfa2a96b0d450f76e48c5df186e236c837dbd9b1d03f6f7767c13e",
          "blockNumber": "0x330852",
          "blockTimestamp": "0x67adf198",
          "transactionHash": "0xf74f01fe9d0ab2b80680f1363abe91b5d86f8556ae2a4dc889ad58537559d870",
          "transactionIndex": "0x1d",
          "logIndex": "0x3d",
          "removed": false
        },
        {
          "address": "0x550a95c76a929635e7836cbef401c378485f4422",
          "topics": [
            "0x48054139172b057097b1c514c1e58472e50cc4e9f779f0447d95c62b30403df8",
            "0x00000000000000000000000005b4d76a2d2810746983c111dba6daa65983191c",
            "0x0000000000000000000000008f6136b147b49bd6075e5ae60c8c946269fa79e3"
          ],
          "data": "0x000000000000000000000000bfccc3c7f739d4ae7ccf680b3fafcfb5bdc4f842000000000000000000000000e355d5d8aa52ef0fbbd037c4a3c5e6fd659cf46b00000000000000000000000000000000000000000000000000000001dcd6500000000000000000000000000000000000000000000000000000000001df2fdcf000000000000000000000000000000000000000000000000000000000000ef6c6",
          "blockHash": "0x4adf730b87cfa2a96b0d450f76e48c5df186e236c837dbd9b1d03f6f7767c13e",
          "blockNumber": "0x330852",
          "blockTimestamp": "0x67adf198",
          "transactionHash": "0xf74f01fe9d0ab2b80680f1363abe91b5d86f8556ae2a4dc889ad58537559d870",
          "transactionIndex": "0x1d",
          "logIndex": "0x3e",
          "removed": false
        },
        {
          "address": "0x05b4d76a2d2810746983c111dba6daa65983191c",
          "topics": [
            "0x8c5be1e5ebec7d5bd14f71427d1e84f3dd0314c0f7b2291e5b200ac8c7c3b925",
            "0x000000000000000000000000bfccc3c7f739d4ae7ccf680b3fafcfb5bdc4f842",
            "0x0000000000000000000000004a662249b6cf35a3af633116131ba2b5cc329687"
          ],
          "data": "0x000000000000000000000000000000000000000000000000000000001b55fd09",
          "blockHash": "0x4adf730b87cfa2a96b0d450f76e48c5df186e236c837dbd9b1d03f6f7767c13e",
          "blockNumber": "0x330852",
          "blockTimestamp": "0x67adf198",
          "transactionHash": "0xf74f01fe9d0ab2b80680f1363abe91b5d86f8556ae2a4dc889ad58537559d870",
          "transactionIndex": "0x1d",
          "logIndex": "0x3f",
          "removed": false
        },
        {
          "address": "0x05b4d76a2d2810746983c111dba6daa65983191c",
          "topics": [
            "0xddf252ad1be2c89b69c2b068fc378daa952ba7f163c4a11628f55a4df523b3ef",
            "0x000000000000000000000000bfccc3c7f739d4ae7ccf680b3fafcfb5bdc4f842",
            "0x000000000000000000000000d0586b5a5f97347c769983c404348346fe26f38e"
          ],
          "data": "0x000000000000000000000000000000000000000000000000000000001b55fd09",
          "blockHash": "0x4adf730b87cfa2a96b0d450f76e48c5df186e236c837dbd9b1d03f6f7767c13e",
          "blockNumber": "0x330852",
          "blockTimestamp": "0x67adf198",
          "transactionHash": "0xf74f01fe9d0ab2b80680f1363abe91b5d86f8556ae2a4dc889ad58537559d870",
          "transactionIndex": "0x1d",
          "logIndex": "0x40",
          "removed": false
        },
        {
          "address": "0x4a662249b6cf35a3af633116131ba2b5cc329687",
          "topics": [
            "0x1efbe429bb48635fd7ce810da2f114c950d5bbd6b891af243520cdb08ca9aa67",
            "0x0000000000000000000000000000000000000000000000000000000000000001"
          ],
          "data": "0x000000000000000000000000000000000000000000000000000000001b55fd090000000000000000000000000000000000000000000000000000000000000000",
          "blockHash": "0x4adf730b87cfa2a96b0d450f76e48c5df186e236c837dbd9b1d03f6f7767c13e",
          "blockNumber": "0x330852",
          "blockTimestamp": "0x67adf198",
          "transactionHash": "0xf74f01fe9d0ab2b80680f1363abe91b5d86f8556ae2a4dc889ad58537559d870",
          "transactionIndex": "0x1d",
          "logIndex": "0x41",
          "removed": false
        },
        {
          "address": "0x4a662249b6cf35a3af633116131ba2b5cc329687",
          "topics": [
            "0xddf252ad1be2c89b69c2b068fc378daa952ba7f163c4a11628f55a4df523b3ef",
            "0x000000000000000000000000bfccc3c7f739d4ae7ccf680b3fafcfb5bdc4f842",
            "0x000000000000000000000000e355d5d8aa52ef0fbbd037c4a3c5e6fd659cf46b",
            "0x0000000000000000000000000000000000000000000000000000000000000001"
          ],
          "data": "0x",
          "blockHash": "0x4adf730b87cfa2a96b0d450f76e48c5df186e236c837dbd9b1d03f6f7767c13e",
          "blockNumber": "0x330852",
          "blockTimestamp": "0x67adf198",
          "transactionHash": "0xf74f01fe9d0ab2b80680f1363abe91b5d86f8556ae2a4dc889ad58537559d870",
          "transactionIndex": "0x1d",
          "logIndex": "0x42",
          "removed": false
        },
        {
          "address": "0xbfccc3c7f739d4ae7ccf680b3fafcfb5bdc4f842",
          "topics": [
            "0xdc3efdf28701077a23ef0beb0f3260ca639658ce2676bbc9d83030fac6ce5612",
            "0x000000000000000000000000d0586b5a5f97347c769983c404348346fe26f38e",
            "0x0000000000000000000000000000000000000000000000000000000000000001"
          ],
          "data": "0x000000000000000000000000e355d5d8aa52ef0fbbd037c4a3c5e6fd659cf46b000000000000000000000000e355d5d8aa52ef0fbbd037c4a3c5e6fd659cf46b00000000000000000000000000000000000000000000028a857425466f80000000000000000000000000000000000000000000000000000000000001df4db7f700000000000000000000000000000000000000000000000000000001dcd65000",
          "blockHash": "0x4adf730b87cfa2a96b0d450f76e48c5df186e236c837dbd9b1d03f6f7767c13e",
          "blockNumber": "0x330852",
          "blockTimestamp": "0x67adf198",
          "transactionHash": "0xf74f01fe9d0ab2b80680f1363abe91b5d86f8556ae2a4dc889ad58537559d870",
          "transactionIndex": "0x1d",
          "logIndex": "0x43",
          "removed": false
        }
      ],
      "logsBloom": "0x40000000000010000000400000000100000000000000000000080000002000000008000800000000004008002000000000100000000100000000002000240000000000080000020040000008000000000080400000040000000000000000000000000004020001000000400008000800000000000000000800000010000000200000004004000000000020000000000200040002008000000020000002040000020000000010010000000000000010000004000038000200020000410000000000000002001000000000000000000000400000000000400010090000010060000010000000000020080000001000000000008002000000010000080000004000",
      "type": "0x2",
      "transactionHash": "0xf74f01fe9d0ab2b80680f1363abe91b5d86f8556ae2a4dc889ad58537559d870",
      "transactionIndex": "0x1d",
      "blockHash": "0x4adf730b87cfa2a96b0d450f76e48c5df186e236c837dbd9b1d03f6f7767c13e",
      "blockNumber": "0x330852",
      "gasUsed": "0xb0f95",
      "effectiveGasPrice": "0xf4250",
      "from": "0xe355d5d8aa52ef0fbbd037c4a3c5e6fd659cf46b",
      "to": "0xbfccc3c7f739d4ae7ccf680b3fafcfb5bdc4f842",
      "contractAddress": null
    },
    {
      "status": "0x1",
      "cumulativeGasUsed": "0x35d8a6",
      "logs": [
        {
          "address": "0x8a42d2b0e5fdfed3994d9661728d025d21ad682d",
          "topics": [
            "0x8c5be1e5ebec7d5bd14f71427d1e84f3dd0314c0f7b2291e5b200ac8c7c3b925",
            "0x000000000000000000000000e355d5d8aa52ef0fbbd037c4a3c5e6fd659cf46b",
            "0x0000000000000000000000004a662249b6cf35a3af633116131ba2b5cc329687"
          ],
          "data": "0x0000000000000000000000000000000000000000000000056bc75e2d63100000",
          "blockHash": "0x4adf730b87cfa2a96b0d450f76e48c5df186e236c837dbd9b1d03f6f7767c13e",
          "blockNumber": "0x330852",
          "blockTimestamp": "0x67adf198",
          "transactionHash": "0x2d798d825f20a171429212c41fa7c610db0baa98c2570a6251e4a166451e3744",
          "transactionIndex": "0x1e",
          "logIndex": "0x44",
          "removed": false
        }
      ],
      "logsBloom": "0x00000000000000000000000000000000000000000000000000000000002000000008000000000000000000000000000000000000000100000000000000200000000000000000000000000000000000000000400000000000000000000000000000000000000001000000000000000000000000000000000000000000000000000000000000000000000000000000000200000000000000000000000000000000020000000000000000000000000000000000000000000000000000000000000000000000000000000000000000000000400000000000000000000000000000000010000000000020000000000000000000000000000000000000000000004000",
      "type": "0x2",
      "transactionHash": "0x2d798d825f20a171429212c41fa7c610db0baa98c2570a6251e4a166451e3744",
      "transactionIndex": "0x1e",
      "blockHash": "0x4adf730b87cfa2a96b0d450f76e48c5df186e236c837dbd9b1d03f6f7767c13e",
      "blockNumber": "0x330852",
      "gasUsed": "0xb391",
      "effectiveGasPrice": "0xf4250",
      "from": "0xe355d5d8aa52ef0fbbd037c4a3c5e6fd659cf46b",
      "to": "0x8a42d2b0e5fdfed3994d9661728d025d21ad682d",
      "contractAddress": null
    },
    {
      "status": "0x1",
      "cumulativeGasUsed": "0x36ba46",
      "logs": [
        {
          "address": "0x8a42d2b0e5fdfed3994d9661728d025d21ad682d",
          "topics": [
            "0xddf252ad1be2c89b69c2b068fc378daa952ba7f163c4a11628f55a4df523b3ef",
            "0x000000000000000000000000e355d5d8aa52ef0fbbd037c4a3c5e6fd659cf46b",
            "0x0000000000000000000000004a662249b6cf35a3af633116131ba2b5cc329687"
          ],
          "data": "0x0000000000000000000000000000000000000000000000056bc75e2d63100000",
          "blockHash": "0x4adf730b87cfa2a96b0d450f76e48c5df186e236c837dbd9b1d03f6f7767c13e",
          "blockNumber": "0x330852",
          "blockTimestamp": "0x67adf198",
          "transactionHash": "0x5f430749a29558a582636cc83b1ccb1dd5a3d4235fca69b21657bb6f16c2925e",
          "transactionIndex": "0x1f",
          "logIndex": "0x45",
          "removed": false
        },
        {
          "address": "0x4a662249b6cf35a3af633116131ba2b5cc329687",
          "topics": [
            "0x7f37e862f2ec2cbe9b0823e61188ca52475f1f16f43051e4b812dbf3089f550f",
            "0x0000000000000000000000000000000000000000000000000000000000000001"
          ],
          "data": "0x0000000000000000000000000000000000000000000000000000000000000020000000000000000000000000000000000000000000000000000000000000002000000000000000000000000000000000000000000000028ff13b8373d2900000",
          "blockHash": "0x4adf730b87cfa2a96b0d450f76e48c5df186e236c837dbd9b1d03f6f7767c13e",
          "blockNumber": "0x330852",
          "blockTimestamp": "0x67adf198",
          "transactionHash": "0x5f430749a29558a582636cc83b1ccb1dd5a3d4235fca69b21657bb6f16c2925e",
          "transactionIndex": "0x1f",
          "logIndex": "0x46",
          "removed": false
        }
      ],
      "logsBloom": "0x00000000000000000000000000000000000000000000000000000000002000000008000000000000004000000000000000000000000100000000000000040000000000000000000000000008000000000000400000040000000000000000000000000004000001000000000000000000000000000000000000000010000000000000000000000000000000000000000200000000000000000000000000000000000000000000000000000000000000000000000000000000000000000000000000000002000000000000000000000000400000000000000100000000004040000000000000000020000000000000000000000000000000000000000000004000",
      "type": "0x2",
      "transactionHash": "0x5f430749a29558a582636cc83b1ccb1dd5a3d4235fca69b21657bb6f16c2925e",
      "transactionIndex": "0x1f",
      "blockHash": "0x4adf730b87cfa2a96b0d450f76e48c5df186e236c837dbd9b1d03f6f7767c13e",
      "blockNumber": "0x330852",
      "gasUsed": "0xe1a0",
      "effectiveGasPrice": "0xf4250",
      "from": "0xe355d5d8aa52ef0fbbd037c4a3c5e6fd659cf46b",
      "to": "0x4a662249b6cf35a3af633116131ba2b5cc329687",
      "contractAddress": null
    },
    {
      "status": "0x1",
      "cumulativeGasUsed": "0x38e7c5",
      "logs": [
        {
          "address": "0x8a42d2b0e5fdfed3994d9661728d025d21ad682d",
          "topics": [
            "0xddf252ad1be2c89b69c2b068fc378daa952ba7f163c4a11628f55a4df523b3ef",
            "0x0000000000000000000000004a662249b6cf35a3af633116131ba2b5cc329687",
            "0x000000000000000000000000e355d5d8aa52ef0fbbd037c4a3c5e6fd659cf46b"
          ],
          "data": "0x000000000000000000000000000000000000000000000002b5e3af16b1880000",
          "blockHash": "0x4adf730b87cfa2a96b0d450f76e48c5df186e236c837dbd9b1d03f6f7767c13e",
          "blockNumber": "0x330852",
          "blockTimestamp": "0x67adf198",
          "transactionHash": "0x085273bf3823306361de5b801c10be16ef51f928d4e44361a98b8c5956d57e78",
          "transactionIndex": "0x20",
          "logIndex": "0x47",
          "removed": false
        },
        {
          "address": "0x4a662249b6cf35a3af633116131ba2b5cc329687",
          "topics": [
            "0x3e7ef85cf4525ca474d34f21240567dc9e13acae18755ad3a51851dfa7b83407",
            "0x0000000000000000000000000000000000000000000000000000000000000001"
          ],
          "data": "0x0000000000000000000000000000000000000000000000000000000000000020000000000000000000000000000000000000000000000000000000000000002000000000000000000000000000000000000000000000028d3b57d45d21080000",
          "blockHash": "0x4adf730b87cfa2a96b0d450f76e48c5df186e236c837dbd9b1d03f6f7767c13e",
          "blockNumber": "0x330852",
          "blockTimestamp": "0x67adf198",
          "transactionHash": "0x085273bf3823306361de5b801c10be16ef51f928d4e44361a98b8c5956d57e78",
          "transactionIndex": "0x20",
          "logIndex": "0x48",
          "removed": false
        }
      ],
      "logsBloom": "0x00000000000000000000000020000000000000000000000000000000002000000008000000000000004000000000000000000000000100000000000000040000000000000000000000000008000000000000400000040000000000000000000000000004010001000000000000000000000000000000000000000010000000000000000000000000000000000000000200000000000000000000000000000000000000000000000000000000000000000000000000000000000000000000000000000002000000000000000000000000400000000000000000000000000040000000000000000020000000000000000000000000000000000000000000004000",
      "type": "0x2",
      "transactionHash": "0x085273bf3823306361de5b801c10be16ef51f928d4e44361a98b8c5956d57e78",
      "transactionIndex": "0x20",
      "blockHash": "0x4adf730b87cfa2a96b0d450f76e48c5df186e236c837dbd9b1d03f6f7767c13e",
      "blockNumber": "0x330852",
      "gasUsed": "0x22d7f",
      "effectiveGasPrice": "0xf4250",
      "from": "0xe355d5d8aa52ef0fbbd037c4a3c5e6fd659cf46b",
      "to": "0x4a662249b6cf35a3af633116131ba2b5cc329687",
      "contractAddress": null
    },
    {
      "status": "0x1",
      "cumulativeGasUsed": "0x399b26",
      "logs": [
        {
          "address": "0x8f6136b147b49bd6075e5ae60c8c946269fa79e3",
          "topics": [
            "0x8c5be1e5ebec7d5bd14f71427d1e84f3dd0314c0f7b2291e5b200ac8c7c3b925",
            "0x000000000000000000000000e355d5d8aa52ef0fbbd037c4a3c5e6fd659cf46b",
            "0x0000000000000000000000004a662249b6cf35a3af633116131ba2b5cc329687"
          ],
          "data": "0x000000000000000000000000000000000000000000000000000000001dcd6500",
          "blockHash": "0x4adf730b87cfa2a96b0d450f76e48c5df186e236c837dbd9b1d03f6f7767c13e",
          "blockNumber": "0x330852",
          "blockTimestamp": "0x67adf198",
          "transactionHash": "0x5570f9e74a885717d76fe43b91e3bd99a1a5cb306865d3877555f74a9d902efd",
          "transactionIndex": "0x21",
          "logIndex": "0x49",
          "removed": false
        }
      ],
      "logsBloom": "0x40000000000000000000000000000000000000000000000000000000000000000008000000000000000000000000000000000000000000000000000000200000000000000000000000000000000000000000000000000000000000000000000000000000000001000000000000000000000000000000000000000000000000000000000000000000000000000000000200000002000000000000000000000000020000000000000000000000000000000000000000000000000000000000000000000000000000000000000000000000400000000000000010000000000000000010000000000020000000000000000000000000000000000000000000004000",
      "type": "0x2",
      "transactionHash": "0x5570f9e74a885717d76fe43b91e3bd99a1a5cb306865d3877555f74a9d902efd",
      "transactionIndex": "0x21",
      "blockHash": "0x4adf730b87cfa2a96b0d450f76e48c5df186e236c837dbd9b1d03f6f7767c13e",
      "blockNumber": "0x330852",
      "gasUsed": "0xb361",
      "effectiveGasPrice": "0xf4250",
      "from": "0xe355d5d8aa52ef0fbbd037c4a3c5e6fd659cf46b",
      "to": "0x8f6136b147b49bd6075e5ae60c8c946269fa79e3",
      "contractAddress": null
    },
    {
      "status": "0x1",
      "cumulativeGasUsed": "0x3aa9a8",
      "logs": [
        {
          "address": "0x8f6136b147b49bd6075e5ae60c8c946269fa79e3",
          "topics": [
            "0xddf252ad1be2c89b69c2b068fc378daa952ba7f163c4a11628f55a4df523b3ef",
            "0x000000000000000000000000e355d5d8aa52ef0fbbd037c4a3c5e6fd659cf46b",
            "0x000000000000000000000000d0586b5a5f97347c769983c404348346fe26f38e"
          ],
          "data": "0x000000000000000000000000000000000000000000000000000000001dcd6500",
          "blockHash": "0x4adf730b87cfa2a96b0d450f76e48c5df186e236c837dbd9b1d03f6f7767c13e",
          "blockNumber": "0x330852",
          "blockTimestamp": "0x67adf198",
          "transactionHash": "0xf49592c6a922f4d17bfa4b755b4710d4971a66b253a2f5df91200b71d57e2c3b",
          "transactionIndex": "0x22",
          "logIndex": "0x4a",
          "removed": false
        },
        {
          "address": "0x4a662249b6cf35a3af633116131ba2b5cc329687",
          "topics": [
            "0x1efbe429bb48635fd7ce810da2f114c950d5bbd6b891af243520cdb08ca9aa67",
            "0x0000000000000000000000000000000000000000000000000000000000000001"
          ],
          "data": "0x000000000000000000000000000000000000000000000000000000001dcd65000000000000000000000000000000000000000000000000000000000000000001",
          "blockHash": "0x4adf730b87cfa2a96b0d450f76e48c5df186e236c837dbd9b1d03f6f7767c13e",
          "blockNumber": "0x330852",
          "blockTimestamp": "0x67adf198",
          "transactionHash": "0xf49592c6a922f4d17bfa4b755b4710d4971a66b253a2f5df91200b71d57e2c3b",
          "transactionIndex": "0x22",
          "logIndex": "0x4b",
          "removed": false
        }
      ],
      "logsBloom": "0x40000000000000000000000000000000000000000000000000000000000000000000000800000000004000000000000000000000000000000000000000040000000000000000000000000008000000000000000000040000000000000000000000000004000000000000000000000000000000000000000000000010000000000000000000000000000000000000000200000002008000000000000000000000000000000000000000000000000000000000000000000200000000000000000000000002000000000000000000000000000000000000400010000000000040000000000000000020080000000000000000008000000000000000000000004000",
      "type": "0x2",
      "transactionHash": "0xf49592c6a922f4d17bfa4b755b4710d4971a66b253a2f5df91200b71d57e2c3b",
      "transactionIndex": "0x22",
      "blockHash": "0x4adf730b87cfa2a96b0d450f76e48c5df186e236c837dbd9b1d03f6f7767c13e",
      "blockNumber": "0x330852",
      "gasUsed": "0x10e82",
      "effectiveGasPrice": "0xf4250",
      "from": "0xe355d5d8aa52ef0fbbd037c4a3c5e6fd659cf46b",
      "to": "0x4a662249b6cf35a3af633116131ba2b5cc329687",
      "contractAddress": null
    },
    {
      "status": "0x1",
      "cumulativeGasUsed": "0x3bef77",
      "logs": [
        {
          "address": "0x4a662249b6cf35a3af633116131ba2b5cc329687",
          "topics": [
            "0xddf252ad1be2c89b69c2b068fc378daa952ba7f163c4a11628f55a4df523b3ef",
            "0x000000000000000000000000e355d5d8aa52ef0fbbd037c4a3c5e6fd659cf46b",
            "0x000000000000000000000000e5162d862fee80815d055ac04a2191c317c4ded4",
            "0x0000000000000000000000000000000000000000000000000000000000000001"
          ],
          "data": "0x",
          "blockHash": "0x4adf730b87cfa2a96b0d450f76e48c5df186e236c837dbd9b1d03f6f7767c13e",
          "blockNumber": "0x330852",
          "blockTimestamp": "0x67adf198",
          "transactionHash": "0x4738e2842d791dc676b48560f1e50d2b841240d00ed16667cd85d94c2ee05fd7",
          "transactionIndex": "0x23",
          "logIndex": "0x4c",
          "removed": false
        }
      ],
      "logsBloom": "0x00000000000000000000000000000000000000000000000000000000000000000000000000000000004000000000000000000000000000000000000000040000000000000000000000000008000000000000000000040000000000000000000000000004000000000000000000000000000000000000001000000010000000000000000000000000000000000000000200000000000000000000000000000000000000000000000000000000000000000000000000000000000000000000000000000002000000200000000000000000000000000000000000000000000040000000004000000020000000000000000000000000000000000000000000004000",
      "type": "0x2",
      "transactionHash": "0x4738e2842d791dc676b48560f1e50d2b841240d00ed16667cd85d94c2ee05fd7",
      "transactionIndex": "0x23",
      "blockHash": "0x4adf730b87cfa2a96b0d450f76e48c5df186e236c837dbd9b1d03f6f7767c13e",
      "blockNumber": "0x330852",
      "gasUsed": "0x145cf",
      "effectiveGasPrice": "0xf4250",
      "from": "0xe355d5d8aa52ef0fbbd037c4a3c5e6fd659cf46b",
      "to": "0x4a662249b6cf35a3af633116131ba2b5cc329687",
      "contractAddress": null
    },
    {
      "status": "0x1",
      "cumulativeGasUsed": "0x3ca2e4",
      "logs": [
        {
          "address": "0x8f6136b147b49bd6075e5ae60c8c946269fa79e3",
          "topics": [
            "0x8c5be1e5ebec7d5bd14f71427d1e84f3dd0314c0f7b2291e5b200ac8c7c3b925",
            "0x000000000000000000000000e355d5d8aa52ef0fbbd037c4a3c5e6fd659cf46b",
            "0x000000000000000000000000bfccc3c7f739d4ae7ccf680b3fafcfb5bdc4f842"
          ],
          "data": "0x00000000000000000000000000000000000000000000000000000004a854d100",
          "blockHash": "0x4adf730b87cfa2a96b0d450f76e48c5df186e236c837dbd9b1d03f6f7767c13e",
          "blockNumber": "0x330852",
          "blockTimestamp": "0x67adf198",
          "transactionHash": "0x5bd7492f34bb946dcc3c558f693dfad1e21e1855f025679cd2e77b4395e76262",
          "transactionIndex": "0x24",
          "logIndex": "0x4d",
          "removed": false
        }
      ],
      "logsBloom": "0x40000000000000000000000000000000000000000000000000000000000000000000000000000000000000000000000000000000000000000000000000200000000000000000000000000000000000000000000000000000000000000000000000000000000000000000000000000000000000000000000000000000000000000000000004000000000000000000000200000002000000000000000002000000020000000000000000000000000000000000000000000000000000000000000000000000000000000000000000000000000000000000000010000000000000000010000000000020000000000000000000000002000000000000000000004000",
      "type": "0x2",
      "transactionHash": "0x5bd7492f34bb946dcc3c558f693dfad1e21e1855f025679cd2e77b4395e76262",
      "transactionIndex": "0x24",
      "blockHash": "0x4adf730b87cfa2a96b0d450f76e48c5df186e236c837dbd9b1d03f6f7767c13e",
      "blockNumber": "0x330852",
      "gasUsed": "0xb36d",
      "effectiveGasPrice": "0xf4250",
      "from": "0xe355d5d8aa52ef0fbbd037c4a3c5e6fd659cf46b",
      "to": "0x8f6136b147b49bd6075e5ae60c8c946269fa79e3",
      "contractAddress": null
    },
    {
      "status": "0x1",
      "cumulativeGasUsed": "0x46a78b",
      "logs": [
        {
          "address": "0x8f6136b147b49bd6075e5ae60c8c946269fa79e3",
          "topics": [
            "0xddf252ad1be2c89b69c2b068fc378daa952ba7f163c4a11628f55a4df523b3ef",
            "0x000000000000000000000000e355d5d8aa52ef0fbbd037c4a3c5e6fd659cf46b",
            "0x000000000000000000000000bfccc3c7f739d4ae7ccf680b3fafcfb5bdc4f842"
          ],
          "data": "0x00000000000000000000000000000000000000000000000000000004a854d100",
          "blockHash": "0x4adf730b87cfa2a96b0d450f76e48c5df186e236c837dbd9b1d03f6f7767c13e",
          "blockNumber": "0x330852",
          "blockTimestamp": "0x67adf198",
          "transactionHash": "0xffbb96dc0cd0319f7dd9ef216a5af8c1e643c32ed1474eecf15ffd176d8d6435",
          "transactionIndex": "0x25",
          "logIndex": "0x4e",
          "removed": false
        },
        {
          "address": "0x8f6136b147b49bd6075e5ae60c8c946269fa79e3",
          "topics": [
            "0x8c5be1e5ebec7d5bd14f71427d1e84f3dd0314c0f7b2291e5b200ac8c7c3b925",
            "0x000000000000000000000000bfccc3c7f739d4ae7ccf680b3fafcfb5bdc4f842",
            "0x000000000000000000000000550a95c76a929635e7836cbef401c378485f4422"
          ],
          "data": "0x00000000000000000000000000000000000000000000000000000000003d0900",
          "blockHash": "0x4adf730b87cfa2a96b0d450f76e48c5df186e236c837dbd9b1d03f6f7767c13e",
          "blockNumber": "0x330852",
          "blockTimestamp": "0x67adf198",
          "transactionHash": "0xffbb96dc0cd0319f7dd9ef216a5af8c1e643c32ed1474eecf15ffd176d8d6435",
          "transactionIndex": "0x25",
          "logIndex": "0x4f",
          "removed": false
        },
        {
          "address": "0x8f6136b147b49bd6075e5ae60c8c946269fa79e3",
          "topics": [
            "0xddf252ad1be2c89b69c2b068fc378daa952ba7f163c4a11628f55a4df523b3ef",
            "0x000000000000000000000000bfccc3c7f739d4ae7ccf680b3fafcfb5bdc4f842",
            "0x000000000000000000000000550a95c76a929635e7836cbef401c378485f4422"
          ],
          "data": "0x00000000000000000000000000000000000000000000000000000000003d0900",
          "blockHash": "0x4adf730b87cfa2a96b0d450f76e48c5df186e236c837dbd9b1d03f6f7767c13e",
          "blockNumber": "0x330852",
          "blockTimestamp": "0x67adf198",
          "transactionHash": "0xffbb96dc0cd0319f7dd9ef216a5af8c1e643c32ed1474eecf15ffd176d8d6435",
          "transactionIndex": "0x25",
          "logIndex": "0x50",
          "removed": false
        },
        {
          "address": "0x8f6136b147b49bd6075e5ae60c8c946269fa79e3",
          "topics": [
            "0x8c5be1e5ebec7d5bd14f71427d1e84f3dd0314c0f7b2291e5b200ac8c7c3b925",
            "0x000000000000000000000000550a95c76a929635e7836cbef401c378485f4422",
            "0x000000000000000000000000d0586b5a5f97347c769983c404348346fe26f38e"
          ],
          "data": "0x00000000000000000000000000000000000000000000000000000000003d0900",
          "blockHash": "0x4adf730b87cfa2a96b0d450f76e48c5df186e236c837dbd9b1d03f6f7767c13e",
          "blockNumber": "0x330852",
          "blockTimestamp": "0x67adf198",
          "transactionHash": "0xffbb96dc0cd0319f7dd9ef216a5af8c1e643c32ed1474eecf15ffd176d8d6435",
          "transactionIndex": "0x25",
          "logIndex": "0x51",
          "removed": false
        },
        {
          "address": "0x8f6136b147b49bd6075e5ae60c8c946269fa79e3",
          "topics": [
            "0xddf252ad1be2c89b69c2b068fc378daa952ba7f163c4a11628f55a4df523b3ef",
            "0x000000000000000000000000550a95c76a929635e7836cbef401c378485f4422",
            "0x000000000000000000000000d0586b5a5f97347c769983c404348346fe26f38e"
          ],
          "data": "0x00000000000000000000000000000000000000000000000000000000003d0900",
          "blockHash": "0x4adf730b87cfa2a96b0d450f76e48c5df186e236c837dbd9b1d03f6f7767c13e",
          "blockNumber": "0x330852",
          "blockTimestamp": "0x67adf198",
          "transactionHash": "0xffbb96dc0cd0319f7dd9ef216a5af8c1e643c32ed1474eecf15ffd176d8d6435",
          "transactionIndex": "0x25",
          "logIndex": "0x52",
          "removed": false
        },
        {
          "address": "0x05b4d76a2d2810746983c111dba6daa65983191c",
          "topics": [
            "0xddf252ad1be2c89b69c2b068fc378daa952ba7f163c4a11628f55a4df523b3ef",
            "0x0000000000000000000000000000000000000000000000000000000000000000",
            "0x000000000000000000000000550a95c76a929635e7836cbef401c378485f4422"
          ],
          "data": "0x00000000000000000000000000000000000000000000000000000000003d0900",
          "blockHash": "0x4adf730b87cfa2a96b0d450f76e48c5df186e236c837dbd9b1d03f6f7767c13e",
          "blockNumber": "0x330852",
          "blockTimestamp": "0x67adf198",
          "transactionHash": "0xffbb96dc0cd0319f7dd9ef216a5af8c1e643c32ed1474eecf15ffd176d8d6435",
          "transactionIndex": "0x25",
          "logIndex": "0x53",
          "removed": false
        },
        {
          "address": "0xfa60176aa0161128cf3d145b05827ec250fce281",
          "topics": [
            "0xddf252ad1be2c89b69c2b068fc378daa952ba7f163c4a11628f55a4df523b3ef",
            "0x0000000000000000000000000000000000000000000000000000000000000000",
            "0x000000000000000000000000550a95c76a929635e7836cbef401c378485f4422"
          ],
          "data": "0x00000000000000000000000000000000000000000000000000000000003d0900",
          "blockHash": "0x4adf730b87cfa2a96b0d450f76e48c5df186e236c837dbd9b1d03f6f7767c13e",
          "blockNumber": "0x330852",
          "blockTimestamp": "0x67adf198",
          "transactionHash": "0xffbb96dc0cd0319f7dd9ef216a5af8c1e643c32ed1474eecf15ffd176d8d6435",
          "transactionIndex": "0x25",
          "logIndex": "0x54",
          "removed": false
        },
        {
          "address": "0xd0586b5a5f97347c769983c404348346fe26f38e",
          "topics": [
            "0xab8530f87dc9b59234c4623bf917212bb2536d647574c8e7e5da92c2ede0c9f8",
            "0x000000000000000000000000550a95c76a929635e7836cbef401c378485f4422",
            "0x000000000000000000000000550a95c76a929635e7836cbef401c378485f4422"
          ],
          "data": "0x00000000000000000000000000000000000000000000000000000000003d0900",
          "blockHash": "0x4adf730b87cfa2a96b0d450f76e48c5df186e236c837dbd9b1d03f6f7767c13e",
          "blockNumber": "0x330852",
          "blockTimestamp": "0x67adf198",
          "transactionHash": "0xffbb96dc0cd0319f7dd9ef216a5af8c1e643c32ed1474eecf15ffd176d8d6435",
          "transactionIndex": "0x25",
          "logIndex": "0x55",
          "removed": false
        },
        {
          "address": "0xfa60176aa0161128cf3d145b05827ec250fce281",
          "topics": [
            "0xddf252ad1be2c89b69c2b068fc378daa952ba7f163c4a11628f55a4df523b3ef",
            "0x000000000000000000000000550a95c76a929635e7836cbef401c378485f4422",
            "0x000000000000000000000000bfccc3c7f739d4ae7ccf680b3fafcfb5bdc4f842"
          ],
          "data": "0x000000000000000000000000000000000000000000000000000000002e0a9fa3",
          "blockHash": "0x4adf730b87cfa2a96b0d450f76e48c5df186e236c837dbd9b1d03f6f7767c13e",
          "blockNumber": "0x330852",
          "blockTimestamp": "0x67adf198",
          "transactionHash": "0xffbb96dc0cd0319f7dd9ef216a5af8c1e643c32ed1474eecf15ffd176d8d6435",
          "transactionIndex": "0x25",
          "logIndex": "0x56",
          "removed": false
        },
        {
          "address": "0x05b4d76a2d2810746983c111dba6daa65983191c",
          "topics": [
            "0xddf252ad1be2c89b69c2b068fc378daa952ba7f163c4a11628f55a4df523b3ef",
            "0x000000000000000000000000550a95c76a929635e7836cbef401c378485f4422",
            "0x0000000000000000000000007ab945445958819a74b48e8bd5f9e39ed74bde9e"
          ],
          "data": "0x00000000000000000000000000000000000000000000000000000000000184af",
          "blockHash": "0x4adf730b87cfa2a96b0d450f76e48c5df186e236c837dbd9b1d03f6f7767c13e",
          "blockNumber": "0x330852",
          "blockTimestamp": "0x67adf198",
          "transactionHash": "0xffbb96dc0cd0319f7dd9ef216a5af8c1e643c32ed1474eecf15ffd176d8d6435",
          "transactionIndex": "0x25",
          "logIndex": "0x57",
          "removed": false
        },
        {
          "address": "0x550a95c76a929635e7836cbef401c378485f4422",
          "topics": [
            "0xafc472950ba0847ac0541a7d71ad9977d695e4dba0cc223dba88d5fa8609732a",
            "0x0000000000000000000000008f6136b147b49bd6075e5ae60c8c946269fa79e3",
            "0x000000000000000000000000fa60176aa0161128cf3d145b05827ec250fce281"
          ],
          "data": "0x000000000000000000000000bfccc3c7f739d4ae7ccf680b3fafcfb5bdc4f842000000000000000000000000bfccc3c7f739d4ae7ccf680b3fafcfb5bdc4f84200000000000000000000000000000000000000000000000000000000003d0900000000000000000000000000000000000000000000000000000000002e0a9fa300000000000000000000000000000000000000000000000000000000000184af",
          "blockHash": "0x4adf730b87cfa2a96b0d450f76e48c5df186e236c837dbd9b1d03f6f7767c13e",
          "blockNumber": "0x330852",
          "blockTimestamp": "0x67adf198",
          "transactionHash": "0xffbb96dc0cd0319f7dd9ef216a5af8c1e643c32ed1474eecf15ffd176d8d6435",
          "transactionIndex": "0x25",
          "logIndex": "0x58",
          "removed": false
        },
        {
          "address": "0xfa60176aa0161128cf3d145b05827ec250fce281",
          "topics": [
            "0x8c5be1e5ebec7d5bd14f71427d1e84f3dd0314c0f7b2291e5b200ac8c7c3b925",
            "0x000000000000000000000000bfccc3c7f739d4ae7ccf680b3fafcfb5bdc4f842",
            "0x000000000000000000000000d0586b5a5f97347c769983c404348346fe26f38e"
          ],
          "data": "0x000000000000000000000000000000000000000000000000000000002e0a9fa3",
          "blockHash": "0x4adf730b87cfa2a96b0d450f76e48c5df186e236c837dbd9b1d03f6f7767c13e",
          "blockNumber": "0x330852",
          "blockTimestamp": "0x67adf198",
          "transactionHash": "0xffbb96dc0cd0319f7dd9ef216a5af8c1e643c32ed1474eecf15ffd176d8d6435",
          "transactionIndex": "0x25",
          "logIndex": "0x59",
          "removed": false
        },
        {
          "address": "0xfa60176aa0161128cf3d145b05827ec250fce281",
          "topics": [
            "0xddf252ad1be2c89b69c2b068fc378daa952ba7f163c4a11628f55a4df523b3ef",
            "0x000000000000000000000000bfccc3c7f739d4ae7ccf680b3fafcfb5bdc4f842",
            "0x000000000000000000000000d0586b5a5f97347c769983c404348346fe26f38e"
          ],
          "data": "0x000000000000000000000000000000000000000000000000000000002e0a9fa3",
          "blockHash": "0x4adf730b87cfa2a96b0d450f76e48c5df186e236c837dbd9b1d03f6f7767c13e",
          "blockNumber": "0x330852",
          "blockTimestamp": "0x67adf198",
          "transactionHash": "0xffbb96dc0cd0319f7dd9ef216a5af8c1e643c32ed1474eecf15ffd176d8d6435",
          "transactionIndex": "0x25",
          "logIndex": "0x5a",
          "removed": false
        },
        {
          "address": "0x8f6136b147b49bd6075e5ae60c8c946269fa79e3",
          "topics": [
            "0xddf252ad1be2c89b69c2b068fc378daa952ba7f163c4a11628f55a4df523b3ef",
            "0x000000000000000000000000d0586b5a5f97347c769983c404348346fe26f38e",
            "0x000000000000000000000000bfccc3c7f739d4ae7ccf680b3fafcfb5bdc4f842"
          ],
          "data": "0x000000000000000000000000000000000000000000000000000000002e0a9fa3",
          "blockHash": "0x4adf730b87cfa2a96b0d450f76e48c5df186e236c837dbd9b1d03f6f7767c13e",
          "blockNumber": "0x330852",
          "blockTimestamp": "0x67adf198",
          "transactionHash": "0xffbb96dc0cd0319f7dd9ef216a5af8c1e643c32ed1474eecf15ffd176d8d6435",
          "transactionIndex": "0x25",
          "logIndex": "0x5b",
          "removed": false
        },
        {
          "address": "0x8f6136b147b49bd6075e5ae60c8c946269fa79e3",
          "topics": [
            "0xddf252ad1be2c89b69c2b068fc378daa952ba7f163c4a11628f55a4df523b3ef",
            "0x000000000000000000000000bfccc3c7f739d4ae7ccf680b3fafcfb5bdc4f842",
            "0x000000000000000000000000e355d5d8aa52ef0fbbd037c4a3c5e6fd659cf46b"
          ],
          "data": "0x00000000000000000000000000000000000000000000000000000004d62267a3",
          "blockHash": "0x4adf730b87cfa2a96b0d450f76e48c5df186e236c837dbd9b1d03f6f7767c13e",
          "blockNumber": "0x330852",
          "blockTimestamp": "0x67adf198",
          "transactionHash": "0xffbb96dc0cd0319f7dd9ef216a5af8c1e643c32ed1474eecf15ffd176d8d6435",
          "transactionIndex": "0x25",
          "logIndex": "0x5c",
          "removed": false
        },
        {
          "address": "0x8a42d2b0e5fdfed3994d9661728d025d21ad682d",
          "topics": [
            "0xddf252ad1be2c89b69c2b068fc378daa952ba7f163c4a11628f55a4df523b3ef",
            "0x0000000000000000000000000000000000000000000000000000000000000000",
            "0x000000000000000000000000bfccc3c7f739d4ae7ccf680b3fafcfb5bdc4f842"
          ],
          "data": "0x0000000000000000000000000000000000000000000004c7ff12e1a1c07edb21",
          "blockHash": "0x4adf730b87cfa2a96b0d450f76e48c5df186e236c837dbd9b1d03f6f7767c13e",
          "blockNumber": "0x330852",
          "blockTimestamp": "0x67adf198",
          "transactionHash": "0xffbb96dc0cd0319f7dd9ef216a5af8c1e643c32ed1474eecf15ffd176d8d6435",
          "transactionIndex": "0x25",
          "logIndex": "0x5d",
          "removed": false
        },
        {
          "address": "0x8a42d2b0e5fdfed3994d9661728d025d21ad682d",
          "topics": [
            "0x8c5be1e5ebec7d5bd14f71427d1e84f3dd0314c0f7b2291e5b200ac8c7c3b925",
            "0x000000000000000000000000bfccc3c7f739d4ae7ccf680b3fafcfb5bdc4f842",
            "0x0000000000000000000000004a662249b6cf35a3af633116131ba2b5cc329687"
          ],
          "data": "0x0000000000000000000000000000000000000000000004c7ff12e1a1c07edb21",
          "blockHash": "0x4adf730b87cfa2a96b0d450f76e48c5df186e236c837dbd9b1d03f6f7767c13e",
          "blockNumber": "0x330852",
          "blockTimestamp": "0x67adf198",
          "transactionHash": "0xffbb96dc0cd0319f7dd9ef216a5af8c1e643c32ed1474eecf15ffd176d8d6435",
          "transactionIndex": "0x25",
          "logIndex": "0x5e",
          "removed": false
        },
        {
          "address": "0x8a42d2b0e5fdfed3994d9661728d025d21ad682d",
          "topics": [
            "0xddf252ad1be2c89b69c2b068fc378daa952ba7f163c4a11628f55a4df523b3ef",
            "0x000000000000000000000000bfccc3c7f739d4ae7ccf680b3fafcfb5bdc4f842",
            "0x0000000000000000000000004a662249b6cf35a3af633116131ba2b5cc329687"
          ],
          "data": "0x0000000000000000000000000000000000000000000004c7ff12e1a1c07edb21",
          "blockHash": "0x4adf730b87cfa2a96b0d450f76e48c5df186e236c837dbd9b1d03f6f7767c13e",
          "blockNumber": "0x330852",
          "blockTimestamp": "0x67adf198",
          "transactionHash": "0xffbb96dc0cd0319f7dd9ef216a5af8c1e643c32ed1474eecf15ffd176d8d6435",
          "transactionIndex": "0x25",
          "logIndex": "0x5f",
          "removed": false
        },
        {
          "address": "0x4a662249b6cf35a3af633116131ba2b5cc329687",
          "topics": [
            "0xddf252ad1be2c89b69c2b068fc378daa952ba7f163c4a11628f55a4df523b3ef",
            "0x0000000000000000000000000000000000000000000000000000000000000000",
            "0x000000000000000000000000e355d5d8aa52ef0fbbd037c4a3c5e6fd659cf46b",
            "0x0000000000000000000000000000000000000000000000000000000000000002"
          ],
          "data": "0x",
          "blockHash": "0x4adf730b87cfa2a96b0d450f76e48c5df186e236c837dbd9b1d03f6f7767c13e",
          "blockNumber": "0x330852",
          "blockTimestamp": "0x67adf198",
          "transactionHash": "0xffbb96dc0cd0319f7dd9ef216a5af8c1e643c32ed1474eecf15ffd176d8d6435",
          "transactionIndex": "0x25",
          "logIndex": "0x60",
          "removed": false
        },
        {
          "address": "0xfa60176aa0161128cf3d145b05827ec250fce281",
          "topics": [
            "0xddf252ad1be2c89b69c2b068fc378daa952ba7f163c4a11628f55a4df523b3ef",
            "0x000000000000000000000000d0586b5a5f97347c769983c404348346fe26f38e",
            "0x0000000000000000000000000000000000000000000000000000000000000000"
          ],
          "data": "0x000000000000000000000000000000000000000000000000000000002e0a9fa3",
          "blockHash": "0x4adf730b87cfa2a96b0d450f76e48c5df186e236c837dbd9b1d03f6f7767c13e",
          "blockNumber": "0x330852",
          "blockTimestamp": "0x67adf198",
          "transactionHash": "0xffbb96dc0cd0319f7dd9ef216a5af8c1e643c32ed1474eecf15ffd176d8d6435",
          "transactionIndex": "0x25",
          "logIndex": "0x61",
          "removed": false
        },
        {
          "address": "0xd0586b5a5f97347c769983c404348346fe26f38e",
          "topics": [
            "0x4251709b90c9773e824a607f0c0745f9e4cc7080748151668f30d708cd3a04e6",
            "0x000000000000000000000000bfccc3c7f739d4ae7ccf680b3fafcfb5bdc4f842",
            "0x000000000000000000000000e355d5d8aa52ef0fbbd037c4a3c5e6fd659cf46b",
            "0x0000000000000000000000000000000000000000000000000000000000000002"
          ],
          "data": "0x000000000000000000000000000000000000000000000000000000002e0a9fa3000000000000000000000000000000000000000000000000000000000000004000000000000000000000000000000000000000000000000000000000000000200000000000000000000000000000000000000000000004c7ff12e1a1c07edb21",
          "blockHash": "0x4adf730b87cfa2a96b0d450f76e48c5df186e236c837dbd9b1d03f6f7767c13e",
          "blockNumber": "0x330852",
          "blockTimestamp": "0x67adf198",
          "transactionHash": "0xffbb96dc0cd0319f7dd9ef216a5af8c1e643c32ed1474eecf15ffd176d8d6435",
          "transactionIndex": "0x25",
          "logIndex": "0x62",
          "removed": false
        },
        {
          "address": "0xbfccc3c7f739d4ae7ccf680b3fafcfb5bdc4f842",
          "topics": [
            "0x6cc7689f3960393f975bc636577345ee34fd6fd0b516b15c923e7885e518b098",
            "0x000000000000000000000000d0586b5a5f97347c769983c404348346fe26f38e",
            "0x0000000000000000000000000000000000000000000000000000000000000002"
          ],
          "data": "0x000000000000000000000000e355d5d8aa52ef0fbbd037c4a3c5e6fd659cf46b000000000000000000000000e355d5d8aa52ef0fbbd037c4a3c5e6fd659cf46b00000000000000000000000000000000000000000000000000000004a817c800000000000000000000000000000000000000000000000000000000002e0a9fa3000000000000000000000000000000000000000000000000000000000038bdda00000000000000000000000000000000000000000000000000000000000000c000000000000000000000000000000000000000000000000000000000000000200000000000000000000000000000000000000000000004c7ff12e1a1c07edb21",
          "blockHash": "0x4adf730b87cfa2a96b0d450f76e48c5df186e236c837dbd9b1d03f6f7767c13e",
          "blockNumber": "0x330852",
          "blockTimestamp": "0x67adf198",
          "transactionHash": "0xffbb96dc0cd0319f7dd9ef216a5af8c1e643c32ed1474eecf15ffd176d8d6435",
          "transactionIndex": "0x25",
          "logIndex": "0x63",
          "removed": false
        }
      ],
      "logsBloom": "0x46000000000000000000500000000000100000000000000000000100402000000008000800000000004008002000000000100000000100000000002000200000000000080000000040000008000000000000400000000000000001000020000000020044020001000000000008000800000000000000000000000010000000000000004004000000000000000000400200040002000000000000000002040000020000200010010000000100000000000004000038000200000000410000000000000002000000000000000000000000410000000000000010080000010020000010000000000020080000001000000000000002008840010000000000004000",
      "type": "0x2",
      "transactionHash": "0xffbb96dc0cd0319f7dd9ef216a5af8c1e643c32ed1474eecf15ffd176d8d6435",
      "transactionIndex": "0x25",
      "blockHash": "0x4adf730b87cfa2a96b0d450f76e48c5df186e236c837dbd9b1d03f6f7767c13e",
      "blockNumber": "0x330852",
      "gasUsed": "0xa04a7",
      "effectiveGasPrice": "0xf4250",
      "from": "0xe355d5d8aa52ef0fbbd037c4a3c5e6fd659cf46b",
      "to": "0xbfccc3c7f739d4ae7ccf680b3fafcfb5bdc4f842",
      "contractAddress": null
    }
  ],
  "libraries": [],
  "pending": [],
  "returns": {},
  "timestamp": 1739452830,
  "chain": 17000,
  "commit": "ffaadb8"
}