{
  "transactions": [
    {
      "hash": "0xe8a0f51610bc47303cc5385631c592a9212ac57ff07a75897be31cb4ad70c166",
      "transactionType": "CALL",
      "contractName": null,
      "contractAddress": "0x5ada709210846da33e3866490eafb90b7ea96f7f",
      "function": "devMint(address,address,uint256)",
      "arguments": [
        "0xE355d5D8aa52EF0FbbD037C4a3C5E6Fd659cf46B",
        "0x9445Ba66bBDd3Cdd48f9077536a05292f2C6D253",
        "100000000000"
      ],
      "transaction": {
        "from": "0xe355d5d8aa52ef0fbbd037c4a3c5e6fd659cf46b",
        "to": "0x5ada709210846da33e3866490eafb90b7ea96f7f",
        "gas": "0xe2ed",
        "value": "0x0",
        "input": "0x40ddd06e000000000000000000000000e355d5d8aa52ef0fbbd037c4a3c5e6fd659cf46b0000000000000000000000009445ba66bbdd3cdd48f9077536a05292f2c6d253000000000000000000000000000000000000000000000000000000174876e800",
        "nonce": "0x2c8",
        "chainId": "0x4268"
      },
      "additionalContracts": [],
      "isFixedGasLimit": false
    },
    {
      "hash": "0x2b7d68f818dc8eeb8ca8d4c4514f5abe0bb0d8376770e8f45568087efbc6c2b4",
      "transactionType": "CALL",
      "contractName": null,
      "contractAddress": "0x9445ba66bbdd3cdd48f9077536a05292f2c6d253",
      "function": "approve(address,uint256)",
      "arguments": [
        "0x645ef85B26A8eE16D4858725045900ACAb7DE005",
        "100000000000"
      ],
      "transaction": {
        "from": "0xe355d5d8aa52ef0fbbd037c4a3c5e6fd659cf46b",
        "to": "0x9445ba66bbdd3cdd48f9077536a05292f2c6d253",
        "gas": "0x10657",
        "value": "0x0",
        "input": "0x095ea7b3000000000000000000000000645ef85b26a8ee16d4858725045900acab7de005000000000000000000000000000000000000000000000000000000174876e800",
        "nonce": "0x2c9",
        "chainId": "0x4268"
      },
      "additionalContracts": [],
      "isFixedGasLimit": false
    },
    {
      "hash": "0x40ad18cba8015ffde8ae23e74bc7bcc58e03447e5d3d78034f3024fdaefaded8",
      "transactionType": "CALL",
      "contractName": null,
      "contractAddress": "0x645ef85b26a8ee16d4858725045900acab7de005",
      "function": "mint(address,uint256)",
      "arguments": [
        "0x031FEcF98032Ab1B2601B32cD9487B1AaBAE573C",
        "100000000000"
      ],
      "transaction": {
        "from": "0xe355d5d8aa52ef0fbbd037c4a3c5e6fd659cf46b",
        "to": "0x645ef85b26a8ee16d4858725045900acab7de005",
        "gas": "0x1edeb",
        "value": "0x0",
        "input": "0x40c10f19000000000000000000000000031fecf98032ab1b2601b32cd9487b1aabae573c000000000000000000000000000000000000000000000000000000174876e800",
        "nonce": "0x2ca",
        "chainId": "0x4268"
      },
      "additionalContracts": [],
      "isFixedGasLimit": false
    },
    {
      "hash": "0x671dbdd66333ee98a7e324636f7f1a0adcb5046c0d1c19be688a482a4e73ab10",
      "transactionType": "CALL",
      "contractName": null,
      "contractAddress": "0x5ada709210846da33e3866490eafb90b7ea96f7f",
      "function": "devMint(address,address,uint256)",
      "arguments": [
        "0xE355d5D8aa52EF0FbbD037C4a3C5E6Fd659cf46B",
        "0x9445Ba66bBDd3Cdd48f9077536a05292f2C6D253",
        "1000000000"
      ],
      "transaction": {
        "from": "0xe355d5d8aa52ef0fbbd037c4a3c5e6fd659cf46b",
        "to": "0x5ada709210846da33e3866490eafb90b7ea96f7f",
        "gas": "0xd640",
        "value": "0x0",
        "input": "0x40ddd06e000000000000000000000000e355d5d8aa52ef0fbbd037c4a3c5e6fd659cf46b0000000000000000000000009445ba66bbdd3cdd48f9077536a05292f2c6d253000000000000000000000000000000000000000000000000000000003b9aca00",
        "nonce": "0x2cb",
        "chainId": "0x4268"
      },
      "additionalContracts": [],
      "isFixedGasLimit": false
    },
    {
      "hash": "0xf445fe4861d08d208319d2d4deba9828d80f2b8b80293cacb46b614f8e4c822f",
      "transactionType": "CALL",
      "contractName": null,
      "contractAddress": "0x9445ba66bbdd3cdd48f9077536a05292f2c6d253",
      "function": "approve(address,uint256)",
      "arguments": [
        "0x031FEcF98032Ab1B2601B32cD9487B1AaBAE573C",
        "1000000000"
      ],
      "transaction": {
        "from": "0xe355d5d8aa52ef0fbbd037c4a3c5e6fd659cf46b",
        "to": "0x9445ba66bbdd3cdd48f9077536a05292f2c6d253",
        "gas": "0x10657",
        "value": "0x0",
        "input": "0x095ea7b3000000000000000000000000031fecf98032ab1b2601b32cd9487b1aabae573c000000000000000000000000000000000000000000000000000000003b9aca00",
        "nonce": "0x2cc",
        "chainId": "0x4268"
      },
      "additionalContracts": [],
      "isFixedGasLimit": false
    },
    {
      "hash": "0xa4ea938c519c17b8edd67d2c86714a62c3953faa347cc3e3b75dacb19856f542",
      "transactionType": "CALL",
      "contractName": null,
      "contractAddress": "0x031fecf98032ab1b2601b32cd9487b1aabae573c",
      "function": "swapExactTokenToToken(address,address,address,uint128,uint128)",
      "arguments": [
        "0x9445Ba66bBDd3Cdd48f9077536a05292f2C6D253",
        "0xaAf7c47b8f06d2532EecA6Cb4D89bf1487808D33",
        "0xE355d5D8aa52EF0FbbD037C4a3C5E6Fd659cf46B",
        "1000000000",
        "0"
      ],
      "transaction": {
        "from": "0xe355d5d8aa52ef0fbbd037c4a3c5e6fd659cf46b",
        "to": "0x031fecf98032ab1b2601b32cd9487b1aabae573c",
        "gas": "0x50f49",
        "value": "0x0",
        "input": "0x5d26439a0000000000000000000000009445ba66bbdd3cdd48f9077536a05292f2c6d253000000000000000000000000aaf7c47b8f06d2532eeca6cb4d89bf1487808d33000000000000000000000000e355d5d8aa52ef0fbbd037c4a3c5e6fd659cf46b000000000000000000000000000000000000000000000000000000003b9aca000000000000000000000000000000000000000000000000000000000000000000",
        "nonce": "0x2cd",
        "chainId": "0x4268"
      },
      "additionalContracts": [],
      "isFixedGasLimit": false
    },
    {
      "hash": "0x685258bffa53473ce2c0f912b7d8d312df73f4b2c96a0dd1bdf0abe11fef4de5",
      "transactionType": "CALL",
      "contractName": null,
      "contractAddress": "0x5ada709210846da33e3866490eafb90b7ea96f7f",
      "function": "devMint(address,address,uint256)",
      "arguments": [
        "0xE355d5D8aa52EF0FbbD037C4a3C5E6Fd659cf46B",
        "0x74E0709B2007bD0bEDE3E1c227088239a4dF51f9",
        "12000000000000000000000"
      ],
      "transaction": {
        "from": "0xe355d5d8aa52ef0fbbd037c4a3c5e6fd659cf46b",
        "to": "0x5ada709210846da33e3866490eafb90b7ea96f7f",
        "gas": "0xe333",
        "value": "0x0",
        "input": "0x40ddd06e000000000000000000000000e355d5d8aa52ef0fbbd037c4a3c5e6fd659cf46b00000000000000000000000074e0709b2007bd0bede3e1c227088239a4df51f900000000000000000000000000000000000000000000028a857425466f800000",
        "nonce": "0x2ce",
        "chainId": "0x4268"
      },
      "additionalContracts": [],
      "isFixedGasLimit": false
    },
    {
      "hash": "0x2b293126f513737e8c9e336a77d8635144bfe28e8431987b0bf9d95ef75089e7",
      "transactionType": "CALL",
      "contractName": null,
      "contractAddress": "0x74e0709b2007bd0bede3e1c227088239a4df51f9",
      "function": "approve(address,uint256)",
      "arguments": [
        "0x959D4521BD48B6487D415Aad576Af2222ADB1a92",
        "12000000000000000000000"
      ],
      "transaction": {
        "from": "0xe355d5d8aa52ef0fbbd037c4a3c5e6fd659cf46b",
        "to": "0x74e0709b2007bd0bede3e1c227088239a4df51f9",
        "gas": "0xf816",
        "value": "0x0",
        "input": "0x095ea7b3000000000000000000000000959d4521bd48b6487d415aad576af2222adb1a9200000000000000000000000000000000000000000000028a857425466f800000",
        "nonce": "0x2cf",
        "chainId": "0x4268"
      },
      "additionalContracts": [],
      "isFixedGasLimit": false
    },
    {
      "hash": "0x39afbcc5a322eb49f630591e908d69be2af54f796705ea963385509f790e3d2c",
      "transactionType": "CALL",
      "contractName": null,
      "contractAddress": "0x959d4521bd48b6487d415aad576af2222adb1a92",
      "function": "borrowTokenFromCollateral(address,address,uint256,address[],uint128[],uint128)",
      "arguments": [
        "0xE355d5D8aa52EF0FbbD037C4a3C5E6Fd659cf46B",
        "0x645ef85B26A8eE16D4858725045900ACAb7DE005",
        "12000000000000000000000",
        "[0x031FEcF98032Ab1B2601B32cD9487B1AaBAE573C]",
        "[8000000000]",
        "8500000000"
      ],
      "transaction": {
        "from": "0xe355d5d8aa52ef0fbbd037c4a3c5e6fd659cf46b",
        "to": "0x959d4521bd48b6487d415aad576af2222adb1a92",
        "gas": "0xdeaac",
        "value": "0x0",
        "input": "0xc82e738b000000000000000000000000e355d5d8aa52ef0fbbd037c4a3c5e6fd659cf46b000000000000000000000000645ef85b26a8ee16d4858725045900acab7de00500000000000000000000000000000000000000000000028a857425466f80000000000000000000000000000000000000000000000000000000000000000000c0000000000000000000000000000000000000000000000000000000000000010000000000000000000000000000000000000000000000000000000001faa3b5000000000000000000000000000000000000000000000000000000000000000001000000000000000000000000031fecf98032ab1b2601b32cd9487b1aabae573c000000000000000000000000000000000000000000000000000000000000000100000000000000000000000000000000000000000000000000000001dcd65000",
        "nonce": "0x2d0",
        "chainId": "0x4268"
      },
      "additionalContracts": [],
      "isFixedGasLimit": false
    },
    {
      "hash": "0x1a602d0e02f57bbbcefa1aec79373cc385b54b2a40f6f4a8650852ff664c41ec",
      "transactionType": "CALL",
      "contractName": null,
      "contractAddress": "0x5ada709210846da33e3866490eafb90b7ea96f7f",
      "function": "devMint(address,address,uint256)",
      "arguments": [
        "0xE355d5D8aa52EF0FbbD037C4a3C5E6Fd659cf46B",
        "0x74E0709B2007bD0bEDE3E1c227088239a4dF51f9",
        "100000000000000000000"
      ],
      "transaction": {
        "from": "0xe355d5d8aa52ef0fbbd037c4a3c5e6fd659cf46b",
        "to": "0x5ada709210846da33e3866490eafb90b7ea96f7f",
        "gas": "0xd682",
        "value": "0x0",
        "input": "0x40ddd06e000000000000000000000000e355d5d8aa52ef0fbbd037c4a3c5e6fd659cf46b00000000000000000000000074e0709b2007bd0bede3e1c227088239a4df51f90000000000000000000000000000000000000000000000056bc75e2d63100000",
        "nonce": "0x2d1",
        "chainId": "0x4268"
      },
      "additionalContracts": [],
      "isFixedGasLimit": false
    },
    {
      "hash": "0x36fb8c63b6e91d72f7d53c963434848e73e2fb672b8f64774c3026b8820de3f4",
      "transactionType": "CALL",
      "contractName": null,
      "contractAddress": "0x74e0709b2007bd0bede3e1c227088239a4df51f9",
      "function": "approve(address,uint256)",
      "arguments": [
        "0xa05Ed08316B03e73B8007ddFaE841aB29F10B3c1",
        "100000000000000000000"
      ],
      "transaction": {
        "from": "0xe355d5d8aa52ef0fbbd037c4a3c5e6fd659cf46b",
        "to": "0x74e0709b2007bd0bede3e1c227088239a4df51f9",
        "gas": "0xf7f5",
        "value": "0x0",
        "input": "0x095ea7b3000000000000000000000000a05ed08316b03e73b8007ddfae841ab29f10b3c10000000000000000000000000000000000000000000000056bc75e2d63100000",
        "nonce": "0x2d2",
        "chainId": "0x4268"
      },
      "additionalContracts": [],
      "isFixedGasLimit": false
    },
    {
      "hash": "0x67b9cc7e1ef795d8cfbc4bfb03e5c39a8859e2e5254ba8cf2b5bb0a50a2b7fdc",
      "transactionType": "CALL",
      "contractName": null,
      "contractAddress": "0xa05ed08316b03e73b8007ddfae841ab29f10b3c1",
      "function": "addCollateral(uint256,bytes)",
      "arguments": [
        "33",
        "0x0000000000000000000000000000000000000000000000056bc75e2d63100000"
      ],
      "transaction": {
        "from": "0xe355d5d8aa52ef0fbbd037c4a3c5e6fd659cf46b",
        "to": "0xa05ed08316b03e73b8007ddfae841ab29f10b3c1",
        "gas": "0x1518b",
        "value": "0x0",
        "input": "0xfe8fd7d90000000000000000000000000000000000000000000000000000000000000021000000000000000000000000000000000000000000000000000000000000004000000000000000000000000000000000000000000000000000000000000000200000000000000000000000000000000000000000000000056bc75e2d63100000",
        "nonce": "0x2d3",
        "chainId": "0x4268"
      },
      "additionalContracts": [],
      "isFixedGasLimit": false
    },
    {
      "hash": "0x0d43cf1d8fa99c0291509243af1b274f4ed0e73edbe0399aba0bd36c98f01539",
      "transactionType": "CALL",
      "contractName": null,
      "contractAddress": "0xa05ed08316b03e73b8007ddfae841ab29f10b3c1",
      "function": "removeCollateral(uint256,bytes)",
      "arguments": [
        "33",
        "0x000000000000000000000000000000000000000000000002b5e3af16b1880000"
      ],
      "transaction": {
        "from": "0xe355d5d8aa52ef0fbbd037c4a3c5e6fd659cf46b",
        "to": "0xa05ed08316b03e73b8007ddfae841ab29f10b3c1",
        "gas": "0x2cda5",
        "value": "0x0",
        "input": "0x77efba60000000000000000000000000000000000000000000000000000000000000002100000000000000000000000000000000000000000000000000000000000000400000000000000000000000000000000000000000000000000000000000000020000000000000000000000000000000000000000000000002b5e3af16b1880000",
        "nonce": "0x2d4",
        "chainId": "0x4268"
      },
      "additionalContracts": [],
      "isFixedGasLimit": false
    },
    {
      "hash": "0x7190aabd9001de244cfe05db128ded069169ccd1f891de727d3c9fd1002b86e1",
      "transactionType": "CALL",
      "contractName": null,
      "contractAddress": "0x5ada709210846da33e3866490eafb90b7ea96f7f",
      "function": "devMint(address,address,uint256)",
      "arguments": [
        "0xE355d5D8aa52EF0FbbD037C4a3C5E6Fd659cf46B",
        "0x9445Ba66bBDd3Cdd48f9077536a05292f2C6D253",
        "500000000"
      ],
      "transaction": {
        "from": "0xe355d5d8aa52ef0fbbd037c4a3c5e6fd659cf46b",
        "to": "0x5ada709210846da33e3866490eafb90b7ea96f7f",
        "gas": "0xd640",
        "value": "0x0",
        "input": "0x40ddd06e000000000000000000000000e355d5d8aa52ef0fbbd037c4a3c5e6fd659cf46b0000000000000000000000009445ba66bbdd3cdd48f9077536a05292f2c6d253000000000000000000000000000000000000000000000000000000001dcd6500",
        "nonce": "0x2d5",
        "chainId": "0x4268"
      },
      "additionalContracts": [],
      "isFixedGasLimit": false
    },
    {
      "hash": "0x76434c6e15098e6d6b3c5d42ca57a95b69ae14a721ab7cbe5652e342b91faab5",
      "transactionType": "CALL",
      "contractName": null,
      "contractAddress": "0x9445ba66bbdd3cdd48f9077536a05292f2c6d253",
      "function": "approve(address,uint256)",
      "arguments": [
        "0xa05Ed08316B03e73B8007ddFaE841aB29F10B3c1",
        "500000000"
      ],
      "transaction": {
        "from": "0xe355d5d8aa52ef0fbbd037c4a3c5e6fd659cf46b",
        "to": "0x9445ba66bbdd3cdd48f9077536a05292f2c6d253",
        "gas": "0xf7b3",
        "value": "0x0",
        "input": "0x095ea7b3000000000000000000000000a05ed08316b03e73b8007ddfae841ab29f10b3c1000000000000000000000000000000000000000000000000000000001dcd6500",
        "nonce": "0x2d6",
        "chainId": "0x4268"
      },
      "additionalContracts": [],
      "isFixedGasLimit": false
    },
    {
      "hash": "0x189ac96bc84669739b505fd5f60e8e2009ec596ccc95c4990bd4d7331342b45c",
      "transactionType": "CALL",
      "contractName": null,
      "contractAddress": "0xa05ed08316b03e73b8007ddfae841ab29f10b3c1",
      "function": "repay(uint256,uint128,bool)",
      "arguments": [
        "33",
        "500000000",
        "true"
      ],
      "transaction": {
        "from": "0xe355d5d8aa52ef0fbbd037c4a3c5e6fd659cf46b",
        "to": "0xa05ed08316b03e73b8007ddfae841ab29f10b3c1",
        "gas": "0x18b9d",
        "value": "0x0",
        "input": "0xdf2cbf3e0000000000000000000000000000000000000000000000000000000000000021000000000000000000000000000000000000000000000000000000001dcd65000000000000000000000000000000000000000000000000000000000000000001",
        "nonce": "0x2d7",
        "chainId": "0x4268"
      },
      "additionalContracts": [],
      "isFixedGasLimit": false
    },
    {
      "hash": "0x781cdb0183efd3f8ba37e1e7a565262d48af5ee7794d34d031d69edf3de7cb4d",
      "transactionType": "CALL",
      "contractName": null,
      "contractAddress": "0xa05ed08316b03e73b8007ddfae841ab29f10b3c1",
      "function": "transferFrom(address,address,uint256)",
      "arguments": [
        "0xE355d5D8aa52EF0FbbD037C4a3C5E6Fd659cf46B",
        "0x3996E67b9b9a9013aD24f6dD568646CF1447bbc9",
        "33"
      ],
      "transaction": {
        "from": "0xe355d5d8aa52ef0fbbd037c4a3c5e6fd659cf46b",
        "to": "0xa05ed08316b03e73b8007ddfae841ab29f10b3c1",
        "gas": "0x1d120",
        "value": "0x0",
        "input": "0x23b872dd000000000000000000000000e355d5d8aa52ef0fbbd037c4a3c5e6fd659cf46b0000000000000000000000003996e67b9b9a9013ad24f6dd568646cf1447bbc90000000000000000000000000000000000000000000000000000000000000021",
        "nonce": "0x2d8",
        "chainId": "0x4268"
      },
      "additionalContracts": [],
      "isFixedGasLimit": false
    },
    {
      "hash": "0xf692f91b40b3633b5bbbadc85918278c6778670046f722a0069e27aacec4c24c",
      "transactionType": "CALL",
      "contractName": null,
      "contractAddress": "0x5ada709210846da33e3866490eafb90b7ea96f7f",
      "function": "devMint(address,address,uint256)",
      "arguments": [
        "0xE355d5D8aa52EF0FbbD037C4a3C5E6Fd659cf46B",
        "0x9445Ba66bBDd3Cdd48f9077536a05292f2C6D253",
        "20004000000"
      ],
      "transaction": {
        "from": "0xe355d5d8aa52ef0fbbd037c4a3c5e6fd659cf46b",
        "to": "0x5ada709210846da33e3866490eafb90b7ea96f7f",
        "gas": "0xe2ed",
        "value": "0x0",
        "input": "0x40ddd06e000000000000000000000000e355d5d8aa52ef0fbbd037c4a3c5e6fd659cf46b0000000000000000000000009445ba66bbdd3cdd48f9077536a05292f2c6d25300000000000000000000000000000000000000000000000000000004a854d100",
        "nonce": "0x2d9",
        "chainId": "0x4268"
      },
      "additionalContracts": [],
      "isFixedGasLimit": false
    },
    {
      "hash": "0xefda2a6264c2ac2a0bdc670a82ada34768daa75c07e4168e656540ec5d9eafe8",
      "transactionType": "CALL",
      "contractName": null,
      "contractAddress": "0x9445ba66bbdd3cdd48f9077536a05292f2c6d253",
      "function": "approve(address,uint256)",
      "arguments": [
        "0x959D4521BD48B6487D415Aad576Af2222ADB1a92",
        "20004000000"
      ],
      "transaction": {
        "from": "0xe355d5d8aa52ef0fbbd037c4a3c5e6fd659cf46b",
        "to": "0x9445ba66bbdd3cdd48f9077536a05292f2c6d253",
        "gas": "0xf7d3",
        "value": "0x0",
        "input": "0x095ea7b3000000000000000000000000959d4521bd48b6487d415aad576af2222adb1a9200000000000000000000000000000000000000000000000000000004a854d100",
        "nonce": "0x2da",
        "chainId": "0x4268"
      },
      "additionalContracts": [],
      "isFixedGasLimit": false
    },
    {
      "hash": "0xd5b8bd8b5f524fa2b4a69ec9ef40df4d21e14a3fbee7aa8d43edf18463785388",
      "transactionType": "CALL",
      "contractName": null,
      "contractAddress": "0x959d4521bd48b6487d415aad576af2222adb1a92",
      "function": "leverageFromToken(address,address,address[],uint128[],uint128,uint128,uint128,(address,address,address,bytes)[])",
      "arguments": [
        "0xE355d5D8aa52EF0FbbD037C4a3C5E6Fd659cf46B",
        "0x645ef85B26A8eE16D4858725045900ACAb7DE005",
        "[0x031FEcF98032Ab1B2601B32cD9487B1AaBAE573C]",
        "[4000000]",
        "0",
        "20000000000",
        "80000000",
        "[(0xC16905D5b6E34DA4f76BD896f8e1cc6E4650960C, 0x9445Ba66bBDd3Cdd48f9077536a05292f2C6D253, 0x74E0709B2007bD0bEDE3E1c227088239a4dF51f9, 0x00000000000000000000000094121cbfb4abe0155b6bfa5669d120594bacf95300000000000000000000000099c8da9808b7909dede2c3ec835151afb74195ff)]"
      ],
      "transaction": {
        "from": "0xe355d5d8aa52ef0fbbd037c4a3c5e6fd659cf46b",
        "to": "0x959d4521bd48b6487d415aad576af2222adb1a92",
        "gas": "0xe1cc8",
        "value": "0x0",
        "input": "0xa515648f000000000000000000000000e355d5d8aa52ef0fbbd037c4a3c5e6fd659cf46b000000000000000000000000645ef85b26a8ee16d4858725045900acab7de00500000000000000000000000000000000000000000000000000000000000001000000000000000000000000000000000000000000000000000000000000000140000000000000000000000000000000000000000000000000000000000000000000000000000000000000000000000000000000000000000000000004a817c8000000000000000000000000000000000000000000000000000000000004c4b40000000000000000000000000000000000000000000000000000000000000001800000000000000000000000000000000000000000000000000000000000000001000000000000000000000000031fecf98032ab1b2601b32cd9487b1aabae573c000000000000000000000000000000000000000000000000000000000000000100000000000000000000000000000000000000000000000000000000003d090000000000000000000000000000000000000000000000000000000000000000010000000000000000000000000000000000000000000000000000000000000020000000000000000000000000c16905d5b6e34da4f76bd896f8e1cc6e4650960c0000000000000000000000009445ba66bbdd3cdd48f9077536a05292f2c6d25300000000000000000000000074e0709b2007bd0bede3e1c227088239a4df51f90000000000000000000000000000000000000000000000000000000000000080000000000000000000000000000000000000000000000000000000000000004000000000000000000000000094121cbfb4abe0155b6bfa5669d120594bacf95300000000000000000000000099c8da9808b7909dede2c3ec835151afb74195ff",
        "nonce": "0x2db",
        "chainId": "0x4268"
      },
      "additionalContracts": [],
      "isFixedGasLimit": false
    }
  ],
  "receipts": [
    {
      "status": "0x1",
      "cumulativeGasUsed": "0x1db6fcc",
      "logs": [
        {
          "address": "0x9445ba66bbdd3cdd48f9077536a05292f2c6d253",
          "topics": [
            "0xddf252ad1be2c89b69c2b068fc378daa952ba7f163c4a11628f55a4df523b3ef",
            "0x0000000000000000000000000000000000000000000000000000000000000000",
            "0x000000000000000000000000e355d5d8aa52ef0fbbd037c4a3c5e6fd659cf46b"
          ],
          "data": "0x000000000000000000000000000000000000000000000000000000174876e800",
          "blockHash": "0xb4b7485accbbfd0f6e0003b18b9f1268e341a5773651af84a5cbbd204468a3fd",
          "blockNumber": "0x32b1f6",
          "blockTimestamp": "0x67a9955c",
          "transactionHash": "0xe8a0f51610bc47303cc5385631c592a9212ac57ff07a75897be31cb4ad70c166",
          "transactionIndex": "0x1e",
          "logIndex": "0x111",
          "removed": false
        }
      ],
      "logsBloom": "0x00000000000000000000000000000000000000000000000000000000000000000000000000000000000000000000000000000000000000000000000000000000000000000000000000000008000000000000000000000000000000000000000000000000020000000000000000000800000000000000000000000010000000000000000000000000000000000000000200000000000000000000000000000000000000000000000000000000000400000000000800000000000000000080000000000002000000000000000000000000000000000000000000000000000020000000000000000020000000000000000000000000000000000000000000004000",
      "type": "0x2",
      "transactionHash": "0xe8a0f51610bc47303cc5385631c592a9212ac57ff07a75897be31cb4ad70c166",
      "transactionIndex": "0x1e",
      "blockHash": "0xb4b7485accbbfd0f6e0003b18b9f1268e341a5773651af84a5cbbd204468a3fd",
      "blockNumber": "0x32b1f6",
      "gasUsed": "0x9b2a",
      "effectiveGasPrice": "0xf424a",
      "from": "0xe355d5d8aa52ef0fbbd037c4a3c5e6fd659cf46b",
      "to": "0x5ada709210846da33e3866490eafb90b7ea96f7f",
      "contractAddress": null
    },
    {
      "status": "0x1",
      "cumulativeGasUsed": "0x1dc232d",
      "logs": [
        {
          "address": "0x9445ba66bbdd3cdd48f9077536a05292f2c6d253",
          "topics": [
            "0x8c5be1e5ebec7d5bd14f71427d1e84f3dd0314c0f7b2291e5b200ac8c7c3b925",
            "0x000000000000000000000000e355d5d8aa52ef0fbbd037c4a3c5e6fd659cf46b",
            "0x000000000000000000000000645ef85b26a8ee16d4858725045900acab7de005"
          ],
          "data": "0x000000000000000000000000000000000000000000000000000000174876e800",
          "blockHash": "0xb4b7485accbbfd0f6e0003b18b9f1268e341a5773651af84a5cbbd204468a3fd",
          "blockNumber": "0x32b1f6",
          "blockTimestamp": "0x67a9955c",
          "transactionHash": "0x2b7d68f818dc8eeb8ca8d4c4514f5abe0bb0d8376770e8f45568087efbc6c2b4",
          "transactionIndex": "0x1f",
          "logIndex": "0x112",
          "removed": false
        }
      ],
      "logsBloom": "0x00000000000000000000000000000000000000000000000000000000000000000000000000000000000000000000000000000000000000000000000000200000000000000000000000000000000000000000000000000000000000000000000000000000000000000000000000000000000000000000080000000000000000000000000000000000000000000000000200000000000000000000000000000000020000000000000000000000000400000000000800000000000000000080000000000000004000000000000000000000000000000000000000000000000000000010000000000020000000000000000000000000000040000000000000004000",
      "type": "0x2",
      "transactionHash": "0x2b7d68f818dc8eeb8ca8d4c4514f5abe0bb0d8376770e8f45568087efbc6c2b4",
      "transactionIndex": "0x1f",
      "blockHash": "0xb4b7485accbbfd0f6e0003b18b9f1268e341a5773651af84a5cbbd204468a3fd",
      "blockNumber": "0x32b1f6",
      "gasUsed": "0xb361",
      "effectiveGasPrice": "0xf424a",
      "from": "0xe355d5d8aa52ef0fbbd037c4a3c5e6fd659cf46b",
      "to": "0x9445ba66bbdd3cdd48f9077536a05292f2c6d253",
      "contractAddress": null
    },
    {
      "status": "0x1",
      "cumulativeGasUsed": "0x1dd88c4",
      "logs": [
        {
          "address": "0x9445ba66bbdd3cdd48f9077536a05292f2c6d253",
          "topics": [
            "0xddf252ad1be2c89b69c2b068fc378daa952ba7f163c4a11628f55a4df523b3ef",
            "0x000000000000000000000000e355d5d8aa52ef0fbbd037c4a3c5e6fd659cf46b",
            "0x000000000000000000000000645ef85b26a8ee16d4858725045900acab7de005"
          ],
          "data": "0x000000000000000000000000000000000000000000000000000000174876e800",
          "blockHash": "0xb4b7485accbbfd0f6e0003b18b9f1268e341a5773651af84a5cbbd204468a3fd",
          "blockNumber": "0x32b1f6",
          "blockTimestamp": "0x67a9955c",
          "transactionHash": "0x40ad18cba8015ffde8ae23e74bc7bcc58e03447e5d3d78034f3024fdaefaded8",
          "transactionIndex": "0x20",
          "logIndex": "0x113",
          "removed": false
        },
        {
          "address": "0xaaf7c47b8f06d2532eeca6cb4d89bf1487808d33",
          "topics": [
            "0xddf252ad1be2c89b69c2b068fc378daa952ba7f163c4a11628f55a4df523b3ef",
            "0x0000000000000000000000000000000000000000000000000000000000000000",
            "0x000000000000000000000000031fecf98032ab1b2601b32cd9487b1aabae573c"
          ],
          "data": "0x000000000000000000000000000000000000000000000000000000174876e800",
          "blockHash": "0xb4b7485accbbfd0f6e0003b18b9f1268e341a5773651af84a5cbbd204468a3fd",
          "blockNumber": "0x32b1f6",
          "blockTimestamp": "0x67a9955c",
          "transactionHash": "0x40ad18cba8015ffde8ae23e74bc7bcc58e03447e5d3d78034f3024fdaefaded8",
          "transactionIndex": "0x20",
          "logIndex": "0x114",
          "removed": false
        },
        {
          "address": "0x6c29de485455c46987c52abe867b6f276a1aae02",
          "topics": [
            "0xddf252ad1be2c89b69c2b068fc378daa952ba7f163c4a11628f55a4df523b3ef",
            "0x0000000000000000000000000000000000000000000000000000000000000000",
            "0x000000000000000000000000031fecf98032ab1b2601b32cd9487b1aabae573c"
          ],
          "data": "0x000000000000000000000000000000000000000000000000000000174876e800",
          "blockHash": "0xb4b7485accbbfd0f6e0003b18b9f1268e341a5773651af84a5cbbd204468a3fd",
          "blockNumber": "0x32b1f6",
          "blockTimestamp": "0x67a9955c",
          "transactionHash": "0x40ad18cba8015ffde8ae23e74bc7bcc58e03447e5d3d78034f3024fdaefaded8",
          "transactionIndex": "0x20",
          "logIndex": "0x115",
          "removed": false
        },
        {
          "address": "0x645ef85b26a8ee16d4858725045900acab7de005",
          "topics": [
            "0xab8530f87dc9b59234c4623bf917212bb2536d647574c8e7e5da92c2ede0c9f8",
            "0x000000000000000000000000e355d5d8aa52ef0fbbd037c4a3c5e6fd659cf46b",
            "0x000000000000000000000000031fecf98032ab1b2601b32cd9487b1aabae573c"
          ],
          "data": "0x000000000000000000000000000000000000000000000000000000174876e800",
          "blockHash": "0xb4b7485accbbfd0f6e0003b18b9f1268e341a5773651af84a5cbbd204468a3fd",
          "blockNumber": "0x32b1f6",
          "blockTimestamp": "0x67a9955c",
          "transactionHash": "0x40ad18cba8015ffde8ae23e74bc7bcc58e03447e5d3d78034f3024fdaefaded8",
          "transactionIndex": "0x20",
          "logIndex": "0x116",
          "removed": false
        }
      ],
      "logsBloom": "0x00000000001000000000000000000000040000080000000000000100000000000000000000000000200000000000000000000000080000000000000002000000000000000000000000000008000000000040000000000000000000000000000000020000020000000000080000000800000000000000080000000010000000000000000000002000000000000000000200000000000000000000000000000000000000000000000000000000000400000000000800008000000000000080000000000002004000000000000000000000000000000000000000000000100020000000000000000020000000000000000000000000000840000000000000006000",
      "type": "0x2",
      "transactionHash": "0x40ad18cba8015ffde8ae23e74bc7bcc58e03447e5d3d78034f3024fdaefaded8",
      "transactionIndex": "0x20",
      "blockHash": "0xb4b7485accbbfd0f6e0003b18b9f1268e341a5773651af84a5cbbd204468a3fd",
      "blockNumber": "0x32b1f6",
      "gasUsed": "0x16597",
      "effectiveGasPrice": "0xf424a",
      "from": "0xe355d5d8aa52ef0fbbd037c4a3c5e6fd659cf46b",
      "to": "0x645ef85b26a8ee16d4858725045900acab7de005",
      "contractAddress": null
    },
    {
      "status": "0x1",
      "cumulativeGasUsed": "0x1de23e2",
      "logs": [
        {
          "address": "0x9445ba66bbdd3cdd48f9077536a05292f2c6d253",
          "topics": [
            "0xddf252ad1be2c89b69c2b068fc378daa952ba7f163c4a11628f55a4df523b3ef",
            "0x0000000000000000000000000000000000000000000000000000000000000000",
            "0x000000000000000000000000e355d5d8aa52ef0fbbd037c4a3c5e6fd659cf46b"
          ],
          "data": "0x000000000000000000000000000000000000000000000000000000003b9aca00",
          "blockHash": "0xb4b7485accbbfd0f6e0003b18b9f1268e341a5773651af84a5cbbd204468a3fd",
          "blockNumber": "0x32b1f6",
          "blockTimestamp": "0x67a9955c",
          "transactionHash": "0x671dbdd66333ee98a7e324636f7f1a0adcb5046c0d1c19be688a482a4e73ab10",
          "transactionIndex": "0x21",
          "logIndex": "0x117",
          "removed": false
        }
      ],
      "logsBloom": "0x00000000000000000000000000000000000000000000000000000000000000000000000000000000000000000000000000000000000000000000000000000000000000000000000000000008000000000000000000000000000000000000000000000000020000000000000000000800000000000000000000000010000000000000000000000000000000000000000200000000000000000000000000000000000000000000000000000000000400000000000800000000000000000080000000000002000000000000000000000000000000000000000000000000000020000000000000000020000000000000000000000000000000000000000000004000",
      "type": "0x2",
      "transactionHash": "0x671dbdd66333ee98a7e324636f7f1a0adcb5046c0d1c19be688a482a4e73ab10",
      "transactionIndex": "0x21",
      "blockHash": "0xb4b7485accbbfd0f6e0003b18b9f1268e341a5773651af84a5cbbd204468a3fd",
      "blockNumber": "0x32b1f6",
      "gasUsed": "0x9b1e",
      "effectiveGasPrice": "0xf424a",
      "from": "0xe355d5d8aa52ef0fbbd037c4a3c5e6fd659cf46b",
      "to": "0x5ada709210846da33e3866490eafb90b7ea96f7f",
      "contractAddress": null
    },
    {
      "status": "0x1",
      "cumulativeGasUsed": "0x1ded743",
      "logs": [
        {
          "address": "0x9445ba66bbdd3cdd48f9077536a05292f2c6d253",
          "topics": [
            "0x8c5be1e5ebec7d5bd14f71427d1e84f3dd0314c0f7b2291e5b200ac8c7c3b925",
            "0x000000000000000000000000e355d5d8aa52ef0fbbd037c4a3c5e6fd659cf46b",
            "0x000000000000000000000000031fecf98032ab1b2601b32cd9487b1aabae573c"
          ],
          "data": "0x000000000000000000000000000000000000000000000000000000003b9aca00",
          "blockHash": "0xb4b7485accbbfd0f6e0003b18b9f1268e341a5773651af84a5cbbd204468a3fd",
          "blockNumber": "0x32b1f6",
          "blockTimestamp": "0x67a9955c",
          "transactionHash": "0xf445fe4861d08d208319d2d4deba9828d80f2b8b80293cacb46b614f8e4c822f",
          "transactionIndex": "0x22",
          "logIndex": "0x118",
          "removed": false
        }
      ],
      "logsBloom": "0x00000000000000000000000000000000000000080000000000000000000000000000000000000000000000000000000000000000000000000000000002200000000000000000000000000000000000000000000000000000000000000000000000000000000000000000000000000000000000000000000000000000000000000000000000000000000000000000000200000000000000000000000000000000020000000000000000000000000400000000000800000000000000000080000000000000000000000000000000000000000000000000000000000000100000000010000000000020000000000000000000000000000000000000000000004000",
      "type": "0x2",
      "transactionHash": "0xf445fe4861d08d208319d2d4deba9828d80f2b8b80293cacb46b614f8e4c822f",
      "transactionIndex": "0x22",
      "blockHash": "0xb4b7485accbbfd0f6e0003b18b9f1268e341a5773651af84a5cbbd204468a3fd",
      "blockNumber": "0x32b1f6",
      "gasUsed": "0xb361",
      "effectiveGasPrice": "0xf424a",
      "from": "0xe355d5d8aa52ef0fbbd037c4a3c5e6fd659cf46b",
      "to": "0x9445ba66bbdd3cdd48f9077536a05292f2c6d253",
      "contractAddress": null
    },
    {
      "status": "0x1",
      "cumulativeGasUsed": "0x1e24cee",
      "logs": [
        {
          "address": "0x9445ba66bbdd3cdd48f9077536a05292f2c6d253",
          "topics": [
            "0xddf252ad1be2c89b69c2b068fc378daa952ba7f163c4a11628f55a4df523b3ef",
            "0x000000000000000000000000e355d5d8aa52ef0fbbd037c4a3c5e6fd659cf46b",
            "0x000000000000000000000000031fecf98032ab1b2601b32cd9487b1aabae573c"
          ],
          "data": "0x000000000000000000000000000000000000000000000000000000003b9aca00",
          "blockHash": "0xb4b7485accbbfd0f6e0003b18b9f1268e341a5773651af84a5cbbd204468a3fd",
          "blockNumber": "0x32b1f6",
          "blockTimestamp": "0x67a9955c",
          "transactionHash": "0xa4ea938c519c17b8edd67d2c86714a62c3953faa347cc3e3b75dacb19856f542",
          "transactionIndex": "0x23",
          "logIndex": "0x119",
          "removed": false
        },
        {
          "address": "0x9445ba66bbdd3cdd48f9077536a05292f2c6d253",
          "topics": [
            "0x8c5be1e5ebec7d5bd14f71427d1e84f3dd0314c0f7b2291e5b200ac8c7c3b925",
            "0x000000000000000000000000031fecf98032ab1b2601b32cd9487b1aabae573c",
            "0x000000000000000000000000645ef85b26a8ee16d4858725045900acab7de005"
          ],
          "data": "0x000000000000000000000000000000000000000000000000000000003b9aca00",
          "blockHash": "0xb4b7485accbbfd0f6e0003b18b9f1268e341a5773651af84a5cbbd204468a3fd",
          "blockNumber": "0x32b1f6",
          "blockTimestamp": "0x67a9955c",
          "transactionHash": "0xa4ea938c519c17b8edd67d2c86714a62c3953faa347cc3e3b75dacb19856f542",
          "transactionIndex": "0x23",
          "logIndex": "0x11a",
          "removed": false
        },
        {
          "address": "0x9445ba66bbdd3cdd48f9077536a05292f2c6d253",
          "topics": [
            "0xddf252ad1be2c89b69c2b068fc378daa952ba7f163c4a11628f55a4df523b3ef",
            "0x000000000000000000000000031fecf98032ab1b2601b32cd9487b1aabae573c",
            "0x000000000000000000000000645ef85b26a8ee16d4858725045900acab7de005"
          ],
          "data": "0x000000000000000000000000000000000000000000000000000000003b9aca00",
          "blockHash": "0xb4b7485accbbfd0f6e0003b18b9f1268e341a5773651af84a5cbbd204468a3fd",
          "blockNumber": "0x32b1f6",
          "blockTimestamp": "0x67a9955c",
          "transactionHash": "0xa4ea938c519c17b8edd67d2c86714a62c3953faa347cc3e3b75dacb19856f542",
          "transactionIndex": "0x23",
          "logIndex": "0x11b",
          "removed": false
        },
        {
          "address": "0xaaf7c47b8f06d2532eeca6cb4d89bf1487808d33",
          "topics": [
            "0xddf252ad1be2c89b69c2b068fc378daa952ba7f163c4a11628f55a4df523b3ef",
            "0x0000000000000000000000000000000000000000000000000000000000000000",
            "0x000000000000000000000000031fecf98032ab1b2601b32cd9487b1aabae573c"
          ],
          "data": "0x000000000000000000000000000000000000000000000000000000003b9aca00",
          "blockHash": "0xb4b7485accbbfd0f6e0003b18b9f1268e341a5773651af84a5cbbd204468a3fd",
          "blockNumber": "0x32b1f6",
          "blockTimestamp": "0x67a9955c",
          "transactionHash": "0xa4ea938c519c17b8edd67d2c86714a62c3953faa347cc3e3b75dacb19856f542",
          "transactionIndex": "0x23",
          "logIndex": "0x11c",
          "removed": false
        },
        {
          "address": "0x6c29de485455c46987c52abe867b6f276a1aae02",
          "topics": [
            "0xddf252ad1be2c89b69c2b068fc378daa952ba7f163c4a11628f55a4df523b3ef",
            "0x0000000000000000000000000000000000000000000000000000000000000000",
            "0x000000000000000000000000031fecf98032ab1b2601b32cd9487b1aabae573c"
          ],
          "data": "0x000000000000000000000000000000000000000000000000000000003b9aca00",
          "blockHash": "0xb4b7485accbbfd0f6e0003b18b9f1268e341a5773651af84a5cbbd204468a3fd",
          "blockNumber": "0x32b1f6",
          "blockTimestamp": "0x67a9955c",
          "transactionHash": "0xa4ea938c519c17b8edd67d2c86714a62c3953faa347cc3e3b75dacb19856f542",
          "transactionIndex": "0x23",
          "logIndex": "0x11d",
          "removed": false
        },
        {
          "address": "0x645ef85b26a8ee16d4858725045900acab7de005",
          "topics": [
            "0xab8530f87dc9b59234c4623bf917212bb2536d647574c8e7e5da92c2ede0c9f8",
            "0x000000000000000000000000031fecf98032ab1b2601b32cd9487b1aabae573c",
            "0x000000000000000000000000031fecf98032ab1b2601b32cd9487b1aabae573c"
          ],
          "data": "0x000000000000000000000000000000000000000000000000000000003b9aca00",
          "blockHash": "0xb4b7485accbbfd0f6e0003b18b9f1268e341a5773651af84a5cbbd204468a3fd",
          "blockNumber": "0x32b1f6",
          "blockTimestamp": "0x67a9955c",
          "transactionHash": "0xa4ea938c519c17b8edd67d2c86714a62c3953faa347cc3e3b75dacb19856f542",
          "transactionIndex": "0x23",
          "logIndex": "0x11e",
          "removed": false
        },
        {
          "address": "0xaaf7c47b8f06d2532eeca6cb4d89bf1487808d33",
          "topics": [
            "0xddf252ad1be2c89b69c2b068fc378daa952ba7f163c4a11628f55a4df523b3ef",
            "0x000000000000000000000000031fecf98032ab1b2601b32cd9487b1aabae573c",
            "0x000000000000000000000000e355d5d8aa52ef0fbbd037c4a3c5e6fd659cf46b"
          ],
          "data": "0x000000000000000000000000000000000000000000000000000000003d6853ef",
          "blockHash": "0xb4b7485accbbfd0f6e0003b18b9f1268e341a5773651af84a5cbbd204468a3fd",
          "blockNumber": "0x32b1f6",
          "blockTimestamp": "0x67a9955c",
          "transactionHash": "0xa4ea938c519c17b8edd67d2c86714a62c3953faa347cc3e3b75dacb19856f542",
          "transactionIndex": "0x23",
          "logIndex": "0x11f",
          "removed": false
        },
        {
          "address": "0xaaf7c47b8f06d2532eeca6cb4d89bf1487808d33",
          "topics": [
            "0xddf252ad1be2c89b69c2b068fc378daa952ba7f163c4a11628f55a4df523b3ef",
            "0x000000000000000000000000031fecf98032ab1b2601b32cd9487b1aabae573c",
            "0x0000000000000000000000007ab945445958819a74b48e8bd5f9e39ed74bde9e"
          ],
          "data": "0x0000000000000000000000000000000000000000000000000000000000220214",
          "blockHash": "0xb4b7485accbbfd0f6e0003b18b9f1268e341a5773651af84a5cbbd204468a3fd",
          "blockNumber": "0x32b1f6",
          "blockTimestamp": "0x67a9955c",
          "transactionHash": "0xa4ea938c519c17b8edd67d2c86714a62c3953faa347cc3e3b75dacb19856f542",
          "transactionIndex": "0x23",
          "logIndex": "0x120",
          "removed": false
        },
        {
          "address": "0x031fecf98032ab1b2601b32cd9487b1aabae573c",
          "topics": [
            "0xafc472950ba0847ac0541a7d71ad9977d695e4dba0cc223dba88d5fa8609732a",
            "0x0000000000000000000000009445ba66bbdd3cdd48f9077536a05292f2c6d253",
            "0x000000000000000000000000aaf7c47b8f06d2532eeca6cb4d89bf1487808d33"
          ],
          "data": "0x000000000000000000000000e355d5d8aa52ef0fbbd037c4a3c5e6fd659cf46b000000000000000000000000e355d5d8aa52ef0fbbd037c4a3c5e6fd659cf46b000000000000000000000000000000000000000000000000000000003b9aca00000000000000000000000000000000000000000000000000000000003d6853ef0000000000000000000000000000000000000000000000000000000000220214",
          "blockHash": "0xb4b7485accbbfd0f6e0003b18b9f1268e341a5773651af84a5cbbd204468a3fd",
          "blockNumber": "0x32b1f6",
          "blockTimestamp": "0x67a9955c",
          "transactionHash": "0xa4ea938c519c17b8edd67d2c86714a62c3953faa347cc3e3b75dacb19856f542",
          "transactionIndex": "0x23",
          "logIndex": "0x121",
          "removed": false
        }
      ],
      "logsBloom": "0x02000000001000000000000000000000040004080000000000000100000000000000000000000000200008000000000000000000080020000000000002200000000000000000000040000008020000000040000000001000000000000000000000020000020000000000080000000800000000000000080000000010000000000000000000006040000000000000000200000000000000000000000000000000020000200000000000000000000461000000000800008000000000010080000000000002004000000000000000000000010000000000000000000000100020000010000000000020000000000000000000000000000840000000000000006000",
      "type": "0x2",
      "transactionHash": "0xa4ea938c519c17b8edd67d2c86714a62c3953faa347cc3e3b75dacb19856f542",
      "transactionIndex": "0x23",
      "blockHash": "0xb4b7485accbbfd0f6e0003b18b9f1268e341a5773651af84a5cbbd204468a3fd",
      "blockNumber": "0x32b1f6",
      "gasUsed": "0x375ab",
      "effectiveGasPrice": "0xf424a",
      "from": "0xe355d5d8aa52ef0fbbd037c4a3c5e6fd659cf46b",
      "to": "0x031fecf98032ab1b2601b32cd9487b1aabae573c",
      "contractAddress": null
    },
    {
      "status": "0x1",
      "cumulativeGasUsed": "0x1e2e848",
      "logs": [
        {
          "address": "0x74e0709b2007bd0bede3e1c227088239a4df51f9",
          "topics": [
            "0xddf252ad1be2c89b69c2b068fc378daa952ba7f163c4a11628f55a4df523b3ef",
            "0x0000000000000000000000000000000000000000000000000000000000000000",
            "0x000000000000000000000000e355d5d8aa52ef0fbbd037c4a3c5e6fd659cf46b"
          ],
          "data": "0x00000000000000000000000000000000000000000000028a857425466f800000",
          "blockHash": "0xb4b7485accbbfd0f6e0003b18b9f1268e341a5773651af84a5cbbd204468a3fd",
          "blockNumber": "0x32b1f6",
          "blockTimestamp": "0x67a9955c",
          "transactionHash": "0x685258bffa53473ce2c0f912b7d8d312df73f4b2c96a0dd1bdf0abe11fef4de5",
          "transactionIndex": "0x24",
          "logIndex": "0x122",
          "removed": false
        }
      ],
      "logsBloom": "0x00000000000000000000000000000000000000000000000000000000000100000000000000000000000000000000000001000000000000000000000000000000000000000000000000000008000000000000000000000000000000000000000000000000020000000000000000000800000000000000000000000010000000000000000000000000000000000000000200000000000000000000000000000000010000000000000000000000000000000000000000000000000000000000000000000002000000000000000000000000000000000000000000000000000020000000000000000020000000000000000000000000000000000000000000004000",
      "type": "0x2",
      "transactionHash": "0x685258bffa53473ce2c0f912b7d8d312df73f4b2c96a0dd1bdf0abe11fef4de5",
      "transactionIndex": "0x24",
      "blockHash": "0xb4b7485accbbfd0f6e0003b18b9f1268e341a5773651af84a5cbbd204468a3fd",
      "blockNumber": "0x32b1f6",
      "gasUsed": "0x9b5a",
      "effectiveGasPrice": "0xf424a",
      "from": "0xe355d5d8aa52ef0fbbd037c4a3c5e6fd659cf46b",
      "to": "0x5ada709210846da33e3866490eafb90b7ea96f7f",
      "contractAddress": null
    },
    {
      "status": "0x1",
      "cumulativeGasUsed": "0x1e39be5",
      "logs": [
        {
          "address": "0x74e0709b2007bd0bede3e1c227088239a4df51f9",
          "topics": [
            "0x8c5be1e5ebec7d5bd14f71427d1e84f3dd0314c0f7b2291e5b200ac8c7c3b925",
            "0x000000000000000000000000e355d5d8aa52ef0fbbd037c4a3c5e6fd659cf46b",
            "0x000000000000000000000000959d4521bd48b6487d415aad576af2222adb1a92"
          ],
          "data": "0x00000000000000000000000000000000000000000000028a857425466f800000",
          "blockHash": "0xb4b7485accbbfd0f6e0003b18b9f1268e341a5773651af84a5cbbd204468a3fd",
          "blockNumber": "0x32b1f6",
          "blockTimestamp": "0x67a9955c",
          "transactionHash": "0x2b293126f513737e8c9e336a77d8635144bfe28e8431987b0bf9d95ef75089e7",
          "transactionIndex": "0x25",
          "logIndex": "0x123",
          "removed": false
        }
      ],
      "logsBloom": "0x00000000000000000000000000000000000000000000000000000000000100000000000000000000000020000000000001000000000000000000000000200000000000000000000000000000000000000000000000000000000000000000000000100000000010000000000000000000000000000000000000000000000000000000000000000000000000000000000200000000000000000000000000000000030000000000000000000000000000000000000000000000000000000000000000000000000000000000000000000000000000000000000000000000000000000010000000000020000000000000000000000000000000000000000000004000",
      "type": "0x2",
      "transactionHash": "0x2b293126f513737e8c9e336a77d8635144bfe28e8431987b0bf9d95ef75089e7",
      "transactionIndex": "0x25",
      "blockHash": "0xb4b7485accbbfd0f6e0003b18b9f1268e341a5773651af84a5cbbd204468a3fd",
      "blockNumber": "0x32b1f6",
      "gasUsed": "0xb39d",
      "effectiveGasPrice": "0xf424a",
      "from": "0xe355d5d8aa52ef0fbbd037c4a3c5e6fd659cf46b",
      "to": "0x74e0709b2007bd0bede3e1c227088239a4df51f9",
      "contractAddress": null
    },
    {
      "status": "0x1",
      "cumulativeGasUsed": "0x1edaf35",
      "logs": [
        {
          "address": "0x74e0709b2007bd0bede3e1c227088239a4df51f9",
          "topics": [
            "0xddf252ad1be2c89b69c2b068fc378daa952ba7f163c4a11628f55a4df523b3ef",
            "0x000000000000000000000000e355d5d8aa52ef0fbbd037c4a3c5e6fd659cf46b",
            "0x000000000000000000000000959d4521bd48b6487d415aad576af2222adb1a92"
          ],
          "data": "0x00000000000000000000000000000000000000000000028a857425466f800000",
          "blockHash": "0xb4b7485accbbfd0f6e0003b18b9f1268e341a5773651af84a5cbbd204468a3fd",
          "blockNumber": "0x32b1f6",
          "blockTimestamp": "0x67a9955c",
          "transactionHash": "0x39afbcc5a322eb49f630591e908d69be2af54f796705ea963385509f790e3d2c",
          "transactionIndex": "0x26",
          "logIndex": "0x124",
          "removed": false
        },
        {
          "address": "0x74e0709b2007bd0bede3e1c227088239a4df51f9",
          "topics": [
            "0x8c5be1e5ebec7d5bd14f71427d1e84f3dd0314c0f7b2291e5b200ac8c7c3b925",
            "0x000000000000000000000000959d4521bd48b6487d415aad576af2222adb1a92",
            "0x000000000000000000000000a05ed08316b03e73b8007ddfae841ab29f10b3c1"
          ],
          "data": "0x00000000000000000000000000000000000000000000028a857425466f800000",
          "blockHash": "0xb4b7485accbbfd0f6e0003b18b9f1268e341a5773651af84a5cbbd204468a3fd",
          "blockNumber": "0x32b1f6",
          "blockTimestamp": "0x67a9955c",
          "transactionHash": "0x39afbcc5a322eb49f630591e908d69be2af54f796705ea963385509f790e3d2c",
          "transactionIndex": "0x26",
          "logIndex": "0x125",
          "removed": false
        },
        {
          "address": "0x74e0709b2007bd0bede3e1c227088239a4df51f9",
          "topics": [
            "0xddf252ad1be2c89b69c2b068fc378daa952ba7f163c4a11628f55a4df523b3ef",
            "0x000000000000000000000000959d4521bd48b6487d415aad576af2222adb1a92",
            "0x000000000000000000000000a05ed08316b03e73b8007ddfae841ab29f10b3c1"
          ],
          "data": "0x00000000000000000000000000000000000000000000028a857425466f800000",
          "blockHash": "0xb4b7485accbbfd0f6e0003b18b9f1268e341a5773651af84a5cbbd204468a3fd",
          "blockNumber": "0x32b1f6",
          "blockTimestamp": "0x67a9955c",
          "transactionHash": "0x39afbcc5a322eb49f630591e908d69be2af54f796705ea963385509f790e3d2c",
          "transactionIndex": "0x26",
          "logIndex": "0x126",
          "removed": false
        },
        {
          "address": "0xa05ed08316b03e73b8007ddfae841ab29f10b3c1",
          "topics": [
            "0xddf252ad1be2c89b69c2b068fc378daa952ba7f163c4a11628f55a4df523b3ef",
            "0x0000000000000000000000000000000000000000000000000000000000000000",
            "0x000000000000000000000000959d4521bd48b6487d415aad576af2222adb1a92",
            "0x0000000000000000000000000000000000000000000000000000000000000021"
          ],
          "data": "0x",
          "blockHash": "0xb4b7485accbbfd0f6e0003b18b9f1268e341a5773651af84a5cbbd204468a3fd",
          "blockNumber": "0x32b1f6",
          "blockTimestamp": "0x67a9955c",
          "transactionHash": "0x39afbcc5a322eb49f630591e908d69be2af54f796705ea963385509f790e3d2c",
          "transactionIndex": "0x26",
          "logIndex": "0x127",
          "removed": false
        },
        {
          "address": "0xaaf7c47b8f06d2532eeca6cb4d89bf1487808d33",
          "topics": [
            "0xddf252ad1be2c89b69c2b068fc378daa952ba7f163c4a11628f55a4df523b3ef",
            "0x0000000000000000000000000000000000000000000000000000000000000000",
            "0x0000000000000000000000007ab945445958819a74b48e8bd5f9e39ed74bde9e"
          ],
          "data": "0x00000000000000000000000000000000000000000000000000000000001fe2fd",
          "blockHash": "0xb4b7485accbbfd0f6e0003b18b9f1268e341a5773651af84a5cbbd204468a3fd",
          "blockNumber": "0x32b1f6",
          "blockTimestamp": "0x67a9955c",
          "transactionHash": "0x39afbcc5a322eb49f630591e908d69be2af54f796705ea963385509f790e3d2c",
          "transactionIndex": "0x26",
          "logIndex": "0x128",
          "removed": false
        },
        {
          "address": "0xaaf7c47b8f06d2532eeca6cb4d89bf1487808d33",
          "topics": [
            "0xddf252ad1be2c89b69c2b068fc378daa952ba7f163c4a11628f55a4df523b3ef",
            "0x0000000000000000000000000000000000000000000000000000000000000000",
            "0x000000000000000000000000959d4521bd48b6487d415aad576af2222adb1a92"
          ],
          "data": "0x00000000000000000000000000000000000000000000000000000001fa83d203",
          "blockHash": "0xb4b7485accbbfd0f6e0003b18b9f1268e341a5773651af84a5cbbd204468a3fd",
          "blockNumber": "0x32b1f6",
          "blockTimestamp": "0x67a9955c",
          "transactionHash": "0x39afbcc5a322eb49f630591e908d69be2af54f796705ea963385509f790e3d2c",
          "transactionIndex": "0x26",
          "logIndex": "0x129",
          "removed": false
        },
        {
          "address": "0x645ef85b26a8ee16d4858725045900acab7de005",
          "topics": [
            "0x4df3b19e819480e8ca2aff222a35ef1641eedcaf2f0fe5e7bfe9ca499548df80",
            "0x000000000000000000000000959d4521bd48b6487d415aad576af2222adb1a92",
            "0x000000000000000000000000959d4521bd48b6487d415aad576af2222adb1a92",
            "0x0000000000000000000000000000000000000000000000000000000000000021"
          ],
          "data": "0x00000000000000000000000000000000000000000000000000000001faa3b50000000000000000000000000000000000000000000000000000000001fa83d20300000000000000000000000000000000000000000000000000000000001fe2fd0000000000000000000000000000000000000000000000000000000000000080000000000000000000000000000000000000000000000000000000000000002000000000000000000000000000000000000000000000028a857425466f800000",
          "blockHash": "0xb4b7485accbbfd0f6e0003b18b9f1268e341a5773651af84a5cbbd204468a3fd",
          "blockNumber": "0x32b1f6",
          "blockTimestamp": "0x67a9955c",
          "transactionHash": "0x39afbcc5a322eb49f630591e908d69be2af54f796705ea963385509f790e3d2c",
          "transactionIndex": "0x26",
          "logIndex": "0x12a",
          "removed": false
        },
        {
          "address": "0xaaf7c47b8f06d2532eeca6cb4d89bf1487808d33",
          "topics": [
            "0x8c5be1e5ebec7d5bd14f71427d1e84f3dd0314c0f7b2291e5b200ac8c7c3b925",
            "0x000000000000000000000000959d4521bd48b6487d415aad576af2222adb1a92",
            "0x000000000000000000000000031fecf98032ab1b2601b32cd9487b1aabae573c"
          ],
          "data": "0x00000000000000000000000000000000000000000000000000000001fe5fa6b1",
          "blockHash": "0xb4b7485accbbfd0f6e0003b18b9f1268e341a5773651af84a5cbbd204468a3fd",
          "blockNumber": "0x32b1f6",
          "blockTimestamp": "0x67a9955c",
          "transactionHash": "0x39afbcc5a322eb49f630591e908d69be2af54f796705ea963385509f790e3d2c",
          "transactionIndex": "0x26",
          "logIndex": "0x12b",
          "removed": false
        },
        {
          "address": "0xaaf7c47b8f06d2532eeca6cb4d89bf1487808d33",
          "topics": [
            "0xddf252ad1be2c89b69c2b068fc378daa952ba7f163c4a11628f55a4df523b3ef",
            "0x000000000000000000000000959d4521bd48b6487d415aad576af2222adb1a92",
            "0x000000000000000000000000031fecf98032ab1b2601b32cd9487b1aabae573c"
          ],
          "data": "0x00000000000000000000000000000000000000000000000000000001f5726c74",
          "blockHash": "0xb4b7485accbbfd0f6e0003b18b9f1268e341a5773651af84a5cbbd204468a3fd",
          "blockNumber": "0x32b1f6",
          "blockTimestamp": "0x67a9955c",
          "transactionHash": "0x39afbcc5a322eb49f630591e908d69be2af54f796705ea963385509f790e3d2c",
          "transactionIndex": "0x26",
          "logIndex": "0x12c",
          "removed": false
        },
        {
          "address": "0xaaf7c47b8f06d2532eeca6cb4d89bf1487808d33",
          "topics": [
            "0x8c5be1e5ebec7d5bd14f71427d1e84f3dd0314c0f7b2291e5b200ac8c7c3b925",
            "0x000000000000000000000000031fecf98032ab1b2601b32cd9487b1aabae573c",
            "0x000000000000000000000000645ef85b26a8ee16d4858725045900acab7de005"
          ],
          "data": "0x00000000000000000000000000000000000000000000000000000001dcd65000",
          "blockHash": "0xb4b7485accbbfd0f6e0003b18b9f1268e341a5773651af84a5cbbd204468a3fd",
          "blockNumber": "0x32b1f6",
          "blockTimestamp": "0x67a9955c",
          "transactionHash": "0x39afbcc5a322eb49f630591e908d69be2af54f796705ea963385509f790e3d2c",
          "transactionIndex": "0x26",
          "logIndex": "0x12d",
          "removed": false
        },
        {
          "address": "0x6c29de485455c46987c52abe867b6f276a1aae02",
          "topics": [
            "0x8c5be1e5ebec7d5bd14f71427d1e84f3dd0314c0f7b2291e5b200ac8c7c3b925",
            "0x000000000000000000000000031fecf98032ab1b2601b32cd9487b1aabae573c",
            "0x000000000000000000000000645ef85b26a8ee16d4858725045900acab7de005"
          ],
          "data": "0x00000000000000000000000000000000000000000000000000000001dcd65000",
          "blockHash": "0xb4b7485accbbfd0f6e0003b18b9f1268e341a5773651af84a5cbbd204468a3fd",
          "blockNumber": "0x32b1f6",
          "blockTimestamp": "0x67a9955c",
          "transactionHash": "0x39afbcc5a322eb49f630591e908d69be2af54f796705ea963385509f790e3d2c",
          "transactionIndex": "0x26",
          "logIndex": "0x12e",
          "removed": false
        },
        {
          "address": "0xaaf7c47b8f06d2532eeca6cb4d89bf1487808d33",
          "topics": [
            "0xddf252ad1be2c89b69c2b068fc378daa952ba7f163c4a11628f55a4df523b3ef",
            "0x000000000000000000000000031fecf98032ab1b2601b32cd9487b1aabae573c",
            "0x000000000000000000000000645ef85b26a8ee16d4858725045900acab7de005"
          ],
          "data": "0x00000000000000000000000000000000000000000000000000000001dcd65000",
          "blockHash": "0xb4b7485accbbfd0f6e0003b18b9f1268e341a5773651af84a5cbbd204468a3fd",
          "blockNumber": "0x32b1f6",
          "blockTimestamp": "0x67a9955c",
          "transactionHash": "0x39afbcc5a322eb49f630591e908d69be2af54f796705ea963385509f790e3d2c",
          "transactionIndex": "0x26",
          "logIndex": "0x12f",
          "removed": false
        },
        {
          "address": "0x6c29de485455c46987c52abe867b6f276a1aae02",
          "topics": [
            "0xddf252ad1be2c89b69c2b068fc378daa952ba7f163c4a11628f55a4df523b3ef",
            "0x000000000000000000000000031fecf98032ab1b2601b32cd9487b1aabae573c",
            "0x000000000000000000000000645ef85b26a8ee16d4858725045900acab7de005"
          ],
          "data": "0x00000000000000000000000000000000000000000000000000000001dcd65000",
          "blockHash": "0xb4b7485accbbfd0f6e0003b18b9f1268e341a5773651af84a5cbbd204468a3fd",
          "blockNumber": "0x32b1f6",
          "blockTimestamp": "0x67a9955c",
          "transactionHash": "0x39afbcc5a322eb49f630591e908d69be2af54f796705ea963385509f790e3d2c",
          "transactionIndex": "0x26",
          "logIndex": "0x130",
          "removed": false
        },
        {
          "address": "0xaaf7c47b8f06d2532eeca6cb4d89bf1487808d33",
          "topics": [
            "0xddf252ad1be2c89b69c2b068fc378daa952ba7f163c4a11628f55a4df523b3ef",
            "0x000000000000000000000000645ef85b26a8ee16d4858725045900acab7de005",
            "0x0000000000000000000000000000000000000000000000000000000000000000"
          ],
          "data": "0x00000000000000000000000000000000000000000000000000000001dcd65000",
          "blockHash": "0xb4b7485accbbfd0f6e0003b18b9f1268e341a5773651af84a5cbbd204468a3fd",
          "blockNumber": "0x32b1f6",
          "blockTimestamp": "0x67a9955c",
          "transactionHash": "0x39afbcc5a322eb49f630591e908d69be2af54f796705ea963385509f790e3d2c",
          "transactionIndex": "0x26",
          "logIndex": "0x131",
          "removed": false
        },
        {
          "address": "0x6c29de485455c46987c52abe867b6f276a1aae02",
          "topics": [
            "0xddf252ad1be2c89b69c2b068fc378daa952ba7f163c4a11628f55a4df523b3ef",
            "0x000000000000000000000000645ef85b26a8ee16d4858725045900acab7de005",
            "0x0000000000000000000000000000000000000000000000000000000000000000"
          ],
          "data": "0x00000000000000000000000000000000000000000000000000000001dcd65000",
          "blockHash": "0xb4b7485accbbfd0f6e0003b18b9f1268e341a5773651af84a5cbbd204468a3fd",
          "blockNumber": "0x32b1f6",
          "blockTimestamp": "0x67a9955c",
          "transactionHash": "0x39afbcc5a322eb49f630591e908d69be2af54f796705ea963385509f790e3d2c",
          "transactionIndex": "0x26",
          "logIndex": "0x132",
          "removed": false
        },
        {
          "address": "0x9445ba66bbdd3cdd48f9077536a05292f2c6d253",
          "topics": [
            "0xddf252ad1be2c89b69c2b068fc378daa952ba7f163c4a11628f55a4df523b3ef",
            "0x000000000000000000000000645ef85b26a8ee16d4858725045900acab7de005",
            "0x000000000000000000000000e355d5d8aa52ef0fbbd037c4a3c5e6fd659cf46b"
          ],
          "data": "0x00000000000000000000000000000000000000000000000000000001dcd65000",
          "blockHash": "0xb4b7485accbbfd0f6e0003b18b9f1268e341a5773651af84a5cbbd204468a3fd",
          "blockNumber": "0x32b1f6",
          "blockTimestamp": "0x67a9955c",
          "transactionHash": "0x39afbcc5a322eb49f630591e908d69be2af54f796705ea963385509f790e3d2c",
          "transactionIndex": "0x26",
          "logIndex": "0x133",
          "removed": false
        },
        {
          "address": "0x645ef85b26a8ee16d4858725045900acab7de005",
          "topics": [
            "0xbac40739b0d4ca32fa2d82fc91630465ba3eddd1598da6fca393b26fb63b9453",
            "0x000000000000000000000000031fecf98032ab1b2601b32cd9487b1aabae573c",
            "0x000000000000000000000000e355d5d8aa52ef0fbbd037c4a3c5e6fd659cf46b"
          ],
          "data": "0x00000000000000000000000000000000000000000000000000000001dcd65000",
          "blockHash": "0xb4b7485accbbfd0f6e0003b18b9f1268e341a5773651af84a5cbbd204468a3fd",
          "blockNumber": "0x32b1f6",
          "blockTimestamp": "0x67a9955c",
          "transactionHash": "0x39afbcc5a322eb49f630591e908d69be2af54f796705ea963385509f790e3d2c",
          "transactionIndex": "0x26",
          "logIndex": "0x134",
          "removed": false
        },
        {
          "address": "0xaaf7c47b8f06d2532eeca6cb4d89bf1487808d33",
          "topics": [
            "0xddf252ad1be2c89b69c2b068fc378daa952ba7f163c4a11628f55a4df523b3ef",
            "0x000000000000000000000000031fecf98032ab1b2601b32cd9487b1aabae573c",
            "0x0000000000000000000000007ab945445958819a74b48e8bd5f9e39ed74bde9e"
          ],
          "data": "0x00000000000000000000000000000000000000000000000000000000009cb81d",
          "blockHash": "0xb4b7485accbbfd0f6e0003b18b9f1268e341a5773651af84a5cbbd204468a3fd",
          "blockNumber": "0x32b1f6",
          "blockTimestamp": "0x67a9955c",
          "transactionHash": "0x39afbcc5a322eb49f630591e908d69be2af54f796705ea963385509f790e3d2c",
          "transactionIndex": "0x26",
          "logIndex": "0x135",
          "removed": false
        },
        {
          "address": "0x031fecf98032ab1b2601b32cd9487b1aabae573c",
          "topics": [
            "0x48054139172b057097b1c514c1e58472e50cc4e9f779f0447d95c62b30403df8",
            "0x000000000000000000000000aaf7c47b8f06d2532eeca6cb4d89bf1487808d33",
            "0x0000000000000000000000009445ba66bbdd3cdd48f9077536a05292f2c6d253"
          ],
          "data": "0x000000000000000000000000959d4521bd48b6487d415aad576af2222adb1a92000000000000000000000000e355d5d8aa52ef0fbbd037c4a3c5e6fd659cf46b00000000000000000000000000000000000000000000000000000001dcd6500000000000000000000000000000000000000000000000000000000001f5726c7400000000000000000000000000000000000000000000000000000000009cb81d",
          "blockHash": "0xb4b7485accbbfd0f6e0003b18b9f1268e341a5773651af84a5cbbd204468a3fd",
          "blockNumber": "0x32b1f6",
          "blockTimestamp": "0x67a9955c",
          "transactionHash": "0x39afbcc5a322eb49f630591e908d69be2af54f796705ea963385509f790e3d2c",
          "transactionIndex": "0x26",
          "logIndex": "0x136",
          "removed": false
        },
        {
          "address": "0xaaf7c47b8f06d2532eeca6cb4d89bf1487808d33",
          "topics": [
            "0x8c5be1e5ebec7d5bd14f71427d1e84f3dd0314c0f7b2291e5b200ac8c7c3b925",
            "0x000000000000000000000000959d4521bd48b6487d415aad576af2222adb1a92",
            "0x000000000000000000000000a05ed08316b03e73b8007ddfae841ab29f10b3c1"
          ],
          "data": "0x000000000000000000000000000000000000000000000000000000000511658f",
          "blockHash": "0xb4b7485accbbfd0f6e0003b18b9f1268e341a5773651af84a5cbbd204468a3fd",
          "blockNumber": "0x32b1f6",
          "blockTimestamp": "0x67a9955c",
          "transactionHash": "0x39afbcc5a322eb49f630591e908d69be2af54f796705ea963385509f790e3d2c",
          "transactionIndex": "0x26",
          "logIndex": "0x137",
          "removed": false
        },
        {
          "address": "0xaaf7c47b8f06d2532eeca6cb4d89bf1487808d33",
          "topics": [
            "0xddf252ad1be2c89b69c2b068fc378daa952ba7f163c4a11628f55a4df523b3ef",
            "0x000000000000000000000000959d4521bd48b6487d415aad576af2222adb1a92",
            "0x000000000000000000000000645ef85b26a8ee16d4858725045900acab7de005"
          ],
          "data": "0x000000000000000000000000000000000000000000000000000000000511658f",
          "blockHash": "0xb4b7485accbbfd0f6e0003b18b9f1268e341a5773651af84a5cbbd204468a3fd",
          "blockNumber": "0x32b1f6",
          "blockTimestamp": "0x67a9955c",
          "transactionHash": "0x39afbcc5a322eb49f630591e908d69be2af54f796705ea963385509f790e3d2c",
          "transactionIndex": "0x26",
          "logIndex": "0x138",
          "removed": false
        },
        {
          "address": "0xa05ed08316b03e73b8007ddfae841ab29f10b3c1",
          "topics": [
            "0x1efbe429bb48635fd7ce810da2f114c950d5bbd6b891af243520cdb08ca9aa67",
            "0x0000000000000000000000000000000000000000000000000000000000000021"
          ],
          "data": "0x000000000000000000000000000000000000000000000000000000000511658f0000000000000000000000000000000000000000000000000000000000000000",
          "blockHash": "0xb4b7485accbbfd0f6e0003b18b9f1268e341a5773651af84a5cbbd204468a3fd",
          "blockNumber": "0x32b1f6",
          "blockTimestamp": "0x67a9955c",
          "transactionHash": "0x39afbcc5a322eb49f630591e908d69be2af54f796705ea963385509f790e3d2c",
          "transactionIndex": "0x26",
          "logIndex": "0x139",
          "removed": false
        },
        {
          "address": "0xa05ed08316b03e73b8007ddfae841ab29f10b3c1",
          "topics": [
            "0xddf252ad1be2c89b69c2b068fc378daa952ba7f163c4a11628f55a4df523b3ef",
            "0x000000000000000000000000959d4521bd48b6487d415aad576af2222adb1a92",
            "0x000000000000000000000000e355d5d8aa52ef0fbbd037c4a3c5e6fd659cf46b",
            "0x0000000000000000000000000000000000000000000000000000000000000021"
          ],
          "data": "0x",
          "blockHash": "0xb4b7485accbbfd0f6e0003b18b9f1268e341a5773651af84a5cbbd204468a3fd",
          "blockNumber": "0x32b1f6",
          "blockTimestamp": "0x67a9955c",
          "transactionHash": "0x39afbcc5a322eb49f630591e908d69be2af54f796705ea963385509f790e3d2c",
          "transactionIndex": "0x26",
          "logIndex": "0x13a",
          "removed": false
        },
        {
          "address": "0x959d4521bd48b6487d415aad576af2222adb1a92",
          "topics": [
            "0xdc3efdf28701077a23ef0beb0f3260ca639658ce2676bbc9d83030fac6ce5612",
            "0x000000000000000000000000645ef85b26a8ee16d4858725045900acab7de005",
            "0x0000000000000000000000000000000000000000000000000000000000000021"
          ],
          "data": "0x000000000000000000000000e355d5d8aa52ef0fbbd037c4a3c5e6fd659cf46b000000000000000000000000e355d5d8aa52ef0fbbd037c4a3c5e6fd659cf46b00000000000000000000000000000000000000000000028a857425466f80000000000000000000000000000000000000000000000000000000000001f5924f7100000000000000000000000000000000000000000000000000000001dcd65000",
          "blockHash": "0xb4b7485accbbfd0f6e0003b18b9f1268e341a5773651af84a5cbbd204468a3fd",
          "blockNumber": "0x32b1f6",
          "blockTimestamp": "0x67a9955c",
          "transactionHash": "0x39afbcc5a322eb49f630591e908d69be2af54f796705ea963385509f790e3d2c",
          "transactionIndex": "0x26",
          "logIndex": "0x13b",
          "removed": false
        }
      ],
      "logsBloom": "0x000000000010100000000000000001000400040800000000000800000001000200000000000000002000280000000000010000000800200000000000022000000000000000000200400000080200000000c0000000001000000000000820000000140000020010000000480000000802000000000000080800000010040000200000000000006040000000000000000200000000008000000420000000000000030000000000000000000000000461000000000800008000020000010080000000000002005000000010000000000000000000000000400800000010100020000010001000000020000000000000000000008000000040000000080000006000",
      "type": "0x2",
      "transactionHash": "0x39afbcc5a322eb49f630591e908d69be2af54f796705ea963385509f790e3d2c",
      "transactionIndex": "0x26",
      "blockHash": "0xb4b7485accbbfd0f6e0003b18b9f1268e341a5773651af84a5cbbd204468a3fd",
      "blockNumber": "0x32b1f6",
      "gasUsed": "0xa1350",
      "effectiveGasPrice": "0xf424a",
      "from": "0xe355d5d8aa52ef0fbbd037c4a3c5e6fd659cf46b",
      "to": "0x959d4521bd48b6487d415aad576af2222adb1a92",
      "contractAddress": null
    },
    {
      "status": "0x1",
      "cumulativeGasUsed": "0x1ee9c8b",
      "logs": [
        {
          "address": "0x74e0709b2007bd0bede3e1c227088239a4df51f9",
          "topics": [
            "0xddf252ad1be2c89b69c2b068fc378daa952ba7f163c4a11628f55a4df523b3ef",
            "0x0000000000000000000000000000000000000000000000000000000000000000",
            "0x000000000000000000000000e355d5d8aa52ef0fbbd037c4a3c5e6fd659cf46b"
          ],
          "data": "0x0000000000000000000000000000000000000000000000056bc75e2d63100000",
          "blockHash": "0xb4b7485accbbfd0f6e0003b18b9f1268e341a5773651af84a5cbbd204468a3fd",
          "blockNumber": "0x32b1f6",
          "blockTimestamp": "0x67a9955c",
          "transactionHash": "0x1a602d0e02f57bbbcefa1aec79373cc385b54b2a40f6f4a8650852ff664c41ec",
          "transactionIndex": "0x28",
          "logIndex": "0x13c",
          "removed": false
        }
      ],
      "logsBloom": "0x00000000000000000000000000000000000000000000000000000000000100000000000000000000000000000000000001000000000000000000000000000000000000000000000000000008000000000000000000000000000000000000000000000000020000000000000000000800000000000000000000000010000000000000000000000000000000000000000200000000000000000000000000000000010000000000000000000000000000000000000000000000000000000000000000000002000000000000000000000000000000000000000000000000000020000000000000000020000000000000000000000000000000000000000000004000",
      "type": "0x2",
      "transactionHash": "0x1a602d0e02f57bbbcefa1aec79373cc385b54b2a40f6f4a8650852ff664c41ec",
      "transactionIndex": "0x28",
      "blockHash": "0xb4b7485accbbfd0f6e0003b18b9f1268e341a5773651af84a5cbbd204468a3fd",
      "blockNumber": "0x32b1f6",
      "gasUsed": "0x9b4e",
      "effectiveGasPrice": "0xf424a",
      "from": "0xe355d5d8aa52ef0fbbd037c4a3c5e6fd659cf46b",
      "to": "0x5ada709210846da33e3866490eafb90b7ea96f7f",
      "contractAddress": null
    },
    {
      "status": "0x1",
      "cumulativeGasUsed": "0x1ef5010",
      "logs": [
        {
          "address": "0x74e0709b2007bd0bede3e1c227088239a4df51f9",
          "topics": [
            "0x8c5be1e5ebec7d5bd14f71427d1e84f3dd0314c0f7b2291e5b200ac8c7c3b925",
            "0x000000000000000000000000e355d5d8aa52ef0fbbd037c4a3c5e6fd659cf46b",
            "0x000000000000000000000000a05ed08316b03e73b8007ddfae841ab29f10b3c1"
          ],
          "data": "0x0000000000000000000000000000000000000000000000056bc75e2d63100000",
          "blockHash": "0xb4b7485accbbfd0f6e0003b18b9f1268e341a5773651af84a5cbbd204468a3fd",
          "blockNumber": "0x32b1f6",
          "blockTimestamp": "0x67a9955c",
          "transactionHash": "0x36fb8c63b6e91d72f7d53c963434848e73e2fb672b8f64774c3026b8820de3f4",
          "transactionIndex": "0x29",
          "logIndex": "0x13d",
          "removed": false
        }
      ],
      "logsBloom": "0x00000000000000000000000000000000000000000000000000000000000100000000000000000000000000000000000001000000000000000000000000200000000000000000000000000000000000000000000000000000000000000000000000000000000000000000000000000000000000000000000000000000000000000000000000000000000000000000000200000000000000000000000000000000030000000000000000000000000000000000000000000000000000000000000000000000000000000010000000000000000000000000000800000000000000000010001000000020000000000000000000000000000000000000000000004000",
      "type": "0x2",
      "transactionHash": "0x36fb8c63b6e91d72f7d53c963434848e73e2fb672b8f64774c3026b8820de3f4",
      "transactionIndex": "0x29",
      "blockHash": "0xb4b7485accbbfd0f6e0003b18b9f1268e341a5773651af84a5cbbd204468a3fd",
      "blockNumber": "0x32b1f6",
      "gasUsed": "0xb385",
      "effectiveGasPrice": "0xf424a",
      "from": "0xe355d5d8aa52ef0fbbd037c4a3c5e6fd659cf46b",
      "to": "0x74e0709b2007bd0bede3e1c227088239a4df51f9",
      "contractAddress": null
    },
    {
      "status": "0x1",
      "cumulativeGasUsed": "0x1f04470",
      "logs": [
        {
          "address": "0x74e0709b2007bd0bede3e1c227088239a4df51f9",
          "topics": [
            "0xddf252ad1be2c89b69c2b068fc378daa952ba7f163c4a11628f55a4df523b3ef",
            "0x000000000000000000000000e355d5d8aa52ef0fbbd037c4a3c5e6fd659cf46b",
            "0x000000000000000000000000a05ed08316b03e73b8007ddfae841ab29f10b3c1"
          ],
          "data": "0x0000000000000000000000000000000000000000000000056bc75e2d63100000",
          "blockHash": "0xb4b7485accbbfd0f6e0003b18b9f1268e341a5773651af84a5cbbd204468a3fd",
          "blockNumber": "0x32b1f6",
          "blockTimestamp": "0x67a9955c",
          "transactionHash": "0x67b9cc7e1ef795d8cfbc4bfb03e5c39a8859e2e5254ba8cf2b5bb0a50a2b7fdc",
          "transactionIndex": "0x2a",
          "logIndex": "0x13e",
          "removed": false
        },
        {
          "address": "0xa05ed08316b03e73b8007ddfae841ab29f10b3c1",
          "topics": [
            "0x7f37e862f2ec2cbe9b0823e61188ca52475f1f16f43051e4b812dbf3089f550f",
            "0x0000000000000000000000000000000000000000000000000000000000000021"
          ],
          "data": "0x0000000000000000000000000000000000000000000000000000000000000020000000000000000000000000000000000000000000000000000000000000002000000000000000000000000000000000000000000000028ff13b8373d2900000",
          "blockHash": "0xb4b7485accbbfd0f6e0003b18b9f1268e341a5773651af84a5cbbd204468a3fd",
          "blockNumber": "0x32b1f6",
          "blockTimestamp": "0x67a9955c",
          "transactionHash": "0x67b9cc7e1ef795d8cfbc4bfb03e5c39a8859e2e5254ba8cf2b5bb0a50a2b7fdc",
          "transactionIndex": "0x2a",
          "logIndex": "0x13f",
          "removed": false
        }
      ],
      "logsBloom": "0x00000000000000000000000000000000000000000000000000000000000100020008000000000000000000000000000001000000000000000000000000000000000000000000000000000008000000000000000000000000000000000020000000000000000000000000000000000002000000000000000000000010040000000000000000000000000000000000000200000000000000000400000000000000010000000000000000000000000000000000000800000000000000000000000000000002000000000010000000000000000000000000000900000000004000000000001000000020000000000000000000000000000000000000000000004000",
      "type": "0x2",
      "transactionHash": "0x67b9cc7e1ef795d8cfbc4bfb03e5c39a8859e2e5254ba8cf2b5bb0a50a2b7fdc",
      "transactionIndex": "0x2a",
      "blockHash": "0xb4b7485accbbfd0f6e0003b18b9f1268e341a5773651af84a5cbbd204468a3fd",
      "blockNumber": "0x32b1f6",
      "gasUsed": "0xf460",
      "effectiveGasPrice": "0xf424a",
      "from": "0xe355d5d8aa52ef0fbbd037c4a3c5e6fd659cf46b",
      "to": "0xa05ed08316b03e73b8007ddfae841ab29f10b3c1",
      "contractAddress": null
    },
    {
      "status": "0x1",
      "cumulativeGasUsed": "0x1f22f23",
      "logs": [
        {
          "address": "0x74e0709b2007bd0bede3e1c227088239a4df51f9",
          "topics": [
            "0xddf252ad1be2c89b69c2b068fc378daa952ba7f163c4a11628f55a4df523b3ef",
            "0x000000000000000000000000a05ed08316b03e73b8007ddfae841ab29f10b3c1",
            "0x000000000000000000000000e355d5d8aa52ef0fbbd037c4a3c5e6fd659cf46b"
          ],
          "data": "0x000000000000000000000000000000000000000000000002b5e3af16b1880000",
          "blockHash": "0xb4b7485accbbfd0f6e0003b18b9f1268e341a5773651af84a5cbbd204468a3fd",
          "blockNumber": "0x32b1f6",
          "blockTimestamp": "0x67a9955c",
          "transactionHash": "0x0d43cf1d8fa99c0291509243af1b274f4ed0e73edbe0399aba0bd36c98f01539",
          "transactionIndex": "0x2b",
          "logIndex": "0x140",
          "removed": false
        },
        {
          "address": "0xa05ed08316b03e73b8007ddfae841ab29f10b3c1",
          "topics": [
            "0x3e7ef85cf4525ca474d34f21240567dc9e13acae18755ad3a51851dfa7b83407",
            "0x0000000000000000000000000000000000000000000000000000000000000021"
          ],
          "data": "0x0000000000000000000000000000000000000000000000000000000000000020000000000000000000000000000000000000000000000000000000000000002000000000000000000000000000000000000000000000028d3b57d45d21080000",
          "blockHash": "0xb4b7485accbbfd0f6e0003b18b9f1268e341a5773651af84a5cbbd204468a3fd",
          "blockNumber": "0x32b1f6",
          "blockTimestamp": "0x67a9955c",
          "transactionHash": "0x0d43cf1d8fa99c0291509243af1b274f4ed0e73edbe0399aba0bd36c98f01539",
          "transactionIndex": "0x2b",
          "logIndex": "0x141",
          "removed": false
        }
      ],
      "logsBloom": "0x00000000000000000000000020000000000000000000000000000000000100020000000000000000000000000000000001000000000000000000000000000000000000000000000000000008000000000000000000000000000000000020000000000000010000000000000000000002000000000000000000000010040000000000000000000000000000000000000200000000000000000400000000000000010000000000000000000000000000000000000800000000000000000000000000000002000000000010000000000000000000000000000800000000000000000000001000000020000000000000000000000000000000000000000000004000",
      "type": "0x2",
      "transactionHash": "0x0d43cf1d8fa99c0291509243af1b274f4ed0e73edbe0399aba0bd36c98f01539",
      "transactionIndex": "0x2b",
      "blockHash": "0xb4b7485accbbfd0f6e0003b18b9f1268e341a5773651af84a5cbbd204468a3fd",
      "blockNumber": "0x32b1f6",
      "gasUsed": "0x1eab3",
      "effectiveGasPrice": "0xf424a",
      "from": "0xe355d5d8aa52ef0fbbd037c4a3c5e6fd659cf46b",
      "to": "0xa05ed08316b03e73b8007ddfae841ab29f10b3c1",
      "contractAddress": null
    },
    {
      "status": "0x1",
      "cumulativeGasUsed": "0x1f2ca41",
      "logs": [
        {
          "address": "0x9445ba66bbdd3cdd48f9077536a05292f2c6d253",
          "topics": [
            "0xddf252ad1be2c89b69c2b068fc378daa952ba7f163c4a11628f55a4df523b3ef",
            "0x0000000000000000000000000000000000000000000000000000000000000000",
            "0x000000000000000000000000e355d5d8aa52ef0fbbd037c4a3c5e6fd659cf46b"
          ],
          "data": "0x000000000000000000000000000000000000000000000000000000001dcd6500",
          "blockHash": "0xb4b7485accbbfd0f6e0003b18b9f1268e341a5773651af84a5cbbd204468a3fd",
          "blockNumber": "0x32b1f6",
          "blockTimestamp": "0x67a9955c",
          "transactionHash": "0x7190aabd9001de244cfe05db128ded069169ccd1f891de727d3c9fd1002b86e1",
          "transactionIndex": "0x2c",
          "logIndex": "0x142",
          "removed": false
        }
      ],
      "logsBloom": "0x00000000000000000000000000000000000000000000000000000000000000000000000000000000000000000000000000000000000000000000000000000000000000000000000000000008000000000000000000000000000000000000000000000000020000000000000000000800000000000000000000000010000000000000000000000000000000000000000200000000000000000000000000000000000000000000000000000000000400000000000800000000000000000080000000000002000000000000000000000000000000000000000000000000000020000000000000000020000000000000000000000000000000000000000000004000",
      "type": "0x2",
      "transactionHash": "0x7190aabd9001de244cfe05db128ded069169ccd1f891de727d3c9fd1002b86e1",
      "transactionIndex": "0x2c",
      "blockHash": "0xb4b7485accbbfd0f6e0003b18b9f1268e341a5773651af84a5cbbd204468a3fd",
      "blockNumber": "0x32b1f6",
      "gasUsed": "0x9b1e",
      "effectiveGasPrice": "0xf424a",
      "from": "0xe355d5d8aa52ef0fbbd037c4a3c5e6fd659cf46b",
      "to": "0x5ada709210846da33e3866490eafb90b7ea96f7f",
      "contractAddress": null
    },
    {
      "status": "0x1",
      "cumulativeGasUsed": "0x1f37d96",
      "logs": [
        {
          "address": "0x9445ba66bbdd3cdd48f9077536a05292f2c6d253",
          "topics": [
            "0x8c5be1e5ebec7d5bd14f71427d1e84f3dd0314c0f7b2291e5b200ac8c7c3b925",
            "0x000000000000000000000000e355d5d8aa52ef0fbbd037c4a3c5e6fd659cf46b",
            "0x000000000000000000000000a05ed08316b03e73b8007ddfae841ab29f10b3c1"
          ],
          "data": "0x000000000000000000000000000000000000000000000000000000001dcd6500",
          "blockHash": "0xb4b7485accbbfd0f6e0003b18b9f1268e341a5773651af84a5cbbd204468a3fd",
          "blockNumber": "0x32b1f6",
          "blockTimestamp": "0x67a9955c",
          "transactionHash": "0x76434c6e15098e6d6b3c5d42ca57a95b69ae14a721ab7cbe5652e342b91faab5",
          "transactionIndex": "0x2d",
          "logIndex": "0x143",
          "removed": false
        }
      ],
      "logsBloom": "0x00000000000000000000000000000000000000000000000000000000000000000000000000000000000000000000000000000000000000000000000000200000000000000000000000000000000000000000000000000000000000000000000000000000000000000000000000000000000000000000000000000000000000000000000000000000000000000000000200000000000000000000000000000000020000000000000000000000000400000000000800000000000000000080000000000000000000000010000000000000000000000000000800000000000000000010001000000020000000000000000000000000000000000000000000004000",
      "type": "0x2",
      "transactionHash": "0x76434c6e15098e6d6b3c5d42ca57a95b69ae14a721ab7cbe5652e342b91faab5",
      "transactionIndex": "0x2d",
      "blockHash": "0xb4b7485accbbfd0f6e0003b18b9f1268e341a5773651af84a5cbbd204468a3fd",
      "blockNumber": "0x32b1f6",
      "gasUsed": "0xb355",
      "effectiveGasPrice": "0xf424a",
      "from": "0xe355d5d8aa52ef0fbbd037c4a3c5e6fd659cf46b",
      "to": "0x9445ba66bbdd3cdd48f9077536a05292f2c6d253",
      "contractAddress": null
    },
    {
      "status": "0x1",
      "cumulativeGasUsed": "0x1f48c18",
      "logs": [
        {
          "address": "0x9445ba66bbdd3cdd48f9077536a05292f2c6d253",
          "topics": [
            "0xddf252ad1be2c89b69c2b068fc378daa952ba7f163c4a11628f55a4df523b3ef",
            "0x000000000000000000000000e355d5d8aa52ef0fbbd037c4a3c5e6fd659cf46b",
            "0x000000000000000000000000645ef85b26a8ee16d4858725045900acab7de005"
          ],
          "data": "0x000000000000000000000000000000000000000000000000000000001dcd6500",
          "blockHash": "0xb4b7485accbbfd0f6e0003b18b9f1268e341a5773651af84a5cbbd204468a3fd",
          "blockNumber": "0x32b1f6",
          "blockTimestamp": "0x67a9955c",
          "transactionHash": "0x189ac96bc84669739b505fd5f60e8e2009ec596ccc95c4990bd4d7331342b45c",
          "transactionIndex": "0x2e",
          "logIndex": "0x144",
          "removed": false
        },
        {
          "address": "0xa05ed08316b03e73b8007ddfae841ab29f10b3c1",
          "topics": [
            "0x1efbe429bb48635fd7ce810da2f114c950d5bbd6b891af243520cdb08ca9aa67",
            "0x0000000000000000000000000000000000000000000000000000000000000021"
          ],
          "data": "0x000000000000000000000000000000000000000000000000000000001dcd65000000000000000000000000000000000000000000000000000000000000000001",
          "blockHash": "0xb4b7485accbbfd0f6e0003b18b9f1268e341a5773651af84a5cbbd204468a3fd",
          "blockNumber": "0x32b1f6",
          "blockTimestamp": "0x67a9955c",
          "transactionHash": "0x189ac96bc84669739b505fd5f60e8e2009ec596ccc95c4990bd4d7331342b45c",
          "transactionIndex": "0x2e",
          "logIndex": "0x145",
          "removed": false
        }
      ],
      "logsBloom": "0x00000000000000000000000000000000000000000000000000000000000000020000000000000000000000000000000000000000000000000000000000000000000000000000000000000008000000000000000000000000000000000020000000000000000000000000000000000002000000000000080000000010040000000000000000000000000000000000000200000000008000000400000000000000000000000000000000000000000400000000000800000000000000000080000000000002004000000000000000000000000000000000400000000000000000000000000000000020000000000000000000008000000040000000000000004000",
      "type": "0x2",
      "transactionHash": "0x189ac96bc84669739b505fd5f60e8e2009ec596ccc95c4990bd4d7331342b45c",
      "transactionIndex": "0x2e",
      "blockHash": "0xb4b7485accbbfd0f6e0003b18b9f1268e341a5773651af84a5cbbd204468a3fd",
      "blockNumber": "0x32b1f6",
      "gasUsed": "0x10e82",
      "effectiveGasPrice": "0xf424a",
      "from": "0xe355d5d8aa52ef0fbbd037c4a3c5e6fd659cf46b",
      "to": "0xa05ed08316b03e73b8007ddfae841ab29f10b3c1",
      "contractAddress": null
    },
    {
      "status": "0x1",
      "cumulativeGasUsed": "0x1f5dcd7",
      "logs": [
        {
          "address": "0xa05ed08316b03e73b8007ddfae841ab29f10b3c1",
          "topics": [
            "0xddf252ad1be2c89b69c2b068fc378daa952ba7f163c4a11628f55a4df523b3ef",
            "0x000000000000000000000000e355d5d8aa52ef0fbbd037c4a3c5e6fd659cf46b",
            "0x0000000000000000000000003996e67b9b9a9013ad24f6dd568646cf1447bbc9",
            "0x0000000000000000000000000000000000000000000000000000000000000021"
          ],
          "data": "0x",
          "blockHash": "0xb4b7485accbbfd0f6e0003b18b9f1268e341a5773651af84a5cbbd204468a3fd",
          "blockNumber": "0x32b1f6",
          "blockTimestamp": "0x67a9955c",
          "transactionHash": "0x781cdb0183efd3f8ba37e1e7a565262d48af5ee7794d34d031d69edf3de7cb4d",
          "transactionIndex": "0x2f",
          "logIndex": "0x146",
          "removed": false
        }
      ],
      "logsBloom": "0x00000000000000000000000000000000000000000000000000000000000000020000000008000000000000000000000000000000000000000000000000000000000000000000000000000008000000000000000000000000000000000020000000000000000000000000000000000002000000000000000000000010040000100000000000000000000000000000000200000000000000000400000000000000000000000000000000000000000000000000000800000000000000000000000000000002000000000000000000000000000000000000000000000000000000000000000000000020000000000000800000000000000000000000000000004000",
      "type": "0x2",
      "transactionHash": "0x781cdb0183efd3f8ba37e1e7a565262d48af5ee7794d34d031d69edf3de7cb4d",
      "transactionIndex": "0x2f",
      "blockHash": "0xb4b7485accbbfd0f6e0003b18b9f1268e341a5773651af84a5cbbd204468a3fd",
      "blockNumber": "0x32b1f6",
      "gasUsed": "0x150bf",
      "effectiveGasPrice": "0xf424a",
      "from": "0xe355d5d8aa52ef0fbbd037c4a3c5e6fd659cf46b",
      "to": "0xa05ed08316b03e73b8007ddfae841ab29f10b3c1",
      "contractAddress": null
    },
    {
      "status": "0x1",
      "cumulativeGasUsed": "0x1f67801",
      "logs": [
        {
          "address": "0x9445ba66bbdd3cdd48f9077536a05292f2c6d253",
          "topics": [
            "0xddf252ad1be2c89b69c2b068fc378daa952ba7f163c4a11628f55a4df523b3ef",
            "0x0000000000000000000000000000000000000000000000000000000000000000",
            "0x000000000000000000000000e355d5d8aa52ef0fbbd037c4a3c5e6fd659cf46b"
          ],
          "data": "0x00000000000000000000000000000000000000000000000000000004a854d100",
          "blockHash": "0xb4b7485accbbfd0f6e0003b18b9f1268e341a5773651af84a5cbbd204468a3fd",
          "blockNumber": "0x32b1f6",
          "blockTimestamp": "0x67a9955c",
          "transactionHash": "0xf692f91b40b3633b5bbbadc85918278c6778670046f722a0069e27aacec4c24c",
          "transactionIndex": "0x30",
          "logIndex": "0x147",
          "removed": false
        }
      ],
      "logsBloom": "0x00000000000000000000000000000000000000000000000000000000000000000000000000000000000000000000000000000000000000000000000000000000000000000000000000000008000000000000000000000000000000000000000000000000020000000000000000000800000000000000000000000010000000000000000000000000000000000000000200000000000000000000000000000000000000000000000000000000000400000000000800000000000000000080000000000002000000000000000000000000000000000000000000000000000020000000000000000020000000000000000000000000000000000000000000004000",
      "type": "0x2",
      "transactionHash": "0xf692f91b40b3633b5bbbadc85918278c6778670046f722a0069e27aacec4c24c",
      "transactionIndex": "0x30",
      "blockHash": "0xb4b7485accbbfd0f6e0003b18b9f1268e341a5773651af84a5cbbd204468a3fd",
      "blockNumber": "0x32b1f6",
      "gasUsed": "0x9b2a",
      "effectiveGasPrice": "0xf424a",
      "from": "0xe355d5d8aa52ef0fbbd037c4a3c5e6fd659cf46b",
      "to": "0x5ada709210846da33e3866490eafb90b7ea96f7f",
      "contractAddress": null
    },
    {
      "status": "0x1",
      "cumulativeGasUsed": "0x1f72b6e",
      "logs": [
        {
          "address": "0x9445ba66bbdd3cdd48f9077536a05292f2c6d253",
          "topics": [
            "0x8c5be1e5ebec7d5bd14f71427d1e84f3dd0314c0f7b2291e5b200ac8c7c3b925",
            "0x000000000000000000000000e355d5d8aa52ef0fbbd037c4a3c5e6fd659cf46b",
            "0x000000000000000000000000959d4521bd48b6487d415aad576af2222adb1a92"
          ],
          "data": "0x00000000000000000000000000000000000000000000000000000004a854d100",
          "blockHash": "0xb4b7485accbbfd0f6e0003b18b9f1268e341a5773651af84a5cbbd204468a3fd",
          "blockNumber": "0x32b1f6",
          "blockTimestamp": "0x67a9955c",
          "transactionHash": "0xefda2a6264c2ac2a0bdc670a82ada34768daa75c07e4168e656540ec5d9eafe8",
          "transactionIndex": "0x31",
          "logIndex": "0x148",
          "removed": false
        }
      ],
      "logsBloom": "0x00000000000000000000000000000000000000000000000000000000000000000000000000000000000020000000000000000000000000000000000000200000000000000000000000000000000000000000000000000000000000000000000000100000000010000000000000000000000000000000000000000000000000000000000000000000000000000000000200000000000000000000000000000000020000000000000000000000000400000000000800000000000000000080000000000000000000000000000000000000000000000000000000000000000000000010000000000020000000000000000000000000000000000000000000004000",
      "type": "0x2",
      "transactionHash": "0xefda2a6264c2ac2a0bdc670a82ada34768daa75c07e4168e656540ec5d9eafe8",
      "transactionIndex": "0x31",
      "blockHash": "0xb4b7485accbbfd0f6e0003b18b9f1268e341a5773651af84a5cbbd204468a3fd",
      "blockNumber": "0x32b1f6",
      "gasUsed": "0xb36d",
      "effectiveGasPrice": "0xf424a",
      "from": "0xe355d5d8aa52ef0fbbd037c4a3c5e6fd659cf46b",
      "to": "0x9445ba66bbdd3cdd48f9077536a05292f2c6d253",
      "contractAddress": null
    },
    {
      "status": "0x1",
      "cumulativeGasUsed": "0x2016305",
      "logs": [
        {
          "address": "0x9445ba66bbdd3cdd48f9077536a05292f2c6d253",
          "topics": [
            "0xddf252ad1be2c89b69c2b068fc378daa952ba7f163c4a11628f55a4df523b3ef",
            "0x000000000000000000000000e355d5d8aa52ef0fbbd037c4a3c5e6fd659cf46b",
            "0x000000000000000000000000959d4521bd48b6487d415aad576af2222adb1a92"
          ],
          "data": "0x00000000000000000000000000000000000000000000000000000004a854d100",
          "blockHash": "0xb4b7485accbbfd0f6e0003b18b9f1268e341a5773651af84a5cbbd204468a3fd",
          "blockNumber": "0x32b1f6",
          "blockTimestamp": "0x67a9955c",
          "transactionHash": "0xd5b8bd8b5f524fa2b4a69ec9ef40df4d21e14a3fbee7aa8d43edf18463785388",
          "transactionIndex": "0x32",
          "logIndex": "0x149",
          "removed": false
        },
        {
          "address": "0x9445ba66bbdd3cdd48f9077536a05292f2c6d253",
          "topics": [
            "0x8c5be1e5ebec7d5bd14f71427d1e84f3dd0314c0f7b2291e5b200ac8c7c3b925",
            "0x000000000000000000000000959d4521bd48b6487d415aad576af2222adb1a92",
            "0x000000000000000000000000031fecf98032ab1b2601b32cd9487b1aabae573c"
          ],
          "data": "0x00000000000000000000000000000000000000000000000000000000003d0900",
          "blockHash": "0xb4b7485accbbfd0f6e0003b18b9f1268e341a5773651af84a5cbbd204468a3fd",
          "blockNumber": "0x32b1f6",
          "blockTimestamp": "0x67a9955c",
          "transactionHash": "0xd5b8bd8b5f524fa2b4a69ec9ef40df4d21e14a3fbee7aa8d43edf18463785388",
          "transactionIndex": "0x32",
          "logIndex": "0x14a",
          "removed": false
        },
        {
          "address": "0x9445ba66bbdd3cdd48f9077536a05292f2c6d253",
          "topics": [
            "0xddf252ad1be2c89b69c2b068fc378daa952ba7f163c4a11628f55a4df523b3ef",
            "0x000000000000000000000000959d4521bd48b6487d415aad576af2222adb1a92",
            "0x000000000000000000000000031fecf98032ab1b2601b32cd9487b1aabae573c"
          ],
          "data": "0x00000000000000000000000000000000000000000000000000000000003d0900",
          "blockHash": "0xb4b7485accbbfd0f6e0003b18b9f1268e341a5773651af84a5cbbd204468a3fd",
          "blockNumber": "0x32b1f6",
          "blockTimestamp": "0x67a9955c",
          "transactionHash": "0xd5b8bd8b5f524fa2b4a69ec9ef40df4d21e14a3fbee7aa8d43edf18463785388",
          "transactionIndex": "0x32",
          "logIndex": "0x14b",
          "removed": false
        },
        {
          "address": "0x9445ba66bbdd3cdd48f9077536a05292f2c6d253",
          "topics": [
            "0x8c5be1e5ebec7d5bd14f71427d1e84f3dd0314c0f7b2291e5b200ac8c7c3b925",
            "0x000000000000000000000000031fecf98032ab1b2601b32cd9487b1aabae573c",
            "0x000000000000000000000000645ef85b26a8ee16d4858725045900acab7de005"
          ],
          "data": "0x00000000000000000000000000000000000000000000000000000000003d0900",
          "blockHash": "0xb4b7485accbbfd0f6e0003b18b9f1268e341a5773651af84a5cbbd204468a3fd",
          "blockNumber": "0x32b1f6",
          "blockTimestamp": "0x67a9955c",
          "transactionHash": "0xd5b8bd8b5f524fa2b4a69ec9ef40df4d21e14a3fbee7aa8d43edf18463785388",
          "transactionIndex": "0x32",
          "logIndex": "0x14c",
          "removed": false
        },
        {
          "address": "0x9445ba66bbdd3cdd48f9077536a05292f2c6d253",
          "topics": [
            "0xddf252ad1be2c89b69c2b068fc378daa952ba7f163c4a11628f55a4df523b3ef",
            "0x000000000000000000000000031fecf98032ab1b2601b32cd9487b1aabae573c",
            "0x000000000000000000000000645ef85b26a8ee16d4858725045900acab7de005"
          ],
          "data": "0x00000000000000000000000000000000000000000000000000000000003d0900",
          "blockHash": "0xb4b7485accbbfd0f6e0003b18b9f1268e341a5773651af84a5cbbd204468a3fd",
          "blockNumber": "0x32b1f6",
          "blockTimestamp": "0x67a9955c",
          "transactionHash": "0xd5b8bd8b5f524fa2b4a69ec9ef40df4d21e14a3fbee7aa8d43edf18463785388",
          "transactionIndex": "0x32",
          "logIndex": "0x14d",
          "removed": false
        },
        {
          "address": "0xaaf7c47b8f06d2532eeca6cb4d89bf1487808d33",
          "topics": [
            "0xddf252ad1be2c89b69c2b068fc378daa952ba7f163c4a11628f55a4df523b3ef",
            "0x0000000000000000000000000000000000000000000000000000000000000000",
            "0x000000000000000000000000031fecf98032ab1b2601b32cd9487b1aabae573c"
          ],
          "data": "0x00000000000000000000000000000000000000000000000000000000003d0900",
          "blockHash": "0xb4b7485accbbfd0f6e0003b18b9f1268e341a5773651af84a5cbbd204468a3fd",
          "blockNumber": "0x32b1f6",
          "blockTimestamp": "0x67a9955c",
          "transactionHash": "0xd5b8bd8b5f524fa2b4a69ec9ef40df4d21e14a3fbee7aa8d43edf18463785388",
          "transactionIndex": "0x32",
          "logIndex": "0x14e",
          "removed": false
        },
        {
          "address": "0x6c29de485455c46987c52abe867b6f276a1aae02",
          "topics": [
            "0xddf252ad1be2c89b69c2b068fc378daa952ba7f163c4a11628f55a4df523b3ef",
            "0x0000000000000000000000000000000000000000000000000000000000000000",
            "0x000000000000000000000000031fecf98032ab1b2601b32cd9487b1aabae573c"
          ],
          "data": "0x00000000000000000000000000000000000000000000000000000000003d0900",
          "blockHash": "0xb4b7485accbbfd0f6e0003b18b9f1268e341a5773651af84a5cbbd204468a3fd",
          "blockNumber": "0x32b1f6",
          "blockTimestamp": "0x67a9955c",
          "transactionHash": "0xd5b8bd8b5f524fa2b4a69ec9ef40df4d21e14a3fbee7aa8d43edf18463785388",
          "transactionIndex": "0x32",
          "logIndex": "0x14f",
          "removed": false
        },
        {
          "address": "0x645ef85b26a8ee16d4858725045900acab7de005",
          "topics": [
            "0xab8530f87dc9b59234c4623bf917212bb2536d647574c8e7e5da92c2ede0c9f8",
            "0x000000000000000000000000031fecf98032ab1b2601b32cd9487b1aabae573c",
            "0x000000000000000000000000031fecf98032ab1b2601b32cd9487b1aabae573c"
          ],
          "data": "0x00000000000000000000000000000000000000000000000000000000003d0900",
          "blockHash": "0xb4b7485accbbfd0f6e0003b18b9f1268e341a5773651af84a5cbbd204468a3fd",
          "blockNumber": "0x32b1f6",
          "blockTimestamp": "0x67a9955c",
          "transactionHash": "0xd5b8bd8b5f524fa2b4a69ec9ef40df4d21e14a3fbee7aa8d43edf18463785388",
          "transactionIndex": "0x32",
          "logIndex": "0x150",
          "removed": false
        },
        {
          "address": "0x6c29de485455c46987c52abe867b6f276a1aae02",
          "topics": [
            "0xddf252ad1be2c89b69c2b068fc378daa952ba7f163c4a11628f55a4df523b3ef",
            "0x000000000000000000000000031fecf98032ab1b2601b32cd9487b1aabae573c",
            "0x000000000000000000000000959d4521bd48b6487d415aad576af2222adb1a92"
          ],
          "data": "0x0000000000000000000000000000000000000000000000000000000004d936e8",
          "blockHash": "0xb4b7485accbbfd0f6e0003b18b9f1268e341a5773651af84a5cbbd204468a3fd",
          "blockNumber": "0x32b1f6",
          "blockTimestamp": "0x67a9955c",
          "transactionHash": "0xd5b8bd8b5f524fa2b4a69ec9ef40df4d21e14a3fbee7aa8d43edf18463785388",
          "transactionIndex": "0x32",
          "logIndex": "0x151",
          "removed": false
        },
        {
          "address": "0xaaf7c47b8f06d2532eeca6cb4d89bf1487808d33",
          "topics": [
            "0xddf252ad1be2c89b69c2b068fc378daa952ba7f163c4a11628f55a4df523b3ef",
            "0x000000000000000000000000031fecf98032ab1b2601b32cd9487b1aabae573c",
            "0x0000000000000000000000007ab945445958819a74b48e8bd5f9e39ed74bde9e"
          ],
          "data": "0x00000000000000000000000000000000000000000000000000000000000184af",
          "blockHash": "0xb4b7485accbbfd0f6e0003b18b9f1268e341a5773651af84a5cbbd204468a3fd",
          "blockNumber": "0x32b1f6",
          "blockTimestamp": "0x67a9955c",
          "transactionHash": "0xd5b8bd8b5f524fa2b4a69ec9ef40df4d21e14a3fbee7aa8d43edf18463785388",
          "transactionIndex": "0x32",
          "logIndex": "0x152",
          "removed": false
        },
        {
          "address": "0x031fecf98032ab1b2601b32cd9487b1aabae573c",
          "topics": [
            "0xafc472950ba0847ac0541a7d71ad9977d695e4dba0cc223dba88d5fa8609732a",
            "0x0000000000000000000000009445ba66bbdd3cdd48f9077536a05292f2c6d253",
            "0x0000000000000000000000006c29de485455c46987c52abe867b6f276a1aae02"
          ],
          "data": "0x000000000000000000000000959d4521bd48b6487d415aad576af2222adb1a92000000000000000000000000959d4521bd48b6487d415aad576af2222adb1a9200000000000000000000000000000000000000000000000000000000003d09000000000000000000000000000000000000000000000000000000000004d936e800000000000000000000000000000000000000000000000000000000000184af",
          "blockHash": "0xb4b7485accbbfd0f6e0003b18b9f1268e341a5773651af84a5cbbd204468a3fd",
          "blockNumber": "0x32b1f6",
          "blockTimestamp": "0x67a9955c",
          "transactionHash": "0xd5b8bd8b5f524fa2b4a69ec9ef40df4d21e14a3fbee7aa8d43edf18463785388",
          "transactionIndex": "0x32",
          "logIndex": "0x153",
          "removed": false
        },
        {
          "address": "0x6c29de485455c46987c52abe867b6f276a1aae02",
          "topics": [
            "0x8c5be1e5ebec7d5bd14f71427d1e84f3dd0314c0f7b2291e5b200ac8c7c3b925",
            "0x000000000000000000000000959d4521bd48b6487d415aad576af2222adb1a92",
            "0x000000000000000000000000645ef85b26a8ee16d4858725045900acab7de005"
          ],
          "data": "0x0000000000000000000000000000000000000000000000000000000004d936e8",
          "blockHash": "0xb4b7485accbbfd0f6e0003b18b9f1268e341a5773651af84a5cbbd204468a3fd",
          "blockNumber": "0x32b1f6",
          "blockTimestamp": "0x67a9955c",
          "transactionHash": "0xd5b8bd8b5f524fa2b4a69ec9ef40df4d21e14a3fbee7aa8d43edf18463785388",
          "transactionIndex": "0x32",
          "logIndex": "0x154",
          "removed": false
        },
        {
          "address": "0x6c29de485455c46987c52abe867b6f276a1aae02",
          "topics": [
            "0xddf252ad1be2c89b69c2b068fc378daa952ba7f163c4a11628f55a4df523b3ef",
            "0x000000000000000000000000959d4521bd48b6487d415aad576af2222adb1a92",
            "0x000000000000000000000000645ef85b26a8ee16d4858725045900acab7de005"
          ],
          "data": "0x0000000000000000000000000000000000000000000000000000000004d936e8",
          "blockHash": "0xb4b7485accbbfd0f6e0003b18b9f1268e341a5773651af84a5cbbd204468a3fd",
          "blockNumber": "0x32b1f6",
          "blockTimestamp": "0x67a9955c",
          "transactionHash": "0xd5b8bd8b5f524fa2b4a69ec9ef40df4d21e14a3fbee7aa8d43edf18463785388",
          "transactionIndex": "0x32",
          "logIndex": "0x155",
          "removed": false
        },
        {
          "address": "0x9445ba66bbdd3cdd48f9077536a05292f2c6d253",
          "topics": [
            "0xddf252ad1be2c89b69c2b068fc378daa952ba7f163c4a11628f55a4df523b3ef",
            "0x000000000000000000000000645ef85b26a8ee16d4858725045900acab7de005",
            "0x000000000000000000000000959d4521bd48b6487d415aad576af2222adb1a92"
          ],
          "data": "0x0000000000000000000000000000000000000000000000000000000004d936e8",
          "blockHash": "0xb4b7485accbbfd0f6e0003b18b9f1268e341a5773651af84a5cbbd204468a3fd",
          "blockNumber": "0x32b1f6",
          "blockTimestamp": "0x67a9955c",
          "transactionHash": "0xd5b8bd8b5f524fa2b4a69ec9ef40df4d21e14a3fbee7aa8d43edf18463785388",
          "transactionIndex": "0x32",
          "logIndex": "0x156",
          "removed": false
        },
        {
          "address": "0x9445ba66bbdd3cdd48f9077536a05292f2c6d253",
          "topics": [
            "0xddf252ad1be2c89b69c2b068fc378daa952ba7f163c4a11628f55a4df523b3ef",
            "0x000000000000000000000000959d4521bd48b6487d415aad576af2222adb1a92",
            "0x000000000000000000000000e355d5d8aa52ef0fbbd037c4a3c5e6fd659cf46b"
          ],
          "data": "0x00000000000000000000000000000000000000000000000000000004acf0fee8",
          "blockHash": "0xb4b7485accbbfd0f6e0003b18b9f1268e341a5773651af84a5cbbd204468a3fd",
          "blockNumber": "0x32b1f6",
          "blockTimestamp": "0x67a9955c",
          "transactionHash": "0xd5b8bd8b5f524fa2b4a69ec9ef40df4d21e14a3fbee7aa8d43edf18463785388",
          "transactionIndex": "0x32",
          "logIndex": "0x157",
          "removed": false
        },
        {
          "address": "0x74e0709b2007bd0bede3e1c227088239a4df51f9",
          "topics": [
            "0xddf252ad1be2c89b69c2b068fc378daa952ba7f163c4a11628f55a4df523b3ef",
            "0x0000000000000000000000000000000000000000000000000000000000000000",
            "0x000000000000000000000000959d4521bd48b6487d415aad576af2222adb1a92"
          ],
          "data": "0x00000000000000000000000000000000000000000000049f4614a1df436a8b21",
          "blockHash": "0xb4b7485accbbfd0f6e0003b18b9f1268e341a5773651af84a5cbbd204468a3fd",
          "blockNumber": "0x32b1f6",
          "blockTimestamp": "0x67a9955c",
          "transactionHash": "0xd5b8bd8b5f524fa2b4a69ec9ef40df4d21e14a3fbee7aa8d43edf18463785388",
          "transactionIndex": "0x32",
          "logIndex": "0x158",
          "removed": false
        },
        {
          "address": "0x74e0709b2007bd0bede3e1c227088239a4df51f9",
          "topics": [
            "0x8c5be1e5ebec7d5bd14f71427d1e84f3dd0314c0f7b2291e5b200ac8c7c3b925",
            "0x000000000000000000000000959d4521bd48b6487d415aad576af2222adb1a92",
            "0x000000000000000000000000a05ed08316b03e73b8007ddfae841ab29f10b3c1"
          ],
          "data": "0x00000000000000000000000000000000000000000000049f4614a1df436a8b21",
          "blockHash": "0xb4b7485accbbfd0f6e0003b18b9f1268e341a5773651af84a5cbbd204468a3fd",
          "blockNumber": "0x32b1f6",
          "blockTimestamp": "0x67a9955c",
          "transactionHash": "0xd5b8bd8b5f524fa2b4a69ec9ef40df4d21e14a3fbee7aa8d43edf18463785388",
          "transactionIndex": "0x32",
          "logIndex": "0x159",
          "removed": false
        },
        {
          "address": "0x74e0709b2007bd0bede3e1c227088239a4df51f9",
          "topics": [
            "0xddf252ad1be2c89b69c2b068fc378daa952ba7f163c4a11628f55a4df523b3ef",
            "0x000000000000000000000000959d4521bd48b6487d415aad576af2222adb1a92",
            "0x000000000000000000000000a05ed08316b03e73b8007ddfae841ab29f10b3c1"
          ],
          "data": "0x00000000000000000000000000000000000000000000049f4614a1df436a8b21",
          "blockHash": "0xb4b7485accbbfd0f6e0003b18b9f1268e341a5773651af84a5cbbd204468a3fd",
          "blockNumber": "0x32b1f6",
          "blockTimestamp": "0x67a9955c",
          "transactionHash": "0xd5b8bd8b5f524fa2b4a69ec9ef40df4d21e14a3fbee7aa8d43edf18463785388",
          "transactionIndex": "0x32",
          "logIndex": "0x15a",
          "removed": false
        },
        {
          "address": "0xa05ed08316b03e73b8007ddfae841ab29f10b3c1",
          "topics": [
            "0xddf252ad1be2c89b69c2b068fc378daa952ba7f163c4a11628f55a4df523b3ef",
            "0x0000000000000000000000000000000000000000000000000000000000000000",
            "0x000000000000000000000000e355d5d8aa52ef0fbbd037c4a3c5e6fd659cf46b",
            "0x0000000000000000000000000000000000000000000000000000000000000022"
          ],
          "data": "0x",
          "blockHash": "0xb4b7485accbbfd0f6e0003b18b9f1268e341a5773651af84a5cbbd204468a3fd",
          "blockNumber": "0x32b1f6",
          "blockTimestamp": "0x67a9955c",
          "transactionHash": "0xd5b8bd8b5f524fa2b4a69ec9ef40df4d21e14a3fbee7aa8d43edf18463785388",
          "transactionIndex": "0x32",
          "logIndex": "0x15b",
          "removed": false
        },
        {
          "address": "0x6c29de485455c46987c52abe867b6f276a1aae02",
          "topics": [
            "0xddf252ad1be2c89b69c2b068fc378daa952ba7f163c4a11628f55a4df523b3ef",
            "0x000000000000000000000000645ef85b26a8ee16d4858725045900acab7de005",
            "0x0000000000000000000000000000000000000000000000000000000000000000"
          ],
          "data": "0x0000000000000000000000000000000000000000000000000000000004d936e8",
          "blockHash": "0xb4b7485accbbfd0f6e0003b18b9f1268e341a5773651af84a5cbbd204468a3fd",
          "blockNumber": "0x32b1f6",
          "blockTimestamp": "0x67a9955c",
          "transactionHash": "0xd5b8bd8b5f524fa2b4a69ec9ef40df4d21e14a3fbee7aa8d43edf18463785388",
          "transactionIndex": "0x32",
          "logIndex": "0x15c",
          "removed": false
        },
        {
          "address": "0x645ef85b26a8ee16d4858725045900acab7de005",
          "topics": [
            "0x4251709b90c9773e824a607f0c0745f9e4cc7080748151668f30d708cd3a04e6",
            "0x000000000000000000000000959d4521bd48b6487d415aad576af2222adb1a92",
            "0x000000000000000000000000e355d5d8aa52ef0fbbd037c4a3c5e6fd659cf46b",
            "0x0000000000000000000000000000000000000000000000000000000000000022"
          ],
          "data": "0x0000000000000000000000000000000000000000000000000000000004d936e80000000000000000000000000000000000000000000000000000000000000040000000000000000000000000000000000000000000000000000000000000002000000000000000000000000000000000000000000000049f4614a1df436a8b21",
          "blockHash": "0xb4b7485accbbfd0f6e0003b18b9f1268e341a5773651af84a5cbbd204468a3fd",
          "blockNumber": "0x32b1f6",
          "blockTimestamp": "0x67a9955c",
          "transactionHash": "0xd5b8bd8b5f524fa2b4a69ec9ef40df4d21e14a3fbee7aa8d43edf18463785388",
          "transactionIndex": "0x32",
          "logIndex": "0x15d",
          "removed": false
        },
        {
          "address": "0x959d4521bd48b6487d415aad576af2222adb1a92",
          "topics": [
            "0x6cc7689f3960393f975bc636577345ee34fd6fd0b516b15c923e7885e518b098",
            "0x000000000000000000000000645ef85b26a8ee16d4858725045900acab7de005",
            "0x0000000000000000000000000000000000000000000000000000000000000022"
          ],
          "data": "0x000000000000000000000000e355d5d8aa52ef0fbbd037c4a3c5e6fd659cf46b000000000000000000000000e355d5d8aa52ef0fbbd037c4a3c5e6fd659cf46b00000000000000000000000000000000000000000000000000000004a817c8000000000000000000000000000000000000000000000000000000000004d936e80000000000000000000000000000000000000000000000000000000000062e5100000000000000000000000000000000000000000000000000000000000000c0000000000000000000000000000000000000000000000000000000000000002000000000000000000000000000000000000000000000049f4614a1df436a8b21",
          "blockHash": "0xb4b7485accbbfd0f6e0003b18b9f1268e341a5773651af84a5cbbd204468a3fd",
          "blockNumber": "0x32b1f6",
          "blockTimestamp": "0x67a9955c",
          "transactionHash": "0xd5b8bd8b5f524fa2b4a69ec9ef40df4d21e14a3fbee7aa8d43edf18463785388",
          "transactionIndex": "0x32",
          "logIndex": "0x15e",
          "removed": false
        }
      ],
      "logsBloom": "0x02000000001000000000100000000000040004080000000000000100400100000008000000000000200028000000000001000000080000000000000002200000000000000000000040000008020000000040080000001000000001000820000000160040020010000000080000000802000000000000080000000010000000000000030000002040000000000000000200000000000000000400004000000000030000200000000000000000000421000000000800008000000000010080000000000002004000000010000000000000010000000000000800000010100020080010001000000020000000000000000000000000000840000000000000006000",
      "type": "0x2",
      "transactionHash": "0xd5b8bd8b5f524fa2b4a69ec9ef40df4d21e14a3fbee7aa8d43edf18463785388",
      "transactionIndex": "0x32",
      "blockHash": "0xb4b7485accbbfd0f6e0003b18b9f1268e341a5773651af84a5cbbd204468a3fd",
      "blockNumber": "0x32b1f6",
      "gasUsed": "0xa3797",
      "effectiveGasPrice": "0xf424a",
      "from": "0xe355d5d8aa52ef0fbbd037c4a3c5e6fd659cf46b",
      "to": "0x959d4521bd48b6487d415aad576af2222adb1a92",
      "contractAddress": null
    }
  ],
  "libraries": [],
  "pending": [],
  "returns": {},
  "timestamp": 1739167073,
  "chain": 17000,
  "commit": "b4f29b4"
}