{
  "transactions": [
    {
      "hash": "0xc990bb07258c629882c72675a462cbad57c3a75375366663de8f662bd95a9f36",
      "transactionType": "CALL",
      "contractName": null,
      "contractAddress": "0x9498764f0c62257b83a04e2a757de30908ec793d",
      "function": "createMarket(address,bytes32,(address,address,address,address,(address,uint64,(uint32,uint32,uint32,uint32,uint32,uint32)),(address,uint32,uint32,bool),bytes,string,string),uint256)",
      "arguments": [
        "0xC1Ce945e55506B384daDDEf48FA5A78554560ad3",
        "0xd9eb2aaa5f19c272f06ea2b4c8449687a8c2ac90aa2cfba9b3c9de0dca6ca695",
        "(0x5555555555555555555555555555555555555555, 0xb88339CB7199b77E23DB6E890353E22632Ba630f, 0x9498764f0c62257B83A04e2A757De30908EC793d, 0x0000000000000000000000000000000000000000, (0xBbC05565082B3E16298Df1F1c75a8a089bF5161a, 1764468000, (2000000, 2000000, 3000000, 3000000, 10000000, 8000000)), (0x8b2ae4e2070b3E9bf9625FC61290700a2E24A808, 75000000, 60000000, true), 0x000000000000000000000000000000000000000000084595161401484a000000, USDC/WHYPE@30NOV2025, USDC/WHYPE@30NOV2025)",
        "0"
      ],
      "transaction": {
        "from": "0x56e3665038c5f0b56cc7d81ac66c86521274b251",
        "to": "0x9498764f0c62257b83a04e2a757de30908ec793d",
        "gas": "0x17aa9e",
        "value": "0x0",
        "input": "0xdc496c20000000000000000000000000c1ce945e55506b384daddef48fa5a78554560ad3d9eb2aaa5f19c272f06ea2b4c8449687a8c2ac90aa2cfba9b3c9de0dca6ca695000000000000000000000000000000000000000000000000000000000000008000000000000000000000000000000000000000000000000000000000000000000000000000000000000000005555555555555555555555555555555555555555000000000000000000000000b88339cb7199b77e23db6e890353e22632ba630f0000000000000000000000009498764f0c62257b83a04e2a757de30908ec793d0000000000000000000000000000000000000000000000000000000000000000000000000000000000000000bbc05565082b3e16298df1f1c75a8a089bf5161a00000000000000000000000000000000000000000000000000000000692ba52000000000000000000000000000000000000000000000000000000000001e848000000000000000000000000000000000000000000000000000000000001e848000000000000000000000000000000000000000000000000000000000002dc6c000000000000000000000000000000000000000000000000000000000002dc6c0000000000000000000000000000000000000000000000000000000000098968000000000000000000000000000000000000000000000000000000000007a12000000000000000000000000008b2ae4e2070b3e9bf9625fc61290700a2e24a80800000000000000000000000000000000000000000000000000000000047868c000000000000000000000000000000000000000000000000000000000039387000000000000000000000000000000000000000000000000000000000000000001000000000000000000000000000000000000000000000000000000000000026000000000000000000000000000000000000000000000000000000000000002a000000000000000000000000000000000000000000000000000000000000002e00000000000000000000000000000000000000000000000000000000000000020000000000000000000000000000000000000000000084595161401484a0000000000000000000000000000000000000000000000000000000000000000000014555344432f57485950454033304e4f56323032350000000000000000000000000000000000000000000000000000000000000000000000000000000000000014555344432f57485950454033304e4f5632303235000000000000000000000000",
        "nonce": "0x4b",
        "chainId": "0x3e7"
      },
      "additionalContracts": [
        {
          "transactionType": "CREATE2",
          "address": "0x334be57955058cbd1668f674bc4f78065e3673c3",
          "initCode": "0x3d602d80600a3d3981f3363d3d373d3d3d363d7309f2f93a38802aea233da3e5835bf9975c5125ba5af43d82803e903d91602b57fd5bf3"
        },
        {
          "transactionType": "CREATE",
          "address": "0x9e7182c0a5e3804c6ae93d9b48b38e5b98f0e8bd",
          "initCode": "0x3d602d80600a3d3981f3363d3d373d3d3d363d73103402aab421c668175946774020cf249df4f66c5af43d82803e903d91602b57fd5bf3"
        },
        {
          "transactionType": "CREATE",
          "address": "0x5a270493f6a3292dcd4ce83e0fb0e2bb2f03cbc1",
          "initCode": "0x3d602d80600a3d3981f3363d3d373d3d3d363d73103402aab421c668175946774020cf249df4f66c5af43d82803e903d91602b57fd5bf3"
        },
        {
          "transactionType": "CREATE",
          "address": "0xf0636ed8961f41b7a6400eac846bfa0209ab3ec9",
          "initCode": "0x3d602d80600a3d3981f3363d3d373d3d3d363d73de242c98940acdd19b2842555e353c75b64ea2f55af43d82803e903d91602b57fd5bf3"
        }
      ],
      "isFixedGasLimit": false
    }
  ],
  "receipts": [
    {
      "status": "0x1",
      "cumulativeGasUsed": "0x16ea04",
      "logs": [
        {
          "address": "0x334be57955058cbd1668f674bc4f78065e3673c3",
          "topics": [
            "0x8be0079c531659141344cd1fd0a4f28419497f9722a3daafe3b4186f6b6457e0",
            "0x0000000000000000000000000000000000000000000000000000000000000000",
            "0x0000000000000000000000009498764f0c62257b83a04e2a757de30908ec793d"
          ],
          "data": "0x",
          "blockHash": "0x135bd2ad6fdca6b6f914910b6c8a63db1a2ecffa60b0dbb08522aa1ba0d04811",
          "blockNumber": "0xff4347",
          "blockTimestamp": "0x68f24424",
          "transactionHash": "0xc990bb07258c629882c72675a462cbad57c3a75375366663de8f662bd95a9f36",
          "transactionIndex": "0x5",
          "logIndex": "0xa",
          "removed": false
        },
        {
          "address": "0x9e7182c0a5e3804c6ae93d9b48b38e5b98f0e8bd",
          "topics": [
            "0x8be0079c531659141344cd1fd0a4f28419497f9722a3daafe3b4186f6b6457e0",
            "0x0000000000000000000000000000000000000000000000000000000000000000",
            "0x000000000000000000000000334be57955058cbd1668f674bc4f78065e3673c3"
          ],
          "data": "0x",
          "blockHash": "0x135bd2ad6fdca6b6f914910b6c8a63db1a2ecffa60b0dbb08522aa1ba0d04811",
          "blockNumber": "0xff4347",
          "blockTimestamp": "0x68f24424",
          "transactionHash": "0xc990bb07258c629882c72675a462cbad57c3a75375366663de8f662bd95a9f36",
          "transactionIndex": "0x5",
          "logIndex": "0xb",
          "removed": false
        },
        {
          "address": "0x9e7182c0a5e3804c6ae93d9b48b38e5b98f0e8bd",
          "topics": [
            "0xc7f505b2f371ae2175ee4913f4499e1f2633a7b5936321eed1cdaeb6115181d2"
          ],
          "data": "0x0000000000000000000000000000000000000000000000000000000000000001",
          "blockHash": "0x135bd2ad6fdca6b6f914910b6c8a63db1a2ecffa60b0dbb08522aa1ba0d04811",
          "blockNumber": "0xff4347",
          "blockTimestamp": "0x68f24424",
          "transactionHash": "0xc990bb07258c629882c72675a462cbad57c3a75375366663de8f662bd95a9f36",
          "transactionIndex": "0x5",
          "logIndex": "0xc",
          "removed": false
        },
        {
          "address": "0x5a270493f6a3292dcd4ce83e0fb0e2bb2f03cbc1",
          "topics": [
            "0x8be0079c531659141344cd1fd0a4f28419497f9722a3daafe3b4186f6b6457e0",
            "0x0000000000000000000000000000000000000000000000000000000000000000",
            "0x000000000000000000000000334be57955058cbd1668f674bc4f78065e3673c3"
          ],
          "data": "0x",
          "blockHash": "0x135bd2ad6fdca6b6f914910b6c8a63db1a2ecffa60b0dbb08522aa1ba0d04811",
          "blockNumber": "0xff4347",
          "blockTimestamp": "0x68f24424",
          "transactionHash": "0xc990bb07258c629882c72675a462cbad57c3a75375366663de8f662bd95a9f36",
          "transactionIndex": "0x5",
          "logIndex": "0xd",
          "removed": false
        },
        {
          "address": "0x5a270493f6a3292dcd4ce83e0fb0e2bb2f03cbc1",
          "topics": [
            "0xc7f505b2f371ae2175ee4913f4499e1f2633a7b5936321eed1cdaeb6115181d2"
          ],
          "data": "0x0000000000000000000000000000000000000000000000000000000000000001",
          "blockHash": "0x135bd2ad6fdca6b6f914910b6c8a63db1a2ecffa60b0dbb08522aa1ba0d04811",
          "blockNumber": "0xff4347",
          "blockTimestamp": "0x68f24424",
          "transactionHash": "0xc990bb07258c629882c72675a462cbad57c3a75375366663de8f662bd95a9f36",
          "transactionIndex": "0x5",
          "logIndex": "0xe",
          "removed": false
        },
        {
          "address": "0xf0636ed8961f41b7a6400eac846bfa0209ab3ec9",
          "topics": [
            "0x8be0079c531659141344cd1fd0a4f28419497f9722a3daafe3b4186f6b6457e0",
            "0x0000000000000000000000000000000000000000000000000000000000000000",
            "0x000000000000000000000000334be57955058cbd1668f674bc4f78065e3673c3"
          ],
          "data": "0x",
          "blockHash": "0x135bd2ad6fdca6b6f914910b6c8a63db1a2ecffa60b0dbb08522aa1ba0d04811",
          "blockNumber": "0xff4347",
          "blockTimestamp": "0x68f24424",
          "transactionHash": "0xc990bb07258c629882c72675a462cbad57c3a75375366663de8f662bd95a9f36",
          "transactionIndex": "0x5",
          "logIndex": "0xf",
          "removed": false
        },
        {
          "address": "0xf0636ed8961f41b7a6400eac846bfa0209ab3ec9",
          "topics": [
            "0xb9b9678eb655dc35e53e0dd8d16d8ab6470cf94d444f41f83b0ca53ed9c57916"
          ],
          "data": "0x000000000000000000000000000000000000000000084595161401484a000000",
          "blockHash": "0x135bd2ad6fdca6b6f914910b6c8a63db1a2ecffa60b0dbb08522aa1ba0d04811",
          "blockNumber": "0xff4347",
          "blockTimestamp": "0x68f24424",
          "transactionHash": "0xc990bb07258c629882c72675a462cbad57c3a75375366663de8f662bd95a9f36",
          "transactionIndex": "0x5",
          "logIndex": "0x10",
          "removed": false
        },
        {
          "address": "0xf0636ed8961f41b7a6400eac846bfa0209ab3ec9",
          "topics": [
            "0xa641307d9f32d587ba689ec221e043f942c00c1af322d3d7ef590574528155d8",
            "0x000000000000000000000000334be57955058cbd1668f674bc4f78065e3673c3"
          ],
          "data": "0x000000000000000000000000000000000000000000000000000000000000006000000000000000000000000000000000000000000000000000000000000000a000000000000000000000000000000000000000000000000000000000000000e0000000000000000000000000000000000000000000000000000000000000001747543a555344432f57485950454033304e4f5632303235000000000000000000000000000000000000000000000000000000000000000000000000000000001747543a555344432f57485950454033304e4f56323032350000000000000000000000000000000000000000000000000000000000000000000000000000000020000000000000000000000000000000000000000000084595161401484a000000",
          "blockHash": "0x135bd2ad6fdca6b6f914910b6c8a63db1a2ecffa60b0dbb08522aa1ba0d04811",
          "blockNumber": "0xff4347",
          "blockTimestamp": "0x68f24424",
          "transactionHash": "0xc990bb07258c629882c72675a462cbad57c3a75375366663de8f662bd95a9f36",
          "transactionIndex": "0x5",
          "logIndex": "0x11",
          "removed": false
        },
        {
          "address": "0xf0636ed8961f41b7a6400eac846bfa0209ab3ec9",
          "topics": [
            "0xc7f505b2f371ae2175ee4913f4499e1f2633a7b5936321eed1cdaeb6115181d2"
          ],
          "data": "0x0000000000000000000000000000000000000000000000000000000000000001",
          "blockHash": "0x135bd2ad6fdca6b6f914910b6c8a63db1a2ecffa60b0dbb08522aa1ba0d04811",
          "blockNumber": "0xff4347",
          "blockTimestamp": "0x68f24424",
          "transactionHash": "0xc990bb07258c629882c72675a462cbad57c3a75375366663de8f662bd95a9f36",
          "transactionIndex": "0x5",
          "logIndex": "0x12",
          "removed": false
        },
        {
          "address": "0x334be57955058cbd1668f674bc4f78065e3673c3",
          "topics": [
            "0x923c07a7269eb05c7b48c4002081d856ef37b3cbc4c2bae12d7493178477e306",
            "0x0000000000000000000000005555555555555555555555555555555555555555",
            "0x000000000000000000000000b88339cb7199b77e23db6e890353e22632ba630f"
          ],
          "data": "0x00000000000000000000000000000000000000000000000000000000692ba5200000000000000000000000009e7182c0a5e3804c6ae93d9b48b38e5b98f0e8bd0000000000000000000000005a270493f6a3292dcd4ce83e0fb0e2bb2f03cbc1000000000000000000000000f0636ed8961f41b7a6400eac846bfa0209ab3ec9",
          "blockHash": "0x135bd2ad6fdca6b6f914910b6c8a63db1a2ecffa60b0dbb08522aa1ba0d04811",
          "blockNumber": "0xff4347",
          "blockTimestamp": "0x68f24424",
          "transactionHash": "0xc990bb07258c629882c72675a462cbad57c3a75375366663de8f662bd95a9f36",
          "transactionIndex": "0x5",
          "logIndex": "0x13",
          "removed": false
        },
        {
          "address": "0x334be57955058cbd1668f674bc4f78065e3673c3",
          "topics": [
            "0xc7f505b2f371ae2175ee4913f4499e1f2633a7b5936321eed1cdaeb6115181d2"
          ],
          "data": "0x0000000000000000000000000000000000000000000000000000000000000001",
          "blockHash": "0x135bd2ad6fdca6b6f914910b6c8a63db1a2ecffa60b0dbb08522aa1ba0d04811",
          "blockNumber": "0xff4347",
          "blockTimestamp": "0x68f24424",
          "transactionHash": "0xc990bb07258c629882c72675a462cbad57c3a75375366663de8f662bd95a9f36",
          "transactionIndex": "0x5",
          "logIndex": "0x14",
          "removed": false
        },
        {
          "address": "0xc1ce945e55506b384daddef48fa5a78554560ad3",
          "topics": [
            "0x3f544a0e66146e1c515b04e3d00d07fabc299aa08db26f13ae0a2e3797503286",
            "0x000000000000000000000000334be57955058cbd1668f674bc4f78065e3673c3",
            "0x0000000000000000000000005555555555555555555555555555555555555555",
            "0x000000000000000000000000b88339cb7199b77e23db6e890353e22632ba630f"
          ],
          "data": "0x00000000000000000000000000000000000000000000000000000000000000200000000000000000000000005555555555555555555555555555555555555555000000000000000000000000b88339cb7199b77e23db6e890353e22632ba630f0000000000000000000000009498764f0c62257b83a04e2a757de30908ec793d000000000000000000000000de242c98940acdd19b2842555e353c75b64ea2f5000000000000000000000000bbc05565082b3e16298df1f1c75a8a089bf5161a00000000000000000000000000000000000000000000000000000000692ba52000000000000000000000000000000000000000000000000000000000001e848000000000000000000000000000000000000000000000000000000000001e848000000000000000000000000000000000000000000000000000000000002dc6c000000000000000000000000000000000000000000000000000000000002dc6c0000000000000000000000000000000000000000000000000000000000098968000000000000000000000000000000000000000000000000000000000007a12000000000000000000000000008b2ae4e2070b3e9bf9625fc61290700a2e24a80800000000000000000000000000000000000000000000000000000000047868c000000000000000000000000000000000000000000000000000000000039387000000000000000000000000000000000000000000000000000000000000000001000000000000000000000000000000000000000000000000000000000000026000000000000000000000000000000000000000000000000000000000000002a000000000000000000000000000000000000000000000000000000000000002e00000000000000000000000000000000000000000000000000000000000000020000000000000000000000000000000000000000000084595161401484a0000000000000000000000000000000000000000000000000000000000000000000014555344432f57485950454033304e4f56323032350000000000000000000000000000000000000000000000000000000000000000000000000000000000000014555344432f57485950454033304e4f5632303235000000000000000000000000",
          "blockHash": "0x135bd2ad6fdca6b6f914910b6c8a63db1a2ecffa60b0dbb08522aa1ba0d04811",
          "blockNumber": "0xff4347",
          "blockTimestamp": "0x68f24424",
          "transactionHash": "0xc990bb07258c629882c72675a462cbad57c3a75375366663de8f662bd95a9f36",
          "transactionIndex": "0x5",
          "logIndex": "0x15",
          "removed": false
        }
      ],
      "logsBloom": "0x0000000002000000000000000000010000000000000000000080000000000000000000800000010000004000020000800000000004000000000000000000000400000000000000000000000000008000000100000100020200000400000000000000000002000040000002000000080000100900200000000804000000000040000000200000280000080000000000000000000000008000000000000000000000000000000000000000000000000000000000000000002200040020000800000000000000000000800000000000000000000000000400010000000000002000000200080040000000000010000000000c000000000000000000000000000001",
      "type": "0x2",
      "transactionHash": "0xc990bb07258c629882c72675a462cbad57c3a75375366663de8f662bd95a9f36",
      "transactionIndex": "0x5",
      "blockHash": "0x135bd2ad6fdca6b6f914910b6c8a63db1a2ecffa60b0dbb08522aa1ba0d04811",
      "blockNumber": "0xff4347",
      "gasUsed": "0x112255",
      "effectiveGasPrice": "0x1334b88e",
      "from": "0x56e3665038c5f0b56cc7d81ac66c86521274b251",
      "to": "0x9498764f0c62257b83a04e2a757de30908ec793d",
      "contractAddress": null
    }
  ],
  "libraries": [],
  "pending": [],
  "returns": {},
  "timestamp": 1760707621,
  "chain": 999,
  "commit": "eb654c3"
}