{
  "transactions": [
    {
      "hash": "0xe1ef3842c55a0f291fabf183eefba5c9f616089e8e2e85867b7d046ba7ebdd37",
      "transactionType": "CALL",
      "contractName": null,
      "contractAddress": "0xb927b74d5d9c3985d4dcdd62cbffec66cf527faa",
      "function": "addToken(string,string,uint8)",
      "arguments": [
        "\"PT USD0++ 27MAR2025\"",
        "\"PT-USD0++-27MAR2025\"",
        "18"
      ],
      "transaction": {
        "from": "0xe355d5d8aa52ef0fbbd037c4a3c5e6fd659cf46b",
        "to": "0xb927b74d5d9c3985d4dcdd62cbffec66cf527faa",
        "gas": "0x139dd4",
        "value": "0x0",
        "input": "0xf3bdd863000000000000000000000000000000000000000000000000000000000000006000000000000000000000000000000000000000000000000000000000000000a000000000000000000000000000000000000000000000000000000000000000120000000000000000000000000000000000000000000000000000000000000013505420555344302b2b2032374d41523230323500000000000000000000000000000000000000000000000000000000000000000000000000000000000000001350542d555344302b2b2d32374d41523230323500000000000000000000000000",
        "nonce": "0x576",
        "chainId": "0x4268"
      },
      "additionalContracts": [
        {
          "transactionType": "CREATE",
          "address": "0x8a42d2b0e5fdfed3994d9661728d025d21ad682d",
          "initCode": "0x60a0604052346103a757610c3780380380610019816103ab565b9283398101906080818303126103a75780516001600160a01b038116908190036103a75760208201516001600160401b0381116103a7578361005c9184016103d0565b60408301519093906001600160401b0381116103a7576060916100809185016103d0565b92015160ff811681036103a75783516001600160401b0381116102b857600354600181811c9116801561039d575b602082101461029a57601f811161033a575b50602094601f82116001146102d7579481929394955f926102cc575b50508160011b915f199060031b1c1916176003555b82516001600160401b0381116102b857600454600181811c911680156102ae575b602082101461029a57601f8111610237575b506020601f82116001146101d457819293945f926101c9575b50508160011b915f199060031b1c1916176004555b81156101b657600580546001600160a01b03198116841790915560405192906001600160a01b03167f8be0079c531659141344cd1fd0a4f28419497f9722a3daafe3b4186f6b6457e05f80a360805261081590816104228239608051816104460152f35b631e4fbdf760e01b5f525f60045260245ffd5b015190505f8061013d565b601f1982169060045f52805f20915f5b81811061021f57509583600195969710610207575b505050811b01600455610152565b01515f1960f88460031b161c191690555f80806101f9565b9192602060018192868b0151815501940192016101e4565b60045f527f8a35acfbc15ff81a39ae7d344fd709f28e8600b4aa8c65c6b64bfe7fe36bd19b601f830160051c81019160208410610290575b601f0160051c01905b8181106102855750610124565b5f8155600101610278565b909150819061026f565b634e487b7160e01b5f52602260045260245ffd5b90607f1690610112565b634e487b7160e01b5f52604160045260245ffd5b015190505f806100dc565b601f1982169560035f52805f20915f5b8881106103225750836001959697981061030a575b505050811b016003556100f1565b01515f1960f88460031b161c191690555f80806102fc565b919260206001819286850151815501940192016102e7565b60035f527fc2575a0e9e593c00f959f8c92f12db2869c3395a3b0502d05e2516446f71f85b601f830160051c81019160208410610393575b601f0160051c01905b81811061038857506100c0565b5f815560010161037b565b9091508190610372565b90607f16906100ae565b5f80fd5b6040519190601f01601f191682016001600160401b038111838210176102b857604052565b81601f820112156103a7578051906001600160401b0382116102b8576103ff601f8301601f19166020016103ab565b92828452602083830101116103a757815f9260208093018386015e830101529056fe6080806040526004361015610012575f80fd5b5f3560e01c90816306fdde03146105e957508063095ea7b31461056757806318160ddd1461054a57806323b872dd1461046a578063313ce5671461042d57806340c10f191461038b57806370a0823114610354578063715018a6146102f95780638da5cb5b146102d157806395d89b41146101b6578063a9059cbb14610185578063dd62ed3e146101355763f2fde38b146100ab575f80fd5b34610131576020366003190112610131576100c46106e2565b6100cc6107b8565b6001600160a01b0316801561011e57600580546001600160a01b0319811683179091556001600160a01b03167f8be0079c531659141344cd1fd0a4f28419497f9722a3daafe3b4186f6b6457e05f80a3005b631e4fbdf760e01b5f525f60045260245ffd5b5f80fd5b346101315760403660031901126101315761014e6106e2565b6101566106f8565b6001600160a01b039182165f908152600160209081526040808320949093168252928352819020549051908152f35b34610131576040366003190112610131576101ab6101a16106e2565b602435903361070e565b602060405160018152f35b34610131575f366003190112610131576040515f6004548060011c906001811680156102c7575b6020831081146102b3578285529081156102975750600114610242575b50819003601f01601f191681019067ffffffffffffffff82118183101761022e5761022a829182604052826106b8565b0390f35b634e487b7160e01b5f52604160045260245ffd5b905060045f527f8a35acfbc15ff81a39ae7d344fd709f28e8600b4aa8c65c6b64bfe7fe36bd19b5f905b828210610281575060209150820101826101fa565b600181602092548385880101520191019061026c565b90506020925060ff191682840152151560051b820101826101fa565b634e487b7160e01b5f52602260045260245ffd5b91607f16916101dd565b34610131575f366003190112610131576005546040516001600160a01b039091168152602090f35b34610131575f366003190112610131576103116107b8565b600580546001600160a01b031981169091555f906001600160a01b03167f8be0079c531659141344cd1fd0a4f28419497f9722a3daafe3b4186f6b6457e08280a3005b34610131576020366003190112610131576001600160a01b036103756106e2565b165f525f602052602060405f2054604051908152f35b34610131576040366003190112610131576103a46106e2565b6001600160a01b0316602435811561041a57600254908082018092116104065760207fddf252ad1be2c89b69c2b068fc378daa952ba7f163c4a11628f55a4df523b3ef915f9360025584845283825260408420818154019055604051908152a3005b634e487b7160e01b5f52601160045260245ffd5b63ec442f0560e01b5f525f60045260245ffd5b34610131575f36600319011261013157602060405160ff7f0000000000000000000000000000000000000000000000000000000000000000168152f35b34610131576060366003190112610131576104836106e2565b61048b6106f8565b6001600160a01b0382165f8181526001602081815260408084203385529091529091205491936044359392909181016104ca575b506101ab935061070e565b83811061052f57841561051c573315610509576101ab945f52600160205260405f2060018060a01b0333165f526020528360405f2091039055846104bf565b634a1406b160e11b5f525f60045260245ffd5b63e602df0560e01b5f525f60045260245ffd5b8390637dc7a0d960e11b5f523360045260245260445260645ffd5b34610131575f366003190112610131576020600254604051908152f35b34610131576040366003190112610131576105806106e2565b60243590331561051c576001600160a01b031690811561050957335f52600160205260405f20825f526020528060405f20556040519081527f8c5be1e5ebec7d5bd14f71427d1e84f3dd0314c0f7b2291e5b200ac8c7c3b92560203392a3602060405160018152f35b34610131575f366003190112610131575f6003548060011c906001811680156106ae575b6020831081146102b35782855290811561029757506001146106595750819003601f01601f191681019067ffffffffffffffff82118183101761022e5761022a829182604052826106b8565b905060035f527fc2575a0e9e593c00f959f8c92f12db2869c3395a3b0502d05e2516446f71f85b5f905b828210610698575060209150820101826101fa565b6001816020925483858801015201910190610683565b91607f169161060d565b602060409281835280519182918282860152018484015e5f828201840152601f01601f1916010190565b600435906001600160a01b038216820361013157565b602435906001600160a01b038216820361013157565b6001600160a01b03169081156107a5576001600160a01b031691821561041a57815f525f60205260405f205481811061078c57817fddf252ad1be2c89b69c2b068fc378daa952ba7f163c4a11628f55a4df523b3ef92602092855f525f84520360405f2055845f525f825260405f20818154019055604051908152a3565b8263391434e360e21b5f5260045260245260445260645ffd5b634b637e8f60e11b5f525f60045260245ffd5b6005546001600160a01b031633036107cc57565b63118cdaa760e01b5f523360045260245ffdfea2646970667358221220ca252708294b6cc5cfac0887e3aa01a3e0e5a2570f040acf88a4b51f83d1d0b564736f6c634300081b0033000000000000000000000000b927b74d5d9c3985d4dcdd62cbffec66cf527faa000000000000000000000000000000000000000000000000000000000000008000000000000000000000000000000000000000000000000000000000000000c000000000000000000000000000000000000000000000000000000000000000120000000000000000000000000000000000000000000000000000000000000013505420555344302b2b2032374d41523230323500000000000000000000000000000000000000000000000000000000000000000000000000000000000000001350542d555344302b2b2d32374d41523230323500000000000000000000000000"
        },
        {
          "transactionType": "CREATE",
          "address": "0x6cc491586e1bcd6de9e759af4da75a5aa73d47ec",
          "initCode": "0x60803460b857601f61051838819003918201601f19168301916001600160401b0383118484101760bc5780849260209460405283398101031260b857516001600160a01b0381169081900360b857801560a5575f80546001600160a01b031981168317825560405192916001600160a01b03909116907f8be0079c531659141344cd1fd0a4f28419497f9722a3daafe3b4186f6b6457e09080a361044790816100d18239f35b631e4fbdf760e01b5f525f60045260245ffd5b5f80fd5b634e487b7160e01b5f52604160045260245ffdfe6080806040526004361015610012575f80fd5b5f3560e01c908163313ce567146103bc5750806354fd4d50146103a1578063715018a61461034a5780637284e416146102d65780638da5cb5b146102af5780639276e261146101bc5780639a6fc8f51461017a578063f2fde38b146100f15763feaf968c1461007f575f80fd5b346100ed575f3660031901126100ed576001546002546003546004546005546100e9946001600160501b0390811694939291165b604080516001600160501b03968716815260208101959095528401929092526060830152909116608082015290819060a0820190565b0390f35b5f80fd5b346100ed5760203660031901126100ed576004356001600160a01b038116908190036100ed5761011f6103eb565b8015610167575f80546001600160a01b03198116831782556001600160a01b0316907f8be0079c531659141344cd1fd0a4f28419497f9722a3daafe3b4186f6b6457e09080a3005b631e4fbdf760e01b5f525f60045260245ffd5b346100ed5760203660031901126100ed576101936103d5565b506001546002546003546004546005546100e9946001600160501b0390811694939291166100b3565b346100ed5760a03660031901126100ed5760405160a0810181811067ffffffffffffffff82111761029b576040526101f26103d5565b815260208101906024358252604081019060443582526060810160643581526084356001600160501b03811681036100ed576001600160501b03602092818560807f0559884fd3a460db3073b7fc896cc77986f16e378210ded43186175bf646fc5f97019485526102616103eb565b51169687831960015416176001555195866002555160035551918260045551166001600160501b03196005541617600555604051908152a3005b634e487b7160e01b5f52604160045260245ffd5b346100ed575f3660031901126100ed575f546040516001600160a01b039091168152602090f35b346100ed575f3660031901126100ed576040516040810181811067ffffffffffffffff82111761029b57604052600b8152604060208201916a54657374204f7261636c6560a81b83528151928391602083525180918160208501528484015e5f828201840152601f01601f19168101030190f35b346100ed575f3660031901126100ed576103626103eb565b5f80546001600160a01b0319811682556001600160a01b03167f8be0079c531659141344cd1fd0a4f28419497f9722a3daafe3b4186f6b6457e08280a3005b346100ed575f3660031901126100ed57602060405160018152f35b346100ed575f3660031901126100ed5780600860209252f35b600435906001600160501b03821682036100ed57565b5f546001600160a01b031633036103fe57565b63118cdaa760e01b5f523360045260245ffdfea2646970667358221220d7d30919d1f39a5937d74b81652727bc147b889132351f6cbbe2382234a5f48764736f6c634300081b0033000000000000000000000000e355d5d8aa52ef0fbbd037c4a3c5e6fd659cf46b"
        }
      ],
      "isFixedGasLimit": false
    },
    {
      "hash": "0xadddea1061b143862e2e8173902e9bc34bfb6d7882c5e48cc07ba88238047148",
      "transactionType": "CALL",
      "contractName": "MockPriceFeed",
      "contractAddress": "0x6cc491586e1bcd6de9e759af4da75a5aa73d47ec",
      "function": "updateRoundData((uint80,int256,uint256,uint256,uint80))",
      "arguments": [
        "(1, 92000000, 1739447508, 1739447508, 1)"
      ],
      "transaction": {
        "from": "0xe355d5d8aa52ef0fbbd037c4a3c5e6fd659cf46b",
        "to": "0x6cc491586e1bcd6de9e759af4da75a5aa73d47ec",
        "gas": "0x30e5c",
        "value": "0x0",
        "input": "0x9276e261000000000000000000000000000000000000000000000000000000000000000100000000000000000000000000000000000000000000000000000000057bcf000000000000000000000000000000000000000000000000000000000067addcd40000000000000000000000000000000000000000000000000000000067addcd40000000000000000000000000000000000000000000000000000000000000001",
        "nonce": "0x577",
        "chainId": "0x4268"
      },
      "additionalContracts": [],
      "isFixedGasLimit": false
    },
    {
      "hash": "0x63df99a8c31cfc8ed78962982a615aea283407b8165b8be38a12383c1e591f12",
      "transactionType": "CALL",
      "contractName": "MockPriceFeed",
      "contractAddress": "0x6cc491586e1bcd6de9e759af4da75a5aa73d47ec",
      "function": "transferOwnership(address)",
      "arguments": [
        "0x28A5F8dcE17C1760576B442066321f8f9F069731"
      ],
      "transaction": {
        "from": "0xe355d5d8aa52ef0fbbd037c4a3c5e6fd659cf46b",
        "to": "0x6cc491586e1bcd6de9e759af4da75a5aa73d47ec",
        "gas": "0x99dc",
        "value": "0x0",
        "input": "0xf2fde38b00000000000000000000000028a5f8dce17c1760576b442066321f8f9f069731",
        "nonce": "0x578",
        "chainId": "0x4268"
      },
      "additionalContracts": [],
      "isFixedGasLimit": false
    },
    {
      "hash": "0xaca6d08a154bcb1f44efd873c8fe8e167973dca51842339d0f44d122c84883c5",
      "transactionType": "CALL",
      "contractName": null,
      "contractAddress": "0x70207a48a28fcd5111762f570c83c0714fde7443",
      "function": "setOracle(address,(address,address,uint32))",
      "arguments": [
        "0x8A42D2B0e5fDFed3994D9661728d025d21aD682D",
        "(0x6cC491586e1BCd6dE9e759Af4dA75a5Aa73d47eC, 0x6cC491586e1BCd6dE9e759Af4dA75a5Aa73d47eC, 31536000)"
      ],
      "transaction": {
        "from": "0xe355d5d8aa52ef0fbbd037c4a3c5e6fd659cf46b",
        "to": "0x70207a48a28fcd5111762f570c83c0714fde7443",
        "gas": "0x19d83",
        "value": "0x0",
        "input": "0x258e35ab0000000000000000000000008a42d2b0e5fdfed3994d9661728d025d21ad682d0000000000000000000000006cc491586e1bcd6de9e759af4da75a5aa73d47ec0000000000000000000000006cc491586e1bcd6de9e759af4da75a5aa73d47ec0000000000000000000000000000000000000000000000000000000001e13380",
        "nonce": "0x579",
        "chainId": "0x4268"
      },
      "additionalContracts": [],
      "isFixedGasLimit": false
    },
    {
      "hash": "0x2a43b528bfcb97b560f470418e6f30e04866df42c0c0d584c4b40a1f56a00eb2",
      "transactionType": "CALL",
      "contractName": null,
      "contractAddress": "0xb927b74d5d9c3985d4dcdd62cbffec66cf527faa",
      "function": "addToken(string,string,uint8)",
      "arguments": [
        "\"USD Coin\"",
        "\"USDC\"",
        "6"
      ],
      "transaction": {
        "from": "0xe355d5d8aa52ef0fbbd037c4a3c5e6fd659cf46b",
        "to": "0xb927b74d5d9c3985d4dcdd62cbffec66cf527faa",
        "gas": "0x133fc8",
        "value": "0x0",
        "input": "0xf3bdd863000000000000000000000000000000000000000000000000000000000000006000000000000000000000000000000000000000000000000000000000000000a00000000000000000000000000000000000000000000000000000000000000006000000000000000000000000000000000000000000000000000000000000000855534420436f696e00000000000000000000000000000000000000000000000000000000000000000000000000000000000000000000000000000000000000045553444300000000000000000000000000000000000000000000000000000000",
        "nonce": "0x57a",
        "chainId": "0x4268"
      },
      "additionalContracts": [
        {
          "transactionType": "CREATE",
          "address": "0x8f6136b147b49bd6075e5ae60c8c946269fa79e3",
          "initCode": "0x60a0604052346103a757610c3780380380610019816103ab565b9283398101906080818303126103a75780516001600160a01b038116908190036103a75760208201516001600160401b0381116103a7578361005c9184016103d0565b60408301519093906001600160401b0381116103a7576060916100809185016103d0565b92015160ff811681036103a75783516001600160401b0381116102b857600354600181811c9116801561039d575b602082101461029a57601f811161033a575b50602094601f82116001146102d7579481929394955f926102cc575b50508160011b915f199060031b1c1916176003555b82516001600160401b0381116102b857600454600181811c911680156102ae575b602082101461029a57601f8111610237575b506020601f82116001146101d457819293945f926101c9575b50508160011b915f199060031b1c1916176004555b81156101b657600580546001600160a01b03198116841790915560405192906001600160a01b03167f8be0079c531659141344cd1fd0a4f28419497f9722a3daafe3b4186f6b6457e05f80a360805261081590816104228239608051816104460152f35b631e4fbdf760e01b5f525f60045260245ffd5b015190505f8061013d565b601f1982169060045f52805f20915f5b81811061021f57509583600195969710610207575b505050811b01600455610152565b01515f1960f88460031b161c191690555f80806101f9565b9192602060018192868b0151815501940192016101e4565b60045f527f8a35acfbc15ff81a39ae7d344fd709f28e8600b4aa8c65c6b64bfe7fe36bd19b601f830160051c81019160208410610290575b601f0160051c01905b8181106102855750610124565b5f8155600101610278565b909150819061026f565b634e487b7160e01b5f52602260045260245ffd5b90607f1690610112565b634e487b7160e01b5f52604160045260245ffd5b015190505f806100dc565b601f1982169560035f52805f20915f5b8881106103225750836001959697981061030a575b505050811b016003556100f1565b01515f1960f88460031b161c191690555f80806102fc565b919260206001819286850151815501940192016102e7565b60035f527fc2575a0e9e593c00f959f8c92f12db2869c3395a3b0502d05e2516446f71f85b601f830160051c81019160208410610393575b601f0160051c01905b81811061038857506100c0565b5f815560010161037b565b9091508190610372565b90607f16906100ae565b5f80fd5b6040519190601f01601f191682016001600160401b038111838210176102b857604052565b81601f820112156103a7578051906001600160401b0382116102b8576103ff601f8301601f19166020016103ab565b92828452602083830101116103a757815f9260208093018386015e830101529056fe6080806040526004361015610012575f80fd5b5f3560e01c90816306fdde03146105e957508063095ea7b31461056757806318160ddd1461054a57806323b872dd1461046a578063313ce5671461042d57806340c10f191461038b57806370a0823114610354578063715018a6146102f95780638da5cb5b146102d157806395d89b41146101b6578063a9059cbb14610185578063dd62ed3e146101355763f2fde38b146100ab575f80fd5b34610131576020366003190112610131576100c46106e2565b6100cc6107b8565b6001600160a01b0316801561011e57600580546001600160a01b0319811683179091556001600160a01b03167f8be0079c531659141344cd1fd0a4f28419497f9722a3daafe3b4186f6b6457e05f80a3005b631e4fbdf760e01b5f525f60045260245ffd5b5f80fd5b346101315760403660031901126101315761014e6106e2565b6101566106f8565b6001600160a01b039182165f908152600160209081526040808320949093168252928352819020549051908152f35b34610131576040366003190112610131576101ab6101a16106e2565b602435903361070e565b602060405160018152f35b34610131575f366003190112610131576040515f6004548060011c906001811680156102c7575b6020831081146102b3578285529081156102975750600114610242575b50819003601f01601f191681019067ffffffffffffffff82118183101761022e5761022a829182604052826106b8565b0390f35b634e487b7160e01b5f52604160045260245ffd5b905060045f527f8a35acfbc15ff81a39ae7d344fd709f28e8600b4aa8c65c6b64bfe7fe36bd19b5f905b828210610281575060209150820101826101fa565b600181602092548385880101520191019061026c565b90506020925060ff191682840152151560051b820101826101fa565b634e487b7160e01b5f52602260045260245ffd5b91607f16916101dd565b34610131575f366003190112610131576005546040516001600160a01b039091168152602090f35b34610131575f366003190112610131576103116107b8565b600580546001600160a01b031981169091555f906001600160a01b03167f8be0079c531659141344cd1fd0a4f28419497f9722a3daafe3b4186f6b6457e08280a3005b34610131576020366003190112610131576001600160a01b036103756106e2565b165f525f602052602060405f2054604051908152f35b34610131576040366003190112610131576103a46106e2565b6001600160a01b0316602435811561041a57600254908082018092116104065760207fddf252ad1be2c89b69c2b068fc378daa952ba7f163c4a11628f55a4df523b3ef915f9360025584845283825260408420818154019055604051908152a3005b634e487b7160e01b5f52601160045260245ffd5b63ec442f0560e01b5f525f60045260245ffd5b34610131575f36600319011261013157602060405160ff7f0000000000000000000000000000000000000000000000000000000000000000168152f35b34610131576060366003190112610131576104836106e2565b61048b6106f8565b6001600160a01b0382165f8181526001602081815260408084203385529091529091205491936044359392909181016104ca575b506101ab935061070e565b83811061052f57841561051c573315610509576101ab945f52600160205260405f2060018060a01b0333165f526020528360405f2091039055846104bf565b634a1406b160e11b5f525f60045260245ffd5b63e602df0560e01b5f525f60045260245ffd5b8390637dc7a0d960e11b5f523360045260245260445260645ffd5b34610131575f366003190112610131576020600254604051908152f35b34610131576040366003190112610131576105806106e2565b60243590331561051c576001600160a01b031690811561050957335f52600160205260405f20825f526020528060405f20556040519081527f8c5be1e5ebec7d5bd14f71427d1e84f3dd0314c0f7b2291e5b200ac8c7c3b92560203392a3602060405160018152f35b34610131575f366003190112610131575f6003548060011c906001811680156106ae575b6020831081146102b35782855290811561029757506001146106595750819003601f01601f191681019067ffffffffffffffff82118183101761022e5761022a829182604052826106b8565b905060035f527fc2575a0e9e593c00f959f8c92f12db2869c3395a3b0502d05e2516446f71f85b5f905b828210610698575060209150820101826101fa565b6001816020925483858801015201910190610683565b91607f169161060d565b602060409281835280519182918282860152018484015e5f828201840152601f01601f1916010190565b600435906001600160a01b038216820361013157565b602435906001600160a01b038216820361013157565b6001600160a01b03169081156107a5576001600160a01b031691821561041a57815f525f60205260405f205481811061078c57817fddf252ad1be2c89b69c2b068fc378daa952ba7f163c4a11628f55a4df523b3ef92602092855f525f84520360405f2055845f525f825260405f20818154019055604051908152a3565b8263391434e360e21b5f5260045260245260445260645ffd5b634b637e8f60e11b5f525f60045260245ffd5b6005546001600160a01b031633036107cc57565b63118cdaa760e01b5f523360045260245ffdfea2646970667358221220ca252708294b6cc5cfac0887e3aa01a3e0e5a2570f040acf88a4b51f83d1d0b564736f6c634300081b0033000000000000000000000000b927b74d5d9c3985d4dcdd62cbffec66cf527faa000000000000000000000000000000000000000000000000000000000000008000000000000000000000000000000000000000000000000000000000000000c00000000000000000000000000000000000000000000000000000000000000006000000000000000000000000000000000000000000000000000000000000000855534420436f696e00000000000000000000000000000000000000000000000000000000000000000000000000000000000000000000000000000000000000045553444300000000000000000000000000000000000000000000000000000000"
        },
        {
          "transactionType": "CREATE",
          "address": "0x4dc6b9b9123883f563febea9f0f9636296585bf1",
          "initCode": "0x60803460b857601f61051838819003918201601f19168301916001600160401b0383118484101760bc5780849260209460405283398101031260b857516001600160a01b0381169081900360b857801560a5575f80546001600160a01b031981168317825560405192916001600160a01b03909116907f8be0079c531659141344cd1fd0a4f28419497f9722a3daafe3b4186f6b6457e09080a361044790816100d18239f35b631e4fbdf760e01b5f525f60045260245ffd5b5f80fd5b634e487b7160e01b5f52604160045260245ffdfe6080806040526004361015610012575f80fd5b5f3560e01c908163313ce567146103bc5750806354fd4d50146103a1578063715018a61461034a5780637284e416146102d65780638da5cb5b146102af5780639276e261146101bc5780639a6fc8f51461017a578063f2fde38b146100f15763feaf968c1461007f575f80fd5b346100ed575f3660031901126100ed576001546002546003546004546005546100e9946001600160501b0390811694939291165b604080516001600160501b03968716815260208101959095528401929092526060830152909116608082015290819060a0820190565b0390f35b5f80fd5b346100ed5760203660031901126100ed576004356001600160a01b038116908190036100ed5761011f6103eb565b8015610167575f80546001600160a01b03198116831782556001600160a01b0316907f8be0079c531659141344cd1fd0a4f28419497f9722a3daafe3b4186f6b6457e09080a3005b631e4fbdf760e01b5f525f60045260245ffd5b346100ed5760203660031901126100ed576101936103d5565b506001546002546003546004546005546100e9946001600160501b0390811694939291166100b3565b346100ed5760a03660031901126100ed5760405160a0810181811067ffffffffffffffff82111761029b576040526101f26103d5565b815260208101906024358252604081019060443582526060810160643581526084356001600160501b03811681036100ed576001600160501b03602092818560807f0559884fd3a460db3073b7fc896cc77986f16e378210ded43186175bf646fc5f97019485526102616103eb565b51169687831960015416176001555195866002555160035551918260045551166001600160501b03196005541617600555604051908152a3005b634e487b7160e01b5f52604160045260245ffd5b346100ed575f3660031901126100ed575f546040516001600160a01b039091168152602090f35b346100ed575f3660031901126100ed576040516040810181811067ffffffffffffffff82111761029b57604052600b8152604060208201916a54657374204f7261636c6560a81b83528151928391602083525180918160208501528484015e5f828201840152601f01601f19168101030190f35b346100ed575f3660031901126100ed576103626103eb565b5f80546001600160a01b0319811682556001600160a01b03167f8be0079c531659141344cd1fd0a4f28419497f9722a3daafe3b4186f6b6457e08280a3005b346100ed575f3660031901126100ed57602060405160018152f35b346100ed575f3660031901126100ed5780600860209252f35b600435906001600160501b03821682036100ed57565b5f546001600160a01b031633036103fe57565b63118cdaa760e01b5f523360045260245ffdfea2646970667358221220d7d30919d1f39a5937d74b81652727bc147b889132351f6cbbe2382234a5f48764736f6c634300081b0033000000000000000000000000e355d5d8aa52ef0fbbd037c4a3c5e6fd659cf46b"
        }
      ],
      "isFixedGasLimit": false
    },
    {
      "hash": "0x128494ae2db7efb45338b0d3f794029a19a76609e15caefc8c19f774ecac2a32",
      "transactionType": "CALL",
      "contractName": "MockPriceFeed",
      "contractAddress": "0x4dc6b9b9123883f563febea9f0f9636296585bf1",
      "function": "updateRoundData((uint80,int256,uint256,uint256,uint80))",
      "arguments": [
        "(1, 100000000, 1739447508, 1739447508, 1)"
      ],
      "transaction": {
        "from": "0xe355d5d8aa52ef0fbbd037c4a3c5e6fd659cf46b",
        "to": "0x4dc6b9b9123883f563febea9f0f9636296585bf1",
        "gas": "0x30e5c",
        "value": "0x0",
        "input": "0x9276e26100000000000000000000000000000000000000000000000000000000000000010000000000000000000000000000000000000000000000000000000005f5e1000000000000000000000000000000000000000000000000000000000067addcd40000000000000000000000000000000000000000000000000000000067addcd40000000000000000000000000000000000000000000000000000000000000001",
        "nonce": "0x57b",
        "chainId": "0x4268"
      },
      "additionalContracts": [],
      "isFixedGasLimit": false
    },
    {
      "hash": "0xf55cb91470014f3f2993452109ecdbf8b9491a45d06370eb0fa2e7638c7da24d",
      "transactionType": "CALL",
      "contractName": "MockPriceFeed",
      "contractAddress": "0x4dc6b9b9123883f563febea9f0f9636296585bf1",
      "function": "transferOwnership(address)",
      "arguments": [
        "0x28A5F8dcE17C1760576B442066321f8f9F069731"
      ],
      "transaction": {
        "from": "0xe355d5d8aa52ef0fbbd037c4a3c5e6fd659cf46b",
        "to": "0x4dc6b9b9123883f563febea9f0f9636296585bf1",
        "gas": "0x99dc",
        "value": "0x0",
        "input": "0xf2fde38b00000000000000000000000028a5f8dce17c1760576b442066321f8f9f069731",
        "nonce": "0x57c",
        "chainId": "0x4268"
      },
      "additionalContracts": [],
      "isFixedGasLimit": false
    },
    {
      "hash": "0x1265d15fcb6836444c2968842a7348677c122a910a1678e07452fa64bd8088f2",
      "transactionType": "CALL",
      "contractName": null,
      "contractAddress": "0x70207a48a28fcd5111762f570c83c0714fde7443",
      "function": "setOracle(address,(address,address,uint32))",
      "arguments": [
        "0x8f6136B147b49bd6075E5Ae60C8c946269FA79e3",
        "(0x4dc6B9b9123883f563febeA9f0f9636296585bf1, 0x4dc6B9b9123883f563febeA9f0f9636296585bf1, 31536000)"
      ],
      "transaction": {
        "from": "0xe355d5d8aa52ef0fbbd037c4a3c5e6fd659cf46b",
        "to": "0x70207a48a28fcd5111762f570c83c0714fde7443",
        "gas": "0x19d83",
        "value": "0x0",
        "input": "0x258e35ab0000000000000000000000008f6136b147b49bd6075e5ae60c8c946269fa79e30000000000000000000000004dc6b9b9123883f563febea9f0f9636296585bf10000000000000000000000004dc6b9b9123883f563febea9f0f9636296585bf10000000000000000000000000000000000000000000000000000000001e13380",
        "nonce": "0x57d",
        "chainId": "0x4268"
      },
      "additionalContracts": [],
      "isFixedGasLimit": false
    },
    {
      "hash": "0x26565860c7a1c31f20d6b3bdd92b3724fff00981183dcd4319f88113e29a0479",
      "transactionType": "CALL",
      "contractName": null,
      "contractAddress": "0x4e45b67f9a6711c39d04052f766fa2e44d8bdfa5",
      "function": "createMarket(bytes32,(address,address,address,address,(address,uint64,(uint32,uint32,uint32,uint32,uint32,uint32,uint32)),(address,uint32,uint32,bool),bytes,string,string),uint256)",
      "arguments": [
        "0xd9eb2aaa5f19c272f06ea2b4c8449687a8c2ac90aa2cfba9b3c9de0dca6ca695",
        "(0x8A42D2B0e5fDFed3994D9661728d025d21aD682D, 0x8f6136B147b49bd6075E5Ae60C8c946269FA79e3, 0xE355d5D8aa52EF0FbbD037C4a3C5E6Fd659cf46B, 0x0000000000000000000000000000000000000000, (0x7ab945445958819a74b48e8Bd5F9E39ed74bdE9E, 1743120000, (5000000, 2000000, 500000, 2000000, 1000000, 20000000, 0)), (0x70207A48A28Fcd5111762F570C83c0714fDE7443, 84000000, 82000000, true), 0xffffffffffffffffffffffffffffffffffffffffffffffffffffffffffffffff, \"PT-USD0++-27MAR2025/USDC-1743120000\", \"PT-USD0++-27MAR2025/USDC-1743120000\")",
        "0"
      ],
      "transaction": {
        "from": "0xe355d5d8aa52ef0fbbd037c4a3c5e6fd659cf46b",
        "to": "0x4e45b67f9a6711c39d04052f766fa2e44d8bdfa5",
        "gas": "0x1b8c8b",
        "value": "0x0",
        "input": "0xfadeb0f8d9eb2aaa5f19c272f06ea2b4c8449687a8c2ac90aa2cfba9b3c9de0dca6ca695000000000000000000000000000000000000000000000000000000000000006000000000000000000000000000000000000000000000000000000000000000000000000000000000000000008a42d2b0e5fdfed3994d9661728d025d21ad682d0000000000000000000000008f6136b147b49bd6075e5ae60c8c946269fa79e3000000000000000000000000e355d5d8aa52ef0fbbd037c4a3c5e6fd659cf46b00000000000000000000000000000000000000000000000000000000000000000000000000000000000000007ab945445958819a74b48e8bd5f9e39ed74bde9e0000000000000000000000000000000000000000000000000000000067e5e68000000000000000000000000000000000000000000000000000000000004c4b4000000000000000000000000000000000000000000000000000000000001e8480000000000000000000000000000000000000000000000000000000000007a12000000000000000000000000000000000000000000000000000000000001e848000000000000000000000000000000000000000000000000000000000000f42400000000000000000000000000000000000000000000000000000000001312d00000000000000000000000000000000000000000000000000000000000000000000000000000000000000000070207a48a28fcd5111762f570c83c0714fde7443000000000000000000000000000000000000000000000000000000000501bd000000000000000000000000000000000000000000000000000000000004e338800000000000000000000000000000000000000000000000000000000000000001000000000000000000000000000000000000000000000000000000000000028000000000000000000000000000000000000000000000000000000000000002c000000000000000000000000000000000000000000000000000000000000003200000000000000000000000000000000000000000000000000000000000000020ffffffffffffffffffffffffffffffffffffffffffffffffffffffffffffffff000000000000000000000000000000000000000000000000000000000000002350542d555344302b2b2d32374d4152323032352f555344432d313734333132303030300000000000000000000000000000000000000000000000000000000000000000000000000000000000000000000000000000000000000000000000002350542d555344302b2b2d32374d4152323032352f555344432d313734333132303030300000000000000000000000000000000000000000000000000000000000",
        "nonce": "0x57e",
        "chainId": "0x4268"
      },
      "additionalContracts": [
        {
          "transactionType": "CREATE2",
          "address": "0xd0586b5a5f97347c769983c404348346fe26f38e",
          "initCode": "0x3d602d80600a3d3981f3363d3d373d3d3d363d73216907dcdfb74af765af26819add029c62a8f1cc5af43d82803e903d91602b57fd5bf3"
        },
        {
          "transactionType": "CREATE",
          "address": "0x05b4d76a2d2810746983c111dba6daa65983191c",
          "initCode": "0x3d602d80600a3d3981f3363d3d373d3d3d363d73051cca85c27ab0b41c67f56a52750f99b9458b785af43d82803e903d91602b57fd5bf3"
        },
        {
          "transactionType": "CREATE",
          "address": "0xfa60176aa0161128cf3d145b05827ec250fce281",
          "initCode": "0x3d602d80600a3d3981f3363d3d373d3d3d363d73051cca85c27ab0b41c67f56a52750f99b9458b785af43d82803e903d91602b57fd5bf3"
        },
        {
          "transactionType": "CREATE",
          "address": "0x4a662249b6cf35a3af633116131ba2b5cc329687",
          "initCode": "0x3d602d80600a3d3981f3363d3d373d3d3d363d732311005e4220edbb2c4ff300974c6faf142c19c45af43d82803e903d91602b57fd5bf3"
        }
      ],
      "isFixedGasLimit": false
    },
    {
      "hash": "0xd637b1174a0e721307939d12c977bb2cf36781212630e6b6de7a59773ef9a223",
      "transactionType": "CALL",
      "contractName": null,
      "contractAddress": "0xbfccc3c7f739d4ae7ccf680b3fafcfb5bdc4f842",
      "function": "setMarketWhitelist(address,bool)",
      "arguments": [
        "0xD0586B5a5F97347C769983C404348346FE26f38e",
        "true"
      ],
      "transaction": {
        "from": "0xe355d5d8aa52ef0fbbd037c4a3c5e6fd659cf46b",
        "to": "0xbfccc3c7f739d4ae7ccf680b3fafcfb5bdc4f842",
        "gas": "0x11c44",
        "value": "0x0",
        "input": "0x856e648a000000000000000000000000d0586b5a5f97347c769983c404348346fe26f38e0000000000000000000000000000000000000000000000000000000000000001",
        "nonce": "0x57f",
        "chainId": "0x4268"
      },
      "additionalContracts": [],
      "isFixedGasLimit": false
    }
  ],
  "receipts": [
    {
      "status": "0x1",
      "cumulativeGasUsed": "0x52d930",
      "logs": [
        {
          "address": "0x8a42d2b0e5fdfed3994d9661728d025d21ad682d",
          "topics": [
            "0x8be0079c531659141344cd1fd0a4f28419497f9722a3daafe3b4186f6b6457e0",
            "0x0000000000000000000000000000000000000000000000000000000000000000",
            "0x000000000000000000000000b927b74d5d9c3985d4dcdd62cbffec66cf527faa"
          ],
          "data": "0x",
          "blockHash": "0x000e870adf24d04bc8cf215e1e19228af5954ea9ce957a8f5f6f560720b3c4c6",
          "blockNumber": "0x3306c2",
          "blockTimestamp": "0x67addd10",
          "transactionHash": "0xe1ef3842c55a0f291fabf183eefba5c9f616089e8e2e85867b7d046ba7ebdd37",
          "transactionIndex": "0xd",
          "logIndex": "0x10",
          "removed": false
        },
        {
          "address": "0x6cc491586e1bcd6de9e759af4da75a5aa73d47ec",
          "topics": [
            "0x8be0079c531659141344cd1fd0a4f28419497f9722a3daafe3b4186f6b6457e0",
            "0x0000000000000000000000000000000000000000000000000000000000000000",
            "0x000000000000000000000000e355d5d8aa52ef0fbbd037c4a3c5e6fd659cf46b"
          ],
          "data": "0x",
          "blockHash": "0x000e870adf24d04bc8cf215e1e19228af5954ea9ce957a8f5f6f560720b3c4c6",
          "blockNumber": "0x3306c2",
          "blockTimestamp": "0x67addd10",
          "transactionHash": "0xe1ef3842c55a0f291fabf183eefba5c9f616089e8e2e85867b7d046ba7ebdd37",
          "transactionIndex": "0xd",
          "logIndex": "0x11",
          "removed": false
        }
      ],
      "logsBloom": "0x00000000000000000000000000000000000000000000000000800000002000000000000000000080000000000000000000000000000100000000000000000000010000000000000100000000000000000001400000000000000000000000000000000000020000800000000000000800000000000000800000000000000000400000000000000000000000000000000200000000000000000000000000000000000000000000000000000000000000000000000000000000000000000000000000000000000000200000000000000000000000000000000000000000000020000000000000000020000000000000000000000000000000000000000000004000",
      "type": "0x2",
      "transactionHash": "0xe1ef3842c55a0f291fabf183eefba5c9f616089e8e2e85867b7d046ba7ebdd37",
      "transactionIndex": "0xd",
      "blockHash": "0x000e870adf24d04bc8cf215e1e19228af5954ea9ce957a8f5f6f560720b3c4c6",
      "blockNumber": "0x3306c2",
      "gasUsed": "0xe33b7",
      "effectiveGasPrice": "0xf4b55",
      "from": "0xe355d5d8aa52ef0fbbd037c4a3c5e6fd659cf46b",
      "to": "0xb927b74d5d9c3985d4dcdd62cbffec66cf527faa",
      "contractAddress": null
    },
    {
      "status": "0x1",
      "cumulativeGasUsed": "0x54f023",
      "logs": [
        {
          "address": "0x6cc491586e1bcd6de9e759af4da75a5aa73d47ec",
          "topics": [
            "0x0559884fd3a460db3073b7fc896cc77986f16e378210ded43186175bf646fc5f",
            "0x00000000000000000000000000000000000000000000000000000000057bcf00",
            "0x0000000000000000000000000000000000000000000000000000000000000001"
          ],
          "data": "0x0000000000000000000000000000000000000000000000000000000067addcd4",
          "blockHash": "0x000e870adf24d04bc8cf215e1e19228af5954ea9ce957a8f5f6f560720b3c4c6",
          "blockNumber": "0x3306c2",
          "blockTimestamp": "0x67addd10",
          "transactionHash": "0xadddea1061b143862e2e8173902e9bc34bfb6d7882c5e48cc07ba88238047148",
          "transactionIndex": "0xe",
          "logIndex": "0x12",
          "removed": false
        }
      ],
      "logsBloom": "0x00000000000000000000000000000000000000000000000000000000000000000000000000000080000000000000000000000000000200000000000000040000000000000000000100000000000000000000000000040000000000000000000000000000000000800000000000000000000000000000000000000000000000000000000000000000000000000040000000000480000000000000000000000000000000000000000000000000020000000000000000000000000000000000000000000000000000000000000000000000000000000000000000000000000040000000000000000000000000000000000000000000010000000000000000000000",
      "type": "0x2",
      "transactionHash": "0xadddea1061b143862e2e8173902e9bc34bfb6d7882c5e48cc07ba88238047148",
      "transactionIndex": "0xe",
      "blockHash": "0x000e870adf24d04bc8cf215e1e19228af5954ea9ce957a8f5f6f560720b3c4c6",
      "blockNumber": "0x3306c2",
      "gasUsed": "0x216f3",
      "effectiveGasPrice": "0xf4b55",
      "from": "0xe355d5d8aa52ef0fbbd037c4a3c5e6fd659cf46b",
      "to": "0x6cc491586e1bcd6de9e759af4da75a5aa73d47ec",
      "contractAddress": null
    },
    {
      "status": "0x1",
      "cumulativeGasUsed": "0x555f88",
      "logs": [
        {
          "address": "0x6cc491586e1bcd6de9e759af4da75a5aa73d47ec",
          "topics": [
            "0x8be0079c531659141344cd1fd0a4f28419497f9722a3daafe3b4186f6b6457e0",
            "0x000000000000000000000000e355d5d8aa52ef0fbbd037c4a3c5e6fd659cf46b",
            "0x00000000000000000000000028a5f8dce17c1760576b442066321f8f9f069731"
          ],
          "data": "0x",
          "blockHash": "0x000e870adf24d04bc8cf215e1e19228af5954ea9ce957a8f5f6f560720b3c4c6",
          "blockNumber": "0x3306c2",
          "blockTimestamp": "0x67addd10",
          "transactionHash": "0x63df99a8c31cfc8ed78962982a615aea283407b8165b8be38a12383c1e591f12",
          "transactionIndex": "0xf",
          "logIndex": "0x13",
          "removed": false
        }
      ],
      "logsBloom": "0x00000000000000000000000000000000000000000000000000800000000020000000000000000080000000000000000000000000000000000000010000000000000000000000000100000000000800000001000000000000000000000000000000000000000000800000000000000000000000000000000000000000000000400000000000000000000000000000000200000000000000000000000000000000000000000000000000000000000000000000000000000000000000000000000000000000000000000000000000000000000000000000000000000000000000000000000000000020000000000000000000000000000000000000000000004000",
      "type": "0x2",
      "transactionHash": "0x63df99a8c31cfc8ed78962982a615aea283407b8165b8be38a12383c1e591f12",
      "transactionIndex": "0xf",
      "blockHash": "0x000e870adf24d04bc8cf215e1e19228af5954ea9ce957a8f5f6f560720b3c4c6",
      "blockNumber": "0x3306c2",
      "gasUsed": "0x6f65",
      "effectiveGasPrice": "0xf4b55",
      "from": "0xe355d5d8aa52ef0fbbd037c4a3c5e6fd659cf46b",
      "to": "0x6cc491586e1bcd6de9e759af4da75a5aa73d47ec",
      "contractAddress": null
    },
    {
      "status": "0x1",
      "cumulativeGasUsed": "0x568ae8",
      "logs": [
        {
          "address": "0x70207a48a28fcd5111762f570c83c0714fde7443",
          "topics": [
            "0x1fde9522e8fecea62ddfd7a16a09129167e338cfdce86f3b8742a7aacaf34535",
            "0x0000000000000000000000008a42d2b0e5fdfed3994d9661728d025d21ad682d",
            "0x0000000000000000000000006cc491586e1bcd6de9e759af4da75a5aa73d47ec",
            "0x0000000000000000000000006cc491586e1bcd6de9e759af4da75a5aa73d47ec"
          ],
          "data": "0x0000000000000000000000000000000000000000000000000000000001e13380",
          "blockHash": "0x000e870adf24d04bc8cf215e1e19228af5954ea9ce957a8f5f6f560720b3c4c6",
          "blockNumber": "0x3306c2",
          "blockTimestamp": "0x67addd10",
          "transactionHash": "0xaca6d08a154bcb1f44efd873c8fe8e167973dca51842339d0f44d122c84883c5",
          "transactionIndex": "0x10",
          "logIndex": "0x14",
          "removed": false
        }
      ],
      "logsBloom": "0x00000000000000000000000000000000000000000000000000000000000000000000000000000000000000000000000000000000000000000000000000000000000000000000000000000000000000000000000000000000000002000000000000000000000000000000000000000000008000000000000000000000000000002000000000000000000000000020020000000000000000000000000000000000000000000000000000000000000000000000000000000000000020000000040000000000010000004000000000000000000400000000000000000000800000200000000000000000000000000000000000000000000000000000000000000000",
      "type": "0x2",
      "transactionHash": "0xaca6d08a154bcb1f44efd873c8fe8e167973dca51842339d0f44d122c84883c5",
      "transactionIndex": "0x10",
      "blockHash": "0x000e870adf24d04bc8cf215e1e19228af5954ea9ce957a8f5f6f560720b3c4c6",
      "blockNumber": "0x3306c2",
      "gasUsed": "0x12b60",
      "effectiveGasPrice": "0xf4b55",
      "from": "0xe355d5d8aa52ef0fbbd037c4a3c5e6fd659cf46b",
      "to": "0x70207a48a28fcd5111762f570c83c0714fde7443",
      "contractAddress": null
    },
    {
      "status": "0x1",
      "cumulativeGasUsed": "0x647a88",
      "logs": [
        {
          "address": "0x8f6136b147b49bd6075e5ae60c8c946269fa79e3",
          "topics": [
            "0x8be0079c531659141344cd1fd0a4f28419497f9722a3daafe3b4186f6b6457e0",
            "0x0000000000000000000000000000000000000000000000000000000000000000",
            "0x000000000000000000000000b927b74d5d9c3985d4dcdd62cbffec66cf527faa"
          ],
          "data": "0x",
          "blockHash": "0x000e870adf24d04bc8cf215e1e19228af5954ea9ce957a8f5f6f560720b3c4c6",
          "blockNumber": "0x3306c2",
          "blockTimestamp": "0x67addd10",
          "transactionHash": "0x2a43b528bfcb97b560f470418e6f30e04866df42c0c0d584c4b40a1f56a00eb2",
          "transactionIndex": "0x11",
          "logIndex": "0x15",
          "removed": false
        },
        {
          "address": "0x4dc6b9b9123883f563febea9f0f9636296585bf1",
          "topics": [
            "0x8be0079c531659141344cd1fd0a4f28419497f9722a3daafe3b4186f6b6457e0",
            "0x0000000000000000000000000000000000000000000000000000000000000000",
            "0x000000000000000000000000e355d5d8aa52ef0fbbd037c4a3c5e6fd659cf46b"
          ],
          "data": "0x",
          "blockHash": "0x000e870adf24d04bc8cf215e1e19228af5954ea9ce957a8f5f6f560720b3c4c6",
          "blockNumber": "0x3306c2",
          "blockTimestamp": "0x67addd10",
          "transactionHash": "0x2a43b528bfcb97b560f470418e6f30e04866df42c0c0d584c4b40a1f56a00eb2",
          "transactionIndex": "0x11",
          "logIndex": "0x16",
          "removed": false
        }
      ],
      "logsBloom": "0x40000000000000000000000000000000000000000000000000800000000000000000000000000000000000000000000000000000000000000000000000000000010000000000000000000000000000000001000000000000000000000000000000000000020000000000080000000800000000000000800000000000000000400000000000000000000000000000000200000002000000000100000000000000000000000000000000000000000000000000000000000000000000000000000000000000000000200000000000000000000000000000000010000000000020000000000000000020000000000000000000040000000000000000000000004000",
      "type": "0x2",
      "transactionHash": "0x2a43b528bfcb97b560f470418e6f30e04866df42c0c0d584c4b40a1f56a00eb2",
      "transactionIndex": "0x11",
      "blockHash": "0x000e870adf24d04bc8cf215e1e19228af5954ea9ce957a8f5f6f560720b3c4c6",
      "blockNumber": "0x3306c2",
      "gasUsed": "0xdefa0",
      "effectiveGasPrice": "0xf4b55",
      "from": "0xe355d5d8aa52ef0fbbd037c4a3c5e6fd659cf46b",
      "to": "0xb927b74d5d9c3985d4dcdd62cbffec66cf527faa",
      "contractAddress": null
    },
    {
      "status": "0x1",
      "cumulativeGasUsed": "0x66917b",
      "logs": [
        {
          "address": "0x4dc6b9b9123883f563febea9f0f9636296585bf1",
          "topics": [
            "0x0559884fd3a460db3073b7fc896cc77986f16e378210ded43186175bf646fc5f",
            "0x0000000000000000000000000000000000000000000000000000000005f5e100",
            "0x0000000000000000000000000000000000000000000000000000000000000001"
          ],
          "data": "0x0000000000000000000000000000000000000000000000000000000067addcd4",
          "blockHash": "0x000e870adf24d04bc8cf215e1e19228af5954ea9ce957a8f5f6f560720b3c4c6",
          "blockNumber": "0x3306c2",
          "blockTimestamp": "0x67addd10",
          "transactionHash": "0x128494ae2db7efb45338b0d3f794029a19a76609e15caefc8c19f774ecac2a32",
          "transactionIndex": "0x12",
          "logIndex": "0x17",
          "removed": false
        }
      ],
      "logsBloom": "0x00000000000000000000000000000000000000000000000000000000000000000000000000000000000000000000000000000000080200000000000000040000000000000000000000000000000000000000000000040000000000000000000000000000000000000000080000000000000000000000000000000000000800000000000000000000000000000000000000000480000000000100000000000020000000000000000000000000000000000000000000000000000000000000000000000000000000000000000000000000000000000000000000000000000040000000000000000000000000000000000000040000000000000000000000000000",
      "type": "0x2",
      "transactionHash": "0x128494ae2db7efb45338b0d3f794029a19a76609e15caefc8c19f774ecac2a32",
      "transactionIndex": "0x12",
      "blockHash": "0x000e870adf24d04bc8cf215e1e19228af5954ea9ce957a8f5f6f560720b3c4c6",
      "blockNumber": "0x3306c2",
      "gasUsed": "0x216f3",
      "effectiveGasPrice": "0xf4b55",
      "from": "0xe355d5d8aa52ef0fbbd037c4a3c5e6fd659cf46b",
      "to": "0x4dc6b9b9123883f563febea9f0f9636296585bf1",
      "contractAddress": null
    },
    {
      "status": "0x1",
      "cumulativeGasUsed": "0x6700e0",
      "logs": [
        {
          "address": "0x4dc6b9b9123883f563febea9f0f9636296585bf1",
          "topics": [
            "0x8be0079c531659141344cd1fd0a4f28419497f9722a3daafe3b4186f6b6457e0",
            "0x000000000000000000000000e355d5d8aa52ef0fbbd037c4a3c5e6fd659cf46b",
            "0x00000000000000000000000028a5f8dce17c1760576b442066321f8f9f069731"
          ],
          "data": "0x",
          "blockHash": "0x000e870adf24d04bc8cf215e1e19228af5954ea9ce957a8f5f6f560720b3c4c6",
          "blockNumber": "0x3306c2",
          "blockTimestamp": "0x67addd10",
          "transactionHash": "0xf55cb91470014f3f2993452109ecdbf8b9491a45d06370eb0fa2e7638c7da24d",
          "transactionIndex": "0x13",
          "logIndex": "0x18",
          "removed": false
        }
      ],
      "logsBloom": "0x00000000000000000000000000000000000000000000000000800000000020000000000000000000000000000000000000000000000000000000010000000000000000000000000000000000000800000001000000000000000000000000000000000000000000000000080000000000000000000000000000000000000000400000000000000000000000000000000200000000000000000100000000000000000000000000000000000000000000000000000000000000000000000000000000000000000000000000000000000000000000000000000000000000000000000000000000000020000000000000000000040000000000000000000000004000",
      "type": "0x2",
      "transactionHash": "0xf55cb91470014f3f2993452109ecdbf8b9491a45d06370eb0fa2e7638c7da24d",
      "transactionIndex": "0x13",
      "blockHash": "0x000e870adf24d04bc8cf215e1e19228af5954ea9ce957a8f5f6f560720b3c4c6",
      "blockNumber": "0x3306c2",
      "gasUsed": "0x6f65",
      "effectiveGasPrice": "0xf4b55",
      "from": "0xe355d5d8aa52ef0fbbd037c4a3c5e6fd659cf46b",
      "to": "0x4dc6b9b9123883f563febea9f0f9636296585bf1",
      "contractAddress": null
    },
    {
      "status": "0x1",
      "cumulativeGasUsed": "0x682c40",
      "logs": [
        {
          "address": "0x70207a48a28fcd5111762f570c83c0714fde7443",
          "topics": [
            "0x1fde9522e8fecea62ddfd7a16a09129167e338cfdce86f3b8742a7aacaf34535",
            "0x0000000000000000000000008f6136b147b49bd6075e5ae60c8c946269fa79e3",
            "0x0000000000000000000000004dc6b9b9123883f563febea9f0f9636296585bf1",
            "0x0000000000000000000000004dc6b9b9123883f563febea9f0f9636296585bf1"
          ],
          "data": "0x0000000000000000000000000000000000000000000000000000000001e13380",
          "blockHash": "0x000e870adf24d04bc8cf215e1e19228af5954ea9ce957a8f5f6f560720b3c4c6",
          "blockNumber": "0x3306c2",
          "blockTimestamp": "0x67addd10",
          "transactionHash": "0x1265d15fcb6836444c2968842a7348677c122a910a1678e07452fa64bd8088f2",
          "transactionIndex": "0x14",
          "logIndex": "0x19",
          "removed": false
        }
      ],
      "logsBloom": "0x00000000000000000000000000000000000000000000000000000000000000000000000000000000000000000000000000000000000000000400000000000000000000080000000000000000000000000000000000000000000000000000000000000000000000000000000008000000000000000000000000000000000000000000000000000000000000000020020000000000000000000000000000000000008000000000000000000000000000000000000000000000000000000000000000000000010000004000000000000000001400000000000000000000000000200000000000000000000000000000000000000000000000010000000000000000",
      "type": "0x2",
      "transactionHash": "0x1265d15fcb6836444c2968842a7348677c122a910a1678e07452fa64bd8088f2",
      "transactionIndex": "0x14",
      "blockHash": "0x000e870adf24d04bc8cf215e1e19228af5954ea9ce957a8f5f6f560720b3c4c6",
      "blockNumber": "0x3306c2",
      "gasUsed": "0x12b60",
      "effectiveGasPrice": "0xf4b55",
      "from": "0xe355d5d8aa52ef0fbbd037c4a3c5e6fd659cf46b",
      "to": "0x70207a48a28fcd5111762f570c83c0714fde7443",
      "contractAddress": null
    },
    {
      "status": "0x1",
      "cumulativeGasUsed": "0x7b0281",
      "logs": [
        {
          "address": "0xd0586b5a5f97347c769983c404348346fe26f38e",
          "topics": [
            "0x8be0079c531659141344cd1fd0a4f28419497f9722a3daafe3b4186f6b6457e0",
            "0x0000000000000000000000000000000000000000000000000000000000000000",
            "0x000000000000000000000000e355d5d8aa52ef0fbbd037c4a3c5e6fd659cf46b"
          ],
          "data": "0x",
          "blockHash": "0x000e870adf24d04bc8cf215e1e19228af5954ea9ce957a8f5f6f560720b3c4c6",
          "blockNumber": "0x3306c2",
          "blockTimestamp": "0x67addd10",
          "transactionHash": "0x26565860c7a1c31f20d6b3bdd92b3724fff00981183dcd4319f88113e29a0479",
          "transactionIndex": "0x15",
          "logIndex": "0x1a",
          "removed": false
        },
        {
          "address": "0x05b4d76a2d2810746983c111dba6daa65983191c",
          "topics": [
            "0x8be0079c531659141344cd1fd0a4f28419497f9722a3daafe3b4186f6b6457e0",
            "0x0000000000000000000000000000000000000000000000000000000000000000",
            "0x000000000000000000000000d0586b5a5f97347c769983c404348346fe26f38e"
          ],
          "data": "0x",
          "blockHash": "0x000e870adf24d04bc8cf215e1e19228af5954ea9ce957a8f5f6f560720b3c4c6",
          "blockNumber": "0x3306c2",
          "blockTimestamp": "0x67addd10",
          "transactionHash": "0x26565860c7a1c31f20d6b3bdd92b3724fff00981183dcd4319f88113e29a0479",
          "transactionIndex": "0x15",
          "logIndex": "0x1b",
          "removed": false
        },
        {
          "address": "0x05b4d76a2d2810746983c111dba6daa65983191c",
          "topics": [
            "0xc7f505b2f371ae2175ee4913f4499e1f2633a7b5936321eed1cdaeb6115181d2"
          ],
          "data": "0x0000000000000000000000000000000000000000000000000000000000000001",
          "blockHash": "0x000e870adf24d04bc8cf215e1e19228af5954ea9ce957a8f5f6f560720b3c4c6",
          "blockNumber": "0x3306c2",
          "blockTimestamp": "0x67addd10",
          "transactionHash": "0x26565860c7a1c31f20d6b3bdd92b3724fff00981183dcd4319f88113e29a0479",
          "transactionIndex": "0x15",
          "logIndex": "0x1c",
          "removed": false
        },
        {
          "address": "0xfa60176aa0161128cf3d145b05827ec250fce281",
          "topics": [
            "0x8be0079c531659141344cd1fd0a4f28419497f9722a3daafe3b4186f6b6457e0",
            "0x0000000000000000000000000000000000000000000000000000000000000000",
            "0x000000000000000000000000d0586b5a5f97347c769983c404348346fe26f38e"
          ],
          "data": "0x",
          "blockHash": "0x000e870adf24d04bc8cf215e1e19228af5954ea9ce957a8f5f6f560720b3c4c6",
          "blockNumber": "0x3306c2",
          "blockTimestamp": "0x67addd10",
          "transactionHash": "0x26565860c7a1c31f20d6b3bdd92b3724fff00981183dcd4319f88113e29a0479",
          "transactionIndex": "0x15",
          "logIndex": "0x1d",
          "removed": false
        },
        {
          "address": "0xfa60176aa0161128cf3d145b05827ec250fce281",
          "topics": [
            "0xc7f505b2f371ae2175ee4913f4499e1f2633a7b5936321eed1cdaeb6115181d2"
          ],
          "data": "0x0000000000000000000000000000000000000000000000000000000000000001",
          "blockHash": "0x000e870adf24d04bc8cf215e1e19228af5954ea9ce957a8f5f6f560720b3c4c6",
          "blockNumber": "0x3306c2",
          "blockTimestamp": "0x67addd10",
          "transactionHash": "0x26565860c7a1c31f20d6b3bdd92b3724fff00981183dcd4319f88113e29a0479",
          "transactionIndex": "0x15",
          "logIndex": "0x1e",
          "removed": false
        },
        {
          "address": "0x4a662249b6cf35a3af633116131ba2b5cc329687",
          "topics": [
            "0x8be0079c531659141344cd1fd0a4f28419497f9722a3daafe3b4186f6b6457e0",
            "0x0000000000000000000000000000000000000000000000000000000000000000",
            "0x000000000000000000000000d0586b5a5f97347c769983c404348346fe26f38e"
          ],
          "data": "0x",
          "blockHash": "0x000e870adf24d04bc8cf215e1e19228af5954ea9ce957a8f5f6f560720b3c4c6",
          "blockNumber": "0x3306c2",
          "blockTimestamp": "0x67addd10",
          "transactionHash": "0x26565860c7a1c31f20d6b3bdd92b3724fff00981183dcd4319f88113e29a0479",
          "transactionIndex": "0x15",
          "logIndex": "0x1f",
          "removed": false
        },
        {
          "address": "0x4a662249b6cf35a3af633116131ba2b5cc329687",
          "topics": [
            "0xc7f505b2f371ae2175ee4913f4499e1f2633a7b5936321eed1cdaeb6115181d2"
          ],
          "data": "0x0000000000000000000000000000000000000000000000000000000000000001",
          "blockHash": "0x000e870adf24d04bc8cf215e1e19228af5954ea9ce957a8f5f6f560720b3c4c6",
          "blockNumber": "0x3306c2",
          "blockTimestamp": "0x67addd10",
          "transactionHash": "0x26565860c7a1c31f20d6b3bdd92b3724fff00981183dcd4319f88113e29a0479",
          "transactionIndex": "0x15",
          "logIndex": "0x20",
          "removed": false
        },
        {
          "address": "0xd0586b5a5f97347c769983c404348346fe26f38e",
          "topics": [
            "0x923c07a7269eb05c7b48c4002081d856ef37b3cbc4c2bae12d7493178477e306",
            "0x0000000000000000000000008a42d2b0e5fdfed3994d9661728d025d21ad682d",
            "0x0000000000000000000000008f6136b147b49bd6075e5ae60c8c946269fa79e3"
          ],
          "data": "0x0000000000000000000000000000000000000000000000000000000067e5e68000000000000000000000000005b4d76a2d2810746983c111dba6daa65983191c000000000000000000000000fa60176aa0161128cf3d145b05827ec250fce2810000000000000000000000004a662249b6cf35a3af633116131ba2b5cc329687",
          "blockHash": "0x000e870adf24d04bc8cf215e1e19228af5954ea9ce957a8f5f6f560720b3c4c6",
          "blockNumber": "0x3306c2",
          "blockTimestamp": "0x67addd10",
          "transactionHash": "0x26565860c7a1c31f20d6b3bdd92b3724fff00981183dcd4319f88113e29a0479",
          "transactionIndex": "0x15",
          "logIndex": "0x21",
          "removed": false
        },
        {
          "address": "0xd0586b5a5f97347c769983c404348346fe26f38e",
          "topics": [
            "0xc7f505b2f371ae2175ee4913f4499e1f2633a7b5936321eed1cdaeb6115181d2"
          ],
          "data": "0x0000000000000000000000000000000000000000000000000000000000000001",
          "blockHash": "0x000e870adf24d04bc8cf215e1e19228af5954ea9ce957a8f5f6f560720b3c4c6",
          "blockNumber": "0x3306c2",
          "blockTimestamp": "0x67addd10",
          "transactionHash": "0x26565860c7a1c31f20d6b3bdd92b3724fff00981183dcd4319f88113e29a0479",
          "transactionIndex": "0x15",
          "logIndex": "0x22",
          "removed": false
        },
        {
          "address": "0x4e45b67f9a6711c39d04052f766fa2e44d8bdfa5",
          "topics": [
            "0x3f53d2c2743b2b162c0aa5d678be4058d3ae2043700424be52c04105df3e2411",
            "0x000000000000000000000000d0586b5a5f97347c769983c404348346fe26f38e",
            "0x0000000000000000000000008a42d2b0e5fdfed3994d9661728d025d21ad682d",
            "0x0000000000000000000000008f6136b147b49bd6075e5ae60c8c946269fa79e3"
          ],
          "data": "0x",
          "blockHash": "0x000e870adf24d04bc8cf215e1e19228af5954ea9ce957a8f5f6f560720b3c4c6",
          "blockNumber": "0x3306c2",
          "blockTimestamp": "0x67addd10",
          "transactionHash": "0x26565860c7a1c31f20d6b3bdd92b3724fff00981183dcd4319f88113e29a0479",
          "transactionIndex": "0x15",
          "logIndex": "0x23",
          "removed": false
        }
      ],
      "logsBloom": "0x00000004000000000000008000000000000000000000000000800000000000000000008800000000004000000000000000000000000000000000002000200000000000080000000000000000000000008001000000000000000002000000000200000004020000000000000008000800000008000000020000040000000000400000004000000000000800000000000200040000000080000000000000040000000000000000000000000000000000000000000028000200000000000000040000000002000000000000000000000000000800000004000000080000810020000000000000000020080000000000000000000000000000010000000000004000",
      "type": "0x2",
      "transactionHash": "0x26565860c7a1c31f20d6b3bdd92b3724fff00981183dcd4319f88113e29a0479",
      "transactionIndex": "0x15",
      "blockHash": "0x000e870adf24d04bc8cf215e1e19228af5954ea9ce957a8f5f6f560720b3c4c6",
      "blockNumber": "0x3306c2",
      "gasUsed": "0x12d641",
      "effectiveGasPrice": "0xf4b55",
      "from": "0xe355d5d8aa52ef0fbbd037c4a3c5e6fd659cf46b",
      "to": "0x4e45b67f9a6711c39d04052f766fa2e44d8bdfa5",
      "contractAddress": null
    },
    {
      "status": "0x1",
      "cumulativeGasUsed": "0x7bd050",
      "logs": [
        {
          "address": "0xbfccc3c7f739d4ae7ccf680b3fafcfb5bdc4f842",
          "topics": [
            "0xd8c356880b1eda8f5619cb8b7372231a363c64ed591d2a5ba1ae664c530fd436"
          ],
          "data": "0x000000000000000000000000d0586b5a5f97347c769983c404348346fe26f38e0000000000000000000000000000000000000000000000000000000000000001",
          "blockHash": "0x000e870adf24d04bc8cf215e1e19228af5954ea9ce957a8f5f6f560720b3c4c6",
          "blockNumber": "0x3306c2",
          "blockTimestamp": "0x67addd10",
          "transactionHash": "0xd637b1174a0e721307939d12c977bb2cf36781212630e6b6de7a59773ef9a223",
          "transactionIndex": "0x16",
          "logIndex": "0x24",
          "removed": false
        }
      ],
      "logsBloom": "0x00000000000000000000400000000000000000000000000000000000000000000000000000000000000000000008000000100000000000000000000000000000000000000000000000000000000000000000000000000000000000000000000000000000000000000000000000000000000000000000000000000000000000000000000000000000000000000000000000000000000000000000000000000000000000000000010000000000000000100000000000000000000000000000000000000000000000000000000000000000000000000000000000000000000800000000000000000000000000000000000000000000000000000000000000000000",
      "type": "0x2",
      "transactionHash": "0xd637b1174a0e721307939d12c977bb2cf36781212630e6b6de7a59773ef9a223",
      "transactionIndex": "0x16",
      "blockHash": "0x000e870adf24d04bc8cf215e1e19228af5954ea9ce957a8f5f6f560720b3c4c6",
      "blockNumber": "0x3306c2",
      "gasUsed": "0xcdcf",
      "effectiveGasPrice": "0xf4b55",
      "from": "0xe355d5d8aa52ef0fbbd037c4a3c5e6fd659cf46b",
      "to": "0xbfccc3c7f739d4ae7ccf680b3fafcfb5bdc4f842",
      "contractAddress": null
    }
  ],
  "libraries": [],
  "pending": [],
  "returns": {},
  "timestamp": 1739447572,
  "chain": 17000,
  "commit": "ffaadb8"
}