{
  "transactions": [
    {
      "hash": "0xa7acf355a5c9924368624b3c8fdef09395b6c37124b6dcda4ae032dbcc223c51",
      "transactionType": "CALL",
      "contractName": null,
      "contractAddress": "0x319a2da837ee661414d83dc881e6f42438d23395",
      "function": "createMarket((bytes32,address,address,address,address,uint32,uint32,bool,(address,uint64,uint64,int64,uint32,uint32,uint32,uint32,uint32,uint32,uint32,uint32,uint32,uint32,bool),bytes))",
      "arguments": [
        "(0xd9eb2aaa5f19c272f06ea2b4c8449687a8c2ac90aa2cfba9b3c9de0dca6ca695, 0x319a2da837Ee661414D83DC881e6f42438d23395, 0xAE5099C39f023C91d3dd55244CAFB36225B0850E, 0xA0b86991c6218b36c1d19D4a2e9Eb0cE3606eB48, 0x8fFfFfd4AfB6115b954Bd326cbe7B4BA576818f6, 90000000, 89000000, true, (0x944a0Af591E2C23a2E81fe4c10Bd9c47Cf866F4b, 1735575942, 1726496598, 12000000, 80000000, 3000000, 3000000, 3000000, 3000000, 50000000, 10000000, 50000000, 88000000, 50000000, true), 0x000000000000000000000000d752c02f557580cec3a50a2debf3a4c48657eede)"
      ],
      "transaction": {
        "from": "0x43155bf7ed1393379f44df7ca7299721917e41ef",
        "to": "0x319a2da837ee661414d83dc881e6f42438d23395",
        "gas": "0x23c0d5",
        "value": "0x0",
        "input": "0xc31703810000000000000000000000000000000000000000000000000000000000000020d9eb2aaa5f19c272f06ea2b4c8449687a8c2ac90aa2cfba9b3c9de0dca6ca695000000000000000000000000319a2da837ee661414d83dc881e6f42438d23395000000000000000000000000ae5099c39f023c91d3dd55244cafb36225b0850e000000000000000000000000a0b86991c6218b36c1d19d4a2e9eb0ce3606eb480000000000000000000000008fffffd4afb6115b954bd326cbe7b4ba576818f600000000000000000000000000000000000000000000000000000000055d4a8000000000000000000000000000000000000000000000000000000000054e08400000000000000000000000000000000000000000000000000000000000000001000000000000000000000000944a0af591e2c23a2e81fe4c10bd9c47cf866f4b000000000000000000000000000000000000000000000000000000006772c9860000000000000000000000000000000000000000000000000000000066e83f560000000000000000000000000000000000000000000000000000000000b71b000000000000000000000000000000000000000000000000000000000004c4b40000000000000000000000000000000000000000000000000000000000002dc6c000000000000000000000000000000000000000000000000000000000002dc6c000000000000000000000000000000000000000000000000000000000002dc6c000000000000000000000000000000000000000000000000000000000002dc6c00000000000000000000000000000000000000000000000000000000002faf08000000000000000000000000000000000000000000000000000000000009896800000000000000000000000000000000000000000000000000000000002faf08000000000000000000000000000000000000000000000000000000000053ec6000000000000000000000000000000000000000000000000000000000002faf080000000000000000000000000000000000000000000000000000000000000000100000000000000000000000000000000000000000000000000000000000003000000000000000000000000000000000000000000000000000000000000000020000000000000000000000000d752c02f557580cec3a50a2debf3a4c48657eede",
        "nonce": "0x2d",
        "chainId": "0x7a6b"
      },
      "additionalContracts": [
        {
          "transactionType": "CREATE2",
          "address": "0xd5ecf36d661330de44e4f7d7c3384c075e8f37fa",
          "initCode": "0x3d602d80600a3d3981f3363d3d373d3d3d363d731f3323e9a1d12e6a485dc761e1b669c65e0aeedb5af43d82803e903d91602b57fd5bf3"
        },
        {
          "transactionType": "CREATE2",
          "address": "0x790dfe9e9f11fad07d4b667f2e2bd68d35c00c9c",
          "initCode": "0x3d602d80600a3d3981f3363d3d373d3d3d363d737c2e062d0c539fc1bb5eb3452be01cc94a5498775af43d82803e903d91602b57fd5bf3"
        },
        {
          "transactionType": "CREATE2",
          "address": "0x62b5071620f0ae4d8c0e4b7bc1157e6127f097b0",
          "initCode": "0x3d602d80600a3d3981f3363d3d373d3d3d363d737c2e062d0c539fc1bb5eb3452be01cc94a5498775af43d82803e903d91602b57fd5bf3"
        },
        {
          "transactionType": "CREATE2",
          "address": "0xa3ece1d2972d5d4be178206304e7306fb3b7d53d",
          "initCode": "0x3d602d80600a3d3981f3363d3d373d3d3d363d737c2e062d0c539fc1bb5eb3452be01cc94a5498775af43d82803e903d91602b57fd5bf3"
        },
        {
          "transactionType": "CREATE2",
          "address": "0xef890bb6d96ea1ea109fd13721a6846ad74d9b59",
          "initCode": "0x3d602d80600a3d3981f3363d3d373d3d3d363d737c2e062d0c539fc1bb5eb3452be01cc94a5498775af43d82803e903d91602b57fd5bf3"
        },
        {
          "transactionType": "CREATE2",
          "address": "0xb114f43dd179b472147638951f2aab2ddf3a7317",
          "initCode": "0x3d602d80600a3d3981f3363d3d373d3d3d363d73d7aba8bb0f30b09889782e9b4056b1763910021d5af43d82803e903d91602b57fd5bf3"
        }
      ],
      "isFixedGasLimit": false
    }
  ],
  "receipts": [
    {
      "status": "0x1",
      "cumulativeGasUsed": "0x187259",
      "logs": [
        {
          "address": "0x790dfe9e9f11fad07d4b667f2e2bd68d35c00c9c",
          "topics": [
            "0x8be0079c531659141344cd1fd0a4f28419497f9722a3daafe3b4186f6b6457e0",
            "0x0000000000000000000000000000000000000000000000000000000000000000",
            "0x000000000000000000000000d5ecf36d661330de44e4f7d7c3384c075e8f37fa"
          ],
          "data": "0x",
          "blockHash": "0xe4e59616ad7b458d862ce2d5063a379ae8d78becf6f2d9d7b320e4894520c7b6",
          "blockNumber": "0x13c5814",
          "blockTimestamp": "0x66e6baf0",
          "transactionHash": "0xa7acf355a5c9924368624b3c8fdef09395b6c37124b6dcda4ae032dbcc223c51",
          "transactionIndex": "0x0",
          "logIndex": "0x0",
          "removed": false
        },
        {
          "address": "0x790dfe9e9f11fad07d4b667f2e2bd68d35c00c9c",
          "topics": [
            "0xc7f505b2f371ae2175ee4913f4499e1f2633a7b5936321eed1cdaeb6115181d2"
          ],
          "data": "0x0000000000000000000000000000000000000000000000000000000000000001",
          "blockHash": "0xe4e59616ad7b458d862ce2d5063a379ae8d78becf6f2d9d7b320e4894520c7b6",
          "blockNumber": "0x13c5814",
          "blockTimestamp": "0x66e6baf0",
          "transactionHash": "0xa7acf355a5c9924368624b3c8fdef09395b6c37124b6dcda4ae032dbcc223c51",
          "transactionIndex": "0x0",
          "logIndex": "0x1",
          "removed": false
        },
        {
          "address": "0x62b5071620f0ae4d8c0e4b7bc1157e6127f097b0",
          "topics": [
            "0x8be0079c531659141344cd1fd0a4f28419497f9722a3daafe3b4186f6b6457e0",
            "0x0000000000000000000000000000000000000000000000000000000000000000",
            "0x000000000000000000000000d5ecf36d661330de44e4f7d7c3384c075e8f37fa"
          ],
          "data": "0x",
          "blockHash": "0xe4e59616ad7b458d862ce2d5063a379ae8d78becf6f2d9d7b320e4894520c7b6",
          "blockNumber": "0x13c5814",
          "blockTimestamp": "0x66e6baf0",
          "transactionHash": "0xa7acf355a5c9924368624b3c8fdef09395b6c37124b6dcda4ae032dbcc223c51",
          "transactionIndex": "0x0",
          "logIndex": "0x2",
          "removed": false
        },
        {
          "address": "0x62b5071620f0ae4d8c0e4b7bc1157e6127f097b0",
          "topics": [
            "0xc7f505b2f371ae2175ee4913f4499e1f2633a7b5936321eed1cdaeb6115181d2"
          ],
          "data": "0x0000000000000000000000000000000000000000000000000000000000000001",
          "blockHash": "0xe4e59616ad7b458d862ce2d5063a379ae8d78becf6f2d9d7b320e4894520c7b6",
          "blockNumber": "0x13c5814",
          "blockTimestamp": "0x66e6baf0",
          "transactionHash": "0xa7acf355a5c9924368624b3c8fdef09395b6c37124b6dcda4ae032dbcc223c51",
          "transactionIndex": "0x0",
          "logIndex": "0x3",
          "removed": false
        },
        {
          "address": "0xa3ece1d2972d5d4be178206304e7306fb3b7d53d",
          "topics": [
            "0x8be0079c531659141344cd1fd0a4f28419497f9722a3daafe3b4186f6b6457e0",
            "0x0000000000000000000000000000000000000000000000000000000000000000",
            "0x000000000000000000000000d5ecf36d661330de44e4f7d7c3384c075e8f37fa"
          ],
          "data": "0x",
          "blockHash": "0xe4e59616ad7b458d862ce2d5063a379ae8d78becf6f2d9d7b320e4894520c7b6",
          "blockNumber": "0x13c5814",
          "blockTimestamp": "0x66e6baf0",
          "transactionHash": "0xa7acf355a5c9924368624b3c8fdef09395b6c37124b6dcda4ae032dbcc223c51",
          "transactionIndex": "0x0",
          "logIndex": "0x4",
          "removed": false
        },
        {
          "address": "0xa3ece1d2972d5d4be178206304e7306fb3b7d53d",
          "topics": [
            "0xc7f505b2f371ae2175ee4913f4499e1f2633a7b5936321eed1cdaeb6115181d2"
          ],
          "data": "0x0000000000000000000000000000000000000000000000000000000000000001",
          "blockHash": "0xe4e59616ad7b458d862ce2d5063a379ae8d78becf6f2d9d7b320e4894520c7b6",
          "blockNumber": "0x13c5814",
          "blockTimestamp": "0x66e6baf0",
          "transactionHash": "0xa7acf355a5c9924368624b3c8fdef09395b6c37124b6dcda4ae032dbcc223c51",
          "transactionIndex": "0x0",
          "logIndex": "0x5",
          "removed": false
        },
        {
          "address": "0xef890bb6d96ea1ea109fd13721a6846ad74d9b59",
          "topics": [
            "0x8be0079c531659141344cd1fd0a4f28419497f9722a3daafe3b4186f6b6457e0",
            "0x0000000000000000000000000000000000000000000000000000000000000000",
            "0x000000000000000000000000d5ecf36d661330de44e4f7d7c3384c075e8f37fa"
          ],
          "data": "0x",
          "blockHash": "0xe4e59616ad7b458d862ce2d5063a379ae8d78becf6f2d9d7b320e4894520c7b6",
          "blockNumber": "0x13c5814",
          "blockTimestamp": "0x66e6baf0",
          "transactionHash": "0xa7acf355a5c9924368624b3c8fdef09395b6c37124b6dcda4ae032dbcc223c51",
          "transactionIndex": "0x0",
          "logIndex": "0x6",
          "removed": false
        },
        {
          "address": "0xef890bb6d96ea1ea109fd13721a6846ad74d9b59",
          "topics": [
            "0xc7f505b2f371ae2175ee4913f4499e1f2633a7b5936321eed1cdaeb6115181d2"
          ],
          "data": "0x0000000000000000000000000000000000000000000000000000000000000001",
          "blockHash": "0xe4e59616ad7b458d862ce2d5063a379ae8d78becf6f2d9d7b320e4894520c7b6",
          "blockNumber": "0x13c5814",
          "blockTimestamp": "0x66e6baf0",
          "transactionHash": "0xa7acf355a5c9924368624b3c8fdef09395b6c37124b6dcda4ae032dbcc223c51",
          "transactionIndex": "0x0",
          "logIndex": "0x7",
          "removed": false
        },
        {
          "address": "0xb114f43dd179b472147638951f2aab2ddf3a7317",
          "topics": [
            "0x8be0079c531659141344cd1fd0a4f28419497f9722a3daafe3b4186f6b6457e0",
            "0x0000000000000000000000000000000000000000000000000000000000000000",
            "0x000000000000000000000000d5ecf36d661330de44e4f7d7c3384c075e8f37fa"
          ],
          "data": "0x",
          "blockHash": "0xe4e59616ad7b458d862ce2d5063a379ae8d78becf6f2d9d7b320e4894520c7b6",
          "blockNumber": "0x13c5814",
          "blockTimestamp": "0x66e6baf0",
          "transactionHash": "0xa7acf355a5c9924368624b3c8fdef09395b6c37124b6dcda4ae032dbcc223c51",
          "transactionIndex": "0x0",
          "logIndex": "0x8",
          "removed": false
        },
        {
          "address": "0x790dfe9e9f11fad07d4b667f2e2bd68d35c00c9c",
          "topics": [
            "0x8c5be1e5ebec7d5bd14f71427d1e84f3dd0314c0f7b2291e5b200ac8c7c3b925",
            "0x000000000000000000000000b114f43dd179b472147638951f2aab2ddf3a7317",
            "0x000000000000000000000000d5ecf36d661330de44e4f7d7c3384c075e8f37fa"
          ],
          "data": "0xffffffffffffffffffffffffffffffffffffffffffffffffffffffffffffffff",
          "blockHash": "0xe4e59616ad7b458d862ce2d5063a379ae8d78becf6f2d9d7b320e4894520c7b6",
          "blockNumber": "0x13c5814",
          "blockTimestamp": "0x66e6baf0",
          "transactionHash": "0xa7acf355a5c9924368624b3c8fdef09395b6c37124b6dcda4ae032dbcc223c51",
          "transactionIndex": "0x0",
          "logIndex": "0x9",
          "removed": false
        },
        {
          "address": "0xb114f43dd179b472147638951f2aab2ddf3a7317",
          "topics": [
            "0xc7f505b2f371ae2175ee4913f4499e1f2633a7b5936321eed1cdaeb6115181d2"
          ],
          "data": "0x0000000000000000000000000000000000000000000000000000000000000001",
          "blockHash": "0xe4e59616ad7b458d862ce2d5063a379ae8d78becf6f2d9d7b320e4894520c7b6",
          "blockNumber": "0x13c5814",
          "blockTimestamp": "0x66e6baf0",
          "transactionHash": "0xa7acf355a5c9924368624b3c8fdef09395b6c37124b6dcda4ae032dbcc223c51",
          "transactionIndex": "0x0",
          "logIndex": "0xa",
          "removed": false
        },
        {
          "address": "0xd5ecf36d661330de44e4f7d7c3384c075e8f37fa",
          "topics": [
            "0x8be0079c531659141344cd1fd0a4f28419497f9722a3daafe3b4186f6b6457e0",
            "0x0000000000000000000000000000000000000000000000000000000000000000",
            "0x000000000000000000000000319a2da837ee661414d83dc881e6f42438d23395"
          ],
          "data": "0x",
          "blockHash": "0xe4e59616ad7b458d862ce2d5063a379ae8d78becf6f2d9d7b320e4894520c7b6",
          "blockNumber": "0x13c5814",
          "blockTimestamp": "0x66e6baf0",
          "transactionHash": "0xa7acf355a5c9924368624b3c8fdef09395b6c37124b6dcda4ae032dbcc223c51",
          "transactionIndex": "0x0",
          "logIndex": "0xb",
          "removed": false
        },
        {
          "address": "0xd5ecf36d661330de44e4f7d7c3384c075e8f37fa",
          "topics": [
            "0x82446901186a1dd17f92ee8d6fcc57ba402d86bef4280619c22c601d83bd1cb8",
            "0x000000000000000000000000ae5099c39f023c91d3dd55244cafb36225b0850e",
            "0x000000000000000000000000a0b86991c6218b36c1d19d4a2e9eb0ce3606eb48"
          ],
          "data": "0x0000000000000000000000000000000000000000000000000000000066e83f56000000000000000000000000000000000000000000000000000000006772c986000000000000000000000000790dfe9e9f11fad07d4b667f2e2bd68d35c00c9c00000000000000000000000062b5071620f0ae4d8c0e4b7bc1157e6127f097b0000000000000000000000000a3ece1d2972d5d4be178206304e7306fb3b7d53d000000000000000000000000ef890bb6d96ea1ea109fd13721a6846ad74d9b59000000000000000000000000b114f43dd179b472147638951f2aab2ddf3a7317",
          "blockHash": "0xe4e59616ad7b458d862ce2d5063a379ae8d78becf6f2d9d7b320e4894520c7b6",
          "blockNumber": "0x13c5814",
          "blockTimestamp": "0x66e6baf0",
          "transactionHash": "0xa7acf355a5c9924368624b3c8fdef09395b6c37124b6dcda4ae032dbcc223c51",
          "transactionIndex": "0x0",
          "logIndex": "0xc",
          "removed": false
        }
      ],
      "logsBloom": "0x00000000000000000000000020010400000000000000000000800000000000000000000000000000000002200040000000000004000000000000000000200000000000000000000000000000000000008001000000000000000000800004002001000000120000000000000000000800000800000000000040000000000000402000000000000000000800000000000200000000040084000000080000000000021000000000000000000000000000000000000000000080001200000000100000000000000000000000000000000000000000000004000000000000000420000090000000000020004000000040008004000010000008000800000000000000",
      "type": "0x2",
      "transactionHash": "0xa7acf355a5c9924368624b3c8fdef09395b6c37124b6dcda4ae032dbcc223c51",
      "transactionIndex": "0x0",
      "blockHash": "0xe4e59616ad7b458d862ce2d5063a379ae8d78becf6f2d9d7b320e4894520c7b6",
      "blockNumber": "0x13c5814",
      "gasUsed": "0x187259",
      "effectiveGasPrice": "0x2ad741308",
      "blobGasPrice": "0x1",
      "from": "0x43155bf7ed1393379f44df7ca7299721917e41ef",
      "to": "0x319a2da837ee661414d83dc881e6f42438d23395",
      "contractAddress": null
    }
  ],
  "libraries": [],
  "pending": [],
  "returns": {},
  "timestamp": 1731064170,
  "chain": 31339,
  "commit": "3fa1688"
}