{
  "transactions": [
    {
      "hash": "0x03cb0e66bc20f94651449e0c3907c9f2ff6dbbf14fe591f9af06909d0e829cac",
      "transactionType": "CALL",
      "contractName": null,
      "contractAddress": "0x319a2da837ee661414d83dc881e6f42438d23395",
      "function": "createMarket((bytes32,address,address,address,address,uint32,uint32,bool,(address,uint64,uint64,int64,uint32,uint32,uint32,uint32,uint32,uint32,uint32,uint32,uint32,uint32,bool),bytes))",
      "arguments": [
        "(0xd9eb2aaa5f19c272f06ea2b4c8449687a8c2ac90aa2cfba9b3c9de0dca6ca695, 0x319a2da837Ee661414D83DC881e6f42438d23395, 0xE73362b23CafAc6559aA3101d2f80fed474b09bF, 0x103bE36C56F72a05e19CE8f9e70a70d33cCe0421, 0x8fFfFfd4AfB6115b954Bd326cbe7B4BA576818f6, 90000000, 89000000, true, (0x944a0Af591E2C23a2E81fe4c10Bd9c47Cf866F4b, 1735575942, 1726496598, 12000000, 80000000, 3000000, 3000000, 3000000, 3000000, 50000000, 10000000, 50000000, 88000000, 50000000, true), 0x000000000000000000000000d752c02f557580cec3a50a2debf3a4c48657eede)"
      ],
      "transaction": {
        "from": "0x43155bf7ed1393379f44df7ca7299721917e41ef",
        "to": "0x319a2da837ee661414d83dc881e6f42438d23395",
        "gas": "0x209452",
        "value": "0x0",
        "input": "0xc31703810000000000000000000000000000000000000000000000000000000000000020d9eb2aaa5f19c272f06ea2b4c8449687a8c2ac90aa2cfba9b3c9de0dca6ca695000000000000000000000000319a2da837ee661414d83dc881e6f42438d23395000000000000000000000000e73362b23cafac6559aa3101d2f80fed474b09bf000000000000000000000000103be36c56f72a05e19ce8f9e70a70d33cce04210000000000000000000000008fffffd4afb6115b954bd326cbe7b4ba576818f600000000000000000000000000000000000000000000000000000000055d4a8000000000000000000000000000000000000000000000000000000000054e08400000000000000000000000000000000000000000000000000000000000000001000000000000000000000000944a0af591e2c23a2e81fe4c10bd9c47cf866f4b000000000000000000000000000000000000000000000000000000006772c9860000000000000000000000000000000000000000000000000000000066e83f560000000000000000000000000000000000000000000000000000000000b71b000000000000000000000000000000000000000000000000000000000004c4b40000000000000000000000000000000000000000000000000000000000002dc6c000000000000000000000000000000000000000000000000000000000002dc6c000000000000000000000000000000000000000000000000000000000002dc6c000000000000000000000000000000000000000000000000000000000002dc6c00000000000000000000000000000000000000000000000000000000002faf08000000000000000000000000000000000000000000000000000000000009896800000000000000000000000000000000000000000000000000000000002faf08000000000000000000000000000000000000000000000000000000000053ec6000000000000000000000000000000000000000000000000000000000002faf080000000000000000000000000000000000000000000000000000000000000000100000000000000000000000000000000000000000000000000000000000003000000000000000000000000000000000000000000000000000000000000000020000000000000000000000000d752c02f557580cec3a50a2debf3a4c48657eede",
        "nonce": "0x31",
        "chainId": "0x7a6b"
      },
      "additionalContracts": [
        {
          "transactionType": "CREATE2",
          "address": "0x0c61edf42055ce658d40b84a7e7043a9583c49ac",
          "initCode": "0x3d602d80600a3d3981f3363d3d373d3d3d363d731f3323e9a1d12e6a485dc761e1b669c65e0aeedb5af43d82803e903d91602b57fd5bf3"
        },
        {
          "transactionType": "CREATE2",
          "address": "0x35c3437f025d3b6ab673f35ea4ef22e60f49650c",
          "initCode": "0x3d602d80600a3d3981f3363d3d373d3d3d363d737c2e062d0c539fc1bb5eb3452be01cc94a5498775af43d82803e903d91602b57fd5bf3"
        },
        {
          "transactionType": "CREATE2",
          "address": "0x200d430362004578c04e9f6de9159a87d231029e",
          "initCode": "0x3d602d80600a3d3981f3363d3d373d3d3d363d737c2e062d0c539fc1bb5eb3452be01cc94a5498775af43d82803e903d91602b57fd5bf3"
        },
        {
          "transactionType": "CREATE2",
          "address": "0xed8413b53c2b918479a19934995dda56f59e089d",
          "initCode": "0x3d602d80600a3d3981f3363d3d373d3d3d363d737c2e062d0c539fc1bb5eb3452be01cc94a5498775af43d82803e903d91602b57fd5bf3"
        },
        {
          "transactionType": "CREATE2",
          "address": "0xd538e05dc78fe34b6222cd9d698e8d2f89e8e8fc",
          "initCode": "0x3d602d80600a3d3981f3363d3d373d3d3d363d737c2e062d0c539fc1bb5eb3452be01cc94a5498775af43d82803e903d91602b57fd5bf3"
        },
        {
          "transactionType": "CREATE2",
          "address": "0x7cfaea811ee0dca7bf52f7235bcef2102db3ded3",
          "initCode": "0x3d602d80600a3d3981f3363d3d373d3d3d363d73d7aba8bb0f30b09889782e9b4056b1763910021d5af43d82803e903d91602b57fd5bf3"
        }
      ],
      "isFixedGasLimit": false
    }
  ],
  "receipts": [
    {
      "status": "0x1",
      "cumulativeGasUsed": "0x17963f",
      "logs": [
        {
          "address": "0x35c3437f025d3b6ab673f35ea4ef22e60f49650c",
          "topics": [
            "0x8be0079c531659141344cd1fd0a4f28419497f9722a3daafe3b4186f6b6457e0",
            "0x0000000000000000000000000000000000000000000000000000000000000000",
            "0x0000000000000000000000000c61edf42055ce658d40b84a7e7043a9583c49ac"
          ],
          "data": "0x",
          "blockHash": "0x214de4006a094ffaea52b390a4f463a64a517e9a265c71f569b8dae91e4b0583",
          "blockNumber": "0x13c5818",
          "blockTimestamp": "0x66e6c610",
          "transactionHash": "0x03cb0e66bc20f94651449e0c3907c9f2ff6dbbf14fe591f9af06909d0e829cac",
          "transactionIndex": "0x0",
          "logIndex": "0x0",
          "removed": false
        },
        {
          "address": "0x35c3437f025d3b6ab673f35ea4ef22e60f49650c",
          "topics": [
            "0xc7f505b2f371ae2175ee4913f4499e1f2633a7b5936321eed1cdaeb6115181d2"
          ],
          "data": "0x0000000000000000000000000000000000000000000000000000000000000001",
          "blockHash": "0x214de4006a094ffaea52b390a4f463a64a517e9a265c71f569b8dae91e4b0583",
          "blockNumber": "0x13c5818",
          "blockTimestamp": "0x66e6c610",
          "transactionHash": "0x03cb0e66bc20f94651449e0c3907c9f2ff6dbbf14fe591f9af06909d0e829cac",
          "transactionIndex": "0x0",
          "logIndex": "0x1",
          "removed": false
        },
        {
          "address": "0x200d430362004578c04e9f6de9159a87d231029e",
          "topics": [
            "0x8be0079c531659141344cd1fd0a4f28419497f9722a3daafe3b4186f6b6457e0",
            "0x0000000000000000000000000000000000000000000000000000000000000000",
            "0x0000000000000000000000000c61edf42055ce658d40b84a7e7043a9583c49ac"
          ],
          "data": "0x",
          "blockHash": "0x214de4006a094ffaea52b390a4f463a64a517e9a265c71f569b8dae91e4b0583",
          "blockNumber": "0x13c5818",
          "blockTimestamp": "0x66e6c610",
          "transactionHash": "0x03cb0e66bc20f94651449e0c3907c9f2ff6dbbf14fe591f9af06909d0e829cac",
          "transactionIndex": "0x0",
          "logIndex": "0x2",
          "removed": false
        },
        {
          "address": "0x200d430362004578c04e9f6de9159a87d231029e",
          "topics": [
            "0xc7f505b2f371ae2175ee4913f4499e1f2633a7b5936321eed1cdaeb6115181d2"
          ],
          "data": "0x0000000000000000000000000000000000000000000000000000000000000001",
          "blockHash": "0x214de4006a094ffaea52b390a4f463a64a517e9a265c71f569b8dae91e4b0583",
          "blockNumber": "0x13c5818",
          "blockTimestamp": "0x66e6c610",
          "transactionHash": "0x03cb0e66bc20f94651449e0c3907c9f2ff6dbbf14fe591f9af06909d0e829cac",
          "transactionIndex": "0x0",
          "logIndex": "0x3",
          "removed": false
        },
        {
          "address": "0xed8413b53c2b918479a19934995dda56f59e089d",
          "topics": [
            "0x8be0079c531659141344cd1fd0a4f28419497f9722a3daafe3b4186f6b6457e0",
            "0x0000000000000000000000000000000000000000000000000000000000000000",
            "0x0000000000000000000000000c61edf42055ce658d40b84a7e7043a9583c49ac"
          ],
          "data": "0x",
          "blockHash": "0x214de4006a094ffaea52b390a4f463a64a517e9a265c71f569b8dae91e4b0583",
          "blockNumber": "0x13c5818",
          "blockTimestamp": "0x66e6c610",
          "transactionHash": "0x03cb0e66bc20f94651449e0c3907c9f2ff6dbbf14fe591f9af06909d0e829cac",
          "transactionIndex": "0x0",
          "logIndex": "0x4",
          "removed": false
        },
        {
          "address": "0xed8413b53c2b918479a19934995dda56f59e089d",
          "topics": [
            "0xc7f505b2f371ae2175ee4913f4499e1f2633a7b5936321eed1cdaeb6115181d2"
          ],
          "data": "0x0000000000000000000000000000000000000000000000000000000000000001",
          "blockHash": "0x214de4006a094ffaea52b390a4f463a64a517e9a265c71f569b8dae91e4b0583",
          "blockNumber": "0x13c5818",
          "blockTimestamp": "0x66e6c610",
          "transactionHash": "0x03cb0e66bc20f94651449e0c3907c9f2ff6dbbf14fe591f9af06909d0e829cac",
          "transactionIndex": "0x0",
          "logIndex": "0x5",
          "removed": false
        },
        {
          "address": "0xd538e05dc78fe34b6222cd9d698e8d2f89e8e8fc",
          "topics": [
            "0x8be0079c531659141344cd1fd0a4f28419497f9722a3daafe3b4186f6b6457e0",
            "0x0000000000000000000000000000000000000000000000000000000000000000",
            "0x0000000000000000000000000c61edf42055ce658d40b84a7e7043a9583c49ac"
          ],
          "data": "0x",
          "blockHash": "0x214de4006a094ffaea52b390a4f463a64a517e9a265c71f569b8dae91e4b0583",
          "blockNumber": "0x13c5818",
          "blockTimestamp": "0x66e6c610",
          "transactionHash": "0x03cb0e66bc20f94651449e0c3907c9f2ff6dbbf14fe591f9af06909d0e829cac",
          "transactionIndex": "0x0",
          "logIndex": "0x6",
          "removed": false
        },
        {
          "address": "0xd538e05dc78fe34b6222cd9d698e8d2f89e8e8fc",
          "topics": [
            "0xc7f505b2f371ae2175ee4913f4499e1f2633a7b5936321eed1cdaeb6115181d2"
          ],
          "data": "0x0000000000000000000000000000000000000000000000000000000000000001",
          "blockHash": "0x214de4006a094ffaea52b390a4f463a64a517e9a265c71f569b8dae91e4b0583",
          "blockNumber": "0x13c5818",
          "blockTimestamp": "0x66e6c610",
          "transactionHash": "0x03cb0e66bc20f94651449e0c3907c9f2ff6dbbf14fe591f9af06909d0e829cac",
          "transactionIndex": "0x0",
          "logIndex": "0x7",
          "removed": false
        },
        {
          "address": "0x7cfaea811ee0dca7bf52f7235bcef2102db3ded3",
          "topics": [
            "0x8be0079c531659141344cd1fd0a4f28419497f9722a3daafe3b4186f6b6457e0",
            "0x0000000000000000000000000000000000000000000000000000000000000000",
            "0x0000000000000000000000000c61edf42055ce658d40b84a7e7043a9583c49ac"
          ],
          "data": "0x",
          "blockHash": "0x214de4006a094ffaea52b390a4f463a64a517e9a265c71f569b8dae91e4b0583",
          "blockNumber": "0x13c5818",
          "blockTimestamp": "0x66e6c610",
          "transactionHash": "0x03cb0e66bc20f94651449e0c3907c9f2ff6dbbf14fe591f9af06909d0e829cac",
          "transactionIndex": "0x0",
          "logIndex": "0x8",
          "removed": false
        },
        {
          "address": "0x35c3437f025d3b6ab673f35ea4ef22e60f49650c",
          "topics": [
            "0x8c5be1e5ebec7d5bd14f71427d1e84f3dd0314c0f7b2291e5b200ac8c7c3b925",
            "0x0000000000000000000000007cfaea811ee0dca7bf52f7235bcef2102db3ded3",
            "0x0000000000000000000000000c61edf42055ce658d40b84a7e7043a9583c49ac"
          ],
          "data": "0xffffffffffffffffffffffffffffffffffffffffffffffffffffffffffffffff",
          "blockHash": "0x214de4006a094ffaea52b390a4f463a64a517e9a265c71f569b8dae91e4b0583",
          "blockNumber": "0x13c5818",
          "blockTimestamp": "0x66e6c610",
          "transactionHash": "0x03cb0e66bc20f94651449e0c3907c9f2ff6dbbf14fe591f9af06909d0e829cac",
          "transactionIndex": "0x0",
          "logIndex": "0x9",
          "removed": false
        },
        {
          "address": "0x7cfaea811ee0dca7bf52f7235bcef2102db3ded3",
          "topics": [
            "0xc7f505b2f371ae2175ee4913f4499e1f2633a7b5936321eed1cdaeb6115181d2"
          ],
          "data": "0x0000000000000000000000000000000000000000000000000000000000000001",
          "blockHash": "0x214de4006a094ffaea52b390a4f463a64a517e9a265c71f569b8dae91e4b0583",
          "blockNumber": "0x13c5818",
          "blockTimestamp": "0x66e6c610",
          "transactionHash": "0x03cb0e66bc20f94651449e0c3907c9f2ff6dbbf14fe591f9af06909d0e829cac",
          "transactionIndex": "0x0",
          "logIndex": "0xa",
          "removed": false
        },
        {
          "address": "0x0c61edf42055ce658d40b84a7e7043a9583c49ac",
          "topics": [
            "0x8be0079c531659141344cd1fd0a4f28419497f9722a3daafe3b4186f6b6457e0",
            "0x0000000000000000000000000000000000000000000000000000000000000000",
            "0x000000000000000000000000319a2da837ee661414d83dc881e6f42438d23395"
          ],
          "data": "0x",
          "blockHash": "0x214de4006a094ffaea52b390a4f463a64a517e9a265c71f569b8dae91e4b0583",
          "blockNumber": "0x13c5818",
          "blockTimestamp": "0x66e6c610",
          "transactionHash": "0x03cb0e66bc20f94651449e0c3907c9f2ff6dbbf14fe591f9af06909d0e829cac",
          "transactionIndex": "0x0",
          "logIndex": "0xb",
          "removed": false
        },
        {
          "address": "0x0c61edf42055ce658d40b84a7e7043a9583c49ac",
          "topics": [
            "0x82446901186a1dd17f92ee8d6fcc57ba402d86bef4280619c22c601d83bd1cb8",
            "0x000000000000000000000000e73362b23cafac6559aa3101d2f80fed474b09bf",
            "0x000000000000000000000000103be36c56f72a05e19ce8f9e70a70d33cce0421"
          ],
          "data": "0x0000000000000000000000000000000000000000000000000000000066e83f56000000000000000000000000000000000000000000000000000000006772c98600000000000000000000000035c3437f025d3b6ab673f35ea4ef22e60f49650c000000000000000000000000200d430362004578c04e9f6de9159a87d231029e000000000000000000000000ed8413b53c2b918479a19934995dda56f59e089d000000000000000000000000d538e05dc78fe34b6222cd9d698e8d2f89e8e8fc0000000000000000000000007cfaea811ee0dca7bf52f7235bcef2102db3ded3",
          "blockHash": "0x214de4006a094ffaea52b390a4f463a64a517e9a265c71f569b8dae91e4b0583",
          "blockNumber": "0x13c5818",
          "blockTimestamp": "0x66e6c610",
          "transactionHash": "0x03cb0e66bc20f94651449e0c3907c9f2ff6dbbf14fe591f9af06909d0e829cac",
          "transactionIndex": "0x0",
          "logIndex": "0xc",
          "removed": false
        }
      ],
      "logsBloom": "0x40000000000000000000840024010400000000000000000000800000000000000000000000000000010000200000000000000004100200000000000020200000080000008000000000000400000000000001000000004000000000000100000000000000020000000000000040000800000000000000000000000000000000400040001000000000800800000000000000000000000080000000000000000000021004400000008000000000000000000001000800000020000000000000000000000000000000000000000000000000400000000004000000200000000020000010000000008000000000000008010800000000000000000000000000000000",
      "type": "0x2",
      "transactionHash": "0x03cb0e66bc20f94651449e0c3907c9f2ff6dbbf14fe591f9af06909d0e829cac",
      "transactionIndex": "0x0",
      "blockHash": "0x214de4006a094ffaea52b390a4f463a64a517e9a265c71f569b8dae91e4b0583",
      "blockNumber": "0x13c5818",
      "gasUsed": "0x17963f",
      "effectiveGasPrice": "0x2ad741308",
      "blobGasPrice": "0x1",
      "from": "0x43155bf7ed1393379f44df7ca7299721917e41ef",
      "to": "0x319a2da837ee661414d83dc881e6f42438d23395",
      "contractAddress": null
    }
  ],
  "libraries": [],
  "pending": [],
  "returns": {},
  "timestamp": 1731067018,
  "chain": 31339,
  "commit": "3fa1688"
}