{
  "transactions": [
    {
      "hash": "0x6ad0f768fb0c978d4c94de2637195c98008da06b1bec48bafb6e2c7ed7d38658",
      "transactionType": "CALL",
      "contractName": null,
      "contractAddress": "0xf3e27621f6b13d8f4431fbb9c72273143d5bd60d",
      "function": "devMint(address,address,uint256)",
      "arguments": [
        "0xE355d5D8aa52EF0FbbD037C4a3C5E6Fd659cf46B",
        "0x85E99c1619f941c7B2827550B58d5d8f6B0ae738",
        "1000000000000"
      ],
      "transaction": {
        "from": "0xe355d5d8aa52ef0fbbd037c4a3c5e6fd659cf46b",
        "to": "0xf3e27621f6b13d8f4431fbb9c72273143d5bd60d",
        "gas": "0x1e823",
        "value": "0x0",
        "input": "0x40ddd06e000000000000000000000000e355d5d8aa52ef0fbbd037c4a3c5e6fd659cf46b00000000000000000000000085e99c1619f941c7b2827550b58d5d8f6b0ae738000000000000000000000000000000000000000000000000000000e8d4a51000",
        "nonce": "0x2b8",
        "chainId": "0x66eee"
      },
      "additionalContracts": [],
      "isFixedGasLimit": false
    },
    {
      "hash": "0x47510c0625030104bacfa13a169fc9aa481457e9a0a80258648ef0719f016a03",
      "transactionType": "CALL",
      "contractName": null,
      "contractAddress": "0x85e99c1619f941c7b2827550b58d5d8f6b0ae738",
      "function": "approve(address,uint256)",
      "arguments": [
        "0xe7f3Eb4113b2f70Db591596A2dd27a797fc2fe48",
        "1000000000000"
      ],
      "transaction": {
        "from": "0xe355d5d8aa52ef0fbbd037c4a3c5e6fd659cf46b",
        "to": "0x85e99c1619f941c7b2827550b58d5d8f6b0ae738",
        "gas": "0x141ad",
        "value": "0x0",
        "input": "0x095ea7b3000000000000000000000000e7f3eb4113b2f70db591596a2dd27a797fc2fe48000000000000000000000000000000000000000000000000000000e8d4a51000",
        "nonce": "0x2b9",
        "chainId": "0x66eee"
      },
      "additionalContracts": [],
      "isFixedGasLimit": false
    },
    {
      "hash": "0x2024464bbf8e12cf06638bdd5faa0a9d60cfabc1ed083b37c09fb80960e60608",
      "transactionType": "CALL",
      "contractName": null,
      "contractAddress": "0xe7f3eb4113b2f70db591596a2dd27a797fc2fe48",
      "function": "provideLiquidity(address,address,uint256)",
      "arguments": [
        "0xE355d5D8aa52EF0FbbD037C4a3C5E6Fd659cf46B",
        "0x0fFE9Aa7321dc63a3dC063591C314157FbAC4a52",
        "1000000000000"
      ],
      "transaction": {
        "from": "0xe355d5d8aa52ef0fbbd037c4a3c5e6fd659cf46b",
        "to": "0xe7f3eb4113b2f70db591596a2dd27a797fc2fe48",
        "gas": "0x79569",
        "value": "0x0",
        "input": "0x9e8b6b7f000000000000000000000000e355d5d8aa52ef0fbbd037c4a3c5e6fd659cf46b0000000000000000000000000ffe9aa7321dc63a3dc063591c314157fbac4a52000000000000000000000000000000000000000000000000000000e8d4a51000",
        "nonce": "0x2ba",
        "chainId": "0x66eee"
      },
      "additionalContracts": [],
      "isFixedGasLimit": false
    }
  ],
  "receipts": [
    {
      "status": "0x1",
      "cumulativeGasUsed": "0x4dde8",
      "logs": [
        {
          "address": "0x85e99c1619f941c7b2827550b58d5d8f6b0ae738",
          "topics": [
            "0xddf252ad1be2c89b69c2b068fc378daa952ba7f163c4a11628f55a4df523b3ef",
            "0x0000000000000000000000000000000000000000000000000000000000000000",
            "0x000000000000000000000000e355d5d8aa52ef0fbbd037c4a3c5e6fd659cf46b"
          ],
          "data": "0x000000000000000000000000000000000000000000000000000000e8d4a51000",
          "blockHash": "0x89c7f2b5a81ad800543ba734ee3ef479cf578d54fe8240675e014b76059e85b1",
          "blockNumber": "0x600fed9",
          "transactionHash": "0x6ad0f768fb0c978d4c94de2637195c98008da06b1bec48bafb6e2c7ed7d38658",
          "transactionIndex": "0x2",
          "logIndex": "0x1",
          "removed": false
        }
      ],
      "logsBloom": "0x00000000000000000000000000000000000000000000000000000000000000000000000000000000000000000000000000000000000000000000000000000000000000000000000000000008000000000000000000000000000000000000000000000000020000000000000020000800000001000000000000000010000000000000000000000000000000000000000200000000000000000000000000200000000000000000000000000000000000000000000000000000000000000000000000000002000000000000000000000000000000000000000000000000000020000000000000000020000000000000000000000000000000000000000000004000",
      "type": "0x2",
      "transactionHash": "0x6ad0f768fb0c978d4c94de2637195c98008da06b1bec48bafb6e2c7ed7d38658",
      "transactionIndex": "0x2",
      "blockHash": "0x89c7f2b5a81ad800543ba734ee3ef479cf578d54fe8240675e014b76059e85b1",
      "blockNumber": "0x600fed9",
      "gasUsed": "0x164d7",
      "effectiveGasPrice": "0x5f5e100",
      "from": "0xe355d5d8aa52ef0fbbd037c4a3c5e6fd659cf46b",
      "to": "0xf3e27621f6b13d8f4431fbb9c72273143d5bd60d",
      "contractAddress": null,
      "gasUsedForL1": "0x3bb3",
      "l1BlockNumber": "0x6d3035"
    },
    {
      "status": "0x1",
      "cumulativeGasUsed": "0x20897b",
      "logs": [
        {
          "address": "0x85e99c1619f941c7b2827550b58d5d8f6b0ae738",
          "topics": [
            "0x8c5be1e5ebec7d5bd14f71427d1e84f3dd0314c0f7b2291e5b200ac8c7c3b925",
            "0x000000000000000000000000e355d5d8aa52ef0fbbd037c4a3c5e6fd659cf46b",
            "0x000000000000000000000000e7f3eb4113b2f70db591596a2dd27a797fc2fe48"
          ],
          "data": "0x000000000000000000000000000000000000000000000000000000e8d4a51000",
          "blockHash": "0x28c0291920fce40e891b9c1eeba51e0a6ef9bc219d29631a6f04d74cb361fe20",
          "blockNumber": "0x600fede",
          "transactionHash": "0x47510c0625030104bacfa13a169fc9aa481457e9a0a80258648ef0719f016a03",
          "transactionIndex": "0x4",
          "logIndex": "0x8",
          "removed": false
        }
      ],
      "logsBloom": "0x00000000000000000000000010000000000000000000000000000000000000000000000000000000000000000000000000000000000000000000000000200000000000000000000000000000000000000000000000000000000000000000000000000000002000000000000020000000000001000000020000000000000000000000000000000000000000000000000200000000000000000000000000200000020000000000000000000000000000000000000000000000000000000000000000000000000000000000000000000000000000000000000000000000000000000010000000000020000000000000000000000000000000000000000000004000",
      "type": "0x2",
      "transactionHash": "0x47510c0625030104bacfa13a169fc9aa481457e9a0a80258648ef0719f016a03",
      "transactionIndex": "0x4",
      "blockHash": "0x28c0291920fce40e891b9c1eeba51e0a6ef9bc219d29631a6f04d74cb361fe20",
      "blockNumber": "0x600fede",
      "gasUsed": "0xe647",
      "effectiveGasPrice": "0x5f5e100",
      "from": "0xe355d5d8aa52ef0fbbd037c4a3c5e6fd659cf46b",
      "to": "0x85e99c1619f941c7b2827550b58d5d8f6b0ae738",
      "contractAddress": null,
      "gasUsedForL1": "0x32da",
      "l1BlockNumber": "0x6d3035"
    },
    {
      "status": "0x1",
      "cumulativeGasUsed": "0x75e0f",
      "logs": [
        {
          "address": "0x85e99c1619f941c7b2827550b58d5d8f6b0ae738",
          "topics": [
            "0xddf252ad1be2c89b69c2b068fc378daa952ba7f163c4a11628f55a4df523b3ef",
            "0x000000000000000000000000e355d5d8aa52ef0fbbd037c4a3c5e6fd659cf46b",
            "0x000000000000000000000000e7f3eb4113b2f70db591596a2dd27a797fc2fe48"
          ],
          "data": "0x000000000000000000000000000000000000000000000000000000e8d4a51000",
          "blockHash": "0xb2379a3861fadef77332f6bc8d3cbd0660052283daebd2f7f2c96e3e5bd64992",
          "blockNumber": "0x600fee3",
          "transactionHash": "0x2024464bbf8e12cf06638bdd5faa0a9d60cfabc1ed083b37c09fb80960e60608",
          "transactionIndex": "0x2",
          "logIndex": "0x2",
          "removed": false
        },
        {
          "address": "0x85e99c1619f941c7b2827550b58d5d8f6b0ae738",
          "topics": [
            "0x8c5be1e5ebec7d5bd14f71427d1e84f3dd0314c0f7b2291e5b200ac8c7c3b925",
            "0x000000000000000000000000e7f3eb4113b2f70db591596a2dd27a797fc2fe48",
            "0x0000000000000000000000000ffe9aa7321dc63a3dc063591c314157fbac4a52"
          ],
          "data": "0x000000000000000000000000000000000000000000000000000000e8d4a51000",
          "blockHash": "0xb2379a3861fadef77332f6bc8d3cbd0660052283daebd2f7f2c96e3e5bd64992",
          "blockNumber": "0x600fee3",
          "transactionHash": "0x2024464bbf8e12cf06638bdd5faa0a9d60cfabc1ed083b37c09fb80960e60608",
          "transactionIndex": "0x2",
          "logIndex": "0x3",
          "removed": false
        },
        {
          "address": "0x85e99c1619f941c7b2827550b58d5d8f6b0ae738",
          "topics": [
            "0xddf252ad1be2c89b69c2b068fc378daa952ba7f163c4a11628f55a4df523b3ef",
            "0x000000000000000000000000e7f3eb4113b2f70db591596a2dd27a797fc2fe48",
            "0x0000000000000000000000000ffe9aa7321dc63a3dc063591c314157fbac4a52"
          ],
          "data": "0x000000000000000000000000000000000000000000000000000000e8d4a51000",
          "blockHash": "0xb2379a3861fadef77332f6bc8d3cbd0660052283daebd2f7f2c96e3e5bd64992",
          "blockNumber": "0x600fee3",
          "transactionHash": "0x2024464bbf8e12cf06638bdd5faa0a9d60cfabc1ed083b37c09fb80960e60608",
          "transactionIndex": "0x2",
          "logIndex": "0x4",
          "removed": false
        },
        {
          "address": "0xefb17e72df8fbc0e0585b839f0cd676a5a2ad91d",
          "topics": [
            "0xddf252ad1be2c89b69c2b068fc378daa952ba7f163c4a11628f55a4df523b3ef",
            "0x0000000000000000000000000000000000000000000000000000000000000000",
            "0x0000000000000000000000000ffe9aa7321dc63a3dc063591c314157fbac4a52"
          ],
          "data": "0x000000000000000000000000000000000000000000000000000000cce4166000",
          "blockHash": "0xb2379a3861fadef77332f6bc8d3cbd0660052283daebd2f7f2c96e3e5bd64992",
          "blockNumber": "0x600fee3",
          "transactionHash": "0x2024464bbf8e12cf06638bdd5faa0a9d60cfabc1ed083b37c09fb80960e60608",
          "transactionIndex": "0x2",
          "logIndex": "0x5",
          "removed": false
        },
        {
          "address": "0x4310625d02526f4ace1fd25db8ec6ddda0e5fac4",
          "topics": [
            "0xddf252ad1be2c89b69c2b068fc378daa952ba7f163c4a11628f55a4df523b3ef",
            "0x0000000000000000000000000000000000000000000000000000000000000000",
            "0x0000000000000000000000000ffe9aa7321dc63a3dc063591c314157fbac4a52"
          ],
          "data": "0x000000000000000000000000000000000000000000000000000000e8d4a51000",
          "blockHash": "0xb2379a3861fadef77332f6bc8d3cbd0660052283daebd2f7f2c96e3e5bd64992",
          "blockNumber": "0x600fee3",
          "transactionHash": "0x2024464bbf8e12cf06638bdd5faa0a9d60cfabc1ed083b37c09fb80960e60608",
          "transactionIndex": "0x2",
          "logIndex": "0x6",
          "removed": false
        },
        {
          "address": "0x9e509e576a1367f3315bc162c0e640ae8962c978",
          "topics": [
            "0xddf252ad1be2c89b69c2b068fc378daa952ba7f163c4a11628f55a4df523b3ef",
            "0x0000000000000000000000000000000000000000000000000000000000000000",
            "0x000000000000000000000000e7f3eb4113b2f70db591596a2dd27a797fc2fe48"
          ],
          "data": "0x000000000000000000000000000000000000000000000000000000e8d4a51000",
          "blockHash": "0xb2379a3861fadef77332f6bc8d3cbd0660052283daebd2f7f2c96e3e5bd64992",
          "blockNumber": "0x600fee3",
          "transactionHash": "0x2024464bbf8e12cf06638bdd5faa0a9d60cfabc1ed083b37c09fb80960e60608",
          "transactionIndex": "0x2",
          "logIndex": "0x7",
          "removed": false
        },
        {
          "address": "0x6c1590364ca5d002ceabc4724630441c4ddd1710",
          "topics": [
            "0xddf252ad1be2c89b69c2b068fc378daa952ba7f163c4a11628f55a4df523b3ef",
            "0x0000000000000000000000000000000000000000000000000000000000000000",
            "0x000000000000000000000000e7f3eb4113b2f70db591596a2dd27a797fc2fe48"
          ],
          "data": "0x000000000000000000000000000000000000000000000000000000cce4166000",
          "blockHash": "0xb2379a3861fadef77332f6bc8d3cbd0660052283daebd2f7f2c96e3e5bd64992",
          "blockNumber": "0x600fee3",
          "transactionHash": "0x2024464bbf8e12cf06638bdd5faa0a9d60cfabc1ed083b37c09fb80960e60608",
          "transactionIndex": "0x2",
          "logIndex": "0x8",
          "removed": false
        },
        {
          "address": "0x0ffe9aa7321dc63a3dc063591c314157fbac4a52",
          "topics": [
            "0x837d515bfda1f7b5c30f094669cee0f6531127ef3e2cfb85135a66eea2aceadb",
            "0x000000000000000000000000e7f3eb4113b2f70db591596a2dd27a797fc2fe48"
          ],
          "data": "0x000000000000000000000000000000000000000000000000000000e8d4a51000000000000000000000000000000000000000000000000000000000cce4166000000000000000000000000000000000000000000000000000000000e8d4a51000",
          "blockHash": "0xb2379a3861fadef77332f6bc8d3cbd0660052283daebd2f7f2c96e3e5bd64992",
          "blockNumber": "0x600fee3",
          "transactionHash": "0x2024464bbf8e12cf06638bdd5faa0a9d60cfabc1ed083b37c09fb80960e60608",
          "transactionIndex": "0x2",
          "logIndex": "0x9",
          "removed": false
        },
        {
          "address": "0x6c1590364ca5d002ceabc4724630441c4ddd1710",
          "topics": [
            "0xddf252ad1be2c89b69c2b068fc378daa952ba7f163c4a11628f55a4df523b3ef",
            "0x000000000000000000000000e7f3eb4113b2f70db591596a2dd27a797fc2fe48",
            "0x000000000000000000000000e355d5d8aa52ef0fbbd037c4a3c5e6fd659cf46b"
          ],
          "data": "0x000000000000000000000000000000000000000000000000000000cce4166000",
          "blockHash": "0xb2379a3861fadef77332f6bc8d3cbd0660052283daebd2f7f2c96e3e5bd64992",
          "blockNumber": "0x600fee3",
          "transactionHash": "0x2024464bbf8e12cf06638bdd5faa0a9d60cfabc1ed083b37c09fb80960e60608",
          "transactionIndex": "0x2",
          "logIndex": "0xa",
          "removed": false
        },
        {
          "address": "0x9e509e576a1367f3315bc162c0e640ae8962c978",
          "topics": [
            "0xddf252ad1be2c89b69c2b068fc378daa952ba7f163c4a11628f55a4df523b3ef",
            "0x000000000000000000000000e7f3eb4113b2f70db591596a2dd27a797fc2fe48",
            "0x000000000000000000000000e355d5d8aa52ef0fbbd037c4a3c5e6fd659cf46b"
          ],
          "data": "0x000000000000000000000000000000000000000000000000000000e8d4a51000",
          "blockHash": "0xb2379a3861fadef77332f6bc8d3cbd0660052283daebd2f7f2c96e3e5bd64992",
          "blockNumber": "0x600fee3",
          "transactionHash": "0x2024464bbf8e12cf06638bdd5faa0a9d60cfabc1ed083b37c09fb80960e60608",
          "transactionIndex": "0x2",
          "logIndex": "0xb",
          "removed": false
        },
        {
          "address": "0xe7f3eb4113b2f70db591596a2dd27a797fc2fe48",
          "topics": [
            "0x2c44d8394ff4c00656fbe852f8825ff1983b71f9b99207b795a8f3342e8d6ea4",
            "0x0000000000000000000000000ffe9aa7321dc63a3dc063591c314157fbac4a52",
            "0x00000000000000000000000085e99c1619f941c7b2827550b58d5d8f6b0ae738"
          ],
          "data": "0x000000000000000000000000e355d5d8aa52ef0fbbd037c4a3c5e6fd659cf46b000000000000000000000000e355d5d8aa52ef0fbbd037c4a3c5e6fd659cf46b000000000000000000000000000000000000000000000000000000e8d4a51000000000000000000000000000000000000000000000000000000000cce4166000000000000000000000000000000000000000000000000000000000e8d4a51000",
          "blockHash": "0xb2379a3861fadef77332f6bc8d3cbd0660052283daebd2f7f2c96e3e5bd64992",
          "blockNumber": "0x600fee3",
          "transactionHash": "0x2024464bbf8e12cf06638bdd5faa0a9d60cfabc1ed083b37c09fb80960e60608",
          "transactionIndex": "0x2",
          "logIndex": "0xc",
          "removed": false
        }
      ],
      "logsBloom": "0x00000000000000000000000010000002000000000000000000000000000000008000000000000080100000000000000000000800000000000000000080200000000000000000000000000008000000004000000000002000010000000080000000000000022000000000000020000802000001000000020000000010000000000000200000000004000000000000000240000000000000080000000000200000020008000000000100024000000020000000080000000000000000000000004000000002000000000000000000000000026000000000000000000000000420000010000000000020400000000000800000000000000000200000000000004004",
      "type": "0x2",
      "transactionHash": "0x2024464bbf8e12cf06638bdd5faa0a9d60cfabc1ed083b37c09fb80960e60608",
      "transactionIndex": "0x2",
      "blockHash": "0xb2379a3861fadef77332f6bc8d3cbd0660052283daebd2f7f2c96e3e5bd64992",
      "blockNumber": "0x600fee3",
      "gasUsed": "0x5b940",
      "effectiveGasPrice": "0x5f5e100",
      "from": "0xe355d5d8aa52ef0fbbd037c4a3c5e6fd659cf46b",
      "to": "0xe7f3eb4113b2f70db591596a2dd27a797fc2fe48",
      "contractAddress": null,
      "gasUsedForL1": "0x3bb3",
      "l1BlockNumber": "0x6d3035"
    }
  ],
  "libraries": [],
  "pending": [],
  "returns": {},
  "timestamp": 1732615702,
  "chain": 421614,
  "commit": "aaf9a35"
}