{
  "transactions": [
    {
      "hash": "0x17d08d252cba09932c6be73c3cf2bc74f6fdceb2eec35d41302d95cdfcd71b54",
      "transactionType": "CALL",
      "contractName": null,
      "contractAddress": "0x497479c0795cafb3af2ea13cab8135071e45d905",
      "function": "mint(address,uint256)",
      "arguments": [
        "0xE355d5D8aa52EF0FbbD037C4a3C5E6Fd659cf46B",
        "1000000000000"
      ],
      "transaction": {
        "from": "0xe355d5d8aa52ef0fbbd037c4a3c5e6fd659cf46b",
        "to": "0x497479c0795cafb3af2ea13cab8135071e45d905",
        "gas": "0x16d80",
        "value": "0x0",
        "input": "0x40c10f19000000000000000000000000e355d5d8aa52ef0fbbd037c4a3c5e6fd659cf46b000000000000000000000000000000000000000000000000000000e8d4a51000",
        "nonce": "0x23d",
        "chainId": "0x66eee"
      },
      "additionalContracts": [],
      "isFixedGasLimit": false
    },
    {
      "hash": "0xe7bb83da62f0c9be711ea25c5c5bd05c82336ecf06da1b389a7efb47728f040a",
      "transactionType": "CALL",
      "contractName": null,
      "contractAddress": "0x497479c0795cafb3af2ea13cab8135071e45d905",
      "function": "approve(address,uint256)",
      "arguments": [
        "0x722196e0c129287186fB117fd38aDc07FAbA4f87",
        "1000000000000"
      ],
      "transaction": {
        "from": "0xe355d5d8aa52ef0fbbd037c4a3c5e6fd659cf46b",
        "to": "0x497479c0795cafb3af2ea13cab8135071e45d905",
        "gas": "0xfaa6",
        "value": "0x0",
        "input": "0x095ea7b3000000000000000000000000722196e0c129287186fb117fd38adc07faba4f87000000000000000000000000000000000000000000000000000000e8d4a51000",
        "nonce": "0x23e",
        "chainId": "0x66eee"
      },
      "additionalContracts": [],
      "isFixedGasLimit": false
    },
    {
      "hash": "0xe3eb277fe9102832910907e57fbc6f46fee8dab6ffc9218b50dafdff10b10c48",
      "transactionType": "CALL",
      "contractName": null,
      "contractAddress": "0x722196e0c129287186fb117fd38adc07faba4f87",
      "function": "provideLiquidity(address,address,uint256)",
      "arguments": [
        "0xE355d5D8aa52EF0FbbD037C4a3C5E6Fd659cf46B",
        "0x27259E82AbBA9Fe36D3f8CB72Ee33E3b2f73cFb8",
        "1000000000000"
      ],
      "transaction": {
        "from": "0xe355d5d8aa52ef0fbbd037c4a3c5e6fd659cf46b",
        "to": "0x722196e0c129287186fb117fd38adc07faba4f87",
        "gas": "0x795d0",
        "value": "0x0",
        "input": "0x9e8b6b7f000000000000000000000000e355d5d8aa52ef0fbbd037c4a3c5e6fd659cf46b00000000000000000000000027259e82abba9fe36d3f8cb72ee33e3b2f73cfb8000000000000000000000000000000000000000000000000000000e8d4a51000",
        "nonce": "0x23f",
        "chainId": "0x66eee"
      },
      "additionalContracts": [],
      "isFixedGasLimit": false
    }
  ],
  "receipts": [
    {
      "status": "0x1",
      "cumulativeGasUsed": "0x26843",
      "logs": [
        {
          "address": "0x497479c0795cafb3af2ea13cab8135071e45d905",
          "topics": [
            "0xddf252ad1be2c89b69c2b068fc378daa952ba7f163c4a11628f55a4df523b3ef",
            "0x0000000000000000000000000000000000000000000000000000000000000000",
            "0x000000000000000000000000e355d5d8aa52ef0fbbd037c4a3c5e6fd659cf46b"
          ],
          "data": "0x000000000000000000000000000000000000000000000000000000e8d4a51000",
          "blockHash": "0xfb49e72f88eddcb5e92fa54559f4cc173db103e8bcdd6353284d37e61d77df4c",
          "blockNumber": "0x5faf920",
          "transactionHash": "0x17d08d252cba09932c6be73c3cf2bc74f6fdceb2eec35d41302d95cdfcd71b54",
          "transactionIndex": "0x2",
          "logIndex": "0x8",
          "removed": false
        }
      ],
      "logsBloom": "0x00000000000000000000000000000000000000000000000000000000000000000000000000000000000000000000000000000000000000000000000000000000000000000000000000000008000000000000000000000000000000000000000000000000020000001000000000000800000000000000000000000010000000000000000000000000000000000000000200000000000000000000000000000000800000000000400000000000000000000000000000000000000000000000000000000002000000000000000000000000000000000000000000000000000020000000000000000020000000000000000000000000000000000000000000004000",
      "type": "0x2",
      "transactionHash": "0x17d08d252cba09932c6be73c3cf2bc74f6fdceb2eec35d41302d95cdfcd71b54",
      "transactionIndex": "0x2",
      "blockHash": "0xfb49e72f88eddcb5e92fa54559f4cc173db103e8bcdd6353284d37e61d77df4c",
      "blockNumber": "0x5faf920",
      "gasUsed": "0x1133a",
      "effectiveGasPrice": "0x5f5e100",
      "from": "0xe355d5d8aa52ef0fbbd037c4a3c5e6fd659cf46b",
      "to": "0x497479c0795cafb3af2ea13cab8135071e45d905",
      "contractAddress": null,
      "gasUsedForL1": "0x951",
      "l1BlockNumber": "0x6d0fcc"
    },
    {
      "status": "0x1",
      "cumulativeGasUsed": "0xbcb1",
      "logs": [
        {
          "address": "0x497479c0795cafb3af2ea13cab8135071e45d905",
          "topics": [
            "0x8c5be1e5ebec7d5bd14f71427d1e84f3dd0314c0f7b2291e5b200ac8c7c3b925",
            "0x000000000000000000000000e355d5d8aa52ef0fbbd037c4a3c5e6fd659cf46b",
            "0x000000000000000000000000722196e0c129287186fb117fd38adc07faba4f87"
          ],
          "data": "0x000000000000000000000000000000000000000000000000000000e8d4a51000",
          "blockHash": "0x3d1a9db457ad0737313a6edc68609929a4e8910877c0fdd68991b45c0f63ae41",
          "blockNumber": "0x5faf924",
          "transactionHash": "0xe7bb83da62f0c9be711ea25c5c5bd05c82336ecf06da1b389a7efb47728f040a",
          "transactionIndex": "0x1",
          "logIndex": "0x0",
          "removed": false
        }
      ],
      "logsBloom": "0x00000000000000001000000000000000000000000000000000000000000000000000000000000000000000000000000000000000000000000000000000200008000000000000000000000000000000000000000000000000000000000000000000000000000000001000000000000000000000000000000000000000000000000000000000000000000000000000000200000000000000000000000000000000820000000000400000000000000000000000000000000000000000000000000000000000000000000000000000000000000000000000000000000000000000000010000000000020000000001000000000000000000000000000000000004000",
      "type": "0x2",
      "transactionHash": "0xe7bb83da62f0c9be711ea25c5c5bd05c82336ecf06da1b389a7efb47728f040a",
      "transactionIndex": "0x1",
      "blockHash": "0x3d1a9db457ad0737313a6edc68609929a4e8910877c0fdd68991b45c0f63ae41",
      "blockNumber": "0x5faf924",
      "gasUsed": "0xbcb1",
      "effectiveGasPrice": "0x5f5e100",
      "from": "0xe355d5d8aa52ef0fbbd037c4a3c5e6fd659cf46b",
      "to": "0x497479c0795cafb3af2ea13cab8135071e45d905",
      "contractAddress": null,
      "gasUsedForL1": "0x944",
      "l1BlockNumber": "0x6d0fcc"
    },
    {
      "status": "0x1",
      "cumulativeGasUsed": "0x588c7",
      "logs": [
        {
          "address": "0x497479c0795cafb3af2ea13cab8135071e45d905",
          "topics": [
            "0xddf252ad1be2c89b69c2b068fc378daa952ba7f163c4a11628f55a4df523b3ef",
            "0x000000000000000000000000e355d5d8aa52ef0fbbd037c4a3c5e6fd659cf46b",
            "0x000000000000000000000000722196e0c129287186fb117fd38adc07faba4f87"
          ],
          "data": "0x000000000000000000000000000000000000000000000000000000e8d4a51000",
          "blockHash": "0xc841d80d425e5a62758b3f72326fbe746d43f556e1534d6d7e8665dd49408298",
          "blockNumber": "0x5faf927",
          "transactionHash": "0xe3eb277fe9102832910907e57fbc6f46fee8dab6ffc9218b50dafdff10b10c48",
          "transactionIndex": "0x1",
          "logIndex": "0x0",
          "removed": false
        },
        {
          "address": "0x497479c0795cafb3af2ea13cab8135071e45d905",
          "topics": [
            "0x8c5be1e5ebec7d5bd14f71427d1e84f3dd0314c0f7b2291e5b200ac8c7c3b925",
            "0x000000000000000000000000722196e0c129287186fb117fd38adc07faba4f87",
            "0x00000000000000000000000027259e82abba9fe36d3f8cb72ee33e3b2f73cfb8"
          ],
          "data": "0x000000000000000000000000000000000000000000000000000000e8d4a51000",
          "blockHash": "0xc841d80d425e5a62758b3f72326fbe746d43f556e1534d6d7e8665dd49408298",
          "blockNumber": "0x5faf927",
          "transactionHash": "0xe3eb277fe9102832910907e57fbc6f46fee8dab6ffc9218b50dafdff10b10c48",
          "transactionIndex": "0x1",
          "logIndex": "0x1",
          "removed": false
        },
        {
          "address": "0x497479c0795cafb3af2ea13cab8135071e45d905",
          "topics": [
            "0xddf252ad1be2c89b69c2b068fc378daa952ba7f163c4a11628f55a4df523b3ef",
            "0x000000000000000000000000722196e0c129287186fb117fd38adc07faba4f87",
            "0x00000000000000000000000027259e82abba9fe36d3f8cb72ee33e3b2f73cfb8"
          ],
          "data": "0x000000000000000000000000000000000000000000000000000000e8d4a51000",
          "blockHash": "0xc841d80d425e5a62758b3f72326fbe746d43f556e1534d6d7e8665dd49408298",
          "blockNumber": "0x5faf927",
          "transactionHash": "0xe3eb277fe9102832910907e57fbc6f46fee8dab6ffc9218b50dafdff10b10c48",
          "transactionIndex": "0x1",
          "logIndex": "0x2",
          "removed": false
        },
        {
          "address": "0xf6e5a90813489c88e08596dd7f13c7ac3548aac6",
          "topics": [
            "0xddf252ad1be2c89b69c2b068fc378daa952ba7f163c4a11628f55a4df523b3ef",
            "0x0000000000000000000000000000000000000000000000000000000000000000",
            "0x00000000000000000000000027259e82abba9fe36d3f8cb72ee33e3b2f73cfb8"
          ],
          "data": "0x000000000000000000000000000000000000000000000000000000cce4166000",
          "blockHash": "0xc841d80d425e5a62758b3f72326fbe746d43f556e1534d6d7e8665dd49408298",
          "blockNumber": "0x5faf927",
          "transactionHash": "0xe3eb277fe9102832910907e57fbc6f46fee8dab6ffc9218b50dafdff10b10c48",
          "transactionIndex": "0x1",
          "logIndex": "0x3",
          "removed": false
        },
        {
          "address": "0x8d7a9b66da123c1e80ada7a5e3cb219156bcca88",
          "topics": [
            "0xddf252ad1be2c89b69c2b068fc378daa952ba7f163c4a11628f55a4df523b3ef",
            "0x0000000000000000000000000000000000000000000000000000000000000000",
            "0x00000000000000000000000027259e82abba9fe36d3f8cb72ee33e3b2f73cfb8"
          ],
          "data": "0x000000000000000000000000000000000000000000000000000000e8d4a51000",
          "blockHash": "0xc841d80d425e5a62758b3f72326fbe746d43f556e1534d6d7e8665dd49408298",
          "blockNumber": "0x5faf927",
          "transactionHash": "0xe3eb277fe9102832910907e57fbc6f46fee8dab6ffc9218b50dafdff10b10c48",
          "transactionIndex": "0x1",
          "logIndex": "0x4",
          "removed": false
        },
        {
          "address": "0x90256a258b2a4f4059e464e712a1e392b15dc08d",
          "topics": [
            "0xddf252ad1be2c89b69c2b068fc378daa952ba7f163c4a11628f55a4df523b3ef",
            "0x0000000000000000000000000000000000000000000000000000000000000000",
            "0x000000000000000000000000722196e0c129287186fb117fd38adc07faba4f87"
          ],
          "data": "0x000000000000000000000000000000000000000000000000000000e8d4a51000",
          "blockHash": "0xc841d80d425e5a62758b3f72326fbe746d43f556e1534d6d7e8665dd49408298",
          "blockNumber": "0x5faf927",
          "transactionHash": "0xe3eb277fe9102832910907e57fbc6f46fee8dab6ffc9218b50dafdff10b10c48",
          "transactionIndex": "0x1",
          "logIndex": "0x5",
          "removed": false
        },
        {
          "address": "0xa546d8f336596a0b7742528e1086bb0b90dfbfff",
          "topics": [
            "0xddf252ad1be2c89b69c2b068fc378daa952ba7f163c4a11628f55a4df523b3ef",
            "0x0000000000000000000000000000000000000000000000000000000000000000",
            "0x000000000000000000000000722196e0c129287186fb117fd38adc07faba4f87"
          ],
          "data": "0x000000000000000000000000000000000000000000000000000000cce4166000",
          "blockHash": "0xc841d80d425e5a62758b3f72326fbe746d43f556e1534d6d7e8665dd49408298",
          "blockNumber": "0x5faf927",
          "transactionHash": "0xe3eb277fe9102832910907e57fbc6f46fee8dab6ffc9218b50dafdff10b10c48",
          "transactionIndex": "0x1",
          "logIndex": "0x6",
          "removed": false
        },
        {
          "address": "0x27259e82abba9fe36d3f8cb72ee33e3b2f73cfb8",
          "topics": [
            "0x837d515bfda1f7b5c30f094669cee0f6531127ef3e2cfb85135a66eea2aceadb",
            "0x000000000000000000000000722196e0c129287186fb117fd38adc07faba4f87"
          ],
          "data": "0x000000000000000000000000000000000000000000000000000000e8d4a51000000000000000000000000000000000000000000000000000000000cce4166000000000000000000000000000000000000000000000000000000000e8d4a51000",
          "blockHash": "0xc841d80d425e5a62758b3f72326fbe746d43f556e1534d6d7e8665dd49408298",
          "blockNumber": "0x5faf927",
          "transactionHash": "0xe3eb277fe9102832910907e57fbc6f46fee8dab6ffc9218b50dafdff10b10c48",
          "transactionIndex": "0x1",
          "logIndex": "0x7",
          "removed": false
        },
        {
          "address": "0xa546d8f336596a0b7742528e1086bb0b90dfbfff",
          "topics": [
            "0xddf252ad1be2c89b69c2b068fc378daa952ba7f163c4a11628f55a4df523b3ef",
            "0x000000000000000000000000722196e0c129287186fb117fd38adc07faba4f87",
            "0x000000000000000000000000e355d5d8aa52ef0fbbd037c4a3c5e6fd659cf46b"
          ],
          "data": "0x000000000000000000000000000000000000000000000000000000cce4166000",
          "blockHash": "0xc841d80d425e5a62758b3f72326fbe746d43f556e1534d6d7e8665dd49408298",
          "blockNumber": "0x5faf927",
          "transactionHash": "0xe3eb277fe9102832910907e57fbc6f46fee8dab6ffc9218b50dafdff10b10c48",
          "transactionIndex": "0x1",
          "logIndex": "0x8",
          "removed": false
        },
        {
          "address": "0x90256a258b2a4f4059e464e712a1e392b15dc08d",
          "topics": [
            "0xddf252ad1be2c89b69c2b068fc378daa952ba7f163c4a11628f55a4df523b3ef",
            "0x000000000000000000000000722196e0c129287186fb117fd38adc07faba4f87",
            "0x000000000000000000000000e355d5d8aa52ef0fbbd037c4a3c5e6fd659cf46b"
          ],
          "data": "0x000000000000000000000000000000000000000000000000000000e8d4a51000",
          "blockHash": "0xc841d80d425e5a62758b3f72326fbe746d43f556e1534d6d7e8665dd49408298",
          "blockNumber": "0x5faf927",
          "transactionHash": "0xe3eb277fe9102832910907e57fbc6f46fee8dab6ffc9218b50dafdff10b10c48",
          "transactionIndex": "0x1",
          "logIndex": "0x9",
          "removed": false
        },
        {
          "address": "0x722196e0c129287186fb117fd38adc07faba4f87",
          "topics": [
            "0x2c44d8394ff4c00656fbe852f8825ff1983b71f9b99207b795a8f3342e8d6ea4",
            "0x00000000000000000000000027259e82abba9fe36d3f8cb72ee33e3b2f73cfb8",
            "0x000000000000000000000000497479c0795cafb3af2ea13cab8135071e45d905"
          ],
          "data": "0x000000000000000000000000e355d5d8aa52ef0fbbd037c4a3c5e6fd659cf46b000000000000000000000000e355d5d8aa52ef0fbbd037c4a3c5e6fd659cf46b000000000000000000000000000000000000000000000000000000e8d4a51000000000000000000000000000000000000000000000000000000000cce4166000000000000000000000000000000000000000000000000000000000e8d4a51000",
          "blockHash": "0xc841d80d425e5a62758b3f72326fbe746d43f556e1534d6d7e8665dd49408298",
          "blockNumber": "0x5faf927",
          "transactionHash": "0xe3eb277fe9102832910907e57fbc6f46fee8dab6ffc9218b50dafdff10b10c48",
          "transactionIndex": "0x1",
          "logIndex": "0xa",
          "removed": false
        }
      ],
      "logsBloom": "0x0000200000000000100000000000000000000000000000a000000000000000000000000000000000100000800000000000000000000000000080000000200208000000000000008000000008000000000000400000000000000008000000000000000000020000001000000000000800000000100800000400000010000000000000000000000000000000400000010200000000040000000000000000000080820000000000400100020000008020000000080004000000000000000000000000000002000000000000000000000800000000000000000000000000000020000010004000000020000000001000800000008000008000000000000400004004",
      "type": "0x2",
      "transactionHash": "0xe3eb277fe9102832910907e57fbc6f46fee8dab6ffc9218b50dafdff10b10c48",
      "transactionIndex": "0x1",
      "blockHash": "0xc841d80d425e5a62758b3f72326fbe746d43f556e1534d6d7e8665dd49408298",
      "blockNumber": "0x5faf927",
      "gasUsed": "0x588c7",
      "effectiveGasPrice": "0x5f5e100",
      "from": "0xe355d5d8aa52ef0fbbd037c4a3c5e6fd659cf46b",
      "to": "0x722196e0c129287186fb117fd38adc07faba4f87",
      "contractAddress": null,
      "gasUsedForL1": "0xaf0",
      "l1BlockNumber": "0x6d0fcc"
    }
  ],
  "libraries": [],
  "pending": [],
  "returns": {},
  "timestamp": 1732509749,
  "chain": 421614,
  "commit": "84ddf34"
}