{
  "transactions": [
    {
      "hash": "0x9da8da366318ed499ea54c6eab1518e3ff7767e793e57d91baf177f20faf6aa3",
      "transactionType": "CALL",
      "contractName": null,
      "contractAddress": "0x791124ee95c885cdccd1a4ec62ab328ce1472a36",
      "function": "mint(address,uint256)",
      "arguments": [
        "0xE355d5D8aa52EF0FbbD037C4a3C5E6Fd659cf46B",
        "1000000000000"
      ],
      "transaction": {
        "from": "0xe355d5d8aa52ef0fbbd037c4a3c5e6fd659cf46b",
        "to": "0x791124ee95c885cdccd1a4ec62ab328ce1472a36",
        "gas": "0x18039",
        "value": "0x0",
        "input": "0x40c10f19000000000000000000000000e355d5d8aa52ef0fbbd037c4a3c5e6fd659cf46b000000000000000000000000000000000000000000000000000000e8d4a51000",
        "nonce": "0x272",
        "chainId": "0x66eee"
      },
      "additionalContracts": [],
      "isFixedGasLimit": false
    },
    {
      "hash": "0x3479aea9dd1d6849169857ca34c7c7e0af650c548705e5e9f10a2d5601138677",
      "transactionType": "CALL",
      "contractName": null,
      "contractAddress": "0x791124ee95c885cdccd1a4ec62ab328ce1472a36",
      "function": "approve(address,uint256)",
      "arguments": [
        "0x07c20177b6F219367F32fE72D8A70aA299920A8F",
        "1000000000000"
      ],
      "transaction": {
        "from": "0xe355d5d8aa52ef0fbbd037c4a3c5e6fd659cf46b",
        "to": "0x791124ee95c885cdccd1a4ec62ab328ce1472a36",
        "gas": "0x10f59",
        "value": "0x0",
        "input": "0x095ea7b300000000000000000000000007c20177b6f219367f32fe72d8a70aa299920a8f000000000000000000000000000000000000000000000000000000e8d4a51000",
        "nonce": "0x273",
        "chainId": "0x66eee"
      },
      "additionalContracts": [],
      "isFixedGasLimit": false
    },
    {
      "hash": "0xd09b2e7eb2645918121f7b79696917afc514af38a09768a336f5b3c926f954fa",
      "transactionType": "CALL",
      "contractName": null,
      "contractAddress": "0x07c20177b6f219367f32fe72d8a70aa299920a8f",
      "function": "provideLiquidity(address,address,uint256)",
      "arguments": [
        "0xE355d5D8aa52EF0FbbD037C4a3C5E6Fd659cf46B",
        "0x806fdCb526E084b97541b9e65EaEF60DfF04be95",
        "1000000000000"
      ],
      "transaction": {
        "from": "0xe355d5d8aa52ef0fbbd037c4a3c5e6fd659cf46b",
        "to": "0x07c20177b6f219367f32fe72d8a70aa299920a8f",
        "gas": "0x795d0",
        "value": "0x0",
        "input": "0x9e8b6b7f000000000000000000000000e355d5d8aa52ef0fbbd037c4a3c5e6fd659cf46b000000000000000000000000806fdcb526e084b97541b9e65eaef60dff04be95000000000000000000000000000000000000000000000000000000e8d4a51000",
        "nonce": "0x274",
        "chainId": "0x66eee"
      },
      "additionalContracts": [],
      "isFixedGasLimit": false
    }
  ],
  "receipts": [
    {
      "status": "0x1",
      "cumulativeGasUsed": "0x11e7d",
      "logs": [
        {
          "address": "0x791124ee95c885cdccd1a4ec62ab328ce1472a36",
          "topics": [
            "0xddf252ad1be2c89b69c2b068fc378daa952ba7f163c4a11628f55a4df523b3ef",
            "0x0000000000000000000000000000000000000000000000000000000000000000",
            "0x000000000000000000000000e355d5d8aa52ef0fbbd037c4a3c5e6fd659cf46b"
          ],
          "data": "0x000000000000000000000000000000000000000000000000000000e8d4a51000",
          "blockHash": "0x3216770d0e050ea51602e6055f900957387d00a34209d9b9d4e0ea1e8be3f7a9",
          "blockNumber": "0x5fb3880",
          "transactionHash": "0x9da8da366318ed499ea54c6eab1518e3ff7767e793e57d91baf177f20faf6aa3",
          "transactionIndex": "0x1",
          "logIndex": "0x0",
          "removed": false
        }
      ],
      "logsBloom": "0x00000000000000000000001000000000000000000000000000000000000000000000000000000000000000000000000000000000000000000000000000000000000000000000000008000008000000000000000000000000000000000000000000000000020000000000000000000800000000000000000000000010000000000000000000000000000000000000000200000000000000000000000001000000000000000000000000000000000000000000000000000000000000000000000000000002000000000000000000000000000000000000000000000000000020000000000000000020000000000000000000000000000000000000000000004000",
      "type": "0x2",
      "transactionHash": "0x9da8da366318ed499ea54c6eab1518e3ff7767e793e57d91baf177f20faf6aa3",
      "transactionIndex": "0x1",
      "blockHash": "0x3216770d0e050ea51602e6055f900957387d00a34209d9b9d4e0ea1e8be3f7a9",
      "blockNumber": "0x5fb3880",
      "gasUsed": "0x11e7d",
      "effectiveGasPrice": "0x5f5e100",
      "from": "0xe355d5d8aa52ef0fbbd037c4a3c5e6fd659cf46b",
      "to": "0x791124ee95c885cdccd1a4ec62ab328ce1472a36",
      "contractAddress": null,
      "gasUsedForL1": "0x1494",
      "l1BlockNumber": "0x6d1132"
    },
    {
      "status": "0x1",
      "cumulativeGasUsed": "0xc801",
      "logs": [
        {
          "address": "0x791124ee95c885cdccd1a4ec62ab328ce1472a36",
          "topics": [
            "0x8c5be1e5ebec7d5bd14f71427d1e84f3dd0314c0f7b2291e5b200ac8c7c3b925",
            "0x000000000000000000000000e355d5d8aa52ef0fbbd037c4a3c5e6fd659cf46b",
            "0x00000000000000000000000007c20177b6f219367f32fe72d8a70aa299920a8f"
          ],
          "data": "0x000000000000000000000000000000000000000000000000000000e8d4a51000",
          "blockHash": "0x7269deeeb919feb77443a39faa946c443104898d4f7b29ebe57ba14bb6abdb9f",
          "blockNumber": "0x5fb3884",
          "transactionHash": "0x3479aea9dd1d6849169857ca34c7c7e0af650c548705e5e9f10a2d5601138677",
          "transactionIndex": "0x1",
          "logIndex": "0x0",
          "removed": false
        }
      ],
      "logsBloom": "0x00000000000000000000001000000000000000000000000000100000000000000000000000000000000000000000000000000000000000000000000000200000001000000000000008000000000100000000000000000000000000000000000000000000000000000000000000000000000000000000000000000000000000000000000000000000000000000000000200000000000000000000000001000000020000000000000000000000000000000000000000000000000000000000000000000000000000000000000000000000000000000000000000000000000000000010000000000020000000000000000000000000000000000000000000004000",
      "type": "0x2",
      "transactionHash": "0x3479aea9dd1d6849169857ca34c7c7e0af650c548705e5e9f10a2d5601138677",
      "transactionIndex": "0x1",
      "blockHash": "0x7269deeeb919feb77443a39faa946c443104898d4f7b29ebe57ba14bb6abdb9f",
      "blockNumber": "0x5fb3884",
      "gasUsed": "0xc801",
      "effectiveGasPrice": "0x5f5e100",
      "from": "0xe355d5d8aa52ef0fbbd037c4a3c5e6fd659cf46b",
      "to": "0x791124ee95c885cdccd1a4ec62ab328ce1472a36",
      "contractAddress": null,
      "gasUsedForL1": "0x1494",
      "l1BlockNumber": "0x6d1132"
    },
    {
      "status": "0x1",
      "cumulativeGasUsed": "0x70ca9",
      "logs": [
        {
          "address": "0x791124ee95c885cdccd1a4ec62ab328ce1472a36",
          "topics": [
            "0xddf252ad1be2c89b69c2b068fc378daa952ba7f163c4a11628f55a4df523b3ef",
            "0x000000000000000000000000e355d5d8aa52ef0fbbd037c4a3c5e6fd659cf46b",
            "0x00000000000000000000000007c20177b6f219367f32fe72d8a70aa299920a8f"
          ],
          "data": "0x000000000000000000000000000000000000000000000000000000e8d4a51000",
          "blockHash": "0xa703c2b9931cb8d0a8cefa485067dfd0ca3320b69424ea1b8d731449cd0bf861",
          "blockNumber": "0x5fb3888",
          "transactionHash": "0xd09b2e7eb2645918121f7b79696917afc514af38a09768a336f5b3c926f954fa",
          "transactionIndex": "0x2",
          "logIndex": "0x2",
          "removed": false
        },
        {
          "address": "0x791124ee95c885cdccd1a4ec62ab328ce1472a36",
          "topics": [
            "0x8c5be1e5ebec7d5bd14f71427d1e84f3dd0314c0f7b2291e5b200ac8c7c3b925",
            "0x00000000000000000000000007c20177b6f219367f32fe72d8a70aa299920a8f",
            "0x000000000000000000000000806fdcb526e084b97541b9e65eaef60dff04be95"
          ],
          "data": "0x000000000000000000000000000000000000000000000000000000e8d4a51000",
          "blockHash": "0xa703c2b9931cb8d0a8cefa485067dfd0ca3320b69424ea1b8d731449cd0bf861",
          "blockNumber": "0x5fb3888",
          "transactionHash": "0xd09b2e7eb2645918121f7b79696917afc514af38a09768a336f5b3c926f954fa",
          "transactionIndex": "0x2",
          "logIndex": "0x3",
          "removed": false
        },
        {
          "address": "0x791124ee95c885cdccd1a4ec62ab328ce1472a36",
          "topics": [
            "0xddf252ad1be2c89b69c2b068fc378daa952ba7f163c4a11628f55a4df523b3ef",
            "0x00000000000000000000000007c20177b6f219367f32fe72d8a70aa299920a8f",
            "0x000000000000000000000000806fdcb526e084b97541b9e65eaef60dff04be95"
          ],
          "data": "0x000000000000000000000000000000000000000000000000000000e8d4a51000",
          "blockHash": "0xa703c2b9931cb8d0a8cefa485067dfd0ca3320b69424ea1b8d731449cd0bf861",
          "blockNumber": "0x5fb3888",
          "transactionHash": "0xd09b2e7eb2645918121f7b79696917afc514af38a09768a336f5b3c926f954fa",
          "transactionIndex": "0x2",
          "logIndex": "0x4",
          "removed": false
        },
        {
          "address": "0x76ee69ab1e720704ca8f0cee6e92ac8cc8fa0c9f",
          "topics": [
            "0xddf252ad1be2c89b69c2b068fc378daa952ba7f163c4a11628f55a4df523b3ef",
            "0x0000000000000000000000000000000000000000000000000000000000000000",
            "0x000000000000000000000000806fdcb526e084b97541b9e65eaef60dff04be95"
          ],
          "data": "0x000000000000000000000000000000000000000000000000000000cce4166000",
          "blockHash": "0xa703c2b9931cb8d0a8cefa485067dfd0ca3320b69424ea1b8d731449cd0bf861",
          "blockNumber": "0x5fb3888",
          "transactionHash": "0xd09b2e7eb2645918121f7b79696917afc514af38a09768a336f5b3c926f954fa",
          "transactionIndex": "0x2",
          "logIndex": "0x5",
          "removed": false
        },
        {
          "address": "0x00bdc53ac57d27eb509255a465623416a143ffcf",
          "topics": [
            "0xddf252ad1be2c89b69c2b068fc378daa952ba7f163c4a11628f55a4df523b3ef",
            "0x0000000000000000000000000000000000000000000000000000000000000000",
            "0x000000000000000000000000806fdcb526e084b97541b9e65eaef60dff04be95"
          ],
          "data": "0x000000000000000000000000000000000000000000000000000000e8d4a51000",
          "blockHash": "0xa703c2b9931cb8d0a8cefa485067dfd0ca3320b69424ea1b8d731449cd0bf861",
          "blockNumber": "0x5fb3888",
          "transactionHash": "0xd09b2e7eb2645918121f7b79696917afc514af38a09768a336f5b3c926f954fa",
          "transactionIndex": "0x2",
          "logIndex": "0x6",
          "removed": false
        },
        {
          "address": "0x7eaa9cd362e45d787b326aad77e24f81c7298c87",
          "topics": [
            "0xddf252ad1be2c89b69c2b068fc378daa952ba7f163c4a11628f55a4df523b3ef",
            "0x0000000000000000000000000000000000000000000000000000000000000000",
            "0x00000000000000000000000007c20177b6f219367f32fe72d8a70aa299920a8f"
          ],
          "data": "0x000000000000000000000000000000000000000000000000000000e8d4a51000",
          "blockHash": "0xa703c2b9931cb8d0a8cefa485067dfd0ca3320b69424ea1b8d731449cd0bf861",
          "blockNumber": "0x5fb3888",
          "transactionHash": "0xd09b2e7eb2645918121f7b79696917afc514af38a09768a336f5b3c926f954fa",
          "transactionIndex": "0x2",
          "logIndex": "0x7",
          "removed": false
        },
        {
          "address": "0x1ea586b735e2e98d3b88d290ddfa275f3accc5ff",
          "topics": [
            "0xddf252ad1be2c89b69c2b068fc378daa952ba7f163c4a11628f55a4df523b3ef",
            "0x0000000000000000000000000000000000000000000000000000000000000000",
            "0x00000000000000000000000007c20177b6f219367f32fe72d8a70aa299920a8f"
          ],
          "data": "0x000000000000000000000000000000000000000000000000000000cce4166000",
          "blockHash": "0xa703c2b9931cb8d0a8cefa485067dfd0ca3320b69424ea1b8d731449cd0bf861",
          "blockNumber": "0x5fb3888",
          "transactionHash": "0xd09b2e7eb2645918121f7b79696917afc514af38a09768a336f5b3c926f954fa",
          "transactionIndex": "0x2",
          "logIndex": "0x8",
          "removed": false
        },
        {
          "address": "0x806fdcb526e084b97541b9e65eaef60dff04be95",
          "topics": [
            "0x837d515bfda1f7b5c30f094669cee0f6531127ef3e2cfb85135a66eea2aceadb",
            "0x00000000000000000000000007c20177b6f219367f32fe72d8a70aa299920a8f"
          ],
          "data": "0x000000000000000000000000000000000000000000000000000000e8d4a51000000000000000000000000000000000000000000000000000000000cce4166000000000000000000000000000000000000000000000000000000000e8d4a51000",
          "blockHash": "0xa703c2b9931cb8d0a8cefa485067dfd0ca3320b69424ea1b8d731449cd0bf861",
          "blockNumber": "0x5fb3888",
          "transactionHash": "0xd09b2e7eb2645918121f7b79696917afc514af38a09768a336f5b3c926f954fa",
          "transactionIndex": "0x2",
          "logIndex": "0x9",
          "removed": false
        },
        {
          "address": "0x1ea586b735e2e98d3b88d290ddfa275f3accc5ff",
          "topics": [
            "0xddf252ad1be2c89b69c2b068fc378daa952ba7f163c4a11628f55a4df523b3ef",
            "0x00000000000000000000000007c20177b6f219367f32fe72d8a70aa299920a8f",
            "0x000000000000000000000000e355d5d8aa52ef0fbbd037c4a3c5e6fd659cf46b"
          ],
          "data": "0x000000000000000000000000000000000000000000000000000000cce4166000",
          "blockHash": "0xa703c2b9931cb8d0a8cefa485067dfd0ca3320b69424ea1b8d731449cd0bf861",
          "blockNumber": "0x5fb3888",
          "transactionHash": "0xd09b2e7eb2645918121f7b79696917afc514af38a09768a336f5b3c926f954fa",
          "transactionIndex": "0x2",
          "logIndex": "0xa",
          "removed": false
        },
        {
          "address": "0x7eaa9cd362e45d787b326aad77e24f81c7298c87",
          "topics": [
            "0xddf252ad1be2c89b69c2b068fc378daa952ba7f163c4a11628f55a4df523b3ef",
            "0x00000000000000000000000007c20177b6f219367f32fe72d8a70aa299920a8f",
            "0x000000000000000000000000e355d5d8aa52ef0fbbd037c4a3c5e6fd659cf46b"
          ],
          "data": "0x000000000000000000000000000000000000000000000000000000e8d4a51000",
          "blockHash": "0xa703c2b9931cb8d0a8cefa485067dfd0ca3320b69424ea1b8d731449cd0bf861",
          "blockNumber": "0x5fb3888",
          "transactionHash": "0xd09b2e7eb2645918121f7b79696917afc514af38a09768a336f5b3c926f954fa",
          "transactionIndex": "0x2",
          "logIndex": "0xb",
          "removed": false
        },
        {
          "address": "0x07c20177b6f219367f32fe72d8a70aa299920a8f",
          "topics": [
            "0x2c44d8394ff4c00656fbe852f8825ff1983b71f9b99207b795a8f3342e8d6ea4",
            "0x000000000000000000000000806fdcb526e084b97541b9e65eaef60dff04be95",
            "0x000000000000000000000000791124ee95c885cdccd1a4ec62ab328ce1472a36"
          ],
          "data": "0x000000000000000000000000e355d5d8aa52ef0fbbd037c4a3c5e6fd659cf46b000000000000000000000000e355d5d8aa52ef0fbbd037c4a3c5e6fd659cf46b000000000000000000000000000000000000000000000000000000e8d4a51000000000000000000000000000000000000000000000000000000000cce4166000000000000000000000000000000000000000000000000000000000e8d4a51000",
          "blockHash": "0xa703c2b9931cb8d0a8cefa485067dfd0ca3320b69424ea1b8d731449cd0bf861",
          "blockNumber": "0x5fb3888",
          "transactionHash": "0xd09b2e7eb2645918121f7b79696917afc514af38a09768a336f5b3c926f954fa",
          "transactionIndex": "0x2",
          "logIndex": "0xc",
          "removed": false
        }
      ],
      "logsBloom": "0x1000000000000000000000100000000000000000000000000010001000000000000000000020000000000000000001000000000000000000001000000020000000100000000000000800000828010200000000000080000000000000100000000000002002000000000000000000080000000000000000000000001000000000000800000000000000001000000000020000000000000000000000000100000002000000000000010002100000002000000008000000000000000000800000000000000a000000000000000000000190000000000000020000000000000021000010000000008020000000000000800020000001000000000000000000004004",
      "type": "0x2",
      "transactionHash": "0xd09b2e7eb2645918121f7b79696917afc514af38a09768a336f5b3c926f954fa",
      "transactionIndex": "0x2",
      "blockHash": "0xa703c2b9931cb8d0a8cefa485067dfd0ca3320b69424ea1b8d731449cd0bf861",
      "blockNumber": "0x5fb3888",
      "gasUsed": "0x595ff",
      "effectiveGasPrice": "0x5f5e100",
      "from": "0xe355d5d8aa52ef0fbbd037c4a3c5e6fd659cf46b",
      "to": "0x07c20177b6f219367f32fe72d8a70aa299920a8f",
      "contractAddress": null,
      "gasUsedForL1": "0x1828",
      "l1BlockNumber": "0x6d1132"
    }
  ],
  "libraries": [],
  "pending": [],
  "returns": {},
  "timestamp": 1732514294,
  "chain": 421614,
  "commit": "84ddf34"
}