{
  "transactions": [
    {
      "hash": "0xf66a535e975298d08d1017fa9cb618931bac2bccea45ac3e438c2d234abcc4a2",
      "transactionType": "CALL",
      "contractName": null,
      "contractAddress": "0x05bc1c5c5ede8722aaf89663f50a3148eae69b21",
      "function": "addToken(string,string,uint8)",
      "arguments": [
        "\"Wrapped liquid staked Ether 2.0\"",
        "\"wstETH\"",
        "18"
      ],
      "transaction": {
        "from": "0xe355d5d8aa52ef0fbbd037c4a3c5e6fd659cf46b",
        "to": "0x05bc1c5c5ede8722aaf89663f50a3148eae69b21",
        "gas": "0x31ebcd",
        "value": "0x0",
        "input": "0xf3bdd863000000000000000000000000000000000000000000000000000000000000006000000000000000000000000000000000000000000000000000000000000000a00000000000000000000000000000000000000000000000000000000000000012000000000000000000000000000000000000000000000000000000000000001f57726170706564206c6971756964207374616b656420457468657220322e300000000000000000000000000000000000000000000000000000000000000000067773744554480000000000000000000000000000000000000000000000000000",
        "nonce": "0x85f",
        "chainId": "0x66eee"
      },
      "additionalContracts": [
        {
          "transactionType": "CREATE",
          "address": "0xd9f3c86ea4807b68d0384834c921426ccbf58123",
          "initCode": "0x60a0604052346103a757610c3780380380610019816103ab565b9283398101906080818303126103a75780516001600160a01b038116908190036103a75760208201516001600160401b0381116103a7578361005c9184016103d0565b60408301519093906001600160401b0381116103a7576060916100809185016103d0565b92015160ff811681036103a75783516001600160401b0381116102b857600354600181811c9116801561039d575b602082101461029a57601f811161033a575b50602094601f82116001146102d7579481929394955f926102cc575b50508160011b915f199060031b1c1916176003555b82516001600160401b0381116102b857600454600181811c911680156102ae575b602082101461029a57601f8111610237575b506020601f82116001146101d457819293945f926101c9575b50508160011b915f199060031b1c1916176004555b81156101b657600580546001600160a01b03198116841790915560405192906001600160a01b03167f8be0079c531659141344cd1fd0a4f28419497f9722a3daafe3b4186f6b6457e05f80a360805261081590816104228239608051816104460152f35b631e4fbdf760e01b5f525f60045260245ffd5b015190505f8061013d565b601f1982169060045f52805f20915f5b81811061021f57509583600195969710610207575b505050811b01600455610152565b01515f1960f88460031b161c191690555f80806101f9565b9192602060018192868b0151815501940192016101e4565b60045f527f8a35acfbc15ff81a39ae7d344fd709f28e8600b4aa8c65c6b64bfe7fe36bd19b601f830160051c81019160208410610290575b601f0160051c01905b8181106102855750610124565b5f8155600101610278565b909150819061026f565b634e487b7160e01b5f52602260045260245ffd5b90607f1690610112565b634e487b7160e01b5f52604160045260245ffd5b015190505f806100dc565b601f1982169560035f52805f20915f5b8881106103225750836001959697981061030a575b505050811b016003556100f1565b01515f1960f88460031b161c191690555f80806102fc565b919260206001819286850151815501940192016102e7565b60035f527fc2575a0e9e593c00f959f8c92f12db2869c3395a3b0502d05e2516446f71f85b601f830160051c81019160208410610393575b601f0160051c01905b81811061038857506100c0565b5f815560010161037b565b9091508190610372565b90607f16906100ae565b5f80fd5b6040519190601f01601f191682016001600160401b038111838210176102b857604052565b81601f820112156103a7578051906001600160401b0382116102b8576103ff601f8301601f19166020016103ab565b92828452602083830101116103a757815f9260208093018386015e830101529056fe6080806040526004361015610012575f80fd5b5f3560e01c90816306fdde03146105e957508063095ea7b31461056757806318160ddd1461054a57806323b872dd1461046a578063313ce5671461042d57806340c10f191461038b57806370a0823114610354578063715018a6146102f95780638da5cb5b146102d157806395d89b41146101b6578063a9059cbb14610185578063dd62ed3e146101355763f2fde38b146100ab575f80fd5b34610131576020366003190112610131576100c46106e2565b6100cc6107b8565b6001600160a01b0316801561011e57600580546001600160a01b0319811683179091556001600160a01b03167f8be0079c531659141344cd1fd0a4f28419497f9722a3daafe3b4186f6b6457e05f80a3005b631e4fbdf760e01b5f525f60045260245ffd5b5f80fd5b346101315760403660031901126101315761014e6106e2565b6101566106f8565b6001600160a01b039182165f908152600160209081526040808320949093168252928352819020549051908152f35b34610131576040366003190112610131576101ab6101a16106e2565b602435903361070e565b602060405160018152f35b34610131575f366003190112610131576040515f6004548060011c906001811680156102c7575b6020831081146102b3578285529081156102975750600114610242575b50819003601f01601f191681019067ffffffffffffffff82118183101761022e5761022a829182604052826106b8565b0390f35b634e487b7160e01b5f52604160045260245ffd5b905060045f527f8a35acfbc15ff81a39ae7d344fd709f28e8600b4aa8c65c6b64bfe7fe36bd19b5f905b828210610281575060209150820101826101fa565b600181602092548385880101520191019061026c565b90506020925060ff191682840152151560051b820101826101fa565b634e487b7160e01b5f52602260045260245ffd5b91607f16916101dd565b34610131575f366003190112610131576005546040516001600160a01b039091168152602090f35b34610131575f366003190112610131576103116107b8565b600580546001600160a01b031981169091555f906001600160a01b03167f8be0079c531659141344cd1fd0a4f28419497f9722a3daafe3b4186f6b6457e08280a3005b34610131576020366003190112610131576001600160a01b036103756106e2565b165f525f602052602060405f2054604051908152f35b34610131576040366003190112610131576103a46106e2565b6001600160a01b0316602435811561041a57600254908082018092116104065760207fddf252ad1be2c89b69c2b068fc378daa952ba7f163c4a11628f55a4df523b3ef915f9360025584845283825260408420818154019055604051908152a3005b634e487b7160e01b5f52601160045260245ffd5b63ec442f0560e01b5f525f60045260245ffd5b34610131575f36600319011261013157602060405160ff7f0000000000000000000000000000000000000000000000000000000000000000168152f35b34610131576060366003190112610131576104836106e2565b61048b6106f8565b6001600160a01b0382165f8181526001602081815260408084203385529091529091205491936044359392909181016104ca575b506101ab935061070e565b83811061052f57841561051c573315610509576101ab945f52600160205260405f2060018060a01b0333165f526020528360405f2091039055846104bf565b634a1406b160e11b5f525f60045260245ffd5b63e602df0560e01b5f525f60045260245ffd5b8390637dc7a0d960e11b5f523360045260245260445260645ffd5b34610131575f366003190112610131576020600254604051908152f35b34610131576040366003190112610131576105806106e2565b60243590331561051c576001600160a01b031690811561050957335f52600160205260405f20825f526020528060405f20556040519081527f8c5be1e5ebec7d5bd14f71427d1e84f3dd0314c0f7b2291e5b200ac8c7c3b92560203392a3602060405160018152f35b34610131575f366003190112610131575f6003548060011c906001811680156106ae575b6020831081146102b35782855290811561029757506001146106595750819003601f01601f191681019067ffffffffffffffff82118183101761022e5761022a829182604052826106b8565b905060035f527fc2575a0e9e593c00f959f8c92f12db2869c3395a3b0502d05e2516446f71f85b5f905b828210610698575060209150820101826101fa565b6001816020925483858801015201910190610683565b91607f169161060d565b602060409281835280519182918282860152018484015e5f828201840152601f01601f1916010190565b600435906001600160a01b038216820361013157565b602435906001600160a01b038216820361013157565b6001600160a01b03169081156107a5576001600160a01b031691821561041a57815f525f60205260405f205481811061078c57817fddf252ad1be2c89b69c2b068fc378daa952ba7f163c4a11628f55a4df523b3ef92602092855f525f84520360405f2055845f525f825260405f20818154019055604051908152a3565b8263391434e360e21b5f5260045260245260445260645ffd5b634b637e8f60e11b5f525f60045260245ffd5b6005546001600160a01b031633036107cc57565b63118cdaa760e01b5f523360045260245ffdfea2646970667358221220683087b5d4bcc85659009f3cb1ee0b73ddf8209d174d42b402f41bfde379e9dd64736f6c634300081b003300000000000000000000000005bc1c5c5ede8722aaf89663f50a3148eae69b21000000000000000000000000000000000000000000000000000000000000008000000000000000000000000000000000000000000000000000000000000000c00000000000000000000000000000000000000000000000000000000000000012000000000000000000000000000000000000000000000000000000000000001f57726170706564206c6971756964207374616b656420457468657220322e300000000000000000000000000000000000000000000000000000000000000000067773744554480000000000000000000000000000000000000000000000000000"
        },
        {
          "transactionType": "CREATE",
          "address": "0x1c4ed77a8975a75bb0a215ff620929e3a91dcf75",
          "initCode": "0x60803460b857601f61051838819003918201601f19168301916001600160401b0383118484101760bc5780849260209460405283398101031260b857516001600160a01b0381169081900360b857801560a5575f80546001600160a01b031981168317825560405192916001600160a01b03909116907f8be0079c531659141344cd1fd0a4f28419497f9722a3daafe3b4186f6b6457e09080a361044790816100d18239f35b631e4fbdf760e01b5f525f60045260245ffd5b5f80fd5b634e487b7160e01b5f52604160045260245ffdfe6080806040526004361015610012575f80fd5b5f3560e01c908163313ce567146103bc5750806354fd4d50146103a1578063715018a61461034a5780637284e416146102d65780638da5cb5b146102af5780639276e261146101bc5780639a6fc8f51461017a578063f2fde38b146100f15763feaf968c1461007f575f80fd5b346100ed575f3660031901126100ed576001546002546003546004546005546100e9946001600160501b0390811694939291165b604080516001600160501b03968716815260208101959095528401929092526060830152909116608082015290819060a0820190565b0390f35b5f80fd5b346100ed5760203660031901126100ed576004356001600160a01b038116908190036100ed5761011f6103eb565b8015610167575f80546001600160a01b03198116831782556001600160a01b0316907f8be0079c531659141344cd1fd0a4f28419497f9722a3daafe3b4186f6b6457e09080a3005b631e4fbdf760e01b5f525f60045260245ffd5b346100ed5760203660031901126100ed576101936103d5565b506001546002546003546004546005546100e9946001600160501b0390811694939291166100b3565b346100ed5760a03660031901126100ed5760405160a0810181811067ffffffffffffffff82111761029b576040526101f26103d5565b815260208101906024358252604081019060443582526060810160643581526084356001600160501b03811681036100ed576001600160501b03602092818560807f0559884fd3a460db3073b7fc896cc77986f16e378210ded43186175bf646fc5f97019485526102616103eb565b51169687831960015416176001555195866002555160035551918260045551166001600160501b03196005541617600555604051908152a3005b634e487b7160e01b5f52604160045260245ffd5b346100ed575f3660031901126100ed575f546040516001600160a01b039091168152602090f35b346100ed575f3660031901126100ed576040516040810181811067ffffffffffffffff82111761029b57604052600b8152604060208201916a54657374204f7261636c6560a81b83528151928391602083525180918160208501528484015e5f828201840152601f01601f19168101030190f35b346100ed575f3660031901126100ed576103626103eb565b5f80546001600160a01b0319811682556001600160a01b03167f8be0079c531659141344cd1fd0a4f28419497f9722a3daafe3b4186f6b6457e08280a3005b346100ed575f3660031901126100ed57602060405160018152f35b346100ed575f3660031901126100ed5780600860209252f35b600435906001600160501b03821682036100ed57565b5f546001600160a01b031633036103fe57565b63118cdaa760e01b5f523360045260245ffdfea264697066735822122009f95c494cb61816026d4ca82dc5bce9f24b3b235095e10b264f6f04a925e08364736f6c634300081b0033000000000000000000000000e355d5d8aa52ef0fbbd037c4a3c5e6fd659cf46b"
        }
      ],
      "isFixedGasLimit": false
    },
    {
      "hash": "0x1dc92fb77870add1e2ebaca47078ad4e2f247b9b2b247da2b6149826f81f21a3",
      "transactionType": "CALL",
      "contractName": "MockPriceFeed",
      "contractAddress": "0x1c4ed77a8975a75bb0a215ff620929e3a91dcf75",
      "function": "updateRoundData((uint80,int256,uint256,uint256,uint80))",
      "arguments": [
        "(1, 360000000000, 1740468870, 1740468870, 1)"
      ],
      "transaction": {
        "from": "0xe355d5d8aa52ef0fbbd037c4a3c5e6fd659cf46b",
        "to": "0x1c4ed77a8975a75bb0a215ff620929e3a91dcf75",
        "gas": "0x1be40c",
        "value": "0x0",
        "input": "0x9276e261000000000000000000000000000000000000000000000000000000000000000100000000000000000000000000000000000000000000000000000053d1ac10000000000000000000000000000000000000000000000000000000000067bd72860000000000000000000000000000000000000000000000000000000067bd72860000000000000000000000000000000000000000000000000000000000000001",
        "nonce": "0x860",
        "chainId": "0x66eee"
      },
      "additionalContracts": [],
      "isFixedGasLimit": false
    },
    {
      "hash": "0x51d94217526422ec5a485cf3cb1e7f6ceae952fb15f4652ec9d31e412a53b696",
      "transactionType": "CALL",
      "contractName": "MockPriceFeed",
      "contractAddress": "0x1c4ed77a8975a75bb0a215ff620929e3a91dcf75",
      "function": "transferOwnership(address)",
      "arguments": [
        "0x28A5F8dcE17C1760576B442066321f8f9F069731"
      ],
      "transaction": {
        "from": "0xe355d5d8aa52ef0fbbd037c4a3c5e6fd659cf46b",
        "to": "0x1c4ed77a8975a75bb0a215ff620929e3a91dcf75",
        "gas": "0x130392",
        "value": "0x0",
        "input": "0xf2fde38b00000000000000000000000028a5f8dce17c1760576b442066321f8f9f069731",
        "nonce": "0x861",
        "chainId": "0x66eee"
      },
      "additionalContracts": [],
      "isFixedGasLimit": false
    },
    {
      "hash": "0x4f83fb4fa63a702082bab2b97763e8cbe91a4c82dc7fc6690d1eb0be10ee2dac",
      "transactionType": "CALL",
      "contractName": null,
      "contractAddress": "0x54505e5e2c23ad39ed06971a5d6410f501641f84",
      "function": "setOracle(address,(address,address,uint32))",
      "arguments": [
        "0xD9F3C86ea4807B68d0384834c921426CCbf58123",
        "(0x1c4Ed77a8975a75bb0A215fF620929e3a91DcF75, 0x1c4Ed77a8975a75bb0A215fF620929e3a91DcF75, 31536000)"
      ],
      "transaction": {
        "from": "0xe355d5d8aa52ef0fbbd037c4a3c5e6fd659cf46b",
        "to": "0x54505e5e2c23ad39ed06971a5d6410f501641f84",
        "gas": "0x1e3cea",
        "value": "0x0",
        "input": "0x258e35ab000000000000000000000000d9f3c86ea4807b68d0384834c921426ccbf581230000000000000000000000001c4ed77a8975a75bb0a215ff620929e3a91dcf750000000000000000000000001c4ed77a8975a75bb0a215ff620929e3a91dcf750000000000000000000000000000000000000000000000000000000001e13380",
        "nonce": "0x862",
        "chainId": "0x66eee"
      },
      "additionalContracts": [],
      "isFixedGasLimit": false
    },
    {
      "hash": "0x4b11ba49f523baa274a885dde8ba8ac1f6587e8ff5c104d0f4cceb0cdd517f91",
      "transactionType": "CALL",
      "contractName": null,
      "contractAddress": "0x05bc1c5c5ede8722aaf89663f50a3148eae69b21",
      "function": "addToken(string,string,uint8)",
      "arguments": [
        "\"Wrapped ETH\"",
        "\"WETH\"",
        "18"
      ],
      "transaction": {
        "from": "0xe355d5d8aa52ef0fbbd037c4a3c5e6fd659cf46b",
        "to": "0x05bc1c5c5ede8722aaf89663f50a3148eae69b21",
        "gas": "0x2ee374",
        "value": "0x0",
        "input": "0xf3bdd863000000000000000000000000000000000000000000000000000000000000006000000000000000000000000000000000000000000000000000000000000000a00000000000000000000000000000000000000000000000000000000000000012000000000000000000000000000000000000000000000000000000000000000b577261707065642045544800000000000000000000000000000000000000000000000000000000000000000000000000000000000000000000000000000000045745544800000000000000000000000000000000000000000000000000000000",
        "nonce": "0x863",
        "chainId": "0x66eee"
      },
      "additionalContracts": [
        {
          "transactionType": "CREATE",
          "address": "0x28cce7a93fd0bded36b7d4adc3f22d7a7202c4ab",
          "initCode": "0x60a0604052346103a757610c3780380380610019816103ab565b9283398101906080818303126103a75780516001600160a01b038116908190036103a75760208201516001600160401b0381116103a7578361005c9184016103d0565b60408301519093906001600160401b0381116103a7576060916100809185016103d0565b92015160ff811681036103a75783516001600160401b0381116102b857600354600181811c9116801561039d575b602082101461029a57601f811161033a575b50602094601f82116001146102d7579481929394955f926102cc575b50508160011b915f199060031b1c1916176003555b82516001600160401b0381116102b857600454600181811c911680156102ae575b602082101461029a57601f8111610237575b506020601f82116001146101d457819293945f926101c9575b50508160011b915f199060031b1c1916176004555b81156101b657600580546001600160a01b03198116841790915560405192906001600160a01b03167f8be0079c531659141344cd1fd0a4f28419497f9722a3daafe3b4186f6b6457e05f80a360805261081590816104228239608051816104460152f35b631e4fbdf760e01b5f525f60045260245ffd5b015190505f8061013d565b601f1982169060045f52805f20915f5b81811061021f57509583600195969710610207575b505050811b01600455610152565b01515f1960f88460031b161c191690555f80806101f9565b9192602060018192868b0151815501940192016101e4565b60045f527f8a35acfbc15ff81a39ae7d344fd709f28e8600b4aa8c65c6b64bfe7fe36bd19b601f830160051c81019160208410610290575b601f0160051c01905b8181106102855750610124565b5f8155600101610278565b909150819061026f565b634e487b7160e01b5f52602260045260245ffd5b90607f1690610112565b634e487b7160e01b5f52604160045260245ffd5b015190505f806100dc565b601f1982169560035f52805f20915f5b8881106103225750836001959697981061030a575b505050811b016003556100f1565b01515f1960f88460031b161c191690555f80806102fc565b919260206001819286850151815501940192016102e7565b60035f527fc2575a0e9e593c00f959f8c92f12db2869c3395a3b0502d05e2516446f71f85b601f830160051c81019160208410610393575b601f0160051c01905b81811061038857506100c0565b5f815560010161037b565b9091508190610372565b90607f16906100ae565b5f80fd5b6040519190601f01601f191682016001600160401b038111838210176102b857604052565b81601f820112156103a7578051906001600160401b0382116102b8576103ff601f8301601f19166020016103ab565b92828452602083830101116103a757815f9260208093018386015e830101529056fe6080806040526004361015610012575f80fd5b5f3560e01c90816306fdde03146105e957508063095ea7b31461056757806318160ddd1461054a57806323b872dd1461046a578063313ce5671461042d57806340c10f191461038b57806370a0823114610354578063715018a6146102f95780638da5cb5b146102d157806395d89b41146101b6578063a9059cbb14610185578063dd62ed3e146101355763f2fde38b146100ab575f80fd5b34610131576020366003190112610131576100c46106e2565b6100cc6107b8565b6001600160a01b0316801561011e57600580546001600160a01b0319811683179091556001600160a01b03167f8be0079c531659141344cd1fd0a4f28419497f9722a3daafe3b4186f6b6457e05f80a3005b631e4fbdf760e01b5f525f60045260245ffd5b5f80fd5b346101315760403660031901126101315761014e6106e2565b6101566106f8565b6001600160a01b039182165f908152600160209081526040808320949093168252928352819020549051908152f35b34610131576040366003190112610131576101ab6101a16106e2565b602435903361070e565b602060405160018152f35b34610131575f366003190112610131576040515f6004548060011c906001811680156102c7575b6020831081146102b3578285529081156102975750600114610242575b50819003601f01601f191681019067ffffffffffffffff82118183101761022e5761022a829182604052826106b8565b0390f35b634e487b7160e01b5f52604160045260245ffd5b905060045f527f8a35acfbc15ff81a39ae7d344fd709f28e8600b4aa8c65c6b64bfe7fe36bd19b5f905b828210610281575060209150820101826101fa565b600181602092548385880101520191019061026c565b90506020925060ff191682840152151560051b820101826101fa565b634e487b7160e01b5f52602260045260245ffd5b91607f16916101dd565b34610131575f366003190112610131576005546040516001600160a01b039091168152602090f35b34610131575f366003190112610131576103116107b8565b600580546001600160a01b031981169091555f906001600160a01b03167f8be0079c531659141344cd1fd0a4f28419497f9722a3daafe3b4186f6b6457e08280a3005b34610131576020366003190112610131576001600160a01b036103756106e2565b165f525f602052602060405f2054604051908152f35b34610131576040366003190112610131576103a46106e2565b6001600160a01b0316602435811561041a57600254908082018092116104065760207fddf252ad1be2c89b69c2b068fc378daa952ba7f163c4a11628f55a4df523b3ef915f9360025584845283825260408420818154019055604051908152a3005b634e487b7160e01b5f52601160045260245ffd5b63ec442f0560e01b5f525f60045260245ffd5b34610131575f36600319011261013157602060405160ff7f0000000000000000000000000000000000000000000000000000000000000000168152f35b34610131576060366003190112610131576104836106e2565b61048b6106f8565b6001600160a01b0382165f8181526001602081815260408084203385529091529091205491936044359392909181016104ca575b506101ab935061070e565b83811061052f57841561051c573315610509576101ab945f52600160205260405f2060018060a01b0333165f526020528360405f2091039055846104bf565b634a1406b160e11b5f525f60045260245ffd5b63e602df0560e01b5f525f60045260245ffd5b8390637dc7a0d960e11b5f523360045260245260445260645ffd5b34610131575f366003190112610131576020600254604051908152f35b34610131576040366003190112610131576105806106e2565b60243590331561051c576001600160a01b031690811561050957335f52600160205260405f20825f526020528060405f20556040519081527f8c5be1e5ebec7d5bd14f71427d1e84f3dd0314c0f7b2291e5b200ac8c7c3b92560203392a3602060405160018152f35b34610131575f366003190112610131575f6003548060011c906001811680156106ae575b6020831081146102b35782855290811561029757506001146106595750819003601f01601f191681019067ffffffffffffffff82118183101761022e5761022a829182604052826106b8565b905060035f527fc2575a0e9e593c00f959f8c92f12db2869c3395a3b0502d05e2516446f71f85b5f905b828210610698575060209150820101826101fa565b6001816020925483858801015201910190610683565b91607f169161060d565b602060409281835280519182918282860152018484015e5f828201840152601f01601f1916010190565b600435906001600160a01b038216820361013157565b602435906001600160a01b038216820361013157565b6001600160a01b03169081156107a5576001600160a01b031691821561041a57815f525f60205260405f205481811061078c57817fddf252ad1be2c89b69c2b068fc378daa952ba7f163c4a11628f55a4df523b3ef92602092855f525f84520360405f2055845f525f825260405f20818154019055604051908152a3565b8263391434e360e21b5f5260045260245260445260645ffd5b634b637e8f60e11b5f525f60045260245ffd5b6005546001600160a01b031633036107cc57565b63118cdaa760e01b5f523360045260245ffdfea2646970667358221220683087b5d4bcc85659009f3cb1ee0b73ddf8209d174d42b402f41bfde379e9dd64736f6c634300081b003300000000000000000000000005bc1c5c5ede8722aaf89663f50a3148eae69b21000000000000000000000000000000000000000000000000000000000000008000000000000000000000000000000000000000000000000000000000000000c00000000000000000000000000000000000000000000000000000000000000012000000000000000000000000000000000000000000000000000000000000000b577261707065642045544800000000000000000000000000000000000000000000000000000000000000000000000000000000000000000000000000000000045745544800000000000000000000000000000000000000000000000000000000"
        },
        {
          "transactionType": "CREATE",
          "address": "0xa647c2d68ac8e94e67d311811e33044d403ca567",
          "initCode": "0x60803460b857601f61051838819003918201601f19168301916001600160401b0383118484101760bc5780849260209460405283398101031260b857516001600160a01b0381169081900360b857801560a5575f80546001600160a01b031981168317825560405192916001600160a01b03909116907f8be0079c531659141344cd1fd0a4f28419497f9722a3daafe3b4186f6b6457e09080a361044790816100d18239f35b631e4fbdf760e01b5f525f60045260245ffd5b5f80fd5b634e487b7160e01b5f52604160045260245ffdfe6080806040526004361015610012575f80fd5b5f3560e01c908163313ce567146103bc5750806354fd4d50146103a1578063715018a61461034a5780637284e416146102d65780638da5cb5b146102af5780639276e261146101bc5780639a6fc8f51461017a578063f2fde38b146100f15763feaf968c1461007f575f80fd5b346100ed575f3660031901126100ed576001546002546003546004546005546100e9946001600160501b0390811694939291165b604080516001600160501b03968716815260208101959095528401929092526060830152909116608082015290819060a0820190565b0390f35b5f80fd5b346100ed5760203660031901126100ed576004356001600160a01b038116908190036100ed5761011f6103eb565b8015610167575f80546001600160a01b03198116831782556001600160a01b0316907f8be0079c531659141344cd1fd0a4f28419497f9722a3daafe3b4186f6b6457e09080a3005b631e4fbdf760e01b5f525f60045260245ffd5b346100ed5760203660031901126100ed576101936103d5565b506001546002546003546004546005546100e9946001600160501b0390811694939291166100b3565b346100ed5760a03660031901126100ed5760405160a0810181811067ffffffffffffffff82111761029b576040526101f26103d5565b815260208101906024358252604081019060443582526060810160643581526084356001600160501b03811681036100ed576001600160501b03602092818560807f0559884fd3a460db3073b7fc896cc77986f16e378210ded43186175bf646fc5f97019485526102616103eb565b51169687831960015416176001555195866002555160035551918260045551166001600160501b03196005541617600555604051908152a3005b634e487b7160e01b5f52604160045260245ffd5b346100ed575f3660031901126100ed575f546040516001600160a01b039091168152602090f35b346100ed575f3660031901126100ed576040516040810181811067ffffffffffffffff82111761029b57604052600b8152604060208201916a54657374204f7261636c6560a81b83528151928391602083525180918160208501528484015e5f828201840152601f01601f19168101030190f35b346100ed575f3660031901126100ed576103626103eb565b5f80546001600160a01b0319811682556001600160a01b03167f8be0079c531659141344cd1fd0a4f28419497f9722a3daafe3b4186f6b6457e08280a3005b346100ed575f3660031901126100ed57602060405160018152f35b346100ed575f3660031901126100ed5780600860209252f35b600435906001600160501b03821682036100ed57565b5f546001600160a01b031633036103fe57565b63118cdaa760e01b5f523360045260245ffdfea264697066735822122009f95c494cb61816026d4ca82dc5bce9f24b3b235095e10b264f6f04a925e08364736f6c634300081b0033000000000000000000000000e355d5d8aa52ef0fbbd037c4a3c5e6fd659cf46b"
        }
      ],
      "isFixedGasLimit": false
    },
    {
      "hash": "0x1c8a6a4c59400591a8076c1ed8dee5d6387715a0cf1ed25df42d6da31d710f3e",
      "transactionType": "CALL",
      "contractName": "MockPriceFeed",
      "contractAddress": "0xa647c2d68ac8e94e67d311811e33044d403ca567",
      "function": "updateRoundData((uint80,int256,uint256,uint256,uint80))",
      "arguments": [
        "(1, 300000000000, 1740468870, 1740468870, 1)"
      ],
      "transaction": {
        "from": "0xe355d5d8aa52ef0fbbd037c4a3c5e6fd659cf46b",
        "to": "0xa647c2d68ac8e94e67d311811e33044d403ca567",
        "gas": "0x1bfe7b",
        "value": "0x0",
        "input": "0x9276e261000000000000000000000000000000000000000000000000000000000000000100000000000000000000000000000000000000000000000000000045d964b8000000000000000000000000000000000000000000000000000000000067bd72860000000000000000000000000000000000000000000000000000000067bd72860000000000000000000000000000000000000000000000000000000000000001",
        "nonce": "0x864",
        "chainId": "0x66eee"
      },
      "additionalContracts": [],
      "isFixedGasLimit": false
    },
    {
      "hash": "0xdda6de5ed400fbf199e6ad0e1a49efd1f2821ddcc7ef025a7d81819f15d4c253",
      "transactionType": "CALL",
      "contractName": "MockPriceFeed",
      "contractAddress": "0xa647c2d68ac8e94e67d311811e33044d403ca567",
      "function": "transferOwnership(address)",
      "arguments": [
        "0x28A5F8dcE17C1760576B442066321f8f9F069731"
      ],
      "transaction": {
        "from": "0xe355d5d8aa52ef0fbbd037c4a3c5e6fd659cf46b",
        "to": "0xa647c2d68ac8e94e67d311811e33044d403ca567",
        "gas": "0x130392",
        "value": "0x0",
        "input": "0xf2fde38b00000000000000000000000028a5f8dce17c1760576b442066321f8f9f069731",
        "nonce": "0x865",
        "chainId": "0x66eee"
      },
      "additionalContracts": [],
      "isFixedGasLimit": false
    },
    {
      "hash": "0xb0ede6458feb18163806f14c696f77a6cd5a205bc316ba2eeddf3213639bb112",
      "transactionType": "CALL",
      "contractName": null,
      "contractAddress": "0x54505e5e2c23ad39ed06971a5d6410f501641f84",
      "function": "setOracle(address,(address,address,uint32))",
      "arguments": [
        "0x28cce7a93FD0bdEd36b7D4adc3F22D7a7202C4Ab",
        "(0xA647C2D68AC8E94E67D311811e33044d403CA567, 0xA647C2D68AC8E94E67D311811e33044d403CA567, 31536000)"
      ],
      "transaction": {
        "from": "0xe355d5d8aa52ef0fbbd037c4a3c5e6fd659cf46b",
        "to": "0x54505e5e2c23ad39ed06971a5d6410f501641f84",
        "gas": "0x1e3cea",
        "value": "0x0",
        "input": "0x258e35ab00000000000000000000000028cce7a93fd0bded36b7d4adc3f22d7a7202c4ab000000000000000000000000a647c2d68ac8e94e67d311811e33044d403ca567000000000000000000000000a647c2d68ac8e94e67d311811e33044d403ca5670000000000000000000000000000000000000000000000000000000001e13380",
        "nonce": "0x866",
        "chainId": "0x66eee"
      },
      "additionalContracts": [],
      "isFixedGasLimit": false
    },
    {
      "hash": "0x4b18595f6f34ae6cf4c6289edfa801845ef819cbbad22651bcd3f142d9236274",
      "transactionType": "CALL",
      "contractName": null,
      "contractAddress": "0x5cb28bcb9de6c10e85e1cba8a4a59d82c5cd1630",
      "function": "createMarket(bytes32,(address,address,address,address,(address,uint64,(uint32,uint32,uint32,uint32,uint32,uint32)),(address,uint32,uint32,bool),bytes,string,string),uint256)",
      "arguments": [
        "0xd9eb2aaa5f19c272f06ea2b4c8449687a8c2ac90aa2cfba9b3c9de0dca6ca695",
        "(0xD9F3C86ea4807B68d0384834c921426CCbf58123, 0x28cce7a93FD0bdEd36b7D4adc3F22D7a7202C4Ab, 0xE355d5D8aa52EF0FbbD037C4a3C5E6Fd659cf46B, 0x0000000000000000000000000000000000000000, (0x7ab945445958819a74b48e8Bd5F9E39ed74bdE9E, 1745539200, (2000000, 2000000, 300000, 3000000, 10000000, 20000000)), (0x54505e5E2C23ad39ED06971A5d6410F501641F84, 94000000, 90000000, true), 0xffffffffffffffffffffffffffffffffffffffffffffffffffffffffffffffff, \"wstETH/WETH-1745539200\", \"wstETH/WETH-1745539200\")",
        "0"
      ],
      "transaction": {
        "from": "0xe355d5d8aa52ef0fbbd037c4a3c5e6fd659cf46b",
        "to": "0x5cb28bcb9de6c10e85e1cba8a4a59d82c5cd1630",
        "gas": "0x1593b0",
        "value": "0x0",
        "input": "0x9ac2b523d9eb2aaa5f19c272f06ea2b4c8449687a8c2ac90aa2cfba9b3c9de0dca6ca69500000000000000000000000000000000000000000000000000000000000000600000000000000000000000000000000000000000000000000000000000000000000000000000000000000000d9f3c86ea4807b68d0384834c921426ccbf5812300000000000000000000000028cce7a93fd0bded36b7d4adc3f22d7a7202c4ab000000000000000000000000e355d5d8aa52ef0fbbd037c4a3c5e6fd659cf46b00000000000000000000000000000000000000000000000000000000000000000000000000000000000000007ab945445958819a74b48e8bd5f9e39ed74bde9e00000000000000000000000000000000000000000000000000000000680ad08000000000000000000000000000000000000000000000000000000000001e848000000000000000000000000000000000000000000000000000000000001e848000000000000000000000000000000000000000000000000000000000000493e000000000000000000000000000000000000000000000000000000000002dc6c000000000000000000000000000000000000000000000000000000000009896800000000000000000000000000000000000000000000000000000000001312d0000000000000000000000000054505e5e2c23ad39ed06971a5d6410f501641f8400000000000000000000000000000000000000000000000000000000059a538000000000000000000000000000000000000000000000000000000000055d4a800000000000000000000000000000000000000000000000000000000000000001000000000000000000000000000000000000000000000000000000000000026000000000000000000000000000000000000000000000000000000000000002a000000000000000000000000000000000000000000000000000000000000002e00000000000000000000000000000000000000000000000000000000000000020ffffffffffffffffffffffffffffffffffffffffffffffffffffffffffffffff00000000000000000000000000000000000000000000000000000000000000167773744554482f574554482d313734353533393230300000000000000000000000000000000000000000000000000000000000000000000000000000000000167773744554482f574554482d3137343535333932303000000000000000000000",
        "nonce": "0x867",
        "chainId": "0x66eee"
      },
      "additionalContracts": [
        {
          "transactionType": "CREATE2",
          "address": "0x83ec68a7a2068f4275beedf5038ed9e2bc00b0c0",
          "initCode": "0x3d602d80600a3d3981f3363d3d373d3d3d363d73e8936eb412907ad760c45aa6ad582bb2f1e2a4245af43d82803e903d91602b57fd5bf3"
        },
        {
          "transactionType": "CREATE",
          "address": "0x851c325787438ef8951bedf0f1ca411f8290c914",
          "initCode": "0x3d602d80600a3d3981f3363d3d373d3d3d363d73014c354a956f2209ba267b04fbe6795a158bd00c5af43d82803e903d91602b57fd5bf3"
        },
        {
          "transactionType": "CREATE",
          "address": "0x8fa52fdf25e9b66faac8bcda351edb0afeb9fb21",
          "initCode": "0x3d602d80600a3d3981f3363d3d373d3d3d363d73014c354a956f2209ba267b04fbe6795a158bd00c5af43d82803e903d91602b57fd5bf3"
        },
        {
          "transactionType": "CREATE",
          "address": "0x621d3e2d530f9b955ab050b1aaa1e7cd98769d05",
          "initCode": "0x3d602d80600a3d3981f3363d3d373d3d3d363d7331635e455c828ce5fc99ce3fd4486d5b04108c9c5af43d82803e903d91602b57fd5bf3"
        }
      ],
      "isFixedGasLimit": false
    },
    {
      "hash": "0xba09fe9129630cd39d92d5fe91e178235e757739b9e0cc181cf19682de4ebafe",
      "transactionType": "CALL",
      "contractName": null,
      "contractAddress": "0xa3e778d80d04e304fefd613c2e1675ee056136cf",
      "function": "setMarketWhitelist(address,bool)",
      "arguments": [
        "0x83Ec68A7A2068F4275BeEdF5038ED9E2BC00B0c0",
        "true"
      ],
      "transaction": {
        "from": "0xe355d5d8aa52ef0fbbd037c4a3c5e6fd659cf46b",
        "to": "0xa3e778d80d04e304fefd613c2e1675ee056136cf",
        "gas": "0x171425",
        "value": "0x0",
        "input": "0x856e648a00000000000000000000000083ec68a7a2068f4275beedf5038ed9e2bc00b0c00000000000000000000000000000000000000000000000000000000000000001",
        "nonce": "0x868",
        "chainId": "0x66eee"
      },
      "additionalContracts": [],
      "isFixedGasLimit": false
    },
    {
      "hash": "0xcc1ac2c9723bbe57a5bf40bce9c218515975022346f9d1dbefbaee22fba94386",
      "transactionType": "CALL",
      "contractName": null,
      "contractAddress": "0x05bc1c5c5ede8722aaf89663f50a3148eae69b21",
      "function": "addToken(string,string,uint8)",
      "arguments": [
        "\"Wrapped BTC\"",
        "\"WBTC\"",
        "8"
      ],
      "transaction": {
        "from": "0xe355d5d8aa52ef0fbbd037c4a3c5e6fd659cf46b",
        "to": "0x05bc1c5c5ede8722aaf89663f50a3148eae69b21",
        "gas": "0x2f4edb",
        "value": "0x0",
        "input": "0xf3bdd863000000000000000000000000000000000000000000000000000000000000006000000000000000000000000000000000000000000000000000000000000000a00000000000000000000000000000000000000000000000000000000000000008000000000000000000000000000000000000000000000000000000000000000b577261707065642042544300000000000000000000000000000000000000000000000000000000000000000000000000000000000000000000000000000000045742544300000000000000000000000000000000000000000000000000000000",
        "nonce": "0x869",
        "chainId": "0x66eee"
      },
      "additionalContracts": [
        {
          "transactionType": "CREATE",
          "address": "0xa8fbdee984207bbd7a5d601e043d416d0a77dcd9",
          "initCode": "0x60a0604052346103a757610c3780380380610019816103ab565b9283398101906080818303126103a75780516001600160a01b038116908190036103a75760208201516001600160401b0381116103a7578361005c9184016103d0565b60408301519093906001600160401b0381116103a7576060916100809185016103d0565b92015160ff811681036103a75783516001600160401b0381116102b857600354600181811c9116801561039d575b602082101461029a57601f811161033a575b50602094601f82116001146102d7579481929394955f926102cc575b50508160011b915f199060031b1c1916176003555b82516001600160401b0381116102b857600454600181811c911680156102ae575b602082101461029a57601f8111610237575b506020601f82116001146101d457819293945f926101c9575b50508160011b915f199060031b1c1916176004555b81156101b657600580546001600160a01b03198116841790915560405192906001600160a01b03167f8be0079c531659141344cd1fd0a4f28419497f9722a3daafe3b4186f6b6457e05f80a360805261081590816104228239608051816104460152f35b631e4fbdf760e01b5f525f60045260245ffd5b015190505f8061013d565b601f1982169060045f52805f20915f5b81811061021f57509583600195969710610207575b505050811b01600455610152565b01515f1960f88460031b161c191690555f80806101f9565b9192602060018192868b0151815501940192016101e4565b60045f527f8a35acfbc15ff81a39ae7d344fd709f28e8600b4aa8c65c6b64bfe7fe36bd19b601f830160051c81019160208410610290575b601f0160051c01905b8181106102855750610124565b5f8155600101610278565b909150819061026f565b634e487b7160e01b5f52602260045260245ffd5b90607f1690610112565b634e487b7160e01b5f52604160045260245ffd5b015190505f806100dc565b601f1982169560035f52805f20915f5b8881106103225750836001959697981061030a575b505050811b016003556100f1565b01515f1960f88460031b161c191690555f80806102fc565b919260206001819286850151815501940192016102e7565b60035f527fc2575a0e9e593c00f959f8c92f12db2869c3395a3b0502d05e2516446f71f85b601f830160051c81019160208410610393575b601f0160051c01905b81811061038857506100c0565b5f815560010161037b565b9091508190610372565b90607f16906100ae565b5f80fd5b6040519190601f01601f191682016001600160401b038111838210176102b857604052565b81601f820112156103a7578051906001600160401b0382116102b8576103ff601f8301601f19166020016103ab565b92828452602083830101116103a757815f9260208093018386015e830101529056fe6080806040526004361015610012575f80fd5b5f3560e01c90816306fdde03146105e957508063095ea7b31461056757806318160ddd1461054a57806323b872dd1461046a578063313ce5671461042d57806340c10f191461038b57806370a0823114610354578063715018a6146102f95780638da5cb5b146102d157806395d89b41146101b6578063a9059cbb14610185578063dd62ed3e146101355763f2fde38b146100ab575f80fd5b34610131576020366003190112610131576100c46106e2565b6100cc6107b8565b6001600160a01b0316801561011e57600580546001600160a01b0319811683179091556001600160a01b03167f8be0079c531659141344cd1fd0a4f28419497f9722a3daafe3b4186f6b6457e05f80a3005b631e4fbdf760e01b5f525f60045260245ffd5b5f80fd5b346101315760403660031901126101315761014e6106e2565b6101566106f8565b6001600160a01b039182165f908152600160209081526040808320949093168252928352819020549051908152f35b34610131576040366003190112610131576101ab6101a16106e2565b602435903361070e565b602060405160018152f35b34610131575f366003190112610131576040515f6004548060011c906001811680156102c7575b6020831081146102b3578285529081156102975750600114610242575b50819003601f01601f191681019067ffffffffffffffff82118183101761022e5761022a829182604052826106b8565b0390f35b634e487b7160e01b5f52604160045260245ffd5b905060045f527f8a35acfbc15ff81a39ae7d344fd709f28e8600b4aa8c65c6b64bfe7fe36bd19b5f905b828210610281575060209150820101826101fa565b600181602092548385880101520191019061026c565b90506020925060ff191682840152151560051b820101826101fa565b634e487b7160e01b5f52602260045260245ffd5b91607f16916101dd565b34610131575f366003190112610131576005546040516001600160a01b039091168152602090f35b34610131575f366003190112610131576103116107b8565b600580546001600160a01b031981169091555f906001600160a01b03167f8be0079c531659141344cd1fd0a4f28419497f9722a3daafe3b4186f6b6457e08280a3005b34610131576020366003190112610131576001600160a01b036103756106e2565b165f525f602052602060405f2054604051908152f35b34610131576040366003190112610131576103a46106e2565b6001600160a01b0316602435811561041a57600254908082018092116104065760207fddf252ad1be2c89b69c2b068fc378daa952ba7f163c4a11628f55a4df523b3ef915f9360025584845283825260408420818154019055604051908152a3005b634e487b7160e01b5f52601160045260245ffd5b63ec442f0560e01b5f525f60045260245ffd5b34610131575f36600319011261013157602060405160ff7f0000000000000000000000000000000000000000000000000000000000000000168152f35b34610131576060366003190112610131576104836106e2565b61048b6106f8565b6001600160a01b0382165f8181526001602081815260408084203385529091529091205491936044359392909181016104ca575b506101ab935061070e565b83811061052f57841561051c573315610509576101ab945f52600160205260405f2060018060a01b0333165f526020528360405f2091039055846104bf565b634a1406b160e11b5f525f60045260245ffd5b63e602df0560e01b5f525f60045260245ffd5b8390637dc7a0d960e11b5f523360045260245260445260645ffd5b34610131575f366003190112610131576020600254604051908152f35b34610131576040366003190112610131576105806106e2565b60243590331561051c576001600160a01b031690811561050957335f52600160205260405f20825f526020528060405f20556040519081527f8c5be1e5ebec7d5bd14f71427d1e84f3dd0314c0f7b2291e5b200ac8c7c3b92560203392a3602060405160018152f35b34610131575f366003190112610131575f6003548060011c906001811680156106ae575b6020831081146102b35782855290811561029757506001146106595750819003601f01601f191681019067ffffffffffffffff82118183101761022e5761022a829182604052826106b8565b905060035f527fc2575a0e9e593c00f959f8c92f12db2869c3395a3b0502d05e2516446f71f85b5f905b828210610698575060209150820101826101fa565b6001816020925483858801015201910190610683565b91607f169161060d565b602060409281835280519182918282860152018484015e5f828201840152601f01601f1916010190565b600435906001600160a01b038216820361013157565b602435906001600160a01b038216820361013157565b6001600160a01b03169081156107a5576001600160a01b031691821561041a57815f525f60205260405f205481811061078c57817fddf252ad1be2c89b69c2b068fc378daa952ba7f163c4a11628f55a4df523b3ef92602092855f525f84520360405f2055845f525f825260405f20818154019055604051908152a3565b8263391434e360e21b5f5260045260245260445260645ffd5b634b637e8f60e11b5f525f60045260245ffd5b6005546001600160a01b031633036107cc57565b63118cdaa760e01b5f523360045260245ffdfea2646970667358221220683087b5d4bcc85659009f3cb1ee0b73ddf8209d174d42b402f41bfde379e9dd64736f6c634300081b003300000000000000000000000005bc1c5c5ede8722aaf89663f50a3148eae69b21000000000000000000000000000000000000000000000000000000000000008000000000000000000000000000000000000000000000000000000000000000c00000000000000000000000000000000000000000000000000000000000000008000000000000000000000000000000000000000000000000000000000000000b577261707065642042544300000000000000000000000000000000000000000000000000000000000000000000000000000000000000000000000000000000045742544300000000000000000000000000000000000000000000000000000000"
        },
        {
          "transactionType": "CREATE",
          "address": "0x9c08ea27d20f4d2b725068f6e8a1284f3c2dcb7a",
          "initCode": "0x60803460b857601f61051838819003918201601f19168301916001600160401b0383118484101760bc5780849260209460405283398101031260b857516001600160a01b0381169081900360b857801560a5575f80546001600160a01b031981168317825560405192916001600160a01b03909116907f8be0079c531659141344cd1fd0a4f28419497f9722a3daafe3b4186f6b6457e09080a361044790816100d18239f35b631e4fbdf760e01b5f525f60045260245ffd5b5f80fd5b634e487b7160e01b5f52604160045260245ffdfe6080806040526004361015610012575f80fd5b5f3560e01c908163313ce567146103bc5750806354fd4d50146103a1578063715018a61461034a5780637284e416146102d65780638da5cb5b146102af5780639276e261146101bc5780639a6fc8f51461017a578063f2fde38b146100f15763feaf968c1461007f575f80fd5b346100ed575f3660031901126100ed576001546002546003546004546005546100e9946001600160501b0390811694939291165b604080516001600160501b03968716815260208101959095528401929092526060830152909116608082015290819060a0820190565b0390f35b5f80fd5b346100ed5760203660031901126100ed576004356001600160a01b038116908190036100ed5761011f6103eb565b8015610167575f80546001600160a01b03198116831782556001600160a01b0316907f8be0079c531659141344cd1fd0a4f28419497f9722a3daafe3b4186f6b6457e09080a3005b631e4fbdf760e01b5f525f60045260245ffd5b346100ed5760203660031901126100ed576101936103d5565b506001546002546003546004546005546100e9946001600160501b0390811694939291166100b3565b346100ed5760a03660031901126100ed5760405160a0810181811067ffffffffffffffff82111761029b576040526101f26103d5565b815260208101906024358252604081019060443582526060810160643581526084356001600160501b03811681036100ed576001600160501b03602092818560807f0559884fd3a460db3073b7fc896cc77986f16e378210ded43186175bf646fc5f97019485526102616103eb565b51169687831960015416176001555195866002555160035551918260045551166001600160501b03196005541617600555604051908152a3005b634e487b7160e01b5f52604160045260245ffd5b346100ed575f3660031901126100ed575f546040516001600160a01b039091168152602090f35b346100ed575f3660031901126100ed576040516040810181811067ffffffffffffffff82111761029b57604052600b8152604060208201916a54657374204f7261636c6560a81b83528151928391602083525180918160208501528484015e5f828201840152601f01601f19168101030190f35b346100ed575f3660031901126100ed576103626103eb565b5f80546001600160a01b0319811682556001600160a01b03167f8be0079c531659141344cd1fd0a4f28419497f9722a3daafe3b4186f6b6457e08280a3005b346100ed575f3660031901126100ed57602060405160018152f35b346100ed575f3660031901126100ed5780600860209252f35b600435906001600160501b03821682036100ed57565b5f546001600160a01b031633036103fe57565b63118cdaa760e01b5f523360045260245ffdfea264697066735822122009f95c494cb61816026d4ca82dc5bce9f24b3b235095e10b264f6f04a925e08364736f6c634300081b0033000000000000000000000000e355d5d8aa52ef0fbbd037c4a3c5e6fd659cf46b"
        }
      ],
      "isFixedGasLimit": false
    },
    {
      "hash": "0x0a5bdac711dc6e74ee7e2a8f408da67e3a0a3dbfd2b08e9d17ac9487a25ef2e9",
      "transactionType": "CALL",
      "contractName": "MockPriceFeed",
      "contractAddress": "0x9c08ea27d20f4d2b725068f6e8a1284f3c2dcb7a",
      "function": "updateRoundData((uint80,int256,uint256,uint256,uint80))",
      "arguments": [
        "(1, 9000000000000, 1740468870, 1740468870, 1)"
      ],
      "transaction": {
        "from": "0xe355d5d8aa52ef0fbbd037c4a3c5e6fd659cf46b",
        "to": "0x9c08ea27d20f4d2b725068f6e8a1284f3c2dcb7a",
        "gas": "0x1d088f",
        "value": "0x0",
        "input": "0x9276e26100000000000000000000000000000000000000000000000000000000000000010000000000000000000000000000000000000000000000000000082f79cd90000000000000000000000000000000000000000000000000000000000067bd72860000000000000000000000000000000000000000000000000000000067bd72860000000000000000000000000000000000000000000000000000000000000001",
        "nonce": "0x86a",
        "chainId": "0x66eee"
      },
      "additionalContracts": [],
      "isFixedGasLimit": false
    },
    {
      "hash": "0xf7a6c8ac6221207d2ee375766a5c8b7fc2f36ef502335d93da26d47bf72027ad",
      "transactionType": "CALL",
      "contractName": "MockPriceFeed",
      "contractAddress": "0x9c08ea27d20f4d2b725068f6e8a1284f3c2dcb7a",
      "function": "transferOwnership(address)",
      "arguments": [
        "0x28A5F8dcE17C1760576B442066321f8f9F069731"
      ],
      "transaction": {
        "from": "0xe355d5d8aa52ef0fbbd037c4a3c5e6fd659cf46b",
        "to": "0x9c08ea27d20f4d2b725068f6e8a1284f3c2dcb7a",
        "gas": "0x130392",
        "value": "0x0",
        "input": "0xf2fde38b00000000000000000000000028a5f8dce17c1760576b442066321f8f9f069731",
        "nonce": "0x86b",
        "chainId": "0x66eee"
      },
      "additionalContracts": [],
      "isFixedGasLimit": false
    },
    {
      "hash": "0xf3c9f6096c74d0d3ad59965f20b2f78d719fd50ea2b676f6e876e3b3950ab07a",
      "transactionType": "CALL",
      "contractName": null,
      "contractAddress": "0x54505e5e2c23ad39ed06971a5d6410f501641f84",
      "function": "setOracle(address,(address,address,uint32))",
      "arguments": [
        "0xA8fBDeE984207bBD7a5d601E043d416D0a77Dcd9",
        "(0x9c08Ea27D20F4d2B725068f6e8a1284F3c2dCB7A, 0x9c08Ea27D20F4d2B725068f6e8a1284F3c2dCB7A, 31536000)"
      ],
      "transaction": {
        "from": "0xe355d5d8aa52ef0fbbd037c4a3c5e6fd659cf46b",
        "to": "0x54505e5e2c23ad39ed06971a5d6410f501641f84",
        "gas": "0x1e3cea",
        "value": "0x0",
        "input": "0x258e35ab000000000000000000000000a8fbdee984207bbd7a5d601e043d416d0a77dcd90000000000000000000000009c08ea27d20f4d2b725068f6e8a1284f3c2dcb7a0000000000000000000000009c08ea27d20f4d2b725068f6e8a1284f3c2dcb7a0000000000000000000000000000000000000000000000000000000001e13380",
        "nonce": "0x86c",
        "chainId": "0x66eee"
      },
      "additionalContracts": [],
      "isFixedGasLimit": false
    },
    {
      "hash": "0xc967e8371ed593d778d8866bd19d262f9e740948b295b3dd68136bcd3c015082",
      "transactionType": "CALL",
      "contractName": null,
      "contractAddress": "0x05bc1c5c5ede8722aaf89663f50a3148eae69b21",
      "function": "addToken(string,string,uint8)",
      "arguments": [
        "\"USD Coin\"",
        "\"USDC\"",
        "6"
      ],
      "transaction": {
        "from": "0xe355d5d8aa52ef0fbbd037c4a3c5e6fd659cf46b",
        "to": "0x05bc1c5c5ede8722aaf89663f50a3148eae69b21",
        "gas": "0x2f3294",
        "value": "0x0",
        "input": "0xf3bdd863000000000000000000000000000000000000000000000000000000000000006000000000000000000000000000000000000000000000000000000000000000a00000000000000000000000000000000000000000000000000000000000000006000000000000000000000000000000000000000000000000000000000000000855534420436f696e00000000000000000000000000000000000000000000000000000000000000000000000000000000000000000000000000000000000000045553444300000000000000000000000000000000000000000000000000000000",
        "nonce": "0x86d",
        "chainId": "0x66eee"
      },
      "additionalContracts": [
        {
          "transactionType": "CREATE",
          "address": "0x954d14908da52d129f1d8ca2f9a4cf51fc1fe937",
          "initCode": "0x60a0604052346103a757610c3780380380610019816103ab565b9283398101906080818303126103a75780516001600160a01b038116908190036103a75760208201516001600160401b0381116103a7578361005c9184016103d0565b60408301519093906001600160401b0381116103a7576060916100809185016103d0565b92015160ff811681036103a75783516001600160401b0381116102b857600354600181811c9116801561039d575b602082101461029a57601f811161033a575b50602094601f82116001146102d7579481929394955f926102cc575b50508160011b915f199060031b1c1916176003555b82516001600160401b0381116102b857600454600181811c911680156102ae575b602082101461029a57601f8111610237575b506020601f82116001146101d457819293945f926101c9575b50508160011b915f199060031b1c1916176004555b81156101b657600580546001600160a01b03198116841790915560405192906001600160a01b03167f8be0079c531659141344cd1fd0a4f28419497f9722a3daafe3b4186f6b6457e05f80a360805261081590816104228239608051816104460152f35b631e4fbdf760e01b5f525f60045260245ffd5b015190505f8061013d565b601f1982169060045f52805f20915f5b81811061021f57509583600195969710610207575b505050811b01600455610152565b01515f1960f88460031b161c191690555f80806101f9565b9192602060018192868b0151815501940192016101e4565b60045f527f8a35acfbc15ff81a39ae7d344fd709f28e8600b4aa8c65c6b64bfe7fe36bd19b601f830160051c81019160208410610290575b601f0160051c01905b8181106102855750610124565b5f8155600101610278565b909150819061026f565b634e487b7160e01b5f52602260045260245ffd5b90607f1690610112565b634e487b7160e01b5f52604160045260245ffd5b015190505f806100dc565b601f1982169560035f52805f20915f5b8881106103225750836001959697981061030a575b505050811b016003556100f1565b01515f1960f88460031b161c191690555f80806102fc565b919260206001819286850151815501940192016102e7565b60035f527fc2575a0e9e593c00f959f8c92f12db2869c3395a3b0502d05e2516446f71f85b601f830160051c81019160208410610393575b601f0160051c01905b81811061038857506100c0565b5f815560010161037b565b9091508190610372565b90607f16906100ae565b5f80fd5b6040519190601f01601f191682016001600160401b038111838210176102b857604052565b81601f820112156103a7578051906001600160401b0382116102b8576103ff601f8301601f19166020016103ab565b92828452602083830101116103a757815f9260208093018386015e830101529056fe6080806040526004361015610012575f80fd5b5f3560e01c90816306fdde03146105e957508063095ea7b31461056757806318160ddd1461054a57806323b872dd1461046a578063313ce5671461042d57806340c10f191461038b57806370a0823114610354578063715018a6146102f95780638da5cb5b146102d157806395d89b41146101b6578063a9059cbb14610185578063dd62ed3e146101355763f2fde38b146100ab575f80fd5b34610131576020366003190112610131576100c46106e2565b6100cc6107b8565b6001600160a01b0316801561011e57600580546001600160a01b0319811683179091556001600160a01b03167f8be0079c531659141344cd1fd0a4f28419497f9722a3daafe3b4186f6b6457e05f80a3005b631e4fbdf760e01b5f525f60045260245ffd5b5f80fd5b346101315760403660031901126101315761014e6106e2565b6101566106f8565b6001600160a01b039182165f908152600160209081526040808320949093168252928352819020549051908152f35b34610131576040366003190112610131576101ab6101a16106e2565b602435903361070e565b602060405160018152f35b34610131575f366003190112610131576040515f6004548060011c906001811680156102c7575b6020831081146102b3578285529081156102975750600114610242575b50819003601f01601f191681019067ffffffffffffffff82118183101761022e5761022a829182604052826106b8565b0390f35b634e487b7160e01b5f52604160045260245ffd5b905060045f527f8a35acfbc15ff81a39ae7d344fd709f28e8600b4aa8c65c6b64bfe7fe36bd19b5f905b828210610281575060209150820101826101fa565b600181602092548385880101520191019061026c565b90506020925060ff191682840152151560051b820101826101fa565b634e487b7160e01b5f52602260045260245ffd5b91607f16916101dd565b34610131575f366003190112610131576005546040516001600160a01b039091168152602090f35b34610131575f366003190112610131576103116107b8565b600580546001600160a01b031981169091555f906001600160a01b03167f8be0079c531659141344cd1fd0a4f28419497f9722a3daafe3b4186f6b6457e08280a3005b34610131576020366003190112610131576001600160a01b036103756106e2565b165f525f602052602060405f2054604051908152f35b34610131576040366003190112610131576103a46106e2565b6001600160a01b0316602435811561041a57600254908082018092116104065760207fddf252ad1be2c89b69c2b068fc378daa952ba7f163c4a11628f55a4df523b3ef915f9360025584845283825260408420818154019055604051908152a3005b634e487b7160e01b5f52601160045260245ffd5b63ec442f0560e01b5f525f60045260245ffd5b34610131575f36600319011261013157602060405160ff7f0000000000000000000000000000000000000000000000000000000000000000168152f35b34610131576060366003190112610131576104836106e2565b61048b6106f8565b6001600160a01b0382165f8181526001602081815260408084203385529091529091205491936044359392909181016104ca575b506101ab935061070e565b83811061052f57841561051c573315610509576101ab945f52600160205260405f2060018060a01b0333165f526020528360405f2091039055846104bf565b634a1406b160e11b5f525f60045260245ffd5b63e602df0560e01b5f525f60045260245ffd5b8390637dc7a0d960e11b5f523360045260245260445260645ffd5b34610131575f366003190112610131576020600254604051908152f35b34610131576040366003190112610131576105806106e2565b60243590331561051c576001600160a01b031690811561050957335f52600160205260405f20825f526020528060405f20556040519081527f8c5be1e5ebec7d5bd14f71427d1e84f3dd0314c0f7b2291e5b200ac8c7c3b92560203392a3602060405160018152f35b34610131575f366003190112610131575f6003548060011c906001811680156106ae575b6020831081146102b35782855290811561029757506001146106595750819003601f01601f191681019067ffffffffffffffff82118183101761022e5761022a829182604052826106b8565b905060035f527fc2575a0e9e593c00f959f8c92f12db2869c3395a3b0502d05e2516446f71f85b5f905b828210610698575060209150820101826101fa565b6001816020925483858801015201910190610683565b91607f169161060d565b602060409281835280519182918282860152018484015e5f828201840152601f01601f1916010190565b600435906001600160a01b038216820361013157565b602435906001600160a01b038216820361013157565b6001600160a01b03169081156107a5576001600160a01b031691821561041a57815f525f60205260405f205481811061078c57817fddf252ad1be2c89b69c2b068fc378daa952ba7f163c4a11628f55a4df523b3ef92602092855f525f84520360405f2055845f525f825260405f20818154019055604051908152a3565b8263391434e360e21b5f5260045260245260445260645ffd5b634b637e8f60e11b5f525f60045260245ffd5b6005546001600160a01b031633036107cc57565b63118cdaa760e01b5f523360045260245ffdfea2646970667358221220683087b5d4bcc85659009f3cb1ee0b73ddf8209d174d42b402f41bfde379e9dd64736f6c634300081b003300000000000000000000000005bc1c5c5ede8722aaf89663f50a3148eae69b21000000000000000000000000000000000000000000000000000000000000008000000000000000000000000000000000000000000000000000000000000000c00000000000000000000000000000000000000000000000000000000000000006000000000000000000000000000000000000000000000000000000000000000855534420436f696e00000000000000000000000000000000000000000000000000000000000000000000000000000000000000000000000000000000000000045553444300000000000000000000000000000000000000000000000000000000"
        },
        {
          "transactionType": "CREATE",
          "address": "0x2a074951f98b0b3b9c4e5ef98e082ed9d0bf5e40",
          "initCode": "0x60803460b857601f61051838819003918201601f19168301916001600160401b0383118484101760bc5780849260209460405283398101031260b857516001600160a01b0381169081900360b857801560a5575f80546001600160a01b031981168317825560405192916001600160a01b03909116907f8be0079c531659141344cd1fd0a4f28419497f9722a3daafe3b4186f6b6457e09080a361044790816100d18239f35b631e4fbdf760e01b5f525f60045260245ffd5b5f80fd5b634e487b7160e01b5f52604160045260245ffdfe6080806040526004361015610012575f80fd5b5f3560e01c908163313ce567146103bc5750806354fd4d50146103a1578063715018a61461034a5780637284e416146102d65780638da5cb5b146102af5780639276e261146101bc5780639a6fc8f51461017a578063f2fde38b146100f15763feaf968c1461007f575f80fd5b346100ed575f3660031901126100ed576001546002546003546004546005546100e9946001600160501b0390811694939291165b604080516001600160501b03968716815260208101959095528401929092526060830152909116608082015290819060a0820190565b0390f35b5f80fd5b346100ed5760203660031901126100ed576004356001600160a01b038116908190036100ed5761011f6103eb565b8015610167575f80546001600160a01b03198116831782556001600160a01b0316907f8be0079c531659141344cd1fd0a4f28419497f9722a3daafe3b4186f6b6457e09080a3005b631e4fbdf760e01b5f525f60045260245ffd5b346100ed5760203660031901126100ed576101936103d5565b506001546002546003546004546005546100e9946001600160501b0390811694939291166100b3565b346100ed5760a03660031901126100ed5760405160a0810181811067ffffffffffffffff82111761029b576040526101f26103d5565b815260208101906024358252604081019060443582526060810160643581526084356001600160501b03811681036100ed576001600160501b03602092818560807f0559884fd3a460db3073b7fc896cc77986f16e378210ded43186175bf646fc5f97019485526102616103eb565b51169687831960015416176001555195866002555160035551918260045551166001600160501b03196005541617600555604051908152a3005b634e487b7160e01b5f52604160045260245ffd5b346100ed575f3660031901126100ed575f546040516001600160a01b039091168152602090f35b346100ed575f3660031901126100ed576040516040810181811067ffffffffffffffff82111761029b57604052600b8152604060208201916a54657374204f7261636c6560a81b83528151928391602083525180918160208501528484015e5f828201840152601f01601f19168101030190f35b346100ed575f3660031901126100ed576103626103eb565b5f80546001600160a01b0319811682556001600160a01b03167f8be0079c531659141344cd1fd0a4f28419497f9722a3daafe3b4186f6b6457e08280a3005b346100ed575f3660031901126100ed57602060405160018152f35b346100ed575f3660031901126100ed5780600860209252f35b600435906001600160501b03821682036100ed57565b5f546001600160a01b031633036103fe57565b63118cdaa760e01b5f523360045260245ffdfea264697066735822122009f95c494cb61816026d4ca82dc5bce9f24b3b235095e10b264f6f04a925e08364736f6c634300081b0033000000000000000000000000e355d5d8aa52ef0fbbd037c4a3c5e6fd659cf46b"
        }
      ],
      "isFixedGasLimit": false
    },
    {
      "hash": "0xcef6167f8988f7f931d4b9be4f6b49d52415d99d63a32634b31692913e01c708",
      "transactionType": "CALL",
      "contractName": "MockPriceFeed",
      "contractAddress": "0x2a074951f98b0b3b9c4e5ef98e082ed9d0bf5e40",
      "function": "updateRoundData((uint80,int256,uint256,uint256,uint80))",
      "arguments": [
        "(1, 100000000, 1740468870, 1740468870, 1)"
      ],
      "transaction": {
        "from": "0xe355d5d8aa52ef0fbbd037c4a3c5e6fd659cf46b",
        "to": "0x2a074951f98b0b3b9c4e5ef98e082ed9d0bf5e40",
        "gas": "0x1c682b",
        "value": "0x0",
        "input": "0x9276e26100000000000000000000000000000000000000000000000000000000000000010000000000000000000000000000000000000000000000000000000005f5e1000000000000000000000000000000000000000000000000000000000067bd72860000000000000000000000000000000000000000000000000000000067bd72860000000000000000000000000000000000000000000000000000000000000001",
        "nonce": "0x86e",
        "chainId": "0x66eee"
      },
      "additionalContracts": [],
      "isFixedGasLimit": false
    },
    {
      "hash": "0x75cbd1158890db98580c6a3b3e4cdee5ef08a13fe43059a93437482dfaddc863",
      "transactionType": "CALL",
      "contractName": "MockPriceFeed",
      "contractAddress": "0x2a074951f98b0b3b9c4e5ef98e082ed9d0bf5e40",
      "function": "transferOwnership(address)",
      "arguments": [
        "0x28A5F8dcE17C1760576B442066321f8f9F069731"
      ],
      "transaction": {
        "from": "0xe355d5d8aa52ef0fbbd037c4a3c5e6fd659cf46b",
        "to": "0x2a074951f98b0b3b9c4e5ef98e082ed9d0bf5e40",
        "gas": "0x130392",
        "value": "0x0",
        "input": "0xf2fde38b00000000000000000000000028a5f8dce17c1760576b442066321f8f9f069731",
        "nonce": "0x86f",
        "chainId": "0x66eee"
      },
      "additionalContracts": [],
      "isFixedGasLimit": false
    },
    {
      "hash": "0x2c296bfabe7f546081773ecc0a9f24229ad499bcaf015e7dd90135d1a2f2e25d",
      "transactionType": "CALL",
      "contractName": null,
      "contractAddress": "0x54505e5e2c23ad39ed06971a5d6410f501641f84",
      "function": "setOracle(address,(address,address,uint32))",
      "arguments": [
        "0x954d14908DA52D129f1D8Ca2f9a4Cf51fC1fE937",
        "(0x2a074951f98B0B3B9C4E5EF98E082Ed9D0BF5e40, 0x2a074951f98B0B3B9C4E5EF98E082Ed9D0BF5e40, 31536000)"
      ],
      "transaction": {
        "from": "0xe355d5d8aa52ef0fbbd037c4a3c5e6fd659cf46b",
        "to": "0x54505e5e2c23ad39ed06971a5d6410f501641f84",
        "gas": "0x1e3cea",
        "value": "0x0",
        "input": "0x258e35ab000000000000000000000000954d14908da52d129f1d8ca2f9a4cf51fc1fe9370000000000000000000000002a074951f98b0b3b9c4e5ef98e082ed9d0bf5e400000000000000000000000002a074951f98b0b3b9c4e5ef98e082ed9d0bf5e400000000000000000000000000000000000000000000000000000000001e13380",
        "nonce": "0x870",
        "chainId": "0x66eee"
      },
      "additionalContracts": [],
      "isFixedGasLimit": false
    },
    {
      "hash": "0xc712fd15665103d4ed194a1c7bf7b0c9081aa8ecb2cca5cbfcf47e2a62dd4a11",
      "transactionType": "CALL",
      "contractName": null,
      "contractAddress": "0x5cb28bcb9de6c10e85e1cba8a4a59d82c5cd1630",
      "function": "createMarket(bytes32,(address,address,address,address,(address,uint64,(uint32,uint32,uint32,uint32,uint32,uint32)),(address,uint32,uint32,bool),bytes,string,string),uint256)",
      "arguments": [
        "0xd9eb2aaa5f19c272f06ea2b4c8449687a8c2ac90aa2cfba9b3c9de0dca6ca695",
        "(0xA8fBDeE984207bBD7a5d601E043d416D0a77Dcd9, 0x954d14908DA52D129f1D8Ca2f9a4Cf51fC1fE937, 0xE355d5D8aa52EF0FbbD037C4a3C5E6Fd659cf46B, 0x0000000000000000000000000000000000000000, (0x7ab945445958819a74b48e8Bd5F9E39ed74bdE9E, 1745539200, (2000000, 2000000, 300000, 3000000, 10000000, 20000000)), (0x54505e5E2C23ad39ED06971A5d6410F501641F84, 86000000, 82000000, true), 0xffffffffffffffffffffffffffffffffffffffffffffffffffffffffffffffff, \"WBTC/USDC-1745539200\", \"WBTC/USDC-1745539200\")",
        "0"
      ],
      "transaction": {
        "from": "0xe355d5d8aa52ef0fbbd037c4a3c5e6fd659cf46b",
        "to": "0x5cb28bcb9de6c10e85e1cba8a4a59d82c5cd1630",
        "gas": "0x15936a",
        "value": "0x0",
        "input": "0x9ac2b523d9eb2aaa5f19c272f06ea2b4c8449687a8c2ac90aa2cfba9b3c9de0dca6ca69500000000000000000000000000000000000000000000000000000000000000600000000000000000000000000000000000000000000000000000000000000000000000000000000000000000a8fbdee984207bbd7a5d601e043d416d0a77dcd9000000000000000000000000954d14908da52d129f1d8ca2f9a4cf51fc1fe937000000000000000000000000e355d5d8aa52ef0fbbd037c4a3c5e6fd659cf46b00000000000000000000000000000000000000000000000000000000000000000000000000000000000000007ab945445958819a74b48e8bd5f9e39ed74bde9e00000000000000000000000000000000000000000000000000000000680ad08000000000000000000000000000000000000000000000000000000000001e848000000000000000000000000000000000000000000000000000000000001e848000000000000000000000000000000000000000000000000000000000000493e000000000000000000000000000000000000000000000000000000000002dc6c000000000000000000000000000000000000000000000000000000000009896800000000000000000000000000000000000000000000000000000000001312d0000000000000000000000000054505e5e2c23ad39ed06971a5d6410f501641f8400000000000000000000000000000000000000000000000000000000052041800000000000000000000000000000000000000000000000000000000004e338800000000000000000000000000000000000000000000000000000000000000001000000000000000000000000000000000000000000000000000000000000026000000000000000000000000000000000000000000000000000000000000002a000000000000000000000000000000000000000000000000000000000000002e00000000000000000000000000000000000000000000000000000000000000020ffffffffffffffffffffffffffffffffffffffffffffffffffffffffffffffff0000000000000000000000000000000000000000000000000000000000000014574254432f555344432d313734353533393230300000000000000000000000000000000000000000000000000000000000000000000000000000000000000014574254432f555344432d31373435353339323030000000000000000000000000",
        "nonce": "0x871",
        "chainId": "0x66eee"
      },
      "additionalContracts": [
        {
          "transactionType": "CREATE2",
          "address": "0xbe8127428e1b402fad7f6a19a19517ca24129502",
          "initCode": "0x3d602d80600a3d3981f3363d3d373d3d3d363d73e8936eb412907ad760c45aa6ad582bb2f1e2a4245af43d82803e903d91602b57fd5bf3"
        },
        {
          "transactionType": "CREATE",
          "address": "0xb76bc10e502a93848e9b11afa7774d0a9d40b339",
          "initCode": "0x3d602d80600a3d3981f3363d3d373d3d3d363d73014c354a956f2209ba267b04fbe6795a158bd00c5af43d82803e903d91602b57fd5bf3"
        },
        {
          "transactionType": "CREATE",
          "address": "0xd653b9eadfe3959ae2908258353106a3304a2e5f",
          "initCode": "0x3d602d80600a3d3981f3363d3d373d3d3d363d73014c354a956f2209ba267b04fbe6795a158bd00c5af43d82803e903d91602b57fd5bf3"
        },
        {
          "transactionType": "CREATE",
          "address": "0x54140b7e6bad58cdeffba14041075e67511bade0",
          "initCode": "0x3d602d80600a3d3981f3363d3d373d3d3d363d7331635e455c828ce5fc99ce3fd4486d5b04108c9c5af43d82803e903d91602b57fd5bf3"
        }
      ],
      "isFixedGasLimit": false
    },
    {
      "hash": "0xd68f7b48a8926d2aa3af5771fe20fc23fcf6c6eb121c4e569d446042d5c7dc50",
      "transactionType": "CALL",
      "contractName": null,
      "contractAddress": "0xa3e778d80d04e304fefd613c2e1675ee056136cf",
      "function": "setMarketWhitelist(address,bool)",
      "arguments": [
        "0xbE8127428E1B402faD7f6A19a19517ca24129502",
        "true"
      ],
      "transaction": {
        "from": "0xe355d5d8aa52ef0fbbd037c4a3c5e6fd659cf46b",
        "to": "0xa3e778d80d04e304fefd613c2e1675ee056136cf",
        "gas": "0x171434",
        "value": "0x0",
        "input": "0x856e648a000000000000000000000000be8127428e1b402fad7f6a19a19517ca241295020000000000000000000000000000000000000000000000000000000000000001",
        "nonce": "0x872",
        "chainId": "0x66eee"
      },
      "additionalContracts": [],
      "isFixedGasLimit": false
    }
  ],
  "receipts": [
    {
      "status": "0x1",
      "cumulativeGasUsed": "0x8cede54",
      "logs": [
        {
          "address": "0xd9f3c86ea4807b68d0384834c921426ccbf58123",
          "topics": [
            "0x8be0079c531659141344cd1fd0a4f28419497f9722a3daafe3b4186f6b6457e0",
            "0x0000000000000000000000000000000000000000000000000000000000000000",
            "0x00000000000000000000000005bc1c5c5ede8722aaf89663f50a3148eae69b21"
          ],
          "data": "0x",
          "blockHash": "0x9f7d2f9ce0dc5c801302818823a6d3dca8ead0b5b00389ed23c1424b3616841c",
          "blockNumber": "0x79383ea",
          "transactionHash": "0xf66a535e975298d08d1017fa9cb618931bac2bccea45ac3e438c2d234abcc4a2",
          "transactionIndex": "0x2",
          "logIndex": "0x1",
          "removed": false
        },
        {
          "address": "0x1c4ed77a8975a75bb0a215ff620929e3a91dcf75",
          "topics": [
            "0x8be0079c531659141344cd1fd0a4f28419497f9722a3daafe3b4186f6b6457e0",
            "0x0000000000000000000000000000000000000000000000000000000000000000",
            "0x000000000000000000000000e355d5d8aa52ef0fbbd037c4a3c5e6fd659cf46b"
          ],
          "data": "0x",
          "blockHash": "0x9f7d2f9ce0dc5c801302818823a6d3dca8ead0b5b00389ed23c1424b3616841c",
          "blockNumber": "0x79383ea",
          "transactionHash": "0xf66a535e975298d08d1017fa9cb618931bac2bccea45ac3e438c2d234abcc4a2",
          "transactionIndex": "0x2",
          "logIndex": "0x2",
          "removed": false
        }
      ],
      "logsBloom": "0x00000000000000000000000000000000000000000000000000800000000000000000000000000000000000000000000000000000000000000000000000000000000000000000000000000001000000000001000000000000000000000000000000000000020000000000000000000800000000000000000000000000000000400000000000010000000000000000000200400000000000000000000000000000000400000000000000000000000000000000002000000000000000000000000000000000000000000000800000800000200000000000000000000000000020000000000000000020000000000000000000000000000000000000000000004010",
      "type": "0x2",
      "transactionHash": "0xf66a535e975298d08d1017fa9cb618931bac2bccea45ac3e438c2d234abcc4a2",
      "transactionIndex": "0x2",
      "blockHash": "0x9f7d2f9ce0dc5c801302818823a6d3dca8ead0b5b00389ed23c1424b3616841c",
      "blockNumber": "0x79383ea",
      "gasUsed": "0x2166fe",
      "effectiveGasPrice": "0x5f5e100",
      "from": "0xe355d5d8aa52ef0fbbd037c4a3c5e6fd659cf46b",
      "to": "0x05bc1c5c5ede8722aaf89663f50a3148eae69b21",
      "contractAddress": null,
      "gasUsedForL1": "0x133381",
      "l1BlockNumber": "0x76bb9a",
      "timeboosted": false
    },
    {
      "status": "0x1",
      "cumulativeGasUsed": "0x3448d3",
      "logs": [
        {
          "address": "0x1c4ed77a8975a75bb0a215ff620929e3a91dcf75",
          "topics": [
            "0x0559884fd3a460db3073b7fc896cc77986f16e378210ded43186175bf646fc5f",
            "0x00000000000000000000000000000000000000000000000000000053d1ac1000",
            "0x0000000000000000000000000000000000000000000000000000000000000001"
          ],
          "data": "0x0000000000000000000000000000000000000000000000000000000067bd7286",
          "blockHash": "0xdfe0c339747caf7f868ac8eb10f47756dad7b71cbd895b2505f63863b8f1aac1",
          "blockNumber": "0x79383f8",
          "transactionHash": "0x1dc92fb77870add1e2ebaca47078ad4e2f247b9b2b247da2b6149826f81f21a3",
          "transactionIndex": "0x2",
          "logIndex": "0x3",
          "removed": false
        }
      ],
      "logsBloom": "0x00000000000000000000000000000000000000000000000000000000000000000000000000000000000000000004000000000000000200000000000000040000000000000000000000000000800000000000000000040000000000000000000000000000000000000000000000000000000000000000000000000000000000000000000000000000000000000000000000400480000000000000000000000000000400000000000000000000000000000000000000000000000000000000000000000000000000000000800000000000000000000000000000000000000040000000000000000000000000080000000000000000000000000000000000000000",
      "type": "0x2",
      "transactionHash": "0x1dc92fb77870add1e2ebaca47078ad4e2f247b9b2b247da2b6149826f81f21a3",
      "transactionIndex": "0x2",
      "blockHash": "0xdfe0c339747caf7f868ac8eb10f47756dad7b71cbd895b2505f63863b8f1aac1",
      "blockNumber": "0x79383f8",
      "gasUsed": "0x129186",
      "effectiveGasPrice": "0x5f5e100",
      "from": "0xe355d5d8aa52ef0fbbd037c4a3c5e6fd659cf46b",
      "to": "0x1c4ed77a8975a75bb0a215ff620929e3a91dcf75",
      "contractAddress": null,
      "gasUsedForL1": "0x107a87",
      "l1BlockNumber": "0x76bb9a",
      "timeboosted": false
    },
    {
      "status": "0x1",
      "cumulativeGasUsed": "0xb40f3",
      "logs": [
        {
          "address": "0x1c4ed77a8975a75bb0a215ff620929e3a91dcf75",
          "topics": [
            "0x8be0079c531659141344cd1fd0a4f28419497f9722a3daafe3b4186f6b6457e0",
            "0x000000000000000000000000e355d5d8aa52ef0fbbd037c4a3c5e6fd659cf46b",
            "0x00000000000000000000000028a5f8dce17c1760576b442066321f8f9f069731"
          ],
          "data": "0x",
          "blockHash": "0x34221667dbae02d97b67ab74dcafbfd29b6a43472286475572163e0efcc9379e",
          "blockNumber": "0x7938405",
          "transactionHash": "0x51d94217526422ec5a485cf3cb1e7f6ceae952fb15f4652ec9d31e412a53b696",
          "transactionIndex": "0x1",
          "logIndex": "0x0",
          "removed": false
        }
      ],
      "logsBloom": "0x00000000000000000000000000000000000000000000000000800000000020000000000000000000000000000000000000000000000000000000010000000000000000000000000000000000000800000001000000000000000000000000000000000000000000000000000000000000000000000000000000000000000000400000000000000000000000000000000200400000000000000000000000000000000400000000000000000000000000000000000000000000000000000000000000000000000000000000800000000000000000000000000000000000000000000000000000000020000000000000000000000000000000000000000000004000",
      "type": "0x2",
      "transactionHash": "0x51d94217526422ec5a485cf3cb1e7f6ceae952fb15f4652ec9d31e412a53b696",
      "transactionIndex": "0x1",
      "blockHash": "0x34221667dbae02d97b67ab74dcafbfd29b6a43472286475572163e0efcc9379e",
      "blockNumber": "0x7938405",
      "gasUsed": "0xb40f3",
      "effectiveGasPrice": "0x5f5e100",
      "from": "0xe355d5d8aa52ef0fbbd037c4a3c5e6fd659cf46b",
      "to": "0x1c4ed77a8975a75bb0a215ff620929e3a91dcf75",
      "contractAddress": null,
      "gasUsedForL1": "0xad18e",
      "l1BlockNumber": "0x76bb9b",
      "timeboosted": false
    },
    {
      "status": "0x1",
      "cumulativeGasUsed": "0x1f7e2c",
      "logs": [
        {
          "address": "0x54505e5e2c23ad39ed06971a5d6410f501641f84",
          "topics": [
            "0x1fde9522e8fecea62ddfd7a16a09129167e338cfdce86f3b8742a7aacaf34535",
            "0x000000000000000000000000d9f3c86ea4807b68d0384834c921426ccbf58123",
            "0x0000000000000000000000001c4ed77a8975a75bb0a215ff620929e3a91dcf75",
            "0x0000000000000000000000001c4ed77a8975a75bb0a215ff620929e3a91dcf75"
          ],
          "data": "0x0000000000000000000000000000000000000000000000000000000001e13380",
          "blockHash": "0x6d9e2b2656ac00ced16c5ec57cb0592b0abbee76a55dcbc8ccfd0c9b20e5404b",
          "blockNumber": "0x7938410",
          "transactionHash": "0x4f83fb4fa63a702082bab2b97763e8cbe91a4c82dc7fc6690d1eb0be10ee2dac",
          "transactionIndex": "0x2",
          "logIndex": "0x3",
          "removed": false
        }
      ],
      "logsBloom": "0x00000000000000008002000000000000000000000000000000000000000000000000000000000000000000000000000000000000000000000000000000000020000000000001000000000000000000000000000008000000000000000000000000000000000000000000000000000000000000000000000000000000000000000000000000000000000000000000020000000000000000000000000001000000000001000000000000000000000000000000000000000000000002000000000000000000000000004000000000000000000400000000000000000000000000000000000000000000000000000000000000000100000000000000000000000000",
      "type": "0x2",
      "transactionHash": "0x4f83fb4fa63a702082bab2b97763e8cbe91a4c82dc7fc6690d1eb0be10ee2dac",
      "transactionIndex": "0x2",
      "blockHash": "0x6d9e2b2656ac00ced16c5ec57cb0592b0abbee76a55dcbc8ccfd0c9b20e5404b",
      "blockNumber": "0x7938410",
      "gasUsed": "0x12f00d",
      "effectiveGasPrice": "0x5f5e100",
      "from": "0xe355d5d8aa52ef0fbbd037c4a3c5e6fd659cf46b",
      "to": "0x54505e5e2c23ad39ed06971a5d6410f501641f84",
      "contractAddress": null,
      "gasUsedForL1": "0x11c4ad",
      "l1BlockNumber": "0x76bb9b",
      "timeboosted": false
    },
    {
      "status": "0x1",
      "cumulativeGasUsed": "0x4a5528",
      "logs": [
        {
          "address": "0x28cce7a93fd0bded36b7d4adc3f22d7a7202c4ab",
          "topics": [
            "0x8be0079c531659141344cd1fd0a4f28419497f9722a3daafe3b4186f6b6457e0",
            "0x0000000000000000000000000000000000000000000000000000000000000000",
            "0x00000000000000000000000005bc1c5c5ede8722aaf89663f50a3148eae69b21"
          ],
          "data": "0x",
          "blockHash": "0xa4b4ca1eb4fcd5275abd2d2cff11d28bd31ece40e546a868beec6c2250c2f748",
          "blockNumber": "0x7938420",
          "transactionHash": "0x4b11ba49f523baa274a885dde8ba8ac1f6587e8ff5c104d0f4cceb0cdd517f91",
          "transactionIndex": "0x2",
          "logIndex": "0x8",
          "removed": false
        },
        {
          "address": "0xa647c2d68ac8e94e67d311811e33044d403ca567",
          "topics": [
            "0x8be0079c531659141344cd1fd0a4f28419497f9722a3daafe3b4186f6b6457e0",
            "0x0000000000000000000000000000000000000000000000000000000000000000",
            "0x000000000000000000000000e355d5d8aa52ef0fbbd037c4a3c5e6fd659cf46b"
          ],
          "data": "0x",
          "blockHash": "0xa4b4ca1eb4fcd5275abd2d2cff11d28bd31ece40e546a868beec6c2250c2f748",
          "blockNumber": "0x7938420",
          "transactionHash": "0x4b11ba49f523baa274a885dde8ba8ac1f6587e8ff5c104d0f4cceb0cdd517f91",
          "transactionIndex": "0x2",
          "logIndex": "0x9",
          "removed": false
        }
      ],
      "logsBloom": "0x00000000000000000000000000000000000000000000000000800000000000000000000000000000000000000000000000000000008000000000000000000000000000000004000000000001000000000001000000000000000000000000000000000000020000000000000000000800800000000000000000000000000000400000000000010000000000000000000200000000000000000000000000000000000040000000000000000000000000000000002000000000008000000000000000000000000000000000000000000000000000000000000000000000000020000000000000040020000000000000000000000000000000000000000000004000",
      "type": "0x2",
      "transactionHash": "0x4b11ba49f523baa274a885dde8ba8ac1f6587e8ff5c104d0f4cceb0cdd517f91",
      "transactionIndex": "0x2",
      "blockHash": "0xa4b4ca1eb4fcd5275abd2d2cff11d28bd31ece40e546a868beec6c2250c2f748",
      "blockNumber": "0x7938420",
      "gasUsed": "0x1fb447",
      "effectiveGasPrice": "0x5f5e100",
      "from": "0xe355d5d8aa52ef0fbbd037c4a3c5e6fd659cf46b",
      "to": "0x05bc1c5c5ede8722aaf89663f50a3148eae69b21",
      "contractAddress": null,
      "gasUsedForL1": "0x11c4ad",
      "l1BlockNumber": "0x76bb9b",
      "timeboosted": false
    },
    {
      "status": "0x1",
      "cumulativeGasUsed": "0x22f925",
      "logs": [
        {
          "address": "0xa647c2d68ac8e94e67d311811e33044d403ca567",
          "topics": [
            "0x0559884fd3a460db3073b7fc896cc77986f16e378210ded43186175bf646fc5f",
            "0x00000000000000000000000000000000000000000000000000000045d964b800",
            "0x0000000000000000000000000000000000000000000000000000000000000001"
          ],
          "data": "0x0000000000000000000000000000000000000000000000000000000067bd7286",
          "blockHash": "0x0d6208b179c4c24a22eaf34ac4fc1b50ae34cdd30c3c6ed4a94c442671d8976d",
          "blockNumber": "0x793843a",
          "transactionHash": "0x1c8a6a4c59400591a8076c1ed8dee5d6387715a0cf1ed25df42d6da31d710f3e",
          "transactionIndex": "0x2",
          "logIndex": "0x1",
          "removed": false
        }
      ],
      "logsBloom": "0x00000000008000000000000000000000040000000000000000000000000008000000000000000000000000000000000000000000008200000000000000040000000000000000000000000000000000000000000000040000000000000000000000000000000000000000000000000000000000000000000000000000000000000000000000000000000000000000000000000480000000000000000000000000000000000000000000000000000000000000000000000000008000000000000000000000000000000000000000000000000000000000000000000000000040000000000000040000000000000000000000000000000000000000000000000000",
      "type": "0x2",
      "transactionHash": "0x1c8a6a4c59400591a8076c1ed8dee5d6387715a0cf1ed25df42d6da31d710f3e",
      "transactionIndex": "0x2",
      "blockHash": "0x0d6208b179c4c24a22eaf34ac4fc1b50ae34cdd30c3c6ed4a94c442671d8976d",
      "blockNumber": "0x793843a",
      "gasUsed": "0x12c88d",
      "effectiveGasPrice": "0x5f5e100",
      "from": "0xe355d5d8aa52ef0fbbd037c4a3c5e6fd659cf46b",
      "to": "0xa647c2d68ac8e94e67d311811e33044d403ca567",
      "contractAddress": null,
      "gasUsedForL1": "0x10b18e",
      "l1BlockNumber": "0x76bb9d",
      "timeboosted": false
    },
    {
      "status": "0x1",
      "cumulativeGasUsed": "0xb40f3",
      "logs": [
        {
          "address": "0xa647c2d68ac8e94e67d311811e33044d403ca567",
          "topics": [
            "0x8be0079c531659141344cd1fd0a4f28419497f9722a3daafe3b4186f6b6457e0",
            "0x000000000000000000000000e355d5d8aa52ef0fbbd037c4a3c5e6fd659cf46b",
            "0x00000000000000000000000028a5f8dce17c1760576b442066321f8f9f069731"
          ],
          "data": "0x",
          "blockHash": "0x9745b7f859fc01f4bf758f79988b6e19dc4ddb5620024b7d3f765e3a8464ff2e",
          "blockNumber": "0x7938446",
          "transactionHash": "0xdda6de5ed400fbf199e6ad0e1a49efd1f2821ddcc7ef025a7d81819f15d4c253",
          "transactionIndex": "0x1",
          "logIndex": "0x0",
          "removed": false
        }
      ],
      "logsBloom": "0x00000000000000000000000000000000000000000000000000800000000020000000000000000000000000000000000000000000008000000000010000000000000000000000000000000000000800000001000000000000000000000000000000000000000000000000000000000000000000000000000000000000000000400000000000000000000000000000000200000000000000000000000000000000000000000000000000000000000000000000000000000000008000000000000000000000000000000000000000000000000000000000000000000000000000000000000000040020000000000000000000000000000000000000000000004000",
      "type": "0x2",
      "transactionHash": "0xdda6de5ed400fbf199e6ad0e1a49efd1f2821ddcc7ef025a7d81819f15d4c253",
      "transactionIndex": "0x1",
      "blockHash": "0x9745b7f859fc01f4bf758f79988b6e19dc4ddb5620024b7d3f765e3a8464ff2e",
      "blockNumber": "0x7938446",
      "gasUsed": "0xb40f3",
      "effectiveGasPrice": "0x5f5e100",
      "from": "0xe355d5d8aa52ef0fbbd037c4a3c5e6fd659cf46b",
      "to": "0xa647c2d68ac8e94e67d311811e33044d403ca567",
      "contractAddress": null,
      "gasUsedForL1": "0xad18e",
      "l1BlockNumber": "0x76bb9d",
      "timeboosted": false
    },
    {
      "status": "0x1",
      "cumulativeGasUsed": "0x20551b",
      "logs": [
        {
          "address": "0x54505e5e2c23ad39ed06971a5d6410f501641f84",
          "topics": [
            "0x1fde9522e8fecea62ddfd7a16a09129167e338cfdce86f3b8742a7aacaf34535",
            "0x00000000000000000000000028cce7a93fd0bded36b7d4adc3f22d7a7202c4ab",
            "0x000000000000000000000000a647c2d68ac8e94e67d311811e33044d403ca567",
            "0x000000000000000000000000a647c2d68ac8e94e67d311811e33044d403ca567"
          ],
          "data": "0x0000000000000000000000000000000000000000000000000000000001e13380",
          "blockHash": "0x72004f96ac240536c4613f9dc37f53bdd0c161bdc8980baefe68e74b8fe1c41e",
          "blockNumber": "0x7938454",
          "transactionHash": "0xb0ede6458feb18163806f14c696f77a6cd5a205bc316ba2eeddf3213639bb112",
          "transactionIndex": "0x2",
          "logIndex": "0x1",
          "removed": false
        }
      ],
      "logsBloom": "0x00000000080000008000000000000000000000000000000000000000000000000000000000000000000000000000000000000000000000000000010000000000000000000000000000000000000000000000000000000000000000000000000000000000000000000000000002000000000000000000000000000000000001000000000200000000000000000000020000000000000000000000000000000000000001000000000000000000000000000000000000000000000000000000000000000000000000004000000000000000000400000000000000000000000000000000000000000000000000000000000000000100400000000000000000000000",
      "type": "0x2",
      "transactionHash": "0xb0ede6458feb18163806f14c696f77a6cd5a205bc316ba2eeddf3213639bb112",
      "transactionIndex": "0x2",
      "blockHash": "0x72004f96ac240536c4613f9dc37f53bdd0c161bdc8980baefe68e74b8fe1c41e",
      "blockNumber": "0x7938454",
      "gasUsed": "0x12ddb5",
      "effectiveGasPrice": "0x5f5e100",
      "from": "0xe355d5d8aa52ef0fbbd037c4a3c5e6fd659cf46b",
      "to": "0x54505e5e2c23ad39ed06971a5d6410f501641f84",
      "contractAddress": null,
      "gasUsedForL1": "0x11b255",
      "l1BlockNumber": "0x76bb9d",
      "timeboosted": false
    },
    {
      "status": "0x1",
      "cumulativeGasUsed": "0x31a529",
      "logs": [
        {
          "address": "0x83ec68a7a2068f4275beedf5038ed9e2bc00b0c0",
          "topics": [
            "0x8be0079c531659141344cd1fd0a4f28419497f9722a3daafe3b4186f6b6457e0",
            "0x0000000000000000000000000000000000000000000000000000000000000000",
            "0x000000000000000000000000e355d5d8aa52ef0fbbd037c4a3c5e6fd659cf46b"
          ],
          "data": "0x",
          "blockHash": "0xbd2a16ce2a377e3425834589cb9a7cc9a50c8d4e3bcb2eda02fd9eadc3a90b65",
          "blockNumber": "0x7938461",
          "transactionHash": "0x4b18595f6f34ae6cf4c6289edfa801845ef819cbbad22651bcd3f142d9236274",
          "transactionIndex": "0x1",
          "logIndex": "0x0",
          "removed": false
        },
        {
          "address": "0x851c325787438ef8951bedf0f1ca411f8290c914",
          "topics": [
            "0x8be0079c531659141344cd1fd0a4f28419497f9722a3daafe3b4186f6b6457e0",
            "0x0000000000000000000000000000000000000000000000000000000000000000",
            "0x00000000000000000000000083ec68a7a2068f4275beedf5038ed9e2bc00b0c0"
          ],
          "data": "0x",
          "blockHash": "0xbd2a16ce2a377e3425834589cb9a7cc9a50c8d4e3bcb2eda02fd9eadc3a90b65",
          "blockNumber": "0x7938461",
          "transactionHash": "0x4b18595f6f34ae6cf4c6289edfa801845ef819cbbad22651bcd3f142d9236274",
          "transactionIndex": "0x1",
          "logIndex": "0x1",
          "removed": false
        },
        {
          "address": "0x851c325787438ef8951bedf0f1ca411f8290c914",
          "topics": [
            "0xc7f505b2f371ae2175ee4913f4499e1f2633a7b5936321eed1cdaeb6115181d2"
          ],
          "data": "0x0000000000000000000000000000000000000000000000000000000000000001",
          "blockHash": "0xbd2a16ce2a377e3425834589cb9a7cc9a50c8d4e3bcb2eda02fd9eadc3a90b65",
          "blockNumber": "0x7938461",
          "transactionHash": "0x4b18595f6f34ae6cf4c6289edfa801845ef819cbbad22651bcd3f142d9236274",
          "transactionIndex": "0x1",
          "logIndex": "0x2",
          "removed": false
        },
        {
          "address": "0x8fa52fdf25e9b66faac8bcda351edb0afeb9fb21",
          "topics": [
            "0x8be0079c531659141344cd1fd0a4f28419497f9722a3daafe3b4186f6b6457e0",
            "0x0000000000000000000000000000000000000000000000000000000000000000",
            "0x00000000000000000000000083ec68a7a2068f4275beedf5038ed9e2bc00b0c0"
          ],
          "data": "0x",
          "blockHash": "0xbd2a16ce2a377e3425834589cb9a7cc9a50c8d4e3bcb2eda02fd9eadc3a90b65",
          "blockNumber": "0x7938461",
          "transactionHash": "0x4b18595f6f34ae6cf4c6289edfa801845ef819cbbad22651bcd3f142d9236274",
          "transactionIndex": "0x1",
          "logIndex": "0x3",
          "removed": false
        },
        {
          "address": "0x8fa52fdf25e9b66faac8bcda351edb0afeb9fb21",
          "topics": [
            "0xc7f505b2f371ae2175ee4913f4499e1f2633a7b5936321eed1cdaeb6115181d2"
          ],
          "data": "0x0000000000000000000000000000000000000000000000000000000000000001",
          "blockHash": "0xbd2a16ce2a377e3425834589cb9a7cc9a50c8d4e3bcb2eda02fd9eadc3a90b65",
          "blockNumber": "0x7938461",
          "transactionHash": "0x4b18595f6f34ae6cf4c6289edfa801845ef819cbbad22651bcd3f142d9236274",
          "transactionIndex": "0x1",
          "logIndex": "0x4",
          "removed": false
        },
        {
          "address": "0x621d3e2d530f9b955ab050b1aaa1e7cd98769d05",
          "topics": [
            "0x8be0079c531659141344cd1fd0a4f28419497f9722a3daafe3b4186f6b6457e0",
            "0x0000000000000000000000000000000000000000000000000000000000000000",
            "0x00000000000000000000000083ec68a7a2068f4275beedf5038ed9e2bc00b0c0"
          ],
          "data": "0x",
          "blockHash": "0xbd2a16ce2a377e3425834589cb9a7cc9a50c8d4e3bcb2eda02fd9eadc3a90b65",
          "blockNumber": "0x7938461",
          "transactionHash": "0x4b18595f6f34ae6cf4c6289edfa801845ef819cbbad22651bcd3f142d9236274",
          "transactionIndex": "0x1",
          "logIndex": "0x5",
          "removed": false
        },
        {
          "address": "0x621d3e2d530f9b955ab050b1aaa1e7cd98769d05",
          "topics": [
            "0xc7f505b2f371ae2175ee4913f4499e1f2633a7b5936321eed1cdaeb6115181d2"
          ],
          "data": "0x0000000000000000000000000000000000000000000000000000000000000001",
          "blockHash": "0xbd2a16ce2a377e3425834589cb9a7cc9a50c8d4e3bcb2eda02fd9eadc3a90b65",
          "blockNumber": "0x7938461",
          "transactionHash": "0x4b18595f6f34ae6cf4c6289edfa801845ef819cbbad22651bcd3f142d9236274",
          "transactionIndex": "0x1",
          "logIndex": "0x6",
          "removed": false
        },
        {
          "address": "0x83ec68a7a2068f4275beedf5038ed9e2bc00b0c0",
          "topics": [
            "0x923c07a7269eb05c7b48c4002081d856ef37b3cbc4c2bae12d7493178477e306",
            "0x000000000000000000000000d9f3c86ea4807b68d0384834c921426ccbf58123",
            "0x00000000000000000000000028cce7a93fd0bded36b7d4adc3f22d7a7202c4ab"
          ],
          "data": "0x00000000000000000000000000000000000000000000000000000000680ad080000000000000000000000000851c325787438ef8951bedf0f1ca411f8290c9140000000000000000000000008fa52fdf25e9b66faac8bcda351edb0afeb9fb21000000000000000000000000621d3e2d530f9b955ab050b1aaa1e7cd98769d05",
          "blockHash": "0xbd2a16ce2a377e3425834589cb9a7cc9a50c8d4e3bcb2eda02fd9eadc3a90b65",
          "blockNumber": "0x7938461",
          "transactionHash": "0x4b18595f6f34ae6cf4c6289edfa801845ef819cbbad22651bcd3f142d9236274",
          "transactionIndex": "0x1",
          "logIndex": "0x7",
          "removed": false
        },
        {
          "address": "0x83ec68a7a2068f4275beedf5038ed9e2bc00b0c0",
          "topics": [
            "0xc7f505b2f371ae2175ee4913f4499e1f2633a7b5936321eed1cdaeb6115181d2"
          ],
          "data": "0x0000000000000000000000000000000000000000000000000000000000000001",
          "blockHash": "0xbd2a16ce2a377e3425834589cb9a7cc9a50c8d4e3bcb2eda02fd9eadc3a90b65",
          "blockNumber": "0x7938461",
          "transactionHash": "0x4b18595f6f34ae6cf4c6289edfa801845ef819cbbad22651bcd3f142d9236274",
          "transactionIndex": "0x1",
          "logIndex": "0x8",
          "removed": false
        },
        {
          "address": "0x5cb28bcb9de6c10e85e1cba8a4a59d82c5cd1630",
          "topics": [
            "0x3f53d2c2743b2b162c0aa5d678be4058d3ae2043700424be52c04105df3e2411",
            "0x00000000000000000000000083ec68a7a2068f4275beedf5038ed9e2bc00b0c0",
            "0x000000000000000000000000d9f3c86ea4807b68d0384834c921426ccbf58123",
            "0x00000000000000000000000028cce7a93fd0bded36b7d4adc3f22d7a7202c4ab"
          ],
          "data": "0x",
          "blockHash": "0xbd2a16ce2a377e3425834589cb9a7cc9a50c8d4e3bcb2eda02fd9eadc3a90b65",
          "blockNumber": "0x7938461",
          "transactionHash": "0x4b18595f6f34ae6cf4c6289edfa801845ef819cbbad22651bcd3f142d9236274",
          "transactionIndex": "0x1",
          "logIndex": "0x9",
          "removed": false
        }
      ],
      "logsBloom": "0x00002004080000000102008000000000010000000400000000800000000000004000008000000000000000000000000000000000010000000000010000000000000000000001000000000000000000000001000000000000000000000040000200000000020000000000000000000800000008000000000000040000000000400000000200000000000800000000001200001000000080000000000000000000000000040000000000000000000000000000880000000000000002000020000000000000000000000200000000000000000000000004000000008000000020400000000800000020000000000000000000000000000000000000100000004000",
      "type": "0x2",
      "transactionHash": "0x4b18595f6f34ae6cf4c6289edfa801845ef819cbbad22651bcd3f142d9236274",
      "transactionIndex": "0x1",
      "blockHash": "0xbd2a16ce2a377e3425834589cb9a7cc9a50c8d4e3bcb2eda02fd9eadc3a90b65",
      "blockNumber": "0x7938461",
      "gasUsed": "0x31a529",
      "effectiveGasPrice": "0x5f5e100",
      "from": "0xe355d5d8aa52ef0fbbd037c4a3c5e6fd659cf46b",
      "to": "0x5cb28bcb9de6c10e85e1cba8a4a59d82c5cd1630",
      "contractAddress": null,
      "gasUsedForL1": "0x22e447",
      "l1BlockNumber": "0x76bb9d",
      "timeboosted": false
    },
    {
      "status": "0x1",
      "cumulativeGasUsed": "0xdfc96",
      "logs": [
        {
          "address": "0xa3e778d80d04e304fefd613c2e1675ee056136cf",
          "topics": [
            "0xd8c356880b1eda8f5619cb8b7372231a363c64ed591d2a5ba1ae664c530fd436"
          ],
          "data": "0x00000000000000000000000083ec68a7a2068f4275beedf5038ed9e2bc00b0c00000000000000000000000000000000000000000000000000000000000000001",
          "blockHash": "0x3209877ac88d516cf3e069e55633773b38d9dc7c0f1420718604413b0e69e0a6",
          "blockNumber": "0x793846b",
          "transactionHash": "0xba09fe9129630cd39d92d5fe91e178235e757739b9e0cc181cf19682de4ebafe",
          "transactionIndex": "0x1",
          "logIndex": "0x0",
          "removed": false
        }
      ],
      "logsBloom": "0x00000000000000000000000000000000000000000000000000000000000000000000000000000000000000000008000000000000000000000000000000000000000000000000000000000000000000000000000000000000080000000000000000000000000000000000000000000000000000000000000000000000000000000000000400000000000000000000000000000000000000000000000000000000000000000000000000000000000000100000000000000000000000000000000000000000000000000000000000000000000000000000000000000000000800000000000000001000000000000000000000000000000000000000000000000000",
      "type": "0x2",
      "transactionHash": "0xba09fe9129630cd39d92d5fe91e178235e757739b9e0cc181cf19682de4ebafe",
      "transactionIndex": "0x1",
      "blockHash": "0x3209877ac88d516cf3e069e55633773b38d9dc7c0f1420718604413b0e69e0a6",
      "blockNumber": "0x793846b",
      "gasUsed": "0xdfc96",
      "effectiveGasPrice": "0x5f5e100",
      "from": "0xe355d5d8aa52ef0fbbd037c4a3c5e6fd659cf46b",
      "to": "0xa3e778d80d04e304fefd613c2e1675ee056136cf",
      "contractAddress": null,
      "gasUsedForL1": "0xd2ed3",
      "l1BlockNumber": "0x76bb9d",
      "timeboosted": false
    },
    {
      "status": "0x1",
      "cumulativeGasUsed": "0x1f33e3",
      "logs": [
        {
          "address": "0xa8fbdee984207bbd7a5d601e043d416d0a77dcd9",
          "topics": [
            "0x8be0079c531659141344cd1fd0a4f28419497f9722a3daafe3b4186f6b6457e0",
            "0x0000000000000000000000000000000000000000000000000000000000000000",
            "0x00000000000000000000000005bc1c5c5ede8722aaf89663f50a3148eae69b21"
          ],
          "data": "0x",
          "blockHash": "0x59dcc76e9eb26e7dd49ea8fbb1d27ad246e67dc6479d84d4952f1007883e525f",
          "blockNumber": "0x7938480",
          "transactionHash": "0xcc1ac2c9723bbe57a5bf40bce9c218515975022346f9d1dbefbaee22fba94386",
          "transactionIndex": "0x1",
          "logIndex": "0x0",
          "removed": false
        },
        {
          "address": "0x9c08ea27d20f4d2b725068f6e8a1284f3c2dcb7a",
          "topics": [
            "0x8be0079c531659141344cd1fd0a4f28419497f9722a3daafe3b4186f6b6457e0",
            "0x0000000000000000000000000000000000000000000000000000000000000000",
            "0x000000000000000000000000e355d5d8aa52ef0fbbd037c4a3c5e6fd659cf46b"
          ],
          "data": "0x",
          "blockHash": "0x59dcc76e9eb26e7dd49ea8fbb1d27ad246e67dc6479d84d4952f1007883e525f",
          "blockNumber": "0x7938480",
          "transactionHash": "0xcc1ac2c9723bbe57a5bf40bce9c218515975022346f9d1dbefbaee22fba94386",
          "transactionIndex": "0x1",
          "logIndex": "0x1",
          "removed": false
        }
      ],
      "logsBloom": "0x00000000000000000000000000000000000000000000000000800000000000000000000000000000000000000000000000000000000000000000000000000000000000000000000000004001000000000001000000000000000000000000000000000000020000000000000000000800000000000000000000000000000000400000000000010000000000010000000200000000000000000000000000000000000000000000000000000000000000000000002000000000000000000000000400000000000000000000000000000000000000000000000200000000000020000000000000000020000008000000000000000040000000000000000000004000",
      "type": "0x2",
      "transactionHash": "0xcc1ac2c9723bbe57a5bf40bce9c218515975022346f9d1dbefbaee22fba94386",
      "transactionIndex": "0x1",
      "blockHash": "0x59dcc76e9eb26e7dd49ea8fbb1d27ad246e67dc6479d84d4952f1007883e525f",
      "blockNumber": "0x7938480",
      "gasUsed": "0x1f33e3",
      "effectiveGasPrice": "0x5f5e100",
      "from": "0xe355d5d8aa52ef0fbbd037c4a3c5e6fd659cf46b",
      "to": "0x05bc1c5c5ede8722aaf89663f50a3148eae69b21",
      "contractAddress": null,
      "gasUsedForL1": "0x114449",
      "l1BlockNumber": "0x76bb9d",
      "timeboosted": false
    },
    {
      "status": "0x1",
      "cumulativeGasUsed": "0x13244e",
      "logs": [
        {
          "address": "0x9c08ea27d20f4d2b725068f6e8a1284f3c2dcb7a",
          "topics": [
            "0x0559884fd3a460db3073b7fc896cc77986f16e378210ded43186175bf646fc5f",
            "0x0000000000000000000000000000000000000000000000000000082f79cd9000",
            "0x0000000000000000000000000000000000000000000000000000000000000001"
          ],
          "data": "0x0000000000000000000000000000000000000000000000000000000067bd7286",
          "blockHash": "0x38f220851e786e60487a176984b29c39be41beaddb15c5a0ed9438adf5fb141e",
          "blockNumber": "0x793848e",
          "transactionHash": "0x0a5bdac711dc6e74ee7e2a8f408da67e3a0a3dbfd2b08e9d17ac9487a25ef2e9",
          "transactionIndex": "0x1",
          "logIndex": "0x0",
          "removed": false
        }
      ],
      "logsBloom": "0x00000000000000000000000000000000000000000000000000000000000000000000000000000000000000000000000000000000000200000000000000040000000000000000000000000000100000000000000000040000000000000000000000000000000000000000000000000000000040000000000000000000000000000000000000000000000000010000000000000480100000000000000000000000000000000000000000000000000000000000000000000000000000000000000000000000000000000000000000000000000000000000000000000000000040000000000000000000000008000000000000000040000000000000000000000000",
      "type": "0x2",
      "transactionHash": "0x0a5bdac711dc6e74ee7e2a8f408da67e3a0a3dbfd2b08e9d17ac9487a25ef2e9",
      "transactionIndex": "0x1",
      "blockHash": "0x38f220851e786e60487a176984b29c39be41beaddb15c5a0ed9438adf5fb141e",
      "blockNumber": "0x793848e",
      "gasUsed": "0x13244e",
      "effectiveGasPrice": "0x5f5e100",
      "from": "0xe355d5d8aa52ef0fbbd037c4a3c5e6fd659cf46b",
      "to": "0x9c08ea27d20f4d2b725068f6e8a1284f3c2dcb7a",
      "contractAddress": null,
      "gasUsedForL1": "0x110d43",
      "l1BlockNumber": "0x76bb9d",
      "timeboosted": false
    },
    {
      "status": "0x1",
      "cumulativeGasUsed": "0xb40f3",
      "logs": [
        {
          "address": "0x9c08ea27d20f4d2b725068f6e8a1284f3c2dcb7a",
          "topics": [
            "0x8be0079c531659141344cd1fd0a4f28419497f9722a3daafe3b4186f6b6457e0",
            "0x000000000000000000000000e355d5d8aa52ef0fbbd037c4a3c5e6fd659cf46b",
            "0x00000000000000000000000028a5f8dce17c1760576b442066321f8f9f069731"
          ],
          "data": "0x",
          "blockHash": "0xcf33b0e7b047c098439430e647a5b4a2841a4721c181db864a4abdccdbdbcba9",
          "blockNumber": "0x7938497",
          "transactionHash": "0xf7a6c8ac6221207d2ee375766a5c8b7fc2f36ef502335d93da26d47bf72027ad",
          "transactionIndex": "0x1",
          "logIndex": "0x0",
          "removed": false
        }
      ],
      "logsBloom": "0x00000000000000000000000000000000000000000000000000800000000020000000000000000000000000000000000000000000000000000000010000000000000000000000000000000000000800000001000000000000000000000000000000000000000000000000000000000000000000000000000000000000000000400000000000000000000000010000000200000000000000000000000000000000000000000000000000000000000000000000000000000000000000000000000000000000000000000000000000000000000000000000000000000000000000000000000000000020000008000000000000000040000000000000000000004000",
      "type": "0x2",
      "transactionHash": "0xf7a6c8ac6221207d2ee375766a5c8b7fc2f36ef502335d93da26d47bf72027ad",
      "transactionIndex": "0x1",
      "blockHash": "0xcf33b0e7b047c098439430e647a5b4a2841a4721c181db864a4abdccdbdbcba9",
      "blockNumber": "0x7938497",
      "gasUsed": "0xb40f3",
      "effectiveGasPrice": "0x5f5e100",
      "from": "0xe355d5d8aa52ef0fbbd037c4a3c5e6fd659cf46b",
      "to": "0x9c08ea27d20f4d2b725068f6e8a1284f3c2dcb7a",
      "contractAddress": null,
      "gasUsedForL1": "0xad18e",
      "l1BlockNumber": "0x76bb9d",
      "timeboosted": false
    },
    {
      "status": "0x1",
      "cumulativeGasUsed": "0x12f00d",
      "logs": [
        {
          "address": "0x54505e5e2c23ad39ed06971a5d6410f501641f84",
          "topics": [
            "0x1fde9522e8fecea62ddfd7a16a09129167e338cfdce86f3b8742a7aacaf34535",
            "0x000000000000000000000000a8fbdee984207bbd7a5d601e043d416d0a77dcd9",
            "0x0000000000000000000000009c08ea27d20f4d2b725068f6e8a1284f3c2dcb7a",
            "0x0000000000000000000000009c08ea27d20f4d2b725068f6e8a1284f3c2dcb7a"
          ],
          "data": "0x0000000000000000000000000000000000000000000000000000000001e13380",
          "blockHash": "0xbed61b173ea6611fe0973b8753cd58873f66fa68a080c102acfeb799ef6b6c72",
          "blockNumber": "0x79384b0",
          "transactionHash": "0xf3c9f6096c74d0d3ad59965f20b2f78d719fd50ea2b676f6e876e3b3950ab07a",
          "transactionIndex": "0x1",
          "logIndex": "0x0",
          "removed": false
        }
      ],
      "logsBloom": "0x00000000000000008008000000000000000000000000000000000000000000000000000000000000000000000000000000000000080000000000000000000000000000000000000000000000000000000000000000000000000000000000001000000000000000000000000000000000000000000000000000000000000000000000000000000000000000000000020000000000000002000008000000000000000001000000000000000000000000000000000000000000200000000000000000000000000000004000000000000000000400000000000000000000000000000000000000000000000000000000000000000100000000000000000000000000",
      "type": "0x2",
      "transactionHash": "0xf3c9f6096c74d0d3ad59965f20b2f78d719fd50ea2b676f6e876e3b3950ab07a",
      "transactionIndex": "0x1",
      "blockHash": "0xbed61b173ea6611fe0973b8753cd58873f66fa68a080c102acfeb799ef6b6c72",
      "blockNumber": "0x79384b0",
      "gasUsed": "0x12f00d",
      "effectiveGasPrice": "0x5f5e100",
      "from": "0xe355d5d8aa52ef0fbbd037c4a3c5e6fd659cf46b",
      "to": "0x54505e5e2c23ad39ed06971a5d6410f501641f84",
      "contractAddress": null,
      "gasUsedForL1": "0x11c4ad",
      "l1BlockNumber": "0x76bb9e",
      "timeboosted": false
    },
    {
      "status": "0x1",
      "cumulativeGasUsed": "0x4217aa",
      "logs": [
        {
          "address": "0x954d14908da52d129f1d8ca2f9a4cf51fc1fe937",
          "topics": [
            "0x8be0079c531659141344cd1fd0a4f28419497f9722a3daafe3b4186f6b6457e0",
            "0x0000000000000000000000000000000000000000000000000000000000000000",
            "0x00000000000000000000000005bc1c5c5ede8722aaf89663f50a3148eae69b21"
          ],
          "data": "0x",
          "blockHash": "0x2841bb32f6640e0432475a0a93707565ca808d68d6db279b52e203eb45a8bc89",
          "blockNumber": "0x79384b6",
          "transactionHash": "0xc967e8371ed593d778d8866bd19d262f9e740948b295b3dd68136bcd3c015082",
          "transactionIndex": "0x2",
          "logIndex": "0x3",
          "removed": false
        },
        {
          "address": "0x2a074951f98b0b3b9c4e5ef98e082ed9d0bf5e40",
          "topics": [
            "0x8be0079c531659141344cd1fd0a4f28419497f9722a3daafe3b4186f6b6457e0",
            "0x0000000000000000000000000000000000000000000000000000000000000000",
            "0x000000000000000000000000e355d5d8aa52ef0fbbd037c4a3c5e6fd659cf46b"
          ],
          "data": "0x",
          "blockHash": "0x2841bb32f6640e0432475a0a93707565ca808d68d6db279b52e203eb45a8bc89",
          "blockNumber": "0x79384b6",
          "transactionHash": "0xc967e8371ed593d778d8866bd19d262f9e740948b295b3dd68136bcd3c015082",
          "transactionIndex": "0x2",
          "logIndex": "0x4",
          "removed": false
        }
      ],
      "logsBloom": "0x00000000000000000000000000000000000000000010000000800000000000000000000000000000000000000008000000000000000000000000000000000000000000000000000000000001000000000001000000000000000000000000000200000000020000000000000000000800000000000000000000000000000000400000000000010000000000000000004200000000000040000000000000000400000000000000000000000000000000000000002000000000000000000000000000000000000000000000000000000000000000000000000000000000000020000000000000000020000000000000000000000000000000000000000000004000",
      "type": "0x2",
      "transactionHash": "0xc967e8371ed593d778d8866bd19d262f9e740948b295b3dd68136bcd3c015082",
      "transactionIndex": "0x2",
      "blockHash": "0x2841bb32f6640e0432475a0a93707565ca808d68d6db279b52e203eb45a8bc89",
      "blockNumber": "0x79384b6",
      "gasUsed": "0x1f2167",
      "effectiveGasPrice": "0x5f5e100",
      "from": "0xe355d5d8aa52ef0fbbd037c4a3c5e6fd659cf46b",
      "to": "0x05bc1c5c5ede8722aaf89663f50a3148eae69b21",
      "contractAddress": null,
      "gasUsedForL1": "0x1131f1",
      "l1BlockNumber": "0x76bb9e",
      "timeboosted": false
    },
    {
      "status": "0x1",
      "cumulativeGasUsed": "0x4c8c6f",
      "logs": [
        {
          "address": "0x2a074951f98b0b3b9c4e5ef98e082ed9d0bf5e40",
          "topics": [
            "0x0559884fd3a460db3073b7fc896cc77986f16e378210ded43186175bf646fc5f",
            "0x0000000000000000000000000000000000000000000000000000000005f5e100",
            "0x0000000000000000000000000000000000000000000000000000000000000001"
          ],
          "data": "0x0000000000000000000000000000000000000000000000000000000067bd7286",
          "blockHash": "0x9386d326823e563a54377c568439de6cb93e68a01960cbb8ae22605022f9f57f",
          "blockNumber": "0x79384bb",
          "transactionHash": "0xcef6167f8988f7f931d4b9be4f6b49d52415d99d63a32634b31692913e01c708",
          "transactionIndex": "0x2",
          "logIndex": "0x2",
          "removed": false
        }
      ],
      "logsBloom": "0x00000000000000000000000000000000000000000010000000000000000000000000000000000000000000000008000000000000080200000000000000040000000000000000000000000000000000000000000000040000000000000000000200000000000000000000000000000000000000000000000000000000000800000000000000000000000000000000000000000480000000000000000000000020000000000000000000000000000000000000000000000000000000000000000000000000000000000000000000000000000000000000000000000000000040000000000000000000000000000000000000000000000000000000000000000000",
      "type": "0x2",
      "transactionHash": "0xcef6167f8988f7f931d4b9be4f6b49d52415d99d63a32634b31692913e01c708",
      "transactionIndex": "0x2",
      "blockHash": "0x9386d326823e563a54377c568439de6cb93e68a01960cbb8ae22605022f9f57f",
      "blockNumber": "0x79384bb",
      "gasUsed": "0x12b629",
      "effectiveGasPrice": "0x5f5e100",
      "from": "0xe355d5d8aa52ef0fbbd037c4a3c5e6fd659cf46b",
      "to": "0x2a074951f98b0b3b9c4e5ef98e082ed9d0bf5e40",
      "contractAddress": null,
      "gasUsedForL1": "0x109f36",
      "l1BlockNumber": "0x76bb9e",
      "timeboosted": false
    },
    {
      "status": "0x1",
      "cumulativeGasUsed": "0xb40f3",
      "logs": [
        {
          "address": "0x2a074951f98b0b3b9c4e5ef98e082ed9d0bf5e40",
          "topics": [
            "0x8be0079c531659141344cd1fd0a4f28419497f9722a3daafe3b4186f6b6457e0",
            "0x000000000000000000000000e355d5d8aa52ef0fbbd037c4a3c5e6fd659cf46b",
            "0x00000000000000000000000028a5f8dce17c1760576b442066321f8f9f069731"
          ],
          "data": "0x",
          "blockHash": "0x80c31e9f71182e2c4ac85bf06f31bebae325b89e6f626069bf697f50e5d6a089",
          "blockNumber": "0x79384c0",
          "transactionHash": "0x75cbd1158890db98580c6a3b3e4cdee5ef08a13fe43059a93437482dfaddc863",
          "transactionIndex": "0x1",
          "logIndex": "0x0",
          "removed": false
        }
      ],
      "logsBloom": "0x00000000000000000000000000000000000000000010000000800000000020000000000000000000000000000008000000000000000000000000010000000000000000000000000000000000000800000001000000000000000000000000000200000000000000000000000000000000000000000000000000000000000000400000000000000000000000000000000200000000000000000000000000000000000000000000000000000000000000000000000000000000000000000000000000000000000000000000000000000000000000000000000000000000000000000000000000000020000000000000000000000000000000000000000000004000",
      "type": "0x2",
      "transactionHash": "0x75cbd1158890db98580c6a3b3e4cdee5ef08a13fe43059a93437482dfaddc863",
      "transactionIndex": "0x1",
      "blockHash": "0x80c31e9f71182e2c4ac85bf06f31bebae325b89e6f626069bf697f50e5d6a089",
      "blockNumber": "0x79384c0",
      "gasUsed": "0xb40f3",
      "effectiveGasPrice": "0x5f5e100",
      "from": "0xe355d5d8aa52ef0fbbd037c4a3c5e6fd659cf46b",
      "to": "0x2a074951f98b0b3b9c4e5ef98e082ed9d0bf5e40",
      "contractAddress": null,
      "gasUsedForL1": "0xad18e",
      "l1BlockNumber": "0x76bb9e",
      "timeboosted": false
    },
    {
      "status": "0x1",
      "cumulativeGasUsed": "0x12f00d",
      "logs": [
        {
          "address": "0x54505e5e2c23ad39ed06971a5d6410f501641f84",
          "topics": [
            "0x1fde9522e8fecea62ddfd7a16a09129167e338cfdce86f3b8742a7aacaf34535",
            "0x000000000000000000000000954d14908da52d129f1d8ca2f9a4cf51fc1fe937",
            "0x0000000000000000000000002a074951f98b0b3b9c4e5ef98e082ed9d0bf5e40",
            "0x0000000000000000000000002a074951f98b0b3b9c4e5ef98e082ed9d0bf5e40"
          ],
          "data": "0x0000000000000000000000000000000000000000000000000000000001e13380",
          "blockHash": "0xc9e027d2f8c9d4d5b242655edf14a13f99e0b2eed00a2a2e20071ef4591c7cf0",
          "blockNumber": "0x79384c5",
          "transactionHash": "0x2c296bfabe7f546081773ecc0a9f24229ad499bcaf015e7dd90135d1a2f2e25d",
          "transactionIndex": "0x1",
          "logIndex": "0x0",
          "removed": false
        }
      ],
      "logsBloom": "0x00000000000000008000000000000000000000000000000000000000000000000000000000000000400000000000000000000000000000000000000000000000000000000000000000000000000000000000000000000000000000020000000000000000000000000000000000000200000000000000000000000000000000000000000000000000000000000000020000000000000000000040000000000000000001000000000000000000000000000000000000000000000000004000000000000002000000004000000000000000000400000000000000000000000000000000000000000000000000000000000000000100000000000000000000000000",
      "type": "0x2",
      "transactionHash": "0x2c296bfabe7f546081773ecc0a9f24229ad499bcaf015e7dd90135d1a2f2e25d",
      "transactionIndex": "0x1",
      "blockHash": "0xc9e027d2f8c9d4d5b242655edf14a13f99e0b2eed00a2a2e20071ef4591c7cf0",
      "blockNumber": "0x79384c5",
      "gasUsed": "0x12f00d",
      "effectiveGasPrice": "0x5f5e100",
      "from": "0xe355d5d8aa52ef0fbbd037c4a3c5e6fd659cf46b",
      "to": "0x54505e5e2c23ad39ed06971a5d6410f501641f84",
      "contractAddress": null,
      "gasUsedForL1": "0x11c4ad",
      "l1BlockNumber": "0x76bb9e",
      "timeboosted": false
    },
    {
      "status": "0x1",
      "cumulativeGasUsed": "0x316df3",
      "logs": [
        {
          "address": "0xbe8127428e1b402fad7f6a19a19517ca24129502",
          "topics": [
            "0x8be0079c531659141344cd1fd0a4f28419497f9722a3daafe3b4186f6b6457e0",
            "0x0000000000000000000000000000000000000000000000000000000000000000",
            "0x000000000000000000000000e355d5d8aa52ef0fbbd037c4a3c5e6fd659cf46b"
          ],
          "data": "0x",
          "blockHash": "0x5790d0283aa91f46a08629a3ce18884cb055d3f6b6b04cddf0867bcb92bc4f3e",
          "blockNumber": "0x79384ca",
          "transactionHash": "0xc712fd15665103d4ed194a1c7bf7b0c9081aa8ecb2cca5cbfcf47e2a62dd4a11",
          "transactionIndex": "0x1",
          "logIndex": "0x0",
          "removed": false
        },
        {
          "address": "0xb76bc10e502a93848e9b11afa7774d0a9d40b339",
          "topics": [
            "0x8be0079c531659141344cd1fd0a4f28419497f9722a3daafe3b4186f6b6457e0",
            "0x0000000000000000000000000000000000000000000000000000000000000000",
            "0x000000000000000000000000be8127428e1b402fad7f6a19a19517ca24129502"
          ],
          "data": "0x",
          "blockHash": "0x5790d0283aa91f46a08629a3ce18884cb055d3f6b6b04cddf0867bcb92bc4f3e",
          "blockNumber": "0x79384ca",
          "transactionHash": "0xc712fd15665103d4ed194a1c7bf7b0c9081aa8ecb2cca5cbfcf47e2a62dd4a11",
          "transactionIndex": "0x1",
          "logIndex": "0x1",
          "removed": false
        },
        {
          "address": "0xb76bc10e502a93848e9b11afa7774d0a9d40b339",
          "topics": [
            "0xc7f505b2f371ae2175ee4913f4499e1f2633a7b5936321eed1cdaeb6115181d2"
          ],
          "data": "0x0000000000000000000000000000000000000000000000000000000000000001",
          "blockHash": "0x5790d0283aa91f46a08629a3ce18884cb055d3f6b6b04cddf0867bcb92bc4f3e",
          "blockNumber": "0x79384ca",
          "transactionHash": "0xc712fd15665103d4ed194a1c7bf7b0c9081aa8ecb2cca5cbfcf47e2a62dd4a11",
          "transactionIndex": "0x1",
          "logIndex": "0x2",
          "removed": false
        },
        {
          "address": "0xd653b9eadfe3959ae2908258353106a3304a2e5f",
          "topics": [
            "0x8be0079c531659141344cd1fd0a4f28419497f9722a3daafe3b4186f6b6457e0",
            "0x0000000000000000000000000000000000000000000000000000000000000000",
            "0x000000000000000000000000be8127428e1b402fad7f6a19a19517ca24129502"
          ],
          "data": "0x",
          "blockHash": "0x5790d0283aa91f46a08629a3ce18884cb055d3f6b6b04cddf0867bcb92bc4f3e",
          "blockNumber": "0x79384ca",
          "transactionHash": "0xc712fd15665103d4ed194a1c7bf7b0c9081aa8ecb2cca5cbfcf47e2a62dd4a11",
          "transactionIndex": "0x1",
          "logIndex": "0x3",
          "removed": false
        },
        {
          "address": "0xd653b9eadfe3959ae2908258353106a3304a2e5f",
          "topics": [
            "0xc7f505b2f371ae2175ee4913f4499e1f2633a7b5936321eed1cdaeb6115181d2"
          ],
          "data": "0x0000000000000000000000000000000000000000000000000000000000000001",
          "blockHash": "0x5790d0283aa91f46a08629a3ce18884cb055d3f6b6b04cddf0867bcb92bc4f3e",
          "blockNumber": "0x79384ca",
          "transactionHash": "0xc712fd15665103d4ed194a1c7bf7b0c9081aa8ecb2cca5cbfcf47e2a62dd4a11",
          "transactionIndex": "0x1",
          "logIndex": "0x4",
          "removed": false
        },
        {
          "address": "0x54140b7e6bad58cdeffba14041075e67511bade0",
          "topics": [
            "0x8be0079c531659141344cd1fd0a4f28419497f9722a3daafe3b4186f6b6457e0",
            "0x0000000000000000000000000000000000000000000000000000000000000000",
            "0x000000000000000000000000be8127428e1b402fad7f6a19a19517ca24129502"
          ],
          "data": "0x",
          "blockHash": "0x5790d0283aa91f46a08629a3ce18884cb055d3f6b6b04cddf0867bcb92bc4f3e",
          "blockNumber": "0x79384ca",
          "transactionHash": "0xc712fd15665103d4ed194a1c7bf7b0c9081aa8ecb2cca5cbfcf47e2a62dd4a11",
          "transactionIndex": "0x1",
          "logIndex": "0x5",
          "removed": false
        },
        {
          "address": "0x54140b7e6bad58cdeffba14041075e67511bade0",
          "topics": [
            "0xc7f505b2f371ae2175ee4913f4499e1f2633a7b5936321eed1cdaeb6115181d2"
          ],
          "data": "0x0000000000000000000000000000000000000000000000000000000000000001",
          "blockHash": "0x5790d0283aa91f46a08629a3ce18884cb055d3f6b6b04cddf0867bcb92bc4f3e",
          "blockNumber": "0x79384ca",
          "transactionHash": "0xc712fd15665103d4ed194a1c7bf7b0c9081aa8ecb2cca5cbfcf47e2a62dd4a11",
          "transactionIndex": "0x1",
          "logIndex": "0x6",
          "removed": false
        },
        {
          "address": "0xbe8127428e1b402fad7f6a19a19517ca24129502",
          "topics": [
            "0x923c07a7269eb05c7b48c4002081d856ef37b3cbc4c2bae12d7493178477e306",
            "0x000000000000000000000000a8fbdee984207bbd7a5d601e043d416d0a77dcd9",
            "0x000000000000000000000000954d14908da52d129f1d8ca2f9a4cf51fc1fe937"
          ],
          "data": "0x00000000000000000000000000000000000000000000000000000000680ad080000000000000000000000000b76bc10e502a93848e9b11afa7774d0a9d40b339000000000000000000000000d653b9eadfe3959ae2908258353106a3304a2e5f00000000000000000000000054140b7e6bad58cdeffba14041075e67511bade0",
          "blockHash": "0x5790d0283aa91f46a08629a3ce18884cb055d3f6b6b04cddf0867bcb92bc4f3e",
          "blockNumber": "0x79384ca",
          "transactionHash": "0xc712fd15665103d4ed194a1c7bf7b0c9081aa8ecb2cca5cbfcf47e2a62dd4a11",
          "transactionIndex": "0x1",
          "logIndex": "0x7",
          "removed": false
        },
        {
          "address": "0xbe8127428e1b402fad7f6a19a19517ca24129502",
          "topics": [
            "0xc7f505b2f371ae2175ee4913f4499e1f2633a7b5936321eed1cdaeb6115181d2"
          ],
          "data": "0x0000000000000000000000000000000000000000000000000000000000000001",
          "blockHash": "0x5790d0283aa91f46a08629a3ce18884cb055d3f6b6b04cddf0867bcb92bc4f3e",
          "blockNumber": "0x79384ca",
          "transactionHash": "0xc712fd15665103d4ed194a1c7bf7b0c9081aa8ecb2cca5cbfcf47e2a62dd4a11",
          "transactionIndex": "0x1",
          "logIndex": "0x8",
          "removed": false
        },
        {
          "address": "0x5cb28bcb9de6c10e85e1cba8a4a59d82c5cd1630",
          "topics": [
            "0x3f53d2c2743b2b162c0aa5d678be4058d3ae2043700424be52c04105df3e2411",
            "0x000000000000000000000000be8127428e1b402fad7f6a19a19517ca24129502",
            "0x000000000000000000000000a8fbdee984207bbd7a5d601e043d416d0a77dcd9",
            "0x000000000000000000000000954d14908da52d129f1d8ca2f9a4cf51fc1fe937"
          ],
          "data": "0x",
          "blockHash": "0x5790d0283aa91f46a08629a3ce18884cb055d3f6b6b04cddf0867bcb92bc4f3e",
          "blockNumber": "0x79384ca",
          "transactionHash": "0xc712fd15665103d4ed194a1c7bf7b0c9081aa8ecb2cca5cbfcf47e2a62dd4a11",
          "transactionIndex": "0x1",
          "logIndex": "0x9",
          "removed": false
        }
      ],
      "logsBloom": "0x00000004000040000108008000000000000000000000000000800000000000000000028000000000000000080000000000000000080000010000000000000000000200000000000000000002000400010001000000000000000000000000001200000000020000000000000000000e00000008000000000000040000000000400000000000000000000800000000000200000000002080000040000002000000002000040000000000000000000000000000000000000000000000004000000000000001000000000200000000000000200000000004000000000000000020000000000000000020000000000100000000000000000000000000000000004000",
      "type": "0x2",
      "transactionHash": "0xc712fd15665103d4ed194a1c7bf7b0c9081aa8ecb2cca5cbfcf47e2a62dd4a11",
      "transactionIndex": "0x1",
      "blockHash": "0x5790d0283aa91f46a08629a3ce18884cb055d3f6b6b04cddf0867bcb92bc4f3e",
      "blockNumber": "0x79384ca",
      "gasUsed": "0x316df3",
      "effectiveGasPrice": "0x5f5e100",
      "from": "0xe355d5d8aa52ef0fbbd037c4a3c5e6fd659cf46b",
      "to": "0x5cb28bcb9de6c10e85e1cba8a4a59d82c5cd1630",
      "contractAddress": null,
      "gasUsedForL1": "0x22ad41",
      "l1BlockNumber": "0x76bb9e",
      "timeboosted": false
    },
    {
      "status": "0x1",
      "cumulativeGasUsed": "0xdfca2",
      "logs": [
        {
          "address": "0xa3e778d80d04e304fefd613c2e1675ee056136cf",
          "topics": [
            "0xd8c356880b1eda8f5619cb8b7372231a363c64ed591d2a5ba1ae664c530fd436"
          ],
          "data": "0x000000000000000000000000be8127428e1b402fad7f6a19a19517ca241295020000000000000000000000000000000000000000000000000000000000000001",
          "blockHash": "0xe8c40e037a844d9f4b3c3faa8a0f4a5e8eb9ed1d9af72ea8e31e0804bff083c3",
          "blockNumber": "0x79384d0",
          "transactionHash": "0xd68f7b48a8926d2aa3af5771fe20fc23fcf6c6eb121c4e569d446042d5c7dc50",
          "transactionIndex": "0x1",
          "logIndex": "0x0",
          "removed": false
        }
      ],
      "logsBloom": "0x00000000000000000000000000000000000000000000000000000000000000000000000000000000000000000008000000000000000000000000000000000000000000000000000000000000000000000000000000000000080000000000000000000000000000000000000000000000000000000000000000000000000000000000000400000000000000000000000000000000000000000000000000000000000000000000000000000000000000100000000000000000000000000000000000000000000000000000000000000000000000000000000000000000000800000000000000001000000000000000000000000000000000000000000000000000",
      "type": "0x2",
      "transactionHash": "0xd68f7b48a8926d2aa3af5771fe20fc23fcf6c6eb121c4e569d446042d5c7dc50",
      "transactionIndex": "0x1",
      "blockHash": "0xe8c40e037a844d9f4b3c3faa8a0f4a5e8eb9ed1d9af72ea8e31e0804bff083c3",
      "blockNumber": "0x79384d0",
      "gasUsed": "0xdfca2",
      "effectiveGasPrice": "0x5f5e100",
      "from": "0xe355d5d8aa52ef0fbbd037c4a3c5e6fd659cf46b",
      "to": "0xa3e778d80d04e304fefd613c2e1675ee056136cf",
      "contractAddress": null,
      "gasUsedForL1": "0xd2ed3",
      "l1BlockNumber": "0x76bb9e",
      "timeboosted": false
    }
  ],
  "libraries": [],
  "pending": [],
  "returns": {},
  "timestamp": 1740468981,
  "chain": 421614,
  "commit": "63ab346"
}