{
  "transactions": [
    {
      "hash": "0xe0063ceb1a5fc2cfcaa2cb605fe6f62f62c1f06cebc2af49e7ab94b33adc414e",
      "transactionType": "CALL",
      "contractName": "TermMaxVaultFactoryV2",
      "contractAddress": "0x5b8b26a6734b5eabdbe6c5a19580ab2d0424f027",
      "function": "createVault((address,address,address,uint256,address,address,uint256,string,string,uint64,uint64),uint256)",
      "arguments": [
        "(0xDA4aAF85Bb924B53DCc2DFFa9e1A9C2Ef97aCFDF, 0x67460001C991708c6A6BAFc511a60c2E414D7Ecf, 0xf1a9676B03Dd3B2066214D2aD8B4B59ED6642C53, 86400, 0xA0b86991c6218b36c1d19D4a2e9Eb0cE3606eB48, 0x9bDeFe80D8cbD3cEda200B8ceA4B2c53Fc64D5F0, 100000000000000, InfiniFi USDC Vault, TMX-InfiniFi-USDC, 10000000, 0)",
        "0"
      ],
      "transaction": {
        "from": "0x56e3665038c5f0b56cc7d81ac66c86521274b251",
        "to": "0x5b8b26a6734b5eabdbe6c5a19580ab2d0424f027",
        "gas": "0x8e1b3",
        "value": "0x0",
        "input": "0x8f9f50ae00000000000000000000000000000000000000000000000000000000000000400000000000000000000000000000000000000000000000000000000000000000000000000000000000000000da4aaf85bb924b53dcc2dffa9e1a9c2ef97acfdf00000000000000000000000067460001c991708c6a6bafc511a60c2e414d7ecf000000000000000000000000f1a9676b03dd3b2066214d2ad8b4b59ed6642c530000000000000000000000000000000000000000000000000000000000015180000000000000000000000000a0b86991c6218b36c1d19d4a2e9eb0ce3606eb480000000000000000000000009bdefe80d8cbd3ceda200b8cea4b2c53fc64d5f000000000000000000000000000000000000000000000000000005af3107a4000000000000000000000000000000000000000000000000000000000000000016000000000000000000000000000000000000000000000000000000000000001a0000000000000000000000000000000000000000000000000000000000098968000000000000000000000000000000000000000000000000000000000000000000000000000000000000000000000000000000000000000000000000000000013496e66696e6946692055534443205661756c74000000000000000000000000000000000000000000000000000000000000000000000000000000000000000011544d582d496e66696e6946692d55534443000000000000000000000000000000",
        "nonce": "0x501",
        "chainId": "0x1"
      },
      "additionalContracts": [
        {
          "transactionType": "CREATE2",
          "address": "0xfd2ddb1f5989491967c7598da1d3d65324522339",
          "initCode": "0x3d602d80600a3d3981f3363d3d373d3d3d363d739f1882ffbb007dd275c931ac302cfa97a4ceaa1d5af43d82803e903d91602b57fd5bf3"
        }
      ],
      "isFixedGasLimit": false
    },
    {
      "hash": "0x378b327fff35d171eccb6baa50ddd64876fea1c28e56b3026682058c40019226",
      "transactionType": "CALL",
      "contractName": "TermMaxVaultFactoryV2",
      "contractAddress": "0x5b8b26a6734b5eabdbe6c5a19580ab2d0424f027",
      "function": "createVault((address,address,address,uint256,address,address,uint256,string,string,uint64,uint64),uint256)",
      "arguments": [
        "(0xDA4aAF85Bb924B53DCc2DFFa9e1A9C2Ef97aCFDF, 0x92FB952A80A2395C9eb05281cB116D3Bd391A799, 0x37a2fB6dDA20EEF30224f90686643EefC32a4bea, 86400, 0xA0b86991c6218b36c1d19D4a2e9Eb0cE3606eB48, 0x9bDeFe80D8cbD3cEda200B8ceA4B2c53Fc64D5F0, 10000000000000, Prime Yield, TMX-HCL-USDC, 10000000, 0)",
        "0"
      ],
      "transaction": {
        "from": "0x56e3665038c5f0b56cc7d81ac66c86521274b251",
        "to": "0x5b8b26a6734b5eabdbe6c5a19580ab2d0424f027",
        "gas": "0x8e0e0",
        "value": "0x0",
        "input": "0x8f9f50ae00000000000000000000000000000000000000000000000000000000000000400000000000000000000000000000000000000000000000000000000000000000000000000000000000000000da4aaf85bb924b53dcc2dffa9e1a9c2ef97acfdf00000000000000000000000092fb952a80a2395c9eb05281cb116d3bd391a79900000000000000000000000037a2fb6dda20eef30224f90686643eefc32a4bea0000000000000000000000000000000000000000000000000000000000015180000000000000000000000000a0b86991c6218b36c1d19d4a2e9eb0ce3606eb480000000000000000000000009bdefe80d8cbd3ceda200b8cea4b2c53fc64d5f0000000000000000000000000000000000000000000000000000009184e72a000000000000000000000000000000000000000000000000000000000000000016000000000000000000000000000000000000000000000000000000000000001a000000000000000000000000000000000000000000000000000000000009896800000000000000000000000000000000000000000000000000000000000000000000000000000000000000000000000000000000000000000000000000000000b5072696d65205969656c64000000000000000000000000000000000000000000000000000000000000000000000000000000000000000000000000000000000c544d582d48434c2d555344430000000000000000000000000000000000000000",
        "nonce": "0x502",
        "chainId": "0x1"
      },
      "additionalContracts": [
        {
          "transactionType": "CREATE2",
          "address": "0x17337c22cf8b7c1b6fc86f0ef7fcf05a7fa93f48",
          "initCode": "0x3d602d80600a3d3981f3363d3d373d3d3d363d739f1882ffbb007dd275c931ac302cfa97a4ceaa1d5af43d82803e903d91602b57fd5bf3"
        }
      ],
      "isFixedGasLimit": false
    },
    {
      "hash": "0x201ce068b96ac7e590d0e5b3bf26c19fe38dce549cad107d94524718f7efc0ff",
      "transactionType": "CALL",
      "contractName": "ERC1967Proxy",
      "contractAddress": "0xda4aaf85bb924b53dcc2dffa9e1a9c2ef97acfdf",
      "function": null,
      "arguments": null,
      "transaction": {
        "from": "0x56e3665038c5f0b56cc7d81ac66c86521274b251",
        "to": "0xda4aaf85bb924b53dcc2dffa9e1a9c2ef97acfdf",
        "gas": "0x1fdf5",
        "value": "0x0",
        "input": "0x34ae51fe000000000000000000000000b84f2a39b271d92586c61232a73ee1f7adfbf3170000000000000000000000000000000000000000000000000000000000000080000000000000000000000000000000000000000000000000000000000000000100000000000000000000000000000000000000000000000000000000000000010000000000000000000000000000000000000000000000000000000000000002000000000000000000000000fd2ddb1f5989491967c7598da1d3d6532452233900000000000000000000000017337c22cf8b7c1b6fc86f0ef7fcf05a7fa93f48",
        "nonce": "0x503",
        "chainId": "0x1"
      },
      "additionalContracts": [],
      "isFixedGasLimit": false
    }
  ],
  "receipts": [
    {
      "status": "0x1",
      "cumulativeGasUsed": "0x11a54ed",
      "logs": [
        {
          "address": "0xfd2ddb1f5989491967c7598da1d3d65324522339",
          "topics": [
            "0x8be0079c531659141344cd1fd0a4f28419497f9722a3daafe3b4186f6b6457e0",
            "0x0000000000000000000000000000000000000000000000000000000000000000",
            "0x000000000000000000000000da4aaf85bb924b53dcc2dffa9e1a9c2ef97acfdf"
          ],
          "data": "0x",
          "blockHash": "0x96ce5f38f668a98a6e170b9073141c2572ecb9bbe517edb3e9cea11518fbd9dd",
          "blockNumber": "0x166d51a",
          "blockTimestamp": "0x68e349ff",
          "transactionHash": "0xe0063ceb1a5fc2cfcaa2cb605fe6f62f62c1f06cebc2af49e7ab94b33adc414e",
          "transactionIndex": "0x87",
          "logIndex": "0x24c",
          "removed": false
        },
        {
          "address": "0xfd2ddb1f5989491967c7598da1d3d65324522339",
          "topics": [
            "0x20affe2401825617c69366f8c3a3493d9822d1021d0b3023c4e77ea5b3d0fbc5",
            "0x0000000000000000000000005b8b26a6734b5eabdbe6c5a19580ab2d0424f027"
          ],
          "data": "0x0000000000000000000000000000000000000000000000000000000000989680",
          "blockHash": "0x96ce5f38f668a98a6e170b9073141c2572ecb9bbe517edb3e9cea11518fbd9dd",
          "blockNumber": "0x166d51a",
          "blockTimestamp": "0x68e349ff",
          "transactionHash": "0xe0063ceb1a5fc2cfcaa2cb605fe6f62f62c1f06cebc2af49e7ab94b33adc414e",
          "transactionIndex": "0x87",
          "logIndex": "0x24d",
          "removed": false
        },
        {
          "address": "0xfd2ddb1f5989491967c7598da1d3d65324522339",
          "topics": [
            "0xd28e9b90ee9b37c5936ff84392d71f29ff18117d7e76bcee60615262a90a3f75",
            "0x0000000000000000000000005b8b26a6734b5eabdbe6c5a19580ab2d0424f027"
          ],
          "data": "0x0000000000000000000000000000000000000000000000000000000000015180",
          "blockHash": "0x96ce5f38f668a98a6e170b9073141c2572ecb9bbe517edb3e9cea11518fbd9dd",
          "blockNumber": "0x166d51a",
          "blockTimestamp": "0x68e349ff",
          "transactionHash": "0xe0063ceb1a5fc2cfcaa2cb605fe6f62f62c1f06cebc2af49e7ab94b33adc414e",
          "transactionIndex": "0x87",
          "logIndex": "0x24e",
          "removed": false
        },
        {
          "address": "0xfd2ddb1f5989491967c7598da1d3d65324522339",
          "topics": [
            "0x0cdc8c1df674ca6c4f86f6d47b02a15083c5d3bf098ea38f02c2762bad0afad2",
            "0x0000000000000000000000005b8b26a6734b5eabdbe6c5a19580ab2d0424f027"
          ],
          "data": "0x0000000000000000000000000000000000000000000000000000000000000000",
          "blockHash": "0x96ce5f38f668a98a6e170b9073141c2572ecb9bbe517edb3e9cea11518fbd9dd",
          "blockNumber": "0x166d51a",
          "blockTimestamp": "0x68e349ff",
          "transactionHash": "0xe0063ceb1a5fc2cfcaa2cb605fe6f62f62c1f06cebc2af49e7ab94b33adc414e",
          "transactionIndex": "0x87",
          "logIndex": "0x24f",
          "removed": false
        },
        {
          "address": "0xfd2ddb1f5989491967c7598da1d3d65324522339",
          "topics": [
            "0xcb11cc8aade2f5a556749d1b2380d108a16fac3431e6a5d5ce12ef9de0bd76e3",
            "0x0000000000000000000000005b8b26a6734b5eabdbe6c5a19580ab2d0424f027"
          ],
          "data": "0x000000000000000000000000f1a9676b03dd3b2066214d2ad8b4b59ed6642c53",
          "blockHash": "0x96ce5f38f668a98a6e170b9073141c2572ecb9bbe517edb3e9cea11518fbd9dd",
          "blockNumber": "0x166d51a",
          "blockTimestamp": "0x68e349ff",
          "transactionHash": "0xe0063ceb1a5fc2cfcaa2cb605fe6f62f62c1f06cebc2af49e7ab94b33adc414e",
          "transactionIndex": "0x87",
          "logIndex": "0x250",
          "removed": false
        },
        {
          "address": "0xfd2ddb1f5989491967c7598da1d3d65324522339",
          "topics": [
            "0x51fa58fd85e72d533eb3933ef4dd0bb83a9614f46e076ffa025b0dcbb8dff315",
            "0x0000000000000000000000005b8b26a6734b5eabdbe6c5a19580ab2d0424f027"
          ],
          "data": "0x00000000000000000000000000000000000000000000000000005af3107a4000",
          "blockHash": "0x96ce5f38f668a98a6e170b9073141c2572ecb9bbe517edb3e9cea11518fbd9dd",
          "blockNumber": "0x166d51a",
          "blockTimestamp": "0x68e349ff",
          "transactionHash": "0xe0063ceb1a5fc2cfcaa2cb605fe6f62f62c1f06cebc2af49e7ab94b33adc414e",
          "transactionIndex": "0x87",
          "logIndex": "0x251",
          "removed": false
        },
        {
          "address": "0xfd2ddb1f5989491967c7598da1d3d65324522339",
          "topics": [
            "0xbd0a63c12948fbc9194a5839019f99c9d71db924e5c70018265bc778b8f1a506"
          ],
          "data": "0x00000000000000000000000067460001c991708c6a6bafc511a60c2e414d7ecf",
          "blockHash": "0x96ce5f38f668a98a6e170b9073141c2572ecb9bbe517edb3e9cea11518fbd9dd",
          "blockNumber": "0x166d51a",
          "blockTimestamp": "0x68e349ff",
          "transactionHash": "0xe0063ceb1a5fc2cfcaa2cb605fe6f62f62c1f06cebc2af49e7ab94b33adc414e",
          "transactionIndex": "0x87",
          "logIndex": "0x252",
          "removed": false
        },
        {
          "address": "0xfd2ddb1f5989491967c7598da1d3d65324522339",
          "topics": [
            "0x390ace337562623e4cf938891cfa7e80b7b2e6ff395963aba93e537ce67e842c",
            "0x0000000000000000000000005b8b26a6734b5eabdbe6c5a19580ab2d0424f027",
            "0x0000000000000000000000009bdefe80d8cbd3ceda200b8cea4b2c53fc64d5f0"
          ],
          "data": "0x",
          "blockHash": "0x96ce5f38f668a98a6e170b9073141c2572ecb9bbe517edb3e9cea11518fbd9dd",
          "blockNumber": "0x166d51a",
          "blockTimestamp": "0x68e349ff",
          "transactionHash": "0xe0063ceb1a5fc2cfcaa2cb605fe6f62f62c1f06cebc2af49e7ab94b33adc414e",
          "transactionIndex": "0x87",
          "logIndex": "0x253",
          "removed": false
        },
        {
          "address": "0xfd2ddb1f5989491967c7598da1d3d65324522339",
          "topics": [
            "0xc7f505b2f371ae2175ee4913f4499e1f2633a7b5936321eed1cdaeb6115181d2"
          ],
          "data": "0x0000000000000000000000000000000000000000000000000000000000000001",
          "blockHash": "0x96ce5f38f668a98a6e170b9073141c2572ecb9bbe517edb3e9cea11518fbd9dd",
          "blockNumber": "0x166d51a",
          "blockTimestamp": "0x68e349ff",
          "transactionHash": "0xe0063ceb1a5fc2cfcaa2cb605fe6f62f62c1f06cebc2af49e7ab94b33adc414e",
          "transactionIndex": "0x87",
          "logIndex": "0x254",
          "removed": false
        },
        {
          "address": "0x5b8b26a6734b5eabdbe6c5a19580ab2d0424f027",
          "topics": [
            "0xbec73c77ba89c2c3ae92a9b6b0fd32d6702691976f3c31962a992499b08549e4",
            "0x000000000000000000000000fd2ddb1f5989491967c7598da1d3d65324522339",
            "0x00000000000000000000000056e3665038c5f0b56cc7d81ac66c86521274b251"
          ],
          "data": "0x0000000000000000000000000000000000000000000000000000000000000020000000000000000000000000da4aaf85bb924b53dcc2dffa9e1a9c2ef97acfdf00000000000000000000000067460001c991708c6a6bafc511a60c2e414d7ecf000000000000000000000000f1a9676b03dd3b2066214d2ad8b4b59ed6642c530000000000000000000000000000000000000000000000000000000000015180000000000000000000000000a0b86991c6218b36c1d19d4a2e9eb0ce3606eb480000000000000000000000009bdefe80d8cbd3ceda200b8cea4b2c53fc64d5f000000000000000000000000000000000000000000000000000005af3107a4000000000000000000000000000000000000000000000000000000000000000016000000000000000000000000000000000000000000000000000000000000001a0000000000000000000000000000000000000000000000000000000000098968000000000000000000000000000000000000000000000000000000000000000000000000000000000000000000000000000000000000000000000000000000013496e66696e6946692055534443205661756c74000000000000000000000000000000000000000000000000000000000000000000000000000000000000000011544d582d496e66696e6946692d55534443000000000000000000000000000000",
          "blockHash": "0x96ce5f38f668a98a6e170b9073141c2572ecb9bbe517edb3e9cea11518fbd9dd",
          "blockNumber": "0x166d51a",
          "blockTimestamp": "0x68e349ff",
          "transactionHash": "0xe0063ceb1a5fc2cfcaa2cb605fe6f62f62c1f06cebc2af49e7ab94b33adc414e",
          "transactionIndex": "0x87",
          "logIndex": "0x255",
          "removed": false
        }
      ],
      "logsBloom": "0x00000002000000000200000000000040800000000000000800880000000200000000000000000000000800000000000000010000000000000000004000000000000800080000000000000008000000000001000000000000000000000000000000000000020000000000400000010800800000800000000000000000000000c20000000001000000000800800000000000200000000080040000000002000004000000000000000000010000800000028000000000000000000000020000004000002020000004000000000000004000000004000004000000000000000020100000000000000000208000002000000000000200000000400000102000000000",
      "type": "0x2",
      "transactionHash": "0xe0063ceb1a5fc2cfcaa2cb605fe6f62f62c1f06cebc2af49e7ab94b33adc414e",
      "transactionIndex": "0x87",
      "blockHash": "0x96ce5f38f668a98a6e170b9073141c2572ecb9bbe517edb3e9cea11518fbd9dd",
      "blockNumber": "0x166d51a",
      "gasUsed": "0x612ab",
      "effectiveGasPrice": "0x7834e80",
      "from": "0x56e3665038c5f0b56cc7d81ac66c86521274b251",
      "to": "0x5b8b26a6734b5eabdbe6c5a19580ab2d0424f027",
      "contractAddress": null
    },
    {
      "status": "0x1",
      "cumulativeGasUsed": "0x7fe128",
      "logs": [
        {
          "address": "0x17337c22cf8b7c1b6fc86f0ef7fcf05a7fa93f48",
          "topics": [
            "0x8be0079c531659141344cd1fd0a4f28419497f9722a3daafe3b4186f6b6457e0",
            "0x0000000000000000000000000000000000000000000000000000000000000000",
            "0x000000000000000000000000da4aaf85bb924b53dcc2dffa9e1a9c2ef97acfdf"
          ],
          "data": "0x",
          "blockHash": "0x8f65feba44c97d4292dc6d3022a253ec3c908dbe1441da5f63b6c6397dff9f2d",
          "blockNumber": "0x166d51b",
          "blockTimestamp": "0x68e34a0b",
          "transactionHash": "0x378b327fff35d171eccb6baa50ddd64876fea1c28e56b3026682058c40019226",
          "transactionIndex": "0x47",
          "logIndex": "0xcf",
          "removed": false
        },
        {
          "address": "0x17337c22cf8b7c1b6fc86f0ef7fcf05a7fa93f48",
          "topics": [
            "0x20affe2401825617c69366f8c3a3493d9822d1021d0b3023c4e77ea5b3d0fbc5",
            "0x0000000000000000000000005b8b26a6734b5eabdbe6c5a19580ab2d0424f027"
          ],
          "data": "0x0000000000000000000000000000000000000000000000000000000000989680",
          "blockHash": "0x8f65feba44c97d4292dc6d3022a253ec3c908dbe1441da5f63b6c6397dff9f2d",
          "blockNumber": "0x166d51b",
          "blockTimestamp": "0x68e34a0b",
          "transactionHash": "0x378b327fff35d171eccb6baa50ddd64876fea1c28e56b3026682058c40019226",
          "transactionIndex": "0x47",
          "logIndex": "0xd0",
          "removed": false
        },
        {
          "address": "0x17337c22cf8b7c1b6fc86f0ef7fcf05a7fa93f48",
          "topics": [
            "0xd28e9b90ee9b37c5936ff84392d71f29ff18117d7e76bcee60615262a90a3f75",
            "0x0000000000000000000000005b8b26a6734b5eabdbe6c5a19580ab2d0424f027"
          ],
          "data": "0x0000000000000000000000000000000000000000000000000000000000015180",
          "blockHash": "0x8f65feba44c97d4292dc6d3022a253ec3c908dbe1441da5f63b6c6397dff9f2d",
          "blockNumber": "0x166d51b",
          "blockTimestamp": "0x68e34a0b",
          "transactionHash": "0x378b327fff35d171eccb6baa50ddd64876fea1c28e56b3026682058c40019226",
          "transactionIndex": "0x47",
          "logIndex": "0xd1",
          "removed": false
        },
        {
          "address": "0x17337c22cf8b7c1b6fc86f0ef7fcf05a7fa93f48",
          "topics": [
            "0x0cdc8c1df674ca6c4f86f6d47b02a15083c5d3bf098ea38f02c2762bad0afad2",
            "0x0000000000000000000000005b8b26a6734b5eabdbe6c5a19580ab2d0424f027"
          ],
          "data": "0x0000000000000000000000000000000000000000000000000000000000000000",
          "blockHash": "0x8f65feba44c97d4292dc6d3022a253ec3c908dbe1441da5f63b6c6397dff9f2d",
          "blockNumber": "0x166d51b",
          "blockTimestamp": "0x68e34a0b",
          "transactionHash": "0x378b327fff35d171eccb6baa50ddd64876fea1c28e56b3026682058c40019226",
          "transactionIndex": "0x47",
          "logIndex": "0xd2",
          "removed": false
        },
        {
          "address": "0x17337c22cf8b7c1b6fc86f0ef7fcf05a7fa93f48",
          "topics": [
            "0xcb11cc8aade2f5a556749d1b2380d108a16fac3431e6a5d5ce12ef9de0bd76e3",
            "0x0000000000000000000000005b8b26a6734b5eabdbe6c5a19580ab2d0424f027"
          ],
          "data": "0x00000000000000000000000037a2fb6dda20eef30224f90686643eefc32a4bea",
          "blockHash": "0x8f65feba44c97d4292dc6d3022a253ec3c908dbe1441da5f63b6c6397dff9f2d",
          "blockNumber": "0x166d51b",
          "blockTimestamp": "0x68e34a0b",
          "transactionHash": "0x378b327fff35d171eccb6baa50ddd64876fea1c28e56b3026682058c40019226",
          "transactionIndex": "0x47",
          "logIndex": "0xd3",
          "removed": false
        },
        {
          "address": "0x17337c22cf8b7c1b6fc86f0ef7fcf05a7fa93f48",
          "topics": [
            "0x51fa58fd85e72d533eb3933ef4dd0bb83a9614f46e076ffa025b0dcbb8dff315",
            "0x0000000000000000000000005b8b26a6734b5eabdbe6c5a19580ab2d0424f027"
          ],
          "data": "0x000000000000000000000000000000000000000000000000000009184e72a000",
          "blockHash": "0x8f65feba44c97d4292dc6d3022a253ec3c908dbe1441da5f63b6c6397dff9f2d",
          "blockNumber": "0x166d51b",
          "blockTimestamp": "0x68e34a0b",
          "transactionHash": "0x378b327fff35d171eccb6baa50ddd64876fea1c28e56b3026682058c40019226",
          "transactionIndex": "0x47",
          "logIndex": "0xd4",
          "removed": false
        },
        {
          "address": "0x17337c22cf8b7c1b6fc86f0ef7fcf05a7fa93f48",
          "topics": [
            "0xbd0a63c12948fbc9194a5839019f99c9d71db924e5c70018265bc778b8f1a506"
          ],
          "data": "0x00000000000000000000000092fb952a80a2395c9eb05281cb116d3bd391a799",
          "blockHash": "0x8f65feba44c97d4292dc6d3022a253ec3c908dbe1441da5f63b6c6397dff9f2d",
          "blockNumber": "0x166d51b",
          "blockTimestamp": "0x68e34a0b",
          "transactionHash": "0x378b327fff35d171eccb6baa50ddd64876fea1c28e56b3026682058c40019226",
          "transactionIndex": "0x47",
          "logIndex": "0xd5",
          "removed": false
        },
        {
          "address": "0x17337c22cf8b7c1b6fc86f0ef7fcf05a7fa93f48",
          "topics": [
            "0x390ace337562623e4cf938891cfa7e80b7b2e6ff395963aba93e537ce67e842c",
            "0x0000000000000000000000005b8b26a6734b5eabdbe6c5a19580ab2d0424f027",
            "0x0000000000000000000000009bdefe80d8cbd3ceda200b8cea4b2c53fc64d5f0"
          ],
          "data": "0x",
          "blockHash": "0x8f65feba44c97d4292dc6d3022a253ec3c908dbe1441da5f63b6c6397dff9f2d",
          "blockNumber": "0x166d51b",
          "blockTimestamp": "0x68e34a0b",
          "transactionHash": "0x378b327fff35d171eccb6baa50ddd64876fea1c28e56b3026682058c40019226",
          "transactionIndex": "0x47",
          "logIndex": "0xd6",
          "removed": false
        },
        {
          "address": "0x17337c22cf8b7c1b6fc86f0ef7fcf05a7fa93f48",
          "topics": [
            "0xc7f505b2f371ae2175ee4913f4499e1f2633a7b5936321eed1cdaeb6115181d2"
          ],
          "data": "0x0000000000000000000000000000000000000000000000000000000000000001",
          "blockHash": "0x8f65feba44c97d4292dc6d3022a253ec3c908dbe1441da5f63b6c6397dff9f2d",
          "blockNumber": "0x166d51b",
          "blockTimestamp": "0x68e34a0b",
          "transactionHash": "0x378b327fff35d171eccb6baa50ddd64876fea1c28e56b3026682058c40019226",
          "transactionIndex": "0x47",
          "logIndex": "0xd7",
          "removed": false
        },
        {
          "address": "0x5b8b26a6734b5eabdbe6c5a19580ab2d0424f027",
          "topics": [
            "0xbec73c77ba89c2c3ae92a9b6b0fd32d6702691976f3c31962a992499b08549e4",
            "0x00000000000000000000000017337c22cf8b7c1b6fc86f0ef7fcf05a7fa93f48",
            "0x00000000000000000000000056e3665038c5f0b56cc7d81ac66c86521274b251"
          ],
          "data": "0x0000000000000000000000000000000000000000000000000000000000000020000000000000000000000000da4aaf85bb924b53dcc2dffa9e1a9c2ef97acfdf00000000000000000000000092fb952a80a2395c9eb05281cb116d3bd391a79900000000000000000000000037a2fb6dda20eef30224f90686643eefc32a4bea0000000000000000000000000000000000000000000000000000000000015180000000000000000000000000a0b86991c6218b36c1d19d4a2e9eb0ce3606eb480000000000000000000000009bdefe80d8cbd3ceda200b8cea4b2c53fc64d5f0000000000000000000000000000000000000000000000000000009184e72a000000000000000000000000000000000000000000000000000000000000000016000000000000000000000000000000000000000000000000000000000000001a000000000000000000000000000000000000000000000000000000000009896800000000000000000000000000000000000000000000000000000000000000000000000000000000000000000000000000000000000000000000000000000000b5072696d65205969656c64000000000000000000000000000000000000000000000000000000000000000000000000000000000000000000000000000000000c544d582d48434c2d555344430000000000000000000000000000000000000000",
          "blockHash": "0x8f65feba44c97d4292dc6d3022a253ec3c908dbe1441da5f63b6c6397dff9f2d",
          "blockNumber": "0x166d51b",
          "blockTimestamp": "0x68e34a0b",
          "transactionHash": "0x378b327fff35d171eccb6baa50ddd64876fea1c28e56b3026682058c40019226",
          "transactionIndex": "0x47",
          "logIndex": "0xd8",
          "removed": false
        }
      ],
      "logsBloom": "0x00000002000000000200000000000040000000000000000800880000000200000000000000000000000800000000000000010000000000000000004000000000000800080000000000002008000000000001000000000000000000000000000000000000020000000000400000010800800000800000000008000000000000c20000000001000000000800000000000000200000000080040000000002000004000000000000000004000000800000028000000000000000000000020000000000002020000004000000000000004000000004000004000000000000000020100000000000000000200000002000000000000200000000404800102000000000",
      "type": "0x2",
      "transactionHash": "0x378b327fff35d171eccb6baa50ddd64876fea1c28e56b3026682058c40019226",
      "transactionIndex": "0x47",
      "blockHash": "0x8f65feba44c97d4292dc6d3022a253ec3c908dbe1441da5f63b6c6397dff9f2d",
      "blockNumber": "0x166d51b",
      "gasUsed": "0x6121b",
      "effectiveGasPrice": "0x80c0222",
      "from": "0x56e3665038c5f0b56cc7d81ac66c86521274b251",
      "to": "0x5b8b26a6734b5eabdbe6c5a19580ab2d0424f027",
      "contractAddress": null
    },
    {
      "status": "0x1",
      "cumulativeGasUsed": "0x172b6d2",
      "logs": [
        {
          "address": "0xb84f2a39b271d92586c61232a73ee1f7adfbf317",
          "topics": [
            "0x8c313170024355ce9211016d28e5e6f55ebaebad7fd43c86775ed3d3a3adadbb"
          ],
          "data": "0x0000000000000000000000000000000000000000000000000000000000000060000000000000000000000000000000000000000000000000000000000000000100000000000000000000000000000000000000000000000000000000000000010000000000000000000000000000000000000000000000000000000000000002000000000000000000000000fd2ddb1f5989491967c7598da1d3d6532452233900000000000000000000000017337c22cf8b7c1b6fc86f0ef7fcf05a7fa93f48",
          "blockHash": "0xc4e6aaca6560c96fbf580db817532e644bbff680b8bac20a413c50340bb3fe34",
          "blockNumber": "0x166d51c",
          "blockTimestamp": "0x68e34a17",
          "transactionHash": "0x201ce068b96ac7e590d0e5b3bf26c19fe38dce549cad107d94524718f7efc0ff",
          "transactionIndex": "0x4f",
          "logIndex": "0x136",
          "removed": false
        }
      ],
      "logsBloom": "0x00000000000000000000000000000000000000000000000000000000000000000000000000000000000000000000000000000000000000000000000000000000000000000000000000000000000000000000000000000000000000000000000000000000000000000000000000000000000000000002000000000000008000000000000000000000000020000000000000000008000000000000000000000000000000000000000000000010000000000000000000000000000000000000000000000000000000000000000000000000000000000000000000000000000000000000000000000200000000000000000000000000000000000000000000000000",
      "type": "0x2",
      "transactionHash": "0x201ce068b96ac7e590d0e5b3bf26c19fe38dce549cad107d94524718f7efc0ff",
      "transactionIndex": "0x4f",
      "blockHash": "0xc4e6aaca6560c96fbf580db817532e644bbff680b8bac20a413c50340bb3fe34",
      "blockNumber": "0x166d51c",
      "gasUsed": "0x15cb1",
      "effectiveGasPrice": "0x7d2d8e4",
      "from": "0x56e3665038c5f0b56cc7d81ac66c86521274b251",
      "to": "0xda4aaf85bb924b53dcc2dffa9e1a9c2ef97acfdf",
      "contractAddress": null
    }
  ],
  "libraries": [],
  "pending": [],
  "returns": {},
  "timestamp": 1759726107,
  "chain": 1,
  "commit": "ee9ba44"
}