{
  "transactions": [
    {
      "hash": "0x1e16f7f11db20c7888d545bab86848f2b51c4c550895470a4dcd760dbefe3f10",
      "transactionType": "CALL",
      "contractName": "TermMaxVaultFactoryV2",
      "contractAddress": "0x5b8b26a6734b5eabdbe6c5a19580ab2d0424f027",
      "function": "createVault((address,address,address,uint256,address,address,uint256,string,string,uint64,uint64),uint256)",
      "arguments": [
        "(0xDA4aAF85Bb924B53DCc2DFFa9e1A9C2Ef97aCFDF, 0x000cA4853bBDca1347f190bbF31B5Bb564A849Be, 0x15fF7Cc1Fa7963B0E31c3163B98F759C4CAf4198, 86400, 0xA0b86991c6218b36c1d19D4a2e9Eb0cE3606eB48, 0x2e3E14A0b42d22E4a326528D882Fc07540DF1Ce5, 50000000000000, MEV Capital USDC v2, TMX-MEV-USDC, 10000000, 0)",
        "0"
      ],
      "transaction": {
        "from": "0x56e3665038c5f0b56cc7d81ac66c86521274b251",
        "to": "0x5b8b26a6734b5eabdbe6c5a19580ab2d0424f027",
        "gas": "0x8630e",
        "value": "0x0",
        "input": "0x8f9f50ae00000000000000000000000000000000000000000000000000000000000000400000000000000000000000000000000000000000000000000000000000000000000000000000000000000000da4aaf85bb924b53dcc2dffa9e1a9c2ef97acfdf000000000000000000000000000ca4853bbdca1347f190bbf31b5bb564a849be00000000000000000000000015ff7cc1fa7963b0e31c3163b98f759c4caf41980000000000000000000000000000000000000000000000000000000000015180000000000000000000000000a0b86991c6218b36c1d19d4a2e9eb0ce3606eb480000000000000000000000002e3e14a0b42d22e4a326528d882fc07540df1ce500000000000000000000000000000000000000000000000000002d79883d2000000000000000000000000000000000000000000000000000000000000000016000000000000000000000000000000000000000000000000000000000000001a00000000000000000000000000000000000000000000000000000000000989680000000000000000000000000000000000000000000000000000000000000000000000000000000000000000000000000000000000000000000000000000000134d4556204361706974616c205553444320763200000000000000000000000000000000000000000000000000000000000000000000000000000000000000000c544d582d4d45562d555344430000000000000000000000000000000000000000",
        "nonce": "0x525",
        "chainId": "0x1"
      },
      "additionalContracts": [
        {
          "transactionType": "CREATE2",
          "address": "0xd7114698d3d6de7389a6cb94dc6f3f9c2ea08d03",
          "initCode": "0x3d602d80600a3d3981f3363d3d373d3d3d363d739f1882ffbb007dd275c931ac302cfa97a4ceaa1d5af43d82803e903d91602b57fd5bf3"
        }
      ],
      "isFixedGasLimit": false
    },
    {
      "hash": "0x1f2c205d77330c2289da979cc758b8dc54784252d5964f9d6bc33827a570e86e",
      "transactionType": "CALL",
      "contractName": "TermMaxVaultFactoryV2",
      "contractAddress": "0x5b8b26a6734b5eabdbe6c5a19580ab2d0424f027",
      "function": "createVault((address,address,address,uint256,address,address,uint256,string,string,uint64,uint64),uint256)",
      "arguments": [
        "(0xDA4aAF85Bb924B53DCc2DFFa9e1A9C2Ef97aCFDF, 0x000cA4853bBDca1347f190bbF31B5Bb564A849Be, 0x15fF7Cc1Fa7963B0E31c3163B98F759C4CAf4198, 86400, 0xC02aaA39b223FE8D0A0e5C4F27eAD9083C756Cc2, 0x05BB3e6a027FB13613f86BA0E5B54403806eaCB4, 20000000000000000000000, amphrETH, TMX-MEV-WETH, 10000000, 0)",
        "0"
      ],
      "transaction": {
        "from": "0x56e3665038c5f0b56cc7d81ac66c86521274b251",
        "to": "0x5b8b26a6734b5eabdbe6c5a19580ab2d0424f027",
        "gas": "0x8373e",
        "value": "0x0",
        "input": "0x8f9f50ae00000000000000000000000000000000000000000000000000000000000000400000000000000000000000000000000000000000000000000000000000000000000000000000000000000000da4aaf85bb924b53dcc2dffa9e1a9c2ef97acfdf000000000000000000000000000ca4853bbdca1347f190bbf31b5bb564a849be00000000000000000000000015ff7cc1fa7963b0e31c3163b98f759c4caf41980000000000000000000000000000000000000000000000000000000000015180000000000000000000000000c02aaa39b223fe8d0a0e5c4f27ead9083c756cc200000000000000000000000005bb3e6a027fb13613f86ba0e5b54403806eacb400000000000000000000000000000000000000000000043c33c1937564800000000000000000000000000000000000000000000000000000000000000000016000000000000000000000000000000000000000000000000000000000000001a0000000000000000000000000000000000000000000000000000000000098968000000000000000000000000000000000000000000000000000000000000000000000000000000000000000000000000000000000000000000000000000000008616d706872455448000000000000000000000000000000000000000000000000000000000000000000000000000000000000000000000000000000000000000c544d582d4d45562d574554480000000000000000000000000000000000000000",
        "nonce": "0x526",
        "chainId": "0x1"
      },
      "additionalContracts": [
        {
          "transactionType": "CREATE2",
          "address": "0x0093e24af6ff1e6ac61ce756bd1f772be6187e89",
          "initCode": "0x3d602d80600a3d3981f3363d3d373d3d3d363d739f1882ffbb007dd275c931ac302cfa97a4ceaa1d5af43d82803e903d91602b57fd5bf3"
        }
      ],
      "isFixedGasLimit": false
    },
    {
      "hash": "0x30a6d23139bbfb696cc424de2c0e2f031e332650bf8b60c3f724702b44e31613",
      "transactionType": "CALL",
      "contractName": "ERC1967Proxy",
      "contractAddress": "0xda4aaf85bb924b53dcc2dffa9e1a9c2ef97acfdf",
      "function": null,
      "arguments": null,
      "transaction": {
        "from": "0x56e3665038c5f0b56cc7d81ac66c86521274b251",
        "to": "0xda4aaf85bb924b53dcc2dffa9e1a9c2ef97acfdf",
        "gas": "0x1e190",
        "value": "0x0",
        "input": "0x34ae51fe000000000000000000000000b84f2a39b271d92586c61232a73ee1f7adfbf3170000000000000000000000000000000000000000000000000000000000000080000000000000000000000000000000000000000000000000000000000000000100000000000000000000000000000000000000000000000000000000000000010000000000000000000000000000000000000000000000000000000000000002000000000000000000000000d7114698d3d6de7389a6cb94dc6f3f9c2ea08d030000000000000000000000000093e24af6ff1e6ac61ce756bd1f772be6187e89",
        "nonce": "0x527",
        "chainId": "0x1"
      },
      "additionalContracts": [],
      "isFixedGasLimit": false
    }
  ],
  "receipts": [
    {
      "status": "0x1",
      "cumulativeGasUsed": "0x104f9c4",
      "logs": [
        {
          "address": "0xd7114698d3d6de7389a6cb94dc6f3f9c2ea08d03",
          "topics": [
            "0x8be0079c531659141344cd1fd0a4f28419497f9722a3daafe3b4186f6b6457e0",
            "0x0000000000000000000000000000000000000000000000000000000000000000",
            "0x000000000000000000000000da4aaf85bb924b53dcc2dffa9e1a9c2ef97acfdf"
          ],
          "data": "0x",
          "blockHash": "0x3aaa0cc48d1f32ca205e63b06998d96adbc390d9c2666771cf1e602013bd091a",
          "blockNumber": "0x166e0e5",
          "blockTimestamp": "0x68e3d873",
          "transactionHash": "0x1e16f7f11db20c7888d545bab86848f2b51c4c550895470a4dcd760dbefe3f10",
          "transactionIndex": "0x65",
          "logIndex": "0x1e8",
          "removed": false
        },
        {
          "address": "0xd7114698d3d6de7389a6cb94dc6f3f9c2ea08d03",
          "topics": [
            "0x20affe2401825617c69366f8c3a3493d9822d1021d0b3023c4e77ea5b3d0fbc5",
            "0x0000000000000000000000005b8b26a6734b5eabdbe6c5a19580ab2d0424f027"
          ],
          "data": "0x0000000000000000000000000000000000000000000000000000000000989680",
          "blockHash": "0x3aaa0cc48d1f32ca205e63b06998d96adbc390d9c2666771cf1e602013bd091a",
          "blockNumber": "0x166e0e5",
          "blockTimestamp": "0x68e3d873",
          "transactionHash": "0x1e16f7f11db20c7888d545bab86848f2b51c4c550895470a4dcd760dbefe3f10",
          "transactionIndex": "0x65",
          "logIndex": "0x1e9",
          "removed": false
        },
        {
          "address": "0xd7114698d3d6de7389a6cb94dc6f3f9c2ea08d03",
          "topics": [
            "0xd28e9b90ee9b37c5936ff84392d71f29ff18117d7e76bcee60615262a90a3f75",
            "0x0000000000000000000000005b8b26a6734b5eabdbe6c5a19580ab2d0424f027"
          ],
          "data": "0x0000000000000000000000000000000000000000000000000000000000015180",
          "blockHash": "0x3aaa0cc48d1f32ca205e63b06998d96adbc390d9c2666771cf1e602013bd091a",
          "blockNumber": "0x166e0e5",
          "blockTimestamp": "0x68e3d873",
          "transactionHash": "0x1e16f7f11db20c7888d545bab86848f2b51c4c550895470a4dcd760dbefe3f10",
          "transactionIndex": "0x65",
          "logIndex": "0x1ea",
          "removed": false
        },
        {
          "address": "0xd7114698d3d6de7389a6cb94dc6f3f9c2ea08d03",
          "topics": [
            "0x0cdc8c1df674ca6c4f86f6d47b02a15083c5d3bf098ea38f02c2762bad0afad2",
            "0x0000000000000000000000005b8b26a6734b5eabdbe6c5a19580ab2d0424f027"
          ],
          "data": "0x0000000000000000000000000000000000000000000000000000000000000000",
          "blockHash": "0x3aaa0cc48d1f32ca205e63b06998d96adbc390d9c2666771cf1e602013bd091a",
          "blockNumber": "0x166e0e5",
          "blockTimestamp": "0x68e3d873",
          "transactionHash": "0x1e16f7f11db20c7888d545bab86848f2b51c4c550895470a4dcd760dbefe3f10",
          "transactionIndex": "0x65",
          "logIndex": "0x1eb",
          "removed": false
        },
        {
          "address": "0xd7114698d3d6de7389a6cb94dc6f3f9c2ea08d03",
          "topics": [
            "0xcb11cc8aade2f5a556749d1b2380d108a16fac3431e6a5d5ce12ef9de0bd76e3",
            "0x0000000000000000000000005b8b26a6734b5eabdbe6c5a19580ab2d0424f027"
          ],
          "data": "0x00000000000000000000000015ff7cc1fa7963b0e31c3163b98f759c4caf4198",
          "blockHash": "0x3aaa0cc48d1f32ca205e63b06998d96adbc390d9c2666771cf1e602013bd091a",
          "blockNumber": "0x166e0e5",
          "blockTimestamp": "0x68e3d873",
          "transactionHash": "0x1e16f7f11db20c7888d545bab86848f2b51c4c550895470a4dcd760dbefe3f10",
          "transactionIndex": "0x65",
          "logIndex": "0x1ec",
          "removed": false
        },
        {
          "address": "0xd7114698d3d6de7389a6cb94dc6f3f9c2ea08d03",
          "topics": [
            "0x51fa58fd85e72d533eb3933ef4dd0bb83a9614f46e076ffa025b0dcbb8dff315",
            "0x0000000000000000000000005b8b26a6734b5eabdbe6c5a19580ab2d0424f027"
          ],
          "data": "0x00000000000000000000000000000000000000000000000000002d79883d2000",
          "blockHash": "0x3aaa0cc48d1f32ca205e63b06998d96adbc390d9c2666771cf1e602013bd091a",
          "blockNumber": "0x166e0e5",
          "blockTimestamp": "0x68e3d873",
          "transactionHash": "0x1e16f7f11db20c7888d545bab86848f2b51c4c550895470a4dcd760dbefe3f10",
          "transactionIndex": "0x65",
          "logIndex": "0x1ed",
          "removed": false
        },
        {
          "address": "0xd7114698d3d6de7389a6cb94dc6f3f9c2ea08d03",
          "topics": [
            "0xbd0a63c12948fbc9194a5839019f99c9d71db924e5c70018265bc778b8f1a506"
          ],
          "data": "0x000000000000000000000000000ca4853bbdca1347f190bbf31b5bb564a849be",
          "blockHash": "0x3aaa0cc48d1f32ca205e63b06998d96adbc390d9c2666771cf1e602013bd091a",
          "blockNumber": "0x166e0e5",
          "blockTimestamp": "0x68e3d873",
          "transactionHash": "0x1e16f7f11db20c7888d545bab86848f2b51c4c550895470a4dcd760dbefe3f10",
          "transactionIndex": "0x65",
          "logIndex": "0x1ee",
          "removed": false
        },
        {
          "address": "0xd7114698d3d6de7389a6cb94dc6f3f9c2ea08d03",
          "topics": [
            "0x390ace337562623e4cf938891cfa7e80b7b2e6ff395963aba93e537ce67e842c",
            "0x0000000000000000000000005b8b26a6734b5eabdbe6c5a19580ab2d0424f027",
            "0x0000000000000000000000002e3e14a0b42d22e4a326528d882fc07540df1ce5"
          ],
          "data": "0x",
          "blockHash": "0x3aaa0cc48d1f32ca205e63b06998d96adbc390d9c2666771cf1e602013bd091a",
          "blockNumber": "0x166e0e5",
          "blockTimestamp": "0x68e3d873",
          "transactionHash": "0x1e16f7f11db20c7888d545bab86848f2b51c4c550895470a4dcd760dbefe3f10",
          "transactionIndex": "0x65",
          "logIndex": "0x1ef",
          "removed": false
        },
        {
          "address": "0xd7114698d3d6de7389a6cb94dc6f3f9c2ea08d03",
          "topics": [
            "0xc7f505b2f371ae2175ee4913f4499e1f2633a7b5936321eed1cdaeb6115181d2"
          ],
          "data": "0x0000000000000000000000000000000000000000000000000000000000000001",
          "blockHash": "0x3aaa0cc48d1f32ca205e63b06998d96adbc390d9c2666771cf1e602013bd091a",
          "blockNumber": "0x166e0e5",
          "blockTimestamp": "0x68e3d873",
          "transactionHash": "0x1e16f7f11db20c7888d545bab86848f2b51c4c550895470a4dcd760dbefe3f10",
          "transactionIndex": "0x65",
          "logIndex": "0x1f0",
          "removed": false
        },
        {
          "address": "0x5b8b26a6734b5eabdbe6c5a19580ab2d0424f027",
          "topics": [
            "0xbec73c77ba89c2c3ae92a9b6b0fd32d6702691976f3c31962a992499b08549e4",
            "0x000000000000000000000000d7114698d3d6de7389a6cb94dc6f3f9c2ea08d03",
            "0x00000000000000000000000056e3665038c5f0b56cc7d81ac66c86521274b251"
          ],
          "data": "0x0000000000000000000000000000000000000000000000000000000000000020000000000000000000000000da4aaf85bb924b53dcc2dffa9e1a9c2ef97acfdf000000000000000000000000000ca4853bbdca1347f190bbf31b5bb564a849be00000000000000000000000015ff7cc1fa7963b0e31c3163b98f759c4caf41980000000000000000000000000000000000000000000000000000000000015180000000000000000000000000a0b86991c6218b36c1d19d4a2e9eb0ce3606eb480000000000000000000000002e3e14a0b42d22e4a326528d882fc07540df1ce500000000000000000000000000000000000000000000000000002d79883d2000000000000000000000000000000000000000000000000000000000000000016000000000000000000000000000000000000000000000000000000000000001a00000000000000000000000000000000000000000000000000000000000989680000000000000000000000000000000000000000000000000000000000000000000000000000000000000000000000000000000000000000000000000000000134d4556204361706974616c205553444320763200000000000000000000000000000000000000000000000000000000000000000000000000000000000000000c544d582d4d45562d555344430000000000000000000000000000000000000000",
          "blockHash": "0x3aaa0cc48d1f32ca205e63b06998d96adbc390d9c2666771cf1e602013bd091a",
          "blockNumber": "0x166e0e5",
          "blockTimestamp": "0x68e3d873",
          "transactionHash": "0x1e16f7f11db20c7888d545bab86848f2b51c4c550895470a4dcd760dbefe3f10",
          "transactionIndex": "0x65",
          "logIndex": "0x1f1",
          "removed": false
        }
      ],
      "logsBloom": "0x00000002000000000200000000000040000000000000000804880000000200000000000000000000000800000000200000010000000000000000004000000000000800000000000000000008000000000001000000000000000000000000000000000000020000000000400000010800800000000000000000000000000000c20100000000000000000800000000000000200000000080040000000002000004000000000000000000000000800000028000000000000000000000008000000000202020000004000000000000004000000004000004000000000000000020100000000000000000200000002001004000000200000000402000902000000000",
      "type": "0x2",
      "transactionHash": "0x1e16f7f11db20c7888d545bab86848f2b51c4c550895470a4dcd760dbefe3f10",
      "transactionIndex": "0x65",
      "blockHash": "0x3aaa0cc48d1f32ca205e63b06998d96adbc390d9c2666771cf1e602013bd091a",
      "blockNumber": "0x166e0e5",
      "gasUsed": "0x6126f",
      "effectiveGasPrice": "0x6b8ba1ad",
      "from": "0x56e3665038c5f0b56cc7d81ac66c86521274b251",
      "to": "0x5b8b26a6734b5eabdbe6c5a19580ab2d0424f027",
      "contractAddress": null
    },
    {
      "status": "0x1",
      "cumulativeGasUsed": "0xd3d101",
      "logs": [
        {
          "address": "0x0093e24af6ff1e6ac61ce756bd1f772be6187e89",
          "topics": [
            "0x8be0079c531659141344cd1fd0a4f28419497f9722a3daafe3b4186f6b6457e0",
            "0x0000000000000000000000000000000000000000000000000000000000000000",
            "0x000000000000000000000000da4aaf85bb924b53dcc2dffa9e1a9c2ef97acfdf"
          ],
          "data": "0x",
          "blockHash": "0xa8b6d71234bd8e4634f321e015cd2a124b81b789772b25a5e5f6eaab5c6f133d",
          "blockNumber": "0x166e0e6",
          "blockTimestamp": "0x68e3d87f",
          "transactionHash": "0x1f2c205d77330c2289da979cc758b8dc54784252d5964f9d6bc33827a570e86e",
          "transactionIndex": "0x61",
          "logIndex": "0x16d",
          "removed": false
        },
        {
          "address": "0x0093e24af6ff1e6ac61ce756bd1f772be6187e89",
          "topics": [
            "0x20affe2401825617c69366f8c3a3493d9822d1021d0b3023c4e77ea5b3d0fbc5",
            "0x0000000000000000000000005b8b26a6734b5eabdbe6c5a19580ab2d0424f027"
          ],
          "data": "0x0000000000000000000000000000000000000000000000000000000000989680",
          "blockHash": "0xa8b6d71234bd8e4634f321e015cd2a124b81b789772b25a5e5f6eaab5c6f133d",
          "blockNumber": "0x166e0e6",
          "blockTimestamp": "0x68e3d87f",
          "transactionHash": "0x1f2c205d77330c2289da979cc758b8dc54784252d5964f9d6bc33827a570e86e",
          "transactionIndex": "0x61",
          "logIndex": "0x16e",
          "removed": false
        },
        {
          "address": "0x0093e24af6ff1e6ac61ce756bd1f772be6187e89",
          "topics": [
            "0xd28e9b90ee9b37c5936ff84392d71f29ff18117d7e76bcee60615262a90a3f75",
            "0x0000000000000000000000005b8b26a6734b5eabdbe6c5a19580ab2d0424f027"
          ],
          "data": "0x0000000000000000000000000000000000000000000000000000000000015180",
          "blockHash": "0xa8b6d71234bd8e4634f321e015cd2a124b81b789772b25a5e5f6eaab5c6f133d",
          "blockNumber": "0x166e0e6",
          "blockTimestamp": "0x68e3d87f",
          "transactionHash": "0x1f2c205d77330c2289da979cc758b8dc54784252d5964f9d6bc33827a570e86e",
          "transactionIndex": "0x61",
          "logIndex": "0x16f",
          "removed": false
        },
        {
          "address": "0x0093e24af6ff1e6ac61ce756bd1f772be6187e89",
          "topics": [
            "0x0cdc8c1df674ca6c4f86f6d47b02a15083c5d3bf098ea38f02c2762bad0afad2",
            "0x0000000000000000000000005b8b26a6734b5eabdbe6c5a19580ab2d0424f027"
          ],
          "data": "0x0000000000000000000000000000000000000000000000000000000000000000",
          "blockHash": "0xa8b6d71234bd8e4634f321e015cd2a124b81b789772b25a5e5f6eaab5c6f133d",
          "blockNumber": "0x166e0e6",
          "blockTimestamp": "0x68e3d87f",
          "transactionHash": "0x1f2c205d77330c2289da979cc758b8dc54784252d5964f9d6bc33827a570e86e",
          "transactionIndex": "0x61",
          "logIndex": "0x170",
          "removed": false
        },
        {
          "address": "0x0093e24af6ff1e6ac61ce756bd1f772be6187e89",
          "topics": [
            "0xcb11cc8aade2f5a556749d1b2380d108a16fac3431e6a5d5ce12ef9de0bd76e3",
            "0x0000000000000000000000005b8b26a6734b5eabdbe6c5a19580ab2d0424f027"
          ],
          "data": "0x00000000000000000000000015ff7cc1fa7963b0e31c3163b98f759c4caf4198",
          "blockHash": "0xa8b6d71234bd8e4634f321e015cd2a124b81b789772b25a5e5f6eaab5c6f133d",
          "blockNumber": "0x166e0e6",
          "blockTimestamp": "0x68e3d87f",
          "transactionHash": "0x1f2c205d77330c2289da979cc758b8dc54784252d5964f9d6bc33827a570e86e",
          "transactionIndex": "0x61",
          "logIndex": "0x171",
          "removed": false
        },
        {
          "address": "0x0093e24af6ff1e6ac61ce756bd1f772be6187e89",
          "topics": [
            "0x51fa58fd85e72d533eb3933ef4dd0bb83a9614f46e076ffa025b0dcbb8dff315",
            "0x0000000000000000000000005b8b26a6734b5eabdbe6c5a19580ab2d0424f027"
          ],
          "data": "0x00000000000000000000000000000000000000000000043c33c1937564800000",
          "blockHash": "0xa8b6d71234bd8e4634f321e015cd2a124b81b789772b25a5e5f6eaab5c6f133d",
          "blockNumber": "0x166e0e6",
          "blockTimestamp": "0x68e3d87f",
          "transactionHash": "0x1f2c205d77330c2289da979cc758b8dc54784252d5964f9d6bc33827a570e86e",
          "transactionIndex": "0x61",
          "logIndex": "0x172",
          "removed": false
        },
        {
          "address": "0x0093e24af6ff1e6ac61ce756bd1f772be6187e89",
          "topics": [
            "0xbd0a63c12948fbc9194a5839019f99c9d71db924e5c70018265bc778b8f1a506"
          ],
          "data": "0x000000000000000000000000000ca4853bbdca1347f190bbf31b5bb564a849be",
          "blockHash": "0xa8b6d71234bd8e4634f321e015cd2a124b81b789772b25a5e5f6eaab5c6f133d",
          "blockNumber": "0x166e0e6",
          "blockTimestamp": "0x68e3d87f",
          "transactionHash": "0x1f2c205d77330c2289da979cc758b8dc54784252d5964f9d6bc33827a570e86e",
          "transactionIndex": "0x61",
          "logIndex": "0x173",
          "removed": false
        },
        {
          "address": "0x0093e24af6ff1e6ac61ce756bd1f772be6187e89",
          "topics": [
            "0x390ace337562623e4cf938891cfa7e80b7b2e6ff395963aba93e537ce67e842c",
            "0x0000000000000000000000005b8b26a6734b5eabdbe6c5a19580ab2d0424f027",
            "0x00000000000000000000000005bb3e6a027fb13613f86ba0e5b54403806eacb4"
          ],
          "data": "0x",
          "blockHash": "0xa8b6d71234bd8e4634f321e015cd2a124b81b789772b25a5e5f6eaab5c6f133d",
          "blockNumber": "0x166e0e6",
          "blockTimestamp": "0x68e3d87f",
          "transactionHash": "0x1f2c205d77330c2289da979cc758b8dc54784252d5964f9d6bc33827a570e86e",
          "transactionIndex": "0x61",
          "logIndex": "0x174",
          "removed": false
        },
        {
          "address": "0x0093e24af6ff1e6ac61ce756bd1f772be6187e89",
          "topics": [
            "0xc7f505b2f371ae2175ee4913f4499e1f2633a7b5936321eed1cdaeb6115181d2"
          ],
          "data": "0x0000000000000000000000000000000000000000000000000000000000000001",
          "blockHash": "0xa8b6d71234bd8e4634f321e015cd2a124b81b789772b25a5e5f6eaab5c6f133d",
          "blockNumber": "0x166e0e6",
          "blockTimestamp": "0x68e3d87f",
          "transactionHash": "0x1f2c205d77330c2289da979cc758b8dc54784252d5964f9d6bc33827a570e86e",
          "transactionIndex": "0x61",
          "logIndex": "0x175",
          "removed": false
        },
        {
          "address": "0x5b8b26a6734b5eabdbe6c5a19580ab2d0424f027",
          "topics": [
            "0xbec73c77ba89c2c3ae92a9b6b0fd32d6702691976f3c31962a992499b08549e4",
            "0x0000000000000000000000000093e24af6ff1e6ac61ce756bd1f772be6187e89",
            "0x00000000000000000000000056e3665038c5f0b56cc7d81ac66c86521274b251"
          ],
          "data": "0x0000000000000000000000000000000000000000000000000000000000000020000000000000000000000000da4aaf85bb924b53dcc2dffa9e1a9c2ef97acfdf000000000000000000000000000ca4853bbdca1347f190bbf31b5bb564a849be00000000000000000000000015ff7cc1fa7963b0e31c3163b98f759c4caf41980000000000000000000000000000000000000000000000000000000000015180000000000000000000000000c02aaa39b223fe8d0a0e5c4f27ead9083c756cc200000000000000000000000005bb3e6a027fb13613f86ba0e5b54403806eacb400000000000000000000000000000000000000000000043c33c1937564800000000000000000000000000000000000000000000000000000000000000000016000000000000000000000000000000000000000000000000000000000000001a0000000000000000000000000000000000000000000000000000000000098968000000000000000000000000000000000000000000000000000000000000000000000000000000000000000000000000000000000000000000000000000000008616d706872455448000000000000000000000000000000000000000000000000000000000000000000000000000000000000000000000000000000000000000c544d582d4d45562d574554480000000000000000000000000000000000000000",
          "blockHash": "0xa8b6d71234bd8e4634f321e015cd2a124b81b789772b25a5e5f6eaab5c6f133d",
          "blockNumber": "0x166e0e6",
          "blockTimestamp": "0x68e3d87f",
          "transactionHash": "0x1f2c205d77330c2289da979cc758b8dc54784252d5964f9d6bc33827a570e86e",
          "transactionIndex": "0x61",
          "logIndex": "0x176",
          "removed": false
        }
      ],
      "logsBloom": "0x00000002080000000200000000000040000010000200000800880000000200000000000000000000000800000000000000010000000000000000004000000000000800000000000000000008000000000001000000000000000000000000000000000000020000001000400000010800800000000000000000000000000000c20000000000000000000800000000000000200000000080040000000002000004000000000000000000020000800000028000000000000000000000000000000000002020000004000000000000004000000004000004000000000010000020100000000000020000200000002000000000000200004000400000102004000000",
      "type": "0x2",
      "transactionHash": "0x1f2c205d77330c2289da979cc758b8dc54784252d5964f9d6bc33827a570e86e",
      "transactionIndex": "0x61",
      "blockHash": "0xa8b6d71234bd8e4634f321e015cd2a124b81b789772b25a5e5f6eaab5c6f133d",
      "blockNumber": "0x166e0e6",
      "gasUsed": "0x5f2b6",
      "effectiveGasPrice": "0x6d8439de",
      "from": "0x56e3665038c5f0b56cc7d81ac66c86521274b251",
      "to": "0x5b8b26a6734b5eabdbe6c5a19580ab2d0424f027",
      "contractAddress": null
    },
    {
      "status": "0x1",
      "cumulativeGasUsed": "0x1587564",
      "logs": [
        {
          "address": "0xb84f2a39b271d92586c61232a73ee1f7adfbf317",
          "topics": [
            "0x8c313170024355ce9211016d28e5e6f55ebaebad7fd43c86775ed3d3a3adadbb"
          ],
          "data": "0x0000000000000000000000000000000000000000000000000000000000000060000000000000000000000000000000000000000000000000000000000000000100000000000000000000000000000000000000000000000000000000000000010000000000000000000000000000000000000000000000000000000000000002000000000000000000000000d7114698d3d6de7389a6cb94dc6f3f9c2ea08d030000000000000000000000000093e24af6ff1e6ac61ce756bd1f772be6187e89",
          "blockHash": "0xd22dfd1963f1d9f1993970dfc54a96616cafdbf2577578874e3e0d54d76aaede",
          "blockNumber": "0x166e0e7",
          "blockTimestamp": "0x68e3d88b",
          "transactionHash": "0x30a6d23139bbfb696cc424de2c0e2f031e332650bf8b60c3f724702b44e31613",
          "transactionIndex": "0xa7",
          "logIndex": "0x277",
          "removed": false
        }
      ],
      "logsBloom": "0x00000000000000000000000000000000000000000000000000000000000000000000000000000000000000000000000000000000000000000000000000000000000000000000000000000000000000000000000000000000000000000000000000000000000000000000000000000000000000000002000000000000008000000000000000000000000020000000000000000008000000000000000000000000000000000000000000000010000000000000000000000000000000000000000000000000000000000000000000000000000000000000000000000000000000000000000000000200000000000000000000000000000000000000000000000000",
      "type": "0x2",
      "transactionHash": "0x30a6d23139bbfb696cc424de2c0e2f031e332650bf8b60c3f724702b44e31613",
      "transactionIndex": "0xa7",
      "blockHash": "0xd22dfd1963f1d9f1993970dfc54a96616cafdbf2577578874e3e0d54d76aaede",
      "blockNumber": "0x166e0e7",
      "gasUsed": "0x15ca5",
      "effectiveGasPrice": "0x6db65f49",
      "from": "0x56e3665038c5f0b56cc7d81ac66c86521274b251",
      "to": "0xda4aaf85bb924b53dcc2dffa9e1a9c2ef97acfdf",
      "contractAddress": null
    }
  ],
  "libraries": [],
  "pending": [],
  "returns": {},
  "timestamp": 1759762574,
  "chain": 1,
  "commit": "c600ad2"
}