{
  "transactions": [
    {
      "hash": "0x923babbc44267b5d847adcd042c282fb47028fb28db12503556c80ccf37b16fa",
      "transactionType": "CALL",
      "contractName": null,
      "contractAddress": "0x5b8b26a6734b5eabdbe6c5a19580ab2d0424f027",
      "function": "createVault((address,address,address,uint256,address,address,uint256,string,string,uint64,uint64),uint256)",
      "arguments": [
        "(0xDA4aAF85Bb924B53DCc2DFFa9e1A9C2Ef97aCFDF, 0x008c7DC790fA31E6CA19D8Cb6d11C53f6A88DF6c, 0x6383EDe871F8B0167905C2466505381CDcD9cC78, 86400, 0xA0b86991c6218b36c1d19D4a2e9Eb0cE3606eB48, 0x9bDeFe80D8cbD3cEda200B8ceA4B2c53Fc64D5F0, 50000000000000, TermMax USDC Vault V2, TermMax-USDC-Vault-V2, 0, 0)",
        "0"
      ],
      "transaction": {
        "from": "0x56e3665038c5f0b56cc7d81ac66c86521274b251",
        "to": "0x5b8b26a6734b5eabdbe6c5a19580ab2d0424f027",
        "gas": "0x87038",
        "value": "0x0",
        "input": "0x8f9f50ae00000000000000000000000000000000000000000000000000000000000000400000000000000000000000000000000000000000000000000000000000000000000000000000000000000000da4aaf85bb924b53dcc2dffa9e1a9c2ef97acfdf000000000000000000000000008c7dc790fa31e6ca19d8cb6d11c53f6a88df6c0000000000000000000000006383ede871f8b0167905c2466505381cdcd9cc780000000000000000000000000000000000000000000000000000000000015180000000000000000000000000a0b86991c6218b36c1d19d4a2e9eb0ce3606eb480000000000000000000000009bdefe80d8cbd3ceda200b8cea4b2c53fc64d5f000000000000000000000000000000000000000000000000000002d79883d2000000000000000000000000000000000000000000000000000000000000000016000000000000000000000000000000000000000000000000000000000000001a00000000000000000000000000000000000000000000000000000000000000000000000000000000000000000000000000000000000000000000000000000000000000000000000000000000000000000000000000000000000000000000000155465726d4d61782055534443205661756c74205632000000000000000000000000000000000000000000000000000000000000000000000000000000000000155465726d4d61782d555344432d5661756c742d56320000000000000000000000",
        "nonce": "0x4e6",
        "chainId": "0x1"
      },
      "additionalContracts": [
        {
          "transactionType": "CREATE2",
          "address": "0xf488ccdf04079cc03183cdb6a147d12cf97f9317",
          "initCode": "0x3d602d80600a3d3981f3363d3d373d3d3d363d739f1882ffbb007dd275c931ac302cfa97a4ceaa1d5af43d82803e903d91602b57fd5bf3"
        }
      ],
      "isFixedGasLimit": false
    },
    {
      "hash": "0xa7d651db92e86d06a327300c4e3c5d5de1d16eedbd1082e9ebac84861082a410",
      "transactionType": "CALL",
      "contractName": null,
      "contractAddress": "0x5b8b26a6734b5eabdbe6c5a19580ab2d0424f027",
      "function": "createVault((address,address,address,uint256,address,address,uint256,string,string,uint64,uint64),uint256)",
      "arguments": [
        "(0xDA4aAF85Bb924B53DCc2DFFa9e1A9C2Ef97aCFDF, 0x008c7DC790fA31E6CA19D8Cb6d11C53f6A88DF6c, 0x6383EDe871F8B0167905C2466505381CDcD9cC78, 86400, 0xC02aaA39b223FE8D0A0e5C4F27eAD9083C756Cc2, 0x08Cf668f5454e218c335cD8485466d58Ff4bd225, 5000000000000000000000, TermMax WETH Vault V2, TermMax-WETH-Vault-V2, 0, 0)",
        "0"
      ],
      "transaction": {
        "from": "0x56e3665038c5f0b56cc7d81ac66c86521274b251",
        "to": "0x5b8b26a6734b5eabdbe6c5a19580ab2d0424f027",
        "gas": "0x7cd19",
        "value": "0x0",
        "input": "0x8f9f50ae00000000000000000000000000000000000000000000000000000000000000400000000000000000000000000000000000000000000000000000000000000000000000000000000000000000da4aaf85bb924b53dcc2dffa9e1a9c2ef97acfdf000000000000000000000000008c7dc790fa31e6ca19d8cb6d11c53f6a88df6c0000000000000000000000006383ede871f8b0167905c2466505381cdcd9cc780000000000000000000000000000000000000000000000000000000000015180000000000000000000000000c02aaa39b223fe8d0a0e5c4f27ead9083c756cc200000000000000000000000008cf668f5454e218c335cd8485466d58ff4bd22500000000000000000000000000000000000000000000010f0cf064dd59200000000000000000000000000000000000000000000000000000000000000000016000000000000000000000000000000000000000000000000000000000000001a00000000000000000000000000000000000000000000000000000000000000000000000000000000000000000000000000000000000000000000000000000000000000000000000000000000000000000000000000000000000000000000000155465726d4d61782057455448205661756c74205632000000000000000000000000000000000000000000000000000000000000000000000000000000000000155465726d4d61782d574554482d5661756c742d56320000000000000000000000",
        "nonce": "0x4e7",
        "chainId": "0x1"
      },
      "additionalContracts": [
        {
          "transactionType": "CREATE2",
          "address": "0x95fb87609f80c47e3102b976455023d2b9be9b8f",
          "initCode": "0x3d602d80600a3d3981f3363d3d373d3d3d363d739f1882ffbb007dd275c931ac302cfa97a4ceaa1d5af43d82803e903d91602b57fd5bf3"
        }
      ],
      "isFixedGasLimit": false
    },
    {
      "hash": "0x564aa81f700572b089a2b5e343262d457c811a2b921949fe07f7281a06be2bad",
      "transactionType": "CALL",
      "contractName": "ERC1967Proxy",
      "contractAddress": "0xda4aaf85bb924b53dcc2dffa9e1a9c2ef97acfdf",
      "function": null,
      "arguments": null,
      "transaction": {
        "from": "0x56e3665038c5f0b56cc7d81ac66c86521274b251",
        "to": "0xda4aaf85bb924b53dcc2dffa9e1a9c2ef97acfdf",
        "gas": "0x1fdf5",
        "value": "0x0",
        "input": "0x34ae51fe000000000000000000000000b84f2a39b271d92586c61232a73ee1f7adfbf3170000000000000000000000000000000000000000000000000000000000000080000000000000000000000000000000000000000000000000000000000000000100000000000000000000000000000000000000000000000000000000000000010000000000000000000000000000000000000000000000000000000000000002000000000000000000000000f488ccdf04079cc03183cdb6a147d12cf97f931700000000000000000000000095fb87609f80c47e3102b976455023d2b9be9b8f",
        "nonce": "0x4e8",
        "chainId": "0x1"
      },
      "additionalContracts": [],
      "isFixedGasLimit": false
    }
  ],
  "receipts": [
    {
      "status": "0x1",
      "cumulativeGasUsed": "0x147fe0f",
      "logs": [
        {
          "address": "0xf488ccdf04079cc03183cdb6a147d12cf97f9317",
          "topics": [
            "0x8be0079c531659141344cd1fd0a4f28419497f9722a3daafe3b4186f6b6457e0",
            "0x0000000000000000000000000000000000000000000000000000000000000000",
            "0x000000000000000000000000da4aaf85bb924b53dcc2dffa9e1a9c2ef97acfdf"
          ],
          "data": "0x",
          "blockHash": "0x4a44b1f2fb6c6a197858c997ae9d1d4aba4a1c16e110c6a3af2d275c42a61eb7",
          "blockNumber": "0x1666de6",
          "blockTimestamp": "0x68de6c3f",
          "transactionHash": "0x923babbc44267b5d847adcd042c282fb47028fb28db12503556c80ccf37b16fa",
          "transactionIndex": "0xd5",
          "logIndex": "0x18f",
          "removed": false
        },
        {
          "address": "0xf488ccdf04079cc03183cdb6a147d12cf97f9317",
          "topics": [
            "0x20affe2401825617c69366f8c3a3493d9822d1021d0b3023c4e77ea5b3d0fbc5",
            "0x0000000000000000000000005b8b26a6734b5eabdbe6c5a19580ab2d0424f027"
          ],
          "data": "0x0000000000000000000000000000000000000000000000000000000000000000",
          "blockHash": "0x4a44b1f2fb6c6a197858c997ae9d1d4aba4a1c16e110c6a3af2d275c42a61eb7",
          "blockNumber": "0x1666de6",
          "blockTimestamp": "0x68de6c3f",
          "transactionHash": "0x923babbc44267b5d847adcd042c282fb47028fb28db12503556c80ccf37b16fa",
          "transactionIndex": "0xd5",
          "logIndex": "0x190",
          "removed": false
        },
        {
          "address": "0xf488ccdf04079cc03183cdb6a147d12cf97f9317",
          "topics": [
            "0xd28e9b90ee9b37c5936ff84392d71f29ff18117d7e76bcee60615262a90a3f75",
            "0x0000000000000000000000005b8b26a6734b5eabdbe6c5a19580ab2d0424f027"
          ],
          "data": "0x0000000000000000000000000000000000000000000000000000000000015180",
          "blockHash": "0x4a44b1f2fb6c6a197858c997ae9d1d4aba4a1c16e110c6a3af2d275c42a61eb7",
          "blockNumber": "0x1666de6",
          "blockTimestamp": "0x68de6c3f",
          "transactionHash": "0x923babbc44267b5d847adcd042c282fb47028fb28db12503556c80ccf37b16fa",
          "transactionIndex": "0xd5",
          "logIndex": "0x191",
          "removed": false
        },
        {
          "address": "0xf488ccdf04079cc03183cdb6a147d12cf97f9317",
          "topics": [
            "0x0cdc8c1df674ca6c4f86f6d47b02a15083c5d3bf098ea38f02c2762bad0afad2",
            "0x0000000000000000000000005b8b26a6734b5eabdbe6c5a19580ab2d0424f027"
          ],
          "data": "0x0000000000000000000000000000000000000000000000000000000000000000",
          "blockHash": "0x4a44b1f2fb6c6a197858c997ae9d1d4aba4a1c16e110c6a3af2d275c42a61eb7",
          "blockNumber": "0x1666de6",
          "blockTimestamp": "0x68de6c3f",
          "transactionHash": "0x923babbc44267b5d847adcd042c282fb47028fb28db12503556c80ccf37b16fa",
          "transactionIndex": "0xd5",
          "logIndex": "0x192",
          "removed": false
        },
        {
          "address": "0xf488ccdf04079cc03183cdb6a147d12cf97f9317",
          "topics": [
            "0xcb11cc8aade2f5a556749d1b2380d108a16fac3431e6a5d5ce12ef9de0bd76e3",
            "0x0000000000000000000000005b8b26a6734b5eabdbe6c5a19580ab2d0424f027"
          ],
          "data": "0x0000000000000000000000006383ede871f8b0167905c2466505381cdcd9cc78",
          "blockHash": "0x4a44b1f2fb6c6a197858c997ae9d1d4aba4a1c16e110c6a3af2d275c42a61eb7",
          "blockNumber": "0x1666de6",
          "blockTimestamp": "0x68de6c3f",
          "transactionHash": "0x923babbc44267b5d847adcd042c282fb47028fb28db12503556c80ccf37b16fa",
          "transactionIndex": "0xd5",
          "logIndex": "0x193",
          "removed": false
        },
        {
          "address": "0xf488ccdf04079cc03183cdb6a147d12cf97f9317",
          "topics": [
            "0x51fa58fd85e72d533eb3933ef4dd0bb83a9614f46e076ffa025b0dcbb8dff315",
            "0x0000000000000000000000005b8b26a6734b5eabdbe6c5a19580ab2d0424f027"
          ],
          "data": "0x00000000000000000000000000000000000000000000000000002d79883d2000",
          "blockHash": "0x4a44b1f2fb6c6a197858c997ae9d1d4aba4a1c16e110c6a3af2d275c42a61eb7",
          "blockNumber": "0x1666de6",
          "blockTimestamp": "0x68de6c3f",
          "transactionHash": "0x923babbc44267b5d847adcd042c282fb47028fb28db12503556c80ccf37b16fa",
          "transactionIndex": "0xd5",
          "logIndex": "0x194",
          "removed": false
        },
        {
          "address": "0xf488ccdf04079cc03183cdb6a147d12cf97f9317",
          "topics": [
            "0xbd0a63c12948fbc9194a5839019f99c9d71db924e5c70018265bc778b8f1a506"
          ],
          "data": "0x000000000000000000000000008c7dc790fa31e6ca19d8cb6d11c53f6a88df6c",
          "blockHash": "0x4a44b1f2fb6c6a197858c997ae9d1d4aba4a1c16e110c6a3af2d275c42a61eb7",
          "blockNumber": "0x1666de6",
          "blockTimestamp": "0x68de6c3f",
          "transactionHash": "0x923babbc44267b5d847adcd042c282fb47028fb28db12503556c80ccf37b16fa",
          "transactionIndex": "0xd5",
          "logIndex": "0x195",
          "removed": false
        },
        {
          "address": "0xf488ccdf04079cc03183cdb6a147d12cf97f9317",
          "topics": [
            "0x390ace337562623e4cf938891cfa7e80b7b2e6ff395963aba93e537ce67e842c",
            "0x0000000000000000000000005b8b26a6734b5eabdbe6c5a19580ab2d0424f027",
            "0x0000000000000000000000009bdefe80d8cbd3ceda200b8cea4b2c53fc64d5f0"
          ],
          "data": "0x",
          "blockHash": "0x4a44b1f2fb6c6a197858c997ae9d1d4aba4a1c16e110c6a3af2d275c42a61eb7",
          "blockNumber": "0x1666de6",
          "blockTimestamp": "0x68de6c3f",
          "transactionHash": "0x923babbc44267b5d847adcd042c282fb47028fb28db12503556c80ccf37b16fa",
          "transactionIndex": "0xd5",
          "logIndex": "0x196",
          "removed": false
        },
        {
          "address": "0xf488ccdf04079cc03183cdb6a147d12cf97f9317",
          "topics": [
            "0xc7f505b2f371ae2175ee4913f4499e1f2633a7b5936321eed1cdaeb6115181d2"
          ],
          "data": "0x0000000000000000000000000000000000000000000000000000000000000001",
          "blockHash": "0x4a44b1f2fb6c6a197858c997ae9d1d4aba4a1c16e110c6a3af2d275c42a61eb7",
          "blockNumber": "0x1666de6",
          "blockTimestamp": "0x68de6c3f",
          "transactionHash": "0x923babbc44267b5d847adcd042c282fb47028fb28db12503556c80ccf37b16fa",
          "transactionIndex": "0xd5",
          "logIndex": "0x197",
          "removed": false
        },
        {
          "address": "0x5b8b26a6734b5eabdbe6c5a19580ab2d0424f027",
          "topics": [
            "0xbec73c77ba89c2c3ae92a9b6b0fd32d6702691976f3c31962a992499b08549e4",
            "0x000000000000000000000000f488ccdf04079cc03183cdb6a147d12cf97f9317",
            "0x00000000000000000000000056e3665038c5f0b56cc7d81ac66c86521274b251"
          ],
          "data": "0x0000000000000000000000000000000000000000000000000000000000000020000000000000000000000000da4aaf85bb924b53dcc2dffa9e1a9c2ef97acfdf000000000000000000000000008c7dc790fa31e6ca19d8cb6d11c53f6a88df6c0000000000000000000000006383ede871f8b0167905c2466505381cdcd9cc780000000000000000000000000000000000000000000000000000000000015180000000000000000000000000a0b86991c6218b36c1d19d4a2e9eb0ce3606eb480000000000000000000000009bdefe80d8cbd3ceda200b8cea4b2c53fc64d5f000000000000000000000000000000000000000000000000000002d79883d2000000000000000000000000000000000000000000000000000000000000000016000000000000000000000000000000000000000000000000000000000000001a00000000000000000000000000000000000000000000000000000000000000000000000000000000000000000000000000000000000000000000000000000000000000000000000000000000000000000000000000000000000000000000000155465726d4d61782055534443205661756c74205632000000000000000000000000000000000000000000000000000000000000000000000000000000000000155465726d4d61782d555344432d5661756c742d56320000000000000000000000",
          "blockHash": "0x4a44b1f2fb6c6a197858c997ae9d1d4aba4a1c16e110c6a3af2d275c42a61eb7",
          "blockNumber": "0x1666de6",
          "blockTimestamp": "0x68de6c3f",
          "transactionHash": "0x923babbc44267b5d847adcd042c282fb47028fb28db12503556c80ccf37b16fa",
          "transactionIndex": "0xd5",
          "logIndex": "0x198",
          "removed": false
        }
      ],
      "logsBloom": "0x00000002000000000200000010000040000000000000000800880000000200000000000000000000000800000000000000010000000000000000004000000000000880000000000000000008000000000001000000000000000000000000000000000000020000200000400000010800800000800000000000000000000000c2000000000100000000080000080000000020000000008004000000000a000004000000000000000000002000800000028000000000000000000000020000000000002020000004000000000000004000000004000004000000000000000020100000000000000000200000002000000000000200000000400000102000000000",
      "type": "0x2",
      "transactionHash": "0x923babbc44267b5d847adcd042c282fb47028fb28db12503556c80ccf37b16fa",
      "transactionIndex": "0xd5",
      "blockHash": "0x4a44b1f2fb6c6a197858c997ae9d1d4aba4a1c16e110c6a3af2d275c42a61eb7",
      "blockNumber": "0x1666de6",
      "gasUsed": "0x5c513",
      "effectiveGasPrice": "0x1daa1272",
      "from": "0x56e3665038c5f0b56cc7d81ac66c86521274b251",
      "to": "0x5b8b26a6734b5eabdbe6c5a19580ab2d0424f027",
      "contractAddress": null
    },
    {
      "status": "0x1",
      "cumulativeGasUsed": "0xe2c0e0",
      "logs": [
        {
          "address": "0x95fb87609f80c47e3102b976455023d2b9be9b8f",
          "topics": [
            "0x8be0079c531659141344cd1fd0a4f28419497f9722a3daafe3b4186f6b6457e0",
            "0x0000000000000000000000000000000000000000000000000000000000000000",
            "0x000000000000000000000000da4aaf85bb924b53dcc2dffa9e1a9c2ef97acfdf"
          ],
          "data": "0x",
          "blockHash": "0x03cdee4720d43047daec610f593a355a0deed39c391f82d8529ab70610a9d248",
          "blockNumber": "0x1666de7",
          "blockTimestamp": "0x68de6c4b",
          "transactionHash": "0xa7d651db92e86d06a327300c4e3c5d5de1d16eedbd1082e9ebac84861082a410",
          "transactionIndex": "0xaf",
          "logIndex": "0x1d4",
          "removed": false
        },
        {
          "address": "0x95fb87609f80c47e3102b976455023d2b9be9b8f",
          "topics": [
            "0x20affe2401825617c69366f8c3a3493d9822d1021d0b3023c4e77ea5b3d0fbc5",
            "0x0000000000000000000000005b8b26a6734b5eabdbe6c5a19580ab2d0424f027"
          ],
          "data": "0x0000000000000000000000000000000000000000000000000000000000000000",
          "blockHash": "0x03cdee4720d43047daec610f593a355a0deed39c391f82d8529ab70610a9d248",
          "blockNumber": "0x1666de7",
          "blockTimestamp": "0x68de6c4b",
          "transactionHash": "0xa7d651db92e86d06a327300c4e3c5d5de1d16eedbd1082e9ebac84861082a410",
          "transactionIndex": "0xaf",
          "logIndex": "0x1d5",
          "removed": false
        },
        {
          "address": "0x95fb87609f80c47e3102b976455023d2b9be9b8f",
          "topics": [
            "0xd28e9b90ee9b37c5936ff84392d71f29ff18117d7e76bcee60615262a90a3f75",
            "0x0000000000000000000000005b8b26a6734b5eabdbe6c5a19580ab2d0424f027"
          ],
          "data": "0x0000000000000000000000000000000000000000000000000000000000015180",
          "blockHash": "0x03cdee4720d43047daec610f593a355a0deed39c391f82d8529ab70610a9d248",
          "blockNumber": "0x1666de7",
          "blockTimestamp": "0x68de6c4b",
          "transactionHash": "0xa7d651db92e86d06a327300c4e3c5d5de1d16eedbd1082e9ebac84861082a410",
          "transactionIndex": "0xaf",
          "logIndex": "0x1d6",
          "removed": false
        },
        {
          "address": "0x95fb87609f80c47e3102b976455023d2b9be9b8f",
          "topics": [
            "0x0cdc8c1df674ca6c4f86f6d47b02a15083c5d3bf098ea38f02c2762bad0afad2",
            "0x0000000000000000000000005b8b26a6734b5eabdbe6c5a19580ab2d0424f027"
          ],
          "data": "0x0000000000000000000000000000000000000000000000000000000000000000",
          "blockHash": "0x03cdee4720d43047daec610f593a355a0deed39c391f82d8529ab70610a9d248",
          "blockNumber": "0x1666de7",
          "blockTimestamp": "0x68de6c4b",
          "transactionHash": "0xa7d651db92e86d06a327300c4e3c5d5de1d16eedbd1082e9ebac84861082a410",
          "transactionIndex": "0xaf",
          "logIndex": "0x1d7",
          "removed": false
        },
        {
          "address": "0x95fb87609f80c47e3102b976455023d2b9be9b8f",
          "topics": [
            "0xcb11cc8aade2f5a556749d1b2380d108a16fac3431e6a5d5ce12ef9de0bd76e3",
            "0x0000000000000000000000005b8b26a6734b5eabdbe6c5a19580ab2d0424f027"
          ],
          "data": "0x0000000000000000000000006383ede871f8b0167905c2466505381cdcd9cc78",
          "blockHash": "0x03cdee4720d43047daec610f593a355a0deed39c391f82d8529ab70610a9d248",
          "blockNumber": "0x1666de7",
          "blockTimestamp": "0x68de6c4b",
          "transactionHash": "0xa7d651db92e86d06a327300c4e3c5d5de1d16eedbd1082e9ebac84861082a410",
          "transactionIndex": "0xaf",
          "logIndex": "0x1d8",
          "removed": false
        },
        {
          "address": "0x95fb87609f80c47e3102b976455023d2b9be9b8f",
          "topics": [
            "0x51fa58fd85e72d533eb3933ef4dd0bb83a9614f46e076ffa025b0dcbb8dff315",
            "0x0000000000000000000000005b8b26a6734b5eabdbe6c5a19580ab2d0424f027"
          ],
          "data": "0x00000000000000000000000000000000000000000000010f0cf064dd59200000",
          "blockHash": "0x03cdee4720d43047daec610f593a355a0deed39c391f82d8529ab70610a9d248",
          "blockNumber": "0x1666de7",
          "blockTimestamp": "0x68de6c4b",
          "transactionHash": "0xa7d651db92e86d06a327300c4e3c5d5de1d16eedbd1082e9ebac84861082a410",
          "transactionIndex": "0xaf",
          "logIndex": "0x1d9",
          "removed": false
        },
        {
          "address": "0x95fb87609f80c47e3102b976455023d2b9be9b8f",
          "topics": [
            "0xbd0a63c12948fbc9194a5839019f99c9d71db924e5c70018265bc778b8f1a506"
          ],
          "data": "0x000000000000000000000000008c7dc790fa31e6ca19d8cb6d11c53f6a88df6c",
          "blockHash": "0x03cdee4720d43047daec610f593a355a0deed39c391f82d8529ab70610a9d248",
          "blockNumber": "0x1666de7",
          "blockTimestamp": "0x68de6c4b",
          "transactionHash": "0xa7d651db92e86d06a327300c4e3c5d5de1d16eedbd1082e9ebac84861082a410",
          "transactionIndex": "0xaf",
          "logIndex": "0x1da",
          "removed": false
        },
        {
          "address": "0x95fb87609f80c47e3102b976455023d2b9be9b8f",
          "topics": [
            "0x390ace337562623e4cf938891cfa7e80b7b2e6ff395963aba93e537ce67e842c",
            "0x0000000000000000000000005b8b26a6734b5eabdbe6c5a19580ab2d0424f027",
            "0x00000000000000000000000008cf668f5454e218c335cd8485466d58ff4bd225"
          ],
          "data": "0x",
          "blockHash": "0x03cdee4720d43047daec610f593a355a0deed39c391f82d8529ab70610a9d248",
          "blockNumber": "0x1666de7",
          "blockTimestamp": "0x68de6c4b",
          "transactionHash": "0xa7d651db92e86d06a327300c4e3c5d5de1d16eedbd1082e9ebac84861082a410",
          "transactionIndex": "0xaf",
          "logIndex": "0x1db",
          "removed": false
        },
        {
          "address": "0x95fb87609f80c47e3102b976455023d2b9be9b8f",
          "topics": [
            "0xc7f505b2f371ae2175ee4913f4499e1f2633a7b5936321eed1cdaeb6115181d2"
          ],
          "data": "0x0000000000000000000000000000000000000000000000000000000000000001",
          "blockHash": "0x03cdee4720d43047daec610f593a355a0deed39c391f82d8529ab70610a9d248",
          "blockNumber": "0x1666de7",
          "blockTimestamp": "0x68de6c4b",
          "transactionHash": "0xa7d651db92e86d06a327300c4e3c5d5de1d16eedbd1082e9ebac84861082a410",
          "transactionIndex": "0xaf",
          "logIndex": "0x1dc",
          "removed": false
        },
        {
          "address": "0x5b8b26a6734b5eabdbe6c5a19580ab2d0424f027",
          "topics": [
            "0xbec73c77ba89c2c3ae92a9b6b0fd32d6702691976f3c31962a992499b08549e4",
            "0x00000000000000000000000095fb87609f80c47e3102b976455023d2b9be9b8f",
            "0x00000000000000000000000056e3665038c5f0b56cc7d81ac66c86521274b251"
          ],
          "data": "0x0000000000000000000000000000000000000000000000000000000000000020000000000000000000000000da4aaf85bb924b53dcc2dffa9e1a9c2ef97acfdf000000000000000000000000008c7dc790fa31e6ca19d8cb6d11c53f6a88df6c0000000000000000000000006383ede871f8b0167905c2466505381cdcd9cc780000000000000000000000000000000000000000000000000000000000015180000000000000000000000000c02aaa39b223fe8d0a0e5c4f27ead9083c756cc200000000000000000000000008cf668f5454e218c335cd8485466d58ff4bd22500000000000000000000000000000000000000000000010f0cf064dd59200000000000000000000000000000000000000000000000000000000000000000016000000000000000000000000000000000000000000000000000000000000001a00000000000000000000000000000000000000000000000000000000000000000000000000000000000000000000000000000000000000000000000000000000000000000000000000000000000000000000000000000000000000000000000155465726d4d61782057455448205661756c74205632000000000000000000000000000000000000000000000000000000000000000000000000000000000000155465726d4d61782d574554482d5661756c742d56320000000000000000000000",
          "blockHash": "0x03cdee4720d43047daec610f593a355a0deed39c391f82d8529ab70610a9d248",
          "blockNumber": "0x1666de7",
          "blockTimestamp": "0x68de6c4b",
          "transactionHash": "0xa7d651db92e86d06a327300c4e3c5d5de1d16eedbd1082e9ebac84861082a410",
          "transactionIndex": "0xaf",
          "logIndex": "0x1dd",
          "removed": false
        }
      ],
      "logsBloom": "0x00000002010000000200000000000040000400000000000800880000000200000000000000000000000800000000000000010000800000000000004000000000000800000000000000000008000000000001000000000000000000000000000000000000020000000000400000010800800000000000000000000000000000c20004000000000000000800000000000000200000000080040000000002000004000000000000000000020000830000028000000000000000000000000000000000002020000004000000010000004000000004000004000000000000000020100000000000000000200000002000000000008200000000400000102000000000",
      "type": "0x2",
      "transactionHash": "0xa7d651db92e86d06a327300c4e3c5d5de1d16eedbd1082e9ebac84861082a410",
      "transactionIndex": "0xaf",
      "blockHash": "0x03cdee4720d43047daec610f593a355a0deed39c391f82d8529ab70610a9d248",
      "blockNumber": "0x1666de7",
      "gasUsed": "0x5a5de",
      "effectiveGasPrice": "0x1e08d747",
      "from": "0x56e3665038c5f0b56cc7d81ac66c86521274b251",
      "to": "0x5b8b26a6734b5eabdbe6c5a19580ab2d0424f027",
      "contractAddress": null
    },
    {
      "status": "0x1",
      "cumulativeGasUsed": "0xe70f0f",
      "logs": [
        {
          "address": "0xb84f2a39b271d92586c61232a73ee1f7adfbf317",
          "topics": [
            "0x8c313170024355ce9211016d28e5e6f55ebaebad7fd43c86775ed3d3a3adadbb"
          ],
          "data": "0x0000000000000000000000000000000000000000000000000000000000000060000000000000000000000000000000000000000000000000000000000000000100000000000000000000000000000000000000000000000000000000000000010000000000000000000000000000000000000000000000000000000000000002000000000000000000000000f488ccdf04079cc03183cdb6a147d12cf97f931700000000000000000000000095fb87609f80c47e3102b976455023d2b9be9b8f",
          "blockHash": "0x402e818000a41dcc15e8e396b74fc6666323d0db04d8c46f7d3df1a94252916d",
          "blockNumber": "0x1666de8",
          "blockTimestamp": "0x68de6c57",
          "transactionHash": "0x564aa81f700572b089a2b5e343262d457c811a2b921949fe07f7281a06be2bad",
          "transactionIndex": "0xb7",
          "logIndex": "0x152",
          "removed": false
        }
      ],
      "logsBloom": "0x00000000000000000000000000000000000000000000000000000000000000000000000000000000000000000000000000000000000000000000000000000000000000000000000000000000000000000000000000000000000000000000000000000000000000000000000000000000000000000002000000000000008000000000000000000000000020000000000000000008000000000000000000000000000000000000000000000010000000000000000000000000000000000000000000000000000000000000000000000000000000000000000000000000000000000000000000000200000000000000000000000000000000000000000000000000",
      "type": "0x2",
      "transactionHash": "0x564aa81f700572b089a2b5e343262d457c811a2b921949fe07f7281a06be2bad",
      "transactionIndex": "0xb7",
      "blockHash": "0x402e818000a41dcc15e8e396b74fc6666323d0db04d8c46f7d3df1a94252916d",
      "blockNumber": "0x1666de8",
      "gasUsed": "0x15cb1",
      "effectiveGasPrice": "0x1e150233",
      "from": "0x56e3665038c5f0b56cc7d81ac66c86521274b251",
      "to": "0xda4aaf85bb924b53dcc2dffa9e1a9c2ef97acfdf",
      "contractAddress": null
    }
  ],
  "libraries": [],
  "pending": [],
  "returns": {},
  "timestamp": 1759407197,
  "chain": 1,
  "commit": "9e4c713"
}