{
  "transactions": [
    {
      "hash": "0x9ae51f245d886a155b727a219303b102864f58b71bbe64b4f06c659364a2889e",
      "transactionType": "CALL",
      "contractName": "TermMaxVaultFactoryV2",
      "contractAddress": "0x5b8b26a6734b5eabdbe6c5a19580ab2d0424f027",
      "function": "createVault((address,address,address,uint256,address,address,uint256,string,string,uint64,uint64),uint256)",
      "arguments": [
        "(0xDA4aAF85Bb924B53DCc2DFFa9e1A9C2Ef97aCFDF, 0x008c7DC790fA31E6CA19D8Cb6d11C53f6A88DF6c, 0x6383EDe871F8B0167905C2466505381CDcD9cC78, 86400, 0x2260FAC5E5542a773Aa44fBCfeDf7C193bc2C599, 0xe7fdc82D486b5D07A9556952f75E31713DE3c948, 40000000000, TermMax WBTC V2, TMX-WBTC, 0, 0)",
        "0"
      ],
      "transaction": {
        "from": "0x56e3665038c5f0b56cc7d81ac66c86521274b251",
        "to": "0x5b8b26a6734b5eabdbe6c5a19580ab2d0424f027",
        "gas": "0x8426b",
        "value": "0x0",
        "input": "0x8f9f50ae00000000000000000000000000000000000000000000000000000000000000400000000000000000000000000000000000000000000000000000000000000000000000000000000000000000da4aaf85bb924b53dcc2dffa9e1a9c2ef97acfdf000000000000000000000000008c7dc790fa31e6ca19d8cb6d11c53f6a88df6c0000000000000000000000006383ede871f8b0167905c2466505381cdcd9cc7800000000000000000000000000000000000000000000000000000000000151800000000000000000000000002260fac5e5542a773aa44fbcfedf7c193bc2c599000000000000000000000000e7fdc82d486b5d07a9556952f75e31713de3c94800000000000000000000000000000000000000000000000000000009502f9000000000000000000000000000000000000000000000000000000000000000016000000000000000000000000000000000000000000000000000000000000001a000000000000000000000000000000000000000000000000000000000000000000000000000000000000000000000000000000000000000000000000000000000000000000000000000000000000000000000000000000000000000000000000f5465726d4d6178205742544320563200000000000000000000000000000000000000000000000000000000000000000000000000000000000000000000000008544d582d57425443000000000000000000000000000000000000000000000000",
        "nonce": "0x535",
        "chainId": "0x1"
      },
      "additionalContracts": [
        {
          "transactionType": "CREATE2",
          "address": "0xb3c2c8c6670bb1dbe20cd37193d7e1334730e333",
          "initCode": "0x3d602d80600a3d3981f3363d3d373d3d3d363d739f1882ffbb007dd275c931ac302cfa97a4ceaa1d5af43d82803e903d91602b57fd5bf3"
        }
      ],
      "isFixedGasLimit": false
    },
    {
      "hash": "0x16f6ba938f693b031700b162edcc56b128f3475881458e3d573fd48647b8735b",
      "transactionType": "CALL",
      "contractName": "TermMaxVaultFactoryV2",
      "contractAddress": "0x5b8b26a6734b5eabdbe6c5a19580ab2d0424f027",
      "function": "createVault((address,address,address,uint256,address,address,uint256,string,string,uint64,uint64),uint256)",
      "arguments": [
        "(0xDA4aAF85Bb924B53DCc2DFFa9e1A9C2Ef97aCFDF, 0x6788c8ad65E85CCa7224a0B46D061EF7D81F9Da5, 0x9fe66037c44236c87D9Ac8345F489b4413fDFf06, 86400, 0xdde3eC717f220Fc6A29D6a4Be73F91DA5b718e55, 0x3559EC54a05c46a83EFF200A2f3fDc1F054568cd, 500000000000000000000000000, USDU Core, AP-USDU, 0, 0)",
        "0"
      ],
      "transaction": {
        "from": "0x56e3665038c5f0b56cc7d81ac66c86521274b251",
        "to": "0x5b8b26a6734b5eabdbe6c5a19580ab2d0424f027",
        "gas": "0x7c0cc",
        "value": "0x0",
        "input": "0x8f9f50ae00000000000000000000000000000000000000000000000000000000000000400000000000000000000000000000000000000000000000000000000000000000000000000000000000000000da4aaf85bb924b53dcc2dffa9e1a9c2ef97acfdf0000000000000000000000006788c8ad65e85cca7224a0b46d061ef7d81f9da50000000000000000000000009fe66037c44236c87d9ac8345f489b4413fdff060000000000000000000000000000000000000000000000000000000000015180000000000000000000000000dde3ec717f220fc6a29d6a4be73f91da5b718e550000000000000000000000003559ec54a05c46a83eff200a2f3fdc1f054568cd0000000000000000000000000000000000000000019d971e4fe8401e74000000000000000000000000000000000000000000000000000000000000000000016000000000000000000000000000000000000000000000000000000000000001a00000000000000000000000000000000000000000000000000000000000000000000000000000000000000000000000000000000000000000000000000000000000000000000000000000000000000000000000000000000000000000000000095553445520436f72650000000000000000000000000000000000000000000000000000000000000000000000000000000000000000000000000000000000000741502d5553445500000000000000000000000000000000000000000000000000",
        "nonce": "0x536",
        "chainId": "0x1"
      },
      "additionalContracts": [
        {
          "transactionType": "CREATE2",
          "address": "0x18d91b5e3218ab16ef86fb7cb054cb48ba1e8b8e",
          "initCode": "0x3d602d80600a3d3981f3363d3d373d3d3d363d739f1882ffbb007dd275c931ac302cfa97a4ceaa1d5af43d82803e903d91602b57fd5bf3"
        }
      ],
      "isFixedGasLimit": false
    },
    {
      "hash": "0xbb24745a55c818bf5ca8a448652adc442a7927618538024f8988f619055a00c8",
      "transactionType": "CALL",
      "contractName": "ERC1967Proxy",
      "contractAddress": "0xda4aaf85bb924b53dcc2dffa9e1a9c2ef97acfdf",
      "function": null,
      "arguments": null,
      "transaction": {
        "from": "0x56e3665038c5f0b56cc7d81ac66c86521274b251",
        "to": "0xda4aaf85bb924b53dcc2dffa9e1a9c2ef97acfdf",
        "gas": "0x1fdf5",
        "value": "0x0",
        "input": "0x34ae51fe000000000000000000000000b84f2a39b271d92586c61232a73ee1f7adfbf3170000000000000000000000000000000000000000000000000000000000000080000000000000000000000000000000000000000000000000000000000000000100000000000000000000000000000000000000000000000000000000000000010000000000000000000000000000000000000000000000000000000000000002000000000000000000000000b3c2c8c6670bb1dbe20cd37193d7e1334730e33300000000000000000000000018d91b5e3218ab16ef86fb7cb054cb48ba1e8b8e",
        "nonce": "0x537",
        "chainId": "0x1"
      },
      "additionalContracts": [],
      "isFixedGasLimit": false
    }
  ],
  "receipts": [
    {
      "status": "0x1",
      "cumulativeGasUsed": "0x2a9ce03",
      "logs": [
        {
          "address": "0xb3c2c8c6670bb1dbe20cd37193d7e1334730e333",
          "topics": [
            "0x8be0079c531659141344cd1fd0a4f28419497f9722a3daafe3b4186f6b6457e0",
            "0x0000000000000000000000000000000000000000000000000000000000000000",
            "0x000000000000000000000000da4aaf85bb924b53dcc2dffa9e1a9c2ef97acfdf"
          ],
          "data": "0x",
          "blockHash": "0x0327250209067326f42bc54ca57689478e7f45dc7dfbcf79d77fa824ac0ef6e2",
          "blockNumber": "0x166f660",
          "blockTimestamp": "0x68e4dc23",
          "transactionHash": "0x9ae51f245d886a155b727a219303b102864f58b71bbe64b4f06c659364a2889e",
          "transactionIndex": "0x1ad",
          "logIndex": "0x42a",
          "removed": false
        },
        {
          "address": "0xb3c2c8c6670bb1dbe20cd37193d7e1334730e333",
          "topics": [
            "0x20affe2401825617c69366f8c3a3493d9822d1021d0b3023c4e77ea5b3d0fbc5",
            "0x0000000000000000000000005b8b26a6734b5eabdbe6c5a19580ab2d0424f027"
          ],
          "data": "0x0000000000000000000000000000000000000000000000000000000000000000",
          "blockHash": "0x0327250209067326f42bc54ca57689478e7f45dc7dfbcf79d77fa824ac0ef6e2",
          "blockNumber": "0x166f660",
          "blockTimestamp": "0x68e4dc23",
          "transactionHash": "0x9ae51f245d886a155b727a219303b102864f58b71bbe64b4f06c659364a2889e",
          "transactionIndex": "0x1ad",
          "logIndex": "0x42b",
          "removed": false
        },
        {
          "address": "0xb3c2c8c6670bb1dbe20cd37193d7e1334730e333",
          "topics": [
            "0xd28e9b90ee9b37c5936ff84392d71f29ff18117d7e76bcee60615262a90a3f75",
            "0x0000000000000000000000005b8b26a6734b5eabdbe6c5a19580ab2d0424f027"
          ],
          "data": "0x0000000000000000000000000000000000000000000000000000000000015180",
          "blockHash": "0x0327250209067326f42bc54ca57689478e7f45dc7dfbcf79d77fa824ac0ef6e2",
          "blockNumber": "0x166f660",
          "blockTimestamp": "0x68e4dc23",
          "transactionHash": "0x9ae51f245d886a155b727a219303b102864f58b71bbe64b4f06c659364a2889e",
          "transactionIndex": "0x1ad",
          "logIndex": "0x42c",
          "removed": false
        },
        {
          "address": "0xb3c2c8c6670bb1dbe20cd37193d7e1334730e333",
          "topics": [
            "0x0cdc8c1df674ca6c4f86f6d47b02a15083c5d3bf098ea38f02c2762bad0afad2",
            "0x0000000000000000000000005b8b26a6734b5eabdbe6c5a19580ab2d0424f027"
          ],
          "data": "0x0000000000000000000000000000000000000000000000000000000000000000",
          "blockHash": "0x0327250209067326f42bc54ca57689478e7f45dc7dfbcf79d77fa824ac0ef6e2",
          "blockNumber": "0x166f660",
          "blockTimestamp": "0x68e4dc23",
          "transactionHash": "0x9ae51f245d886a155b727a219303b102864f58b71bbe64b4f06c659364a2889e",
          "transactionIndex": "0x1ad",
          "logIndex": "0x42d",
          "removed": false
        },
        {
          "address": "0xb3c2c8c6670bb1dbe20cd37193d7e1334730e333",
          "topics": [
            "0xcb11cc8aade2f5a556749d1b2380d108a16fac3431e6a5d5ce12ef9de0bd76e3",
            "0x0000000000000000000000005b8b26a6734b5eabdbe6c5a19580ab2d0424f027"
          ],
          "data": "0x0000000000000000000000006383ede871f8b0167905c2466505381cdcd9cc78",
          "blockHash": "0x0327250209067326f42bc54ca57689478e7f45dc7dfbcf79d77fa824ac0ef6e2",
          "blockNumber": "0x166f660",
          "blockTimestamp": "0x68e4dc23",
          "transactionHash": "0x9ae51f245d886a155b727a219303b102864f58b71bbe64b4f06c659364a2889e",
          "transactionIndex": "0x1ad",
          "logIndex": "0x42e",
          "removed": false
        },
        {
          "address": "0xb3c2c8c6670bb1dbe20cd37193d7e1334730e333",
          "topics": [
            "0x51fa58fd85e72d533eb3933ef4dd0bb83a9614f46e076ffa025b0dcbb8dff315",
            "0x0000000000000000000000005b8b26a6734b5eabdbe6c5a19580ab2d0424f027"
          ],
          "data": "0x00000000000000000000000000000000000000000000000000000009502f9000",
          "blockHash": "0x0327250209067326f42bc54ca57689478e7f45dc7dfbcf79d77fa824ac0ef6e2",
          "blockNumber": "0x166f660",
          "blockTimestamp": "0x68e4dc23",
          "transactionHash": "0x9ae51f245d886a155b727a219303b102864f58b71bbe64b4f06c659364a2889e",
          "transactionIndex": "0x1ad",
          "logIndex": "0x42f",
          "removed": false
        },
        {
          "address": "0xb3c2c8c6670bb1dbe20cd37193d7e1334730e333",
          "topics": [
            "0xbd0a63c12948fbc9194a5839019f99c9d71db924e5c70018265bc778b8f1a506"
          ],
          "data": "0x000000000000000000000000008c7dc790fa31e6ca19d8cb6d11c53f6a88df6c",
          "blockHash": "0x0327250209067326f42bc54ca57689478e7f45dc7dfbcf79d77fa824ac0ef6e2",
          "blockNumber": "0x166f660",
          "blockTimestamp": "0x68e4dc23",
          "transactionHash": "0x9ae51f245d886a155b727a219303b102864f58b71bbe64b4f06c659364a2889e",
          "transactionIndex": "0x1ad",
          "logIndex": "0x430",
          "removed": false
        },
        {
          "address": "0xb3c2c8c6670bb1dbe20cd37193d7e1334730e333",
          "topics": [
            "0x390ace337562623e4cf938891cfa7e80b7b2e6ff395963aba93e537ce67e842c",
            "0x0000000000000000000000005b8b26a6734b5eabdbe6c5a19580ab2d0424f027",
            "0x000000000000000000000000e7fdc82d486b5d07a9556952f75e31713de3c948"
          ],
          "data": "0x",
          "blockHash": "0x0327250209067326f42bc54ca57689478e7f45dc7dfbcf79d77fa824ac0ef6e2",
          "blockNumber": "0x166f660",
          "blockTimestamp": "0x68e4dc23",
          "transactionHash": "0x9ae51f245d886a155b727a219303b102864f58b71bbe64b4f06c659364a2889e",
          "transactionIndex": "0x1ad",
          "logIndex": "0x431",
          "removed": false
        },
        {
          "address": "0xb3c2c8c6670bb1dbe20cd37193d7e1334730e333",
          "topics": [
            "0xc7f505b2f371ae2175ee4913f4499e1f2633a7b5936321eed1cdaeb6115181d2"
          ],
          "data": "0x0000000000000000000000000000000000000000000000000000000000000001",
          "blockHash": "0x0327250209067326f42bc54ca57689478e7f45dc7dfbcf79d77fa824ac0ef6e2",
          "blockNumber": "0x166f660",
          "blockTimestamp": "0x68e4dc23",
          "transactionHash": "0x9ae51f245d886a155b727a219303b102864f58b71bbe64b4f06c659364a2889e",
          "transactionIndex": "0x1ad",
          "logIndex": "0x432",
          "removed": false
        },
        {
          "address": "0x5b8b26a6734b5eabdbe6c5a19580ab2d0424f027",
          "topics": [
            "0xbec73c77ba89c2c3ae92a9b6b0fd32d6702691976f3c31962a992499b08549e4",
            "0x000000000000000000000000b3c2c8c6670bb1dbe20cd37193d7e1334730e333",
            "0x00000000000000000000000056e3665038c5f0b56cc7d81ac66c86521274b251"
          ],
          "data": "0x0000000000000000000000000000000000000000000000000000000000000020000000000000000000000000da4aaf85bb924b53dcc2dffa9e1a9c2ef97acfdf000000000000000000000000008c7dc790fa31e6ca19d8cb6d11c53f6a88df6c0000000000000000000000006383ede871f8b0167905c2466505381cdcd9cc7800000000000000000000000000000000000000000000000000000000000151800000000000000000000000002260fac5e5542a773aa44fbcfedf7c193bc2c599000000000000000000000000e7fdc82d486b5d07a9556952f75e31713de3c94800000000000000000000000000000000000000000000000000000009502f9000000000000000000000000000000000000000000000000000000000000000016000000000000000000000000000000000000000000000000000000000000001a000000000000000000000000000000000000000000000000000000000000000000000000000000000000000000000000000000000000000000000000000000000000000000000000000000000000000000000000000000000000000000000000f5465726d4d6178205742544320563200000000000000000000000000000000000000000000000000000000000000000000000000000000000000000000000008544d582d57425443000000000000000000000000000000000000000000000000",
          "blockHash": "0x0327250209067326f42bc54ca57689478e7f45dc7dfbcf79d77fa824ac0ef6e2",
          "blockNumber": "0x166f660",
          "blockTimestamp": "0x68e4dc23",
          "transactionHash": "0x9ae51f245d886a155b727a219303b102864f58b71bbe64b4f06c659364a2889e",
          "transactionIndex": "0x1ad",
          "logIndex": "0x433",
          "removed": false
        }
      ],
      "logsBloom": "0x08000002000000000200000000000040000000000000000800880000000200000000000000000000000800000000000000010000010000000000004080000000000800000000000000000008000000000001000000000000000000000000000000000000020000000000400000010800800000000000000000000000a00000c20000002000000000000808000000000000208000000080040000000002000004000000000000000000000000800000028000000000000000000000000000000000002020000004800000000000004000000004000004000000000000000020100000000000000000200000002000000000000200000000400000102000000000",
      "type": "0x2",
      "transactionHash": "0x9ae51f245d886a155b727a219303b102864f58b71bbe64b4f06c659364a2889e",
      "transactionIndex": "0x1ad",
      "blockHash": "0x0327250209067326f42bc54ca57689478e7f45dc7dfbcf79d77fa824ac0ef6e2",
      "blockNumber": "0x166f660",
      "gasUsed": "0x5a5c2",
      "effectiveGasPrice": "0x9e329cd",
      "from": "0x56e3665038c5f0b56cc7d81ac66c86521274b251",
      "to": "0x5b8b26a6734b5eabdbe6c5a19580ab2d0424f027",
      "contractAddress": null
    },
    {
      "status": "0x1",
      "cumulativeGasUsed": "0x104f9b6",
      "logs": [
        {
          "address": "0x18d91b5e3218ab16ef86fb7cb054cb48ba1e8b8e",
          "topics": [
            "0x8be0079c531659141344cd1fd0a4f28419497f9722a3daafe3b4186f6b6457e0",
            "0x0000000000000000000000000000000000000000000000000000000000000000",
            "0x000000000000000000000000da4aaf85bb924b53dcc2dffa9e1a9c2ef97acfdf"
          ],
          "data": "0x",
          "blockHash": "0xfa8d91a9cc04ff366833a489302be97e86b8f2a7fb25054ffcc1be09a33c5220",
          "blockNumber": "0x166f661",
          "blockTimestamp": "0x68e4dc2f",
          "transactionHash": "0x16f6ba938f693b031700b162edcc56b128f3475881458e3d573fd48647b8735b",
          "transactionIndex": "0xb9",
          "logIndex": "0x1a4",
          "removed": false
        },
        {
          "address": "0x18d91b5e3218ab16ef86fb7cb054cb48ba1e8b8e",
          "topics": [
            "0x20affe2401825617c69366f8c3a3493d9822d1021d0b3023c4e77ea5b3d0fbc5",
            "0x0000000000000000000000005b8b26a6734b5eabdbe6c5a19580ab2d0424f027"
          ],
          "data": "0x0000000000000000000000000000000000000000000000000000000000000000",
          "blockHash": "0xfa8d91a9cc04ff366833a489302be97e86b8f2a7fb25054ffcc1be09a33c5220",
          "blockNumber": "0x166f661",
          "blockTimestamp": "0x68e4dc2f",
          "transactionHash": "0x16f6ba938f693b031700b162edcc56b128f3475881458e3d573fd48647b8735b",
          "transactionIndex": "0xb9",
          "logIndex": "0x1a5",
          "removed": false
        },
        {
          "address": "0x18d91b5e3218ab16ef86fb7cb054cb48ba1e8b8e",
          "topics": [
            "0xd28e9b90ee9b37c5936ff84392d71f29ff18117d7e76bcee60615262a90a3f75",
            "0x0000000000000000000000005b8b26a6734b5eabdbe6c5a19580ab2d0424f027"
          ],
          "data": "0x0000000000000000000000000000000000000000000000000000000000015180",
          "blockHash": "0xfa8d91a9cc04ff366833a489302be97e86b8f2a7fb25054ffcc1be09a33c5220",
          "blockNumber": "0x166f661",
          "blockTimestamp": "0x68e4dc2f",
          "transactionHash": "0x16f6ba938f693b031700b162edcc56b128f3475881458e3d573fd48647b8735b",
          "transactionIndex": "0xb9",
          "logIndex": "0x1a6",
          "removed": false
        },
        {
          "address": "0x18d91b5e3218ab16ef86fb7cb054cb48ba1e8b8e",
          "topics": [
            "0x0cdc8c1df674ca6c4f86f6d47b02a15083c5d3bf098ea38f02c2762bad0afad2",
            "0x0000000000000000000000005b8b26a6734b5eabdbe6c5a19580ab2d0424f027"
          ],
          "data": "0x0000000000000000000000000000000000000000000000000000000000000000",
          "blockHash": "0xfa8d91a9cc04ff366833a489302be97e86b8f2a7fb25054ffcc1be09a33c5220",
          "blockNumber": "0x166f661",
          "blockTimestamp": "0x68e4dc2f",
          "transactionHash": "0x16f6ba938f693b031700b162edcc56b128f3475881458e3d573fd48647b8735b",
          "transactionIndex": "0xb9",
          "logIndex": "0x1a7",
          "removed": false
        },
        {
          "address": "0x18d91b5e3218ab16ef86fb7cb054cb48ba1e8b8e",
          "topics": [
            "0xcb11cc8aade2f5a556749d1b2380d108a16fac3431e6a5d5ce12ef9de0bd76e3",
            "0x0000000000000000000000005b8b26a6734b5eabdbe6c5a19580ab2d0424f027"
          ],
          "data": "0x0000000000000000000000009fe66037c44236c87d9ac8345f489b4413fdff06",
          "blockHash": "0xfa8d91a9cc04ff366833a489302be97e86b8f2a7fb25054ffcc1be09a33c5220",
          "blockNumber": "0x166f661",
          "blockTimestamp": "0x68e4dc2f",
          "transactionHash": "0x16f6ba938f693b031700b162edcc56b128f3475881458e3d573fd48647b8735b",
          "transactionIndex": "0xb9",
          "logIndex": "0x1a8",
          "removed": false
        },
        {
          "address": "0x18d91b5e3218ab16ef86fb7cb054cb48ba1e8b8e",
          "topics": [
            "0x51fa58fd85e72d533eb3933ef4dd0bb83a9614f46e076ffa025b0dcbb8dff315",
            "0x0000000000000000000000005b8b26a6734b5eabdbe6c5a19580ab2d0424f027"
          ],
          "data": "0x0000000000000000000000000000000000000000019d971e4fe8401e74000000",
          "blockHash": "0xfa8d91a9cc04ff366833a489302be97e86b8f2a7fb25054ffcc1be09a33c5220",
          "blockNumber": "0x166f661",
          "blockTimestamp": "0x68e4dc2f",
          "transactionHash": "0x16f6ba938f693b031700b162edcc56b128f3475881458e3d573fd48647b8735b",
          "transactionIndex": "0xb9",
          "logIndex": "0x1a9",
          "removed": false
        },
        {
          "address": "0x18d91b5e3218ab16ef86fb7cb054cb48ba1e8b8e",
          "topics": [
            "0xbd0a63c12948fbc9194a5839019f99c9d71db924e5c70018265bc778b8f1a506"
          ],
          "data": "0x0000000000000000000000006788c8ad65e85cca7224a0b46d061ef7d81f9da5",
          "blockHash": "0xfa8d91a9cc04ff366833a489302be97e86b8f2a7fb25054ffcc1be09a33c5220",
          "blockNumber": "0x166f661",
          "blockTimestamp": "0x68e4dc2f",
          "transactionHash": "0x16f6ba938f693b031700b162edcc56b128f3475881458e3d573fd48647b8735b",
          "transactionIndex": "0xb9",
          "logIndex": "0x1aa",
          "removed": false
        },
        {
          "address": "0x18d91b5e3218ab16ef86fb7cb054cb48ba1e8b8e",
          "topics": [
            "0x390ace337562623e4cf938891cfa7e80b7b2e6ff395963aba93e537ce67e842c",
            "0x0000000000000000000000005b8b26a6734b5eabdbe6c5a19580ab2d0424f027",
            "0x0000000000000000000000003559ec54a05c46a83eff200a2f3fdc1f054568cd"
          ],
          "data": "0x",
          "blockHash": "0xfa8d91a9cc04ff366833a489302be97e86b8f2a7fb25054ffcc1be09a33c5220",
          "blockNumber": "0x166f661",
          "blockTimestamp": "0x68e4dc2f",
          "transactionHash": "0x16f6ba938f693b031700b162edcc56b128f3475881458e3d573fd48647b8735b",
          "transactionIndex": "0xb9",
          "logIndex": "0x1ab",
          "removed": false
        },
        {
          "address": "0x18d91b5e3218ab16ef86fb7cb054cb48ba1e8b8e",
          "topics": [
            "0xc7f505b2f371ae2175ee4913f4499e1f2633a7b5936321eed1cdaeb6115181d2"
          ],
          "data": "0x0000000000000000000000000000000000000000000000000000000000000001",
          "blockHash": "0xfa8d91a9cc04ff366833a489302be97e86b8f2a7fb25054ffcc1be09a33c5220",
          "blockNumber": "0x166f661",
          "blockTimestamp": "0x68e4dc2f",
          "transactionHash": "0x16f6ba938f693b031700b162edcc56b128f3475881458e3d573fd48647b8735b",
          "transactionIndex": "0xb9",
          "logIndex": "0x1ac",
          "removed": false
        },
        {
          "address": "0x5b8b26a6734b5eabdbe6c5a19580ab2d0424f027",
          "topics": [
            "0xbec73c77ba89c2c3ae92a9b6b0fd32d6702691976f3c31962a992499b08549e4",
            "0x00000000000000000000000018d91b5e3218ab16ef86fb7cb054cb48ba1e8b8e",
            "0x00000000000000000000000056e3665038c5f0b56cc7d81ac66c86521274b251"
          ],
          "data": "0x0000000000000000000000000000000000000000000000000000000000000020000000000000000000000000da4aaf85bb924b53dcc2dffa9e1a9c2ef97acfdf0000000000000000000000006788c8ad65e85cca7224a0b46d061ef7d81f9da50000000000000000000000009fe66037c44236c87d9ac8345f489b4413fdff060000000000000000000000000000000000000000000000000000000000015180000000000000000000000000dde3ec717f220fc6a29d6a4be73f91da5b718e550000000000000000000000003559ec54a05c46a83eff200a2f3fdc1f054568cd0000000000000000000000000000000000000000019d971e4fe8401e74000000000000000000000000000000000000000000000000000000000000000000016000000000000000000000000000000000000000000000000000000000000001a00000000000000000000000000000000000000000000000000000000000000000000000000000000000000000000000000000000000000000000000000000000000000000000000000000000000000000000000000000000000000000000000095553445520436f72650000000000000000000000000000000000000000000000000000000000000000000000000000000000000000000000000000000000000741502d5553445500000000000000000000000000000000000000000000000000",
          "blockHash": "0xfa8d91a9cc04ff366833a489302be97e86b8f2a7fb25054ffcc1be09a33c5220",
          "blockNumber": "0x166f661",
          "blockTimestamp": "0x68e4dc2f",
          "transactionHash": "0x16f6ba938f693b031700b162edcc56b128f3475881458e3d573fd48647b8735b",
          "transactionIndex": "0xb9",
          "logIndex": "0x1ad",
          "removed": false
        }
      ],
      "logsBloom": "0x00000002000000000200000000000040000000000000000800880000000200000000010000000000000800000000000000010000000000000000004000000000000800000000000000000008000008000001000000000000000000000000000000000000020000000004400000010800a00000000000000000000000000001c30000000000000000000800000000000000200000000080040000000002000004000000000000000000000000800000028000000000000000000000000000004000002020000004000000000000004000000004000004000000000000000020100000020000000000200000002080000000000200000000400000102000000000",
      "type": "0x2",
      "transactionHash": "0x16f6ba938f693b031700b162edcc56b128f3475881458e3d573fd48647b8735b",
      "transactionIndex": "0xb9",
      "blockHash": "0xfa8d91a9cc04ff366833a489302be97e86b8f2a7fb25054ffcc1be09a33c5220",
      "blockNumber": "0x166f661",
      "gasUsed": "0x59cf6",
      "effectiveGasPrice": "0xb1f6a77",
      "from": "0x56e3665038c5f0b56cc7d81ac66c86521274b251",
      "to": "0x5b8b26a6734b5eabdbe6c5a19580ab2d0424f027",
      "contractAddress": null
    },
    {
      "status": "0x1",
      "cumulativeGasUsed": "0x12d872e",
      "logs": [
        {
          "address": "0xb84f2a39b271d92586c61232a73ee1f7adfbf317",
          "topics": [
            "0x8c313170024355ce9211016d28e5e6f55ebaebad7fd43c86775ed3d3a3adadbb"
          ],
          "data": "0x0000000000000000000000000000000000000000000000000000000000000060000000000000000000000000000000000000000000000000000000000000000100000000000000000000000000000000000000000000000000000000000000010000000000000000000000000000000000000000000000000000000000000002000000000000000000000000b3c2c8c6670bb1dbe20cd37193d7e1334730e33300000000000000000000000018d91b5e3218ab16ef86fb7cb054cb48ba1e8b8e",
          "blockHash": "0xd78687735a246fdb2279582287433659535f55fcc166fd9c582dd7a466b36d9a",
          "blockNumber": "0x166f662",
          "blockTimestamp": "0x68e4dc3b",
          "transactionHash": "0xbb24745a55c818bf5ca8a448652adc442a7927618538024f8988f619055a00c8",
          "transactionIndex": "0xb1",
          "logIndex": "0x1bc",
          "removed": false
        }
      ],
      "logsBloom": "0x00000000000000000000000000000000000000000000000000000000000000000000000000000000000000000000000000000000000000000000000000000000000000000000000000000000000000000000000000000000000000000000000000000000000000000000000000000000000000000002000000000000008000000000000000000000000020000000000000000008000000000000000000000000000000000000000000000010000000000000000000000000000000000000000000000000000000000000000000000000000000000000000000000000000000000000000000000200000000000000000000000000000000000000000000000000",
      "type": "0x2",
      "transactionHash": "0xbb24745a55c818bf5ca8a448652adc442a7927618538024f8988f619055a00c8",
      "transactionIndex": "0xb1",
      "blockHash": "0xd78687735a246fdb2279582287433659535f55fcc166fd9c582dd7a466b36d9a",
      "blockNumber": "0x166f662",
      "gasUsed": "0x15cb1",
      "effectiveGasPrice": "0xaf1e26c",
      "from": "0x56e3665038c5f0b56cc7d81ac66c86521274b251",
      "to": "0xda4aaf85bb924b53dcc2dffa9e1a9c2ef97acfdf",
      "contractAddress": null
    }
  ],
  "libraries": [],
  "pending": [],
  "returns": {},
  "timestamp": 1759829054,
  "chain": 1,
  "commit": "4a1fc26"
}