{
  "transactions": [
    {
      "hash": "0x4585b7f9a9025e604c989d0991c992b55c7b0ed47f9bcceed99719bd4c4d3bc2",
      "transactionType": "CALL",
      "contractName": null,
      "contractAddress": "0xb4314cbe0f5bc5be6e247892ac4543dba223a13d",
      "function": "createVault((address,address,address,uint256,address,address,uint256,string,string,uint64,uint64),uint256)",
      "arguments": [
        "(0xDA4aAF85Bb924B53DCc2DFFa9e1A9C2Ef97aCFDF, 0x008c7DC790fA31E6CA19D8Cb6d11C53f6A88DF6c, 0x6383EDe871F8B0167905C2466505381CDcD9cC78, 86400, 0xA0b86991c6218b36c1d19D4a2e9Eb0cE3606eB48, 0x0000000000000000000000000000000000000000, 50000000, TermMax USDC Vault V2, TermMax-USDC-Vault-V2, 0, 0)",
        "0"
      ],
      "transaction": {
        "from": "0x56e3665038c5f0b56cc7d81ac66c86521274b251",
        "to": "0xb4314cbe0f5bc5be6e247892ac4543dba223a13d",
        "gas": "0x775a7",
        "value": "0x0",
        "input": "0x8f9f50ae00000000000000000000000000000000000000000000000000000000000000400000000000000000000000000000000000000000000000000000000000000000000000000000000000000000da4aaf85bb924b53dcc2dffa9e1a9c2ef97acfdf000000000000000000000000008c7dc790fa31e6ca19d8cb6d11c53f6a88df6c0000000000000000000000006383ede871f8b0167905c2466505381cdcd9cc780000000000000000000000000000000000000000000000000000000000015180000000000000000000000000a0b86991c6218b36c1d19d4a2e9eb0ce3606eb4800000000000000000000000000000000000000000000000000000000000000000000000000000000000000000000000000000000000000000000000002faf080000000000000000000000000000000000000000000000000000000000000016000000000000000000000000000000000000000000000000000000000000001a00000000000000000000000000000000000000000000000000000000000000000000000000000000000000000000000000000000000000000000000000000000000000000000000000000000000000000000000000000000000000000000000155465726d4d61782055534443205661756c74205632000000000000000000000000000000000000000000000000000000000000000000000000000000000000155465726d4d61782d555344432d5661756c742d56320000000000000000000000",
        "nonce": "0x4d6",
        "chainId": "0x1"
      },
      "additionalContracts": [
        {
          "transactionType": "CREATE2",
          "address": "0xef695e882d880134a89a33a3fe28deeac669bf71",
          "initCode": "0x3d602d80600a3d3981f3363d3d373d3d3d363d731b9b3f1f0a92f3dd6a1cf4b5ba08fad2dcdf8def5af43d82803e903d91602b57fd5bf3"
        }
      ],
      "isFixedGasLimit": false
    },
    {
      "hash": "0x34acaf6cd86332fd1ad11423ca46f5dd8780973d5d63d2569474dcef0d04dfc8",
      "transactionType": "CALL",
      "contractName": null,
      "contractAddress": "0xb4314cbe0f5bc5be6e247892ac4543dba223a13d",
      "function": "createVault((address,address,address,uint256,address,address,uint256,string,string,uint64,uint64),uint256)",
      "arguments": [
        "(0xDA4aAF85Bb924B53DCc2DFFa9e1A9C2Ef97aCFDF, 0x008c7DC790fA31E6CA19D8Cb6d11C53f6A88DF6c, 0x6383EDe871F8B0167905C2466505381CDcD9cC78, 86400, 0xC02aaA39b223FE8D0A0e5C4F27eAD9083C756Cc2, 0x0000000000000000000000000000000000000000, 50000, TermMax WETH Vault V2, TermMax-WETH-Vault-V2, 0, 0)",
        "0"
      ],
      "transaction": {
        "from": "0x56e3665038c5f0b56cc7d81ac66c86521274b251",
        "to": "0xb4314cbe0f5bc5be6e247892ac4543dba223a13d",
        "gas": "0x7bc9b",
        "value": "0x0",
        "input": "0x8f9f50ae00000000000000000000000000000000000000000000000000000000000000400000000000000000000000000000000000000000000000000000000000000000000000000000000000000000da4aaf85bb924b53dcc2dffa9e1a9c2ef97acfdf000000000000000000000000008c7dc790fa31e6ca19d8cb6d11c53f6a88df6c0000000000000000000000006383ede871f8b0167905c2466505381cdcd9cc780000000000000000000000000000000000000000000000000000000000015180000000000000000000000000c02aaa39b223fe8d0a0e5c4f27ead9083c756cc20000000000000000000000000000000000000000000000000000000000000000000000000000000000000000000000000000000000000000000000000000c350000000000000000000000000000000000000000000000000000000000000016000000000000000000000000000000000000000000000000000000000000001a00000000000000000000000000000000000000000000000000000000000000000000000000000000000000000000000000000000000000000000000000000000000000000000000000000000000000000000000000000000000000000000000155465726d4d61782057455448205661756c74205632000000000000000000000000000000000000000000000000000000000000000000000000000000000000155465726d4d61782d574554482d5661756c742d56320000000000000000000000",
        "nonce": "0x4d7",
        "chainId": "0x1"
      },
      "additionalContracts": [
        {
          "transactionType": "CREATE2",
          "address": "0x070571ade6da6f788069ceb6fbd05107c31131b4",
          "initCode": "0x3d602d80600a3d3981f3363d3d373d3d3d363d731b9b3f1f0a92f3dd6a1cf4b5ba08fad2dcdf8def5af43d82803e903d91602b57fd5bf3"
        }
      ],
      "isFixedGasLimit": false
    },
    {
      "hash": "0xd157de082e01b40624ff8a14fed7d7fb726226fedfafb7a7e16c0fc63cf93221",
      "transactionType": "CALL",
      "contractName": "ERC1967Proxy",
      "contractAddress": "0xda4aaf85bb924b53dcc2dffa9e1a9c2ef97acfdf",
      "function": null,
      "arguments": null,
      "transaction": {
        "from": "0x56e3665038c5f0b56cc7d81ac66c86521274b251",
        "to": "0xda4aaf85bb924b53dcc2dffa9e1a9c2ef97acfdf",
        "gas": "0x1fdf5",
        "value": "0x0",
        "input": "0x34ae51fe000000000000000000000000b84f2a39b271d92586c61232a73ee1f7adfbf3170000000000000000000000000000000000000000000000000000000000000080000000000000000000000000000000000000000000000000000000000000000100000000000000000000000000000000000000000000000000000000000000010000000000000000000000000000000000000000000000000000000000000002000000000000000000000000ef695e882d880134a89a33a3fe28deeac669bf71000000000000000000000000070571ade6da6f788069ceb6fbd05107c31131b4",
        "nonce": "0x4d8",
        "chainId": "0x1"
      },
      "additionalContracts": [],
      "isFixedGasLimit": false
    }
  ],
  "receipts": [
    {
      "status": "0x1",
      "cumulativeGasUsed": "0xcaea02",
      "logs": [
        {
          "address": "0xef695e882d880134a89a33a3fe28deeac669bf71",
          "topics": [
            "0x8be0079c531659141344cd1fd0a4f28419497f9722a3daafe3b4186f6b6457e0",
            "0x0000000000000000000000000000000000000000000000000000000000000000",
            "0x000000000000000000000000da4aaf85bb924b53dcc2dffa9e1a9c2ef97acfdf"
          ],
          "data": "0x",
          "blockHash": "0x572b7d96b2a4f8e58b08676e25d9c1896f94574d740895835d64984907a8d0c7",
          "blockNumber": "0x166481a",
          "blockTimestamp": "0x68dca31f",
          "transactionHash": "0x4585b7f9a9025e604c989d0991c992b55c7b0ed47f9bcceed99719bd4c4d3bc2",
          "transactionIndex": "0x70",
          "logIndex": "0x152",
          "removed": false
        },
        {
          "address": "0xef695e882d880134a89a33a3fe28deeac669bf71",
          "topics": [
            "0x20affe2401825617c69366f8c3a3493d9822d1021d0b3023c4e77ea5b3d0fbc5",
            "0x000000000000000000000000b4314cbe0f5bc5be6e247892ac4543dba223a13d"
          ],
          "data": "0x0000000000000000000000000000000000000000000000000000000000000000",
          "blockHash": "0x572b7d96b2a4f8e58b08676e25d9c1896f94574d740895835d64984907a8d0c7",
          "blockNumber": "0x166481a",
          "blockTimestamp": "0x68dca31f",
          "transactionHash": "0x4585b7f9a9025e604c989d0991c992b55c7b0ed47f9bcceed99719bd4c4d3bc2",
          "transactionIndex": "0x70",
          "logIndex": "0x153",
          "removed": false
        },
        {
          "address": "0xef695e882d880134a89a33a3fe28deeac669bf71",
          "topics": [
            "0xd28e9b90ee9b37c5936ff84392d71f29ff18117d7e76bcee60615262a90a3f75",
            "0x000000000000000000000000b4314cbe0f5bc5be6e247892ac4543dba223a13d"
          ],
          "data": "0x0000000000000000000000000000000000000000000000000000000000015180",
          "blockHash": "0x572b7d96b2a4f8e58b08676e25d9c1896f94574d740895835d64984907a8d0c7",
          "blockNumber": "0x166481a",
          "blockTimestamp": "0x68dca31f",
          "transactionHash": "0x4585b7f9a9025e604c989d0991c992b55c7b0ed47f9bcceed99719bd4c4d3bc2",
          "transactionIndex": "0x70",
          "logIndex": "0x154",
          "removed": false
        },
        {
          "address": "0xef695e882d880134a89a33a3fe28deeac669bf71",
          "topics": [
            "0x0cdc8c1df674ca6c4f86f6d47b02a15083c5d3bf098ea38f02c2762bad0afad2",
            "0x000000000000000000000000b4314cbe0f5bc5be6e247892ac4543dba223a13d"
          ],
          "data": "0x0000000000000000000000000000000000000000000000000000000000000000",
          "blockHash": "0x572b7d96b2a4f8e58b08676e25d9c1896f94574d740895835d64984907a8d0c7",
          "blockNumber": "0x166481a",
          "blockTimestamp": "0x68dca31f",
          "transactionHash": "0x4585b7f9a9025e604c989d0991c992b55c7b0ed47f9bcceed99719bd4c4d3bc2",
          "transactionIndex": "0x70",
          "logIndex": "0x155",
          "removed": false
        },
        {
          "address": "0xef695e882d880134a89a33a3fe28deeac669bf71",
          "topics": [
            "0xcb11cc8aade2f5a556749d1b2380d108a16fac3431e6a5d5ce12ef9de0bd76e3",
            "0x000000000000000000000000b4314cbe0f5bc5be6e247892ac4543dba223a13d"
          ],
          "data": "0x0000000000000000000000006383ede871f8b0167905c2466505381cdcd9cc78",
          "blockHash": "0x572b7d96b2a4f8e58b08676e25d9c1896f94574d740895835d64984907a8d0c7",
          "blockNumber": "0x166481a",
          "blockTimestamp": "0x68dca31f",
          "transactionHash": "0x4585b7f9a9025e604c989d0991c992b55c7b0ed47f9bcceed99719bd4c4d3bc2",
          "transactionIndex": "0x70",
          "logIndex": "0x156",
          "removed": false
        },
        {
          "address": "0xef695e882d880134a89a33a3fe28deeac669bf71",
          "topics": [
            "0x51fa58fd85e72d533eb3933ef4dd0bb83a9614f46e076ffa025b0dcbb8dff315",
            "0x000000000000000000000000b4314cbe0f5bc5be6e247892ac4543dba223a13d"
          ],
          "data": "0x0000000000000000000000000000000000000000000000000000000002faf080",
          "blockHash": "0x572b7d96b2a4f8e58b08676e25d9c1896f94574d740895835d64984907a8d0c7",
          "blockNumber": "0x166481a",
          "blockTimestamp": "0x68dca31f",
          "transactionHash": "0x4585b7f9a9025e604c989d0991c992b55c7b0ed47f9bcceed99719bd4c4d3bc2",
          "transactionIndex": "0x70",
          "logIndex": "0x157",
          "removed": false
        },
        {
          "address": "0xef695e882d880134a89a33a3fe28deeac669bf71",
          "topics": [
            "0xbd0a63c12948fbc9194a5839019f99c9d71db924e5c70018265bc778b8f1a506"
          ],
          "data": "0x000000000000000000000000008c7dc790fa31e6ca19d8cb6d11c53f6a88df6c",
          "blockHash": "0x572b7d96b2a4f8e58b08676e25d9c1896f94574d740895835d64984907a8d0c7",
          "blockNumber": "0x166481a",
          "blockTimestamp": "0x68dca31f",
          "transactionHash": "0x4585b7f9a9025e604c989d0991c992b55c7b0ed47f9bcceed99719bd4c4d3bc2",
          "transactionIndex": "0x70",
          "logIndex": "0x158",
          "removed": false
        },
        {
          "address": "0xef695e882d880134a89a33a3fe28deeac669bf71",
          "topics": [
            "0x390ace337562623e4cf938891cfa7e80b7b2e6ff395963aba93e537ce67e842c",
            "0x000000000000000000000000b4314cbe0f5bc5be6e247892ac4543dba223a13d",
            "0x0000000000000000000000000000000000000000000000000000000000000000"
          ],
          "data": "0x",
          "blockHash": "0x572b7d96b2a4f8e58b08676e25d9c1896f94574d740895835d64984907a8d0c7",
          "blockNumber": "0x166481a",
          "blockTimestamp": "0x68dca31f",
          "transactionHash": "0x4585b7f9a9025e604c989d0991c992b55c7b0ed47f9bcceed99719bd4c4d3bc2",
          "transactionIndex": "0x70",
          "logIndex": "0x159",
          "removed": false
        },
        {
          "address": "0xef695e882d880134a89a33a3fe28deeac669bf71",
          "topics": [
            "0xc7f505b2f371ae2175ee4913f4499e1f2633a7b5936321eed1cdaeb6115181d2"
          ],
          "data": "0x0000000000000000000000000000000000000000000000000000000000000001",
          "blockHash": "0x572b7d96b2a4f8e58b08676e25d9c1896f94574d740895835d64984907a8d0c7",
          "blockNumber": "0x166481a",
          "blockTimestamp": "0x68dca31f",
          "transactionHash": "0x4585b7f9a9025e604c989d0991c992b55c7b0ed47f9bcceed99719bd4c4d3bc2",
          "transactionIndex": "0x70",
          "logIndex": "0x15a",
          "removed": false
        },
        {
          "address": "0xb4314cbe0f5bc5be6e247892ac4543dba223a13d",
          "topics": [
            "0xbec73c77ba89c2c3ae92a9b6b0fd32d6702691976f3c31962a992499b08549e4",
            "0x000000000000000000000000ef695e882d880134a89a33a3fe28deeac669bf71",
            "0x00000000000000000000000056e3665038c5f0b56cc7d81ac66c86521274b251"
          ],
          "data": "0x0000000000000000000000000000000000000000000000000000000000000020000000000000000000000000da4aaf85bb924b53dcc2dffa9e1a9c2ef97acfdf000000000000000000000000008c7dc790fa31e6ca19d8cb6d11c53f6a88df6c0000000000000000000000006383ede871f8b0167905c2466505381cdcd9cc780000000000000000000000000000000000000000000000000000000000015180000000000000000000000000a0b86991c6218b36c1d19d4a2e9eb0ce3606eb4800000000000000000000000000000000000000000000000000000000000000000000000000000000000000000000000000000000000000000000000002faf080000000000000000000000000000000000000000000000000000000000000016000000000000000000000000000000000000000000000000000000000000001a00000000000000000000000000000000000000000000000000000000000000000000000000000000000000000000000000000000000000000000000000000000000000000000000000000000000000000000000000000000000000000000000155465726d4d61782055534443205661756c74205632000000000000000000000000000000000000000000000000000000000000000000000000000000000000155465726d4d61782d555344432d5661756c742d56320000000000000000000000",
          "blockHash": "0x572b7d96b2a4f8e58b08676e25d9c1896f94574d740895835d64984907a8d0c7",
          "blockNumber": "0x166481a",
          "blockTimestamp": "0x68dca31f",
          "transactionHash": "0x4585b7f9a9025e604c989d0991c992b55c7b0ed47f9bcceed99719bd4c4d3bc2",
          "transactionIndex": "0x70",
          "logIndex": "0x15b",
          "removed": false
        }
      ],
      "logsBloom": "0x00000002000000000200000000000040000000010000000800880000000280000000000000000000000800000000000000010000000000000800004000000000000800000000000200000008000000000001000000000000000000000000000000000000020000000000400000010800004000000000000000000000000000420000000000000000000800000000000000000000000080000000000002000004000000000000800000000100800000028000000000000000000001000001000000002000000204000000000000004000000000000004000000000000000020100000020000000000200000002000000400000200000000400000102000000000",
      "type": "0x2",
      "transactionHash": "0x4585b7f9a9025e604c989d0991c992b55c7b0ed47f9bcceed99719bd4c4d3bc2",
      "transactionIndex": "0x70",
      "blockHash": "0x572b7d96b2a4f8e58b08676e25d9c1896f94574d740895835d64984907a8d0c7",
      "blockNumber": "0x166481a",
      "gasUsed": "0x5668f",
      "effectiveGasPrice": "0x7b4fac1",
      "from": "0x56e3665038c5f0b56cc7d81ac66c86521274b251",
      "to": "0xb4314cbe0f5bc5be6e247892ac4543dba223a13d",
      "contractAddress": null
    },
    {
      "status": "0x1",
      "cumulativeGasUsed": "0x175fe25",
      "logs": [
        {
          "address": "0x070571ade6da6f788069ceb6fbd05107c31131b4",
          "topics": [
            "0x8be0079c531659141344cd1fd0a4f28419497f9722a3daafe3b4186f6b6457e0",
            "0x0000000000000000000000000000000000000000000000000000000000000000",
            "0x000000000000000000000000da4aaf85bb924b53dcc2dffa9e1a9c2ef97acfdf"
          ],
          "data": "0x",
          "blockHash": "0xb0c82e00c931fba935b55e84cd368d0c69ba20f2afd35f713d5d527e4c2a2190",
          "blockNumber": "0x166481c",
          "blockTimestamp": "0x68dca337",
          "transactionHash": "0x34acaf6cd86332fd1ad11423ca46f5dd8780973d5d63d2569474dcef0d04dfc8",
          "transactionIndex": "0x79",
          "logIndex": "0x295",
          "removed": false
        },
        {
          "address": "0x070571ade6da6f788069ceb6fbd05107c31131b4",
          "topics": [
            "0x20affe2401825617c69366f8c3a3493d9822d1021d0b3023c4e77ea5b3d0fbc5",
            "0x000000000000000000000000b4314cbe0f5bc5be6e247892ac4543dba223a13d"
          ],
          "data": "0x0000000000000000000000000000000000000000000000000000000000000000",
          "blockHash": "0xb0c82e00c931fba935b55e84cd368d0c69ba20f2afd35f713d5d527e4c2a2190",
          "blockNumber": "0x166481c",
          "blockTimestamp": "0x68dca337",
          "transactionHash": "0x34acaf6cd86332fd1ad11423ca46f5dd8780973d5d63d2569474dcef0d04dfc8",
          "transactionIndex": "0x79",
          "logIndex": "0x296",
          "removed": false
        },
        {
          "address": "0x070571ade6da6f788069ceb6fbd05107c31131b4",
          "topics": [
            "0xd28e9b90ee9b37c5936ff84392d71f29ff18117d7e76bcee60615262a90a3f75",
            "0x000000000000000000000000b4314cbe0f5bc5be6e247892ac4543dba223a13d"
          ],
          "data": "0x0000000000000000000000000000000000000000000000000000000000015180",
          "blockHash": "0xb0c82e00c931fba935b55e84cd368d0c69ba20f2afd35f713d5d527e4c2a2190",
          "blockNumber": "0x166481c",
          "blockTimestamp": "0x68dca337",
          "transactionHash": "0x34acaf6cd86332fd1ad11423ca46f5dd8780973d5d63d2569474dcef0d04dfc8",
          "transactionIndex": "0x79",
          "logIndex": "0x297",
          "removed": false
        },
        {
          "address": "0x070571ade6da6f788069ceb6fbd05107c31131b4",
          "topics": [
            "0x0cdc8c1df674ca6c4f86f6d47b02a15083c5d3bf098ea38f02c2762bad0afad2",
            "0x000000000000000000000000b4314cbe0f5bc5be6e247892ac4543dba223a13d"
          ],
          "data": "0x0000000000000000000000000000000000000000000000000000000000000000",
          "blockHash": "0xb0c82e00c931fba935b55e84cd368d0c69ba20f2afd35f713d5d527e4c2a2190",
          "blockNumber": "0x166481c",
          "blockTimestamp": "0x68dca337",
          "transactionHash": "0x34acaf6cd86332fd1ad11423ca46f5dd8780973d5d63d2569474dcef0d04dfc8",
          "transactionIndex": "0x79",
          "logIndex": "0x298",
          "removed": false
        },
        {
          "address": "0x070571ade6da6f788069ceb6fbd05107c31131b4",
          "topics": [
            "0xcb11cc8aade2f5a556749d1b2380d108a16fac3431e6a5d5ce12ef9de0bd76e3",
            "0x000000000000000000000000b4314cbe0f5bc5be6e247892ac4543dba223a13d"
          ],
          "data": "0x0000000000000000000000006383ede871f8b0167905c2466505381cdcd9cc78",
          "blockHash": "0xb0c82e00c931fba935b55e84cd368d0c69ba20f2afd35f713d5d527e4c2a2190",
          "blockNumber": "0x166481c",
          "blockTimestamp": "0x68dca337",
          "transactionHash": "0x34acaf6cd86332fd1ad11423ca46f5dd8780973d5d63d2569474dcef0d04dfc8",
          "transactionIndex": "0x79",
          "logIndex": "0x299",
          "removed": false
        },
        {
          "address": "0x070571ade6da6f788069ceb6fbd05107c31131b4",
          "topics": [
            "0x51fa58fd85e72d533eb3933ef4dd0bb83a9614f46e076ffa025b0dcbb8dff315",
            "0x000000000000000000000000b4314cbe0f5bc5be6e247892ac4543dba223a13d"
          ],
          "data": "0x000000000000000000000000000000000000000000000000000000000000c350",
          "blockHash": "0xb0c82e00c931fba935b55e84cd368d0c69ba20f2afd35f713d5d527e4c2a2190",
          "blockNumber": "0x166481c",
          "blockTimestamp": "0x68dca337",
          "transactionHash": "0x34acaf6cd86332fd1ad11423ca46f5dd8780973d5d63d2569474dcef0d04dfc8",
          "transactionIndex": "0x79",
          "logIndex": "0x29a",
          "removed": false
        },
        {
          "address": "0x070571ade6da6f788069ceb6fbd05107c31131b4",
          "topics": [
            "0xbd0a63c12948fbc9194a5839019f99c9d71db924e5c70018265bc778b8f1a506"
          ],
          "data": "0x000000000000000000000000008c7dc790fa31e6ca19d8cb6d11c53f6a88df6c",
          "blockHash": "0xb0c82e00c931fba935b55e84cd368d0c69ba20f2afd35f713d5d527e4c2a2190",
          "blockNumber": "0x166481c",
          "blockTimestamp": "0x68dca337",
          "transactionHash": "0x34acaf6cd86332fd1ad11423ca46f5dd8780973d5d63d2569474dcef0d04dfc8",
          "transactionIndex": "0x79",
          "logIndex": "0x29b",
          "removed": false
        },
        {
          "address": "0x070571ade6da6f788069ceb6fbd05107c31131b4",
          "topics": [
            "0x390ace337562623e4cf938891cfa7e80b7b2e6ff395963aba93e537ce67e842c",
            "0x000000000000000000000000b4314cbe0f5bc5be6e247892ac4543dba223a13d",
            "0x0000000000000000000000000000000000000000000000000000000000000000"
          ],
          "data": "0x",
          "blockHash": "0xb0c82e00c931fba935b55e84cd368d0c69ba20f2afd35f713d5d527e4c2a2190",
          "blockNumber": "0x166481c",
          "blockTimestamp": "0x68dca337",
          "transactionHash": "0x34acaf6cd86332fd1ad11423ca46f5dd8780973d5d63d2569474dcef0d04dfc8",
          "transactionIndex": "0x79",
          "logIndex": "0x29c",
          "removed": false
        },
        {
          "address": "0x070571ade6da6f788069ceb6fbd05107c31131b4",
          "topics": [
            "0xc7f505b2f371ae2175ee4913f4499e1f2633a7b5936321eed1cdaeb6115181d2"
          ],
          "data": "0x0000000000000000000000000000000000000000000000000000000000000001",
          "blockHash": "0xb0c82e00c931fba935b55e84cd368d0c69ba20f2afd35f713d5d527e4c2a2190",
          "blockNumber": "0x166481c",
          "blockTimestamp": "0x68dca337",
          "transactionHash": "0x34acaf6cd86332fd1ad11423ca46f5dd8780973d5d63d2569474dcef0d04dfc8",
          "transactionIndex": "0x79",
          "logIndex": "0x29d",
          "removed": false
        },
        {
          "address": "0xb4314cbe0f5bc5be6e247892ac4543dba223a13d",
          "topics": [
            "0xbec73c77ba89c2c3ae92a9b6b0fd32d6702691976f3c31962a992499b08549e4",
            "0x000000000000000000000000070571ade6da6f788069ceb6fbd05107c31131b4",
            "0x00000000000000000000000056e3665038c5f0b56cc7d81ac66c86521274b251"
          ],
          "data": "0x0000000000000000000000000000000000000000000000000000000000000020000000000000000000000000da4aaf85bb924b53dcc2dffa9e1a9c2ef97acfdf000000000000000000000000008c7dc790fa31e6ca19d8cb6d11c53f6a88df6c0000000000000000000000006383ede871f8b0167905c2466505381cdcd9cc780000000000000000000000000000000000000000000000000000000000015180000000000000000000000000c02aaa39b223fe8d0a0e5c4f27ead9083c756cc20000000000000000000000000000000000000000000000000000000000000000000000000000000000000000000000000000000000000000000000000000c350000000000000000000000000000000000000000000000000000000000000016000000000000000000000000000000000000000000000000000000000000001a00000000000000000000000000000000000000000000000000000000000000000000000000000000000000000000000000000000000000000000000000000000000000000000000000000000000000000000000000000000000000000000000155465726d4d61782057455448205661756c74205632000000000000000000000000000000000000000000000000000000000000000000000000000000000000155465726d4d61782d574554482d5661756c742d56320000000000000000000000",
          "blockHash": "0xb0c82e00c931fba935b55e84cd368d0c69ba20f2afd35f713d5d527e4c2a2190",
          "blockNumber": "0x166481c",
          "blockTimestamp": "0x68dca337",
          "transactionHash": "0x34acaf6cd86332fd1ad11423ca46f5dd8780973d5d63d2569474dcef0d04dfc8",
          "transactionIndex": "0x79",
          "logIndex": "0x29e",
          "removed": false
        }
      ],
      "logsBloom": "0x00000002000000000200000000000040000000010000000800880000000200000000000000000000000802000000000000010000000000000800004000000000000800000000000200000008000000000001000000004000000000000000000000000000020002000000400000010800000000000000000000000000002000420000000000000000000800000000000000000000000080000000000002000004000000000000000000000100800000028000000000000000000001000000000000002000000004000000000000004000000000400004000000000000000020100000020000000000200000002000000000000200000000401000102000000000",
      "type": "0x2",
      "transactionHash": "0x34acaf6cd86332fd1ad11423ca46f5dd8780973d5d63d2569474dcef0d04dfc8",
      "transactionIndex": "0x79",
      "blockHash": "0xb0c82e00c931fba935b55e84cd368d0c69ba20f2afd35f713d5d527e4c2a2190",
      "blockNumber": "0x166481c",
      "gasUsed": "0x54a43",
      "effectiveGasPrice": "0x7583e64",
      "from": "0x56e3665038c5f0b56cc7d81ac66c86521274b251",
      "to": "0xb4314cbe0f5bc5be6e247892ac4543dba223a13d",
      "contractAddress": null
    },
    {
      "status": "0x1",
      "cumulativeGasUsed": "0x116dff5",
      "logs": [
        {
          "address": "0xb84f2a39b271d92586c61232a73ee1f7adfbf317",
          "topics": [
            "0x8c313170024355ce9211016d28e5e6f55ebaebad7fd43c86775ed3d3a3adadbb"
          ],
          "data": "0x0000000000000000000000000000000000000000000000000000000000000060000000000000000000000000000000000000000000000000000000000000000100000000000000000000000000000000000000000000000000000000000000010000000000000000000000000000000000000000000000000000000000000002000000000000000000000000ef695e882d880134a89a33a3fe28deeac669bf71000000000000000000000000070571ade6da6f788069ceb6fbd05107c31131b4",
          "blockHash": "0xe02a8dac65a814605bbe89b02a52dd8e2d2c99be55c6d7f86a88f5c89f7edec5",
          "blockNumber": "0x166481d",
          "blockTimestamp": "0x68dca343",
          "transactionHash": "0xd157de082e01b40624ff8a14fed7d7fb726226fedfafb7a7e16c0fc63cf93221",
          "transactionIndex": "0xc6",
          "logIndex": "0x226",
          "removed": false
        }
      ],
      "logsBloom": "0x00000000000000000000000000000000000000000000000000000000000000000000000000000000000000000000000000000000000000000000000000000000000000000000000000000000000000000000000000000000000000000000000000000000000000000000000000000000000000000002000000000000008000000000000000000000000020000000000000000008000000000000000000000000000000000000000000000010000000000000000000000000000000000000000000000000000000000000000000000000000000000000000000000000000000000000000000000200000000000000000000000000000000000000000000000000",
      "type": "0x2",
      "transactionHash": "0xd157de082e01b40624ff8a14fed7d7fb726226fedfafb7a7e16c0fc63cf93221",
      "transactionIndex": "0xc6",
      "blockHash": "0xe02a8dac65a814605bbe89b02a52dd8e2d2c99be55c6d7f86a88f5c89f7edec5",
      "blockNumber": "0x166481d",
      "gasUsed": "0x15cb1",
      "effectiveGasPrice": "0x7cc3cbe",
      "from": "0x56e3665038c5f0b56cc7d81ac66c86521274b251",
      "to": "0xda4aaf85bb924b53dcc2dffa9e1a9c2ef97acfdf",
      "contractAddress": null
    }
  ],
  "libraries": [],
  "pending": [],
  "returns": {},
  "timestamp": 1759290182,
  "chain": 1,
  "commit": "a5fdbcc"
}