{
  "transactions": [
    {
      "hash": "0x4b179e7b6ce113868acf17b563d29c9a8d160165a698cf515f80f03a5d101095",
      "transactionType": "CALL",
      "contractName": "TermMaxVaultFactoryV2",
      "contractAddress": "0x5b8b26a6734b5eabdbe6c5a19580ab2d0424f027",
      "function": "createVault((address,address,address,uint256,address,address,uint256,string,string,uint64,uint64),uint256)",
      "arguments": [
        "(0xDA4aAF85Bb924B53DCc2DFFa9e1A9C2Ef97aCFDF, 0x30988479C2E6a03E7fB65138b94762D41a733458, 0x72882eb5D27C7088DFA6DDE941DD42e5d184F0ef, 86400, 0xA0b86991c6218b36c1d19D4a2e9Eb0cE3606eB48, 0x2FcAAbAAc3099FE1021AF6484fBA3D3ca8ab3E29, 20000000000000, TermMax USDC Reactor, TMUR-USDC, 5000000, 0)",
        "0"
      ],
      "transaction": {
        "from": "0x56e3665038c5f0b56cc7d81ac66c86521274b251",
        "to": "0x5b8b26a6734b5eabdbe6c5a19580ab2d0424f027",
        "gas": "0x8e149",
        "value": "0x0",
        "input": "0x8f9f50ae00000000000000000000000000000000000000000000000000000000000000400000000000000000000000000000000000000000000000000000000000000000000000000000000000000000da4aaf85bb924b53dcc2dffa9e1a9c2ef97acfdf00000000000000000000000030988479c2e6a03e7fb65138b94762d41a73345800000000000000000000000072882eb5d27c7088dfa6dde941dd42e5d184f0ef0000000000000000000000000000000000000000000000000000000000015180000000000000000000000000a0b86991c6218b36c1d19d4a2e9eb0ce3606eb480000000000000000000000002fcaabaac3099fe1021af6484fba3d3ca8ab3e29000000000000000000000000000000000000000000000000000012309ce54000000000000000000000000000000000000000000000000000000000000000016000000000000000000000000000000000000000000000000000000000000001a000000000000000000000000000000000000000000000000000000000004c4b40000000000000000000000000000000000000000000000000000000000000000000000000000000000000000000000000000000000000000000000000000000145465726d4d617820555344432052656163746f720000000000000000000000000000000000000000000000000000000000000000000000000000000000000009544d55522d555344430000000000000000000000000000000000000000000000",
        "nonce": "0x560",
        "chainId": "0x1"
      },
      "additionalContracts": [
        {
          "transactionType": "CREATE2",
          "address": "0xad58811276a0b9fb842e860774793a9663094879",
          "initCode": "0x3d602d80600a3d3981f3363d3d373d3d3d363d739f1882ffbb007dd275c931ac302cfa97a4ceaa1d5af43d82803e903d91602b57fd5bf3"
        }
      ],
      "isFixedGasLimit": false
    },
    {
      "hash": "0x9fc0f3e7bd71dc01c0f9208e36ab0cfa472e7016a22d2ffc9044b87b7cda4494",
      "transactionType": "CALL",
      "contractName": "TermMaxVaultFactoryV2",
      "contractAddress": "0x5b8b26a6734b5eabdbe6c5a19580ab2d0424f027",
      "function": "createVault((address,address,address,uint256,address,address,uint256,string,string,uint64,uint64),uint256)",
      "arguments": [
        "(0xDA4aAF85Bb924B53DCc2DFFa9e1A9C2Ef97aCFDF, 0x67460001C991708c6A6BAFc511a60c2E414D7Ecf, 0xf1a9676B03Dd3B2066214D2aD8B4B59ED6642C53, 86400, 0xA0b86991c6218b36c1d19D4a2e9Eb0cE3606eB48, 0x4605593D0aDA76786BEa026e7B62aF1c0619E833, 100000000000000, Keyrock USDC, TMKR-USDC, 10000000, 0)",
        "0"
      ],
      "transaction": {
        "from": "0x56e3665038c5f0b56cc7d81ac66c86521274b251",
        "to": "0x5b8b26a6734b5eabdbe6c5a19580ab2d0424f027",
        "gas": "0x86269",
        "value": "0x0",
        "input": "0x8f9f50ae00000000000000000000000000000000000000000000000000000000000000400000000000000000000000000000000000000000000000000000000000000000000000000000000000000000da4aaf85bb924b53dcc2dffa9e1a9c2ef97acfdf00000000000000000000000067460001c991708c6a6bafc511a60c2e414d7ecf000000000000000000000000f1a9676b03dd3b2066214d2ad8b4b59ed6642c530000000000000000000000000000000000000000000000000000000000015180000000000000000000000000a0b86991c6218b36c1d19d4a2e9eb0ce3606eb480000000000000000000000004605593d0ada76786bea026e7b62af1c0619e83300000000000000000000000000000000000000000000000000005af3107a4000000000000000000000000000000000000000000000000000000000000000016000000000000000000000000000000000000000000000000000000000000001a000000000000000000000000000000000000000000000000000000000009896800000000000000000000000000000000000000000000000000000000000000000000000000000000000000000000000000000000000000000000000000000000c4b6579726f636b205553444300000000000000000000000000000000000000000000000000000000000000000000000000000000000000000000000000000009544d4b522d555344430000000000000000000000000000000000000000000000",
        "nonce": "0x561",
        "chainId": "0x1"
      },
      "additionalContracts": [
        {
          "transactionType": "CREATE2",
          "address": "0x7ff1f331af4a90f6b14f57cb24977f74be3ff31d",
          "initCode": "0x3d602d80600a3d3981f3363d3d373d3d3d363d739f1882ffbb007dd275c931ac302cfa97a4ceaa1d5af43d82803e903d91602b57fd5bf3"
        }
      ],
      "isFixedGasLimit": false
    },
    {
      "hash": "0x1b7ee0d1070ac8044048b776a646fac48ddbfa9831ec0d2ca78bef571a5459f9",
      "transactionType": "CALL",
      "contractName": "ERC1967Proxy",
      "contractAddress": "0xda4aaf85bb924b53dcc2dffa9e1a9c2ef97acfdf",
      "function": null,
      "arguments": null,
      "transaction": {
        "from": "0x56e3665038c5f0b56cc7d81ac66c86521274b251",
        "to": "0xda4aaf85bb924b53dcc2dffa9e1a9c2ef97acfdf",
        "gas": "0x1fdf5",
        "value": "0x0",
        "input": "0x34ae51fe000000000000000000000000b84f2a39b271d92586c61232a73ee1f7adfbf3170000000000000000000000000000000000000000000000000000000000000080000000000000000000000000000000000000000000000000000000000000000100000000000000000000000000000000000000000000000000000000000000010000000000000000000000000000000000000000000000000000000000000002000000000000000000000000ad58811276a0b9fb842e860774793a96630948790000000000000000000000007ff1f331af4a90f6b14f57cb24977f74be3ff31d",
        "nonce": "0x562",
        "chainId": "0x1"
      },
      "additionalContracts": [],
      "isFixedGasLimit": false
    }
  ],
  "receipts": [
    {
      "status": "0x1",
      "cumulativeGasUsed": "0x1b0d2bd",
      "logs": [
        {
          "address": "0xad58811276a0b9fb842e860774793a9663094879",
          "topics": [
            "0x8be0079c531659141344cd1fd0a4f28419497f9722a3daafe3b4186f6b6457e0",
            "0x0000000000000000000000000000000000000000000000000000000000000000",
            "0x000000000000000000000000da4aaf85bb924b53dcc2dffa9e1a9c2ef97acfdf"
          ],
          "data": "0x",
          "blockHash": "0x9f57bed71f899f796d56767c0d0893d89aaf3133a5caa5c3bed06b7840bf0d92",
          "blockNumber": "0x1679cf0",
          "blockTimestamp": "0x68ecb803",
          "transactionHash": "0x4b179e7b6ce113868acf17b563d29c9a8d160165a698cf515f80f03a5d101095",
          "transactionIndex": "0x11f",
          "logIndex": "0x2af",
          "removed": false
        },
        {
          "address": "0xad58811276a0b9fb842e860774793a9663094879",
          "topics": [
            "0x20affe2401825617c69366f8c3a3493d9822d1021d0b3023c4e77ea5b3d0fbc5",
            "0x0000000000000000000000005b8b26a6734b5eabdbe6c5a19580ab2d0424f027"
          ],
          "data": "0x00000000000000000000000000000000000000000000000000000000004c4b40",
          "blockHash": "0x9f57bed71f899f796d56767c0d0893d89aaf3133a5caa5c3bed06b7840bf0d92",
          "blockNumber": "0x1679cf0",
          "blockTimestamp": "0x68ecb803",
          "transactionHash": "0x4b179e7b6ce113868acf17b563d29c9a8d160165a698cf515f80f03a5d101095",
          "transactionIndex": "0x11f",
          "logIndex": "0x2b0",
          "removed": false
        },
        {
          "address": "0xad58811276a0b9fb842e860774793a9663094879",
          "topics": [
            "0xd28e9b90ee9b37c5936ff84392d71f29ff18117d7e76bcee60615262a90a3f75",
            "0x0000000000000000000000005b8b26a6734b5eabdbe6c5a19580ab2d0424f027"
          ],
          "data": "0x0000000000000000000000000000000000000000000000000000000000015180",
          "blockHash": "0x9f57bed71f899f796d56767c0d0893d89aaf3133a5caa5c3bed06b7840bf0d92",
          "blockNumber": "0x1679cf0",
          "blockTimestamp": "0x68ecb803",
          "transactionHash": "0x4b179e7b6ce113868acf17b563d29c9a8d160165a698cf515f80f03a5d101095",
          "transactionIndex": "0x11f",
          "logIndex": "0x2b1",
          "removed": false
        },
        {
          "address": "0xad58811276a0b9fb842e860774793a9663094879",
          "topics": [
            "0x0cdc8c1df674ca6c4f86f6d47b02a15083c5d3bf098ea38f02c2762bad0afad2",
            "0x0000000000000000000000005b8b26a6734b5eabdbe6c5a19580ab2d0424f027"
          ],
          "data": "0x0000000000000000000000000000000000000000000000000000000000000000",
          "blockHash": "0x9f57bed71f899f796d56767c0d0893d89aaf3133a5caa5c3bed06b7840bf0d92",
          "blockNumber": "0x1679cf0",
          "blockTimestamp": "0x68ecb803",
          "transactionHash": "0x4b179e7b6ce113868acf17b563d29c9a8d160165a698cf515f80f03a5d101095",
          "transactionIndex": "0x11f",
          "logIndex": "0x2b2",
          "removed": false
        },
        {
          "address": "0xad58811276a0b9fb842e860774793a9663094879",
          "topics": [
            "0xcb11cc8aade2f5a556749d1b2380d108a16fac3431e6a5d5ce12ef9de0bd76e3",
            "0x0000000000000000000000005b8b26a6734b5eabdbe6c5a19580ab2d0424f027"
          ],
          "data": "0x00000000000000000000000072882eb5d27c7088dfa6dde941dd42e5d184f0ef",
          "blockHash": "0x9f57bed71f899f796d56767c0d0893d89aaf3133a5caa5c3bed06b7840bf0d92",
          "blockNumber": "0x1679cf0",
          "blockTimestamp": "0x68ecb803",
          "transactionHash": "0x4b179e7b6ce113868acf17b563d29c9a8d160165a698cf515f80f03a5d101095",
          "transactionIndex": "0x11f",
          "logIndex": "0x2b3",
          "removed": false
        },
        {
          "address": "0xad58811276a0b9fb842e860774793a9663094879",
          "topics": [
            "0x51fa58fd85e72d533eb3933ef4dd0bb83a9614f46e076ffa025b0dcbb8dff315",
            "0x0000000000000000000000005b8b26a6734b5eabdbe6c5a19580ab2d0424f027"
          ],
          "data": "0x000000000000000000000000000000000000000000000000000012309ce54000",
          "blockHash": "0x9f57bed71f899f796d56767c0d0893d89aaf3133a5caa5c3bed06b7840bf0d92",
          "blockNumber": "0x1679cf0",
          "blockTimestamp": "0x68ecb803",
          "transactionHash": "0x4b179e7b6ce113868acf17b563d29c9a8d160165a698cf515f80f03a5d101095",
          "transactionIndex": "0x11f",
          "logIndex": "0x2b4",
          "removed": false
        },
        {
          "address": "0xad58811276a0b9fb842e860774793a9663094879",
          "topics": [
            "0xbd0a63c12948fbc9194a5839019f99c9d71db924e5c70018265bc778b8f1a506"
          ],
          "data": "0x00000000000000000000000030988479c2e6a03e7fb65138b94762d41a733458",
          "blockHash": "0x9f57bed71f899f796d56767c0d0893d89aaf3133a5caa5c3bed06b7840bf0d92",
          "blockNumber": "0x1679cf0",
          "blockTimestamp": "0x68ecb803",
          "transactionHash": "0x4b179e7b6ce113868acf17b563d29c9a8d160165a698cf515f80f03a5d101095",
          "transactionIndex": "0x11f",
          "logIndex": "0x2b5",
          "removed": false
        },
        {
          "address": "0xad58811276a0b9fb842e860774793a9663094879",
          "topics": [
            "0x390ace337562623e4cf938891cfa7e80b7b2e6ff395963aba93e537ce67e842c",
            "0x0000000000000000000000005b8b26a6734b5eabdbe6c5a19580ab2d0424f027",
            "0x0000000000000000000000002fcaabaac3099fe1021af6484fba3d3ca8ab3e29"
          ],
          "data": "0x",
          "blockHash": "0x9f57bed71f899f796d56767c0d0893d89aaf3133a5caa5c3bed06b7840bf0d92",
          "blockNumber": "0x1679cf0",
          "blockTimestamp": "0x68ecb803",
          "transactionHash": "0x4b179e7b6ce113868acf17b563d29c9a8d160165a698cf515f80f03a5d101095",
          "transactionIndex": "0x11f",
          "logIndex": "0x2b6",
          "removed": false
        },
        {
          "address": "0xad58811276a0b9fb842e860774793a9663094879",
          "topics": [
            "0xc7f505b2f371ae2175ee4913f4499e1f2633a7b5936321eed1cdaeb6115181d2"
          ],
          "data": "0x0000000000000000000000000000000000000000000000000000000000000001",
          "blockHash": "0x9f57bed71f899f796d56767c0d0893d89aaf3133a5caa5c3bed06b7840bf0d92",
          "blockNumber": "0x1679cf0",
          "blockTimestamp": "0x68ecb803",
          "transactionHash": "0x4b179e7b6ce113868acf17b563d29c9a8d160165a698cf515f80f03a5d101095",
          "transactionIndex": "0x11f",
          "logIndex": "0x2b7",
          "removed": false
        },
        {
          "address": "0x5b8b26a6734b5eabdbe6c5a19580ab2d0424f027",
          "topics": [
            "0xbec73c77ba89c2c3ae92a9b6b0fd32d6702691976f3c31962a992499b08549e4",
            "0x000000000000000000000000ad58811276a0b9fb842e860774793a9663094879",
            "0x00000000000000000000000056e3665038c5f0b56cc7d81ac66c86521274b251"
          ],
          "data": "0x0000000000000000000000000000000000000000000000000000000000000020000000000000000000000000da4aaf85bb924b53dcc2dffa9e1a9c2ef97acfdf00000000000000000000000030988479c2e6a03e7fb65138b94762d41a73345800000000000000000000000072882eb5d27c7088dfa6dde941dd42e5d184f0ef0000000000000000000000000000000000000000000000000000000000015180000000000000000000000000a0b86991c6218b36c1d19d4a2e9eb0ce3606eb480000000000000000000000002fcaabaac3099fe1021af6484fba3d3ca8ab3e29000000000000000000000000000000000000000000000000000012309ce54000000000000000000000000000000000000000000000000000000000000000016000000000000000000000000000000000000000000000000000000000000001a000000000000000000000000000000000000000000000000000000000004c4b40000000000000000000000000000000000000000000000000000000000000000000000000000000000000000000000000000000000000000000000000000000145465726d4d617820555344432052656163746f720000000000000000000000000000000000000000000000000000000000000000000000000000000000000009544d55522d555344430000000000000000000000000000000000000000000000",
          "blockHash": "0x9f57bed71f899f796d56767c0d0893d89aaf3133a5caa5c3bed06b7840bf0d92",
          "blockNumber": "0x1679cf0",
          "blockTimestamp": "0x68ecb803",
          "transactionHash": "0x4b179e7b6ce113868acf17b563d29c9a8d160165a698cf515f80f03a5d101095",
          "transactionIndex": "0x11f",
          "logIndex": "0x2b8",
          "removed": false
        }
      ],
      "logsBloom": "0x00000002000000000200001000000040000000000000000800880000000200000000000000000000000800000000000000010000000000000000004000000000000800000000000000000008000200000001000000000000000000000000000000000000020000000000400000010800800000000000000000000000000000c20200000000000000000800000000000000200000000080040000000002000004040000000000000010000000800000028000000000000000000000000000000000402020000004000000000000004000000004000004000000000000000020100000000000000000200020002000000000008200000000400000102000000000",
      "type": "0x2",
      "transactionHash": "0x4b179e7b6ce113868acf17b563d29c9a8d160165a698cf515f80f03a5d101095",
      "transactionIndex": "0x11f",
      "blockHash": "0x9f57bed71f899f796d56767c0d0893d89aaf3133a5caa5c3bed06b7840bf0d92",
      "blockNumber": "0x1679cf0",
      "gasUsed": "0x61263",
      "effectiveGasPrice": "0xbebdc4a",
      "from": "0x56e3665038c5f0b56cc7d81ac66c86521274b251",
      "to": "0x5b8b26a6734b5eabdbe6c5a19580ab2d0424f027",
      "contractAddress": null
    },
    {
      "status": "0x1",
      "cumulativeGasUsed": "0x15181db",
      "logs": [
        {
          "address": "0x7ff1f331af4a90f6b14f57cb24977f74be3ff31d",
          "topics": [
            "0x8be0079c531659141344cd1fd0a4f28419497f9722a3daafe3b4186f6b6457e0",
            "0x0000000000000000000000000000000000000000000000000000000000000000",
            "0x000000000000000000000000da4aaf85bb924b53dcc2dffa9e1a9c2ef97acfdf"
          ],
          "data": "0x",
          "blockHash": "0x89323d58c0fcaedc3a9f2aef72216ea49186252abba75c6040dba9cb6fb60740",
          "blockNumber": "0x1679cf5",
          "blockTimestamp": "0x68ecb83f",
          "transactionHash": "0x9fc0f3e7bd71dc01c0f9208e36ab0cfa472e7016a22d2ffc9044b87b7cda4494",
          "transactionIndex": "0xcd",
          "logIndex": "0x282",
          "removed": false
        },
        {
          "address": "0x7ff1f331af4a90f6b14f57cb24977f74be3ff31d",
          "topics": [
            "0x20affe2401825617c69366f8c3a3493d9822d1021d0b3023c4e77ea5b3d0fbc5",
            "0x0000000000000000000000005b8b26a6734b5eabdbe6c5a19580ab2d0424f027"
          ],
          "data": "0x0000000000000000000000000000000000000000000000000000000000989680",
          "blockHash": "0x89323d58c0fcaedc3a9f2aef72216ea49186252abba75c6040dba9cb6fb60740",
          "blockNumber": "0x1679cf5",
          "blockTimestamp": "0x68ecb83f",
          "transactionHash": "0x9fc0f3e7bd71dc01c0f9208e36ab0cfa472e7016a22d2ffc9044b87b7cda4494",
          "transactionIndex": "0xcd",
          "logIndex": "0x283",
          "removed": false
        },
        {
          "address": "0x7ff1f331af4a90f6b14f57cb24977f74be3ff31d",
          "topics": [
            "0xd28e9b90ee9b37c5936ff84392d71f29ff18117d7e76bcee60615262a90a3f75",
            "0x0000000000000000000000005b8b26a6734b5eabdbe6c5a19580ab2d0424f027"
          ],
          "data": "0x0000000000000000000000000000000000000000000000000000000000015180",
          "blockHash": "0x89323d58c0fcaedc3a9f2aef72216ea49186252abba75c6040dba9cb6fb60740",
          "blockNumber": "0x1679cf5",
          "blockTimestamp": "0x68ecb83f",
          "transactionHash": "0x9fc0f3e7bd71dc01c0f9208e36ab0cfa472e7016a22d2ffc9044b87b7cda4494",
          "transactionIndex": "0xcd",
          "logIndex": "0x284",
          "removed": false
        },
        {
          "address": "0x7ff1f331af4a90f6b14f57cb24977f74be3ff31d",
          "topics": [
            "0x0cdc8c1df674ca6c4f86f6d47b02a15083c5d3bf098ea38f02c2762bad0afad2",
            "0x0000000000000000000000005b8b26a6734b5eabdbe6c5a19580ab2d0424f027"
          ],
          "data": "0x0000000000000000000000000000000000000000000000000000000000000000",
          "blockHash": "0x89323d58c0fcaedc3a9f2aef72216ea49186252abba75c6040dba9cb6fb60740",
          "blockNumber": "0x1679cf5",
          "blockTimestamp": "0x68ecb83f",
          "transactionHash": "0x9fc0f3e7bd71dc01c0f9208e36ab0cfa472e7016a22d2ffc9044b87b7cda4494",
          "transactionIndex": "0xcd",
          "logIndex": "0x285",
          "removed": false
        },
        {
          "address": "0x7ff1f331af4a90f6b14f57cb24977f74be3ff31d",
          "topics": [
            "0xcb11cc8aade2f5a556749d1b2380d108a16fac3431e6a5d5ce12ef9de0bd76e3",
            "0x0000000000000000000000005b8b26a6734b5eabdbe6c5a19580ab2d0424f027"
          ],
          "data": "0x000000000000000000000000f1a9676b03dd3b2066214d2ad8b4b59ed6642c53",
          "blockHash": "0x89323d58c0fcaedc3a9f2aef72216ea49186252abba75c6040dba9cb6fb60740",
          "blockNumber": "0x1679cf5",
          "blockTimestamp": "0x68ecb83f",
          "transactionHash": "0x9fc0f3e7bd71dc01c0f9208e36ab0cfa472e7016a22d2ffc9044b87b7cda4494",
          "transactionIndex": "0xcd",
          "logIndex": "0x286",
          "removed": false
        },
        {
          "address": "0x7ff1f331af4a90f6b14f57cb24977f74be3ff31d",
          "topics": [
            "0x51fa58fd85e72d533eb3933ef4dd0bb83a9614f46e076ffa025b0dcbb8dff315",
            "0x0000000000000000000000005b8b26a6734b5eabdbe6c5a19580ab2d0424f027"
          ],
          "data": "0x00000000000000000000000000000000000000000000000000005af3107a4000",
          "blockHash": "0x89323d58c0fcaedc3a9f2aef72216ea49186252abba75c6040dba9cb6fb60740",
          "blockNumber": "0x1679cf5",
          "blockTimestamp": "0x68ecb83f",
          "transactionHash": "0x9fc0f3e7bd71dc01c0f9208e36ab0cfa472e7016a22d2ffc9044b87b7cda4494",
          "transactionIndex": "0xcd",
          "logIndex": "0x287",
          "removed": false
        },
        {
          "address": "0x7ff1f331af4a90f6b14f57cb24977f74be3ff31d",
          "topics": [
            "0xbd0a63c12948fbc9194a5839019f99c9d71db924e5c70018265bc778b8f1a506"
          ],
          "data": "0x00000000000000000000000067460001c991708c6a6bafc511a60c2e414d7ecf",
          "blockHash": "0x89323d58c0fcaedc3a9f2aef72216ea49186252abba75c6040dba9cb6fb60740",
          "blockNumber": "0x1679cf5",
          "blockTimestamp": "0x68ecb83f",
          "transactionHash": "0x9fc0f3e7bd71dc01c0f9208e36ab0cfa472e7016a22d2ffc9044b87b7cda4494",
          "transactionIndex": "0xcd",
          "logIndex": "0x288",
          "removed": false
        },
        {
          "address": "0x7ff1f331af4a90f6b14f57cb24977f74be3ff31d",
          "topics": [
            "0x390ace337562623e4cf938891cfa7e80b7b2e6ff395963aba93e537ce67e842c",
            "0x0000000000000000000000005b8b26a6734b5eabdbe6c5a19580ab2d0424f027",
            "0x0000000000000000000000004605593d0ada76786bea026e7b62af1c0619e833"
          ],
          "data": "0x",
          "blockHash": "0x89323d58c0fcaedc3a9f2aef72216ea49186252abba75c6040dba9cb6fb60740",
          "blockNumber": "0x1679cf5",
          "blockTimestamp": "0x68ecb83f",
          "transactionHash": "0x9fc0f3e7bd71dc01c0f9208e36ab0cfa472e7016a22d2ffc9044b87b7cda4494",
          "transactionIndex": "0xcd",
          "logIndex": "0x289",
          "removed": false
        },
        {
          "address": "0x7ff1f331af4a90f6b14f57cb24977f74be3ff31d",
          "topics": [
            "0xc7f505b2f371ae2175ee4913f4499e1f2633a7b5936321eed1cdaeb6115181d2"
          ],
          "data": "0x0000000000000000000000000000000000000000000000000000000000000001",
          "blockHash": "0x89323d58c0fcaedc3a9f2aef72216ea49186252abba75c6040dba9cb6fb60740",
          "blockNumber": "0x1679cf5",
          "blockTimestamp": "0x68ecb83f",
          "transactionHash": "0x9fc0f3e7bd71dc01c0f9208e36ab0cfa472e7016a22d2ffc9044b87b7cda4494",
          "transactionIndex": "0xcd",
          "logIndex": "0x28a",
          "removed": false
        },
        {
          "address": "0x5b8b26a6734b5eabdbe6c5a19580ab2d0424f027",
          "topics": [
            "0xbec73c77ba89c2c3ae92a9b6b0fd32d6702691976f3c31962a992499b08549e4",
            "0x0000000000000000000000007ff1f331af4a90f6b14f57cb24977f74be3ff31d",
            "0x00000000000000000000000056e3665038c5f0b56cc7d81ac66c86521274b251"
          ],
          "data": "0x0000000000000000000000000000000000000000000000000000000000000020000000000000000000000000da4aaf85bb924b53dcc2dffa9e1a9c2ef97acfdf00000000000000000000000067460001c991708c6a6bafc511a60c2e414d7ecf000000000000000000000000f1a9676b03dd3b2066214d2ad8b4b59ed6642c530000000000000000000000000000000000000000000000000000000000015180000000000000000000000000a0b86991c6218b36c1d19d4a2e9eb0ce3606eb480000000000000000000000004605593d0ada76786bea026e7b62af1c0619e83300000000000000000000000000000000000000000000000000005af3107a4000000000000000000000000000000000000000000000000000000000000000016000000000000000000000000000000000000000000000000000000000000001a000000000000000000000000000000000000000000000000000000000009896800000000000000000000000000000000000000000000000000000000000000000000000000000000000000000000000000000000000000000000000000000000c4b6579726f636b205553444300000000000000000000000000000000000000000000000000000000000000000000000000000000000000000000000000000009544d4b522d555344430000000000000000000000000000000000000000000000",
          "blockHash": "0x89323d58c0fcaedc3a9f2aef72216ea49186252abba75c6040dba9cb6fb60740",
          "blockNumber": "0x1679cf5",
          "blockTimestamp": "0x68ecb83f",
          "transactionHash": "0x9fc0f3e7bd71dc01c0f9208e36ab0cfa472e7016a22d2ffc9044b87b7cda4494",
          "transactionIndex": "0xcd",
          "logIndex": "0x28b",
          "removed": false
        }
      ],
      "logsBloom": "0x00000002000000000200000000000040000000000000000c00880000000200000000000000000000000800000000000000010000000000000000004000800000000800000000000000000008000000000001000000004000800000000000000000000000020000000000400000010800800000000000010000000000000000c20000000000000000000800000000000000200000022080040000000002000004000000000000000000000000800000028000000000000000000000000000000000002020000404000000000000004000000004000004000000000000000020100000000000000000200040002000000000000200000000400000102000000000",
      "type": "0x2",
      "transactionHash": "0x9fc0f3e7bd71dc01c0f9208e36ab0cfa472e7016a22d2ffc9044b87b7cda4494",
      "transactionIndex": "0xcd",
      "blockHash": "0x89323d58c0fcaedc3a9f2aef72216ea49186252abba75c6040dba9cb6fb60740",
      "blockNumber": "0x1679cf5",
      "gasUsed": "0x611f7",
      "effectiveGasPrice": "0xb64c27c",
      "from": "0x56e3665038c5f0b56cc7d81ac66c86521274b251",
      "to": "0x5b8b26a6734b5eabdbe6c5a19580ab2d0424f027",
      "contractAddress": null
    },
    {
      "status": "0x1",
      "cumulativeGasUsed": "0x152de8c",
      "logs": [
        {
          "address": "0xb84f2a39b271d92586c61232a73ee1f7adfbf317",
          "topics": [
            "0x8c313170024355ce9211016d28e5e6f55ebaebad7fd43c86775ed3d3a3adadbb"
          ],
          "data": "0x0000000000000000000000000000000000000000000000000000000000000060000000000000000000000000000000000000000000000000000000000000000100000000000000000000000000000000000000000000000000000000000000010000000000000000000000000000000000000000000000000000000000000002000000000000000000000000ad58811276a0b9fb842e860774793a96630948790000000000000000000000007ff1f331af4a90f6b14f57cb24977f74be3ff31d",
          "blockHash": "0x89323d58c0fcaedc3a9f2aef72216ea49186252abba75c6040dba9cb6fb60740",
          "blockNumber": "0x1679cf5",
          "blockTimestamp": "0x68ecb83f",
          "transactionHash": "0x1b7ee0d1070ac8044048b776a646fac48ddbfa9831ec0d2ca78bef571a5459f9",
          "transactionIndex": "0xce",
          "logIndex": "0x28c",
          "removed": false
        }
      ],
      "logsBloom": "0x00000000000000000000000000000000000000000000000000000000000000000000000000000000000000000000000000000000000000000000000000000000000000000000000000000000000000000000000000000000000000000000000000000000000000000000000000000000000000000002000000000000008000000000000000000000000020000000000000000008000000000000000000000000000000000000000000000010000000000000000000000000000000000000000000000000000000000000000000000000000000000000000000000000000000000000000000000200000000000000000000000000000000000000000000000000",
      "type": "0x2",
      "transactionHash": "0x1b7ee0d1070ac8044048b776a646fac48ddbfa9831ec0d2ca78bef571a5459f9",
      "transactionIndex": "0xce",
      "blockHash": "0x89323d58c0fcaedc3a9f2aef72216ea49186252abba75c6040dba9cb6fb60740",
      "blockNumber": "0x1679cf5",
      "gasUsed": "0x15cb1",
      "effectiveGasPrice": "0xb64c27c",
      "from": "0x56e3665038c5f0b56cc7d81ac66c86521274b251",
      "to": "0xda4aaf85bb924b53dcc2dffa9e1a9c2ef97acfdf",
      "contractAddress": null
    }
  ],
  "libraries": [],
  "pending": [],
  "returns": {},
  "timestamp": 1760344129,
  "chain": 1,
  "commit": "de73610"
}