{
  "transactions": [
    {
      "hash": "0x54cd97bf23bf8c7cacc3642b40d26b9bb0528e35308b07f0a74255d7a8264a11",
      "transactionType": "CALL",
      "contractName": null,
      "contractAddress": "0x1401049368ed6ad8194f8bb7e41732c4620f170b",
      "function": "createVault((address,address,address,uint256,address,address,uint256,string,string,uint64,uint64),uint256)",
      "arguments": [
        "(0x9498764f0c62257B83A04e2A757De30908EC793d, 0x008c7DC790fA31E6CA19D8Cb6d11C53f6A88DF6c, 0x6383EDe871F8B0167905C2466505381CDcD9cC78, 86400, 0x55d398326f99059fF775485246999027B3197955, 0xA7038b6600512e824B55f8e8B113BE28A9FcCc9a, 50000000000000000000000000, TermMax USDT Vault V2, TermMax-USDT-Vault-V2, 0, 0)",
        "0"
      ],
      "transaction": {
        "from": "0x56e3665038c5f0b56cc7d81ac66c86521274b251",
        "to": "0x1401049368ed6ad8194f8bb7e41732c4620f170b",
        "gas": "0x7ccea",
        "value": "0x0",
        "input": "0x8f9f50ae000000000000000000000000000000000000000000000000000000000000004000000000000000000000000000000000000000000000000000000000000000000000000000000000000000009498764f0c62257b83a04e2a757de30908ec793d000000000000000000000000008c7dc790fa31e6ca19d8cb6d11c53f6a88df6c0000000000000000000000006383ede871f8b0167905c2466505381cdcd9cc78000000000000000000000000000000000000000000000000000000000001518000000000000000000000000055d398326f99059ff775485246999027b3197955000000000000000000000000a7038b6600512e824b55f8e8b113be28a9fccc9a000000000000000000000000000000000000000000295be96e64066972000000000000000000000000000000000000000000000000000000000000000000016000000000000000000000000000000000000000000000000000000000000001a00000000000000000000000000000000000000000000000000000000000000000000000000000000000000000000000000000000000000000000000000000000000000000000000000000000000000000000000000000000000000000000000155465726d4d61782055534454205661756c74205632000000000000000000000000000000000000000000000000000000000000000000000000000000000000155465726d4d61782d555344542d5661756c742d56320000000000000000000000",
        "nonce": "0xe7",
        "chainId": "0x38"
      },
      "additionalContracts": [
        {
          "transactionType": "CREATE2",
          "address": "0xcf2b43172521118156bd20dcc75729a7953e4d21",
          "initCode": "0x3d602d80600a3d3981f3363d3d373d3d3d363d7336c8b49bc35e92b6c043057022fee049bb0601f95af43d82803e903d91602b57fd5bf3"
        }
      ],
      "isFixedGasLimit": false
    },
    {
      "hash": "0xb335e1f38436ae87a774adcf7a4ae74847c459595d2f47171fcc45347fb258f8",
      "transactionType": "CALL",
      "contractName": null,
      "contractAddress": "0x1401049368ed6ad8194f8bb7e41732c4620f170b",
      "function": "createVault((address,address,address,uint256,address,address,uint256,string,string,uint64,uint64),uint256)",
      "arguments": [
        "(0x9498764f0c62257B83A04e2A757De30908EC793d, 0x008c7DC790fA31E6CA19D8Cb6d11C53f6A88DF6c, 0x6383EDe871F8B0167905C2466505381CDcD9cC78, 86400, 0xbb4CdB9CBd36B01bD1cBaEBF2De08d9173bc095c, 0x53b567E4DBEba0474b7D38A5E23940774185AF05, 50000000000000000000000, TermMax WBNB Vault V2, TermMax-WBNB-Vault-V2, 0, 0)",
        "0"
      ],
      "transaction": {
        "from": "0x56e3665038c5f0b56cc7d81ac66c86521274b251",
        "to": "0x1401049368ed6ad8194f8bb7e41732c4620f170b",
        "gas": "0x7cd19",
        "value": "0x0",
        "input": "0x8f9f50ae000000000000000000000000000000000000000000000000000000000000004000000000000000000000000000000000000000000000000000000000000000000000000000000000000000009498764f0c62257b83a04e2a757de30908ec793d000000000000000000000000008c7dc790fa31e6ca19d8cb6d11c53f6a88df6c0000000000000000000000006383ede871f8b0167905c2466505381cdcd9cc780000000000000000000000000000000000000000000000000000000000015180000000000000000000000000bb4cdb9cbd36b01bd1cbaebf2de08d9173bc095c00000000000000000000000053b567e4dbeba0474b7d38a5e23940774185af05000000000000000000000000000000000000000000000a968163f0a57b400000000000000000000000000000000000000000000000000000000000000000016000000000000000000000000000000000000000000000000000000000000001a00000000000000000000000000000000000000000000000000000000000000000000000000000000000000000000000000000000000000000000000000000000000000000000000000000000000000000000000000000000000000000000000155465726d4d61782057424e42205661756c74205632000000000000000000000000000000000000000000000000000000000000000000000000000000000000155465726d4d61782d57424e422d5661756c742d56320000000000000000000000",
        "nonce": "0xe8",
        "chainId": "0x38"
      },
      "additionalContracts": [
        {
          "transactionType": "CREATE2",
          "address": "0x3b46c6b0235eba66311262af66071349546960fa",
          "initCode": "0x3d602d80600a3d3981f3363d3d373d3d3d363d7336c8b49bc35e92b6c043057022fee049bb0601f95af43d82803e903d91602b57fd5bf3"
        }
      ],
      "isFixedGasLimit": false
    },
    {
      "hash": "0xfe8ced225ac8a356f2b187beabb177887ef3685d8f2e56b7436aa3ea82521294",
      "transactionType": "CALL",
      "contractName": "ERC1967Proxy",
      "contractAddress": "0x9498764f0c62257b83a04e2a757de30908ec793d",
      "function": null,
      "arguments": null,
      "transaction": {
        "from": "0x56e3665038c5f0b56cc7d81ac66c86521274b251",
        "to": "0x9498764f0c62257b83a04e2a757de30908ec793d",
        "gas": "0x1fdf5",
        "value": "0x0",
        "input": "0x34ae51fe0000000000000000000000006119e236d3798777a3f2553926070958df5704f10000000000000000000000000000000000000000000000000000000000000080000000000000000000000000000000000000000000000000000000000000000100000000000000000000000000000000000000000000000000000000000000010000000000000000000000000000000000000000000000000000000000000002000000000000000000000000cf2b43172521118156bd20dcc75729a7953e4d210000000000000000000000003b46c6b0235eba66311262af66071349546960fa",
        "nonce": "0xe9",
        "chainId": "0x38"
      },
      "additionalContracts": [],
      "isFixedGasLimit": false
    }
  ],
  "receipts": [
    {
      "status": "0x1",
      "cumulativeGasUsed": "0xd116f0",
      "logs": [
        {
          "address": "0xcf2b43172521118156bd20dcc75729a7953e4d21",
          "topics": [
            "0x8be0079c531659141344cd1fd0a4f28419497f9722a3daafe3b4186f6b6457e0",
            "0x0000000000000000000000000000000000000000000000000000000000000000",
            "0x0000000000000000000000009498764f0c62257b83a04e2a757de30908ec793d"
          ],
          "data": "0x",
          "blockHash": "0xfce38e0bac5ede13bb2c5d7fc8a101c3d9af79161787bf7f85ca271d14e16644",
          "blockNumber": "0x3c48b81",
          "transactionHash": "0x54cd97bf23bf8c7cacc3642b40d26b9bb0528e35308b07f0a74255d7a8264a11",
          "transactionIndex": "0x46",
          "logIndex": "0x184",
          "removed": false
        },
        {
          "address": "0xcf2b43172521118156bd20dcc75729a7953e4d21",
          "topics": [
            "0x20affe2401825617c69366f8c3a3493d9822d1021d0b3023c4e77ea5b3d0fbc5",
            "0x0000000000000000000000001401049368ed6ad8194f8bb7e41732c4620f170b"
          ],
          "data": "0x0000000000000000000000000000000000000000000000000000000000000000",
          "blockHash": "0xfce38e0bac5ede13bb2c5d7fc8a101c3d9af79161787bf7f85ca271d14e16644",
          "blockNumber": "0x3c48b81",
          "transactionHash": "0x54cd97bf23bf8c7cacc3642b40d26b9bb0528e35308b07f0a74255d7a8264a11",
          "transactionIndex": "0x46",
          "logIndex": "0x185",
          "removed": false
        },
        {
          "address": "0xcf2b43172521118156bd20dcc75729a7953e4d21",
          "topics": [
            "0xd28e9b90ee9b37c5936ff84392d71f29ff18117d7e76bcee60615262a90a3f75",
            "0x0000000000000000000000001401049368ed6ad8194f8bb7e41732c4620f170b"
          ],
          "data": "0x0000000000000000000000000000000000000000000000000000000000015180",
          "blockHash": "0xfce38e0bac5ede13bb2c5d7fc8a101c3d9af79161787bf7f85ca271d14e16644",
          "blockNumber": "0x3c48b81",
          "transactionHash": "0x54cd97bf23bf8c7cacc3642b40d26b9bb0528e35308b07f0a74255d7a8264a11",
          "transactionIndex": "0x46",
          "logIndex": "0x186",
          "removed": false
        },
        {
          "address": "0xcf2b43172521118156bd20dcc75729a7953e4d21",
          "topics": [
            "0x0cdc8c1df674ca6c4f86f6d47b02a15083c5d3bf098ea38f02c2762bad0afad2",
            "0x0000000000000000000000001401049368ed6ad8194f8bb7e41732c4620f170b"
          ],
          "data": "0x0000000000000000000000000000000000000000000000000000000000000000",
          "blockHash": "0xfce38e0bac5ede13bb2c5d7fc8a101c3d9af79161787bf7f85ca271d14e16644",
          "blockNumber": "0x3c48b81",
          "transactionHash": "0x54cd97bf23bf8c7cacc3642b40d26b9bb0528e35308b07f0a74255d7a8264a11",
          "transactionIndex": "0x46",
          "logIndex": "0x187",
          "removed": false
        },
        {
          "address": "0xcf2b43172521118156bd20dcc75729a7953e4d21",
          "topics": [
            "0xcb11cc8aade2f5a556749d1b2380d108a16fac3431e6a5d5ce12ef9de0bd76e3",
            "0x0000000000000000000000001401049368ed6ad8194f8bb7e41732c4620f170b"
          ],
          "data": "0x0000000000000000000000006383ede871f8b0167905c2466505381cdcd9cc78",
          "blockHash": "0xfce38e0bac5ede13bb2c5d7fc8a101c3d9af79161787bf7f85ca271d14e16644",
          "blockNumber": "0x3c48b81",
          "transactionHash": "0x54cd97bf23bf8c7cacc3642b40d26b9bb0528e35308b07f0a74255d7a8264a11",
          "transactionIndex": "0x46",
          "logIndex": "0x188",
          "removed": false
        },
        {
          "address": "0xcf2b43172521118156bd20dcc75729a7953e4d21",
          "topics": [
            "0x51fa58fd85e72d533eb3933ef4dd0bb83a9614f46e076ffa025b0dcbb8dff315",
            "0x0000000000000000000000001401049368ed6ad8194f8bb7e41732c4620f170b"
          ],
          "data": "0x000000000000000000000000000000000000000000295be96e64066972000000",
          "blockHash": "0xfce38e0bac5ede13bb2c5d7fc8a101c3d9af79161787bf7f85ca271d14e16644",
          "blockNumber": "0x3c48b81",
          "transactionHash": "0x54cd97bf23bf8c7cacc3642b40d26b9bb0528e35308b07f0a74255d7a8264a11",
          "transactionIndex": "0x46",
          "logIndex": "0x189",
          "removed": false
        },
        {
          "address": "0xcf2b43172521118156bd20dcc75729a7953e4d21",
          "topics": [
            "0xbd0a63c12948fbc9194a5839019f99c9d71db924e5c70018265bc778b8f1a506"
          ],
          "data": "0x000000000000000000000000008c7dc790fa31e6ca19d8cb6d11c53f6a88df6c",
          "blockHash": "0xfce38e0bac5ede13bb2c5d7fc8a101c3d9af79161787bf7f85ca271d14e16644",
          "blockNumber": "0x3c48b81",
          "transactionHash": "0x54cd97bf23bf8c7cacc3642b40d26b9bb0528e35308b07f0a74255d7a8264a11",
          "transactionIndex": "0x46",
          "logIndex": "0x18a",
          "removed": false
        },
        {
          "address": "0xcf2b43172521118156bd20dcc75729a7953e4d21",
          "topics": [
            "0x390ace337562623e4cf938891cfa7e80b7b2e6ff395963aba93e537ce67e842c",
            "0x0000000000000000000000001401049368ed6ad8194f8bb7e41732c4620f170b",
            "0x000000000000000000000000a7038b6600512e824b55f8e8b113be28a9fccc9a"
          ],
          "data": "0x",
          "blockHash": "0xfce38e0bac5ede13bb2c5d7fc8a101c3d9af79161787bf7f85ca271d14e16644",
          "blockNumber": "0x3c48b81",
          "transactionHash": "0x54cd97bf23bf8c7cacc3642b40d26b9bb0528e35308b07f0a74255d7a8264a11",
          "transactionIndex": "0x46",
          "logIndex": "0x18b",
          "removed": false
        },
        {
          "address": "0xcf2b43172521118156bd20dcc75729a7953e4d21",
          "topics": [
            "0xc7f505b2f371ae2175ee4913f4499e1f2633a7b5936321eed1cdaeb6115181d2"
          ],
          "data": "0x0000000000000000000000000000000000000000000000000000000000000001",
          "blockHash": "0xfce38e0bac5ede13bb2c5d7fc8a101c3d9af79161787bf7f85ca271d14e16644",
          "blockNumber": "0x3c48b81",
          "transactionHash": "0x54cd97bf23bf8c7cacc3642b40d26b9bb0528e35308b07f0a74255d7a8264a11",
          "transactionIndex": "0x46",
          "logIndex": "0x18c",
          "removed": false
        },
        {
          "address": "0x1401049368ed6ad8194f8bb7e41732c4620f170b",
          "topics": [
            "0xbec73c77ba89c2c3ae92a9b6b0fd32d6702691976f3c31962a992499b08549e4",
            "0x000000000000000000000000cf2b43172521118156bd20dcc75729a7953e4d21",
            "0x00000000000000000000000056e3665038c5f0b56cc7d81ac66c86521274b251"
          ],
          "data": "0x00000000000000000000000000000000000000000000000000000000000000200000000000000000000000009498764f0c62257b83a04e2a757de30908ec793d000000000000000000000000008c7dc790fa31e6ca19d8cb6d11c53f6a88df6c0000000000000000000000006383ede871f8b0167905c2466505381cdcd9cc78000000000000000000000000000000000000000000000000000000000001518000000000000000000000000055d398326f99059ff775485246999027b3197955000000000000000000000000a7038b6600512e824b55f8e8b113be28a9fccc9a000000000000000000000000000000000000000000295be96e64066972000000000000000000000000000000000000000000000000000000000000000000016000000000000000000000000000000000000000000000000000000000000001a00000000000000000000000000000000000000000000000000000000000000000000000000000000000000000000000000000000000000000000000000000000000000000000000000000000000000000000000000000000000000000000000155465726d4d61782055534454205661756c74205632000000000000000000000000000000000000000000000000000000000000000000000000000000000000155465726d4d61782d555344542d5661756c742d56320000000000000000000000",
          "blockHash": "0xfce38e0bac5ede13bb2c5d7fc8a101c3d9af79161787bf7f85ca271d14e16644",
          "blockNumber": "0x3c48b81",
          "transactionHash": "0x54cd97bf23bf8c7cacc3642b40d26b9bb0528e35308b07f0a74255d7a8264a11",
          "transactionIndex": "0x46",
          "logIndex": "0x18d",
          "removed": false
        }
      ],
      "logsBloom": "0x00200002000000000200000000000140000000000004000800880000000200000000000000000020000800000000000000010000000000000000000000000000000800000000000000000008200080000001000000000000000010000400000000000000020000000000400000010800000000082000000000000000000000420000000000000000000800000000000000000000000080000000000002000004000000000000000000000000800000028000000000000000000000000000000000002000000204000000000000004000000000000004000000000000000020100000000010000000000000006008000000220300000000400000100000000000",
      "type": "0x2",
      "transactionHash": "0x54cd97bf23bf8c7cacc3642b40d26b9bb0528e35308b07f0a74255d7a8264a11",
      "transactionIndex": "0x46",
      "blockHash": "0xfce38e0bac5ede13bb2c5d7fc8a101c3d9af79161787bf7f85ca271d14e16644",
      "blockNumber": "0x3c48b81",
      "gasUsed": "0x5a5bc",
      "effectiveGasPrice": "0x3473bc0",
      "from": "0x56e3665038c5f0b56cc7d81ac66c86521274b251",
      "to": "0x1401049368ed6ad8194f8bb7e41732c4620f170b",
      "contractAddress": null
    },
    {
      "status": "0x1",
      "cumulativeGasUsed": "0x109233e",
      "logs": [
        {
          "address": "0x3b46c6b0235eba66311262af66071349546960fa",
          "topics": [
            "0x8be0079c531659141344cd1fd0a4f28419497f9722a3daafe3b4186f6b6457e0",
            "0x0000000000000000000000000000000000000000000000000000000000000000",
            "0x0000000000000000000000009498764f0c62257b83a04e2a757de30908ec793d"
          ],
          "data": "0x",
          "blockHash": "0xf1b9c6570e9f2adbbadb69dcc56e521d078c52cea81e7eab9cfec03544e20fd3",
          "blockNumber": "0x3c48b85",
          "transactionHash": "0xb335e1f38436ae87a774adcf7a4ae74847c459595d2f47171fcc45347fb258f8",
          "transactionIndex": "0x5e",
          "logIndex": "0x3dc",
          "removed": false
        },
        {
          "address": "0x3b46c6b0235eba66311262af66071349546960fa",
          "topics": [
            "0x20affe2401825617c69366f8c3a3493d9822d1021d0b3023c4e77ea5b3d0fbc5",
            "0x0000000000000000000000001401049368ed6ad8194f8bb7e41732c4620f170b"
          ],
          "data": "0x0000000000000000000000000000000000000000000000000000000000000000",
          "blockHash": "0xf1b9c6570e9f2adbbadb69dcc56e521d078c52cea81e7eab9cfec03544e20fd3",
          "blockNumber": "0x3c48b85",
          "transactionHash": "0xb335e1f38436ae87a774adcf7a4ae74847c459595d2f47171fcc45347fb258f8",
          "transactionIndex": "0x5e",
          "logIndex": "0x3dd",
          "removed": false
        },
        {
          "address": "0x3b46c6b0235eba66311262af66071349546960fa",
          "topics": [
            "0xd28e9b90ee9b37c5936ff84392d71f29ff18117d7e76bcee60615262a90a3f75",
            "0x0000000000000000000000001401049368ed6ad8194f8bb7e41732c4620f170b"
          ],
          "data": "0x0000000000000000000000000000000000000000000000000000000000015180",
          "blockHash": "0xf1b9c6570e9f2adbbadb69dcc56e521d078c52cea81e7eab9cfec03544e20fd3",
          "blockNumber": "0x3c48b85",
          "transactionHash": "0xb335e1f38436ae87a774adcf7a4ae74847c459595d2f47171fcc45347fb258f8",
          "transactionIndex": "0x5e",
          "logIndex": "0x3de",
          "removed": false
        },
        {
          "address": "0x3b46c6b0235eba66311262af66071349546960fa",
          "topics": [
            "0x0cdc8c1df674ca6c4f86f6d47b02a15083c5d3bf098ea38f02c2762bad0afad2",
            "0x0000000000000000000000001401049368ed6ad8194f8bb7e41732c4620f170b"
          ],
          "data": "0x0000000000000000000000000000000000000000000000000000000000000000",
          "blockHash": "0xf1b9c6570e9f2adbbadb69dcc56e521d078c52cea81e7eab9cfec03544e20fd3",
          "blockNumber": "0x3c48b85",
          "transactionHash": "0xb335e1f38436ae87a774adcf7a4ae74847c459595d2f47171fcc45347fb258f8",
          "transactionIndex": "0x5e",
          "logIndex": "0x3df",
          "removed": false
        },
        {
          "address": "0x3b46c6b0235eba66311262af66071349546960fa",
          "topics": [
            "0xcb11cc8aade2f5a556749d1b2380d108a16fac3431e6a5d5ce12ef9de0bd76e3",
            "0x0000000000000000000000001401049368ed6ad8194f8bb7e41732c4620f170b"
          ],
          "data": "0x0000000000000000000000006383ede871f8b0167905c2466505381cdcd9cc78",
          "blockHash": "0xf1b9c6570e9f2adbbadb69dcc56e521d078c52cea81e7eab9cfec03544e20fd3",
          "blockNumber": "0x3c48b85",
          "transactionHash": "0xb335e1f38436ae87a774adcf7a4ae74847c459595d2f47171fcc45347fb258f8",
          "transactionIndex": "0x5e",
          "logIndex": "0x3e0",
          "removed": false
        },
        {
          "address": "0x3b46c6b0235eba66311262af66071349546960fa",
          "topics": [
            "0x51fa58fd85e72d533eb3933ef4dd0bb83a9614f46e076ffa025b0dcbb8dff315",
            "0x0000000000000000000000001401049368ed6ad8194f8bb7e41732c4620f170b"
          ],
          "data": "0x000000000000000000000000000000000000000000000a968163f0a57b400000",
          "blockHash": "0xf1b9c6570e9f2adbbadb69dcc56e521d078c52cea81e7eab9cfec03544e20fd3",
          "blockNumber": "0x3c48b85",
          "transactionHash": "0xb335e1f38436ae87a774adcf7a4ae74847c459595d2f47171fcc45347fb258f8",
          "transactionIndex": "0x5e",
          "logIndex": "0x3e1",
          "removed": false
        },
        {
          "address": "0x3b46c6b0235eba66311262af66071349546960fa",
          "topics": [
            "0xbd0a63c12948fbc9194a5839019f99c9d71db924e5c70018265bc778b8f1a506"
          ],
          "data": "0x000000000000000000000000008c7dc790fa31e6ca19d8cb6d11c53f6a88df6c",
          "blockHash": "0xf1b9c6570e9f2adbbadb69dcc56e521d078c52cea81e7eab9cfec03544e20fd3",
          "blockNumber": "0x3c48b85",
          "transactionHash": "0xb335e1f38436ae87a774adcf7a4ae74847c459595d2f47171fcc45347fb258f8",
          "transactionIndex": "0x5e",
          "logIndex": "0x3e2",
          "removed": false
        },
        {
          "address": "0x3b46c6b0235eba66311262af66071349546960fa",
          "topics": [
            "0x390ace337562623e4cf938891cfa7e80b7b2e6ff395963aba93e537ce67e842c",
            "0x0000000000000000000000001401049368ed6ad8194f8bb7e41732c4620f170b",
            "0x00000000000000000000000053b567e4dbeba0474b7d38a5e23940774185af05"
          ],
          "data": "0x",
          "blockHash": "0xf1b9c6570e9f2adbbadb69dcc56e521d078c52cea81e7eab9cfec03544e20fd3",
          "blockNumber": "0x3c48b85",
          "transactionHash": "0xb335e1f38436ae87a774adcf7a4ae74847c459595d2f47171fcc45347fb258f8",
          "transactionIndex": "0x5e",
          "logIndex": "0x3e3",
          "removed": false
        },
        {
          "address": "0x3b46c6b0235eba66311262af66071349546960fa",
          "topics": [
            "0xc7f505b2f371ae2175ee4913f4499e1f2633a7b5936321eed1cdaeb6115181d2"
          ],
          "data": "0x0000000000000000000000000000000000000000000000000000000000000001",
          "blockHash": "0xf1b9c6570e9f2adbbadb69dcc56e521d078c52cea81e7eab9cfec03544e20fd3",
          "blockNumber": "0x3c48b85",
          "transactionHash": "0xb335e1f38436ae87a774adcf7a4ae74847c459595d2f47171fcc45347fb258f8",
          "transactionIndex": "0x5e",
          "logIndex": "0x3e4",
          "removed": false
        },
        {
          "address": "0x1401049368ed6ad8194f8bb7e41732c4620f170b",
          "topics": [
            "0xbec73c77ba89c2c3ae92a9b6b0fd32d6702691976f3c31962a992499b08549e4",
            "0x0000000000000000000000003b46c6b0235eba66311262af66071349546960fa",
            "0x00000000000000000000000056e3665038c5f0b56cc7d81ac66c86521274b251"
          ],
          "data": "0x00000000000000000000000000000000000000000000000000000000000000200000000000000000000000009498764f0c62257b83a04e2a757de30908ec793d000000000000000000000000008c7dc790fa31e6ca19d8cb6d11c53f6a88df6c0000000000000000000000006383ede871f8b0167905c2466505381cdcd9cc780000000000000000000000000000000000000000000000000000000000015180000000000000000000000000bb4cdb9cbd36b01bd1cbaebf2de08d9173bc095c00000000000000000000000053b567e4dbeba0474b7d38a5e23940774185af05000000000000000000000000000000000000000000000a968163f0a57b400000000000000000000000000000000000000000000000000000000000000000016000000000000000000000000000000000000000000000000000000000000001a00000000000000000000000000000000000000000000000000000000000000000000000000000000000000000000000000000000000000000000000000000000000000000000000000000000000000000000000000000000000000000000000155465726d4d61782057424e42205661756c74205632000000000000000000000000000000000000000000000000000000000000000000000000000000000000155465726d4d61782d57424e422d5661756c742d56320000000000000000000000",
          "blockHash": "0xf1b9c6570e9f2adbbadb69dcc56e521d078c52cea81e7eab9cfec03544e20fd3",
          "blockNumber": "0x3c48b85",
          "transactionHash": "0xb335e1f38436ae87a774adcf7a4ae74847c459595d2f47171fcc45347fb258f8",
          "transactionIndex": "0x5e",
          "logIndex": "0x3e5",
          "removed": false
        }
      ],
      "logsBloom": "0x000000020000000202000000000001400000000000000008008800000002000000000000000000000008000000000000000100000000000000000000000000000008000000000000000000082080800000010000000000000000000000000000000002000200000000004000000108000000000020000000000000000000004200000000000000000008000000000000000000000000c0080000000002000004000000000000000000200000800000028000000000000000000000000000000000002020000204000000000000004010000000000004000000000000000020100000000000000000000000002008000000220200200000400000100000000000",
      "type": "0x2",
      "transactionHash": "0xb335e1f38436ae87a774adcf7a4ae74847c459595d2f47171fcc45347fb258f8",
      "transactionIndex": "0x5e",
      "blockHash": "0xf1b9c6570e9f2adbbadb69dcc56e521d078c52cea81e7eab9cfec03544e20fd3",
      "blockNumber": "0x3c48b85",
      "gasUsed": "0x5a5de",
      "effectiveGasPrice": "0x3473bc0",
      "from": "0x56e3665038c5f0b56cc7d81ac66c86521274b251",
      "to": "0x1401049368ed6ad8194f8bb7e41732c4620f170b",
      "contractAddress": null
    },
    {
      "status": "0x1",
      "cumulativeGasUsed": "0xc5f26a",
      "logs": [
        {
          "address": "0x6119e236d3798777a3f2553926070958df5704f1",
          "topics": [
            "0x8c313170024355ce9211016d28e5e6f55ebaebad7fd43c86775ed3d3a3adadbb"
          ],
          "data": "0x0000000000000000000000000000000000000000000000000000000000000060000000000000000000000000000000000000000000000000000000000000000100000000000000000000000000000000000000000000000000000000000000010000000000000000000000000000000000000000000000000000000000000002000000000000000000000000cf2b43172521118156bd20dcc75729a7953e4d210000000000000000000000003b46c6b0235eba66311262af66071349546960fa",
          "blockHash": "0xcb83b2b6f50acd488329ca57c5e669011339849d81016a478ca19795e6b56b85",
          "blockNumber": "0x3c48b88",
          "transactionHash": "0xfe8ced225ac8a356f2b187beabb177887ef3685d8f2e56b7436aa3ea82521294",
          "transactionIndex": "0x54",
          "logIndex": "0x190",
          "removed": false
        }
      ],
      "logsBloom": "0x00000000000000000000008000000000000000000010000000000000000000000000000000000000000000000000000000000000000000000000000000000000000000000000000000000000000000000000000000000000000000000000000000000000000000000000000000000000000000000000000000000000008000000000000000000000000000000000000000000000000000000000000000000000000000000000000000000010000000000000000000000000000000000000000000000000000000000000000000000000000000000000000000000000000000000000000000000200000000000000000000000000000000000800000000000000",
      "type": "0x2",
      "transactionHash": "0xfe8ced225ac8a356f2b187beabb177887ef3685d8f2e56b7436aa3ea82521294",
      "transactionIndex": "0x54",
      "blockHash": "0xcb83b2b6f50acd488329ca57c5e669011339849d81016a478ca19795e6b56b85",
      "blockNumber": "0x3c48b88",
      "gasUsed": "0x15cb1",
      "effectiveGasPrice": "0x3473bc0",
      "from": "0x56e3665038c5f0b56cc7d81ac66c86521274b251",
      "to": "0x9498764f0c62257b83a04e2a757de30908ec793d",
      "contractAddress": null
    }
  ],
  "libraries": [],
  "pending": [],
  "returns": {},
  "timestamp": 1759408402,
  "chain": 56,
  "commit": "9e4c713"
}