{
  "transactions": [
    {
      "hash": "0xb1678c4bb13ee3774065a5bf677442bd0a5f80ed7a3779e08acf5e4b7d0cdd16",
      "transactionType": "CALL",
      "contractName": "TermMax4626Factory",
      "contractAddress": "0xd594eb03a43b4974aa7b32b5740cdece961151fa",
      "function": "createStableERC4626For4626(address,address,(uint256,uint256,uint256))",
      "arguments": [
        "0x8409a9C1A911CED491892c5694E43994c9d47E8f",
        "0x62fE596d59fB077c2Df736dF212E0AFfb522dC78",
        "(5000000000, 10000000000, 7000000000)"
      ],
      "transaction": {
        "from": "0x56e3665038c5f0b56cc7d81ac66c86521274b251",
        "to": "0xd594eb03a43b4974aa7b32b5740cdece961151fa",
        "gas": "0x7617d",
        "value": "0x0",
        "input": "0x900189c30000000000000000000000008409a9c1a911ced491892c5694e43994c9d47e8f00000000000000000000000062fe596d59fb077c2df736df212e0affb522dc78000000000000000000000000000000000000000000000000000000012a05f20000000000000000000000000000000000000000000000000000000002540be40000000000000000000000000000000000000000000000000000000001a13b8600",
        "nonce": "0x55d",
        "chainId": "0x1"
      },
      "additionalContracts": [
        {
          "transactionType": "CREATE",
          "address": "0x2fcaabaac3099fe1021af6484fba3d3ca8ab3e29",
          "initCode": "0x3d602d80600a3d3981f3363d3d373d3d3d363d733907681c23583784b524e353b35d446f9ea1b0fb5af43d82803e903d91602b57fd5bf3"
        }
      ],
      "isFixedGasLimit": false
    },
    {
      "hash": "0x97794cea55f8fdf3e16bd130f9588bc6eef77ec2b442fcebc1a96ed4c22c9986",
      "transactionType": "CALL",
      "contractName": "TermMax4626Factory",
      "contractAddress": "0xd594eb03a43b4974aa7b32b5740cdece961151fa",
      "function": "createStableERC4626For4626(address,address,(uint256,uint256,uint256))",
      "arguments": [
        "0x8409a9C1A911CED491892c5694E43994c9d47E8f",
        "0x6C26793c7F1e2785c09b460676e797b716f0Bc8E",
        "(5000000000, 10000000000, 7000000000)"
      ],
      "transaction": {
        "from": "0x56e3665038c5f0b56cc7d81ac66c86521274b251",
        "to": "0xd594eb03a43b4974aa7b32b5740cdece961151fa",
        "gas": "0x7617d",
        "value": "0x0",
        "input": "0x900189c30000000000000000000000008409a9c1a911ced491892c5694e43994c9d47e8f0000000000000000000000006c26793c7f1e2785c09b460676e797b716f0bc8e000000000000000000000000000000000000000000000000000000012a05f20000000000000000000000000000000000000000000000000000000002540be40000000000000000000000000000000000000000000000000000000001a13b8600",
        "nonce": "0x55e",
        "chainId": "0x1"
      },
      "additionalContracts": [
        {
          "transactionType": "CREATE",
          "address": "0x4605593d0ada76786bea026e7b62af1c0619e833",
          "initCode": "0x3d602d80600a3d3981f3363d3d373d3d3d363d733907681c23583784b524e353b35d446f9ea1b0fb5af43d82803e903d91602b57fd5bf3"
        }
      ],
      "isFixedGasLimit": false
    },
    {
      "hash": "0xcfe5fb3476f178c71ad58077f91ee1dd1784a636f37e6fd4b89049d01152ccb2",
      "transactionType": "CALL",
      "contractName": "ERC1967Proxy",
      "contractAddress": "0xda4aaf85bb924b53dcc2dffa9e1a9c2ef97acfdf",
      "function": null,
      "arguments": null,
      "transaction": {
        "from": "0x56e3665038c5f0b56cc7d81ac66c86521274b251",
        "to": "0xda4aaf85bb924b53dcc2dffa9e1a9c2ef97acfdf",
        "gas": "0x1fdf5",
        "value": "0x0",
        "input": "0x34ae51fe000000000000000000000000b84f2a39b271d92586c61232a73ee1f7adfbf31700000000000000000000000000000000000000000000000000000000000000800000000000000000000000000000000000000000000000000000000000000004000000000000000000000000000000000000000000000000000000000000000100000000000000000000000000000000000000000000000000000000000000020000000000000000000000002fcaabaac3099fe1021af6484fba3d3ca8ab3e290000000000000000000000004605593d0ada76786bea026e7b62af1c0619e833",
        "nonce": "0x55f",
        "chainId": "0x1"
      },
      "additionalContracts": [],
      "isFixedGasLimit": false
    }
  ],
  "receipts": [
    {
      "status": "0x1",
      "cumulativeGasUsed": "0x19c2ba2",
      "logs": [
        {
          "address": "0x2fcaabaac3099fe1021af6484fba3d3ca8ab3e29",
          "topics": [
            "0x8be0079c531659141344cd1fd0a4f28419497f9722a3daafe3b4186f6b6457e0",
            "0x0000000000000000000000000000000000000000000000000000000000000000",
            "0x0000000000000000000000008409a9c1a911ced491892c5694e43994c9d47e8f"
          ],
          "data": "0x",
          "blockHash": "0x02d5b1e50f478725435192e02c0deb65d2637a5f07d61244e53e9dac8ce08a72",
          "blockNumber": "0x1679c80",
          "blockTimestamp": "0x68ecb2b7",
          "transactionHash": "0xb1678c4bb13ee3774065a5bf677442bd0a5f80ed7a3779e08acf5e4b7d0cdd16",
          "transactionIndex": "0x15b",
          "logIndex": "0x317",
          "removed": false
        },
        {
          "address": "0x2fcaabaac3099fe1021af6484fba3d3ca8ab3e29",
          "topics": [
            "0xa6cf86de4f5ba7084e635949bbf677aee5c93f3707f5a69f92f5e735ed08b898"
          ],
          "data": "0x000000000000000000000000000000000000000000000000000000012a05f20000000000000000000000000000000000000000000000000000000002540be40000000000000000000000000000000000000000000000000000000001a13b8600",
          "blockHash": "0x02d5b1e50f478725435192e02c0deb65d2637a5f07d61244e53e9dac8ce08a72",
          "blockNumber": "0x1679c80",
          "blockTimestamp": "0x68ecb2b7",
          "transactionHash": "0xb1678c4bb13ee3774065a5bf677442bd0a5f80ed7a3779e08acf5e4b7d0cdd16",
          "transactionIndex": "0x15b",
          "logIndex": "0x318",
          "removed": false
        },
        {
          "address": "0x2fcaabaac3099fe1021af6484fba3d3ca8ab3e29",
          "topics": [
            "0x580b944c1143da4d23a76d7b8d14ba92d968622e1221070e1eff1960014523ab",
            "0x0000000000000000000000008409a9c1a911ced491892c5694e43994c9d47e8f",
            "0x000000000000000000000000a0b86991c6218b36c1d19d4a2e9eb0ce3606eb48",
            "0x00000000000000000000000062fe596d59fb077c2df736df212e0affb522dc78"
          ],
          "data": "0x",
          "blockHash": "0x02d5b1e50f478725435192e02c0deb65d2637a5f07d61244e53e9dac8ce08a72",
          "blockNumber": "0x1679c80",
          "blockTimestamp": "0x68ecb2b7",
          "transactionHash": "0xb1678c4bb13ee3774065a5bf677442bd0a5f80ed7a3779e08acf5e4b7d0cdd16",
          "transactionIndex": "0x15b",
          "logIndex": "0x319",
          "removed": false
        },
        {
          "address": "0x2fcaabaac3099fe1021af6484fba3d3ca8ab3e29",
          "topics": [
            "0xc7f505b2f371ae2175ee4913f4499e1f2633a7b5936321eed1cdaeb6115181d2"
          ],
          "data": "0x0000000000000000000000000000000000000000000000000000000000000001",
          "blockHash": "0x02d5b1e50f478725435192e02c0deb65d2637a5f07d61244e53e9dac8ce08a72",
          "blockNumber": "0x1679c80",
          "blockTimestamp": "0x68ecb2b7",
          "transactionHash": "0xb1678c4bb13ee3774065a5bf677442bd0a5f80ed7a3779e08acf5e4b7d0cdd16",
          "transactionIndex": "0x15b",
          "logIndex": "0x31a",
          "removed": false
        },
        {
          "address": "0xd594eb03a43b4974aa7b32b5740cdece961151fa",
          "topics": [
            "0x001968e8b41daa2cbce73c5e6578b722f811b54e257cd823456a18759bbfd6fc",
            "0x00000000000000000000000056e3665038c5f0b56cc7d81ac66c86521274b251",
            "0x0000000000000000000000002fcaabaac3099fe1021af6484fba3d3ca8ab3e29"
          ],
          "data": "0x",
          "blockHash": "0x02d5b1e50f478725435192e02c0deb65d2637a5f07d61244e53e9dac8ce08a72",
          "blockNumber": "0x1679c80",
          "blockTimestamp": "0x68ecb2b7",
          "transactionHash": "0xb1678c4bb13ee3774065a5bf677442bd0a5f80ed7a3779e08acf5e4b7d0cdd16",
          "transactionIndex": "0x15b",
          "logIndex": "0x31b",
          "removed": false
        }
      ],
      "logsBloom": "0x0000000000000000000000000000000000000000000000000080000000000000000400000010000000800200000000000000001000000400000000000000000000000000000000000000000000000000000100000000000000000000000000000000900002000000000080000001080000000000000000000001000000000041000000000000000000080000000000020000000100008000000000000000080004000000000000000000000010080000000000000000000000000000000000000040000000000000000000000001040000000000000400000000000000022000000000000000000000002000200000000500c000000000001000000000000000",
      "type": "0x2",
      "transactionHash": "0xb1678c4bb13ee3774065a5bf677442bd0a5f80ed7a3779e08acf5e4b7d0cdd16",
      "transactionIndex": "0x15b",
      "blockHash": "0x02d5b1e50f478725435192e02c0deb65d2637a5f07d61244e53e9dac8ce08a72",
      "blockNumber": "0x1679c80",
      "gasUsed": "0x557f5",
      "effectiveGasPrice": "0xc503a0c",
      "from": "0x56e3665038c5f0b56cc7d81ac66c86521274b251",
      "to": "0xd594eb03a43b4974aa7b32b5740cdece961151fa",
      "contractAddress": null
    },
    {
      "status": "0x1",
      "cumulativeGasUsed": "0xfeec45",
      "logs": [
        {
          "address": "0x4605593d0ada76786bea026e7b62af1c0619e833",
          "topics": [
            "0x8be0079c531659141344cd1fd0a4f28419497f9722a3daafe3b4186f6b6457e0",
            "0x0000000000000000000000000000000000000000000000000000000000000000",
            "0x0000000000000000000000008409a9c1a911ced491892c5694e43994c9d47e8f"
          ],
          "data": "0x",
          "blockHash": "0xab0435b1c15bcacf74dff53024fdba0201b22901775361f3000553fd091798e0",
          "blockNumber": "0x1679c81",
          "blockTimestamp": "0x68ecb2c3",
          "transactionHash": "0x97794cea55f8fdf3e16bd130f9588bc6eef77ec2b442fcebc1a96ed4c22c9986",
          "transactionIndex": "0xa4",
          "logIndex": "0x140",
          "removed": false
        },
        {
          "address": "0x4605593d0ada76786bea026e7b62af1c0619e833",
          "topics": [
            "0xa6cf86de4f5ba7084e635949bbf677aee5c93f3707f5a69f92f5e735ed08b898"
          ],
          "data": "0x000000000000000000000000000000000000000000000000000000012a05f20000000000000000000000000000000000000000000000000000000002540be40000000000000000000000000000000000000000000000000000000001a13b8600",
          "blockHash": "0xab0435b1c15bcacf74dff53024fdba0201b22901775361f3000553fd091798e0",
          "blockNumber": "0x1679c81",
          "blockTimestamp": "0x68ecb2c3",
          "transactionHash": "0x97794cea55f8fdf3e16bd130f9588bc6eef77ec2b442fcebc1a96ed4c22c9986",
          "transactionIndex": "0xa4",
          "logIndex": "0x141",
          "removed": false
        },
        {
          "address": "0x4605593d0ada76786bea026e7b62af1c0619e833",
          "topics": [
            "0x580b944c1143da4d23a76d7b8d14ba92d968622e1221070e1eff1960014523ab",
            "0x0000000000000000000000008409a9c1a911ced491892c5694e43994c9d47e8f",
            "0x000000000000000000000000a0b86991c6218b36c1d19d4a2e9eb0ce3606eb48",
            "0x0000000000000000000000006c26793c7f1e2785c09b460676e797b716f0bc8e"
          ],
          "data": "0x",
          "blockHash": "0xab0435b1c15bcacf74dff53024fdba0201b22901775361f3000553fd091798e0",
          "blockNumber": "0x1679c81",
          "blockTimestamp": "0x68ecb2c3",
          "transactionHash": "0x97794cea55f8fdf3e16bd130f9588bc6eef77ec2b442fcebc1a96ed4c22c9986",
          "transactionIndex": "0xa4",
          "logIndex": "0x142",
          "removed": false
        },
        {
          "address": "0x4605593d0ada76786bea026e7b62af1c0619e833",
          "topics": [
            "0xc7f505b2f371ae2175ee4913f4499e1f2633a7b5936321eed1cdaeb6115181d2"
          ],
          "data": "0x0000000000000000000000000000000000000000000000000000000000000001",
          "blockHash": "0xab0435b1c15bcacf74dff53024fdba0201b22901775361f3000553fd091798e0",
          "blockNumber": "0x1679c81",
          "blockTimestamp": "0x68ecb2c3",
          "transactionHash": "0x97794cea55f8fdf3e16bd130f9588bc6eef77ec2b442fcebc1a96ed4c22c9986",
          "transactionIndex": "0xa4",
          "logIndex": "0x143",
          "removed": false
        },
        {
          "address": "0xd594eb03a43b4974aa7b32b5740cdece961151fa",
          "topics": [
            "0x001968e8b41daa2cbce73c5e6578b722f811b54e257cd823456a18759bbfd6fc",
            "0x00000000000000000000000056e3665038c5f0b56cc7d81ac66c86521274b251",
            "0x0000000000000000000000004605593d0ada76786bea026e7b62af1c0619e833"
          ],
          "data": "0x",
          "blockHash": "0xab0435b1c15bcacf74dff53024fdba0201b22901775361f3000553fd091798e0",
          "blockNumber": "0x1679c81",
          "blockTimestamp": "0x68ecb2c3",
          "transactionHash": "0x97794cea55f8fdf3e16bd130f9588bc6eef77ec2b442fcebc1a96ed4c22c9986",
          "transactionIndex": "0xa4",
          "logIndex": "0x144",
          "removed": false
        }
      ],
      "logsBloom": "0x00000000000000000000000000000000000000000000000000800000000000000004000000100000008002000000020000000000000004000000000000000000000000000000000000000000000000000001000000004000000000000000000000009800020000000000800000010800000000000000000000010000000000400000000000000012000800000000000200000001002080000000000000000000000000000000000000000000100800000000000000000000000000000000000000000000000000200000000000000000000000000004000000000000000220000000000000000000000040002000000005004000000000201000000000000000",
      "type": "0x2",
      "transactionHash": "0x97794cea55f8fdf3e16bd130f9588bc6eef77ec2b442fcebc1a96ed4c22c9986",
      "transactionIndex": "0xa4",
      "blockHash": "0xab0435b1c15bcacf74dff53024fdba0201b22901775361f3000553fd091798e0",
      "blockNumber": "0x1679c81",
      "gasUsed": "0x557f5",
      "effectiveGasPrice": "0xd257637",
      "from": "0x56e3665038c5f0b56cc7d81ac66c86521274b251",
      "to": "0xd594eb03a43b4974aa7b32b5740cdece961151fa",
      "contractAddress": null
    },
    {
      "status": "0x1",
      "cumulativeGasUsed": "0x10048f6",
      "logs": [
        {
          "address": "0xb84f2a39b271d92586c61232a73ee1f7adfbf317",
          "topics": [
            "0x8c313170024355ce9211016d28e5e6f55ebaebad7fd43c86775ed3d3a3adadbb"
          ],
          "data": "0x00000000000000000000000000000000000000000000000000000000000000600000000000000000000000000000000000000000000000000000000000000004000000000000000000000000000000000000000000000000000000000000000100000000000000000000000000000000000000000000000000000000000000020000000000000000000000002fcaabaac3099fe1021af6484fba3d3ca8ab3e290000000000000000000000004605593d0ada76786bea026e7b62af1c0619e833",
          "blockHash": "0xab0435b1c15bcacf74dff53024fdba0201b22901775361f3000553fd091798e0",
          "blockNumber": "0x1679c81",
          "blockTimestamp": "0x68ecb2c3",
          "transactionHash": "0xcfe5fb3476f178c71ad58077f91ee1dd1784a636f37e6fd4b89049d01152ccb2",
          "transactionIndex": "0xa5",
          "logIndex": "0x145",
          "removed": false
        }
      ],
      "logsBloom": "0x00000000000000000000000000000000000000000000000000000000000000000000000000000000000000000000000000000000000000000000000000000000000000000000000000000000000000000000000000000000000000000000000000000000000000000000000000000000000000000002000000000000008000000000000000000000000020000000000000000008000000000000000000000000000000000000000000000010000000000000000000000000000000000000000000000000000000000000000000000000000000000000000000000000000000000000000000000200000000000000000000000000000000000000000000000000",
      "type": "0x2",
      "transactionHash": "0xcfe5fb3476f178c71ad58077f91ee1dd1784a636f37e6fd4b89049d01152ccb2",
      "transactionIndex": "0xa5",
      "blockHash": "0xab0435b1c15bcacf74dff53024fdba0201b22901775361f3000553fd091798e0",
      "blockNumber": "0x1679c81",
      "gasUsed": "0x15cb1",
      "effectiveGasPrice": "0xd257637",
      "from": "0x56e3665038c5f0b56cc7d81ac66c86521274b251",
      "to": "0xda4aaf85bb924b53dcc2dffa9e1a9c2ef97acfdf",
      "contractAddress": null
    }
  ],
  "libraries": [],
  "pending": [],
  "returns": {},
  "timestamp": 1760342727,
  "chain": 1,
  "commit": "de73610"
}