{
  "transactions": [
    {
      "hash": "0x910e0d68b71ff671c647fbd94f5458a8a9e575a6ce8b5dc0752138e8dce44a35",
      "transactionType": "CALL",
      "contractName": "TermMax4626Factory",
      "contractAddress": "0xd594eb03a43b4974aa7b32b5740cdece961151fa",
      "function": "createStableERC4626For4626(address,address,(uint256,uint256,uint256))",
      "arguments": [
        "0x8409a9C1A911CED491892c5694E43994c9d47E8f",
        "0xcE22b5Fb17ccbc0C5d87DC2e0dF47DD71E3AdC0a",
        "(5000000000000000000000, 10000000000000000000000, 7000000000000000000000)"
      ],
      "transaction": {
        "from": "0x56e3665038c5f0b56cc7d81ac66c86521274b251",
        "to": "0xd594eb03a43b4974aa7b32b5740cdece961151fa",
        "gas": "0x795fa",
        "value": "0x0",
        "input": "0x900189c30000000000000000000000008409a9c1a911ced491892c5694e43994c9d47e8f000000000000000000000000ce22b5fb17ccbc0c5d87dc2e0df47dd71e3adc0a00000000000000000000000000000000000000000000010f0cf064dd5920000000000000000000000000000000000000000000000000021e19e0c9bab240000000000000000000000000000000000000000000000000017b7883c06916600000",
        "nonce": "0x533",
        "chainId": "0x1"
      },
      "additionalContracts": [
        {
          "transactionType": "CREATE",
          "address": "0x3559ec54a05c46a83eff200a2f3fdc1f054568cd",
          "initCode": "0x3d602d80600a3d3981f3363d3d373d3d3d363d733907681c23583784b524e353b35d446f9ea1b0fb5af43d82803e903d91602b57fd5bf3"
        }
      ],
      "isFixedGasLimit": false
    },
    {
      "hash": "0x67cbe71fdda12b7d9dd670b0f662bcd2237cd0cb8a4df87ffc0b10d454896cd6",
      "transactionType": "CALL",
      "contractName": "ERC1967Proxy",
      "contractAddress": "0xda4aaf85bb924b53dcc2dffa9e1a9c2ef97acfdf",
      "function": null,
      "arguments": null,
      "transaction": {
        "from": "0x56e3665038c5f0b56cc7d81ac66c86521274b251",
        "to": "0xda4aaf85bb924b53dcc2dffa9e1a9c2ef97acfdf",
        "gas": "0x163e2",
        "value": "0x0",
        "input": "0x34ae51fe000000000000000000000000b84f2a39b271d92586c61232a73ee1f7adfbf31700000000000000000000000000000000000000000000000000000000000000800000000000000000000000000000000000000000000000000000000000000004000000000000000000000000000000000000000000000000000000000000000100000000000000000000000000000000000000000000000000000000000000010000000000000000000000003559ec54a05c46a83eff200a2f3fdc1f054568cd",
        "nonce": "0x534",
        "chainId": "0x1"
      },
      "additionalContracts": [],
      "isFixedGasLimit": false
    }
  ],
  "receipts": [
    {
      "status": "0x1",
      "cumulativeGasUsed": "0xdbcbb1",
      "logs": [
        {
          "address": "0x3559ec54a05c46a83eff200a2f3fdc1f054568cd",
          "topics": [
            "0x8be0079c531659141344cd1fd0a4f28419497f9722a3daafe3b4186f6b6457e0",
            "0x0000000000000000000000000000000000000000000000000000000000000000",
            "0x0000000000000000000000008409a9c1a911ced491892c5694e43994c9d47e8f"
          ],
          "data": "0x",
          "blockHash": "0xf9475cf21f35a45987dc2205b6cd794104522d4e1f83f01ca8a30d879cedbb84",
          "blockNumber": "0x166f5fb",
          "blockTimestamp": "0x68e4d75b",
          "transactionHash": "0x910e0d68b71ff671c647fbd94f5458a8a9e575a6ce8b5dc0752138e8dce44a35",
          "transactionIndex": "0xaa",
          "logIndex": "0x193",
          "removed": false
        },
        {
          "address": "0x3559ec54a05c46a83eff200a2f3fdc1f054568cd",
          "topics": [
            "0xa6cf86de4f5ba7084e635949bbf677aee5c93f3707f5a69f92f5e735ed08b898"
          ],
          "data": "0x00000000000000000000000000000000000000000000010f0cf064dd5920000000000000000000000000000000000000000000000000021e19e0c9bab240000000000000000000000000000000000000000000000000017b7883c06916600000",
          "blockHash": "0xf9475cf21f35a45987dc2205b6cd794104522d4e1f83f01ca8a30d879cedbb84",
          "blockNumber": "0x166f5fb",
          "blockTimestamp": "0x68e4d75b",
          "transactionHash": "0x910e0d68b71ff671c647fbd94f5458a8a9e575a6ce8b5dc0752138e8dce44a35",
          "transactionIndex": "0xaa",
          "logIndex": "0x194",
          "removed": false
        },
        {
          "address": "0x3559ec54a05c46a83eff200a2f3fdc1f054568cd",
          "topics": [
            "0x580b944c1143da4d23a76d7b8d14ba92d968622e1221070e1eff1960014523ab",
            "0x0000000000000000000000008409a9c1a911ced491892c5694e43994c9d47e8f",
            "0x000000000000000000000000dde3ec717f220fc6a29d6a4be73f91da5b718e55",
            "0x000000000000000000000000ce22b5fb17ccbc0c5d87dc2e0df47dd71e3adc0a"
          ],
          "data": "0x",
          "blockHash": "0xf9475cf21f35a45987dc2205b6cd794104522d4e1f83f01ca8a30d879cedbb84",
          "blockNumber": "0x166f5fb",
          "blockTimestamp": "0x68e4d75b",
          "transactionHash": "0x910e0d68b71ff671c647fbd94f5458a8a9e575a6ce8b5dc0752138e8dce44a35",
          "transactionIndex": "0xaa",
          "logIndex": "0x195",
          "removed": false
        },
        {
          "address": "0x3559ec54a05c46a83eff200a2f3fdc1f054568cd",
          "topics": [
            "0xc7f505b2f371ae2175ee4913f4499e1f2633a7b5936321eed1cdaeb6115181d2"
          ],
          "data": "0x0000000000000000000000000000000000000000000000000000000000000001",
          "blockHash": "0xf9475cf21f35a45987dc2205b6cd794104522d4e1f83f01ca8a30d879cedbb84",
          "blockNumber": "0x166f5fb",
          "blockTimestamp": "0x68e4d75b",
          "transactionHash": "0x910e0d68b71ff671c647fbd94f5458a8a9e575a6ce8b5dc0752138e8dce44a35",
          "transactionIndex": "0xaa",
          "logIndex": "0x196",
          "removed": false
        },
        {
          "address": "0xd594eb03a43b4974aa7b32b5740cdece961151fa",
          "topics": [
            "0x001968e8b41daa2cbce73c5e6578b722f811b54e257cd823456a18759bbfd6fc",
            "0x00000000000000000000000056e3665038c5f0b56cc7d81ac66c86521274b251",
            "0x0000000000000000000000003559ec54a05c46a83eff200a2f3fdc1f054568cd"
          ],
          "data": "0x",
          "blockHash": "0xf9475cf21f35a45987dc2205b6cd794104522d4e1f83f01ca8a30d879cedbb84",
          "blockNumber": "0x166f5fb",
          "blockTimestamp": "0x68e4d75b",
          "transactionHash": "0x910e0d68b71ff671c647fbd94f5458a8a9e575a6ce8b5dc0752138e8dce44a35",
          "transactionIndex": "0xaa",
          "logIndex": "0x197",
          "removed": false
        }
      ],
      "logsBloom": "0x00000000000000000000000000000000000000000000000000800000000000000004010000100100008000000000000000000000000004000000800040000000000000000000040000000000000000000001000000000000000000000000000000009000020000000000800000010800000000000000000020010000000001410000000000000000000800000000000000000001000080000000000000000000000000000000000000000000100800000000000000000000000000000000010000000000000000000000000000000000000000020004000000000000000220000000000000000000000000002000000001004000000000001004000010000000",
      "type": "0x2",
      "transactionHash": "0x910e0d68b71ff671c647fbd94f5458a8a9e575a6ce8b5dc0752138e8dce44a35",
      "transactionIndex": "0xaa",
      "blockHash": "0xf9475cf21f35a45987dc2205b6cd794104522d4e1f83f01ca8a30d879cedbb84",
      "blockNumber": "0x166f5fb",
      "gasUsed": "0x52fd9",
      "effectiveGasPrice": "0xa576db6",
      "from": "0x56e3665038c5f0b56cc7d81ac66c86521274b251",
      "to": "0xd594eb03a43b4974aa7b32b5740cdece961151fa",
      "contractAddress": null
    },
    {
      "status": "0x1",
      "cumulativeGasUsed": "0x1b35361",
      "logs": [
        {
          "address": "0xb84f2a39b271d92586c61232a73ee1f7adfbf317",
          "topics": [
            "0x8c313170024355ce9211016d28e5e6f55ebaebad7fd43c86775ed3d3a3adadbb"
          ],
          "data": "0x00000000000000000000000000000000000000000000000000000000000000600000000000000000000000000000000000000000000000000000000000000004000000000000000000000000000000000000000000000000000000000000000100000000000000000000000000000000000000000000000000000000000000010000000000000000000000003559ec54a05c46a83eff200a2f3fdc1f054568cd",
          "blockHash": "0x6d1acb167e6abfe762ab70b5cac1da1fd0bf16fc9ca9af329caded3b2516e63f",
          "blockNumber": "0x166f5ff",
          "blockTimestamp": "0x68e4d78b",
          "transactionHash": "0x67cbe71fdda12b7d9dd670b0f662bcd2237cd0cb8a4df87ffc0b10d454896cd6",
          "transactionIndex": "0xf5",
          "logIndex": "0x2e0",
          "removed": false
        }
      ],
      "logsBloom": "0x00000000000000000000000000000000000000000000000000000000000000000000000000000000000000000000000000000000000000000000000000000000000000000000000000000000000000000000000000000000000000000000000000000000000000000000000000000000000000000002000000000000008000000000000000000000000020000000000000000008000000000000000000000000000000000000000000000010000000000000000000000000000000000000000000000000000000000000000000000000000000000000000000000000000000000000000000000200000000000000000000000000000000000000000000000000",
      "type": "0x2",
      "transactionHash": "0x67cbe71fdda12b7d9dd670b0f662bcd2237cd0cb8a4df87ffc0b10d454896cd6",
      "transactionIndex": "0xf5",
      "blockHash": "0x6d1acb167e6abfe762ab70b5cac1da1fd0bf16fc9ca9af329caded3b2516e63f",
      "blockNumber": "0x166f5ff",
      "gasUsed": "0x101a8",
      "effectiveGasPrice": "0x9550b88",
      "from": "0x56e3665038c5f0b56cc7d81ac66c86521274b251",
      "to": "0xda4aaf85bb924b53dcc2dffa9e1a9c2ef97acfdf",
      "contractAddress": null
    }
  ],
  "libraries": [],
  "pending": [],
  "returns": {},
  "timestamp": 1759827854,
  "chain": 1,
  "commit": "4a1fc26"
}