{
  "transactions": [
    {
      "hash": "0x0035687317ffc477361bb74e0c595063432f72e6557017da797f96b575231062",
      "transactionType": "CALL",
      "contractName": null,
      "contractAddress": "0xa7c93162962d050098f4bb44e88661517484c5eb",
      "function": "createVault((address,address,address,uint256,address,address,uint256,string,string,uint64,uint64),uint256)",
      "arguments": [
        "(0xFaD175CAf9B0Ac0EBca3B1816ec799884EB04B9c, 0x008c7DC790fA31E6CA19D8Cb6d11C53f6A88DF6c, 0x6383EDe871F8B0167905C2466505381CDcD9cC78, 86400, 0xaf88d065e77c8cC2239327C5EDb3A432268e5831, 0x9d93F4994C35EF081B57CF83114c4a3dD270046a, 50000000000000, TermMax USDC Vault V2, TermMax-USDC-Vault-V2, 0, 0)",
        "0"
      ],
      "transaction": {
        "from": "0x56e3665038c5f0b56cc7d81ac66c86521274b251",
        "to": "0xa7c93162962d050098f4bb44e88661517484c5eb",
        "gas": "0x7c4ed",
        "value": "0x0",
        "input": "0x8f9f50ae00000000000000000000000000000000000000000000000000000000000000400000000000000000000000000000000000000000000000000000000000000000000000000000000000000000fad175caf9b0ac0ebca3b1816ec799884eb04b9c000000000000000000000000008c7dc790fa31e6ca19d8cb6d11c53f6a88df6c0000000000000000000000006383ede871f8b0167905c2466505381cdcd9cc780000000000000000000000000000000000000000000000000000000000015180000000000000000000000000af88d065e77c8cc2239327c5edb3a432268e58310000000000000000000000009d93f4994c35ef081b57cf83114c4a3dd270046a00000000000000000000000000000000000000000000000000002d79883d2000000000000000000000000000000000000000000000000000000000000000016000000000000000000000000000000000000000000000000000000000000001a00000000000000000000000000000000000000000000000000000000000000000000000000000000000000000000000000000000000000000000000000000000000000000000000000000000000000000000000000000000000000000000000155465726d4d61782055534443205661756c74205632000000000000000000000000000000000000000000000000000000000000000000000000000000000000155465726d4d61782d555344432d5661756c742d56320000000000000000000000",
        "nonce": "0x172",
        "chainId": "0xa4b1"
      },
      "additionalContracts": [
        {
          "transactionType": "CREATE2",
          "address": "0xcb94abcffbf5cc76a55f9c1496632a26d19f9947",
          "initCode": "0x3d602d80600a3d3981f3363d3d373d3d3d363d7390e464bf902118c97866849e80dc9d0990a5565f5af43d82803e903d91602b57fd5bf3"
        }
      ],
      "isFixedGasLimit": false
    },
    {
      "hash": "0x88240c149c1a1fff06f33b06146a520717f1ddcb416bc811b0a6e06febef9698",
      "transactionType": "CALL",
      "contractName": null,
      "contractAddress": "0xa7c93162962d050098f4bb44e88661517484c5eb",
      "function": "createVault((address,address,address,uint256,address,address,uint256,string,string,uint64,uint64),uint256)",
      "arguments": [
        "(0xFaD175CAf9B0Ac0EBca3B1816ec799884EB04B9c, 0x008c7DC790fA31E6CA19D8Cb6d11C53f6A88DF6c, 0x6383EDe871F8B0167905C2466505381CDcD9cC78, 86400, 0x82aF49447D8a07e3bd95BD0d56f35241523fBab1, 0xBCd76D14dc50f2803BC9D93e4F9ECC00B8dAE38e, 5000000000000000000000, TermMax WETH Vault V2, TermMax-WETH-Vault-V2, 0, 0)",
        "0"
      ],
      "transaction": {
        "from": "0x56e3665038c5f0b56cc7d81ac66c86521274b251",
        "to": "0xa7c93162962d050098f4bb44e88661517484c5eb",
        "gas": "0x7c595",
        "value": "0x0",
        "input": "0x8f9f50ae00000000000000000000000000000000000000000000000000000000000000400000000000000000000000000000000000000000000000000000000000000000000000000000000000000000fad175caf9b0ac0ebca3b1816ec799884eb04b9c000000000000000000000000008c7dc790fa31e6ca19d8cb6d11c53f6a88df6c0000000000000000000000006383ede871f8b0167905c2466505381cdcd9cc78000000000000000000000000000000000000000000000000000000000001518000000000000000000000000082af49447d8a07e3bd95bd0d56f35241523fbab1000000000000000000000000bcd76d14dc50f2803bc9d93e4f9ecc00b8dae38e00000000000000000000000000000000000000000000010f0cf064dd59200000000000000000000000000000000000000000000000000000000000000000016000000000000000000000000000000000000000000000000000000000000001a00000000000000000000000000000000000000000000000000000000000000000000000000000000000000000000000000000000000000000000000000000000000000000000000000000000000000000000000000000000000000000000000155465726d4d61782057455448205661756c74205632000000000000000000000000000000000000000000000000000000000000000000000000000000000000155465726d4d61782d574554482d5661756c742d56320000000000000000000000",
        "nonce": "0x173",
        "chainId": "0xa4b1"
      },
      "additionalContracts": [
        {
          "transactionType": "CREATE2",
          "address": "0xb6692acb982c2da0775c947cb329b04ebfb4e0ac",
          "initCode": "0x3d602d80600a3d3981f3363d3d373d3d3d363d7390e464bf902118c97866849e80dc9d0990a5565f5af43d82803e903d91602b57fd5bf3"
        }
      ],
      "isFixedGasLimit": false
    },
    {
      "hash": "0x4eea933238a9f2e29f4dd76d63c53b7f261f76a1dde2f04a45be2a5ab3ff4e50",
      "transactionType": "CALL",
      "contractName": "ERC1967Proxy",
      "contractAddress": "0xfad175caf9b0ac0ebca3b1816ec799884eb04b9c",
      "function": null,
      "arguments": null,
      "transaction": {
        "from": "0x56e3665038c5f0b56cc7d81ac66c86521274b251",
        "to": "0xfad175caf9b0ac0ebca3b1816ec799884eb04b9c",
        "gas": "0x1e7bb",
        "value": "0x0",
        "input": "0x34ae51fe0000000000000000000000007a571901687e7f30431b4e86bdd1bab6cae51d430000000000000000000000000000000000000000000000000000000000000080000000000000000000000000000000000000000000000000000000000000000100000000000000000000000000000000000000000000000000000000000000010000000000000000000000000000000000000000000000000000000000000002000000000000000000000000cb94abcffbf5cc76a55f9c1496632a26d19f9947000000000000000000000000b6692acb982c2da0775c947cb329b04ebfb4e0ac",
        "nonce": "0x174",
        "chainId": "0xa4b1"
      },
      "additionalContracts": [],
      "isFixedGasLimit": false
    }
  ],
  "receipts": [
    {
      "status": "0x1",
      "cumulativeGasUsed": "0xa1a52",
      "logs": [
        {
          "address": "0xcb94abcffbf5cc76a55f9c1496632a26d19f9947",
          "topics": [
            "0x8be0079c531659141344cd1fd0a4f28419497f9722a3daafe3b4186f6b6457e0",
            "0x0000000000000000000000000000000000000000000000000000000000000000",
            "0x000000000000000000000000fad175caf9b0ac0ebca3b1816ec799884eb04b9c"
          ],
          "data": "0x",
          "blockHash": "0x69f697dc6be5981b23b22a4263e1ae76761cfa236d1384e440877b0a84a45942",
          "blockNumber": "0x16f6fee5",
          "transactionHash": "0x0035687317ffc477361bb74e0c595063432f72e6557017da797f96b575231062",
          "transactionIndex": "0x7",
          "logIndex": "0x4",
          "removed": false
        },
        {
          "address": "0xcb94abcffbf5cc76a55f9c1496632a26d19f9947",
          "topics": [
            "0x20affe2401825617c69366f8c3a3493d9822d1021d0b3023c4e77ea5b3d0fbc5",
            "0x000000000000000000000000a7c93162962d050098f4bb44e88661517484c5eb"
          ],
          "data": "0x0000000000000000000000000000000000000000000000000000000000000000",
          "blockHash": "0x69f697dc6be5981b23b22a4263e1ae76761cfa236d1384e440877b0a84a45942",
          "blockNumber": "0x16f6fee5",
          "transactionHash": "0x0035687317ffc477361bb74e0c595063432f72e6557017da797f96b575231062",
          "transactionIndex": "0x7",
          "logIndex": "0x5",
          "removed": false
        },
        {
          "address": "0xcb94abcffbf5cc76a55f9c1496632a26d19f9947",
          "topics": [
            "0xd28e9b90ee9b37c5936ff84392d71f29ff18117d7e76bcee60615262a90a3f75",
            "0x000000000000000000000000a7c93162962d050098f4bb44e88661517484c5eb"
          ],
          "data": "0x0000000000000000000000000000000000000000000000000000000000015180",
          "blockHash": "0x69f697dc6be5981b23b22a4263e1ae76761cfa236d1384e440877b0a84a45942",
          "blockNumber": "0x16f6fee5",
          "transactionHash": "0x0035687317ffc477361bb74e0c595063432f72e6557017da797f96b575231062",
          "transactionIndex": "0x7",
          "logIndex": "0x6",
          "removed": false
        },
        {
          "address": "0xcb94abcffbf5cc76a55f9c1496632a26d19f9947",
          "topics": [
            "0x0cdc8c1df674ca6c4f86f6d47b02a15083c5d3bf098ea38f02c2762bad0afad2",
            "0x000000000000000000000000a7c93162962d050098f4bb44e88661517484c5eb"
          ],
          "data": "0x0000000000000000000000000000000000000000000000000000000000000000",
          "blockHash": "0x69f697dc6be5981b23b22a4263e1ae76761cfa236d1384e440877b0a84a45942",
          "blockNumber": "0x16f6fee5",
          "transactionHash": "0x0035687317ffc477361bb74e0c595063432f72e6557017da797f96b575231062",
          "transactionIndex": "0x7",
          "logIndex": "0x7",
          "removed": false
        },
        {
          "address": "0xcb94abcffbf5cc76a55f9c1496632a26d19f9947",
          "topics": [
            "0xcb11cc8aade2f5a556749d1b2380d108a16fac3431e6a5d5ce12ef9de0bd76e3",
            "0x000000000000000000000000a7c93162962d050098f4bb44e88661517484c5eb"
          ],
          "data": "0x0000000000000000000000006383ede871f8b0167905c2466505381cdcd9cc78",
          "blockHash": "0x69f697dc6be5981b23b22a4263e1ae76761cfa236d1384e440877b0a84a45942",
          "blockNumber": "0x16f6fee5",
          "transactionHash": "0x0035687317ffc477361bb74e0c595063432f72e6557017da797f96b575231062",
          "transactionIndex": "0x7",
          "logIndex": "0x8",
          "removed": false
        },
        {
          "address": "0xcb94abcffbf5cc76a55f9c1496632a26d19f9947",
          "topics": [
            "0x51fa58fd85e72d533eb3933ef4dd0bb83a9614f46e076ffa025b0dcbb8dff315",
            "0x000000000000000000000000a7c93162962d050098f4bb44e88661517484c5eb"
          ],
          "data": "0x00000000000000000000000000000000000000000000000000002d79883d2000",
          "blockHash": "0x69f697dc6be5981b23b22a4263e1ae76761cfa236d1384e440877b0a84a45942",
          "blockNumber": "0x16f6fee5",
          "transactionHash": "0x0035687317ffc477361bb74e0c595063432f72e6557017da797f96b575231062",
          "transactionIndex": "0x7",
          "logIndex": "0x9",
          "removed": false
        },
        {
          "address": "0xcb94abcffbf5cc76a55f9c1496632a26d19f9947",
          "topics": [
            "0xbd0a63c12948fbc9194a5839019f99c9d71db924e5c70018265bc778b8f1a506"
          ],
          "data": "0x000000000000000000000000008c7dc790fa31e6ca19d8cb6d11c53f6a88df6c",
          "blockHash": "0x69f697dc6be5981b23b22a4263e1ae76761cfa236d1384e440877b0a84a45942",
          "blockNumber": "0x16f6fee5",
          "transactionHash": "0x0035687317ffc477361bb74e0c595063432f72e6557017da797f96b575231062",
          "transactionIndex": "0x7",
          "logIndex": "0xa",
          "removed": false
        },
        {
          "address": "0xcb94abcffbf5cc76a55f9c1496632a26d19f9947",
          "topics": [
            "0x390ace337562623e4cf938891cfa7e80b7b2e6ff395963aba93e537ce67e842c",
            "0x000000000000000000000000a7c93162962d050098f4bb44e88661517484c5eb",
            "0x0000000000000000000000009d93f4994c35ef081b57cf83114c4a3dd270046a"
          ],
          "data": "0x",
          "blockHash": "0x69f697dc6be5981b23b22a4263e1ae76761cfa236d1384e440877b0a84a45942",
          "blockNumber": "0x16f6fee5",
          "transactionHash": "0x0035687317ffc477361bb74e0c595063432f72e6557017da797f96b575231062",
          "transactionIndex": "0x7",
          "logIndex": "0xb",
          "removed": false
        },
        {
          "address": "0xcb94abcffbf5cc76a55f9c1496632a26d19f9947",
          "topics": [
            "0xc7f505b2f371ae2175ee4913f4499e1f2633a7b5936321eed1cdaeb6115181d2"
          ],
          "data": "0x0000000000000000000000000000000000000000000000000000000000000001",
          "blockHash": "0x69f697dc6be5981b23b22a4263e1ae76761cfa236d1384e440877b0a84a45942",
          "blockNumber": "0x16f6fee5",
          "transactionHash": "0x0035687317ffc477361bb74e0c595063432f72e6557017da797f96b575231062",
          "transactionIndex": "0x7",
          "logIndex": "0xc",
          "removed": false
        },
        {
          "address": "0xa7c93162962d050098f4bb44e88661517484c5eb",
          "topics": [
            "0xbec73c77ba89c2c3ae92a9b6b0fd32d6702691976f3c31962a992499b08549e4",
            "0x000000000000000000000000cb94abcffbf5cc76a55f9c1496632a26d19f9947",
            "0x00000000000000000000000056e3665038c5f0b56cc7d81ac66c86521274b251"
          ],
          "data": "0x0000000000000000000000000000000000000000000000000000000000000020000000000000000000000000fad175caf9b0ac0ebca3b1816ec799884eb04b9c000000000000000000000000008c7dc790fa31e6ca19d8cb6d11c53f6a88df6c0000000000000000000000006383ede871f8b0167905c2466505381cdcd9cc780000000000000000000000000000000000000000000000000000000000015180000000000000000000000000af88d065e77c8cc2239327c5edb3a432268e58310000000000000000000000009d93f4994c35ef081b57cf83114c4a3dd270046a00000000000000000000000000000000000000000000000000002d79883d2000000000000000000000000000000000000000000000000000000000000000016000000000000000000000000000000000000000000000000000000000000001a00000000000000000000000000000000000000000000000000000000000000000000000000000000000000000000000000000000000000000000000000000000000000000000000000000000000000000000000000000000000000000000000155465726d4d61782055534443205661756c74205632000000000000000000000000000000000000000000000000000000000000000000000000000000000000155465726d4d61782d555344432d5661756c742d56320000000000000000000000",
          "blockHash": "0x69f697dc6be5981b23b22a4263e1ae76761cfa236d1384e440877b0a84a45942",
          "blockNumber": "0x16f6fee5",
          "transactionHash": "0x0035687317ffc477361bb74e0c595063432f72e6557017da797f96b575231062",
          "transactionIndex": "0x7",
          "logIndex": "0xd",
          "removed": false
        }
      ],
      "logsBloom": "0x00000002001000000200000080000040000000000020000800880000000200000000000000000000000808000000000000010000000000000000000000040000080800000000000000000008000000008441000000000000000000010000000000000000020000000000400000010800000000000000000000000000000000420000000000000000100800000000000000004200400080000008000022000004000000000000000000000000800000028000000000000000000000000000000000002000000004002000000000004000000000000004000800000000000020100000000000000000000000002000000000000200000000400000100000000000",
      "type": "0x2",
      "transactionHash": "0x0035687317ffc477361bb74e0c595063432f72e6557017da797f96b575231062",
      "transactionIndex": "0x7",
      "blockHash": "0x69f697dc6be5981b23b22a4263e1ae76761cfa236d1384e440877b0a84a45942",
      "blockNumber": "0x16f6fee5",
      "gasUsed": "0x5d564",
      "effectiveGasPrice": "0x989680",
      "blobGasUsed": "0x0",
      "from": "0x56e3665038c5f0b56cc7d81ac66c86521274b251",
      "to": "0xa7c93162962d050098f4bb44e88661517484c5eb",
      "contractAddress": null,
      "gasUsedForL1": "0x1123",
      "l1BlockNumber": "0x1666e12"
    },
    {
      "status": "0x1",
      "cumulativeGasUsed": "0xdd31a",
      "logs": [
        {
          "address": "0xb6692acb982c2da0775c947cb329b04ebfb4e0ac",
          "topics": [
            "0x8be0079c531659141344cd1fd0a4f28419497f9722a3daafe3b4186f6b6457e0",
            "0x0000000000000000000000000000000000000000000000000000000000000000",
            "0x000000000000000000000000fad175caf9b0ac0ebca3b1816ec799884eb04b9c"
          ],
          "data": "0x",
          "blockHash": "0x0efc394b2a2147bbe7cd9fde73154557d5d649fe7796f78aea6fea40144edb86",
          "blockNumber": "0x16f6feea",
          "transactionHash": "0x88240c149c1a1fff06f33b06146a520717f1ddcb416bc811b0a6e06febef9698",
          "transactionIndex": "0x8",
          "logIndex": "0xb",
          "removed": false
        },
        {
          "address": "0xb6692acb982c2da0775c947cb329b04ebfb4e0ac",
          "topics": [
            "0x20affe2401825617c69366f8c3a3493d9822d1021d0b3023c4e77ea5b3d0fbc5",
            "0x000000000000000000000000a7c93162962d050098f4bb44e88661517484c5eb"
          ],
          "data": "0x0000000000000000000000000000000000000000000000000000000000000000",
          "blockHash": "0x0efc394b2a2147bbe7cd9fde73154557d5d649fe7796f78aea6fea40144edb86",
          "blockNumber": "0x16f6feea",
          "transactionHash": "0x88240c149c1a1fff06f33b06146a520717f1ddcb416bc811b0a6e06febef9698",
          "transactionIndex": "0x8",
          "logIndex": "0xc",
          "removed": false
        },
        {
          "address": "0xb6692acb982c2da0775c947cb329b04ebfb4e0ac",
          "topics": [
            "0xd28e9b90ee9b37c5936ff84392d71f29ff18117d7e76bcee60615262a90a3f75",
            "0x000000000000000000000000a7c93162962d050098f4bb44e88661517484c5eb"
          ],
          "data": "0x0000000000000000000000000000000000000000000000000000000000015180",
          "blockHash": "0x0efc394b2a2147bbe7cd9fde73154557d5d649fe7796f78aea6fea40144edb86",
          "blockNumber": "0x16f6feea",
          "transactionHash": "0x88240c149c1a1fff06f33b06146a520717f1ddcb416bc811b0a6e06febef9698",
          "transactionIndex": "0x8",
          "logIndex": "0xd",
          "removed": false
        },
        {
          "address": "0xb6692acb982c2da0775c947cb329b04ebfb4e0ac",
          "topics": [
            "0x0cdc8c1df674ca6c4f86f6d47b02a15083c5d3bf098ea38f02c2762bad0afad2",
            "0x000000000000000000000000a7c93162962d050098f4bb44e88661517484c5eb"
          ],
          "data": "0x0000000000000000000000000000000000000000000000000000000000000000",
          "blockHash": "0x0efc394b2a2147bbe7cd9fde73154557d5d649fe7796f78aea6fea40144edb86",
          "blockNumber": "0x16f6feea",
          "transactionHash": "0x88240c149c1a1fff06f33b06146a520717f1ddcb416bc811b0a6e06febef9698",
          "transactionIndex": "0x8",
          "logIndex": "0xe",
          "removed": false
        },
        {
          "address": "0xb6692acb982c2da0775c947cb329b04ebfb4e0ac",
          "topics": [
            "0xcb11cc8aade2f5a556749d1b2380d108a16fac3431e6a5d5ce12ef9de0bd76e3",
            "0x000000000000000000000000a7c93162962d050098f4bb44e88661517484c5eb"
          ],
          "data": "0x0000000000000000000000006383ede871f8b0167905c2466505381cdcd9cc78",
          "blockHash": "0x0efc394b2a2147bbe7cd9fde73154557d5d649fe7796f78aea6fea40144edb86",
          "blockNumber": "0x16f6feea",
          "transactionHash": "0x88240c149c1a1fff06f33b06146a520717f1ddcb416bc811b0a6e06febef9698",
          "transactionIndex": "0x8",
          "logIndex": "0xf",
          "removed": false
        },
        {
          "address": "0xb6692acb982c2da0775c947cb329b04ebfb4e0ac",
          "topics": [
            "0x51fa58fd85e72d533eb3933ef4dd0bb83a9614f46e076ffa025b0dcbb8dff315",
            "0x000000000000000000000000a7c93162962d050098f4bb44e88661517484c5eb"
          ],
          "data": "0x00000000000000000000000000000000000000000000010f0cf064dd59200000",
          "blockHash": "0x0efc394b2a2147bbe7cd9fde73154557d5d649fe7796f78aea6fea40144edb86",
          "blockNumber": "0x16f6feea",
          "transactionHash": "0x88240c149c1a1fff06f33b06146a520717f1ddcb416bc811b0a6e06febef9698",
          "transactionIndex": "0x8",
          "logIndex": "0x10",
          "removed": false
        },
        {
          "address": "0xb6692acb982c2da0775c947cb329b04ebfb4e0ac",
          "topics": [
            "0xbd0a63c12948fbc9194a5839019f99c9d71db924e5c70018265bc778b8f1a506"
          ],
          "data": "0x000000000000000000000000008c7dc790fa31e6ca19d8cb6d11c53f6a88df6c",
          "blockHash": "0x0efc394b2a2147bbe7cd9fde73154557d5d649fe7796f78aea6fea40144edb86",
          "blockNumber": "0x16f6feea",
          "transactionHash": "0x88240c149c1a1fff06f33b06146a520717f1ddcb416bc811b0a6e06febef9698",
          "transactionIndex": "0x8",
          "logIndex": "0x11",
          "removed": false
        },
        {
          "address": "0xb6692acb982c2da0775c947cb329b04ebfb4e0ac",
          "topics": [
            "0x390ace337562623e4cf938891cfa7e80b7b2e6ff395963aba93e537ce67e842c",
            "0x000000000000000000000000a7c93162962d050098f4bb44e88661517484c5eb",
            "0x000000000000000000000000bcd76d14dc50f2803bc9d93e4f9ecc00b8dae38e"
          ],
          "data": "0x",
          "blockHash": "0x0efc394b2a2147bbe7cd9fde73154557d5d649fe7796f78aea6fea40144edb86",
          "blockNumber": "0x16f6feea",
          "transactionHash": "0x88240c149c1a1fff06f33b06146a520717f1ddcb416bc811b0a6e06febef9698",
          "transactionIndex": "0x8",
          "logIndex": "0x12",
          "removed": false
        },
        {
          "address": "0xb6692acb982c2da0775c947cb329b04ebfb4e0ac",
          "topics": [
            "0xc7f505b2f371ae2175ee4913f4499e1f2633a7b5936321eed1cdaeb6115181d2"
          ],
          "data": "0x0000000000000000000000000000000000000000000000000000000000000001",
          "blockHash": "0x0efc394b2a2147bbe7cd9fde73154557d5d649fe7796f78aea6fea40144edb86",
          "blockNumber": "0x16f6feea",
          "transactionHash": "0x88240c149c1a1fff06f33b06146a520717f1ddcb416bc811b0a6e06febef9698",
          "transactionIndex": "0x8",
          "logIndex": "0x13",
          "removed": false
        },
        {
          "address": "0xa7c93162962d050098f4bb44e88661517484c5eb",
          "topics": [
            "0xbec73c77ba89c2c3ae92a9b6b0fd32d6702691976f3c31962a992499b08549e4",
            "0x000000000000000000000000b6692acb982c2da0775c947cb329b04ebfb4e0ac",
            "0x00000000000000000000000056e3665038c5f0b56cc7d81ac66c86521274b251"
          ],
          "data": "0x0000000000000000000000000000000000000000000000000000000000000020000000000000000000000000fad175caf9b0ac0ebca3b1816ec799884eb04b9c000000000000000000000000008c7dc790fa31e6ca19d8cb6d11c53f6a88df6c0000000000000000000000006383ede871f8b0167905c2466505381cdcd9cc78000000000000000000000000000000000000000000000000000000000001518000000000000000000000000082af49447d8a07e3bd95bd0d56f35241523fbab1000000000000000000000000bcd76d14dc50f2803bc9d93e4f9ecc00b8dae38e00000000000000000000000000000000000000000000010f0cf064dd59200000000000000000000000000000000000000000000000000000000000000000016000000000000000000000000000000000000000000000000000000000000001a00000000000000000000000000000000000000000000000000000000000000000000000000000000000000000000000000000000000000000000000000000000000000000000000000000000000000000000000000000000000000000000000155465726d4d61782057455448205661756c74205632000000000000000000000000000000000000000000000000000000000000000000000000000000000000155465726d4d61782d574554482d5661756c742d56320000000000000000000000",
          "blockHash": "0x0efc394b2a2147bbe7cd9fde73154557d5d649fe7796f78aea6fea40144edb86",
          "blockNumber": "0x16f6feea",
          "transactionHash": "0x88240c149c1a1fff06f33b06146a520717f1ddcb416bc811b0a6e06febef9698",
          "transactionIndex": "0x8",
          "logIndex": "0x14",
          "removed": false
        }
      ],
      "logsBloom": "0x00000002001000000200000080000040000000000020000800880000000200000000000000000000000840000000000000010000000000000000000000000000080800000000010000000808000000100401000000000000000000010000000000000000020000000000400000010800000000000000000000000000000000420000000000000000000800000000000000004200000080010004000002000004000000000000000000000000804000028000000000000000000000000000000000002000000004002000000020005000000000000004000000000000000020100000000000000000000000002000000000000200000000400000100000000000",
      "type": "0x2",
      "transactionHash": "0x88240c149c1a1fff06f33b06146a520717f1ddcb416bc811b0a6e06febef9698",
      "transactionIndex": "0x8",
      "blockHash": "0x0efc394b2a2147bbe7cd9fde73154557d5d649fe7796f78aea6fea40144edb86",
      "blockNumber": "0x16f6feea",
      "gasUsed": "0x5d641",
      "effectiveGasPrice": "0x989680",
      "blobGasUsed": "0x0",
      "from": "0x56e3665038c5f0b56cc7d81ac66c86521274b251",
      "to": "0xa7c93162962d050098f4bb44e88661517484c5eb",
      "contractAddress": null,
      "gasUsedForL1": "0x1199",
      "l1BlockNumber": "0x1666e12"
    },
    {
      "status": "0x1",
      "cumulativeGasUsed": "0x63c5d",
      "logs": [
        {
          "address": "0x7a571901687e7f30431b4e86bdd1bab6cae51d43",
          "topics": [
            "0x8c313170024355ce9211016d28e5e6f55ebaebad7fd43c86775ed3d3a3adadbb"
          ],
          "data": "0x0000000000000000000000000000000000000000000000000000000000000060000000000000000000000000000000000000000000000000000000000000000100000000000000000000000000000000000000000000000000000000000000010000000000000000000000000000000000000000000000000000000000000002000000000000000000000000cb94abcffbf5cc76a55f9c1496632a26d19f9947000000000000000000000000b6692acb982c2da0775c947cb329b04ebfb4e0ac",
          "blockHash": "0x0057c9d03f0ce32735b76681cbc9f4d0be8b621163b748b9445b50ba626ae537",
          "blockNumber": "0x16f6feef",
          "transactionHash": "0x4eea933238a9f2e29f4dd76d63c53b7f261f76a1dde2f04a45be2a5ab3ff4e50",
          "transactionIndex": "0x7",
          "logIndex": "0x3",
          "removed": false
        }
      ],
      "logsBloom": "0x00000000000000000000000000000000000000000000000000000000000000000000000000000000000000000000000000000000000000000800000000000000000000000000000000000000004000000000000000000000000000000000000000000000000000000000000000000000000000000000000000000000008000000000000000000000000000000000000000000000000000000000000000000000000000000000000000000010000000000000000000000000000000000000000000000000000000000000000000000000000000000000000100000000000000000000000000000200000000000000000000000000000000000000000000000000",
      "type": "0x2",
      "transactionHash": "0x4eea933238a9f2e29f4dd76d63c53b7f261f76a1dde2f04a45be2a5ab3ff4e50",
      "transactionIndex": "0x7",
      "blockHash": "0x0057c9d03f0ce32735b76681cbc9f4d0be8b621163b748b9445b50ba626ae537",
      "blockNumber": "0x16f6feef",
      "gasUsed": "0x168d7",
      "effectiveGasPrice": "0x989680",
      "blobGasUsed": "0x0",
      "from": "0x56e3665038c5f0b56cc7d81ac66c86521274b251",
      "to": "0xfad175caf9b0ac0ebca3b1816ec799884eb04b9c",
      "contractAddress": null,
      "gasUsedForL1": "0xc26",
      "l1BlockNumber": "0x1666e12"
    }
  ],
  "libraries": [],
  "pending": [],
  "returns": {},
  "timestamp": 1759407726,
  "chain": 42161,
  "commit": "9e4c713"
}