{
  "transactions": [
    {
      "hash": null,
      "transactionType": "CALL",
      "contractName": null,
      "contractAddress": "0xa0b86991c6218b36c1d19d4a2e9eb0ce3606eb48",
      "function": "transfer(address,uint256)",
      "arguments": [
        "0x43155bf7Ed1393379f44df7ca7299721917e41Ef",
        "10000000000"
      ],
      "transaction": {
        "from": "0x37305b1cd40574e4c5ce33f8e8306be057fd7341",
        "to": "0xa0b86991c6218b36c1d19d4a2e9eb0ce3606eb48",
        "gas": "0x14fec",
        "value": "0x0",
        "input": "0xa9059cbb00000000000000000000000043155bf7ed1393379f44df7ca7299721917e41ef00000000000000000000000000000000000000000000000000000002540be400",
        "nonce": "0x1",
        "chainId": "0x7a6b"
      },
      "additionalContracts": [],
      "isFixedGasLimit": false
    }
  ],
  "receipts": [],
  "libraries": [],
  "pending": [],
  "returns": {},
  "timestamp": 1731065358,
  "chain": 31339,
  "commit": "3fa1688"
}